{
	"Blockchain_project/ProfileManager.sol": {
		"ProfileManager": {
			"abi": [
				{
					"inputs": [
						{
							"internalType": "address",
							"name": "_ownerAddress",
							"type": "address"
						},
						{
							"internalType": "uint256",
							"name": "_campaignId",
							"type": "uint256"
						}
					],
					"name": "addCampaign",
					"outputs": [],
					"stateMutability": "nonpayable",
					"type": "function"
				},
				{
					"inputs": [
						{
							"internalType": "enum ProfileManager.Role",
							"name": "_role",
							"type": "uint8"
						},
						{
							"internalType": "string",
							"name": "_name",
							"type": "string"
						},
						{
							"internalType": "string",
							"name": "_profileImage",
							"type": "string"
						},
						{
							"internalType": "string",
							"name": "_description",
							"type": "string"
						}
					],
					"name": "createOwnerProfile",
					"outputs": [],
					"stateMutability": "nonpayable",
					"type": "function"
				},
				{
					"inputs": [],
					"name": "donationsContract",
					"outputs": [
						{
							"internalType": "address",
							"name": "",
							"type": "address"
						}
					],
					"stateMutability": "view",
					"type": "function"
				},
				{
					"inputs": [
						{
							"internalType": "address",
							"name": "_ownerAddress",
							"type": "address"
						}
					],
					"name": "getCampaigns",
					"outputs": [
						{
							"internalType": "address[]",
							"name": "ownerAddresses",
							"type": "address[]"
						},
						{
							"internalType": "string[]",
							"name": "titles",
							"type": "string[]"
						},
						{
							"internalType": "string[]",
							"name": "descriptions",
							"type": "string[]"
						},
						{
							"internalType": "uint256[]",
							"name": "targets",
							"type": "uint256[]"
						},
						{
							"internalType": "uint256[]",
							"name": "amountsCollected",
							"type": "uint256[]"
						},
						{
							"internalType": "uint256[]",
							"name": "totalWithdrawn",
							"type": "uint256[]"
						}
					],
					"stateMutability": "view",
					"type": "function"
				},
				{
					"inputs": [],
					"name": "getDonationAddress",
					"outputs": [
						{
							"internalType": "address",
							"name": "",
							"type": "address"
						}
					],
					"stateMutability": "view",
					"type": "function"
				},
				{
					"inputs": [
						{
							"internalType": "address",
							"name": "_ownerAddress",
							"type": "address"
						}
					],
					"name": "getOwnerDetails",
					"outputs": [
						{
							"components": [
								{
									"internalType": "address",
									"name": "ownerAddress",
									"type": "address"
								},
								{
									"internalType": "enum ProfileManager.Role",
									"name": "role",
									"type": "uint8"
								},
								{
									"internalType": "uint256",
									"name": "creationDate",
									"type": "uint256"
								},
								{
									"internalType": "string",
									"name": "name",
									"type": "string"
								},
								{
									"internalType": "string",
									"name": "profileImage",
									"type": "string"
								},
								{
									"internalType": "string",
									"name": "description",
									"type": "string"
								},
								{
									"internalType": "uint256[]",
									"name": "campaignIds",
									"type": "uint256[]"
								}
							],
							"internalType": "struct ProfileManager.Owner",
							"name": "",
							"type": "tuple"
						}
					],
					"stateMutability": "view",
					"type": "function"
				},
				{
					"inputs": [
						{
							"internalType": "address",
							"name": "_ownerAddress",
							"type": "address"
						}
					],
					"name": "getOwnerRole",
					"outputs": [
						{
							"internalType": "enum ProfileManager.Role",
							"name": "",
							"type": "uint8"
						}
					],
					"stateMutability": "view",
					"type": "function"
				},
				{
					"inputs": [
						{
							"internalType": "address",
							"name": "_user",
							"type": "address"
						}
					],
					"name": "isProfileActive",
					"outputs": [
						{
							"internalType": "bool",
							"name": "",
							"type": "bool"
						}
					],
					"stateMutability": "view",
					"type": "function"
				},
				{
					"inputs": [
						{
							"internalType": "address",
							"name": "_user",
							"type": "address"
						}
					],
					"name": "isProfileOwner",
					"outputs": [
						{
							"internalType": "bool",
							"name": "",
							"type": "bool"
						}
					],
					"stateMutability": "view",
					"type": "function"
				},
				{
					"inputs": [
						{
							"internalType": "address",
							"name": "",
							"type": "address"
						}
					],
					"name": "owners",
					"outputs": [
						{
							"internalType": "address",
							"name": "ownerAddress",
							"type": "address"
						},
						{
							"internalType": "enum ProfileManager.Role",
							"name": "role",
							"type": "uint8"
						},
						{
							"internalType": "uint256",
							"name": "creationDate",
							"type": "uint256"
						},
						{
							"internalType": "string",
							"name": "name",
							"type": "string"
						},
						{
							"internalType": "string",
							"name": "profileImage",
							"type": "string"
						},
						{
							"internalType": "string",
							"name": "description",
							"type": "string"
						}
					],
					"stateMutability": "view",
					"type": "function"
				},
				{
					"inputs": [
						{
							"internalType": "address",
							"name": "_donationsContract",
							"type": "address"
						}
					],
					"name": "setDonationsContract",
					"outputs": [],
					"stateMutability": "nonpayable",
					"type": "function"
				},
				{
					"inputs": [
						{
							"internalType": "string",
							"name": "_name",
							"type": "string"
						},
						{
							"internalType": "string",
							"name": "_profileImage",
							"type": "string"
						},
						{
							"internalType": "string",
							"name": "_description",
							"type": "string"
						}
					],
					"name": "updateOwnerProfile",
					"outputs": [],
					"stateMutability": "nonpayable",
					"type": "function"
				}
			],
			"devdoc": {
				"kind": "dev",
				"methods": {},
				"version": 1
			},
			"evm": {
				"assembly": "    /* \"Blockchain_project/ProfileManager.sol\":346:5880  contract ProfileManager {... */\n  mstore(0x40, 0x80)\n  callvalue\n  dup1\n  iszero\n  tag_1\n  jumpi\n  0x00\n  dup1\n  revert\ntag_1:\n  pop\n  dataSize(sub_0)\n  dup1\n  dataOffset(sub_0)\n  0x00\n  codecopy\n  0x00\n  return\nstop\n\nsub_0: assembly {\n        /* \"Blockchain_project/ProfileManager.sol\":346:5880  contract ProfileManager {... */\n      mstore(0x40, 0x80)\n      callvalue\n      dup1\n      iszero\n      tag_1\n      jumpi\n      0x00\n      dup1\n      revert\n    tag_1:\n      pop\n      jumpi(tag_2, lt(calldatasize, 0x04))\n      shr(0xe0, calldataload(0x00))\n      dup1\n      0x1afd3e8d\n      gt\n      tag_15\n      jumpi\n      dup1\n      0x1afd3e8d\n      eq\n      tag_9\n      jumpi\n      dup1\n      0x35f85c5a\n      eq\n      tag_10\n      jumpi\n      dup1\n      0x54c03ab7\n      eq\n      tag_11\n      jumpi\n      dup1\n      0xabaf78d4\n      eq\n      tag_12\n      jumpi\n      dup1\n      0xc3bb8121\n      eq\n      tag_13\n      jumpi\n      dup1\n      0xf5110205\n      eq\n      tag_14\n      jumpi\n      jump(tag_2)\n    tag_15:\n      dup1\n      0x022914a7\n      eq\n      tag_3\n      jumpi\n      dup1\n      0x03d7a671\n      eq\n      tag_4\n      jumpi\n      dup1\n      0x09261a9e\n      eq\n      tag_5\n      jumpi\n      dup1\n      0x0eb8d0e8\n      eq\n      tag_6\n      jumpi\n      dup1\n      0x13c876a2\n      eq\n      tag_7\n      jumpi\n      dup1\n      0x1693bfa1\n      eq\n      tag_8\n      jumpi\n    tag_2:\n      0x00\n      dup1\n      revert\n        /* \"Blockchain_project/ProfileManager.sol\":747:786  mapping(address => Owner) public owners */\n    tag_3:\n      tag_16\n      0x04\n      dup1\n      calldatasize\n      sub\n      dup2\n      add\n      swap1\n      tag_17\n      swap2\n      swap1\n      tag_18\n      jump\t// in\n    tag_17:\n      tag_19\n      jump\t// in\n    tag_16:\n      mload(0x40)\n      tag_20\n      swap7\n      swap6\n      swap5\n      swap4\n      swap3\n      swap2\n      swap1\n      tag_21\n      jump\t// in\n    tag_20:\n      mload(0x40)\n      dup1\n      swap2\n      sub\n      swap1\n      return\n        /* \"Blockchain_project/ProfileManager.sol\":3688:4079  function addCampaign(... */\n    tag_4:\n      tag_22\n      0x04\n      dup1\n      calldatasize\n      sub\n      dup2\n      add\n      swap1\n      tag_23\n      swap2\n      swap1\n      tag_24\n      jump\t// in\n    tag_23:\n      tag_25\n      jump\t// in\n    tag_22:\n      stop\n        /* \"Blockchain_project/ProfileManager.sol\":2946:3379  function updateOwnerProfile(... */\n    tag_5:\n      tag_26\n      0x04\n      dup1\n      calldatasize\n      sub\n      dup2\n      add\n      swap1\n      tag_27\n      swap2\n      swap1\n      tag_28\n      jump\t// in\n    tag_27:\n      tag_29\n      jump\t// in\n    tag_26:\n      stop\n        /* \"Blockchain_project/ProfileManager.sol\":1290:1480  function setDonationsContract(address _donationsContract) external {... */\n    tag_6:\n      tag_30\n      0x04\n      dup1\n      calldatasize\n      sub\n      dup2\n      add\n      swap1\n      tag_31\n      swap2\n      swap1\n      tag_18\n      jump\t// in\n    tag_31:\n      tag_32\n      jump\t// in\n    tag_30:\n      stop\n        /* \"Blockchain_project/ProfileManager.sol\":2234:2604  function isProfileOwner(address _user)... */\n    tag_7:\n      tag_33\n      0x04\n      dup1\n      calldatasize\n      sub\n      dup2\n      add\n      swap1\n      tag_34\n      swap2\n      swap1\n      tag_18\n      jump\t// in\n    tag_34:\n      tag_35\n      jump\t// in\n    tag_33:\n      mload(0x40)\n      tag_36\n      swap2\n      swap1\n      tag_37\n      jump\t// in\n    tag_36:\n      mload(0x40)\n      dup1\n      swap2\n      sub\n      swap1\n      return\n        /* \"Blockchain_project/ProfileManager.sol\":4166:5597  function getCampaigns(address _ownerAddress)... */\n    tag_8:\n      tag_38\n      0x04\n      dup1\n      calldatasize\n      sub\n      dup2\n      add\n      swap1\n      tag_39\n      swap2\n      swap1\n      tag_18\n      jump\t// in\n    tag_39:\n      tag_40\n      jump\t// in\n    tag_38:\n      mload(0x40)\n      tag_41\n      swap7\n      swap6\n      swap5\n      swap4\n      swap3\n      swap2\n      swap1\n      tag_42\n      jump\t// in\n    tag_41:\n      mload(0x40)\n      dup1\n      swap2\n      sub\n      swap1\n      return\n        /* \"Blockchain_project/ProfileManager.sol\":1529:2173  function createOwnerProfile(... */\n    tag_9:\n      tag_43\n      0x04\n      dup1\n      calldatasize\n      sub\n      dup2\n      add\n      swap1\n      tag_44\n      swap2\n      swap1\n      tag_45\n      jump\t// in\n    tag_44:\n      tag_46\n      jump\t// in\n    tag_43:\n      stop\n        /* \"Blockchain_project/ProfileManager.sol\":841:873  address public donationsContract */\n    tag_10:\n      tag_47\n      tag_48\n      jump\t// in\n    tag_47:\n      mload(0x40)\n      tag_49\n      swap2\n      swap1\n      tag_50\n      jump\t// in\n    tag_49:\n      mload(0x40)\n      dup1\n      swap2\n      sub\n      swap1\n      return\n        /* \"Blockchain_project/ProfileManager.sol\":5775:5876  function getDonationAddress() public view returns (address) {... */\n    tag_11:\n      tag_51\n      tag_52\n      jump\t// in\n    tag_51:\n      mload(0x40)\n      tag_53\n      swap2\n      swap1\n      tag_50\n      jump\t// in\n    tag_53:\n      mload(0x40)\n      dup1\n      swap2\n      sub\n      swap1\n      return\n        /* \"Blockchain_project/ProfileManager.sol\":2610:2892  function isProfileActive(address _user)... */\n    tag_12:\n      tag_54\n      0x04\n      dup1\n      calldatasize\n      sub\n      dup2\n      add\n      swap1\n      tag_55\n      swap2\n      swap1\n      tag_18\n      jump\t// in\n    tag_55:\n      tag_56\n      jump\t// in\n    tag_54:\n      mload(0x40)\n      tag_57\n      swap2\n      swap1\n      tag_37\n      jump\t// in\n    tag_57:\n      mload(0x40)\n      dup1\n      swap2\n      sub\n      swap1\n      return\n        /* \"Blockchain_project/ProfileManager.sol\":3427:3583  function getOwnerDetails(address _ownerAddress)... */\n    tag_13:\n      tag_58\n      0x04\n      dup1\n      calldatasize\n      sub\n      dup2\n      add\n      swap1\n      tag_59\n      swap2\n      swap1\n      tag_18\n      jump\t// in\n    tag_59:\n      tag_60\n      jump\t// in\n    tag_58:\n      mload(0x40)\n      tag_61\n      swap2\n      swap1\n      tag_62\n      jump\t// in\n    tag_61:\n      mload(0x40)\n      dup1\n      swap2\n      sub\n      swap1\n      return\n        /* \"Blockchain_project/ProfileManager.sol\":5647:5769  function getOwnerRole(address _ownerAddress) public view returns (Role) {... */\n    tag_14:\n      tag_63\n      0x04\n      dup1\n      calldatasize\n      sub\n      dup2\n      add\n      swap1\n      tag_64\n      swap2\n      swap1\n      tag_18\n      jump\t// in\n    tag_64:\n      tag_65\n      jump\t// in\n    tag_63:\n      mload(0x40)\n      tag_66\n      swap2\n      swap1\n      tag_67\n      jump\t// in\n    tag_66:\n      mload(0x40)\n      dup1\n      swap2\n      sub\n      swap1\n      return\n        /* \"Blockchain_project/ProfileManager.sol\":747:786  mapping(address => Owner) public owners */\n    tag_19:\n      mstore(0x20, 0x00)\n      dup1\n      0x00\n      mstore\n      keccak256(0x00, 0x40)\n      0x00\n      swap2\n      pop\n      swap1\n      pop\n      dup1\n      0x00\n      add\n      0x00\n      swap1\n      sload\n      swap1\n      0x0100\n      exp\n      swap1\n      div\n      0xffffffffffffffffffffffffffffffffffffffff\n      and\n      swap1\n      dup1\n      0x00\n      add\n      0x14\n      swap1\n      sload\n      swap1\n      0x0100\n      exp\n      swap1\n      div\n      0xff\n      and\n      swap1\n      dup1\n      0x01\n      add\n      sload\n      swap1\n      dup1\n      0x02\n      add\n      dup1\n      sload\n      tag_68\n      swap1\n      tag_69\n      jump\t// in\n    tag_68:\n      dup1\n      0x1f\n      add\n      0x20\n      dup1\n      swap2\n      div\n      mul\n      0x20\n      add\n      mload(0x40)\n      swap1\n      dup2\n      add\n      0x40\n      mstore\n      dup1\n      swap3\n      swap2\n      swap1\n      dup2\n      dup2\n      mstore\n      0x20\n      add\n      dup3\n      dup1\n      sload\n      tag_70\n      swap1\n      tag_69\n      jump\t// in\n    tag_70:\n      dup1\n      iszero\n      tag_71\n      jumpi\n      dup1\n      0x1f\n      lt\n      tag_72\n      jumpi\n      0x0100\n      dup1\n      dup4\n      sload\n      div\n      mul\n      dup4\n      mstore\n      swap2\n      0x20\n      add\n      swap2\n      jump(tag_71)\n    tag_72:\n      dup3\n      add\n      swap2\n      swap1\n      0x00\n      mstore\n      keccak256(0x00, 0x20)\n      swap1\n    tag_73:\n      dup2\n      sload\n      dup2\n      mstore\n      swap1\n      0x01\n      add\n      swap1\n      0x20\n      add\n      dup1\n      dup4\n      gt\n      tag_73\n      jumpi\n      dup3\n      swap1\n      sub\n      0x1f\n      and\n      dup3\n      add\n      swap2\n    tag_71:\n      pop\n      pop\n      pop\n      pop\n      pop\n      swap1\n      dup1\n      0x03\n      add\n      dup1\n      sload\n      tag_74\n      swap1\n      tag_69\n      jump\t// in\n    tag_74:\n      dup1\n      0x1f\n      add\n      0x20\n      dup1\n      swap2\n      div\n      mul\n      0x20\n      add\n      mload(0x40)\n      swap1\n      dup2\n      add\n      0x40\n      mstore\n      dup1\n      swap3\n      swap2\n      swap1\n      dup2\n      dup2\n      mstore\n      0x20\n      add\n      dup3\n      dup1\n      sload\n      tag_75\n      swap1\n      tag_69\n      jump\t// in\n    tag_75:\n      dup1\n      iszero\n      tag_76\n      jumpi\n      dup1\n      0x1f\n      lt\n      tag_77\n      jumpi\n      0x0100\n      dup1\n      dup4\n      sload\n      div\n      mul\n      dup4\n      mstore\n      swap2\n      0x20\n      add\n      swap2\n      jump(tag_76)\n    tag_77:\n      dup3\n      add\n      swap2\n      swap1\n      0x00\n      mstore\n      keccak256(0x00, 0x20)\n      swap1\n    tag_78:\n      dup2\n      sload\n      dup2\n      mstore\n      swap1\n      0x01\n      add\n      swap1\n      0x20\n      add\n      dup1\n      dup4\n      gt\n      tag_78\n      jumpi\n      dup3\n      swap1\n      sub\n      0x1f\n      and\n      dup3\n      add\n      swap2\n    tag_76:\n      pop\n      pop\n      pop\n      pop\n      pop\n      swap1\n      dup1\n      0x04\n      add\n      dup1\n      sload\n      tag_79\n      swap1\n      tag_69\n      jump\t// in\n    tag_79:\n      dup1\n      0x1f\n      add\n      0x20\n      dup1\n      swap2\n      div\n      mul\n      0x20\n      add\n      mload(0x40)\n      swap1\n      dup2\n      add\n      0x40\n      mstore\n      dup1\n      swap3\n      swap2\n      swap1\n      dup2\n      dup2\n      mstore\n      0x20\n      add\n      dup3\n      dup1\n      sload\n      tag_80\n      swap1\n      tag_69\n      jump\t// in\n    tag_80:\n      dup1\n      iszero\n      tag_81\n      jumpi\n      dup1\n      0x1f\n      lt\n      tag_82\n      jumpi\n      0x0100\n      dup1\n      dup4\n      sload\n      div\n      mul\n      dup4\n      mstore\n      swap2\n      0x20\n      add\n      swap2\n      jump(tag_81)\n    tag_82:\n      dup3\n      add\n      swap2\n      swap1\n      0x00\n      mstore\n      keccak256(0x00, 0x20)\n      swap1\n    tag_83:\n      dup2\n      sload\n      dup2\n      mstore\n      swap1\n      0x01\n      add\n      swap1\n      0x20\n      add\n      dup1\n      dup4\n      gt\n      tag_83\n      jumpi\n      dup3\n      swap1\n      sub\n      0x1f\n      and\n      dup3\n      add\n      swap2\n    tag_81:\n      pop\n      pop\n      pop\n      pop\n      pop\n      swap1\n      pop\n      dup7\n      jump\t// out\n        /* \"Blockchain_project/ProfileManager.sol\":3688:4079  function addCampaign(... */\n    tag_25:\n        /* \"Blockchain_project/ProfileManager.sol\":1098:1115  donationsContract */\n      0x01\n      0x00\n      swap1\n      sload\n      swap1\n      0x0100\n      exp\n      swap1\n      div\n      0xffffffffffffffffffffffffffffffffffffffff\n      and\n        /* \"Blockchain_project/ProfileManager.sol\":1084:1115  msg.sender == donationsContract */\n      0xffffffffffffffffffffffffffffffffffffffff\n      and\n        /* \"Blockchain_project/ProfileManager.sol\":1084:1094  msg.sender */\n      caller\n        /* \"Blockchain_project/ProfileManager.sol\":1084:1115  msg.sender == donationsContract */\n      0xffffffffffffffffffffffffffffffffffffffff\n      and\n      eq\n        /* \"Blockchain_project/ProfileManager.sol\":1063:1188  require(... */\n      tag_85\n      jumpi\n      mload(0x40)\n      0x08c379a000000000000000000000000000000000000000000000000000000000\n      dup2\n      mstore\n      0x04\n      add\n      tag_86\n      swap1\n      tag_87\n      jump\t// in\n    tag_86:\n      mload(0x40)\n      dup1\n      swap2\n      sub\n      swap1\n      revert\n    tag_85:\n        /* \"Blockchain_project/ProfileManager.sol\":3929:3930  0 */\n      0x00\n        /* \"Blockchain_project/ProfileManager.sol\":3883:3931  owners[_ownerAddress].ownerAddress != address(0) */\n      0xffffffffffffffffffffffffffffffffffffffff\n      and\n        /* \"Blockchain_project/ProfileManager.sol\":3883:3889  owners */\n      0x00\n        /* \"Blockchain_project/ProfileManager.sol\":3883:3904  owners[_ownerAddress] */\n      dup1\n        /* \"Blockchain_project/ProfileManager.sol\":3890:3903  _ownerAddress */\n      dup5\n        /* \"Blockchain_project/ProfileManager.sol\":3883:3904  owners[_ownerAddress] */\n      0xffffffffffffffffffffffffffffffffffffffff\n      and\n      0xffffffffffffffffffffffffffffffffffffffff\n      and\n      dup2\n      mstore\n      0x20\n      add\n      swap1\n      dup2\n      mstore\n      0x20\n      add\n      0x00\n      keccak256\n        /* \"Blockchain_project/ProfileManager.sol\":3883:3917  owners[_ownerAddress].ownerAddress */\n      0x00\n      add\n      0x00\n      swap1\n      sload\n      swap1\n      0x0100\n      exp\n      swap1\n      div\n      0xffffffffffffffffffffffffffffffffffffffff\n      and\n        /* \"Blockchain_project/ProfileManager.sol\":3883:3931  owners[_ownerAddress].ownerAddress != address(0) */\n      0xffffffffffffffffffffffffffffffffffffffff\n      and\n      sub\n        /* \"Blockchain_project/ProfileManager.sol\":3862:3986  require(... */\n      tag_89\n      jumpi\n      mload(0x40)\n      0x08c379a000000000000000000000000000000000000000000000000000000000\n      dup2\n      mstore\n      0x04\n      add\n      tag_90\n      swap1\n      tag_91\n      jump\t// in\n    tag_90:\n      mload(0x40)\n      dup1\n      swap2\n      sub\n      swap1\n      revert\n    tag_89:\n        /* \"Blockchain_project/ProfileManager.sol\":3997:4003  owners */\n      0x00\n        /* \"Blockchain_project/ProfileManager.sol\":3997:4018  owners[_ownerAddress] */\n      dup1\n        /* \"Blockchain_project/ProfileManager.sol\":4004:4017  _ownerAddress */\n      dup4\n        /* \"Blockchain_project/ProfileManager.sol\":3997:4018  owners[_ownerAddress] */\n      0xffffffffffffffffffffffffffffffffffffffff\n      and\n      0xffffffffffffffffffffffffffffffffffffffff\n      and\n      dup2\n      mstore\n      0x20\n      add\n      swap1\n      dup2\n      mstore\n      0x20\n      add\n      0x00\n      keccak256\n        /* \"Blockchain_project/ProfileManager.sol\":3997:4030  owners[_ownerAddress].campaignIds */\n      0x05\n      add\n        /* \"Blockchain_project/ProfileManager.sol\":4036:4047  _campaignId */\n      dup2\n        /* \"Blockchain_project/ProfileManager.sol\":3997:4048  owners[_ownerAddress].campaignIds.push(_campaignId) */\n      swap1\n      dup1\n      0x01\n      dup2\n      sload\n      add\n      dup1\n      dup3\n      sstore\n      dup1\n      swap2\n      pop\n      pop\n      0x01\n      swap1\n      sub\n      swap1\n      0x00\n      mstore\n      keccak256(0x00, 0x20)\n      add\n      0x00\n      swap1\n      swap2\n      swap1\n      swap2\n      swap1\n      swap2\n      pop\n      sstore\n        /* \"Blockchain_project/ProfileManager.sol\":3688:4079  function addCampaign(... */\n      pop\n      pop\n      jump\t// out\n        /* \"Blockchain_project/ProfileManager.sol\":2946:3379  function updateOwnerProfile(... */\n    tag_29:\n        /* \"Blockchain_project/ProfileManager.sol\":3099:3118  Owner storage owner */\n      0x00\n        /* \"Blockchain_project/ProfileManager.sol\":3121:3127  owners */\n      dup1\n        /* \"Blockchain_project/ProfileManager.sol\":3121:3139  owners[msg.sender] */\n      0x00\n        /* \"Blockchain_project/ProfileManager.sol\":3128:3138  msg.sender */\n      caller\n        /* \"Blockchain_project/ProfileManager.sol\":3121:3139  owners[msg.sender] */\n      0xffffffffffffffffffffffffffffffffffffffff\n      and\n      0xffffffffffffffffffffffffffffffffffffffff\n      and\n      dup2\n      mstore\n      0x20\n      add\n      swap1\n      dup2\n      mstore\n      0x20\n      add\n      0x00\n      keccak256\n        /* \"Blockchain_project/ProfileManager.sol\":3099:3139  Owner storage owner = owners[msg.sender] */\n      swap1\n      pop\n        /* \"Blockchain_project/ProfileManager.sol\":3200:3201  0 */\n      0x00\n        /* \"Blockchain_project/ProfileManager.sol\":3170:3202  owner.ownerAddress != address(0) */\n      0xffffffffffffffffffffffffffffffffffffffff\n      and\n        /* \"Blockchain_project/ProfileManager.sol\":3170:3175  owner */\n      dup2\n        /* \"Blockchain_project/ProfileManager.sol\":3170:3188  owner.ownerAddress */\n      0x00\n      add\n      0x00\n      swap1\n      sload\n      swap1\n      0x0100\n      exp\n      swap1\n      div\n      0xffffffffffffffffffffffffffffffffffffffff\n      and\n        /* \"Blockchain_project/ProfileManager.sol\":3170:3202  owner.ownerAddress != address(0) */\n      0xffffffffffffffffffffffffffffffffffffffff\n      and\n      sub\n        /* \"Blockchain_project/ProfileManager.sol\":3149:3257  require(... */\n      tag_94\n      jumpi\n      mload(0x40)\n      0x08c379a000000000000000000000000000000000000000000000000000000000\n      dup2\n      mstore\n      0x04\n      add\n      tag_95\n      swap1\n      tag_91\n      jump\t// in\n    tag_95:\n      mload(0x40)\n      dup1\n      swap2\n      sub\n      swap1\n      revert\n    tag_94:\n        /* \"Blockchain_project/ProfileManager.sol\":3281:3286  _name */\n      dup4\n        /* \"Blockchain_project/ProfileManager.sol\":3268:3273  owner */\n      dup2\n        /* \"Blockchain_project/ProfileManager.sol\":3268:3278  owner.name */\n      0x02\n      add\n        /* \"Blockchain_project/ProfileManager.sol\":3268:3286  owner.name = _name */\n      swap1\n      dup2\n      tag_96\n      swap2\n      swap1\n      tag_97\n      jump\t// in\n    tag_96:\n      pop\n        /* \"Blockchain_project/ProfileManager.sol\":3317:3330  _profileImage */\n      dup3\n        /* \"Blockchain_project/ProfileManager.sol\":3296:3301  owner */\n      dup2\n        /* \"Blockchain_project/ProfileManager.sol\":3296:3314  owner.profileImage */\n      0x03\n      add\n        /* \"Blockchain_project/ProfileManager.sol\":3296:3330  owner.profileImage = _profileImage */\n      swap1\n      dup2\n      tag_98\n      swap2\n      swap1\n      tag_97\n      jump\t// in\n    tag_98:\n      pop\n        /* \"Blockchain_project/ProfileManager.sol\":3360:3372  _description */\n      dup2\n        /* \"Blockchain_project/ProfileManager.sol\":3340:3345  owner */\n      dup2\n        /* \"Blockchain_project/ProfileManager.sol\":3340:3357  owner.description */\n      0x04\n      add\n        /* \"Blockchain_project/ProfileManager.sol\":3340:3372  owner.description = _description */\n      swap1\n      dup2\n      tag_99\n      swap2\n      swap1\n      tag_97\n      jump\t// in\n    tag_99:\n      pop\n        /* \"Blockchain_project/ProfileManager.sol\":3089:3379  {... */\n      pop\n        /* \"Blockchain_project/ProfileManager.sol\":2946:3379  function updateOwnerProfile(... */\n      pop\n      pop\n      pop\n      jump\t// out\n        /* \"Blockchain_project/ProfileManager.sol\":1290:1480  function setDonationsContract(address _donationsContract) external {... */\n    tag_32:\n        /* \"Blockchain_project/ProfileManager.sol\":1387:1405  _donationsContract */\n      dup1\n        /* \"Blockchain_project/ProfileManager.sol\":1367:1384  donationsContract */\n      0x01\n      0x00\n        /* \"Blockchain_project/ProfileManager.sol\":1367:1405  donationsContract = _donationsContract */\n      0x0100\n      exp\n      dup2\n      sload\n      dup2\n      0xffffffffffffffffffffffffffffffffffffffff\n      mul\n      not\n      and\n      swap1\n      dup4\n      0xffffffffffffffffffffffffffffffffffffffff\n      and\n      mul\n      or\n      swap1\n      sstore\n      pop\n        /* \"Blockchain_project/ProfileManager.sol\":1454:1472  _donationsContract */\n      dup1\n        /* \"Blockchain_project/ProfileManager.sol\":1415:1432  donationsInstance */\n      0x02\n      0x00\n        /* \"Blockchain_project/ProfileManager.sol\":1415:1473  donationsInstance = DonationsInterface(_donationsContract) */\n      0x0100\n      exp\n      dup2\n      sload\n      dup2\n      0xffffffffffffffffffffffffffffffffffffffff\n      mul\n      not\n      and\n      swap1\n      dup4\n      0xffffffffffffffffffffffffffffffffffffffff\n      and\n      mul\n      or\n      swap1\n      sstore\n      pop\n        /* \"Blockchain_project/ProfileManager.sol\":1290:1480  function setDonationsContract(address _donationsContract) external {... */\n      pop\n      jump\t// out\n        /* \"Blockchain_project/ProfileManager.sol\":2234:2604  function isProfileOwner(address _user)... */\n    tag_35:\n        /* \"Blockchain_project/ProfileManager.sol\":2348:2352  bool */\n      0x00\n        /* \"Blockchain_project/ProfileManager.sol\":1098:1115  donationsContract */\n      0x01\n      0x00\n      swap1\n      sload\n      swap1\n      0x0100\n      exp\n      swap1\n      div\n      0xffffffffffffffffffffffffffffffffffffffff\n      and\n        /* \"Blockchain_project/ProfileManager.sol\":1084:1115  msg.sender == donationsContract */\n      0xffffffffffffffffffffffffffffffffffffffff\n      and\n        /* \"Blockchain_project/ProfileManager.sol\":1084:1094  msg.sender */\n      caller\n        /* \"Blockchain_project/ProfileManager.sol\":1084:1115  msg.sender == donationsContract */\n      0xffffffffffffffffffffffffffffffffffffffff\n      and\n      eq\n        /* \"Blockchain_project/ProfileManager.sol\":1063:1188  require(... */\n      tag_102\n      jumpi\n      mload(0x40)\n      0x08c379a000000000000000000000000000000000000000000000000000000000\n      dup2\n      mstore\n      0x04\n      add\n      tag_103\n      swap1\n      tag_87\n      jump\t// in\n    tag_103:\n      mload(0x40)\n      dup1\n      swap2\n      sub\n      swap1\n      revert\n    tag_102:\n        /* \"Blockchain_project/ProfileManager.sol\":2368:2386  Owner memory owner */\n      0x00\n        /* \"Blockchain_project/ProfileManager.sol\":2389:2395  owners */\n      dup1\n        /* \"Blockchain_project/ProfileManager.sol\":2389:2402  owners[_user] */\n      0x00\n        /* \"Blockchain_project/ProfileManager.sol\":2396:2401  _user */\n      dup5\n        /* \"Blockchain_project/ProfileManager.sol\":2389:2402  owners[_user] */\n      0xffffffffffffffffffffffffffffffffffffffff\n      and\n      0xffffffffffffffffffffffffffffffffffffffff\n      and\n      dup2\n      mstore\n      0x20\n      add\n      swap1\n      dup2\n      mstore\n      0x20\n      add\n      0x00\n      keccak256\n        /* \"Blockchain_project/ProfileManager.sol\":2368:2402  Owner memory owner = owners[_user] */\n      mload(0x40)\n      dup1\n      0xe0\n      add\n      0x40\n      mstore\n      swap1\n      dup2\n      0x00\n      dup3\n      add\n      0x00\n      swap1\n      sload\n      swap1\n      0x0100\n      exp\n      swap1\n      div\n      0xffffffffffffffffffffffffffffffffffffffff\n      and\n      0xffffffffffffffffffffffffffffffffffffffff\n      and\n      0xffffffffffffffffffffffffffffffffffffffff\n      and\n      dup2\n      mstore\n      0x20\n      add\n      0x00\n      dup3\n      add\n      0x14\n      swap1\n      sload\n      swap1\n      0x0100\n      exp\n      swap1\n      div\n      0xff\n      and\n      0x02\n      dup2\n      gt\n      iszero\n      tag_105\n      jumpi\n      tag_106\n      tag_107\n      jump\t// in\n    tag_106:\n    tag_105:\n      0x02\n      dup2\n      gt\n      iszero\n      tag_108\n      jumpi\n      tag_109\n      tag_107\n      jump\t// in\n    tag_109:\n    tag_108:\n      dup2\n      mstore\n      0x20\n      add\n      0x01\n      dup3\n      add\n      sload\n      dup2\n      mstore\n      0x20\n      add\n      0x02\n      dup3\n      add\n      dup1\n      sload\n      tag_110\n      swap1\n      tag_69\n      jump\t// in\n    tag_110:\n      dup1\n      0x1f\n      add\n      0x20\n      dup1\n      swap2\n      div\n      mul\n      0x20\n      add\n      mload(0x40)\n      swap1\n      dup2\n      add\n      0x40\n      mstore\n      dup1\n      swap3\n      swap2\n      swap1\n      dup2\n      dup2\n      mstore\n      0x20\n      add\n      dup3\n      dup1\n      sload\n      tag_111\n      swap1\n      tag_69\n      jump\t// in\n    tag_111:\n      dup1\n      iszero\n      tag_112\n      jumpi\n      dup1\n      0x1f\n      lt\n      tag_113\n      jumpi\n      0x0100\n      dup1\n      dup4\n      sload\n      div\n      mul\n      dup4\n      mstore\n      swap2\n      0x20\n      add\n      swap2\n      jump(tag_112)\n    tag_113:\n      dup3\n      add\n      swap2\n      swap1\n      0x00\n      mstore\n      keccak256(0x00, 0x20)\n      swap1\n    tag_114:\n      dup2\n      sload\n      dup2\n      mstore\n      swap1\n      0x01\n      add\n      swap1\n      0x20\n      add\n      dup1\n      dup4\n      gt\n      tag_114\n      jumpi\n      dup3\n      swap1\n      sub\n      0x1f\n      and\n      dup3\n      add\n      swap2\n    tag_112:\n      pop\n      pop\n      pop\n      pop\n      pop\n      dup2\n      mstore\n      0x20\n      add\n      0x03\n      dup3\n      add\n      dup1\n      sload\n      tag_115\n      swap1\n      tag_69\n      jump\t// in\n    tag_115:\n      dup1\n      0x1f\n      add\n      0x20\n      dup1\n      swap2\n      div\n      mul\n      0x20\n      add\n      mload(0x40)\n      swap1\n      dup2\n      add\n      0x40\n      mstore\n      dup1\n      swap3\n      swap2\n      swap1\n      dup2\n      dup2\n      mstore\n      0x20\n      add\n      dup3\n      dup1\n      sload\n      tag_116\n      swap1\n      tag_69\n      jump\t// in\n    tag_116:\n      dup1\n      iszero\n      tag_117\n      jumpi\n      dup1\n      0x1f\n      lt\n      tag_118\n      jumpi\n      0x0100\n      dup1\n      dup4\n      sload\n      div\n      mul\n      dup4\n      mstore\n      swap2\n      0x20\n      add\n      swap2\n      jump(tag_117)\n    tag_118:\n      dup3\n      add\n      swap2\n      swap1\n      0x00\n      mstore\n      keccak256(0x00, 0x20)\n      swap1\n    tag_119:\n      dup2\n      sload\n      dup2\n      mstore\n      swap1\n      0x01\n      add\n      swap1\n      0x20\n      add\n      dup1\n      dup4\n      gt\n      tag_119\n      jumpi\n      dup3\n      swap1\n      sub\n      0x1f\n      and\n      dup3\n      add\n      swap2\n    tag_117:\n      pop\n      pop\n      pop\n      pop\n      pop\n      dup2\n      mstore\n      0x20\n      add\n      0x04\n      dup3\n      add\n      dup1\n      sload\n      tag_120\n      swap1\n      tag_69\n      jump\t// in\n    tag_120:\n      dup1\n      0x1f\n      add\n      0x20\n      dup1\n      swap2\n      div\n      mul\n      0x20\n      add\n      mload(0x40)\n      swap1\n      dup2\n      add\n      0x40\n      mstore\n      dup1\n      swap3\n      swap2\n      swap1\n      dup2\n      dup2\n      mstore\n      0x20\n      add\n      dup3\n      dup1\n      sload\n      tag_121\n      swap1\n      tag_69\n      jump\t// in\n    tag_121:\n      dup1\n      iszero\n      tag_122\n      jumpi\n      dup1\n      0x1f\n      lt\n      tag_123\n      jumpi\n      0x0100\n      dup1\n      dup4\n      sload\n      div\n      mul\n      dup4\n      mstore\n      swap2\n      0x20\n      add\n      swap2\n      jump(tag_122)\n    tag_123:\n      dup3\n      add\n      swap2\n      swap1\n      0x00\n      mstore\n      keccak256(0x00, 0x20)\n      swap1\n    tag_124:\n      dup2\n      sload\n      dup2\n      mstore\n      swap1\n      0x01\n      add\n      swap1\n      0x20\n      add\n      dup1\n      dup4\n      gt\n      tag_124\n      jumpi\n      dup3\n      swap1\n      sub\n      0x1f\n      and\n      dup3\n      add\n      swap2\n    tag_122:\n      pop\n      pop\n      pop\n      pop\n      pop\n      dup2\n      mstore\n      0x20\n      add\n      0x05\n      dup3\n      add\n      dup1\n      sload\n      dup1\n      0x20\n      mul\n      0x20\n      add\n      mload(0x40)\n      swap1\n      dup2\n      add\n      0x40\n      mstore\n      dup1\n      swap3\n      swap2\n      swap1\n      dup2\n      dup2\n      mstore\n      0x20\n      add\n      dup3\n      dup1\n      sload\n      dup1\n      iszero\n      tag_125\n      jumpi\n      0x20\n      mul\n      dup3\n      add\n      swap2\n      swap1\n      0x00\n      mstore\n      keccak256(0x00, 0x20)\n      swap1\n    tag_126:\n      dup2\n      sload\n      dup2\n      mstore\n      0x20\n      add\n      swap1\n      0x01\n      add\n      swap1\n      dup1\n      dup4\n      gt\n      tag_126\n      jumpi\n    tag_125:\n      pop\n      pop\n      pop\n      pop\n      pop\n      dup2\n      mstore\n      pop\n      pop\n      swap1\n      pop\n        /* \"Blockchain_project/ProfileManager.sol\":2451:2452  0 */\n      0x00\n        /* \"Blockchain_project/ProfileManager.sol\":2421:2453  owner.ownerAddress != address(0) */\n      0xffffffffffffffffffffffffffffffffffffffff\n      and\n        /* \"Blockchain_project/ProfileManager.sol\":2421:2426  owner */\n      dup2\n        /* \"Blockchain_project/ProfileManager.sol\":2421:2439  owner.ownerAddress */\n      0x00\n      add\n      mload\n        /* \"Blockchain_project/ProfileManager.sol\":2421:2453  owner.ownerAddress != address(0) */\n      0xffffffffffffffffffffffffffffffffffffffff\n      and\n      sub\n        /* \"Blockchain_project/ProfileManager.sol\":2413:2480  require(owner.ownerAddress != address(0), \"Profile does not exist\") */\n      tag_127\n      jumpi\n      mload(0x40)\n      0x08c379a000000000000000000000000000000000000000000000000000000000\n      dup2\n      mstore\n      0x04\n      add\n      tag_128\n      swap1\n      tag_129\n      jump\t// in\n    tag_128:\n      mload(0x40)\n      dup1\n      swap2\n      sub\n      swap1\n      revert\n    tag_127:\n        /* \"Blockchain_project/ProfileManager.sol\":2549:2554  _user */\n      dup3\n        /* \"Blockchain_project/ProfileManager.sol\":2527:2554  owner.ownerAddress == _user */\n      0xffffffffffffffffffffffffffffffffffffffff\n      and\n        /* \"Blockchain_project/ProfileManager.sol\":2527:2532  owner */\n      dup2\n        /* \"Blockchain_project/ProfileManager.sol\":2527:2545  owner.ownerAddress */\n      0x00\n      add\n      mload\n        /* \"Blockchain_project/ProfileManager.sol\":2527:2554  owner.ownerAddress == _user */\n      0xffffffffffffffffffffffffffffffffffffffff\n      and\n      eq\n        /* \"Blockchain_project/ProfileManager.sol\":2520:2554  return owner.ownerAddress == _user */\n      swap2\n      pop\n      pop\n        /* \"Blockchain_project/ProfileManager.sol\":2234:2604  function isProfileOwner(address _user)... */\n      swap2\n      swap1\n      pop\n      jump\t// out\n        /* \"Blockchain_project/ProfileManager.sol\":4166:5597  function getCampaigns(address _ownerAddress)... */\n    tag_40:\n        /* \"Blockchain_project/ProfileManager.sol\":4269:4300  address[] memory ownerAddresses */\n      0x60\n        /* \"Blockchain_project/ProfileManager.sol\":4314:4336  string[] memory titles */\n      dup1\n        /* \"Blockchain_project/ProfileManager.sol\":4350:4378  string[] memory descriptions */\n      0x60\n        /* \"Blockchain_project/ProfileManager.sol\":4392:4416  uint256[] memory targets */\n      dup1\n        /* \"Blockchain_project/ProfileManager.sol\":4430:4463  uint256[] memory amountsCollected */\n      0x60\n        /* \"Blockchain_project/ProfileManager.sol\":4477:4508  uint256[] memory totalWithdrawn */\n      dup1\n        /* \"Blockchain_project/ProfileManager.sol\":4533:4561  uint256[] memory campaignIds */\n      0x00\n        /* \"Blockchain_project/ProfileManager.sol\":4564:4570  owners */\n      dup1\n        /* \"Blockchain_project/ProfileManager.sol\":4564:4585  owners[_ownerAddress] */\n      0x00\n        /* \"Blockchain_project/ProfileManager.sol\":4571:4584  _ownerAddress */\n      dup10\n        /* \"Blockchain_project/ProfileManager.sol\":4564:4585  owners[_ownerAddress] */\n      0xffffffffffffffffffffffffffffffffffffffff\n      and\n      0xffffffffffffffffffffffffffffffffffffffff\n      and\n      dup2\n      mstore\n      0x20\n      add\n      swap1\n      dup2\n      mstore\n      0x20\n      add\n      0x00\n      keccak256\n        /* \"Blockchain_project/ProfileManager.sol\":4564:4597  owners[_ownerAddress].campaignIds */\n      0x05\n      add\n        /* \"Blockchain_project/ProfileManager.sol\":4533:4597  uint256[] memory campaignIds = owners[_ownerAddress].campaignIds */\n      dup1\n      sload\n      dup1\n      0x20\n      mul\n      0x20\n      add\n      mload(0x40)\n      swap1\n      dup2\n      add\n      0x40\n      mstore\n      dup1\n      swap3\n      swap2\n      swap1\n      dup2\n      dup2\n      mstore\n      0x20\n      add\n      dup3\n      dup1\n      sload\n      dup1\n      iszero\n      tag_131\n      jumpi\n      0x20\n      mul\n      dup3\n      add\n      swap2\n      swap1\n      0x00\n      mstore\n      keccak256(0x00, 0x20)\n      swap1\n    tag_132:\n      dup2\n      sload\n      dup2\n      mstore\n      0x20\n      add\n      swap1\n      0x01\n      add\n      swap1\n      dup1\n      dup4\n      gt\n      tag_132\n      jumpi\n    tag_131:\n      pop\n      pop\n      pop\n      pop\n      pop\n      swap1\n      pop\n        /* \"Blockchain_project/ProfileManager.sol\":4639:4650  campaignIds */\n      dup1\n        /* \"Blockchain_project/ProfileManager.sol\":4639:4657  campaignIds.length */\n      mload\n        /* \"Blockchain_project/ProfileManager.sol\":4625:4658  new address[](campaignIds.length) */\n      0xffffffffffffffff\n      dup2\n      gt\n      iszero\n      tag_133\n      jumpi\n      tag_134\n      tag_135\n      jump\t// in\n    tag_134:\n    tag_133:\n      mload(0x40)\n      swap1\n      dup1\n      dup3\n      mstore\n      dup1\n      0x20\n      mul\n      0x20\n      add\n      dup3\n      add\n      0x40\n      mstore\n      dup1\n      iszero\n      tag_136\n      jumpi\n      dup2\n      0x20\n      add\n      0x20\n      dup3\n      mul\n      dup1\n      calldatasize\n      dup4\n      calldatacopy\n      dup1\n      dup3\n      add\n      swap2\n      pop\n      pop\n      swap1\n      pop\n    tag_136:\n      pop\n        /* \"Blockchain_project/ProfileManager.sol\":4608:4658  ownerAddresses = new address[](campaignIds.length) */\n      swap7\n      pop\n        /* \"Blockchain_project/ProfileManager.sol\":4690:4701  campaignIds */\n      dup1\n        /* \"Blockchain_project/ProfileManager.sol\":4690:4708  campaignIds.length */\n      mload\n        /* \"Blockchain_project/ProfileManager.sol\":4677:4709  new string[](campaignIds.length) */\n      0xffffffffffffffff\n      dup2\n      gt\n      iszero\n      tag_137\n      jumpi\n      tag_138\n      tag_135\n      jump\t// in\n    tag_138:\n    tag_137:\n      mload(0x40)\n      swap1\n      dup1\n      dup3\n      mstore\n      dup1\n      0x20\n      mul\n      0x20\n      add\n      dup3\n      add\n      0x40\n      mstore\n      dup1\n      iszero\n      tag_139\n      jumpi\n      dup2\n      0x20\n      add\n    tag_140:\n      0x60\n      dup2\n      mstore\n      0x20\n      add\n      swap1\n      0x01\n      swap1\n      sub\n      swap1\n      dup2\n      tag_140\n      jumpi\n      swap1\n      pop\n    tag_139:\n      pop\n        /* \"Blockchain_project/ProfileManager.sol\":4668:4709  titles = new string[](campaignIds.length) */\n      swap6\n      pop\n        /* \"Blockchain_project/ProfileManager.sol\":4747:4758  campaignIds */\n      dup1\n        /* \"Blockchain_project/ProfileManager.sol\":4747:4765  campaignIds.length */\n      mload\n        /* \"Blockchain_project/ProfileManager.sol\":4734:4766  new string[](campaignIds.length) */\n      0xffffffffffffffff\n      dup2\n      gt\n      iszero\n      tag_141\n      jumpi\n      tag_142\n      tag_135\n      jump\t// in\n    tag_142:\n    tag_141:\n      mload(0x40)\n      swap1\n      dup1\n      dup3\n      mstore\n      dup1\n      0x20\n      mul\n      0x20\n      add\n      dup3\n      add\n      0x40\n      mstore\n      dup1\n      iszero\n      tag_143\n      jumpi\n      dup2\n      0x20\n      add\n    tag_144:\n      0x60\n      dup2\n      mstore\n      0x20\n      add\n      swap1\n      0x01\n      swap1\n      sub\n      swap1\n      dup2\n      tag_144\n      jumpi\n      swap1\n      pop\n    tag_143:\n      pop\n        /* \"Blockchain_project/ProfileManager.sol\":4719:4766  descriptions = new string[](campaignIds.length) */\n      swap5\n      pop\n        /* \"Blockchain_project/ProfileManager.sol\":4800:4811  campaignIds */\n      dup1\n        /* \"Blockchain_project/ProfileManager.sol\":4800:4818  campaignIds.length */\n      mload\n        /* \"Blockchain_project/ProfileManager.sol\":4786:4819  new uint256[](campaignIds.length) */\n      0xffffffffffffffff\n      dup2\n      gt\n      iszero\n      tag_145\n      jumpi\n      tag_146\n      tag_135\n      jump\t// in\n    tag_146:\n    tag_145:\n      mload(0x40)\n      swap1\n      dup1\n      dup3\n      mstore\n      dup1\n      0x20\n      mul\n      0x20\n      add\n      dup3\n      add\n      0x40\n      mstore\n      dup1\n      iszero\n      tag_147\n      jumpi\n      dup2\n      0x20\n      add\n      0x20\n      dup3\n      mul\n      dup1\n      calldatasize\n      dup4\n      calldatacopy\n      dup1\n      dup3\n      add\n      swap2\n      pop\n      pop\n      swap1\n      pop\n    tag_147:\n      pop\n        /* \"Blockchain_project/ProfileManager.sol\":4776:4819  targets = new uint256[](campaignIds.length) */\n      swap4\n      pop\n        /* \"Blockchain_project/ProfileManager.sol\":4862:4873  campaignIds */\n      dup1\n        /* \"Blockchain_project/ProfileManager.sol\":4862:4880  campaignIds.length */\n      mload\n        /* \"Blockchain_project/ProfileManager.sol\":4848:4881  new uint256[](campaignIds.length) */\n      0xffffffffffffffff\n      dup2\n      gt\n      iszero\n      tag_148\n      jumpi\n      tag_149\n      tag_135\n      jump\t// in\n    tag_149:\n    tag_148:\n      mload(0x40)\n      swap1\n      dup1\n      dup3\n      mstore\n      dup1\n      0x20\n      mul\n      0x20\n      add\n      dup3\n      add\n      0x40\n      mstore\n      dup1\n      iszero\n      tag_150\n      jumpi\n      dup2\n      0x20\n      add\n      0x20\n      dup3\n      mul\n      dup1\n      calldatasize\n      dup4\n      calldatacopy\n      dup1\n      dup3\n      add\n      swap2\n      pop\n      pop\n      swap1\n      pop\n    tag_150:\n      pop\n        /* \"Blockchain_project/ProfileManager.sol\":4829:4881  amountsCollected = new uint256[](campaignIds.length) */\n      swap3\n      pop\n        /* \"Blockchain_project/ProfileManager.sol\":4922:4933  campaignIds */\n      dup1\n        /* \"Blockchain_project/ProfileManager.sol\":4922:4940  campaignIds.length */\n      mload\n        /* \"Blockchain_project/ProfileManager.sol\":4908:4941  new uint256[](campaignIds.length) */\n      0xffffffffffffffff\n      dup2\n      gt\n      iszero\n      tag_151\n      jumpi\n      tag_152\n      tag_135\n      jump\t// in\n    tag_152:\n    tag_151:\n      mload(0x40)\n      swap1\n      dup1\n      dup3\n      mstore\n      dup1\n      0x20\n      mul\n      0x20\n      add\n      dup3\n      add\n      0x40\n      mstore\n      dup1\n      iszero\n      tag_153\n      jumpi\n      dup2\n      0x20\n      add\n      0x20\n      dup3\n      mul\n      dup1\n      calldatasize\n      dup4\n      calldatacopy\n      dup1\n      dup3\n      add\n      swap2\n      pop\n      pop\n      swap1\n      pop\n    tag_153:\n      pop\n        /* \"Blockchain_project/ProfileManager.sol\":4891:4941  totalWithdrawn = new uint256[](campaignIds.length) */\n      swap2\n      pop\n        /* \"Blockchain_project/ProfileManager.sol\":4957:4966  uint256 i */\n      0x00\n        /* \"Blockchain_project/ProfileManager.sol\":4952:5591  for (uint256 i = 0; i < campaignIds.length; i++) {... */\n    tag_154:\n        /* \"Blockchain_project/ProfileManager.sol\":4976:4987  campaignIds */\n      dup2\n        /* \"Blockchain_project/ProfileManager.sol\":4976:4994  campaignIds.length */\n      mload\n        /* \"Blockchain_project/ProfileManager.sol\":4972:4973  i */\n      dup2\n        /* \"Blockchain_project/ProfileManager.sol\":4972:4994  i < campaignIds.length */\n      lt\n        /* \"Blockchain_project/ProfileManager.sol\":4952:5591  for (uint256 i = 0; i < campaignIds.length; i++) {... */\n      iszero\n      tag_155\n      jumpi\n        /* \"Blockchain_project/ProfileManager.sol\":5033:5053  address ownerAddress */\n      0x00\n        /* \"Blockchain_project/ProfileManager.sol\":5071:5090  string memory title */\n      dup1\n        /* \"Blockchain_project/ProfileManager.sol\":5108:5133  string memory description */\n      0x00\n        /* \"Blockchain_project/ProfileManager.sol\":5151:5165  uint256 target */\n      dup1\n        /* \"Blockchain_project/ProfileManager.sol\":5183:5206  uint256 amountCollected */\n      0x00\n        /* \"Blockchain_project/ProfileManager.sol\":5224:5252  uint256 totalWithdrawnAmount */\n      dup1\n        /* \"Blockchain_project/ProfileManager.sol\":5269:5286  donationsInstance */\n      0x02\n      0x00\n      swap1\n      sload\n      swap1\n      0x0100\n      exp\n      swap1\n      div\n      0xffffffffffffffffffffffffffffffffffffffff\n      and\n        /* \"Blockchain_project/ProfileManager.sol\":5269:5305  donationsInstance.getCampaignDetails */\n      0xffffffffffffffffffffffffffffffffffffffff\n      and\n      0xd993de62\n        /* \"Blockchain_project/ProfileManager.sol\":5306:5317  campaignIds */\n      dup10\n        /* \"Blockchain_project/ProfileManager.sol\":5318:5319  i */\n      dup10\n        /* \"Blockchain_project/ProfileManager.sol\":5306:5320  campaignIds[i] */\n      dup2\n      mload\n      dup2\n      lt\n      tag_157\n      jumpi\n      tag_158\n      tag_159\n      jump\t// in\n    tag_158:\n    tag_157:\n      0x20\n      mul\n      0x20\n      add\n      add\n      mload\n        /* \"Blockchain_project/ProfileManager.sol\":5269:5321  donationsInstance.getCampaignDetails(campaignIds[i]) */\n      mload(0x40)\n      dup3\n      0xffffffff\n      and\n      0xe0\n      shl\n      dup2\n      mstore\n      0x04\n      add\n      tag_160\n      swap2\n      swap1\n      tag_161\n      jump\t// in\n    tag_160:\n      0x00\n      mload(0x40)\n      dup1\n      dup4\n      sub\n      dup2\n      dup7\n      gas\n      staticcall\n      iszero\n      dup1\n      iszero\n      tag_163\n      jumpi\n      returndatasize\n      0x00\n      dup1\n      returndatacopy\n      revert(0x00, returndatasize)\n    tag_163:\n      pop\n      pop\n      pop\n      pop\n      mload(0x40)\n      returndatasize\n      0x00\n      dup3\n      returndatacopy\n      returndatasize\n      not(0x1f)\n      0x1f\n      dup3\n      add\n      and\n      dup3\n      add\n      dup1\n      0x40\n      mstore\n      pop\n      dup2\n      add\n      swap1\n      tag_164\n      swap2\n      swap1\n      tag_165\n      jump\t// in\n    tag_164:\n        /* \"Blockchain_project/ProfileManager.sol\":5015:5321  (... */\n      swap6\n      pop\n      swap6\n      pop\n      swap6\n      pop\n      swap6\n      pop\n      swap6\n      pop\n      swap6\n      pop\n        /* \"Blockchain_project/ProfileManager.sol\":5356:5368  ownerAddress */\n      dup6\n        /* \"Blockchain_project/ProfileManager.sol\":5336:5350  ownerAddresses */\n      dup15\n        /* \"Blockchain_project/ProfileManager.sol\":5351:5352  i */\n      dup9\n        /* \"Blockchain_project/ProfileManager.sol\":5336:5353  ownerAddresses[i] */\n      dup2\n      mload\n      dup2\n      lt\n      tag_166\n      jumpi\n      tag_167\n      tag_159\n      jump\t// in\n    tag_167:\n    tag_166:\n      0x20\n      mul\n      0x20\n      add\n      add\n        /* \"Blockchain_project/ProfileManager.sol\":5336:5368  ownerAddresses[i] = ownerAddress */\n      swap1\n      0xffffffffffffffffffffffffffffffffffffffff\n      and\n      swap1\n      dup2\n      0xffffffffffffffffffffffffffffffffffffffff\n      and\n      dup2\n      mstore\n      pop\n      pop\n        /* \"Blockchain_project/ProfileManager.sol\":5394:5399  title */\n      dup5\n        /* \"Blockchain_project/ProfileManager.sol\":5382:5388  titles */\n      dup14\n        /* \"Blockchain_project/ProfileManager.sol\":5389:5390  i */\n      dup9\n        /* \"Blockchain_project/ProfileManager.sol\":5382:5391  titles[i] */\n      dup2\n      mload\n      dup2\n      lt\n      tag_168\n      jumpi\n      tag_169\n      tag_159\n      jump\t// in\n    tag_169:\n    tag_168:\n      0x20\n      mul\n      0x20\n      add\n      add\n        /* \"Blockchain_project/ProfileManager.sol\":5382:5399  titles[i] = title */\n      dup2\n      swap1\n      mstore\n      pop\n        /* \"Blockchain_project/ProfileManager.sol\":5431:5442  description */\n      dup4\n        /* \"Blockchain_project/ProfileManager.sol\":5413:5425  descriptions */\n      dup13\n        /* \"Blockchain_project/ProfileManager.sol\":5426:5427  i */\n      dup9\n        /* \"Blockchain_project/ProfileManager.sol\":5413:5428  descriptions[i] */\n      dup2\n      mload\n      dup2\n      lt\n      tag_170\n      jumpi\n      tag_171\n      tag_159\n      jump\t// in\n    tag_171:\n    tag_170:\n      0x20\n      mul\n      0x20\n      add\n      add\n        /* \"Blockchain_project/ProfileManager.sol\":5413:5442  descriptions[i] = description */\n      dup2\n      swap1\n      mstore\n      pop\n        /* \"Blockchain_project/ProfileManager.sol\":5469:5475  target */\n      dup3\n        /* \"Blockchain_project/ProfileManager.sol\":5456:5463  targets */\n      dup12\n        /* \"Blockchain_project/ProfileManager.sol\":5464:5465  i */\n      dup9\n        /* \"Blockchain_project/ProfileManager.sol\":5456:5466  targets[i] */\n      dup2\n      mload\n      dup2\n      lt\n      tag_172\n      jumpi\n      tag_173\n      tag_159\n      jump\t// in\n    tag_173:\n    tag_172:\n      0x20\n      mul\n      0x20\n      add\n      add\n        /* \"Blockchain_project/ProfileManager.sol\":5456:5475  targets[i] = target */\n      dup2\n      dup2\n      mstore\n      pop\n      pop\n        /* \"Blockchain_project/ProfileManager.sol\":5511:5526  amountCollected */\n      dup2\n        /* \"Blockchain_project/ProfileManager.sol\":5489:5505  amountsCollected */\n      dup11\n        /* \"Blockchain_project/ProfileManager.sol\":5506:5507  i */\n      dup9\n        /* \"Blockchain_project/ProfileManager.sol\":5489:5508  amountsCollected[i] */\n      dup2\n      mload\n      dup2\n      lt\n      tag_174\n      jumpi\n      tag_175\n      tag_159\n      jump\t// in\n    tag_175:\n    tag_174:\n      0x20\n      mul\n      0x20\n      add\n      add\n        /* \"Blockchain_project/ProfileManager.sol\":5489:5526  amountsCollected[i] = amountCollected */\n      dup2\n      dup2\n      mstore\n      pop\n      pop\n        /* \"Blockchain_project/ProfileManager.sol\":5560:5580  totalWithdrawnAmount */\n      dup1\n        /* \"Blockchain_project/ProfileManager.sol\":5540:5554  totalWithdrawn */\n      dup10\n        /* \"Blockchain_project/ProfileManager.sol\":5555:5556  i */\n      dup9\n        /* \"Blockchain_project/ProfileManager.sol\":5540:5557  totalWithdrawn[i] */\n      dup2\n      mload\n      dup2\n      lt\n      tag_176\n      jumpi\n      tag_177\n      tag_159\n      jump\t// in\n    tag_177:\n    tag_176:\n      0x20\n      mul\n      0x20\n      add\n      add\n        /* \"Blockchain_project/ProfileManager.sol\":5540:5580  totalWithdrawn[i] = totalWithdrawnAmount */\n      dup2\n      dup2\n      mstore\n      pop\n      pop\n        /* \"Blockchain_project/ProfileManager.sol\":5001:5591  {... */\n      pop\n      pop\n      pop\n      pop\n      pop\n      pop\n        /* \"Blockchain_project/ProfileManager.sol\":4996:4999  i++ */\n      dup1\n      dup1\n      0x01\n      add\n      swap2\n      pop\n      pop\n        /* \"Blockchain_project/ProfileManager.sol\":4952:5591  for (uint256 i = 0; i < campaignIds.length; i++) {... */\n      jump(tag_154)\n    tag_155:\n      pop\n        /* \"Blockchain_project/ProfileManager.sol\":4523:5597  {... */\n      pop\n        /* \"Blockchain_project/ProfileManager.sol\":4166:5597  function getCampaigns(address _ownerAddress)... */\n      swap2\n      swap4\n      swap6\n      pop\n      swap2\n      swap4\n      swap6\n      jump\t// out\n        /* \"Blockchain_project/ProfileManager.sol\":1529:2173  function createOwnerProfile(... */\n    tag_46:\n        /* \"Blockchain_project/ProfileManager.sol\":1766:1767  0 */\n      0x00\n        /* \"Blockchain_project/ProfileManager.sol\":1723:1768  owners[msg.sender].ownerAddress == address(0) */\n      0xffffffffffffffffffffffffffffffffffffffff\n      and\n        /* \"Blockchain_project/ProfileManager.sol\":1723:1729  owners */\n      0x00\n        /* \"Blockchain_project/ProfileManager.sol\":1723:1741  owners[msg.sender] */\n      dup1\n        /* \"Blockchain_project/ProfileManager.sol\":1730:1740  msg.sender */\n      caller\n        /* \"Blockchain_project/ProfileManager.sol\":1723:1741  owners[msg.sender] */\n      0xffffffffffffffffffffffffffffffffffffffff\n      and\n      0xffffffffffffffffffffffffffffffffffffffff\n      and\n      dup2\n      mstore\n      0x20\n      add\n      swap1\n      dup2\n      mstore\n      0x20\n      add\n      0x00\n      keccak256\n        /* \"Blockchain_project/ProfileManager.sol\":1723:1754  owners[msg.sender].ownerAddress */\n      0x00\n      add\n      0x00\n      swap1\n      sload\n      swap1\n      0x0100\n      exp\n      swap1\n      div\n      0xffffffffffffffffffffffffffffffffffffffff\n      and\n        /* \"Blockchain_project/ProfileManager.sol\":1723:1768  owners[msg.sender].ownerAddress == address(0) */\n      0xffffffffffffffffffffffffffffffffffffffff\n      and\n      eq\n        /* \"Blockchain_project/ProfileManager.sol\":1702:1823  require(... */\n      tag_179\n      jumpi\n      mload(0x40)\n      0x08c379a000000000000000000000000000000000000000000000000000000000\n      dup2\n      mstore\n      0x04\n      add\n      tag_180\n      swap1\n      tag_181\n      jump\t// in\n    tag_180:\n      mload(0x40)\n      dup1\n      swap2\n      sub\n      swap1\n      revert\n    tag_179:\n        /* \"Blockchain_project/ProfileManager.sol\":1834:1865  uint256[] memory myDynamicArray */\n      0x60\n        /* \"Blockchain_project/ProfileManager.sol\":1897:2166  Owner({... */\n      mload(0x40)\n      dup1\n      0xe0\n      add\n      0x40\n      mstore\n      dup1\n        /* \"Blockchain_project/ProfileManager.sol\":1931:1941  msg.sender */\n      caller\n        /* \"Blockchain_project/ProfileManager.sol\":1897:2166  Owner({... */\n      0xffffffffffffffffffffffffffffffffffffffff\n      and\n      dup2\n      mstore\n      0x20\n      add\n        /* \"Blockchain_project/ProfileManager.sol\":1961:1966  _role */\n      dup7\n        /* \"Blockchain_project/ProfileManager.sol\":1897:2166  Owner({... */\n      0x02\n      dup2\n      gt\n      iszero\n      tag_182\n      jumpi\n      tag_183\n      tag_107\n      jump\t// in\n    tag_183:\n    tag_182:\n      dup2\n      mstore\n      0x20\n      add\n        /* \"Blockchain_project/ProfileManager.sol\":1994:2009  block.timestamp */\n      timestamp\n        /* \"Blockchain_project/ProfileManager.sol\":1897:2166  Owner({... */\n      dup2\n      mstore\n      0x20\n      add\n        /* \"Blockchain_project/ProfileManager.sol\":2029:2034  _name */\n      dup6\n        /* \"Blockchain_project/ProfileManager.sol\":1897:2166  Owner({... */\n      dup2\n      mstore\n      0x20\n      add\n        /* \"Blockchain_project/ProfileManager.sol\":2062:2075  _profileImage */\n      dup5\n        /* \"Blockchain_project/ProfileManager.sol\":1897:2166  Owner({... */\n      dup2\n      mstore\n      0x20\n      add\n        /* \"Blockchain_project/ProfileManager.sol\":2102:2114  _description */\n      dup4\n        /* \"Blockchain_project/ProfileManager.sol\":1897:2166  Owner({... */\n      dup2\n      mstore\n      0x20\n      add\n        /* \"Blockchain_project/ProfileManager.sol\":2141:2155  myDynamicArray */\n      dup3\n        /* \"Blockchain_project/ProfileManager.sol\":1897:2166  Owner({... */\n      dup2\n      mstore\n      pop\n        /* \"Blockchain_project/ProfileManager.sol\":1876:1882  owners */\n      0x00\n        /* \"Blockchain_project/ProfileManager.sol\":1876:1894  owners[msg.sender] */\n      dup1\n        /* \"Blockchain_project/ProfileManager.sol\":1883:1893  msg.sender */\n      caller\n        /* \"Blockchain_project/ProfileManager.sol\":1876:1894  owners[msg.sender] */\n      0xffffffffffffffffffffffffffffffffffffffff\n      and\n      0xffffffffffffffffffffffffffffffffffffffff\n      and\n      dup2\n      mstore\n      0x20\n      add\n      swap1\n      dup2\n      mstore\n      0x20\n      add\n      0x00\n      keccak256\n        /* \"Blockchain_project/ProfileManager.sol\":1876:2166  owners[msg.sender] = Owner({... */\n      0x00\n      dup3\n      add\n      mload\n      dup2\n      0x00\n      add\n      exp(0x0100, 0x00)\n      dup2\n      sload\n      dup2\n      0xffffffffffffffffffffffffffffffffffffffff\n      mul\n      not\n      and\n      swap1\n      dup4\n      0xffffffffffffffffffffffffffffffffffffffff\n      and\n      mul\n      or\n      swap1\n      sstore\n      pop\n      0x20\n      dup3\n      add\n      mload\n      dup2\n      0x00\n      add\n      exp(0x0100, 0x14)\n      dup2\n      sload\n      dup2\n      0xff\n      mul\n      not\n      and\n      swap1\n      dup4\n      0x02\n      dup2\n      gt\n      iszero\n      tag_184\n      jumpi\n      tag_185\n      tag_107\n      jump\t// in\n    tag_185:\n    tag_184:\n      mul\n      or\n      swap1\n      sstore\n      pop\n      0x40\n      dup3\n      add\n      mload\n      dup2\n      0x01\n      add\n      sstore\n      0x60\n      dup3\n      add\n      mload\n      dup2\n      0x02\n      add\n      swap1\n      dup2\n      tag_186\n      swap2\n      swap1\n      tag_97\n      jump\t// in\n    tag_186:\n      pop\n      0x80\n      dup3\n      add\n      mload\n      dup2\n      0x03\n      add\n      swap1\n      dup2\n      tag_187\n      swap2\n      swap1\n      tag_97\n      jump\t// in\n    tag_187:\n      pop\n      0xa0\n      dup3\n      add\n      mload\n      dup2\n      0x04\n      add\n      swap1\n      dup2\n      tag_188\n      swap2\n      swap1\n      tag_97\n      jump\t// in\n    tag_188:\n      pop\n      0xc0\n      dup3\n      add\n      mload\n      dup2\n      0x05\n      add\n      swap1\n      dup1\n      mload\n      swap1\n      0x20\n      add\n      swap1\n      tag_189\n      swap3\n      swap2\n      swap1\n      tag_190\n      jump\t// in\n    tag_189:\n      pop\n      swap1\n      pop\n      pop\n        /* \"Blockchain_project/ProfileManager.sol\":1692:2173  {... */\n      pop\n        /* \"Blockchain_project/ProfileManager.sol\":1529:2173  function createOwnerProfile(... */\n      pop\n      pop\n      pop\n      pop\n      jump\t// out\n        /* \"Blockchain_project/ProfileManager.sol\":841:873  address public donationsContract */\n    tag_48:\n      0x01\n      0x00\n      swap1\n      sload\n      swap1\n      0x0100\n      exp\n      swap1\n      div\n      0xffffffffffffffffffffffffffffffffffffffff\n      and\n      dup2\n      jump\t// out\n        /* \"Blockchain_project/ProfileManager.sol\":5775:5876  function getDonationAddress() public view returns (address) {... */\n    tag_52:\n        /* \"Blockchain_project/ProfileManager.sol\":5826:5833  address */\n      0x00\n        /* \"Blockchain_project/ProfileManager.sol\":5852:5869  donationsContract */\n      0x01\n      0x00\n      swap1\n      sload\n      swap1\n      0x0100\n      exp\n      swap1\n      div\n      0xffffffffffffffffffffffffffffffffffffffff\n      and\n        /* \"Blockchain_project/ProfileManager.sol\":5845:5869  return donationsContract */\n      swap1\n      pop\n        /* \"Blockchain_project/ProfileManager.sol\":5775:5876  function getDonationAddress() public view returns (address) {... */\n      swap1\n      jump\t// out\n        /* \"Blockchain_project/ProfileManager.sol\":2610:2892  function isProfileActive(address _user)... */\n    tag_56:\n        /* \"Blockchain_project/ProfileManager.sol\":2725:2729  bool */\n      0x00\n        /* \"Blockchain_project/ProfileManager.sol\":1098:1115  donationsContract */\n      0x01\n      0x00\n      swap1\n      sload\n      swap1\n      0x0100\n      exp\n      swap1\n      div\n      0xffffffffffffffffffffffffffffffffffffffff\n      and\n        /* \"Blockchain_project/ProfileManager.sol\":1084:1115  msg.sender == donationsContract */\n      0xffffffffffffffffffffffffffffffffffffffff\n      and\n        /* \"Blockchain_project/ProfileManager.sol\":1084:1094  msg.sender */\n      caller\n        /* \"Blockchain_project/ProfileManager.sol\":1084:1115  msg.sender == donationsContract */\n      0xffffffffffffffffffffffffffffffffffffffff\n      and\n      eq\n        /* \"Blockchain_project/ProfileManager.sol\":1063:1188  require(... */\n      tag_193\n      jumpi\n      mload(0x40)\n      0x08c379a000000000000000000000000000000000000000000000000000000000\n      dup2\n      mstore\n      0x04\n      add\n      tag_194\n      swap1\n      tag_87\n      jump\t// in\n    tag_194:\n      mload(0x40)\n      dup1\n      swap2\n      sub\n      swap1\n      revert\n    tag_193:\n        /* \"Blockchain_project/ProfileManager.sol\":2745:2763  Owner memory owner */\n      0x00\n        /* \"Blockchain_project/ProfileManager.sol\":2766:2772  owners */\n      dup1\n        /* \"Blockchain_project/ProfileManager.sol\":2766:2779  owners[_user] */\n      0x00\n        /* \"Blockchain_project/ProfileManager.sol\":2773:2778  _user */\n      dup5\n        /* \"Blockchain_project/ProfileManager.sol\":2766:2779  owners[_user] */\n      0xffffffffffffffffffffffffffffffffffffffff\n      and\n      0xffffffffffffffffffffffffffffffffffffffff\n      and\n      dup2\n      mstore\n      0x20\n      add\n      swap1\n      dup2\n      mstore\n      0x20\n      add\n      0x00\n      keccak256\n        /* \"Blockchain_project/ProfileManager.sol\":2745:2779  Owner memory owner = owners[_user] */\n      mload(0x40)\n      dup1\n      0xe0\n      add\n      0x40\n      mstore\n      swap1\n      dup2\n      0x00\n      dup3\n      add\n      0x00\n      swap1\n      sload\n      swap1\n      0x0100\n      exp\n      swap1\n      div\n      0xffffffffffffffffffffffffffffffffffffffff\n      and\n      0xffffffffffffffffffffffffffffffffffffffff\n      and\n      0xffffffffffffffffffffffffffffffffffffffff\n      and\n      dup2\n      mstore\n      0x20\n      add\n      0x00\n      dup3\n      add\n      0x14\n      swap1\n      sload\n      swap1\n      0x0100\n      exp\n      swap1\n      div\n      0xff\n      and\n      0x02\n      dup2\n      gt\n      iszero\n      tag_196\n      jumpi\n      tag_197\n      tag_107\n      jump\t// in\n    tag_197:\n    tag_196:\n      0x02\n      dup2\n      gt\n      iszero\n      tag_198\n      jumpi\n      tag_199\n      tag_107\n      jump\t// in\n    tag_199:\n    tag_198:\n      dup2\n      mstore\n      0x20\n      add\n      0x01\n      dup3\n      add\n      sload\n      dup2\n      mstore\n      0x20\n      add\n      0x02\n      dup3\n      add\n      dup1\n      sload\n      tag_200\n      swap1\n      tag_69\n      jump\t// in\n    tag_200:\n      dup1\n      0x1f\n      add\n      0x20\n      dup1\n      swap2\n      div\n      mul\n      0x20\n      add\n      mload(0x40)\n      swap1\n      dup2\n      add\n      0x40\n      mstore\n      dup1\n      swap3\n      swap2\n      swap1\n      dup2\n      dup2\n      mstore\n      0x20\n      add\n      dup3\n      dup1\n      sload\n      tag_201\n      swap1\n      tag_69\n      jump\t// in\n    tag_201:\n      dup1\n      iszero\n      tag_202\n      jumpi\n      dup1\n      0x1f\n      lt\n      tag_203\n      jumpi\n      0x0100\n      dup1\n      dup4\n      sload\n      div\n      mul\n      dup4\n      mstore\n      swap2\n      0x20\n      add\n      swap2\n      jump(tag_202)\n    tag_203:\n      dup3\n      add\n      swap2\n      swap1\n      0x00\n      mstore\n      keccak256(0x00, 0x20)\n      swap1\n    tag_204:\n      dup2\n      sload\n      dup2\n      mstore\n      swap1\n      0x01\n      add\n      swap1\n      0x20\n      add\n      dup1\n      dup4\n      gt\n      tag_204\n      jumpi\n      dup3\n      swap1\n      sub\n      0x1f\n      and\n      dup3\n      add\n      swap2\n    tag_202:\n      pop\n      pop\n      pop\n      pop\n      pop\n      dup2\n      mstore\n      0x20\n      add\n      0x03\n      dup3\n      add\n      dup1\n      sload\n      tag_205\n      swap1\n      tag_69\n      jump\t// in\n    tag_205:\n      dup1\n      0x1f\n      add\n      0x20\n      dup1\n      swap2\n      div\n      mul\n      0x20\n      add\n      mload(0x40)\n      swap1\n      dup2\n      add\n      0x40\n      mstore\n      dup1\n      swap3\n      swap2\n      swap1\n      dup2\n      dup2\n      mstore\n      0x20\n      add\n      dup3\n      dup1\n      sload\n      tag_206\n      swap1\n      tag_69\n      jump\t// in\n    tag_206:\n      dup1\n      iszero\n      tag_207\n      jumpi\n      dup1\n      0x1f\n      lt\n      tag_208\n      jumpi\n      0x0100\n      dup1\n      dup4\n      sload\n      div\n      mul\n      dup4\n      mstore\n      swap2\n      0x20\n      add\n      swap2\n      jump(tag_207)\n    tag_208:\n      dup3\n      add\n      swap2\n      swap1\n      0x00\n      mstore\n      keccak256(0x00, 0x20)\n      swap1\n    tag_209:\n      dup2\n      sload\n      dup2\n      mstore\n      swap1\n      0x01\n      add\n      swap1\n      0x20\n      add\n      dup1\n      dup4\n      gt\n      tag_209\n      jumpi\n      dup3\n      swap1\n      sub\n      0x1f\n      and\n      dup3\n      add\n      swap2\n    tag_207:\n      pop\n      pop\n      pop\n      pop\n      pop\n      dup2\n      mstore\n      0x20\n      add\n      0x04\n      dup3\n      add\n      dup1\n      sload\n      tag_210\n      swap1\n      tag_69\n      jump\t// in\n    tag_210:\n      dup1\n      0x1f\n      add\n      0x20\n      dup1\n      swap2\n      div\n      mul\n      0x20\n      add\n      mload(0x40)\n      swap1\n      dup2\n      add\n      0x40\n      mstore\n      dup1\n      swap3\n      swap2\n      swap1\n      dup2\n      dup2\n      mstore\n      0x20\n      add\n      dup3\n      dup1\n      sload\n      tag_211\n      swap1\n      tag_69\n      jump\t// in\n    tag_211:\n      dup1\n      iszero\n      tag_212\n      jumpi\n      dup1\n      0x1f\n      lt\n      tag_213\n      jumpi\n      0x0100\n      dup1\n      dup4\n      sload\n      div\n      mul\n      dup4\n      mstore\n      swap2\n      0x20\n      add\n      swap2\n      jump(tag_212)\n    tag_213:\n      dup3\n      add\n      swap2\n      swap1\n      0x00\n      mstore\n      keccak256(0x00, 0x20)\n      swap1\n    tag_214:\n      dup2\n      sload\n      dup2\n      mstore\n      swap1\n      0x01\n      add\n      swap1\n      0x20\n      add\n      dup1\n      dup4\n      gt\n      tag_214\n      jumpi\n      dup3\n      swap1\n      sub\n      0x1f\n      and\n      dup3\n      add\n      swap2\n    tag_212:\n      pop\n      pop\n      pop\n      pop\n      pop\n      dup2\n      mstore\n      0x20\n      add\n      0x05\n      dup3\n      add\n      dup1\n      sload\n      dup1\n      0x20\n      mul\n      0x20\n      add\n      mload(0x40)\n      swap1\n      dup2\n      add\n      0x40\n      mstore\n      dup1\n      swap3\n      swap2\n      swap1\n      dup2\n      dup2\n      mstore\n      0x20\n      add\n      dup3\n      dup1\n      sload\n      dup1\n      iszero\n      tag_215\n      jumpi\n      0x20\n      mul\n      dup3\n      add\n      swap2\n      swap1\n      0x00\n      mstore\n      keccak256(0x00, 0x20)\n      swap1\n    tag_216:\n      dup2\n      sload\n      dup2\n      mstore\n      0x20\n      add\n      swap1\n      0x01\n      add\n      swap1\n      dup1\n      dup4\n      gt\n      tag_216\n      jumpi\n    tag_215:\n      pop\n      pop\n      pop\n      pop\n      pop\n      dup2\n      mstore\n      pop\n      pop\n      swap1\n      pop\n        /* \"Blockchain_project/ProfileManager.sol\":2883:2884  0 */\n      0x00\n        /* \"Blockchain_project/ProfileManager.sol\":2853:2885  owner.ownerAddress != address(0) */\n      0xffffffffffffffffffffffffffffffffffffffff\n      and\n        /* \"Blockchain_project/ProfileManager.sol\":2853:2858  owner */\n      dup2\n        /* \"Blockchain_project/ProfileManager.sol\":2853:2871  owner.ownerAddress */\n      0x00\n      add\n      mload\n        /* \"Blockchain_project/ProfileManager.sol\":2853:2885  owner.ownerAddress != address(0) */\n      0xffffffffffffffffffffffffffffffffffffffff\n      and\n      eq\n      iszero\n        /* \"Blockchain_project/ProfileManager.sol\":2846:2885  return owner.ownerAddress != address(0) */\n      swap2\n      pop\n      pop\n        /* \"Blockchain_project/ProfileManager.sol\":2610:2892  function isProfileActive(address _user)... */\n      swap2\n      swap1\n      pop\n      jump\t// out\n        /* \"Blockchain_project/ProfileManager.sol\":3427:3583  function getOwnerDetails(address _ownerAddress)... */\n    tag_60:\n        /* \"Blockchain_project/ProfileManager.sol\":3520:3532  Owner memory */\n      tag_217\n      tag_218\n      jump\t// in\n    tag_217:\n        /* \"Blockchain_project/ProfileManager.sol\":3555:3561  owners */\n      0x00\n        /* \"Blockchain_project/ProfileManager.sol\":3555:3576  owners[_ownerAddress] */\n      dup1\n        /* \"Blockchain_project/ProfileManager.sol\":3562:3575  _ownerAddress */\n      dup4\n        /* \"Blockchain_project/ProfileManager.sol\":3555:3576  owners[_ownerAddress] */\n      0xffffffffffffffffffffffffffffffffffffffff\n      and\n      0xffffffffffffffffffffffffffffffffffffffff\n      and\n      dup2\n      mstore\n      0x20\n      add\n      swap1\n      dup2\n      mstore\n      0x20\n      add\n      0x00\n      keccak256\n        /* \"Blockchain_project/ProfileManager.sol\":3548:3576  return owners[_ownerAddress] */\n      mload(0x40)\n      dup1\n      0xe0\n      add\n      0x40\n      mstore\n      swap1\n      dup2\n      0x00\n      dup3\n      add\n      0x00\n      swap1\n      sload\n      swap1\n      0x0100\n      exp\n      swap1\n      div\n      0xffffffffffffffffffffffffffffffffffffffff\n      and\n      0xffffffffffffffffffffffffffffffffffffffff\n      and\n      0xffffffffffffffffffffffffffffffffffffffff\n      and\n      dup2\n      mstore\n      0x20\n      add\n      0x00\n      dup3\n      add\n      0x14\n      swap1\n      sload\n      swap1\n      0x0100\n      exp\n      swap1\n      div\n      0xff\n      and\n      0x02\n      dup2\n      gt\n      iszero\n      tag_220\n      jumpi\n      tag_221\n      tag_107\n      jump\t// in\n    tag_221:\n    tag_220:\n      0x02\n      dup2\n      gt\n      iszero\n      tag_222\n      jumpi\n      tag_223\n      tag_107\n      jump\t// in\n    tag_223:\n    tag_222:\n      dup2\n      mstore\n      0x20\n      add\n      0x01\n      dup3\n      add\n      sload\n      dup2\n      mstore\n      0x20\n      add\n      0x02\n      dup3\n      add\n      dup1\n      sload\n      tag_224\n      swap1\n      tag_69\n      jump\t// in\n    tag_224:\n      dup1\n      0x1f\n      add\n      0x20\n      dup1\n      swap2\n      div\n      mul\n      0x20\n      add\n      mload(0x40)\n      swap1\n      dup2\n      add\n      0x40\n      mstore\n      dup1\n      swap3\n      swap2\n      swap1\n      dup2\n      dup2\n      mstore\n      0x20\n      add\n      dup3\n      dup1\n      sload\n      tag_225\n      swap1\n      tag_69\n      jump\t// in\n    tag_225:\n      dup1\n      iszero\n      tag_226\n      jumpi\n      dup1\n      0x1f\n      lt\n      tag_227\n      jumpi\n      0x0100\n      dup1\n      dup4\n      sload\n      div\n      mul\n      dup4\n      mstore\n      swap2\n      0x20\n      add\n      swap2\n      jump(tag_226)\n    tag_227:\n      dup3\n      add\n      swap2\n      swap1\n      0x00\n      mstore\n      keccak256(0x00, 0x20)\n      swap1\n    tag_228:\n      dup2\n      sload\n      dup2\n      mstore\n      swap1\n      0x01\n      add\n      swap1\n      0x20\n      add\n      dup1\n      dup4\n      gt\n      tag_228\n      jumpi\n      dup3\n      swap1\n      sub\n      0x1f\n      and\n      dup3\n      add\n      swap2\n    tag_226:\n      pop\n      pop\n      pop\n      pop\n      pop\n      dup2\n      mstore\n      0x20\n      add\n      0x03\n      dup3\n      add\n      dup1\n      sload\n      tag_229\n      swap1\n      tag_69\n      jump\t// in\n    tag_229:\n      dup1\n      0x1f\n      add\n      0x20\n      dup1\n      swap2\n      div\n      mul\n      0x20\n      add\n      mload(0x40)\n      swap1\n      dup2\n      add\n      0x40\n      mstore\n      dup1\n      swap3\n      swap2\n      swap1\n      dup2\n      dup2\n      mstore\n      0x20\n      add\n      dup3\n      dup1\n      sload\n      tag_230\n      swap1\n      tag_69\n      jump\t// in\n    tag_230:\n      dup1\n      iszero\n      tag_231\n      jumpi\n      dup1\n      0x1f\n      lt\n      tag_232\n      jumpi\n      0x0100\n      dup1\n      dup4\n      sload\n      div\n      mul\n      dup4\n      mstore\n      swap2\n      0x20\n      add\n      swap2\n      jump(tag_231)\n    tag_232:\n      dup3\n      add\n      swap2\n      swap1\n      0x00\n      mstore\n      keccak256(0x00, 0x20)\n      swap1\n    tag_233:\n      dup2\n      sload\n      dup2\n      mstore\n      swap1\n      0x01\n      add\n      swap1\n      0x20\n      add\n      dup1\n      dup4\n      gt\n      tag_233\n      jumpi\n      dup3\n      swap1\n      sub\n      0x1f\n      and\n      dup3\n      add\n      swap2\n    tag_231:\n      pop\n      pop\n      pop\n      pop\n      pop\n      dup2\n      mstore\n      0x20\n      add\n      0x04\n      dup3\n      add\n      dup1\n      sload\n      tag_234\n      swap1\n      tag_69\n      jump\t// in\n    tag_234:\n      dup1\n      0x1f\n      add\n      0x20\n      dup1\n      swap2\n      div\n      mul\n      0x20\n      add\n      mload(0x40)\n      swap1\n      dup2\n      add\n      0x40\n      mstore\n      dup1\n      swap3\n      swap2\n      swap1\n      dup2\n      dup2\n      mstore\n      0x20\n      add\n      dup3\n      dup1\n      sload\n      tag_235\n      swap1\n      tag_69\n      jump\t// in\n    tag_235:\n      dup1\n      iszero\n      tag_236\n      jumpi\n      dup1\n      0x1f\n      lt\n      tag_237\n      jumpi\n      0x0100\n      dup1\n      dup4\n      sload\n      div\n      mul\n      dup4\n      mstore\n      swap2\n      0x20\n      add\n      swap2\n      jump(tag_236)\n    tag_237:\n      dup3\n      add\n      swap2\n      swap1\n      0x00\n      mstore\n      keccak256(0x00, 0x20)\n      swap1\n    tag_238:\n      dup2\n      sload\n      dup2\n      mstore\n      swap1\n      0x01\n      add\n      swap1\n      0x20\n      add\n      dup1\n      dup4\n      gt\n      tag_238\n      jumpi\n      dup3\n      swap1\n      sub\n      0x1f\n      and\n      dup3\n      add\n      swap2\n    tag_236:\n      pop\n      pop\n      pop\n      pop\n      pop\n      dup2\n      mstore\n      0x20\n      add\n      0x05\n      dup3\n      add\n      dup1\n      sload\n      dup1\n      0x20\n      mul\n      0x20\n      add\n      mload(0x40)\n      swap1\n      dup2\n      add\n      0x40\n      mstore\n      dup1\n      swap3\n      swap2\n      swap1\n      dup2\n      dup2\n      mstore\n      0x20\n      add\n      dup3\n      dup1\n      sload\n      dup1\n      iszero\n      tag_239\n      jumpi\n      0x20\n      mul\n      dup3\n      add\n      swap2\n      swap1\n      0x00\n      mstore\n      keccak256(0x00, 0x20)\n      swap1\n    tag_240:\n      dup2\n      sload\n      dup2\n      mstore\n      0x20\n      add\n      swap1\n      0x01\n      add\n      swap1\n      dup1\n      dup4\n      gt\n      tag_240\n      jumpi\n    tag_239:\n      pop\n      pop\n      pop\n      pop\n      pop\n      dup2\n      mstore\n      pop\n      pop\n      swap1\n      pop\n        /* \"Blockchain_project/ProfileManager.sol\":3427:3583  function getOwnerDetails(address _ownerAddress)... */\n      swap2\n      swap1\n      pop\n      jump\t// out\n        /* \"Blockchain_project/ProfileManager.sol\":5647:5769  function getOwnerRole(address _ownerAddress) public view returns (Role) {... */\n    tag_65:\n        /* \"Blockchain_project/ProfileManager.sol\":5713:5717  Role */\n      0x00\n        /* \"Blockchain_project/ProfileManager.sol\":5736:5742  owners */\n      dup1\n        /* \"Blockchain_project/ProfileManager.sol\":5736:5757  owners[_ownerAddress] */\n      0x00\n        /* \"Blockchain_project/ProfileManager.sol\":5743:5756  _ownerAddress */\n      dup4\n        /* \"Blockchain_project/ProfileManager.sol\":5736:5757  owners[_ownerAddress] */\n      0xffffffffffffffffffffffffffffffffffffffff\n      and\n      0xffffffffffffffffffffffffffffffffffffffff\n      and\n      dup2\n      mstore\n      0x20\n      add\n      swap1\n      dup2\n      mstore\n      0x20\n      add\n      0x00\n      keccak256\n        /* \"Blockchain_project/ProfileManager.sol\":5736:5762  owners[_ownerAddress].role */\n      0x00\n      add\n      0x14\n      swap1\n      sload\n      swap1\n      0x0100\n      exp\n      swap1\n      div\n      0xff\n      and\n        /* \"Blockchain_project/ProfileManager.sol\":5729:5762  return owners[_ownerAddress].role */\n      swap1\n      pop\n        /* \"Blockchain_project/ProfileManager.sol\":5647:5769  function getOwnerRole(address _ownerAddress) public view returns (Role) {... */\n      swap2\n      swap1\n      pop\n      jump\t// out\n    tag_190:\n      dup3\n      dup1\n      sload\n      dup3\n      dup3\n      sstore\n      swap1\n      0x00\n      mstore\n      keccak256(0x00, 0x20)\n      swap1\n      dup2\n      add\n      swap3\n      dup3\n      iszero\n      tag_242\n      jumpi\n      swap2\n      0x20\n      mul\n      dup3\n      add\n    tag_243:\n      dup3\n      dup2\n      gt\n      iszero\n      tag_244\n      jumpi\n      dup3\n      mload\n      dup3\n      sstore\n      swap2\n      0x20\n      add\n      swap2\n      swap1\n      0x01\n      add\n      swap1\n      jump(tag_243)\n    tag_244:\n    tag_242:\n      pop\n      swap1\n      pop\n      tag_245\n      swap2\n      swap1\n      tag_246\n      jump\t// in\n    tag_245:\n      pop\n      swap1\n      jump\t// out\n    tag_218:\n      mload(0x40)\n      dup1\n      0xe0\n      add\n      0x40\n      mstore\n      dup1\n      and(0xffffffffffffffffffffffffffffffffffffffff, 0x00)\n      dup2\n      mstore\n      0x20\n      add\n      0x00\n      0x02\n      dup2\n      gt\n      iszero\n      tag_247\n      jumpi\n      tag_248\n      tag_107\n      jump\t// in\n    tag_248:\n    tag_247:\n      dup2\n      mstore\n      0x20\n      add\n      0x00\n      dup2\n      mstore\n      0x20\n      add\n      0x60\n      dup2\n      mstore\n      0x20\n      add\n      0x60\n      dup2\n      mstore\n      0x20\n      add\n      0x60\n      dup2\n      mstore\n      0x20\n      add\n      0x60\n      dup2\n      mstore\n      pop\n      swap1\n      jump\t// out\n    tag_246:\n    tag_249:\n      dup1\n      dup3\n      gt\n      iszero\n      tag_250\n      jumpi\n      0x00\n      dup2\n      0x00\n      swap1\n      sstore\n      pop\n      0x01\n      add\n      jump(tag_249)\n    tag_250:\n      pop\n      swap1\n      jump\t// out\n        /* \"#utility.yul\":7:82   */\n    tag_251:\n        /* \"#utility.yul\":40:46   */\n      0x00\n        /* \"#utility.yul\":73:75   */\n      0x40\n        /* \"#utility.yul\":67:76   */\n      mload\n        /* \"#utility.yul\":57:76   */\n      swap1\n      pop\n        /* \"#utility.yul\":7:82   */\n      swap1\n      jump\t// out\n        /* \"#utility.yul\":88:205   */\n    tag_252:\n        /* \"#utility.yul\":197:198   */\n      0x00\n        /* \"#utility.yul\":194:195   */\n      dup1\n        /* \"#utility.yul\":187:199   */\n      revert\n        /* \"#utility.yul\":211:328   */\n    tag_253:\n        /* \"#utility.yul\":320:321   */\n      0x00\n        /* \"#utility.yul\":317:318   */\n      dup1\n        /* \"#utility.yul\":310:322   */\n      revert\n        /* \"#utility.yul\":334:460   */\n    tag_254:\n        /* \"#utility.yul\":371:378   */\n      0x00\n        /* \"#utility.yul\":411:453   */\n      0xffffffffffffffffffffffffffffffffffffffff\n        /* \"#utility.yul\":404:409   */\n      dup3\n        /* \"#utility.yul\":400:454   */\n      and\n        /* \"#utility.yul\":389:454   */\n      swap1\n      pop\n        /* \"#utility.yul\":334:460   */\n      swap2\n      swap1\n      pop\n      jump\t// out\n        /* \"#utility.yul\":466:562   */\n    tag_255:\n        /* \"#utility.yul\":503:510   */\n      0x00\n        /* \"#utility.yul\":532:556   */\n      tag_344\n        /* \"#utility.yul\":550:555   */\n      dup3\n        /* \"#utility.yul\":532:556   */\n      tag_254\n      jump\t// in\n    tag_344:\n        /* \"#utility.yul\":521:556   */\n      swap1\n      pop\n        /* \"#utility.yul\":466:562   */\n      swap2\n      swap1\n      pop\n      jump\t// out\n        /* \"#utility.yul\":568:690   */\n    tag_256:\n        /* \"#utility.yul\":641:665   */\n      tag_346\n        /* \"#utility.yul\":659:664   */\n      dup2\n        /* \"#utility.yul\":641:665   */\n      tag_255\n      jump\t// in\n    tag_346:\n        /* \"#utility.yul\":634:639   */\n      dup2\n        /* \"#utility.yul\":631:666   */\n      eq\n        /* \"#utility.yul\":621:684   */\n      tag_347\n      jumpi\n        /* \"#utility.yul\":680:681   */\n      0x00\n        /* \"#utility.yul\":677:678   */\n      dup1\n        /* \"#utility.yul\":670:682   */\n      revert\n        /* \"#utility.yul\":621:684   */\n    tag_347:\n        /* \"#utility.yul\":568:690   */\n      pop\n      jump\t// out\n        /* \"#utility.yul\":696:835   */\n    tag_257:\n        /* \"#utility.yul\":742:747   */\n      0x00\n        /* \"#utility.yul\":780:786   */\n      dup2\n        /* \"#utility.yul\":767:787   */\n      calldataload\n        /* \"#utility.yul\":758:787   */\n      swap1\n      pop\n        /* \"#utility.yul\":796:829   */\n      tag_349\n        /* \"#utility.yul\":823:828   */\n      dup2\n        /* \"#utility.yul\":796:829   */\n      tag_256\n      jump\t// in\n    tag_349:\n        /* \"#utility.yul\":696:835   */\n      swap3\n      swap2\n      pop\n      pop\n      jump\t// out\n        /* \"#utility.yul\":841:1170   */\n    tag_18:\n        /* \"#utility.yul\":900:906   */\n      0x00\n        /* \"#utility.yul\":949:951   */\n      0x20\n        /* \"#utility.yul\":937:946   */\n      dup3\n        /* \"#utility.yul\":928:935   */\n      dup5\n        /* \"#utility.yul\":924:947   */\n      sub\n        /* \"#utility.yul\":920:952   */\n      slt\n        /* \"#utility.yul\":917:1036   */\n      iszero\n      tag_351\n      jumpi\n        /* \"#utility.yul\":955:1034   */\n      tag_352\n      tag_252\n      jump\t// in\n    tag_352:\n        /* \"#utility.yul\":917:1036   */\n    tag_351:\n        /* \"#utility.yul\":1075:1076   */\n      0x00\n        /* \"#utility.yul\":1100:1153   */\n      tag_353\n        /* \"#utility.yul\":1145:1152   */\n      dup5\n        /* \"#utility.yul\":1136:1142   */\n      dup3\n        /* \"#utility.yul\":1125:1134   */\n      dup6\n        /* \"#utility.yul\":1121:1143   */\n      add\n        /* \"#utility.yul\":1100:1153   */\n      tag_257\n      jump\t// in\n    tag_353:\n        /* \"#utility.yul\":1090:1153   */\n      swap2\n      pop\n        /* \"#utility.yul\":1046:1163   */\n      pop\n        /* \"#utility.yul\":841:1170   */\n      swap3\n      swap2\n      pop\n      pop\n      jump\t// out\n        /* \"#utility.yul\":1176:1294   */\n    tag_258:\n        /* \"#utility.yul\":1263:1287   */\n      tag_355\n        /* \"#utility.yul\":1281:1286   */\n      dup2\n        /* \"#utility.yul\":1263:1287   */\n      tag_255\n      jump\t// in\n    tag_355:\n        /* \"#utility.yul\":1258:1261   */\n      dup3\n        /* \"#utility.yul\":1251:1288   */\n      mstore\n        /* \"#utility.yul\":1176:1294   */\n      pop\n      pop\n      jump\t// out\n        /* \"#utility.yul\":1300:1480   */\n    tag_107:\n        /* \"#utility.yul\":1348:1425   */\n      0x4e487b7100000000000000000000000000000000000000000000000000000000\n        /* \"#utility.yul\":1345:1346   */\n      0x00\n        /* \"#utility.yul\":1338:1426   */\n      mstore\n        /* \"#utility.yul\":1445:1449   */\n      0x21\n        /* \"#utility.yul\":1442:1443   */\n      0x04\n        /* \"#utility.yul\":1435:1450   */\n      mstore\n        /* \"#utility.yul\":1469:1473   */\n      0x24\n        /* \"#utility.yul\":1466:1467   */\n      0x00\n        /* \"#utility.yul\":1459:1474   */\n      revert\n        /* \"#utility.yul\":1486:1598   */\n    tag_259:\n        /* \"#utility.yul\":1566:1567   */\n      0x03\n        /* \"#utility.yul\":1559:1564   */\n      dup2\n        /* \"#utility.yul\":1556:1568   */\n      lt\n        /* \"#utility.yul\":1546:1592   */\n      tag_358\n      jumpi\n        /* \"#utility.yul\":1572:1590   */\n      tag_359\n      tag_107\n      jump\t// in\n    tag_359:\n        /* \"#utility.yul\":1546:1592   */\n    tag_358:\n        /* \"#utility.yul\":1486:1598   */\n      pop\n      jump\t// out\n        /* \"#utility.yul\":1604:1729   */\n    tag_260:\n        /* \"#utility.yul\":1648:1655   */\n      0x00\n        /* \"#utility.yul\":1677:1682   */\n      dup2\n        /* \"#utility.yul\":1666:1682   */\n      swap1\n      pop\n        /* \"#utility.yul\":1683:1723   */\n      tag_361\n        /* \"#utility.yul\":1717:1722   */\n      dup3\n        /* \"#utility.yul\":1683:1723   */\n      tag_259\n      jump\t// in\n    tag_361:\n        /* \"#utility.yul\":1604:1729   */\n      swap2\n      swap1\n      pop\n      jump\t// out\n        /* \"#utility.yul\":1735:1860   */\n    tag_261:\n        /* \"#utility.yul\":1790:1799   */\n      0x00\n        /* \"#utility.yul\":1823:1854   */\n      tag_363\n        /* \"#utility.yul\":1848:1853   */\n      dup3\n        /* \"#utility.yul\":1823:1854   */\n      tag_260\n      jump\t// in\n    tag_363:\n        /* \"#utility.yul\":1810:1854   */\n      swap1\n      pop\n        /* \"#utility.yul\":1735:1860   */\n      swap2\n      swap1\n      pop\n      jump\t// out\n        /* \"#utility.yul\":1866:2007   */\n    tag_262:\n        /* \"#utility.yul\":1958:2000   */\n      tag_365\n        /* \"#utility.yul\":1994:1999   */\n      dup2\n        /* \"#utility.yul\":1958:2000   */\n      tag_261\n      jump\t// in\n    tag_365:\n        /* \"#utility.yul\":1953:1956   */\n      dup3\n        /* \"#utility.yul\":1946:2001   */\n      mstore\n        /* \"#utility.yul\":1866:2007   */\n      pop\n      pop\n      jump\t// out\n        /* \"#utility.yul\":2013:2090   */\n    tag_263:\n        /* \"#utility.yul\":2050:2057   */\n      0x00\n        /* \"#utility.yul\":2079:2084   */\n      dup2\n        /* \"#utility.yul\":2068:2084   */\n      swap1\n      pop\n        /* \"#utility.yul\":2013:2090   */\n      swap2\n      swap1\n      pop\n      jump\t// out\n        /* \"#utility.yul\":2096:2214   */\n    tag_264:\n        /* \"#utility.yul\":2183:2207   */\n      tag_368\n        /* \"#utility.yul\":2201:2206   */\n      dup2\n        /* \"#utility.yul\":2183:2207   */\n      tag_263\n      jump\t// in\n    tag_368:\n        /* \"#utility.yul\":2178:2181   */\n      dup3\n        /* \"#utility.yul\":2171:2208   */\n      mstore\n        /* \"#utility.yul\":2096:2214   */\n      pop\n      pop\n      jump\t// out\n        /* \"#utility.yul\":2220:2319   */\n    tag_265:\n        /* \"#utility.yul\":2272:2278   */\n      0x00\n        /* \"#utility.yul\":2306:2311   */\n      dup2\n        /* \"#utility.yul\":2300:2312   */\n      mload\n        /* \"#utility.yul\":2290:2312   */\n      swap1\n      pop\n        /* \"#utility.yul\":2220:2319   */\n      swap2\n      swap1\n      pop\n      jump\t// out\n        /* \"#utility.yul\":2325:2494   */\n    tag_266:\n        /* \"#utility.yul\":2409:2420   */\n      0x00\n        /* \"#utility.yul\":2443:2449   */\n      dup3\n        /* \"#utility.yul\":2438:2441   */\n      dup3\n        /* \"#utility.yul\":2431:2450   */\n      mstore\n        /* \"#utility.yul\":2483:2487   */\n      0x20\n        /* \"#utility.yul\":2478:2481   */\n      dup3\n        /* \"#utility.yul\":2474:2488   */\n      add\n        /* \"#utility.yul\":2459:2488   */\n      swap1\n      pop\n        /* \"#utility.yul\":2325:2494   */\n      swap3\n      swap2\n      pop\n      pop\n      jump\t// out\n        /* \"#utility.yul\":2500:2639   */\n    tag_267:\n        /* \"#utility.yul\":2589:2595   */\n      dup3\n        /* \"#utility.yul\":2584:2587   */\n      dup2\n        /* \"#utility.yul\":2579:2582   */\n      dup4\n        /* \"#utility.yul\":2573:2596   */\n      mcopy\n        /* \"#utility.yul\":2630:2631   */\n      0x00\n        /* \"#utility.yul\":2621:2627   */\n      dup4\n        /* \"#utility.yul\":2616:2619   */\n      dup4\n        /* \"#utility.yul\":2612:2628   */\n      add\n        /* \"#utility.yul\":2605:2632   */\n      mstore\n        /* \"#utility.yul\":2500:2639   */\n      pop\n      pop\n      pop\n      jump\t// out\n        /* \"#utility.yul\":2645:2747   */\n    tag_268:\n        /* \"#utility.yul\":2686:2692   */\n      0x00\n        /* \"#utility.yul\":2737:2739   */\n      0x1f\n        /* \"#utility.yul\":2733:2740   */\n      not\n        /* \"#utility.yul\":2728:2730   */\n      0x1f\n        /* \"#utility.yul\":2721:2726   */\n      dup4\n        /* \"#utility.yul\":2717:2731   */\n      add\n        /* \"#utility.yul\":2713:2741   */\n      and\n        /* \"#utility.yul\":2703:2741   */\n      swap1\n      pop\n        /* \"#utility.yul\":2645:2747   */\n      swap2\n      swap1\n      pop\n      jump\t// out\n        /* \"#utility.yul\":2753:3130   */\n    tag_269:\n        /* \"#utility.yul\":2841:2844   */\n      0x00\n        /* \"#utility.yul\":2869:2908   */\n      tag_374\n        /* \"#utility.yul\":2902:2907   */\n      dup3\n        /* \"#utility.yul\":2869:2908   */\n      tag_265\n      jump\t// in\n    tag_374:\n        /* \"#utility.yul\":2924:2995   */\n      tag_375\n        /* \"#utility.yul\":2988:2994   */\n      dup2\n        /* \"#utility.yul\":2983:2986   */\n      dup6\n        /* \"#utility.yul\":2924:2995   */\n      tag_266\n      jump\t// in\n    tag_375:\n        /* \"#utility.yul\":2917:2995   */\n      swap4\n      pop\n        /* \"#utility.yul\":3004:3069   */\n      tag_376\n        /* \"#utility.yul\":3062:3068   */\n      dup2\n        /* \"#utility.yul\":3057:3060   */\n      dup6\n        /* \"#utility.yul\":3050:3054   */\n      0x20\n        /* \"#utility.yul\":3043:3048   */\n      dup7\n        /* \"#utility.yul\":3039:3055   */\n      add\n        /* \"#utility.yul\":3004:3069   */\n      tag_267\n      jump\t// in\n    tag_376:\n        /* \"#utility.yul\":3094:3123   */\n      tag_377\n        /* \"#utility.yul\":3116:3122   */\n      dup2\n        /* \"#utility.yul\":3094:3123   */\n      tag_268\n      jump\t// in\n    tag_377:\n        /* \"#utility.yul\":3089:3092   */\n      dup5\n        /* \"#utility.yul\":3085:3124   */\n      add\n        /* \"#utility.yul\":3078:3124   */\n      swap2\n      pop\n        /* \"#utility.yul\":2845:3130   */\n      pop\n        /* \"#utility.yul\":2753:3130   */\n      swap3\n      swap2\n      pop\n      pop\n      jump\t// out\n        /* \"#utility.yul\":3136:4194   */\n    tag_21:\n        /* \"#utility.yul\":3434:3438   */\n      0x00\n        /* \"#utility.yul\":3472:3475   */\n      0xc0\n        /* \"#utility.yul\":3461:3470   */\n      dup3\n        /* \"#utility.yul\":3457:3476   */\n      add\n        /* \"#utility.yul\":3449:3476   */\n      swap1\n      pop\n        /* \"#utility.yul\":3486:3557   */\n      tag_379\n        /* \"#utility.yul\":3554:3555   */\n      0x00\n        /* \"#utility.yul\":3543:3552   */\n      dup4\n        /* \"#utility.yul\":3539:3556   */\n      add\n        /* \"#utility.yul\":3530:3536   */\n      dup10\n        /* \"#utility.yul\":3486:3557   */\n      tag_258\n      jump\t// in\n    tag_379:\n        /* \"#utility.yul\":3567:3644   */\n      tag_380\n        /* \"#utility.yul\":3640:3642   */\n      0x20\n        /* \"#utility.yul\":3629:3638   */\n      dup4\n        /* \"#utility.yul\":3625:3643   */\n      add\n        /* \"#utility.yul\":3616:3622   */\n      dup9\n        /* \"#utility.yul\":3567:3644   */\n      tag_262\n      jump\t// in\n    tag_380:\n        /* \"#utility.yul\":3654:3726   */\n      tag_381\n        /* \"#utility.yul\":3722:3724   */\n      0x40\n        /* \"#utility.yul\":3711:3720   */\n      dup4\n        /* \"#utility.yul\":3707:3725   */\n      add\n        /* \"#utility.yul\":3698:3704   */\n      dup8\n        /* \"#utility.yul\":3654:3726   */\n      tag_264\n      jump\t// in\n    tag_381:\n        /* \"#utility.yul\":3773:3782   */\n      dup2\n        /* \"#utility.yul\":3767:3771   */\n      dup2\n        /* \"#utility.yul\":3763:3783   */\n      sub\n        /* \"#utility.yul\":3758:3760   */\n      0x60\n        /* \"#utility.yul\":3747:3756   */\n      dup4\n        /* \"#utility.yul\":3743:3761   */\n      add\n        /* \"#utility.yul\":3736:3784   */\n      mstore\n        /* \"#utility.yul\":3801:3879   */\n      tag_382\n        /* \"#utility.yul\":3874:3878   */\n      dup2\n        /* \"#utility.yul\":3865:3871   */\n      dup7\n        /* \"#utility.yul\":3801:3879   */\n      tag_269\n      jump\t// in\n    tag_382:\n        /* \"#utility.yul\":3793:3879   */\n      swap1\n      pop\n        /* \"#utility.yul\":3927:3936   */\n      dup2\n        /* \"#utility.yul\":3921:3925   */\n      dup2\n        /* \"#utility.yul\":3917:3937   */\n      sub\n        /* \"#utility.yul\":3911:3914   */\n      0x80\n        /* \"#utility.yul\":3900:3909   */\n      dup4\n        /* \"#utility.yul\":3896:3915   */\n      add\n        /* \"#utility.yul\":3889:3938   */\n      mstore\n        /* \"#utility.yul\":3955:4033   */\n      tag_383\n        /* \"#utility.yul\":4028:4032   */\n      dup2\n        /* \"#utility.yul\":4019:4025   */\n      dup6\n        /* \"#utility.yul\":3955:4033   */\n      tag_269\n      jump\t// in\n    tag_383:\n        /* \"#utility.yul\":3947:4033   */\n      swap1\n      pop\n        /* \"#utility.yul\":4081:4090   */\n      dup2\n        /* \"#utility.yul\":4075:4079   */\n      dup2\n        /* \"#utility.yul\":4071:4091   */\n      sub\n        /* \"#utility.yul\":4065:4068   */\n      0xa0\n        /* \"#utility.yul\":4054:4063   */\n      dup4\n        /* \"#utility.yul\":4050:4069   */\n      add\n        /* \"#utility.yul\":4043:4092   */\n      mstore\n        /* \"#utility.yul\":4109:4187   */\n      tag_384\n        /* \"#utility.yul\":4182:4186   */\n      dup2\n        /* \"#utility.yul\":4173:4179   */\n      dup5\n        /* \"#utility.yul\":4109:4187   */\n      tag_269\n      jump\t// in\n    tag_384:\n        /* \"#utility.yul\":4101:4187   */\n      swap1\n      pop\n        /* \"#utility.yul\":3136:4194   */\n      swap8\n      swap7\n      pop\n      pop\n      pop\n      pop\n      pop\n      pop\n      pop\n      jump\t// out\n        /* \"#utility.yul\":4200:4322   */\n    tag_270:\n        /* \"#utility.yul\":4273:4297   */\n      tag_386\n        /* \"#utility.yul\":4291:4296   */\n      dup2\n        /* \"#utility.yul\":4273:4297   */\n      tag_263\n      jump\t// in\n    tag_386:\n        /* \"#utility.yul\":4266:4271   */\n      dup2\n        /* \"#utility.yul\":4263:4298   */\n      eq\n        /* \"#utility.yul\":4253:4316   */\n      tag_387\n      jumpi\n        /* \"#utility.yul\":4312:4313   */\n      0x00\n        /* \"#utility.yul\":4309:4310   */\n      dup1\n        /* \"#utility.yul\":4302:4314   */\n      revert\n        /* \"#utility.yul\":4253:4316   */\n    tag_387:\n        /* \"#utility.yul\":4200:4322   */\n      pop\n      jump\t// out\n        /* \"#utility.yul\":4328:4467   */\n    tag_271:\n        /* \"#utility.yul\":4374:4379   */\n      0x00\n        /* \"#utility.yul\":4412:4418   */\n      dup2\n        /* \"#utility.yul\":4399:4419   */\n      calldataload\n        /* \"#utility.yul\":4390:4419   */\n      swap1\n      pop\n        /* \"#utility.yul\":4428:4461   */\n      tag_389\n        /* \"#utility.yul\":4455:4460   */\n      dup2\n        /* \"#utility.yul\":4428:4461   */\n      tag_270\n      jump\t// in\n    tag_389:\n        /* \"#utility.yul\":4328:4467   */\n      swap3\n      swap2\n      pop\n      pop\n      jump\t// out\n        /* \"#utility.yul\":4473:4947   */\n    tag_24:\n        /* \"#utility.yul\":4541:4547   */\n      0x00\n        /* \"#utility.yul\":4549:4555   */\n      dup1\n        /* \"#utility.yul\":4598:4600   */\n      0x40\n        /* \"#utility.yul\":4586:4595   */\n      dup4\n        /* \"#utility.yul\":4577:4584   */\n      dup6\n        /* \"#utility.yul\":4573:4596   */\n      sub\n        /* \"#utility.yul\":4569:4601   */\n      slt\n        /* \"#utility.yul\":4566:4685   */\n      iszero\n      tag_391\n      jumpi\n        /* \"#utility.yul\":4604:4683   */\n      tag_392\n      tag_252\n      jump\t// in\n    tag_392:\n        /* \"#utility.yul\":4566:4685   */\n    tag_391:\n        /* \"#utility.yul\":4724:4725   */\n      0x00\n        /* \"#utility.yul\":4749:4802   */\n      tag_393\n        /* \"#utility.yul\":4794:4801   */\n      dup6\n        /* \"#utility.yul\":4785:4791   */\n      dup3\n        /* \"#utility.yul\":4774:4783   */\n      dup7\n        /* \"#utility.yul\":4770:4792   */\n      add\n        /* \"#utility.yul\":4749:4802   */\n      tag_257\n      jump\t// in\n    tag_393:\n        /* \"#utility.yul\":4739:4802   */\n      swap3\n      pop\n        /* \"#utility.yul\":4695:4812   */\n      pop\n        /* \"#utility.yul\":4851:4853   */\n      0x20\n        /* \"#utility.yul\":4877:4930   */\n      tag_394\n        /* \"#utility.yul\":4922:4929   */\n      dup6\n        /* \"#utility.yul\":4913:4919   */\n      dup3\n        /* \"#utility.yul\":4902:4911   */\n      dup7\n        /* \"#utility.yul\":4898:4920   */\n      add\n        /* \"#utility.yul\":4877:4930   */\n      tag_271\n      jump\t// in\n    tag_394:\n        /* \"#utility.yul\":4867:4930   */\n      swap2\n      pop\n        /* \"#utility.yul\":4822:4940   */\n      pop\n        /* \"#utility.yul\":4473:4947   */\n      swap3\n      pop\n      swap3\n      swap1\n      pop\n      jump\t// out\n        /* \"#utility.yul\":4953:5070   */\n    tag_272:\n        /* \"#utility.yul\":5062:5063   */\n      0x00\n        /* \"#utility.yul\":5059:5060   */\n      dup1\n        /* \"#utility.yul\":5052:5064   */\n      revert\n        /* \"#utility.yul\":5076:5193   */\n    tag_273:\n        /* \"#utility.yul\":5185:5186   */\n      0x00\n        /* \"#utility.yul\":5182:5183   */\n      dup1\n        /* \"#utility.yul\":5175:5187   */\n      revert\n        /* \"#utility.yul\":5199:5379   */\n    tag_135:\n        /* \"#utility.yul\":5247:5324   */\n      0x4e487b7100000000000000000000000000000000000000000000000000000000\n        /* \"#utility.yul\":5244:5245   */\n      0x00\n        /* \"#utility.yul\":5237:5325   */\n      mstore\n        /* \"#utility.yul\":5344:5348   */\n      0x41\n        /* \"#utility.yul\":5341:5342   */\n      0x04\n        /* \"#utility.yul\":5334:5349   */\n      mstore\n        /* \"#utility.yul\":5368:5372   */\n      0x24\n        /* \"#utility.yul\":5365:5366   */\n      0x00\n        /* \"#utility.yul\":5358:5373   */\n      revert\n        /* \"#utility.yul\":5385:5666   */\n    tag_274:\n        /* \"#utility.yul\":5468:5495   */\n      tag_399\n        /* \"#utility.yul\":5490:5494   */\n      dup3\n        /* \"#utility.yul\":5468:5495   */\n      tag_268\n      jump\t// in\n    tag_399:\n        /* \"#utility.yul\":5460:5466   */\n      dup2\n        /* \"#utility.yul\":5456:5496   */\n      add\n        /* \"#utility.yul\":5598:5604   */\n      dup2\n        /* \"#utility.yul\":5586:5596   */\n      dup2\n        /* \"#utility.yul\":5583:5605   */\n      lt\n        /* \"#utility.yul\":5562:5580   */\n      0xffffffffffffffff\n        /* \"#utility.yul\":5550:5560   */\n      dup3\n        /* \"#utility.yul\":5547:5581   */\n      gt\n        /* \"#utility.yul\":5544:5606   */\n      or\n        /* \"#utility.yul\":5541:5629   */\n      iszero\n      tag_400\n      jumpi\n        /* \"#utility.yul\":5609:5627   */\n      tag_401\n      tag_135\n      jump\t// in\n    tag_401:\n        /* \"#utility.yul\":5541:5629   */\n    tag_400:\n        /* \"#utility.yul\":5649:5659   */\n      dup1\n        /* \"#utility.yul\":5645:5647   */\n      0x40\n        /* \"#utility.yul\":5638:5660   */\n      mstore\n        /* \"#utility.yul\":5428:5666   */\n      pop\n        /* \"#utility.yul\":5385:5666   */\n      pop\n      pop\n      jump\t// out\n        /* \"#utility.yul\":5672:5801   */\n    tag_275:\n        /* \"#utility.yul\":5706:5712   */\n      0x00\n        /* \"#utility.yul\":5733:5753   */\n      tag_403\n      tag_251\n      jump\t// in\n    tag_403:\n        /* \"#utility.yul\":5723:5753   */\n      swap1\n      pop\n        /* \"#utility.yul\":5762:5795   */\n      tag_404\n        /* \"#utility.yul\":5790:5794   */\n      dup3\n        /* \"#utility.yul\":5782:5788   */\n      dup3\n        /* \"#utility.yul\":5762:5795   */\n      tag_274\n      jump\t// in\n    tag_404:\n        /* \"#utility.yul\":5672:5801   */\n      swap2\n      swap1\n      pop\n      jump\t// out\n        /* \"#utility.yul\":5807:6115   */\n    tag_276:\n        /* \"#utility.yul\":5869:5873   */\n      0x00\n        /* \"#utility.yul\":5959:5977   */\n      0xffffffffffffffff\n        /* \"#utility.yul\":5951:5957   */\n      dup3\n        /* \"#utility.yul\":5948:5978   */\n      gt\n        /* \"#utility.yul\":5945:6001   */\n      iszero\n      tag_406\n      jumpi\n        /* \"#utility.yul\":5981:5999   */\n      tag_407\n      tag_135\n      jump\t// in\n    tag_407:\n        /* \"#utility.yul\":5945:6001   */\n    tag_406:\n        /* \"#utility.yul\":6019:6048   */\n      tag_408\n        /* \"#utility.yul\":6041:6047   */\n      dup3\n        /* \"#utility.yul\":6019:6048   */\n      tag_268\n      jump\t// in\n    tag_408:\n        /* \"#utility.yul\":6011:6048   */\n      swap1\n      pop\n        /* \"#utility.yul\":6103:6107   */\n      0x20\n        /* \"#utility.yul\":6097:6101   */\n      dup2\n        /* \"#utility.yul\":6093:6108   */\n      add\n        /* \"#utility.yul\":6085:6108   */\n      swap1\n      pop\n        /* \"#utility.yul\":5807:6115   */\n      swap2\n      swap1\n      pop\n      jump\t// out\n        /* \"#utility.yul\":6121:6269   */\n    tag_277:\n        /* \"#utility.yul\":6219:6225   */\n      dup3\n        /* \"#utility.yul\":6214:6217   */\n      dup2\n        /* \"#utility.yul\":6209:6212   */\n      dup4\n        /* \"#utility.yul\":6196:6226   */\n      calldatacopy\n        /* \"#utility.yul\":6260:6261   */\n      0x00\n        /* \"#utility.yul\":6251:6257   */\n      dup4\n        /* \"#utility.yul\":6246:6249   */\n      dup4\n        /* \"#utility.yul\":6242:6258   */\n      add\n        /* \"#utility.yul\":6235:6262   */\n      mstore\n        /* \"#utility.yul\":6121:6269   */\n      pop\n      pop\n      pop\n      jump\t// out\n        /* \"#utility.yul\":6275:6700   */\n    tag_278:\n        /* \"#utility.yul\":6353:6358   */\n      0x00\n        /* \"#utility.yul\":6378:6444   */\n      tag_411\n        /* \"#utility.yul\":6394:6443   */\n      tag_412\n        /* \"#utility.yul\":6436:6442   */\n      dup5\n        /* \"#utility.yul\":6394:6443   */\n      tag_276\n      jump\t// in\n    tag_412:\n        /* \"#utility.yul\":6378:6444   */\n      tag_275\n      jump\t// in\n    tag_411:\n        /* \"#utility.yul\":6369:6444   */\n      swap1\n      pop\n        /* \"#utility.yul\":6467:6473   */\n      dup3\n        /* \"#utility.yul\":6460:6465   */\n      dup2\n        /* \"#utility.yul\":6453:6474   */\n      mstore\n        /* \"#utility.yul\":6505:6509   */\n      0x20\n        /* \"#utility.yul\":6498:6503   */\n      dup2\n        /* \"#utility.yul\":6494:6510   */\n      add\n        /* \"#utility.yul\":6543:6546   */\n      dup5\n        /* \"#utility.yul\":6534:6540   */\n      dup5\n        /* \"#utility.yul\":6529:6532   */\n      dup5\n        /* \"#utility.yul\":6525:6541   */\n      add\n        /* \"#utility.yul\":6522:6547   */\n      gt\n        /* \"#utility.yul\":6519:6631   */\n      iszero\n      tag_413\n      jumpi\n        /* \"#utility.yul\":6550:6629   */\n      tag_414\n      tag_273\n      jump\t// in\n    tag_414:\n        /* \"#utility.yul\":6519:6631   */\n    tag_413:\n        /* \"#utility.yul\":6640:6694   */\n      tag_415\n        /* \"#utility.yul\":6687:6693   */\n      dup5\n        /* \"#utility.yul\":6682:6685   */\n      dup3\n        /* \"#utility.yul\":6677:6680   */\n      dup6\n        /* \"#utility.yul\":6640:6694   */\n      tag_277\n      jump\t// in\n    tag_415:\n        /* \"#utility.yul\":6359:6700   */\n      pop\n        /* \"#utility.yul\":6275:6700   */\n      swap4\n      swap3\n      pop\n      pop\n      pop\n      jump\t// out\n        /* \"#utility.yul\":6720:7060   */\n    tag_279:\n        /* \"#utility.yul\":6776:6781   */\n      0x00\n        /* \"#utility.yul\":6825:6828   */\n      dup3\n        /* \"#utility.yul\":6818:6822   */\n      0x1f\n        /* \"#utility.yul\":6810:6816   */\n      dup4\n        /* \"#utility.yul\":6806:6823   */\n      add\n        /* \"#utility.yul\":6802:6829   */\n      slt\n        /* \"#utility.yul\":6792:6914   */\n      tag_417\n      jumpi\n        /* \"#utility.yul\":6833:6912   */\n      tag_418\n      tag_272\n      jump\t// in\n    tag_418:\n        /* \"#utility.yul\":6792:6914   */\n    tag_417:\n        /* \"#utility.yul\":6950:6956   */\n      dup2\n        /* \"#utility.yul\":6937:6957   */\n      calldataload\n        /* \"#utility.yul\":6975:7054   */\n      tag_419\n        /* \"#utility.yul\":7050:7053   */\n      dup5\n        /* \"#utility.yul\":7042:7048   */\n      dup3\n        /* \"#utility.yul\":7035:7039   */\n      0x20\n        /* \"#utility.yul\":7027:7033   */\n      dup7\n        /* \"#utility.yul\":7023:7040   */\n      add\n        /* \"#utility.yul\":6975:7054   */\n      tag_278\n      jump\t// in\n    tag_419:\n        /* \"#utility.yul\":6966:7054   */\n      swap2\n      pop\n        /* \"#utility.yul\":6782:7060   */\n      pop\n        /* \"#utility.yul\":6720:7060   */\n      swap3\n      swap2\n      pop\n      pop\n      jump\t// out\n        /* \"#utility.yul\":7066:8225   */\n    tag_28:\n        /* \"#utility.yul\":7173:7179   */\n      0x00\n        /* \"#utility.yul\":7181:7187   */\n      dup1\n        /* \"#utility.yul\":7189:7195   */\n      0x00\n        /* \"#utility.yul\":7238:7240   */\n      0x60\n        /* \"#utility.yul\":7226:7235   */\n      dup5\n        /* \"#utility.yul\":7217:7224   */\n      dup7\n        /* \"#utility.yul\":7213:7236   */\n      sub\n        /* \"#utility.yul\":7209:7241   */\n      slt\n        /* \"#utility.yul\":7206:7325   */\n      iszero\n      tag_421\n      jumpi\n        /* \"#utility.yul\":7244:7323   */\n      tag_422\n      tag_252\n      jump\t// in\n    tag_422:\n        /* \"#utility.yul\":7206:7325   */\n    tag_421:\n        /* \"#utility.yul\":7392:7393   */\n      0x00\n        /* \"#utility.yul\":7381:7390   */\n      dup5\n        /* \"#utility.yul\":7377:7394   */\n      add\n        /* \"#utility.yul\":7364:7395   */\n      calldataload\n        /* \"#utility.yul\":7422:7440   */\n      0xffffffffffffffff\n        /* \"#utility.yul\":7414:7420   */\n      dup2\n        /* \"#utility.yul\":7411:7441   */\n      gt\n        /* \"#utility.yul\":7408:7525   */\n      iszero\n      tag_423\n      jumpi\n        /* \"#utility.yul\":7444:7523   */\n      tag_424\n      tag_253\n      jump\t// in\n    tag_424:\n        /* \"#utility.yul\":7408:7525   */\n    tag_423:\n        /* \"#utility.yul\":7549:7612   */\n      tag_425\n        /* \"#utility.yul\":7604:7611   */\n      dup7\n        /* \"#utility.yul\":7595:7601   */\n      dup3\n        /* \"#utility.yul\":7584:7593   */\n      dup8\n        /* \"#utility.yul\":7580:7602   */\n      add\n        /* \"#utility.yul\":7549:7612   */\n      tag_279\n      jump\t// in\n    tag_425:\n        /* \"#utility.yul\":7539:7612   */\n      swap4\n      pop\n        /* \"#utility.yul\":7335:7622   */\n      pop\n        /* \"#utility.yul\":7689:7691   */\n      0x20\n        /* \"#utility.yul\":7678:7687   */\n      dup5\n        /* \"#utility.yul\":7674:7692   */\n      add\n        /* \"#utility.yul\":7661:7693   */\n      calldataload\n        /* \"#utility.yul\":7720:7738   */\n      0xffffffffffffffff\n        /* \"#utility.yul\":7712:7718   */\n      dup2\n        /* \"#utility.yul\":7709:7739   */\n      gt\n        /* \"#utility.yul\":7706:7823   */\n      iszero\n      tag_426\n      jumpi\n        /* \"#utility.yul\":7742:7821   */\n      tag_427\n      tag_253\n      jump\t// in\n    tag_427:\n        /* \"#utility.yul\":7706:7823   */\n    tag_426:\n        /* \"#utility.yul\":7847:7910   */\n      tag_428\n        /* \"#utility.yul\":7902:7909   */\n      dup7\n        /* \"#utility.yul\":7893:7899   */\n      dup3\n        /* \"#utility.yul\":7882:7891   */\n      dup8\n        /* \"#utility.yul\":7878:7900   */\n      add\n        /* \"#utility.yul\":7847:7910   */\n      tag_279\n      jump\t// in\n    tag_428:\n        /* \"#utility.yul\":7837:7910   */\n      swap3\n      pop\n        /* \"#utility.yul\":7632:7920   */\n      pop\n        /* \"#utility.yul\":7987:7989   */\n      0x40\n        /* \"#utility.yul\":7976:7985   */\n      dup5\n        /* \"#utility.yul\":7972:7990   */\n      add\n        /* \"#utility.yul\":7959:7991   */\n      calldataload\n        /* \"#utility.yul\":8018:8036   */\n      0xffffffffffffffff\n        /* \"#utility.yul\":8010:8016   */\n      dup2\n        /* \"#utility.yul\":8007:8037   */\n      gt\n        /* \"#utility.yul\":8004:8121   */\n      iszero\n      tag_429\n      jumpi\n        /* \"#utility.yul\":8040:8119   */\n      tag_430\n      tag_253\n      jump\t// in\n    tag_430:\n        /* \"#utility.yul\":8004:8121   */\n    tag_429:\n        /* \"#utility.yul\":8145:8208   */\n      tag_431\n        /* \"#utility.yul\":8200:8207   */\n      dup7\n        /* \"#utility.yul\":8191:8197   */\n      dup3\n        /* \"#utility.yul\":8180:8189   */\n      dup8\n        /* \"#utility.yul\":8176:8198   */\n      add\n        /* \"#utility.yul\":8145:8208   */\n      tag_279\n      jump\t// in\n    tag_431:\n        /* \"#utility.yul\":8135:8208   */\n      swap2\n      pop\n        /* \"#utility.yul\":7930:8218   */\n      pop\n        /* \"#utility.yul\":7066:8225   */\n      swap3\n      pop\n      swap3\n      pop\n      swap3\n      jump\t// out\n        /* \"#utility.yul\":8231:8321   */\n    tag_280:\n        /* \"#utility.yul\":8265:8272   */\n      0x00\n        /* \"#utility.yul\":8308:8313   */\n      dup2\n        /* \"#utility.yul\":8301:8314   */\n      iszero\n        /* \"#utility.yul\":8294:8315   */\n      iszero\n        /* \"#utility.yul\":8283:8315   */\n      swap1\n      pop\n        /* \"#utility.yul\":8231:8321   */\n      swap2\n      swap1\n      pop\n      jump\t// out\n        /* \"#utility.yul\":8327:8436   */\n    tag_281:\n        /* \"#utility.yul\":8408:8429   */\n      tag_434\n        /* \"#utility.yul\":8423:8428   */\n      dup2\n        /* \"#utility.yul\":8408:8429   */\n      tag_280\n      jump\t// in\n    tag_434:\n        /* \"#utility.yul\":8403:8406   */\n      dup3\n        /* \"#utility.yul\":8396:8430   */\n      mstore\n        /* \"#utility.yul\":8327:8436   */\n      pop\n      pop\n      jump\t// out\n        /* \"#utility.yul\":8442:8652   */\n    tag_37:\n        /* \"#utility.yul\":8529:8533   */\n      0x00\n        /* \"#utility.yul\":8567:8569   */\n      0x20\n        /* \"#utility.yul\":8556:8565   */\n      dup3\n        /* \"#utility.yul\":8552:8570   */\n      add\n        /* \"#utility.yul\":8544:8570   */\n      swap1\n      pop\n        /* \"#utility.yul\":8580:8645   */\n      tag_436\n        /* \"#utility.yul\":8642:8643   */\n      0x00\n        /* \"#utility.yul\":8631:8640   */\n      dup4\n        /* \"#utility.yul\":8627:8644   */\n      add\n        /* \"#utility.yul\":8618:8624   */\n      dup5\n        /* \"#utility.yul\":8580:8645   */\n      tag_281\n      jump\t// in\n    tag_436:\n        /* \"#utility.yul\":8442:8652   */\n      swap3\n      swap2\n      pop\n      pop\n      jump\t// out\n        /* \"#utility.yul\":8658:8772   */\n    tag_282:\n        /* \"#utility.yul\":8725:8731   */\n      0x00\n        /* \"#utility.yul\":8759:8764   */\n      dup2\n        /* \"#utility.yul\":8753:8765   */\n      mload\n        /* \"#utility.yul\":8743:8765   */\n      swap1\n      pop\n        /* \"#utility.yul\":8658:8772   */\n      swap2\n      swap1\n      pop\n      jump\t// out\n        /* \"#utility.yul\":8778:8962   */\n    tag_283:\n        /* \"#utility.yul\":8877:8888   */\n      0x00\n        /* \"#utility.yul\":8911:8917   */\n      dup3\n        /* \"#utility.yul\":8906:8909   */\n      dup3\n        /* \"#utility.yul\":8899:8918   */\n      mstore\n        /* \"#utility.yul\":8951:8955   */\n      0x20\n        /* \"#utility.yul\":8946:8949   */\n      dup3\n        /* \"#utility.yul\":8942:8956   */\n      add\n        /* \"#utility.yul\":8927:8956   */\n      swap1\n      pop\n        /* \"#utility.yul\":8778:8962   */\n      swap3\n      swap2\n      pop\n      pop\n      jump\t// out\n        /* \"#utility.yul\":8968:9100   */\n    tag_284:\n        /* \"#utility.yul\":9035:9039   */\n      0x00\n        /* \"#utility.yul\":9058:9061   */\n      dup2\n        /* \"#utility.yul\":9050:9061   */\n      swap1\n      pop\n        /* \"#utility.yul\":9088:9092   */\n      0x20\n        /* \"#utility.yul\":9083:9086   */\n      dup3\n        /* \"#utility.yul\":9079:9093   */\n      add\n        /* \"#utility.yul\":9071:9093   */\n      swap1\n      pop\n        /* \"#utility.yul\":8968:9100   */\n      swap2\n      swap1\n      pop\n      jump\t// out\n        /* \"#utility.yul\":9106:9214   */\n    tag_285:\n        /* \"#utility.yul\":9183:9207   */\n      tag_441\n        /* \"#utility.yul\":9201:9206   */\n      dup2\n        /* \"#utility.yul\":9183:9207   */\n      tag_255\n      jump\t// in\n    tag_441:\n        /* \"#utility.yul\":9178:9181   */\n      dup3\n        /* \"#utility.yul\":9171:9208   */\n      mstore\n        /* \"#utility.yul\":9106:9214   */\n      pop\n      pop\n      jump\t// out\n        /* \"#utility.yul\":9220:9399   */\n    tag_286:\n        /* \"#utility.yul\":9289:9299   */\n      0x00\n        /* \"#utility.yul\":9310:9356   */\n      tag_443\n        /* \"#utility.yul\":9352:9355   */\n      dup4\n        /* \"#utility.yul\":9344:9350   */\n      dup4\n        /* \"#utility.yul\":9310:9356   */\n      tag_285\n      jump\t// in\n    tag_443:\n        /* \"#utility.yul\":9388:9392   */\n      0x20\n        /* \"#utility.yul\":9383:9386   */\n      dup4\n        /* \"#utility.yul\":9379:9393   */\n      add\n        /* \"#utility.yul\":9365:9393   */\n      swap1\n      pop\n        /* \"#utility.yul\":9220:9399   */\n      swap3\n      swap2\n      pop\n      pop\n      jump\t// out\n        /* \"#utility.yul\":9405:9518   */\n    tag_287:\n        /* \"#utility.yul\":9475:9479   */\n      0x00\n        /* \"#utility.yul\":9507:9511   */\n      0x20\n        /* \"#utility.yul\":9502:9505   */\n      dup3\n        /* \"#utility.yul\":9498:9512   */\n      add\n        /* \"#utility.yul\":9490:9512   */\n      swap1\n      pop\n        /* \"#utility.yul\":9405:9518   */\n      swap2\n      swap1\n      pop\n      jump\t// out\n        /* \"#utility.yul\":9554:10286   */\n    tag_288:\n        /* \"#utility.yul\":9673:9676   */\n      0x00\n        /* \"#utility.yul\":9702:9756   */\n      tag_446\n        /* \"#utility.yul\":9750:9755   */\n      dup3\n        /* \"#utility.yul\":9702:9756   */\n      tag_282\n      jump\t// in\n    tag_446:\n        /* \"#utility.yul\":9772:9858   */\n      tag_447\n        /* \"#utility.yul\":9851:9857   */\n      dup2\n        /* \"#utility.yul\":9846:9849   */\n      dup6\n        /* \"#utility.yul\":9772:9858   */\n      tag_283\n      jump\t// in\n    tag_447:\n        /* \"#utility.yul\":9765:9858   */\n      swap4\n      pop\n        /* \"#utility.yul\":9882:9938   */\n      tag_448\n        /* \"#utility.yul\":9932:9937   */\n      dup4\n        /* \"#utility.yul\":9882:9938   */\n      tag_284\n      jump\t// in\n    tag_448:\n        /* \"#utility.yul\":9961:9968   */\n      dup1\n        /* \"#utility.yul\":9992:9993   */\n      0x00\n        /* \"#utility.yul\":9977:10261   */\n    tag_449:\n        /* \"#utility.yul\":10002:10008   */\n      dup4\n        /* \"#utility.yul\":9999:10000   */\n      dup2\n        /* \"#utility.yul\":9996:10009   */\n      lt\n        /* \"#utility.yul\":9977:10261   */\n      iszero\n      tag_451\n      jumpi\n        /* \"#utility.yul\":10078:10084   */\n      dup2\n        /* \"#utility.yul\":10072:10085   */\n      mload\n        /* \"#utility.yul\":10105:10168   */\n      tag_452\n        /* \"#utility.yul\":10164:10167   */\n      dup9\n        /* \"#utility.yul\":10149:10162   */\n      dup3\n        /* \"#utility.yul\":10105:10168   */\n      tag_286\n      jump\t// in\n    tag_452:\n        /* \"#utility.yul\":10098:10168   */\n      swap8\n      pop\n        /* \"#utility.yul\":10191:10251   */\n      tag_453\n        /* \"#utility.yul\":10244:10250   */\n      dup4\n        /* \"#utility.yul\":10191:10251   */\n      tag_287\n      jump\t// in\n    tag_453:\n        /* \"#utility.yul\":10181:10251   */\n      swap3\n      pop\n        /* \"#utility.yul\":10037:10261   */\n      pop\n        /* \"#utility.yul\":10024:10025   */\n      0x01\n        /* \"#utility.yul\":10021:10022   */\n      dup2\n        /* \"#utility.yul\":10017:10026   */\n      add\n        /* \"#utility.yul\":10012:10026   */\n      swap1\n      pop\n        /* \"#utility.yul\":9977:10261   */\n      jump(tag_449)\n    tag_451:\n        /* \"#utility.yul\":9981:9995   */\n      pop\n        /* \"#utility.yul\":10277:10280   */\n      dup6\n        /* \"#utility.yul\":10270:10280   */\n      swap4\n      pop\n        /* \"#utility.yul\":9678:10286   */\n      pop\n      pop\n      pop\n        /* \"#utility.yul\":9554:10286   */\n      swap3\n      swap2\n      pop\n      pop\n      jump\t// out\n        /* \"#utility.yul\":10292:10416   */\n    tag_289:\n        /* \"#utility.yul\":10369:10375   */\n      0x00\n        /* \"#utility.yul\":10403:10408   */\n      dup2\n        /* \"#utility.yul\":10397:10409   */\n      mload\n        /* \"#utility.yul\":10387:10409   */\n      swap1\n      pop\n        /* \"#utility.yul\":10292:10416   */\n      swap2\n      swap1\n      pop\n      jump\t// out\n        /* \"#utility.yul\":10422:10616   */\n    tag_290:\n        /* \"#utility.yul\":10531:10542   */\n      0x00\n        /* \"#utility.yul\":10565:10571   */\n      dup3\n        /* \"#utility.yul\":10560:10563   */\n      dup3\n        /* \"#utility.yul\":10553:10572   */\n      mstore\n        /* \"#utility.yul\":10605:10609   */\n      0x20\n        /* \"#utility.yul\":10600:10603   */\n      dup3\n        /* \"#utility.yul\":10596:10610   */\n      add\n        /* \"#utility.yul\":10581:10610   */\n      swap1\n      pop\n        /* \"#utility.yul\":10422:10616   */\n      swap3\n      swap2\n      pop\n      pop\n      jump\t// out\n        /* \"#utility.yul\":10622:10764   */\n    tag_291:\n        /* \"#utility.yul\":10699:10703   */\n      0x00\n        /* \"#utility.yul\":10722:10725   */\n      dup2\n        /* \"#utility.yul\":10714:10725   */\n      swap1\n      pop\n        /* \"#utility.yul\":10752:10756   */\n      0x20\n        /* \"#utility.yul\":10747:10750   */\n      dup3\n        /* \"#utility.yul\":10743:10757   */\n      add\n        /* \"#utility.yul\":10735:10757   */\n      swap1\n      pop\n        /* \"#utility.yul\":10622:10764   */\n      swap2\n      swap1\n      pop\n      jump\t// out\n        /* \"#utility.yul\":10770:10929   */\n    tag_292:\n        /* \"#utility.yul\":10844:10855   */\n      0x00\n        /* \"#utility.yul\":10878:10884   */\n      dup3\n        /* \"#utility.yul\":10873:10876   */\n      dup3\n        /* \"#utility.yul\":10866:10885   */\n      mstore\n        /* \"#utility.yul\":10918:10922   */\n      0x20\n        /* \"#utility.yul\":10913:10916   */\n      dup3\n        /* \"#utility.yul\":10909:10923   */\n      add\n        /* \"#utility.yul\":10894:10923   */\n      swap1\n      pop\n        /* \"#utility.yul\":10770:10929   */\n      swap3\n      swap2\n      pop\n      pop\n      jump\t// out\n        /* \"#utility.yul\":10935:11292   */\n    tag_293:\n        /* \"#utility.yul\":11013:11016   */\n      0x00\n        /* \"#utility.yul\":11041:11080   */\n      tag_459\n        /* \"#utility.yul\":11074:11079   */\n      dup3\n        /* \"#utility.yul\":11041:11080   */\n      tag_265\n      jump\t// in\n    tag_459:\n        /* \"#utility.yul\":11096:11157   */\n      tag_460\n        /* \"#utility.yul\":11150:11156   */\n      dup2\n        /* \"#utility.yul\":11145:11148   */\n      dup6\n        /* \"#utility.yul\":11096:11157   */\n      tag_292\n      jump\t// in\n    tag_460:\n        /* \"#utility.yul\":11089:11157   */\n      swap4\n      pop\n        /* \"#utility.yul\":11166:11231   */\n      tag_461\n        /* \"#utility.yul\":11224:11230   */\n      dup2\n        /* \"#utility.yul\":11219:11222   */\n      dup6\n        /* \"#utility.yul\":11212:11216   */\n      0x20\n        /* \"#utility.yul\":11205:11210   */\n      dup7\n        /* \"#utility.yul\":11201:11217   */\n      add\n        /* \"#utility.yul\":11166:11231   */\n      tag_267\n      jump\t// in\n    tag_461:\n        /* \"#utility.yul\":11256:11285   */\n      tag_462\n        /* \"#utility.yul\":11278:11284   */\n      dup2\n        /* \"#utility.yul\":11256:11285   */\n      tag_268\n      jump\t// in\n    tag_462:\n        /* \"#utility.yul\":11251:11254   */\n      dup5\n        /* \"#utility.yul\":11247:11286   */\n      add\n        /* \"#utility.yul\":11240:11286   */\n      swap2\n      pop\n        /* \"#utility.yul\":11017:11292   */\n      pop\n        /* \"#utility.yul\":10935:11292   */\n      swap3\n      swap2\n      pop\n      pop\n      jump\t// out\n        /* \"#utility.yul\":11298:11494   */\n    tag_294:\n        /* \"#utility.yul\":11387:11397   */\n      0x00\n        /* \"#utility.yul\":11422:11488   */\n      tag_464\n        /* \"#utility.yul\":11484:11487   */\n      dup4\n        /* \"#utility.yul\":11476:11482   */\n      dup4\n        /* \"#utility.yul\":11422:11488   */\n      tag_293\n      jump\t// in\n    tag_464:\n        /* \"#utility.yul\":11408:11488   */\n      swap1\n      pop\n        /* \"#utility.yul\":11298:11494   */\n      swap3\n      swap2\n      pop\n      pop\n      jump\t// out\n        /* \"#utility.yul\":11500:11623   */\n    tag_295:\n        /* \"#utility.yul\":11580:11584   */\n      0x00\n        /* \"#utility.yul\":11612:11616   */\n      0x20\n        /* \"#utility.yul\":11607:11610   */\n      dup3\n        /* \"#utility.yul\":11603:11617   */\n      add\n        /* \"#utility.yul\":11595:11617   */\n      swap1\n      pop\n        /* \"#utility.yul\":11500:11623   */\n      swap2\n      swap1\n      pop\n      jump\t// out\n        /* \"#utility.yul\":11657:12648   */\n    tag_296:\n        /* \"#utility.yul\":11796:11799   */\n      0x00\n        /* \"#utility.yul\":11825:11889   */\n      tag_467\n        /* \"#utility.yul\":11883:11888   */\n      dup3\n        /* \"#utility.yul\":11825:11889   */\n      tag_289\n      jump\t// in\n    tag_467:\n        /* \"#utility.yul\":11905:12001   */\n      tag_468\n        /* \"#utility.yul\":11994:12000   */\n      dup2\n        /* \"#utility.yul\":11989:11992   */\n      dup6\n        /* \"#utility.yul\":11905:12001   */\n      tag_290\n      jump\t// in\n    tag_468:\n        /* \"#utility.yul\":11898:12001   */\n      swap4\n      pop\n        /* \"#utility.yul\":12027:12030   */\n      dup4\n        /* \"#utility.yul\":12072:12076   */\n      0x20\n        /* \"#utility.yul\":12064:12070   */\n      dup3\n        /* \"#utility.yul\":12060:12077   */\n      mul\n        /* \"#utility.yul\":12055:12058   */\n      dup6\n        /* \"#utility.yul\":12051:12078   */\n      add\n        /* \"#utility.yul\":12102:12168   */\n      tag_469\n        /* \"#utility.yul\":12162:12167   */\n      dup6\n        /* \"#utility.yul\":12102:12168   */\n      tag_291\n      jump\t// in\n    tag_469:\n        /* \"#utility.yul\":12191:12198   */\n      dup1\n        /* \"#utility.yul\":12222:12223   */\n      0x00\n        /* \"#utility.yul\":12207:12603   */\n    tag_470:\n        /* \"#utility.yul\":12232:12238   */\n      dup6\n        /* \"#utility.yul\":12229:12230   */\n      dup2\n        /* \"#utility.yul\":12226:12239   */\n      lt\n        /* \"#utility.yul\":12207:12603   */\n      iszero\n      tag_472\n      jumpi\n        /* \"#utility.yul\":12303:12312   */\n      dup5\n        /* \"#utility.yul\":12297:12301   */\n      dup5\n        /* \"#utility.yul\":12293:12313   */\n      sub\n        /* \"#utility.yul\":12288:12291   */\n      dup10\n        /* \"#utility.yul\":12281:12314   */\n      mstore\n        /* \"#utility.yul\":12354:12360   */\n      dup2\n        /* \"#utility.yul\":12348:12361   */\n      mload\n        /* \"#utility.yul\":12382:12466   */\n      tag_473\n        /* \"#utility.yul\":12461:12465   */\n      dup6\n        /* \"#utility.yul\":12446:12459   */\n      dup3\n        /* \"#utility.yul\":12382:12466   */\n      tag_294\n      jump\t// in\n    tag_473:\n        /* \"#utility.yul\":12374:12466   */\n      swap5\n      pop\n        /* \"#utility.yul\":12489:12559   */\n      tag_474\n        /* \"#utility.yul\":12552:12558   */\n      dup4\n        /* \"#utility.yul\":12489:12559   */\n      tag_295\n      jump\t// in\n    tag_474:\n        /* \"#utility.yul\":12479:12559   */\n      swap3\n      pop\n        /* \"#utility.yul\":12588:12592   */\n      0x20\n        /* \"#utility.yul\":12583:12586   */\n      dup11\n        /* \"#utility.yul\":12579:12593   */\n      add\n        /* \"#utility.yul\":12572:12593   */\n      swap10\n      pop\n        /* \"#utility.yul\":12267:12603   */\n      pop\n        /* \"#utility.yul\":12254:12255   */\n      0x01\n        /* \"#utility.yul\":12251:12252   */\n      dup2\n        /* \"#utility.yul\":12247:12256   */\n      add\n        /* \"#utility.yul\":12242:12256   */\n      swap1\n      pop\n        /* \"#utility.yul\":12207:12603   */\n      jump(tag_470)\n    tag_472:\n        /* \"#utility.yul\":12211:12225   */\n      pop\n        /* \"#utility.yul\":12619:12623   */\n      dup3\n        /* \"#utility.yul\":12612:12623   */\n      swap8\n      pop\n        /* \"#utility.yul\":12639:12642   */\n      dup8\n        /* \"#utility.yul\":12632:12642   */\n      swap6\n      pop\n        /* \"#utility.yul\":11801:12648   */\n      pop\n      pop\n      pop\n      pop\n      pop\n        /* \"#utility.yul\":11657:12648   */\n      swap3\n      swap2\n      pop\n      pop\n      jump\t// out\n        /* \"#utility.yul\":12654:12768   */\n    tag_297:\n        /* \"#utility.yul\":12721:12727   */\n      0x00\n        /* \"#utility.yul\":12755:12760   */\n      dup2\n        /* \"#utility.yul\":12749:12761   */\n      mload\n        /* \"#utility.yul\":12739:12761   */\n      swap1\n      pop\n        /* \"#utility.yul\":12654:12768   */\n      swap2\n      swap1\n      pop\n      jump\t// out\n        /* \"#utility.yul\":12774:12958   */\n    tag_298:\n        /* \"#utility.yul\":12873:12884   */\n      0x00\n        /* \"#utility.yul\":12907:12913   */\n      dup3\n        /* \"#utility.yul\":12902:12905   */\n      dup3\n        /* \"#utility.yul\":12895:12914   */\n      mstore\n        /* \"#utility.yul\":12947:12951   */\n      0x20\n        /* \"#utility.yul\":12942:12945   */\n      dup3\n        /* \"#utility.yul\":12938:12952   */\n      add\n        /* \"#utility.yul\":12923:12952   */\n      swap1\n      pop\n        /* \"#utility.yul\":12774:12958   */\n      swap3\n      swap2\n      pop\n      pop\n      jump\t// out\n        /* \"#utility.yul\":12964:13096   */\n    tag_299:\n        /* \"#utility.yul\":13031:13035   */\n      0x00\n        /* \"#utility.yul\":13054:13057   */\n      dup2\n        /* \"#utility.yul\":13046:13057   */\n      swap1\n      pop\n        /* \"#utility.yul\":13084:13088   */\n      0x20\n        /* \"#utility.yul\":13079:13082   */\n      dup3\n        /* \"#utility.yul\":13075:13089   */\n      add\n        /* \"#utility.yul\":13067:13089   */\n      swap1\n      pop\n        /* \"#utility.yul\":12964:13096   */\n      swap2\n      swap1\n      pop\n      jump\t// out\n        /* \"#utility.yul\":13102:13210   */\n    tag_300:\n        /* \"#utility.yul\":13179:13203   */\n      tag_479\n        /* \"#utility.yul\":13197:13202   */\n      dup2\n        /* \"#utility.yul\":13179:13203   */\n      tag_263\n      jump\t// in\n    tag_479:\n        /* \"#utility.yul\":13174:13177   */\n      dup3\n        /* \"#utility.yul\":13167:13204   */\n      mstore\n        /* \"#utility.yul\":13102:13210   */\n      pop\n      pop\n      jump\t// out\n        /* \"#utility.yul\":13216:13395   */\n    tag_301:\n        /* \"#utility.yul\":13285:13295   */\n      0x00\n        /* \"#utility.yul\":13306:13352   */\n      tag_481\n        /* \"#utility.yul\":13348:13351   */\n      dup4\n        /* \"#utility.yul\":13340:13346   */\n      dup4\n        /* \"#utility.yul\":13306:13352   */\n      tag_300\n      jump\t// in\n    tag_481:\n        /* \"#utility.yul\":13384:13388   */\n      0x20\n        /* \"#utility.yul\":13379:13382   */\n      dup4\n        /* \"#utility.yul\":13375:13389   */\n      add\n        /* \"#utility.yul\":13361:13389   */\n      swap1\n      pop\n        /* \"#utility.yul\":13216:13395   */\n      swap3\n      swap2\n      pop\n      pop\n      jump\t// out\n        /* \"#utility.yul\":13401:13514   */\n    tag_302:\n        /* \"#utility.yul\":13471:13475   */\n      0x00\n        /* \"#utility.yul\":13503:13507   */\n      0x20\n        /* \"#utility.yul\":13498:13501   */\n      dup3\n        /* \"#utility.yul\":13494:13508   */\n      add\n        /* \"#utility.yul\":13486:13508   */\n      swap1\n      pop\n        /* \"#utility.yul\":13401:13514   */\n      swap2\n      swap1\n      pop\n      jump\t// out\n        /* \"#utility.yul\":13550:14282   */\n    tag_303:\n        /* \"#utility.yul\":13669:13672   */\n      0x00\n        /* \"#utility.yul\":13698:13752   */\n      tag_484\n        /* \"#utility.yul\":13746:13751   */\n      dup3\n        /* \"#utility.yul\":13698:13752   */\n      tag_297\n      jump\t// in\n    tag_484:\n        /* \"#utility.yul\":13768:13854   */\n      tag_485\n        /* \"#utility.yul\":13847:13853   */\n      dup2\n        /* \"#utility.yul\":13842:13845   */\n      dup6\n        /* \"#utility.yul\":13768:13854   */\n      tag_298\n      jump\t// in\n    tag_485:\n        /* \"#utility.yul\":13761:13854   */\n      swap4\n      pop\n        /* \"#utility.yul\":13878:13934   */\n      tag_486\n        /* \"#utility.yul\":13928:13933   */\n      dup4\n        /* \"#utility.yul\":13878:13934   */\n      tag_299\n      jump\t// in\n    tag_486:\n        /* \"#utility.yul\":13957:13964   */\n      dup1\n        /* \"#utility.yul\":13988:13989   */\n      0x00\n        /* \"#utility.yul\":13973:14257   */\n    tag_487:\n        /* \"#utility.yul\":13998:14004   */\n      dup4\n        /* \"#utility.yul\":13995:13996   */\n      dup2\n        /* \"#utility.yul\":13992:14005   */\n      lt\n        /* \"#utility.yul\":13973:14257   */\n      iszero\n      tag_489\n      jumpi\n        /* \"#utility.yul\":14074:14080   */\n      dup2\n        /* \"#utility.yul\":14068:14081   */\n      mload\n        /* \"#utility.yul\":14101:14164   */\n      tag_490\n        /* \"#utility.yul\":14160:14163   */\n      dup9\n        /* \"#utility.yul\":14145:14158   */\n      dup3\n        /* \"#utility.yul\":14101:14164   */\n      tag_301\n      jump\t// in\n    tag_490:\n        /* \"#utility.yul\":14094:14164   */\n      swap8\n      pop\n        /* \"#utility.yul\":14187:14247   */\n      tag_491\n        /* \"#utility.yul\":14240:14246   */\n      dup4\n        /* \"#utility.yul\":14187:14247   */\n      tag_302\n      jump\t// in\n    tag_491:\n        /* \"#utility.yul\":14177:14247   */\n      swap3\n      pop\n        /* \"#utility.yul\":14033:14257   */\n      pop\n        /* \"#utility.yul\":14020:14021   */\n      0x01\n        /* \"#utility.yul\":14017:14018   */\n      dup2\n        /* \"#utility.yul\":14013:14022   */\n      add\n        /* \"#utility.yul\":14008:14022   */\n      swap1\n      pop\n        /* \"#utility.yul\":13973:14257   */\n      jump(tag_487)\n    tag_489:\n        /* \"#utility.yul\":13977:13991   */\n      pop\n        /* \"#utility.yul\":14273:14276   */\n      dup6\n        /* \"#utility.yul\":14266:14276   */\n      swap4\n      pop\n        /* \"#utility.yul\":13674:14282   */\n      pop\n      pop\n      pop\n        /* \"#utility.yul\":13550:14282   */\n      swap3\n      swap2\n      pop\n      pop\n      jump\t// out\n        /* \"#utility.yul\":14288:16049   */\n    tag_42:\n        /* \"#utility.yul\":14861:14865   */\n      0x00\n        /* \"#utility.yul\":14899:14902   */\n      0xc0\n        /* \"#utility.yul\":14888:14897   */\n      dup3\n        /* \"#utility.yul\":14884:14903   */\n      add\n        /* \"#utility.yul\":14876:14903   */\n      swap1\n      pop\n        /* \"#utility.yul\":14949:14958   */\n      dup2\n        /* \"#utility.yul\":14943:14947   */\n      dup2\n        /* \"#utility.yul\":14939:14959   */\n      sub\n        /* \"#utility.yul\":14935:14936   */\n      0x00\n        /* \"#utility.yul\":14924:14933   */\n      dup4\n        /* \"#utility.yul\":14920:14937   */\n      add\n        /* \"#utility.yul\":14913:14960   */\n      mstore\n        /* \"#utility.yul\":14977:15085   */\n      tag_493\n        /* \"#utility.yul\":15080:15084   */\n      dup2\n        /* \"#utility.yul\":15071:15077   */\n      dup10\n        /* \"#utility.yul\":14977:15085   */\n      tag_288\n      jump\t// in\n    tag_493:\n        /* \"#utility.yul\":14969:15085   */\n      swap1\n      pop\n        /* \"#utility.yul\":15132:15141   */\n      dup2\n        /* \"#utility.yul\":15126:15130   */\n      dup2\n        /* \"#utility.yul\":15122:15142   */\n      sub\n        /* \"#utility.yul\":15117:15119   */\n      0x20\n        /* \"#utility.yul\":15106:15115   */\n      dup4\n        /* \"#utility.yul\":15102:15120   */\n      add\n        /* \"#utility.yul\":15095:15143   */\n      mstore\n        /* \"#utility.yul\":15160:15288   */\n      tag_494\n        /* \"#utility.yul\":15283:15287   */\n      dup2\n        /* \"#utility.yul\":15274:15280   */\n      dup9\n        /* \"#utility.yul\":15160:15288   */\n      tag_296\n      jump\t// in\n    tag_494:\n        /* \"#utility.yul\":15152:15288   */\n      swap1\n      pop\n        /* \"#utility.yul\":15335:15344   */\n      dup2\n        /* \"#utility.yul\":15329:15333   */\n      dup2\n        /* \"#utility.yul\":15325:15345   */\n      sub\n        /* \"#utility.yul\":15320:15322   */\n      0x40\n        /* \"#utility.yul\":15309:15318   */\n      dup4\n        /* \"#utility.yul\":15305:15323   */\n      add\n        /* \"#utility.yul\":15298:15346   */\n      mstore\n        /* \"#utility.yul\":15363:15491   */\n      tag_495\n        /* \"#utility.yul\":15486:15490   */\n      dup2\n        /* \"#utility.yul\":15477:15483   */\n      dup8\n        /* \"#utility.yul\":15363:15491   */\n      tag_296\n      jump\t// in\n    tag_495:\n        /* \"#utility.yul\":15355:15491   */\n      swap1\n      pop\n        /* \"#utility.yul\":15538:15547   */\n      dup2\n        /* \"#utility.yul\":15532:15536   */\n      dup2\n        /* \"#utility.yul\":15528:15548   */\n      sub\n        /* \"#utility.yul\":15523:15525   */\n      0x60\n        /* \"#utility.yul\":15512:15521   */\n      dup4\n        /* \"#utility.yul\":15508:15526   */\n      add\n        /* \"#utility.yul\":15501:15549   */\n      mstore\n        /* \"#utility.yul\":15566:15674   */\n      tag_496\n        /* \"#utility.yul\":15669:15673   */\n      dup2\n        /* \"#utility.yul\":15660:15666   */\n      dup7\n        /* \"#utility.yul\":15566:15674   */\n      tag_303\n      jump\t// in\n    tag_496:\n        /* \"#utility.yul\":15558:15674   */\n      swap1\n      pop\n        /* \"#utility.yul\":15722:15731   */\n      dup2\n        /* \"#utility.yul\":15716:15720   */\n      dup2\n        /* \"#utility.yul\":15712:15732   */\n      sub\n        /* \"#utility.yul\":15706:15709   */\n      0x80\n        /* \"#utility.yul\":15695:15704   */\n      dup4\n        /* \"#utility.yul\":15691:15710   */\n      add\n        /* \"#utility.yul\":15684:15733   */\n      mstore\n        /* \"#utility.yul\":15750:15858   */\n      tag_497\n        /* \"#utility.yul\":15853:15857   */\n      dup2\n        /* \"#utility.yul\":15844:15850   */\n      dup6\n        /* \"#utility.yul\":15750:15858   */\n      tag_303\n      jump\t// in\n    tag_497:\n        /* \"#utility.yul\":15742:15858   */\n      swap1\n      pop\n        /* \"#utility.yul\":15906:15915   */\n      dup2\n        /* \"#utility.yul\":15900:15904   */\n      dup2\n        /* \"#utility.yul\":15896:15916   */\n      sub\n        /* \"#utility.yul\":15890:15893   */\n      0xa0\n        /* \"#utility.yul\":15879:15888   */\n      dup4\n        /* \"#utility.yul\":15875:15894   */\n      add\n        /* \"#utility.yul\":15868:15917   */\n      mstore\n        /* \"#utility.yul\":15934:16042   */\n      tag_498\n        /* \"#utility.yul\":16037:16041   */\n      dup2\n        /* \"#utility.yul\":16028:16034   */\n      dup5\n        /* \"#utility.yul\":15934:16042   */\n      tag_303\n      jump\t// in\n    tag_498:\n        /* \"#utility.yul\":15926:16042   */\n      swap1\n      pop\n        /* \"#utility.yul\":14288:16049   */\n      swap8\n      swap7\n      pop\n      pop\n      pop\n      pop\n      pop\n      pop\n      pop\n      jump\t// out\n        /* \"#utility.yul\":16055:16161   */\n    tag_304:\n        /* \"#utility.yul\":16135:16136   */\n      0x03\n        /* \"#utility.yul\":16128:16133   */\n      dup2\n        /* \"#utility.yul\":16125:16137   */\n      lt\n        /* \"#utility.yul\":16115:16155   */\n      tag_500\n      jumpi\n        /* \"#utility.yul\":16151:16152   */\n      0x00\n        /* \"#utility.yul\":16148:16149   */\n      dup1\n        /* \"#utility.yul\":16141:16153   */\n      revert\n        /* \"#utility.yul\":16115:16155   */\n    tag_500:\n        /* \"#utility.yul\":16055:16161   */\n      pop\n      jump\t// out\n        /* \"#utility.yul\":16167:16320   */\n    tag_305:\n        /* \"#utility.yul\":16220:16225   */\n      0x00\n        /* \"#utility.yul\":16258:16264   */\n      dup2\n        /* \"#utility.yul\":16245:16265   */\n      calldataload\n        /* \"#utility.yul\":16236:16265   */\n      swap1\n      pop\n        /* \"#utility.yul\":16274:16314   */\n      tag_502\n        /* \"#utility.yul\":16308:16313   */\n      dup2\n        /* \"#utility.yul\":16274:16314   */\n      tag_304\n      jump\t// in\n    tag_502:\n        /* \"#utility.yul\":16167:16320   */\n      swap3\n      swap2\n      pop\n      pop\n      jump\t// out\n        /* \"#utility.yul\":16326:17645   */\n    tag_45:\n        /* \"#utility.yul\":16449:16455   */\n      0x00\n        /* \"#utility.yul\":16457:16463   */\n      dup1\n        /* \"#utility.yul\":16465:16471   */\n      0x00\n        /* \"#utility.yul\":16473:16479   */\n      dup1\n        /* \"#utility.yul\":16522:16525   */\n      0x80\n        /* \"#utility.yul\":16510:16519   */\n      dup6\n        /* \"#utility.yul\":16501:16508   */\n      dup8\n        /* \"#utility.yul\":16497:16520   */\n      sub\n        /* \"#utility.yul\":16493:16526   */\n      slt\n        /* \"#utility.yul\":16490:16610   */\n      iszero\n      tag_504\n      jumpi\n        /* \"#utility.yul\":16529:16608   */\n      tag_505\n      tag_252\n      jump\t// in\n    tag_505:\n        /* \"#utility.yul\":16490:16610   */\n    tag_504:\n        /* \"#utility.yul\":16649:16650   */\n      0x00\n        /* \"#utility.yul\":16674:16734   */\n      tag_506\n        /* \"#utility.yul\":16726:16733   */\n      dup8\n        /* \"#utility.yul\":16717:16723   */\n      dup3\n        /* \"#utility.yul\":16706:16715   */\n      dup9\n        /* \"#utility.yul\":16702:16724   */\n      add\n        /* \"#utility.yul\":16674:16734   */\n      tag_305\n      jump\t// in\n    tag_506:\n        /* \"#utility.yul\":16664:16734   */\n      swap5\n      pop\n        /* \"#utility.yul\":16620:16744   */\n      pop\n        /* \"#utility.yul\":16811:16813   */\n      0x20\n        /* \"#utility.yul\":16800:16809   */\n      dup6\n        /* \"#utility.yul\":16796:16814   */\n      add\n        /* \"#utility.yul\":16783:16815   */\n      calldataload\n        /* \"#utility.yul\":16842:16860   */\n      0xffffffffffffffff\n        /* \"#utility.yul\":16834:16840   */\n      dup2\n        /* \"#utility.yul\":16831:16861   */\n      gt\n        /* \"#utility.yul\":16828:16945   */\n      iszero\n      tag_507\n      jumpi\n        /* \"#utility.yul\":16864:16943   */\n      tag_508\n      tag_253\n      jump\t// in\n    tag_508:\n        /* \"#utility.yul\":16828:16945   */\n    tag_507:\n        /* \"#utility.yul\":16969:17032   */\n      tag_509\n        /* \"#utility.yul\":17024:17031   */\n      dup8\n        /* \"#utility.yul\":17015:17021   */\n      dup3\n        /* \"#utility.yul\":17004:17013   */\n      dup9\n        /* \"#utility.yul\":17000:17022   */\n      add\n        /* \"#utility.yul\":16969:17032   */\n      tag_279\n      jump\t// in\n    tag_509:\n        /* \"#utility.yul\":16959:17032   */\n      swap4\n      pop\n        /* \"#utility.yul\":16754:17042   */\n      pop\n        /* \"#utility.yul\":17109:17111   */\n      0x40\n        /* \"#utility.yul\":17098:17107   */\n      dup6\n        /* \"#utility.yul\":17094:17112   */\n      add\n        /* \"#utility.yul\":17081:17113   */\n      calldataload\n        /* \"#utility.yul\":17140:17158   */\n      0xffffffffffffffff\n        /* \"#utility.yul\":17132:17138   */\n      dup2\n        /* \"#utility.yul\":17129:17159   */\n      gt\n        /* \"#utility.yul\":17126:17243   */\n      iszero\n      tag_510\n      jumpi\n        /* \"#utility.yul\":17162:17241   */\n      tag_511\n      tag_253\n      jump\t// in\n    tag_511:\n        /* \"#utility.yul\":17126:17243   */\n    tag_510:\n        /* \"#utility.yul\":17267:17330   */\n      tag_512\n        /* \"#utility.yul\":17322:17329   */\n      dup8\n        /* \"#utility.yul\":17313:17319   */\n      dup3\n        /* \"#utility.yul\":17302:17311   */\n      dup9\n        /* \"#utility.yul\":17298:17320   */\n      add\n        /* \"#utility.yul\":17267:17330   */\n      tag_279\n      jump\t// in\n    tag_512:\n        /* \"#utility.yul\":17257:17330   */\n      swap3\n      pop\n        /* \"#utility.yul\":17052:17340   */\n      pop\n        /* \"#utility.yul\":17407:17409   */\n      0x60\n        /* \"#utility.yul\":17396:17405   */\n      dup6\n        /* \"#utility.yul\":17392:17410   */\n      add\n        /* \"#utility.yul\":17379:17411   */\n      calldataload\n        /* \"#utility.yul\":17438:17456   */\n      0xffffffffffffffff\n        /* \"#utility.yul\":17430:17436   */\n      dup2\n        /* \"#utility.yul\":17427:17457   */\n      gt\n        /* \"#utility.yul\":17424:17541   */\n      iszero\n      tag_513\n      jumpi\n        /* \"#utility.yul\":17460:17539   */\n      tag_514\n      tag_253\n      jump\t// in\n    tag_514:\n        /* \"#utility.yul\":17424:17541   */\n    tag_513:\n        /* \"#utility.yul\":17565:17628   */\n      tag_515\n        /* \"#utility.yul\":17620:17627   */\n      dup8\n        /* \"#utility.yul\":17611:17617   */\n      dup3\n        /* \"#utility.yul\":17600:17609   */\n      dup9\n        /* \"#utility.yul\":17596:17618   */\n      add\n        /* \"#utility.yul\":17565:17628   */\n      tag_279\n      jump\t// in\n    tag_515:\n        /* \"#utility.yul\":17555:17628   */\n      swap2\n      pop\n        /* \"#utility.yul\":17350:17638   */\n      pop\n        /* \"#utility.yul\":16326:17645   */\n      swap3\n      swap6\n      swap2\n      swap5\n      pop\n      swap3\n      pop\n      jump\t// out\n        /* \"#utility.yul\":17651:17873   */\n    tag_50:\n        /* \"#utility.yul\":17744:17748   */\n      0x00\n        /* \"#utility.yul\":17782:17784   */\n      0x20\n        /* \"#utility.yul\":17771:17780   */\n      dup3\n        /* \"#utility.yul\":17767:17785   */\n      add\n        /* \"#utility.yul\":17759:17785   */\n      swap1\n      pop\n        /* \"#utility.yul\":17795:17866   */\n      tag_517\n        /* \"#utility.yul\":17863:17864   */\n      0x00\n        /* \"#utility.yul\":17852:17861   */\n      dup4\n        /* \"#utility.yul\":17848:17865   */\n      add\n        /* \"#utility.yul\":17839:17845   */\n      dup5\n        /* \"#utility.yul\":17795:17866   */\n      tag_258\n      jump\t// in\n    tag_517:\n        /* \"#utility.yul\":17651:17873   */\n      swap3\n      swap2\n      pop\n      pop\n      jump\t// out\n        /* \"#utility.yul\":17879:18010   */\n    tag_306:\n        /* \"#utility.yul\":17961:18003   */\n      tag_519\n        /* \"#utility.yul\":17997:18002   */\n      dup2\n        /* \"#utility.yul\":17961:18003   */\n      tag_261\n      jump\t// in\n    tag_519:\n        /* \"#utility.yul\":17956:17959   */\n      dup3\n        /* \"#utility.yul\":17949:18004   */\n      mstore\n        /* \"#utility.yul\":17879:18010   */\n      pop\n      pop\n      jump\t// out\n        /* \"#utility.yul\":18016:18190   */\n    tag_307:\n        /* \"#utility.yul\":18105:18116   */\n      0x00\n        /* \"#utility.yul\":18139:18145   */\n      dup3\n        /* \"#utility.yul\":18134:18137   */\n      dup3\n        /* \"#utility.yul\":18127:18146   */\n      mstore\n        /* \"#utility.yul\":18179:18183   */\n      0x20\n        /* \"#utility.yul\":18174:18177   */\n      dup3\n        /* \"#utility.yul\":18170:18184   */\n      add\n        /* \"#utility.yul\":18155:18184   */\n      swap1\n      pop\n        /* \"#utility.yul\":18016:18190   */\n      swap3\n      swap2\n      pop\n      pop\n      jump\t// out\n        /* \"#utility.yul\":18226:18938   */\n    tag_308:\n        /* \"#utility.yul\":18335:18338   */\n      0x00\n        /* \"#utility.yul\":18364:18418   */\n      tag_522\n        /* \"#utility.yul\":18412:18417   */\n      dup3\n        /* \"#utility.yul\":18364:18418   */\n      tag_297\n      jump\t// in\n    tag_522:\n        /* \"#utility.yul\":18434:18510   */\n      tag_523\n        /* \"#utility.yul\":18503:18509   */\n      dup2\n        /* \"#utility.yul\":18498:18501   */\n      dup6\n        /* \"#utility.yul\":18434:18510   */\n      tag_307\n      jump\t// in\n    tag_523:\n        /* \"#utility.yul\":18427:18510   */\n      swap4\n      pop\n        /* \"#utility.yul\":18534:18590   */\n      tag_524\n        /* \"#utility.yul\":18584:18589   */\n      dup4\n        /* \"#utility.yul\":18534:18590   */\n      tag_299\n      jump\t// in\n    tag_524:\n        /* \"#utility.yul\":18613:18620   */\n      dup1\n        /* \"#utility.yul\":18644:18645   */\n      0x00\n        /* \"#utility.yul\":18629:18913   */\n    tag_525:\n        /* \"#utility.yul\":18654:18660   */\n      dup4\n        /* \"#utility.yul\":18651:18652   */\n      dup2\n        /* \"#utility.yul\":18648:18661   */\n      lt\n        /* \"#utility.yul\":18629:18913   */\n      iszero\n      tag_527\n      jumpi\n        /* \"#utility.yul\":18730:18736   */\n      dup2\n        /* \"#utility.yul\":18724:18737   */\n      mload\n        /* \"#utility.yul\":18757:18820   */\n      tag_528\n        /* \"#utility.yul\":18816:18819   */\n      dup9\n        /* \"#utility.yul\":18801:18814   */\n      dup3\n        /* \"#utility.yul\":18757:18820   */\n      tag_301\n      jump\t// in\n    tag_528:\n        /* \"#utility.yul\":18750:18820   */\n      swap8\n      pop\n        /* \"#utility.yul\":18843:18903   */\n      tag_529\n        /* \"#utility.yul\":18896:18902   */\n      dup4\n        /* \"#utility.yul\":18843:18903   */\n      tag_302\n      jump\t// in\n    tag_529:\n        /* \"#utility.yul\":18833:18903   */\n      swap3\n      pop\n        /* \"#utility.yul\":18689:18913   */\n      pop\n        /* \"#utility.yul\":18676:18677   */\n      0x01\n        /* \"#utility.yul\":18673:18674   */\n      dup2\n        /* \"#utility.yul\":18669:18678   */\n      add\n        /* \"#utility.yul\":18664:18678   */\n      swap1\n      pop\n        /* \"#utility.yul\":18629:18913   */\n      jump(tag_525)\n    tag_527:\n        /* \"#utility.yul\":18633:18647   */\n      pop\n        /* \"#utility.yul\":18929:18932   */\n      dup6\n        /* \"#utility.yul\":18922:18932   */\n      swap4\n      pop\n        /* \"#utility.yul\":18340:18938   */\n      pop\n      pop\n      pop\n        /* \"#utility.yul\":18226:18938   */\n      swap3\n      swap2\n      pop\n      pop\n      jump\t// out\n        /* \"#utility.yul\":19010:20764   */\n    tag_309:\n        /* \"#utility.yul\":19121:19124   */\n      0x00\n        /* \"#utility.yul\":19157:19161   */\n      0xe0\n        /* \"#utility.yul\":19152:19155   */\n      dup4\n        /* \"#utility.yul\":19148:19162   */\n      add\n        /* \"#utility.yul\":19252:19256   */\n      0x00\n        /* \"#utility.yul\":19245:19250   */\n      dup4\n        /* \"#utility.yul\":19241:19257   */\n      add\n        /* \"#utility.yul\":19235:19258   */\n      mload\n        /* \"#utility.yul\":19271:19334   */\n      tag_531\n        /* \"#utility.yul\":19328:19332   */\n      0x00\n        /* \"#utility.yul\":19323:19326   */\n      dup7\n        /* \"#utility.yul\":19319:19333   */\n      add\n        /* \"#utility.yul\":19305:19317   */\n      dup3\n        /* \"#utility.yul\":19271:19334   */\n      tag_285\n      jump\t// in\n    tag_531:\n        /* \"#utility.yul\":19172:19344   */\n      pop\n        /* \"#utility.yul\":19426:19430   */\n      0x20\n        /* \"#utility.yul\":19419:19424   */\n      dup4\n        /* \"#utility.yul\":19415:19431   */\n      add\n        /* \"#utility.yul\":19409:19432   */\n      mload\n        /* \"#utility.yul\":19445:19513   */\n      tag_532\n        /* \"#utility.yul\":19507:19511   */\n      0x20\n        /* \"#utility.yul\":19502:19505   */\n      dup7\n        /* \"#utility.yul\":19498:19512   */\n      add\n        /* \"#utility.yul\":19484:19496   */\n      dup3\n        /* \"#utility.yul\":19445:19513   */\n      tag_306\n      jump\t// in\n    tag_532:\n        /* \"#utility.yul\":19354:19523   */\n      pop\n        /* \"#utility.yul\":19613:19617   */\n      0x40\n        /* \"#utility.yul\":19606:19611   */\n      dup4\n        /* \"#utility.yul\":19602:19618   */\n      add\n        /* \"#utility.yul\":19596:19619   */\n      mload\n        /* \"#utility.yul\":19632:19695   */\n      tag_533\n        /* \"#utility.yul\":19689:19693   */\n      0x40\n        /* \"#utility.yul\":19684:19687   */\n      dup7\n        /* \"#utility.yul\":19680:19694   */\n      add\n        /* \"#utility.yul\":19666:19678   */\n      dup3\n        /* \"#utility.yul\":19632:19695   */\n      tag_300\n      jump\t// in\n    tag_533:\n        /* \"#utility.yul\":19533:19705   */\n      pop\n        /* \"#utility.yul\":19787:19791   */\n      0x60\n        /* \"#utility.yul\":19780:19785   */\n      dup4\n        /* \"#utility.yul\":19776:19792   */\n      add\n        /* \"#utility.yul\":19770:19793   */\n      mload\n        /* \"#utility.yul\":19840:19843   */\n      dup5\n        /* \"#utility.yul\":19834:19838   */\n      dup3\n        /* \"#utility.yul\":19830:19844   */\n      sub\n        /* \"#utility.yul\":19823:19827   */\n      0x60\n        /* \"#utility.yul\":19818:19821   */\n      dup7\n        /* \"#utility.yul\":19814:19828   */\n      add\n        /* \"#utility.yul\":19807:19845   */\n      mstore\n        /* \"#utility.yul\":19866:19939   */\n      tag_534\n        /* \"#utility.yul\":19934:19938   */\n      dup3\n        /* \"#utility.yul\":19920:19932   */\n      dup3\n        /* \"#utility.yul\":19866:19939   */\n      tag_293\n      jump\t// in\n    tag_534:\n        /* \"#utility.yul\":19858:19939   */\n      swap2\n      pop\n        /* \"#utility.yul\":19715:19950   */\n      pop\n        /* \"#utility.yul\":20040:20044   */\n      0x80\n        /* \"#utility.yul\":20033:20038   */\n      dup4\n        /* \"#utility.yul\":20029:20045   */\n      add\n        /* \"#utility.yul\":20023:20046   */\n      mload\n        /* \"#utility.yul\":20093:20096   */\n      dup5\n        /* \"#utility.yul\":20087:20091   */\n      dup3\n        /* \"#utility.yul\":20083:20097   */\n      sub\n        /* \"#utility.yul\":20076:20080   */\n      0x80\n        /* \"#utility.yul\":20071:20074   */\n      dup7\n        /* \"#utility.yul\":20067:20081   */\n      add\n        /* \"#utility.yul\":20060:20098   */\n      mstore\n        /* \"#utility.yul\":20119:20192   */\n      tag_535\n        /* \"#utility.yul\":20187:20191   */\n      dup3\n        /* \"#utility.yul\":20173:20185   */\n      dup3\n        /* \"#utility.yul\":20119:20192   */\n      tag_293\n      jump\t// in\n    tag_535:\n        /* \"#utility.yul\":20111:20192   */\n      swap2\n      pop\n        /* \"#utility.yul\":19960:20203   */\n      pop\n        /* \"#utility.yul\":20292:20296   */\n      0xa0\n        /* \"#utility.yul\":20285:20290   */\n      dup4\n        /* \"#utility.yul\":20281:20297   */\n      add\n        /* \"#utility.yul\":20275:20298   */\n      mload\n        /* \"#utility.yul\":20345:20348   */\n      dup5\n        /* \"#utility.yul\":20339:20343   */\n      dup3\n        /* \"#utility.yul\":20335:20349   */\n      sub\n        /* \"#utility.yul\":20328:20332   */\n      0xa0\n        /* \"#utility.yul\":20323:20326   */\n      dup7\n        /* \"#utility.yul\":20319:20333   */\n      add\n        /* \"#utility.yul\":20312:20350   */\n      mstore\n        /* \"#utility.yul\":20371:20444   */\n      tag_536\n        /* \"#utility.yul\":20439:20443   */\n      dup3\n        /* \"#utility.yul\":20425:20437   */\n      dup3\n        /* \"#utility.yul\":20371:20444   */\n      tag_293\n      jump\t// in\n    tag_536:\n        /* \"#utility.yul\":20363:20444   */\n      swap2\n      pop\n        /* \"#utility.yul\":20213:20455   */\n      pop\n        /* \"#utility.yul\":20544:20548   */\n      0xc0\n        /* \"#utility.yul\":20537:20542   */\n      dup4\n        /* \"#utility.yul\":20533:20549   */\n      add\n        /* \"#utility.yul\":20527:20550   */\n      mload\n        /* \"#utility.yul\":20597:20600   */\n      dup5\n        /* \"#utility.yul\":20591:20595   */\n      dup3\n        /* \"#utility.yul\":20587:20601   */\n      sub\n        /* \"#utility.yul\":20580:20584   */\n      0xc0\n        /* \"#utility.yul\":20575:20578   */\n      dup7\n        /* \"#utility.yul\":20571:20585   */\n      add\n        /* \"#utility.yul\":20564:20602   */\n      mstore\n        /* \"#utility.yul\":20623:20726   */\n      tag_537\n        /* \"#utility.yul\":20721:20725   */\n      dup3\n        /* \"#utility.yul\":20707:20719   */\n      dup3\n        /* \"#utility.yul\":20623:20726   */\n      tag_308\n      jump\t// in\n    tag_537:\n        /* \"#utility.yul\":20615:20726   */\n      swap2\n      pop\n        /* \"#utility.yul\":20465:20737   */\n      pop\n        /* \"#utility.yul\":20754:20758   */\n      dup1\n        /* \"#utility.yul\":20747:20758   */\n      swap2\n      pop\n        /* \"#utility.yul\":19126:20764   */\n      pop\n        /* \"#utility.yul\":19010:20764   */\n      swap3\n      swap2\n      pop\n      pop\n      jump\t// out\n        /* \"#utility.yul\":20770:21127   */\n    tag_62:\n        /* \"#utility.yul\":20905:20909   */\n      0x00\n        /* \"#utility.yul\":20943:20945   */\n      0x20\n        /* \"#utility.yul\":20932:20941   */\n      dup3\n        /* \"#utility.yul\":20928:20946   */\n      add\n        /* \"#utility.yul\":20920:20946   */\n      swap1\n      pop\n        /* \"#utility.yul\":20992:21001   */\n      dup2\n        /* \"#utility.yul\":20986:20990   */\n      dup2\n        /* \"#utility.yul\":20982:21002   */\n      sub\n        /* \"#utility.yul\":20978:20979   */\n      0x00\n        /* \"#utility.yul\":20967:20976   */\n      dup4\n        /* \"#utility.yul\":20963:20980   */\n      add\n        /* \"#utility.yul\":20956:21003   */\n      mstore\n        /* \"#utility.yul\":21020:21120   */\n      tag_539\n        /* \"#utility.yul\":21115:21119   */\n      dup2\n        /* \"#utility.yul\":21106:21112   */\n      dup5\n        /* \"#utility.yul\":21020:21120   */\n      tag_309\n      jump\t// in\n    tag_539:\n        /* \"#utility.yul\":21012:21120   */\n      swap1\n      pop\n        /* \"#utility.yul\":20770:21127   */\n      swap3\n      swap2\n      pop\n      pop\n      jump\t// out\n        /* \"#utility.yul\":21133:21365   */\n    tag_67:\n        /* \"#utility.yul\":21231:21235   */\n      0x00\n        /* \"#utility.yul\":21269:21271   */\n      0x20\n        /* \"#utility.yul\":21258:21267   */\n      dup3\n        /* \"#utility.yul\":21254:21272   */\n      add\n        /* \"#utility.yul\":21246:21272   */\n      swap1\n      pop\n        /* \"#utility.yul\":21282:21358   */\n      tag_541\n        /* \"#utility.yul\":21355:21356   */\n      0x00\n        /* \"#utility.yul\":21344:21353   */\n      dup4\n        /* \"#utility.yul\":21340:21357   */\n      add\n        /* \"#utility.yul\":21331:21337   */\n      dup5\n        /* \"#utility.yul\":21282:21358   */\n      tag_262\n      jump\t// in\n    tag_541:\n        /* \"#utility.yul\":21133:21365   */\n      swap3\n      swap2\n      pop\n      pop\n      jump\t// out\n        /* \"#utility.yul\":21371:21551   */\n    tag_310:\n        /* \"#utility.yul\":21419:21496   */\n      0x4e487b7100000000000000000000000000000000000000000000000000000000\n        /* \"#utility.yul\":21416:21417   */\n      0x00\n        /* \"#utility.yul\":21409:21497   */\n      mstore\n        /* \"#utility.yul\":21516:21520   */\n      0x22\n        /* \"#utility.yul\":21513:21514   */\n      0x04\n        /* \"#utility.yul\":21506:21521   */\n      mstore\n        /* \"#utility.yul\":21540:21544   */\n      0x24\n        /* \"#utility.yul\":21537:21538   */\n      0x00\n        /* \"#utility.yul\":21530:21545   */\n      revert\n        /* \"#utility.yul\":21557:21877   */\n    tag_69:\n        /* \"#utility.yul\":21601:21607   */\n      0x00\n        /* \"#utility.yul\":21638:21639   */\n      0x02\n        /* \"#utility.yul\":21632:21636   */\n      dup3\n        /* \"#utility.yul\":21628:21640   */\n      div\n        /* \"#utility.yul\":21618:21640   */\n      swap1\n      pop\n        /* \"#utility.yul\":21685:21686   */\n      0x01\n        /* \"#utility.yul\":21679:21683   */\n      dup3\n        /* \"#utility.yul\":21675:21687   */\n      and\n        /* \"#utility.yul\":21706:21724   */\n      dup1\n        /* \"#utility.yul\":21696:21777   */\n      tag_544\n      jumpi\n        /* \"#utility.yul\":21762:21766   */\n      0x7f\n        /* \"#utility.yul\":21754:21760   */\n      dup3\n        /* \"#utility.yul\":21750:21767   */\n      and\n        /* \"#utility.yul\":21740:21767   */\n      swap2\n      pop\n        /* \"#utility.yul\":21696:21777   */\n    tag_544:\n        /* \"#utility.yul\":21824:21826   */\n      0x20\n        /* \"#utility.yul\":21816:21822   */\n      dup3\n        /* \"#utility.yul\":21813:21827   */\n      lt\n        /* \"#utility.yul\":21793:21811   */\n      dup2\n        /* \"#utility.yul\":21790:21828   */\n      sub\n        /* \"#utility.yul\":21787:21871   */\n      tag_545\n      jumpi\n        /* \"#utility.yul\":21843:21861   */\n      tag_546\n      tag_310\n      jump\t// in\n    tag_546:\n        /* \"#utility.yul\":21787:21871   */\n    tag_545:\n        /* \"#utility.yul\":21608:21877   */\n      pop\n        /* \"#utility.yul\":21557:21877   */\n      swap2\n      swap1\n      pop\n      jump\t// out\n        /* \"#utility.yul\":21883:22117   */\n    tag_311:\n        /* \"#utility.yul\":22023:22057   */\n      0x4f6e6c7920446f6e6174696f6e7320636f6e74726163742063616e2063616c6c\n        /* \"#utility.yul\":22019:22020   */\n      0x00\n        /* \"#utility.yul\":22011:22017   */\n      dup3\n        /* \"#utility.yul\":22007:22021   */\n      add\n        /* \"#utility.yul\":22000:22058   */\n      mstore\n        /* \"#utility.yul\":22092:22109   */\n      0x20746869732066756e6374696f6e2e0000000000000000000000000000000000\n        /* \"#utility.yul\":22087:22089   */\n      0x20\n        /* \"#utility.yul\":22079:22085   */\n      dup3\n        /* \"#utility.yul\":22075:22090   */\n      add\n        /* \"#utility.yul\":22068:22110   */\n      mstore\n        /* \"#utility.yul\":21883:22117   */\n      pop\n      jump\t// out\n        /* \"#utility.yul\":22123:22489   */\n    tag_312:\n        /* \"#utility.yul\":22265:22268   */\n      0x00\n        /* \"#utility.yul\":22286:22353   */\n      tag_549\n        /* \"#utility.yul\":22350:22352   */\n      0x2f\n        /* \"#utility.yul\":22345:22348   */\n      dup4\n        /* \"#utility.yul\":22286:22353   */\n      tag_266\n      jump\t// in\n    tag_549:\n        /* \"#utility.yul\":22279:22353   */\n      swap2\n      pop\n        /* \"#utility.yul\":22362:22455   */\n      tag_550\n        /* \"#utility.yul\":22451:22454   */\n      dup3\n        /* \"#utility.yul\":22362:22455   */\n      tag_311\n      jump\t// in\n    tag_550:\n        /* \"#utility.yul\":22480:22482   */\n      0x40\n        /* \"#utility.yul\":22475:22478   */\n      dup3\n        /* \"#utility.yul\":22471:22483   */\n      add\n        /* \"#utility.yul\":22464:22483   */\n      swap1\n      pop\n        /* \"#utility.yul\":22123:22489   */\n      swap2\n      swap1\n      pop\n      jump\t// out\n        /* \"#utility.yul\":22495:22914   */\n    tag_87:\n        /* \"#utility.yul\":22661:22665   */\n      0x00\n        /* \"#utility.yul\":22699:22701   */\n      0x20\n        /* \"#utility.yul\":22688:22697   */\n      dup3\n        /* \"#utility.yul\":22684:22702   */\n      add\n        /* \"#utility.yul\":22676:22702   */\n      swap1\n      pop\n        /* \"#utility.yul\":22748:22757   */\n      dup2\n        /* \"#utility.yul\":22742:22746   */\n      dup2\n        /* \"#utility.yul\":22738:22758   */\n      sub\n        /* \"#utility.yul\":22734:22735   */\n      0x00\n        /* \"#utility.yul\":22723:22732   */\n      dup4\n        /* \"#utility.yul\":22719:22736   */\n      add\n        /* \"#utility.yul\":22712:22759   */\n      mstore\n        /* \"#utility.yul\":22776:22907   */\n      tag_552\n        /* \"#utility.yul\":22902:22906   */\n      dup2\n        /* \"#utility.yul\":22776:22907   */\n      tag_312\n      jump\t// in\n    tag_552:\n        /* \"#utility.yul\":22768:22907   */\n      swap1\n      pop\n        /* \"#utility.yul\":22495:22914   */\n      swap2\n      swap1\n      pop\n      jump\t// out\n        /* \"#utility.yul\":22920:23099   */\n    tag_313:\n        /* \"#utility.yul\":23060:23091   */\n      0x4f776e65722070726f66696c6520646f6573206e6f742065786973742e000000\n        /* \"#utility.yul\":23056:23057   */\n      0x00\n        /* \"#utility.yul\":23048:23054   */\n      dup3\n        /* \"#utility.yul\":23044:23058   */\n      add\n        /* \"#utility.yul\":23037:23092   */\n      mstore\n        /* \"#utility.yul\":22920:23099   */\n      pop\n      jump\t// out\n        /* \"#utility.yul\":23105:23471   */\n    tag_314:\n        /* \"#utility.yul\":23247:23250   */\n      0x00\n        /* \"#utility.yul\":23268:23335   */\n      tag_555\n        /* \"#utility.yul\":23332:23334   */\n      0x1d\n        /* \"#utility.yul\":23327:23330   */\n      dup4\n        /* \"#utility.yul\":23268:23335   */\n      tag_266\n      jump\t// in\n    tag_555:\n        /* \"#utility.yul\":23261:23335   */\n      swap2\n      pop\n        /* \"#utility.yul\":23344:23437   */\n      tag_556\n        /* \"#utility.yul\":23433:23436   */\n      dup3\n        /* \"#utility.yul\":23344:23437   */\n      tag_313\n      jump\t// in\n    tag_556:\n        /* \"#utility.yul\":23462:23464   */\n      0x20\n        /* \"#utility.yul\":23457:23460   */\n      dup3\n        /* \"#utility.yul\":23453:23465   */\n      add\n        /* \"#utility.yul\":23446:23465   */\n      swap1\n      pop\n        /* \"#utility.yul\":23105:23471   */\n      swap2\n      swap1\n      pop\n      jump\t// out\n        /* \"#utility.yul\":23477:23896   */\n    tag_91:\n        /* \"#utility.yul\":23643:23647   */\n      0x00\n        /* \"#utility.yul\":23681:23683   */\n      0x20\n        /* \"#utility.yul\":23670:23679   */\n      dup3\n        /* \"#utility.yul\":23666:23684   */\n      add\n        /* \"#utility.yul\":23658:23684   */\n      swap1\n      pop\n        /* \"#utility.yul\":23730:23739   */\n      dup2\n        /* \"#utility.yul\":23724:23728   */\n      dup2\n        /* \"#utility.yul\":23720:23740   */\n      sub\n        /* \"#utility.yul\":23716:23717   */\n      0x00\n        /* \"#utility.yul\":23705:23714   */\n      dup4\n        /* \"#utility.yul\":23701:23718   */\n      add\n        /* \"#utility.yul\":23694:23741   */\n      mstore\n        /* \"#utility.yul\":23758:23889   */\n      tag_558\n        /* \"#utility.yul\":23884:23888   */\n      dup2\n        /* \"#utility.yul\":23758:23889   */\n      tag_314\n      jump\t// in\n    tag_558:\n        /* \"#utility.yul\":23750:23889   */\n      swap1\n      pop\n        /* \"#utility.yul\":23477:23896   */\n      swap2\n      swap1\n      pop\n      jump\t// out\n        /* \"#utility.yul\":23902:24043   */\n    tag_315:\n        /* \"#utility.yul\":23951:23955   */\n      0x00\n        /* \"#utility.yul\":23974:23977   */\n      dup2\n        /* \"#utility.yul\":23966:23977   */\n      swap1\n      pop\n        /* \"#utility.yul\":23997:24000   */\n      dup2\n        /* \"#utility.yul\":23994:23995   */\n      0x00\n        /* \"#utility.yul\":23987:24001   */\n      mstore\n        /* \"#utility.yul\":24031:24035   */\n      0x20\n        /* \"#utility.yul\":24028:24029   */\n      0x00\n        /* \"#utility.yul\":24018:24036   */\n      keccak256\n        /* \"#utility.yul\":24010:24036   */\n      swap1\n      pop\n        /* \"#utility.yul\":23902:24043   */\n      swap2\n      swap1\n      pop\n      jump\t// out\n        /* \"#utility.yul\":24049:24142   */\n    tag_316:\n        /* \"#utility.yul\":24086:24092   */\n      0x00\n        /* \"#utility.yul\":24133:24135   */\n      0x20\n        /* \"#utility.yul\":24128:24130   */\n      0x1f\n        /* \"#utility.yul\":24121:24126   */\n      dup4\n        /* \"#utility.yul\":24117:24131   */\n      add\n        /* \"#utility.yul\":24113:24136   */\n      div\n        /* \"#utility.yul\":24103:24136   */\n      swap1\n      pop\n        /* \"#utility.yul\":24049:24142   */\n      swap2\n      swap1\n      pop\n      jump\t// out\n        /* \"#utility.yul\":24148:24255   */\n    tag_317:\n        /* \"#utility.yul\":24192:24200   */\n      0x00\n        /* \"#utility.yul\":24242:24247   */\n      dup3\n        /* \"#utility.yul\":24236:24240   */\n      dup3\n        /* \"#utility.yul\":24232:24248   */\n      shl\n        /* \"#utility.yul\":24211:24248   */\n      swap1\n      pop\n        /* \"#utility.yul\":24148:24255   */\n      swap3\n      swap2\n      pop\n      pop\n      jump\t// out\n        /* \"#utility.yul\":24261:24654   */\n    tag_318:\n        /* \"#utility.yul\":24330:24336   */\n      0x00\n        /* \"#utility.yul\":24380:24381   */\n      0x08\n        /* \"#utility.yul\":24368:24378   */\n      dup4\n        /* \"#utility.yul\":24364:24382   */\n      mul\n        /* \"#utility.yul\":24403:24500   */\n      tag_563\n        /* \"#utility.yul\":24433:24499   */\n      0xffffffffffffffffffffffffffffffffffffffffffffffffffffffffffffffff\n        /* \"#utility.yul\":24422:24431   */\n      dup3\n        /* \"#utility.yul\":24403:24500   */\n      tag_317\n      jump\t// in\n    tag_563:\n        /* \"#utility.yul\":24521:24560   */\n      tag_564\n        /* \"#utility.yul\":24551:24559   */\n      dup7\n        /* \"#utility.yul\":24540:24549   */\n      dup4\n        /* \"#utility.yul\":24521:24560   */\n      tag_317\n      jump\t// in\n    tag_564:\n        /* \"#utility.yul\":24509:24560   */\n      swap6\n      pop\n        /* \"#utility.yul\":24593:24597   */\n      dup1\n        /* \"#utility.yul\":24589:24598   */\n      not\n        /* \"#utility.yul\":24582:24587   */\n      dup5\n        /* \"#utility.yul\":24578:24599   */\n      and\n        /* \"#utility.yul\":24569:24599   */\n      swap4\n      pop\n        /* \"#utility.yul\":24642:24646   */\n      dup1\n        /* \"#utility.yul\":24632:24640   */\n      dup7\n        /* \"#utility.yul\":24628:24647   */\n      and\n        /* \"#utility.yul\":24621:24626   */\n      dup5\n        /* \"#utility.yul\":24618:24648   */\n      or\n        /* \"#utility.yul\":24608:24648   */\n      swap3\n      pop\n        /* \"#utility.yul\":24337:24654   */\n      pop\n      pop\n        /* \"#utility.yul\":24261:24654   */\n      swap4\n      swap3\n      pop\n      pop\n      pop\n      jump\t// out\n        /* \"#utility.yul\":24660:24720   */\n    tag_319:\n        /* \"#utility.yul\":24688:24691   */\n      0x00\n        /* \"#utility.yul\":24709:24714   */\n      dup2\n        /* \"#utility.yul\":24702:24714   */\n      swap1\n      pop\n        /* \"#utility.yul\":24660:24720   */\n      swap2\n      swap1\n      pop\n      jump\t// out\n        /* \"#utility.yul\":24726:24868   */\n    tag_320:\n        /* \"#utility.yul\":24776:24785   */\n      0x00\n        /* \"#utility.yul\":24809:24862   */\n      tag_567\n        /* \"#utility.yul\":24827:24861   */\n      tag_568\n        /* \"#utility.yul\":24836:24860   */\n      tag_569\n        /* \"#utility.yul\":24854:24859   */\n      dup5\n        /* \"#utility.yul\":24836:24860   */\n      tag_263\n      jump\t// in\n    tag_569:\n        /* \"#utility.yul\":24827:24861   */\n      tag_319\n      jump\t// in\n    tag_568:\n        /* \"#utility.yul\":24809:24862   */\n      tag_263\n      jump\t// in\n    tag_567:\n        /* \"#utility.yul\":24796:24862   */\n      swap1\n      pop\n        /* \"#utility.yul\":24726:24868   */\n      swap2\n      swap1\n      pop\n      jump\t// out\n        /* \"#utility.yul\":24874:24949   */\n    tag_321:\n        /* \"#utility.yul\":24917:24920   */\n      0x00\n        /* \"#utility.yul\":24938:24943   */\n      dup2\n        /* \"#utility.yul\":24931:24943   */\n      swap1\n      pop\n        /* \"#utility.yul\":24874:24949   */\n      swap2\n      swap1\n      pop\n      jump\t// out\n        /* \"#utility.yul\":24955:25224   */\n    tag_322:\n        /* \"#utility.yul\":25065:25104   */\n      tag_572\n        /* \"#utility.yul\":25096:25103   */\n      dup4\n        /* \"#utility.yul\":25065:25104   */\n      tag_320\n      jump\t// in\n    tag_572:\n        /* \"#utility.yul\":25126:25217   */\n      tag_573\n        /* \"#utility.yul\":25175:25216   */\n      tag_574\n        /* \"#utility.yul\":25199:25215   */\n      dup3\n        /* \"#utility.yul\":25175:25216   */\n      tag_321\n      jump\t// in\n    tag_574:\n        /* \"#utility.yul\":25167:25173   */\n      dup5\n        /* \"#utility.yul\":25160:25164   */\n      dup5\n        /* \"#utility.yul\":25154:25165   */\n      sload\n        /* \"#utility.yul\":25126:25217   */\n      tag_318\n      jump\t// in\n    tag_573:\n        /* \"#utility.yul\":25120:25124   */\n      dup3\n        /* \"#utility.yul\":25113:25218   */\n      sstore\n        /* \"#utility.yul\":25031:25224   */\n      pop\n        /* \"#utility.yul\":24955:25224   */\n      pop\n      pop\n      pop\n      jump\t// out\n        /* \"#utility.yul\":25230:25303   */\n    tag_323:\n        /* \"#utility.yul\":25275:25278   */\n      0x00\n        /* \"#utility.yul\":25230:25303   */\n      swap1\n      jump\t// out\n        /* \"#utility.yul\":25309:25498   */\n    tag_324:\n        /* \"#utility.yul\":25386:25418   */\n      tag_577\n      tag_323\n      jump\t// in\n    tag_577:\n        /* \"#utility.yul\":25427:25492   */\n      tag_578\n        /* \"#utility.yul\":25485:25491   */\n      dup2\n        /* \"#utility.yul\":25477:25483   */\n      dup5\n        /* \"#utility.yul\":25471:25475   */\n      dup5\n        /* \"#utility.yul\":25427:25492   */\n      tag_322\n      jump\t// in\n    tag_578:\n        /* \"#utility.yul\":25362:25498   */\n      pop\n        /* \"#utility.yul\":25309:25498   */\n      pop\n      pop\n      jump\t// out\n        /* \"#utility.yul\":25504:25690   */\n    tag_325:\n        /* \"#utility.yul\":25564:25684   */\n    tag_580:\n        /* \"#utility.yul\":25581:25584   */\n      dup2\n        /* \"#utility.yul\":25574:25579   */\n      dup2\n        /* \"#utility.yul\":25571:25585   */\n      lt\n        /* \"#utility.yul\":25564:25684   */\n      iszero\n      tag_582\n      jumpi\n        /* \"#utility.yul\":25635:25674   */\n      tag_583\n        /* \"#utility.yul\":25672:25673   */\n      0x00\n        /* \"#utility.yul\":25665:25670   */\n      dup3\n        /* \"#utility.yul\":25635:25674   */\n      tag_324\n      jump\t// in\n    tag_583:\n        /* \"#utility.yul\":25608:25609   */\n      0x01\n        /* \"#utility.yul\":25601:25606   */\n      dup2\n        /* \"#utility.yul\":25597:25610   */\n      add\n        /* \"#utility.yul\":25588:25610   */\n      swap1\n      pop\n        /* \"#utility.yul\":25564:25684   */\n      jump(tag_580)\n    tag_582:\n        /* \"#utility.yul\":25504:25690   */\n      pop\n      pop\n      jump\t// out\n        /* \"#utility.yul\":25696:26239   */\n    tag_326:\n        /* \"#utility.yul\":25797:25799   */\n      0x1f\n        /* \"#utility.yul\":25792:25795   */\n      dup3\n        /* \"#utility.yul\":25789:25800   */\n      gt\n        /* \"#utility.yul\":25786:26232   */\n      iszero\n      tag_585\n      jumpi\n        /* \"#utility.yul\":25831:25869   */\n      tag_586\n        /* \"#utility.yul\":25863:25868   */\n      dup2\n        /* \"#utility.yul\":25831:25869   */\n      tag_315\n      jump\t// in\n    tag_586:\n        /* \"#utility.yul\":25915:25944   */\n      tag_587\n        /* \"#utility.yul\":25933:25943   */\n      dup5\n        /* \"#utility.yul\":25915:25944   */\n      tag_316\n      jump\t// in\n    tag_587:\n        /* \"#utility.yul\":25905:25913   */\n      dup2\n        /* \"#utility.yul\":25901:25945   */\n      add\n        /* \"#utility.yul\":26098:26100   */\n      0x20\n        /* \"#utility.yul\":26086:26096   */\n      dup6\n        /* \"#utility.yul\":26083:26101   */\n      lt\n        /* \"#utility.yul\":26080:26129   */\n      iszero\n      tag_588\n      jumpi\n        /* \"#utility.yul\":26119:26127   */\n      dup2\n        /* \"#utility.yul\":26104:26127   */\n      swap1\n      pop\n        /* \"#utility.yul\":26080:26129   */\n    tag_588:\n        /* \"#utility.yul\":26142:26222   */\n      tag_589\n        /* \"#utility.yul\":26198:26220   */\n      tag_590\n        /* \"#utility.yul\":26216:26219   */\n      dup6\n        /* \"#utility.yul\":26198:26220   */\n      tag_316\n      jump\t// in\n    tag_590:\n        /* \"#utility.yul\":26188:26196   */\n      dup4\n        /* \"#utility.yul\":26184:26221   */\n      add\n        /* \"#utility.yul\":26171:26182   */\n      dup3\n        /* \"#utility.yul\":26142:26222   */\n      tag_325\n      jump\t// in\n    tag_589:\n        /* \"#utility.yul\":25801:26232   */\n      pop\n      pop\n        /* \"#utility.yul\":25786:26232   */\n    tag_585:\n        /* \"#utility.yul\":25696:26239   */\n      pop\n      pop\n      pop\n      jump\t// out\n        /* \"#utility.yul\":26245:26362   */\n    tag_327:\n        /* \"#utility.yul\":26299:26307   */\n      0x00\n        /* \"#utility.yul\":26349:26354   */\n      dup3\n        /* \"#utility.yul\":26343:26347   */\n      dup3\n        /* \"#utility.yul\":26339:26355   */\n      shr\n        /* \"#utility.yul\":26318:26355   */\n      swap1\n      pop\n        /* \"#utility.yul\":26245:26362   */\n      swap3\n      swap2\n      pop\n      pop\n      jump\t// out\n        /* \"#utility.yul\":26368:26537   */\n    tag_328:\n        /* \"#utility.yul\":26412:26418   */\n      0x00\n        /* \"#utility.yul\":26445:26496   */\n      tag_593\n        /* \"#utility.yul\":26493:26494   */\n      0x00\n        /* \"#utility.yul\":26489:26495   */\n      not\n        /* \"#utility.yul\":26481:26486   */\n      dup5\n        /* \"#utility.yul\":26478:26479   */\n      0x08\n        /* \"#utility.yul\":26474:26487   */\n      mul\n        /* \"#utility.yul\":26445:26496   */\n      tag_327\n      jump\t// in\n    tag_593:\n        /* \"#utility.yul\":26441:26497   */\n      not\n        /* \"#utility.yul\":26526:26530   */\n      dup1\n        /* \"#utility.yul\":26520:26524   */\n      dup4\n        /* \"#utility.yul\":26516:26531   */\n      and\n        /* \"#utility.yul\":26506:26531   */\n      swap2\n      pop\n        /* \"#utility.yul\":26419:26537   */\n      pop\n        /* \"#utility.yul\":26368:26537   */\n      swap3\n      swap2\n      pop\n      pop\n      jump\t// out\n        /* \"#utility.yul\":26542:26837   */\n    tag_329:\n        /* \"#utility.yul\":26618:26622   */\n      0x00\n        /* \"#utility.yul\":26764:26793   */\n      tag_595\n        /* \"#utility.yul\":26789:26792   */\n      dup4\n        /* \"#utility.yul\":26783:26787   */\n      dup4\n        /* \"#utility.yul\":26764:26793   */\n      tag_328\n      jump\t// in\n    tag_595:\n        /* \"#utility.yul\":26756:26793   */\n      swap2\n      pop\n        /* \"#utility.yul\":26826:26829   */\n      dup3\n        /* \"#utility.yul\":26823:26824   */\n      0x02\n        /* \"#utility.yul\":26819:26830   */\n      mul\n        /* \"#utility.yul\":26813:26817   */\n      dup3\n        /* \"#utility.yul\":26810:26831   */\n      or\n        /* \"#utility.yul\":26802:26831   */\n      swap1\n      pop\n        /* \"#utility.yul\":26542:26837   */\n      swap3\n      swap2\n      pop\n      pop\n      jump\t// out\n        /* \"#utility.yul\":26842:28237   */\n    tag_97:\n        /* \"#utility.yul\":26959:26996   */\n      tag_597\n        /* \"#utility.yul\":26992:26995   */\n      dup3\n        /* \"#utility.yul\":26959:26996   */\n      tag_265\n      jump\t// in\n    tag_597:\n        /* \"#utility.yul\":27061:27079   */\n      0xffffffffffffffff\n        /* \"#utility.yul\":27053:27059   */\n      dup2\n        /* \"#utility.yul\":27050:27080   */\n      gt\n        /* \"#utility.yul\":27047:27103   */\n      iszero\n      tag_598\n      jumpi\n        /* \"#utility.yul\":27083:27101   */\n      tag_599\n      tag_135\n      jump\t// in\n    tag_599:\n        /* \"#utility.yul\":27047:27103   */\n    tag_598:\n        /* \"#utility.yul\":27127:27165   */\n      tag_600\n        /* \"#utility.yul\":27159:27163   */\n      dup3\n        /* \"#utility.yul\":27153:27164   */\n      sload\n        /* \"#utility.yul\":27127:27165   */\n      tag_69\n      jump\t// in\n    tag_600:\n        /* \"#utility.yul\":27212:27279   */\n      tag_601\n        /* \"#utility.yul\":27272:27278   */\n      dup3\n        /* \"#utility.yul\":27264:27270   */\n      dup3\n        /* \"#utility.yul\":27258:27262   */\n      dup6\n        /* \"#utility.yul\":27212:27279   */\n      tag_326\n      jump\t// in\n    tag_601:\n        /* \"#utility.yul\":27306:27307   */\n      0x00\n        /* \"#utility.yul\":27330:27334   */\n      0x20\n        /* \"#utility.yul\":27317:27334   */\n      swap1\n      pop\n        /* \"#utility.yul\":27362:27364   */\n      0x1f\n        /* \"#utility.yul\":27354:27360   */\n      dup4\n        /* \"#utility.yul\":27351:27365   */\n      gt\n        /* \"#utility.yul\":27379:27380   */\n      0x01\n        /* \"#utility.yul\":27374:27992   */\n      dup2\n      eq\n      tag_603\n      jumpi\n        /* \"#utility.yul\":28036:28037   */\n      0x00\n        /* \"#utility.yul\":28053:28059   */\n      dup5\n        /* \"#utility.yul\":28050:28127   */\n      iszero\n      tag_604\n      jumpi\n        /* \"#utility.yul\":28102:28111   */\n      dup3\n        /* \"#utility.yul\":28097:28100   */\n      dup8\n        /* \"#utility.yul\":28093:28112   */\n      add\n        /* \"#utility.yul\":28087:28113   */\n      mload\n        /* \"#utility.yul\":28078:28113   */\n      swap1\n      pop\n        /* \"#utility.yul\":28050:28127   */\n    tag_604:\n        /* \"#utility.yul\":28153:28220   */\n      tag_605\n        /* \"#utility.yul\":28213:28219   */\n      dup6\n        /* \"#utility.yul\":28206:28211   */\n      dup3\n        /* \"#utility.yul\":28153:28220   */\n      tag_329\n      jump\t// in\n    tag_605:\n        /* \"#utility.yul\":28147:28151   */\n      dup7\n        /* \"#utility.yul\":28140:28221   */\n      sstore\n        /* \"#utility.yul\":28009:28231   */\n      pop\n        /* \"#utility.yul\":27344:28231   */\n      jump(tag_602)\n        /* \"#utility.yul\":27374:27992   */\n    tag_603:\n        /* \"#utility.yul\":27426:27430   */\n      0x1f\n        /* \"#utility.yul\":27422:27431   */\n      not\n        /* \"#utility.yul\":27414:27420   */\n      dup5\n        /* \"#utility.yul\":27410:27432   */\n      and\n        /* \"#utility.yul\":27460:27497   */\n      tag_606\n        /* \"#utility.yul\":27492:27496   */\n      dup7\n        /* \"#utility.yul\":27460:27497   */\n      tag_315\n      jump\t// in\n    tag_606:\n        /* \"#utility.yul\":27519:27520   */\n      0x00\n        /* \"#utility.yul\":27533:27741   */\n    tag_607:\n        /* \"#utility.yul\":27547:27554   */\n      dup3\n        /* \"#utility.yul\":27544:27545   */\n      dup2\n        /* \"#utility.yul\":27541:27555   */\n      lt\n        /* \"#utility.yul\":27533:27741   */\n      iszero\n      tag_609\n      jumpi\n        /* \"#utility.yul\":27626:27635   */\n      dup5\n        /* \"#utility.yul\":27621:27624   */\n      dup10\n        /* \"#utility.yul\":27617:27636   */\n      add\n        /* \"#utility.yul\":27611:27637   */\n      mload\n        /* \"#utility.yul\":27603:27609   */\n      dup3\n        /* \"#utility.yul\":27596:27638   */\n      sstore\n        /* \"#utility.yul\":27677:27678   */\n      0x01\n        /* \"#utility.yul\":27669:27675   */\n      dup3\n        /* \"#utility.yul\":27665:27679   */\n      add\n        /* \"#utility.yul\":27655:27679   */\n      swap2\n      pop\n        /* \"#utility.yul\":27724:27726   */\n      0x20\n        /* \"#utility.yul\":27713:27722   */\n      dup6\n        /* \"#utility.yul\":27709:27727   */\n      add\n        /* \"#utility.yul\":27696:27727   */\n      swap5\n      pop\n        /* \"#utility.yul\":27570:27574   */\n      0x20\n        /* \"#utility.yul\":27567:27568   */\n      dup2\n        /* \"#utility.yul\":27563:27575   */\n      add\n        /* \"#utility.yul\":27558:27575   */\n      swap1\n      pop\n        /* \"#utility.yul\":27533:27741   */\n      jump(tag_607)\n    tag_609:\n        /* \"#utility.yul\":27769:27775   */\n      dup7\n        /* \"#utility.yul\":27760:27767   */\n      dup4\n        /* \"#utility.yul\":27757:27776   */\n      lt\n        /* \"#utility.yul\":27754:27933   */\n      iszero\n      tag_610\n      jumpi\n        /* \"#utility.yul\":27827:27836   */\n      dup5\n        /* \"#utility.yul\":27822:27825   */\n      dup10\n        /* \"#utility.yul\":27818:27837   */\n      add\n        /* \"#utility.yul\":27812:27838   */\n      mload\n        /* \"#utility.yul\":27870:27918   */\n      tag_611\n        /* \"#utility.yul\":27912:27916   */\n      0x1f\n        /* \"#utility.yul\":27904:27910   */\n      dup10\n        /* \"#utility.yul\":27900:27917   */\n      and\n        /* \"#utility.yul\":27889:27898   */\n      dup3\n        /* \"#utility.yul\":27870:27918   */\n      tag_328\n      jump\t// in\n    tag_611:\n        /* \"#utility.yul\":27862:27868   */\n      dup4\n        /* \"#utility.yul\":27855:27919   */\n      sstore\n        /* \"#utility.yul\":27777:27933   */\n      pop\n        /* \"#utility.yul\":27754:27933   */\n    tag_610:\n        /* \"#utility.yul\":27979:27980   */\n      0x01\n        /* \"#utility.yul\":27975:27976   */\n      0x02\n        /* \"#utility.yul\":27967:27973   */\n      dup9\n        /* \"#utility.yul\":27963:27977   */\n      mul\n        /* \"#utility.yul\":27959:27981   */\n      add\n        /* \"#utility.yul\":27953:27957   */\n      dup9\n        /* \"#utility.yul\":27946:27982   */\n      sstore\n        /* \"#utility.yul\":27381:27992   */\n      pop\n      pop\n      pop\n        /* \"#utility.yul\":27344:28231   */\n    tag_602:\n      pop\n        /* \"#utility.yul\":26934:28237   */\n      pop\n      pop\n      pop\n        /* \"#utility.yul\":26842:28237   */\n      pop\n      pop\n      jump\t// out\n        /* \"#utility.yul\":28243:28415   */\n    tag_330:\n        /* \"#utility.yul\":28383:28407   */\n      0x50726f66696c6520646f6573206e6f7420657869737400000000000000000000\n        /* \"#utility.yul\":28379:28380   */\n      0x00\n        /* \"#utility.yul\":28371:28377   */\n      dup3\n        /* \"#utility.yul\":28367:28381   */\n      add\n        /* \"#utility.yul\":28360:28408   */\n      mstore\n        /* \"#utility.yul\":28243:28415   */\n      pop\n      jump\t// out\n        /* \"#utility.yul\":28421:28787   */\n    tag_331:\n        /* \"#utility.yul\":28563:28566   */\n      0x00\n        /* \"#utility.yul\":28584:28651   */\n      tag_614\n        /* \"#utility.yul\":28648:28650   */\n      0x16\n        /* \"#utility.yul\":28643:28646   */\n      dup4\n        /* \"#utility.yul\":28584:28651   */\n      tag_266\n      jump\t// in\n    tag_614:\n        /* \"#utility.yul\":28577:28651   */\n      swap2\n      pop\n        /* \"#utility.yul\":28660:28753   */\n      tag_615\n        /* \"#utility.yul\":28749:28752   */\n      dup3\n        /* \"#utility.yul\":28660:28753   */\n      tag_330\n      jump\t// in\n    tag_615:\n        /* \"#utility.yul\":28778:28780   */\n      0x20\n        /* \"#utility.yul\":28773:28776   */\n      dup3\n        /* \"#utility.yul\":28769:28781   */\n      add\n        /* \"#utility.yul\":28762:28781   */\n      swap1\n      pop\n        /* \"#utility.yul\":28421:28787   */\n      swap2\n      swap1\n      pop\n      jump\t// out\n        /* \"#utility.yul\":28793:29212   */\n    tag_129:\n        /* \"#utility.yul\":28959:28963   */\n      0x00\n        /* \"#utility.yul\":28997:28999   */\n      0x20\n        /* \"#utility.yul\":28986:28995   */\n      dup3\n        /* \"#utility.yul\":28982:29000   */\n      add\n        /* \"#utility.yul\":28974:29000   */\n      swap1\n      pop\n        /* \"#utility.yul\":29046:29055   */\n      dup2\n        /* \"#utility.yul\":29040:29044   */\n      dup2\n        /* \"#utility.yul\":29036:29056   */\n      sub\n        /* \"#utility.yul\":29032:29033   */\n      0x00\n        /* \"#utility.yul\":29021:29030   */\n      dup4\n        /* \"#utility.yul\":29017:29034   */\n      add\n        /* \"#utility.yul\":29010:29057   */\n      mstore\n        /* \"#utility.yul\":29074:29205   */\n      tag_617\n        /* \"#utility.yul\":29200:29204   */\n      dup2\n        /* \"#utility.yul\":29074:29205   */\n      tag_331\n      jump\t// in\n    tag_617:\n        /* \"#utility.yul\":29066:29205   */\n      swap1\n      pop\n        /* \"#utility.yul\":28793:29212   */\n      swap2\n      swap1\n      pop\n      jump\t// out\n        /* \"#utility.yul\":29218:29398   */\n    tag_159:\n        /* \"#utility.yul\":29266:29343   */\n      0x4e487b7100000000000000000000000000000000000000000000000000000000\n        /* \"#utility.yul\":29263:29264   */\n      0x00\n        /* \"#utility.yul\":29256:29344   */\n      mstore\n        /* \"#utility.yul\":29363:29367   */\n      0x32\n        /* \"#utility.yul\":29360:29361   */\n      0x04\n        /* \"#utility.yul\":29353:29368   */\n      mstore\n        /* \"#utility.yul\":29387:29391   */\n      0x24\n        /* \"#utility.yul\":29384:29385   */\n      0x00\n        /* \"#utility.yul\":29377:29392   */\n      revert\n        /* \"#utility.yul\":29404:29626   */\n    tag_161:\n        /* \"#utility.yul\":29497:29501   */\n      0x00\n        /* \"#utility.yul\":29535:29537   */\n      0x20\n        /* \"#utility.yul\":29524:29533   */\n      dup3\n        /* \"#utility.yul\":29520:29538   */\n      add\n        /* \"#utility.yul\":29512:29538   */\n      swap1\n      pop\n        /* \"#utility.yul\":29548:29619   */\n      tag_620\n        /* \"#utility.yul\":29616:29617   */\n      0x00\n        /* \"#utility.yul\":29605:29614   */\n      dup4\n        /* \"#utility.yul\":29601:29618   */\n      add\n        /* \"#utility.yul\":29592:29598   */\n      dup5\n        /* \"#utility.yul\":29548:29619   */\n      tag_264\n      jump\t// in\n    tag_620:\n        /* \"#utility.yul\":29404:29626   */\n      swap3\n      swap2\n      pop\n      pop\n      jump\t// out\n        /* \"#utility.yul\":29632:29775   */\n    tag_332:\n        /* \"#utility.yul\":29689:29694   */\n      0x00\n        /* \"#utility.yul\":29720:29726   */\n      dup2\n        /* \"#utility.yul\":29714:29727   */\n      mload\n        /* \"#utility.yul\":29705:29727   */\n      swap1\n      pop\n        /* \"#utility.yul\":29736:29769   */\n      tag_622\n        /* \"#utility.yul\":29763:29768   */\n      dup2\n        /* \"#utility.yul\":29736:29769   */\n      tag_256\n      jump\t// in\n    tag_622:\n        /* \"#utility.yul\":29632:29775   */\n      swap3\n      swap2\n      pop\n      pop\n      jump\t// out\n        /* \"#utility.yul\":29781:30215   */\n    tag_333:\n        /* \"#utility.yul\":29870:29875   */\n      0x00\n        /* \"#utility.yul\":29895:29961   */\n      tag_624\n        /* \"#utility.yul\":29911:29960   */\n      tag_625\n        /* \"#utility.yul\":29953:29959   */\n      dup5\n        /* \"#utility.yul\":29911:29960   */\n      tag_276\n      jump\t// in\n    tag_625:\n        /* \"#utility.yul\":29895:29961   */\n      tag_275\n      jump\t// in\n    tag_624:\n        /* \"#utility.yul\":29886:29961   */\n      swap1\n      pop\n        /* \"#utility.yul\":29984:29990   */\n      dup3\n        /* \"#utility.yul\":29977:29982   */\n      dup2\n        /* \"#utility.yul\":29970:29991   */\n      mstore\n        /* \"#utility.yul\":30022:30026   */\n      0x20\n        /* \"#utility.yul\":30015:30020   */\n      dup2\n        /* \"#utility.yul\":30011:30027   */\n      add\n        /* \"#utility.yul\":30060:30063   */\n      dup5\n        /* \"#utility.yul\":30051:30057   */\n      dup5\n        /* \"#utility.yul\":30046:30049   */\n      dup5\n        /* \"#utility.yul\":30042:30058   */\n      add\n        /* \"#utility.yul\":30039:30064   */\n      gt\n        /* \"#utility.yul\":30036:30148   */\n      iszero\n      tag_626\n      jumpi\n        /* \"#utility.yul\":30067:30146   */\n      tag_627\n      tag_273\n      jump\t// in\n    tag_627:\n        /* \"#utility.yul\":30036:30148   */\n    tag_626:\n        /* \"#utility.yul\":30157:30209   */\n      tag_628\n        /* \"#utility.yul\":30202:30208   */\n      dup5\n        /* \"#utility.yul\":30197:30200   */\n      dup3\n        /* \"#utility.yul\":30192:30195   */\n      dup6\n        /* \"#utility.yul\":30157:30209   */\n      tag_267\n      jump\t// in\n    tag_628:\n        /* \"#utility.yul\":29876:30215   */\n      pop\n        /* \"#utility.yul\":29781:30215   */\n      swap4\n      swap3\n      pop\n      pop\n      pop\n      jump\t// out\n        /* \"#utility.yul\":30235:30590   */\n    tag_334:\n        /* \"#utility.yul\":30302:30307   */\n      0x00\n        /* \"#utility.yul\":30351:30354   */\n      dup3\n        /* \"#utility.yul\":30344:30348   */\n      0x1f\n        /* \"#utility.yul\":30336:30342   */\n      dup4\n        /* \"#utility.yul\":30332:30349   */\n      add\n        /* \"#utility.yul\":30328:30355   */\n      slt\n        /* \"#utility.yul\":30318:30440   */\n      tag_630\n      jumpi\n        /* \"#utility.yul\":30359:30438   */\n      tag_631\n      tag_272\n      jump\t// in\n    tag_631:\n        /* \"#utility.yul\":30318:30440   */\n    tag_630:\n        /* \"#utility.yul\":30469:30475   */\n      dup2\n        /* \"#utility.yul\":30463:30476   */\n      mload\n        /* \"#utility.yul\":30494:30584   */\n      tag_632\n        /* \"#utility.yul\":30580:30583   */\n      dup5\n        /* \"#utility.yul\":30572:30578   */\n      dup3\n        /* \"#utility.yul\":30565:30569   */\n      0x20\n        /* \"#utility.yul\":30557:30563   */\n      dup7\n        /* \"#utility.yul\":30553:30570   */\n      add\n        /* \"#utility.yul\":30494:30584   */\n      tag_333\n      jump\t// in\n    tag_632:\n        /* \"#utility.yul\":30485:30584   */\n      swap2\n      pop\n        /* \"#utility.yul\":30308:30590   */\n      pop\n        /* \"#utility.yul\":30235:30590   */\n      swap3\n      swap2\n      pop\n      pop\n      jump\t// out\n        /* \"#utility.yul\":30596:30739   */\n    tag_335:\n        /* \"#utility.yul\":30653:30658   */\n      0x00\n        /* \"#utility.yul\":30684:30690   */\n      dup2\n        /* \"#utility.yul\":30678:30691   */\n      mload\n        /* \"#utility.yul\":30669:30691   */\n      swap1\n      pop\n        /* \"#utility.yul\":30700:30733   */\n      tag_634\n        /* \"#utility.yul\":30727:30732   */\n      dup2\n        /* \"#utility.yul\":30700:30733   */\n      tag_270\n      jump\t// in\n    tag_634:\n        /* \"#utility.yul\":30596:30739   */\n      swap3\n      swap2\n      pop\n      pop\n      jump\t// out\n        /* \"#utility.yul\":30745:32225   */\n    tag_165:\n        /* \"#utility.yul\":30880:30886   */\n      0x00\n        /* \"#utility.yul\":30888:30894   */\n      dup1\n        /* \"#utility.yul\":30896:30902   */\n      0x00\n        /* \"#utility.yul\":30904:30910   */\n      dup1\n        /* \"#utility.yul\":30912:30918   */\n      0x00\n        /* \"#utility.yul\":30920:30926   */\n      dup1\n        /* \"#utility.yul\":30969:30972   */\n      0xc0\n        /* \"#utility.yul\":30957:30966   */\n      dup8\n        /* \"#utility.yul\":30948:30955   */\n      dup10\n        /* \"#utility.yul\":30944:30967   */\n      sub\n        /* \"#utility.yul\":30940:30973   */\n      slt\n        /* \"#utility.yul\":30937:31057   */\n      iszero\n      tag_636\n      jumpi\n        /* \"#utility.yul\":30976:31055   */\n      tag_637\n      tag_252\n      jump\t// in\n    tag_637:\n        /* \"#utility.yul\":30937:31057   */\n    tag_636:\n        /* \"#utility.yul\":31096:31097   */\n      0x00\n        /* \"#utility.yul\":31121:31185   */\n      tag_638\n        /* \"#utility.yul\":31177:31184   */\n      dup10\n        /* \"#utility.yul\":31168:31174   */\n      dup3\n        /* \"#utility.yul\":31157:31166   */\n      dup11\n        /* \"#utility.yul\":31153:31175   */\n      add\n        /* \"#utility.yul\":31121:31185   */\n      tag_332\n      jump\t// in\n    tag_638:\n        /* \"#utility.yul\":31111:31185   */\n      swap7\n      pop\n        /* \"#utility.yul\":31067:31195   */\n      pop\n        /* \"#utility.yul\":31255:31257   */\n      0x20\n        /* \"#utility.yul\":31244:31253   */\n      dup8\n        /* \"#utility.yul\":31240:31258   */\n      add\n        /* \"#utility.yul\":31234:31259   */\n      mload\n        /* \"#utility.yul\":31286:31304   */\n      0xffffffffffffffff\n        /* \"#utility.yul\":31278:31284   */\n      dup2\n        /* \"#utility.yul\":31275:31305   */\n      gt\n        /* \"#utility.yul\":31272:31389   */\n      iszero\n      tag_639\n      jumpi\n        /* \"#utility.yul\":31308:31387   */\n      tag_640\n      tag_253\n      jump\t// in\n    tag_640:\n        /* \"#utility.yul\":31272:31389   */\n    tag_639:\n        /* \"#utility.yul\":31413:31487   */\n      tag_641\n        /* \"#utility.yul\":31479:31486   */\n      dup10\n        /* \"#utility.yul\":31470:31476   */\n      dup3\n        /* \"#utility.yul\":31459:31468   */\n      dup11\n        /* \"#utility.yul\":31455:31477   */\n      add\n        /* \"#utility.yul\":31413:31487   */\n      tag_334\n      jump\t// in\n    tag_641:\n        /* \"#utility.yul\":31403:31487   */\n      swap6\n      pop\n        /* \"#utility.yul\":31205:31497   */\n      pop\n        /* \"#utility.yul\":31557:31559   */\n      0x40\n        /* \"#utility.yul\":31546:31555   */\n      dup8\n        /* \"#utility.yul\":31542:31560   */\n      add\n        /* \"#utility.yul\":31536:31561   */\n      mload\n        /* \"#utility.yul\":31588:31606   */\n      0xffffffffffffffff\n        /* \"#utility.yul\":31580:31586   */\n      dup2\n        /* \"#utility.yul\":31577:31607   */\n      gt\n        /* \"#utility.yul\":31574:31691   */\n      iszero\n      tag_642\n      jumpi\n        /* \"#utility.yul\":31610:31689   */\n      tag_643\n      tag_253\n      jump\t// in\n    tag_643:\n        /* \"#utility.yul\":31574:31691   */\n    tag_642:\n        /* \"#utility.yul\":31715:31789   */\n      tag_644\n        /* \"#utility.yul\":31781:31788   */\n      dup10\n        /* \"#utility.yul\":31772:31778   */\n      dup3\n        /* \"#utility.yul\":31761:31770   */\n      dup11\n        /* \"#utility.yul\":31757:31779   */\n      add\n        /* \"#utility.yul\":31715:31789   */\n      tag_334\n      jump\t// in\n    tag_644:\n        /* \"#utility.yul\":31705:31789   */\n      swap5\n      pop\n        /* \"#utility.yul\":31507:31799   */\n      pop\n        /* \"#utility.yul\":31838:31840   */\n      0x60\n        /* \"#utility.yul\":31864:31928   */\n      tag_645\n        /* \"#utility.yul\":31920:31927   */\n      dup10\n        /* \"#utility.yul\":31911:31917   */\n      dup3\n        /* \"#utility.yul\":31900:31909   */\n      dup11\n        /* \"#utility.yul\":31896:31918   */\n      add\n        /* \"#utility.yul\":31864:31928   */\n      tag_335\n      jump\t// in\n    tag_645:\n        /* \"#utility.yul\":31854:31928   */\n      swap4\n      pop\n        /* \"#utility.yul\":31809:31938   */\n      pop\n        /* \"#utility.yul\":31977:31980   */\n      0x80\n        /* \"#utility.yul\":32004:32068   */\n      tag_646\n        /* \"#utility.yul\":32060:32067   */\n      dup10\n        /* \"#utility.yul\":32051:32057   */\n      dup3\n        /* \"#utility.yul\":32040:32049   */\n      dup11\n        /* \"#utility.yul\":32036:32058   */\n      add\n        /* \"#utility.yul\":32004:32068   */\n      tag_335\n      jump\t// in\n    tag_646:\n        /* \"#utility.yul\":31994:32068   */\n      swap3\n      pop\n        /* \"#utility.yul\":31948:32078   */\n      pop\n        /* \"#utility.yul\":32117:32120   */\n      0xa0\n        /* \"#utility.yul\":32144:32208   */\n      tag_647\n        /* \"#utility.yul\":32200:32207   */\n      dup10\n        /* \"#utility.yul\":32191:32197   */\n      dup3\n        /* \"#utility.yul\":32180:32189   */\n      dup11\n        /* \"#utility.yul\":32176:32198   */\n      add\n        /* \"#utility.yul\":32144:32208   */\n      tag_335\n      jump\t// in\n    tag_647:\n        /* \"#utility.yul\":32134:32208   */\n      swap2\n      pop\n        /* \"#utility.yul\":32088:32218   */\n      pop\n        /* \"#utility.yul\":30745:32225   */\n      swap3\n      swap6\n      pop\n      swap3\n      swap6\n      pop\n      swap3\n      swap6\n      jump\t// out\n        /* \"#utility.yul\":32231:32410   */\n    tag_336:\n        /* \"#utility.yul\":32371:32402   */\n      0x4f776e65722070726f66696c6520616c7265616479206578697374732e000000\n        /* \"#utility.yul\":32367:32368   */\n      0x00\n        /* \"#utility.yul\":32359:32365   */\n      dup3\n        /* \"#utility.yul\":32355:32369   */\n      add\n        /* \"#utility.yul\":32348:32403   */\n      mstore\n        /* \"#utility.yul\":32231:32410   */\n      pop\n      jump\t// out\n        /* \"#utility.yul\":32416:32782   */\n    tag_337:\n        /* \"#utility.yul\":32558:32561   */\n      0x00\n        /* \"#utility.yul\":32579:32646   */\n      tag_650\n        /* \"#utility.yul\":32643:32645   */\n      0x1d\n        /* \"#utility.yul\":32638:32641   */\n      dup4\n        /* \"#utility.yul\":32579:32646   */\n      tag_266\n      jump\t// in\n    tag_650:\n        /* \"#utility.yul\":32572:32646   */\n      swap2\n      pop\n        /* \"#utility.yul\":32655:32748   */\n      tag_651\n        /* \"#utility.yul\":32744:32747   */\n      dup3\n        /* \"#utility.yul\":32655:32748   */\n      tag_336\n      jump\t// in\n    tag_651:\n        /* \"#utility.yul\":32773:32775   */\n      0x20\n        /* \"#utility.yul\":32768:32771   */\n      dup3\n        /* \"#utility.yul\":32764:32776   */\n      add\n        /* \"#utility.yul\":32757:32776   */\n      swap1\n      pop\n        /* \"#utility.yul\":32416:32782   */\n      swap2\n      swap1\n      pop\n      jump\t// out\n        /* \"#utility.yul\":32788:33207   */\n    tag_181:\n        /* \"#utility.yul\":32954:32958   */\n      0x00\n        /* \"#utility.yul\":32992:32994   */\n      0x20\n        /* \"#utility.yul\":32981:32990   */\n      dup3\n        /* \"#utility.yul\":32977:32995   */\n      add\n        /* \"#utility.yul\":32969:32995   */\n      swap1\n      pop\n        /* \"#utility.yul\":33041:33050   */\n      dup2\n        /* \"#utility.yul\":33035:33039   */\n      dup2\n        /* \"#utility.yul\":33031:33051   */\n      sub\n        /* \"#utility.yul\":33027:33028   */\n      0x00\n        /* \"#utility.yul\":33016:33025   */\n      dup4\n        /* \"#utility.yul\":33012:33029   */\n      add\n        /* \"#utility.yul\":33005:33052   */\n      mstore\n        /* \"#utility.yul\":33069:33200   */\n      tag_653\n        /* \"#utility.yul\":33195:33199   */\n      dup2\n        /* \"#utility.yul\":33069:33200   */\n      tag_337\n      jump\t// in\n    tag_653:\n        /* \"#utility.yul\":33061:33200   */\n      swap1\n      pop\n        /* \"#utility.yul\":32788:33207   */\n      swap2\n      swap1\n      pop\n      jump\t// out\n\n    auxdata: 0xa264697066735822122075505c1db8a335bd66609cbc43bc1f21cd176eb6aa8bedc859fc767ea7ef500464736f6c634300081a0033\n}\n",
				"bytecode": {
					"linkReferences": {},
					"object": "6080604052348015600e575f80fd5b50612ac48061001c5f395ff3fe608060405234801561000f575f80fd5b50600436106100b2575f3560e01c80631afd3e8d1161006f5780631afd3e8d146101a457806335f85c5a146101c057806354c03ab7146101de578063abaf78d4146101fc578063c3bb81211461022c578063f51102051461025c576100b2565b8063022914a7146100b657806303d7a671146100eb57806309261a9e146101075780630eb8d0e81461012357806313c876a21461013f5780631693bfa11461016f575b5f80fd5b6100d060048036038101906100cb9190611afe565b61028c565b6040516100e296959493929190611c33565b60405180910390f35b61010560048036038101906101009190611cd1565b610480565b005b610121600480360381019061011c9190611e3b565b610641565b005b61013d60048036038101906101389190611afe565b61074c565b005b61015960048036038101906101549190611afe565b6107cf565b6040516101669190611ef9565b60405180910390f35b61018960048036038101906101849190611afe565b610bf2565b60405161019b96959493929190612183565b60405180910390f35b6101be60048036038101906101b9919061222f565b611039565b005b6101c8611283565b6040516101d591906122e7565b60405180910390f35b6101e66112a8565b6040516101f391906122e7565b60405180910390f35b61021660048036038101906102119190611afe565b6112d0565b6040516102239190611ef9565b60405180910390f35b61024660048036038101906102419190611afe565b611683565b6040516102539190612429565b60405180910390f35b61027660048036038101906102719190611afe565b611977565b6040516102839190612449565b60405180910390f35b5f602052805f5260405f205f91509050805f015f9054906101000a900473ffffffffffffffffffffffffffffffffffffffff1690805f0160149054906101000a900460ff16908060010154908060020180546102e79061248f565b80601f01602080910402602001604051908101604052809291908181526020018280546103139061248f565b801561035e5780601f106103355761010080835404028352916020019161035e565b820191905f5260205f20905b81548152906001019060200180831161034157829003601f168201915b5050505050908060030180546103739061248f565b80601f016020809104026020016040519081016040528092919081815260200182805461039f9061248f565b80156103ea5780601f106103c1576101008083540402835291602001916103ea565b820191905f5260205f20905b8154815290600101906020018083116103cd57829003601f168201915b5050505050908060040180546103ff9061248f565b80601f016020809104026020016040519081016040528092919081815260200182805461042b9061248f565b80156104765780601f1061044d57610100808354040283529160200191610476565b820191905f5260205f20905b81548152906001019060200180831161045957829003601f168201915b5050505050905086565b60015f9054906101000a900473ffffffffffffffffffffffffffffffffffffffff1673ffffffffffffffffffffffffffffffffffffffff163373ffffffffffffffffffffffffffffffffffffffff161461050f576040517f08c379a00000000000000000000000000000000000000000000000000000000081526004016105069061252f565b60405180910390fd5b5f73ffffffffffffffffffffffffffffffffffffffff165f808473ffffffffffffffffffffffffffffffffffffffff1673ffffffffffffffffffffffffffffffffffffffff1681526020019081526020015f205f015f9054906101000a900473ffffffffffffffffffffffffffffffffffffffff1673ffffffffffffffffffffffffffffffffffffffff16036105da576040517f08c379a00000000000000000000000000000000000000000000000000000000081526004016105d190612597565b60405180910390fd5b5f808373ffffffffffffffffffffffffffffffffffffffff1673ffffffffffffffffffffffffffffffffffffffff1681526020019081526020015f2060050181908060018154018082558091505060019003905f5260205f20015f90919091909150555050565b5f805f3373ffffffffffffffffffffffffffffffffffffffff1673ffffffffffffffffffffffffffffffffffffffff1681526020019081526020015f2090505f73ffffffffffffffffffffffffffffffffffffffff16815f015f9054906101000a900473ffffffffffffffffffffffffffffffffffffffff1673ffffffffffffffffffffffffffffffffffffffff1603610710576040517f08c379a000000000000000000000000000000000000000000000000000000000815260040161070790612597565b60405180910390fd5b838160020190816107219190612752565b50828160030190816107339190612752565b50818160040190816107459190612752565b5050505050565b8060015f6101000a81548173ffffffffffffffffffffffffffffffffffffffff021916908373ffffffffffffffffffffffffffffffffffffffff1602179055508060025f6101000a81548173ffffffffffffffffffffffffffffffffffffffff021916908373ffffffffffffffffffffffffffffffffffffffff16021790555050565b5f60015f9054906101000a900473ffffffffffffffffffffffffffffffffffffffff1673ffffffffffffffffffffffffffffffffffffffff163373ffffffffffffffffffffffffffffffffffffffff161461085f576040517f08c379a00000000000000000000000000000000000000000000000000000000081526004016108569061252f565b60405180910390fd5b5f805f8473ffffffffffffffffffffffffffffffffffffffff1673ffffffffffffffffffffffffffffffffffffffff1681526020019081526020015f206040518060e00160405290815f82015f9054906101000a900473ffffffffffffffffffffffffffffffffffffffff1673ffffffffffffffffffffffffffffffffffffffff1673ffffffffffffffffffffffffffffffffffffffff1681526020015f820160149054906101000a900460ff16600281111561091f5761091e611b38565b5b600281111561093157610930611b38565b5b81526020016001820154815260200160028201805461094f9061248f565b80601f016020809104026020016040519081016040528092919081815260200182805461097b9061248f565b80156109c65780601f1061099d576101008083540402835291602001916109c6565b820191905f5260205f20905b8154815290600101906020018083116109a957829003601f168201915b505050505081526020016003820180546109df9061248f565b80601f0160208091040260200160405190810160405280929190818152602001828054610a0b9061248f565b8015610a565780601f10610a2d57610100808354040283529160200191610a56565b820191905f5260205f20905b815481529060010190602001808311610a3957829003601f168201915b50505050508152602001600482018054610a6f9061248f565b80601f0160208091040260200160405190810160405280929190818152602001828054610a9b9061248f565b8015610ae65780601f10610abd57610100808354040283529160200191610ae6565b820191905f5260205f20905b815481529060010190602001808311610ac957829003601f168201915b5050505050815260200160058201805480602002602001604051908101604052809291908181526020018280548015610b3c57602002820191905f5260205f20905b815481526020019060010190808311610b28575b50505050508152505090505f73ffffffffffffffffffffffffffffffffffffffff16815f015173ffffffffffffffffffffffffffffffffffffffff1603610bb8576040517f08c379a0000000000000000000000000000000000000000000000000000000008152600401610baf9061286b565b60405180910390fd5b8273ffffffffffffffffffffffffffffffffffffffff16815f015173ffffffffffffffffffffffffffffffffffffffff1614915050919050565b6060806060806060805f805f8973ffffffffffffffffffffffffffffffffffffffff1673ffffffffffffffffffffffffffffffffffffffff1681526020019081526020015f20600501805480602002602001604051908101604052809291908181526020018280548015610c8357602002820191905f5260205f20905b815481526020019060010190808311610c6f575b50505050509050805167ffffffffffffffff811115610ca557610ca4611d17565b5b604051908082528060200260200182016040528015610cd35781602001602082028036833780820191505090505b509650805167ffffffffffffffff811115610cf157610cf0611d17565b5b604051908082528060200260200182016040528015610d2457816020015b6060815260200190600190039081610d0f5790505b509550805167ffffffffffffffff811115610d4257610d41611d17565b5b604051908082528060200260200182016040528015610d7557816020015b6060815260200190600190039081610d605790505b509450805167ffffffffffffffff811115610d9357610d92611d17565b5b604051908082528060200260200182016040528015610dc15781602001602082028036833780820191505090505b509350805167ffffffffffffffff811115610ddf57610dde611d17565b5b604051908082528060200260200182016040528015610e0d5781602001602082028036833780820191505090505b509250805167ffffffffffffffff811115610e2b57610e2a611d17565b5b604051908082528060200260200182016040528015610e595781602001602082028036833780820191505090505b5091505f5b815181101561102e575f805f805f8060025f9054906101000a900473ffffffffffffffffffffffffffffffffffffffff1673ffffffffffffffffffffffffffffffffffffffff1663d993de62898981518110610ebd57610ebc612889565b5b60200260200101516040518263ffffffff1660e01b8152600401610ee191906128b6565b5f60405180830381865afa158015610efb573d5f803e3d5ffd5b505050506040513d5f823e3d601f19601f82011682018060405250810190610f239190612965565b955095509550955095509550858e8881518110610f4357610f42612889565b5b602002602001019073ffffffffffffffffffffffffffffffffffffffff16908173ffffffffffffffffffffffffffffffffffffffff1681525050848d8881518110610f9157610f90612889565b5b6020026020010181905250838c8881518110610fb057610faf612889565b5b6020026020010181905250828b8881518110610fcf57610fce612889565b5b602002602001018181525050818a8881518110610fef57610fee612889565b5b6020026020010181815250508089888151811061100f5761100e612889565b5b6020026020010181815250505050505050508080600101915050610e5e565b505091939550919395565b5f73ffffffffffffffffffffffffffffffffffffffff165f803373ffffffffffffffffffffffffffffffffffffffff1673ffffffffffffffffffffffffffffffffffffffff1681526020019081526020015f205f015f9054906101000a900473ffffffffffffffffffffffffffffffffffffffff1673ffffffffffffffffffffffffffffffffffffffff1614611104576040517f08c379a00000000000000000000000000000000000000000000000000000000081526004016110fb90612a70565b60405180910390fd5b60606040518060e001604052803373ffffffffffffffffffffffffffffffffffffffff1681526020018660028111156111405761113f611b38565b5b8152602001428152602001858152602001848152602001838152602001828152505f803373ffffffffffffffffffffffffffffffffffffffff1673ffffffffffffffffffffffffffffffffffffffff1681526020019081526020015f205f820151815f015f6101000a81548173ffffffffffffffffffffffffffffffffffffffff021916908373ffffffffffffffffffffffffffffffffffffffff1602179055506020820151815f0160146101000a81548160ff0219169083600281111561120b5761120a611b38565b5b021790555060408201518160010155606082015181600201908161122f9190612752565b5060808201518160030190816112459190612752565b5060a082015181600401908161125b9190612752565b5060c08201518160050190805190602001906112789291906119cb565b509050505050505050565b60015f9054906101000a900473ffffffffffffffffffffffffffffffffffffffff1681565b5f60015f9054906101000a900473ffffffffffffffffffffffffffffffffffffffff16905090565b5f60015f9054906101000a900473ffffffffffffffffffffffffffffffffffffffff1673ffffffffffffffffffffffffffffffffffffffff163373ffffffffffffffffffffffffffffffffffffffff1614611360576040517f08c379a00000000000000000000000000000000000000000000000000000000081526004016113579061252f565b60405180910390fd5b5f805f8473ffffffffffffffffffffffffffffffffffffffff1673ffffffffffffffffffffffffffffffffffffffff1681526020019081526020015f206040518060e00160405290815f82015f9054906101000a900473ffffffffffffffffffffffffffffffffffffffff1673ffffffffffffffffffffffffffffffffffffffff1673ffffffffffffffffffffffffffffffffffffffff1681526020015f820160149054906101000a900460ff1660028111156114205761141f611b38565b5b600281111561143257611431611b38565b5b8152602001600182015481526020016002820180546114509061248f565b80601f016020809104026020016040519081016040528092919081815260200182805461147c9061248f565b80156114c75780601f1061149e576101008083540402835291602001916114c7565b820191905f5260205f20905b8154815290600101906020018083116114aa57829003601f168201915b505050505081526020016003820180546114e09061248f565b80601f016020809104026020016040519081016040528092919081815260200182805461150c9061248f565b80156115575780601f1061152e57610100808354040283529160200191611557565b820191905f5260205f20905b81548152906001019060200180831161153a57829003601f168201915b505050505081526020016004820180546115709061248f565b80601f016020809104026020016040519081016040528092919081815260200182805461159c9061248f565b80156115e75780601f106115be576101008083540402835291602001916115e7565b820191905f5260205f20905b8154815290600101906020018083116115ca57829003601f168201915b505050505081526020016005820180548060200260200160405190810160405280929190818152602001828054801561163d57602002820191905f5260205f20905b815481526020019060010190808311611629575b50505050508152505090505f73ffffffffffffffffffffffffffffffffffffffff16815f015173ffffffffffffffffffffffffffffffffffffffff161415915050919050565b61168b611a16565b5f808373ffffffffffffffffffffffffffffffffffffffff1673ffffffffffffffffffffffffffffffffffffffff1681526020019081526020015f206040518060e00160405290815f82015f9054906101000a900473ffffffffffffffffffffffffffffffffffffffff1673ffffffffffffffffffffffffffffffffffffffff1673ffffffffffffffffffffffffffffffffffffffff1681526020015f820160149054906101000a900460ff16600281111561174a57611749611b38565b5b600281111561175c5761175b611b38565b5b81526020016001820154815260200160028201805461177a9061248f565b80601f01602080910402602001604051908101604052809291908181526020018280546117a69061248f565b80156117f15780601f106117c8576101008083540402835291602001916117f1565b820191905f5260205f20905b8154815290600101906020018083116117d457829003601f168201915b5050505050815260200160038201805461180a9061248f565b80601f01602080910402602001604051908101604052809291908181526020018280546118369061248f565b80156118815780601f1061185857610100808354040283529160200191611881565b820191905f5260205f20905b81548152906001019060200180831161186457829003601f168201915b5050505050815260200160048201805461189a9061248f565b80601f01602080910402602001604051908101604052809291908181526020018280546118c69061248f565b80156119115780601f106118e857610100808354040283529160200191611911565b820191905f5260205f20905b8154815290600101906020018083116118f457829003601f168201915b505050505081526020016005820180548060200260200160405190810160405280929190818152602001828054801561196757602002820191905f5260205f20905b815481526020019060010190808311611953575b5050505050815250509050919050565b5f805f8373ffffffffffffffffffffffffffffffffffffffff1673ffffffffffffffffffffffffffffffffffffffff1681526020019081526020015f205f0160149054906101000a900460ff169050919050565b828054828255905f5260205f20908101928215611a05579160200282015b82811115611a045782518255916020019190600101906119e9565b5b509050611a129190611a78565b5090565b6040518060e001604052805f73ffffffffffffffffffffffffffffffffffffffff1681526020015f6002811115611a5057611a4f611b38565b5b81526020015f8152602001606081526020016060815260200160608152602001606081525090565b5b80821115611a8f575f815f905550600101611a79565b5090565b5f604051905090565b5f80fd5b5f80fd5b5f73ffffffffffffffffffffffffffffffffffffffff82169050919050565b5f611acd82611aa4565b9050919050565b611add81611ac3565b8114611ae7575f80fd5b50565b5f81359050611af881611ad4565b92915050565b5f60208284031215611b1357611b12611a9c565b5b5f611b2084828501611aea565b91505092915050565b611b3281611ac3565b82525050565b7f4e487b71000000000000000000000000000000000000000000000000000000005f52602160045260245ffd5b60038110611b7657611b75611b38565b5b50565b5f819050611b8682611b65565b919050565b5f611b9582611b79565b9050919050565b611ba581611b8b565b82525050565b5f819050919050565b611bbd81611bab565b82525050565b5f81519050919050565b5f82825260208201905092915050565b8281835e5f83830152505050565b5f601f19601f8301169050919050565b5f611c0582611bc3565b611c0f8185611bcd565b9350611c1f818560208601611bdd565b611c2881611beb565b840191505092915050565b5f60c082019050611c465f830189611b29565b611c536020830188611b9c565b611c606040830187611bb4565b8181036060830152611c728186611bfb565b90508181036080830152611c868185611bfb565b905081810360a0830152611c9a8184611bfb565b9050979650505050505050565b611cb081611bab565b8114611cba575f80fd5b50565b5f81359050611ccb81611ca7565b92915050565b5f8060408385031215611ce757611ce6611a9c565b5b5f611cf485828601611aea565b9250506020611d0585828601611cbd565b9150509250929050565b5f80fd5b5f80fd5b7f4e487b71000000000000000000000000000000000000000000000000000000005f52604160045260245ffd5b611d4d82611beb565b810181811067ffffffffffffffff82111715611d6c57611d6b611d17565b5b80604052505050565b5f611d7e611a93565b9050611d8a8282611d44565b919050565b5f67ffffffffffffffff821115611da957611da8611d17565b5b611db282611beb565b9050602081019050919050565b828183375f83830152505050565b5f611ddf611dda84611d8f565b611d75565b905082815260208101848484011115611dfb57611dfa611d13565b5b611e06848285611dbf565b509392505050565b5f82601f830112611e2257611e21611d0f565b5b8135611e32848260208601611dcd565b91505092915050565b5f805f60608486031215611e5257611e51611a9c565b5b5f84013567ffffffffffffffff811115611e6f57611e6e611aa0565b5b611e7b86828701611e0e565b935050602084013567ffffffffffffffff811115611e9c57611e9b611aa0565b5b611ea886828701611e0e565b925050604084013567ffffffffffffffff811115611ec957611ec8611aa0565b5b611ed586828701611e0e565b9150509250925092565b5f8115159050919050565b611ef381611edf565b82525050565b5f602082019050611f0c5f830184611eea565b92915050565b5f81519050919050565b5f82825260208201905092915050565b5f819050602082019050919050565b611f4481611ac3565b82525050565b5f611f558383611f3b565b60208301905092915050565b5f602082019050919050565b5f611f7782611f12565b611f818185611f1c565b9350611f8c83611f2c565b805f5b83811015611fbc578151611fa38882611f4a565b9750611fae83611f61565b925050600181019050611f8f565b5085935050505092915050565b5f81519050919050565b5f82825260208201905092915050565b5f819050602082019050919050565b5f82825260208201905092915050565b5f61200c82611bc3565b6120168185611ff2565b9350612026818560208601611bdd565b61202f81611beb565b840191505092915050565b5f6120458383612002565b905092915050565b5f602082019050919050565b5f61206382611fc9565b61206d8185611fd3565b93508360208202850161207f85611fe3565b805f5b858110156120ba578484038952815161209b858261203a565b94506120a68361204d565b925060208a01995050600181019050612082565b50829750879550505050505092915050565b5f81519050919050565b5f82825260208201905092915050565b5f819050602082019050919050565b6120fe81611bab565b82525050565b5f61210f83836120f5565b60208301905092915050565b5f602082019050919050565b5f612131826120cc565b61213b81856120d6565b9350612146836120e6565b805f5b8381101561217657815161215d8882612104565b97506121688361211b565b925050600181019050612149565b5085935050505092915050565b5f60c0820190508181035f83015261219b8189611f6d565b905081810360208301526121af8188612059565b905081810360408301526121c38187612059565b905081810360608301526121d78186612127565b905081810360808301526121eb8185612127565b905081810360a08301526121ff8184612127565b9050979650505050505050565b60038110612218575f80fd5b50565b5f813590506122298161220c565b92915050565b5f805f806080858703121561224757612246611a9c565b5b5f6122548782880161221b565b945050602085013567ffffffffffffffff81111561227557612274611aa0565b5b61228187828801611e0e565b935050604085013567ffffffffffffffff8111156122a2576122a1611aa0565b5b6122ae87828801611e0e565b925050606085013567ffffffffffffffff8111156122cf576122ce611aa0565b5b6122db87828801611e0e565b91505092959194509250565b5f6020820190506122fa5f830184611b29565b92915050565b61230981611b8b565b82525050565b5f82825260208201905092915050565b5f612329826120cc565b612333818561230f565b935061233e836120e6565b805f5b8381101561236e5781516123558882612104565b97506123608361211b565b925050600181019050612341565b5085935050505092915050565b5f60e083015f8301516123905f860182611f3b565b5060208301516123a36020860182612300565b5060408301516123b660408601826120f5565b50606083015184820360608601526123ce8282612002565b915050608083015184820360808601526123e88282612002565b91505060a083015184820360a08601526124028282612002565b91505060c083015184820360c086015261241c828261231f565b9150508091505092915050565b5f6020820190508181035f830152612441818461237b565b905092915050565b5f60208201905061245c5f830184611b9c565b92915050565b7f4e487b71000000000000000000000000000000000000000000000000000000005f52602260045260245ffd5b5f60028204905060018216806124a657607f821691505b6020821081036124b9576124b8612462565b5b50919050565b7f4f6e6c7920446f6e6174696f6e7320636f6e74726163742063616e2063616c6c5f8201527f20746869732066756e6374696f6e2e0000000000000000000000000000000000602082015250565b5f612519602f83611bcd565b9150612524826124bf565b604082019050919050565b5f6020820190508181035f8301526125468161250d565b9050919050565b7f4f776e65722070726f66696c6520646f6573206e6f742065786973742e0000005f82015250565b5f612581601d83611bcd565b915061258c8261254d565b602082019050919050565b5f6020820190508181035f8301526125ae81612575565b9050919050565b5f819050815f5260205f209050919050565b5f6020601f8301049050919050565b5f82821b905092915050565b5f600883026126117fffffffffffffffffffffffffffffffffffffffffffffffffffffffffffffffff826125d6565b61261b86836125d6565b95508019841693508086168417925050509392505050565b5f819050919050565b5f61265661265161264c84611bab565b612633565b611bab565b9050919050565b5f819050919050565b61266f8361263c565b61268361267b8261265d565b8484546125e2565b825550505050565b5f90565b61269761268b565b6126a2818484612666565b505050565b5b818110156126c5576126ba5f8261268f565b6001810190506126a8565b5050565b601f82111561270a576126db816125b5565b6126e4846125c7565b810160208510156126f3578190505b6127076126ff856125c7565b8301826126a7565b50505b505050565b5f82821c905092915050565b5f61272a5f198460080261270f565b1980831691505092915050565b5f612742838361271b565b9150826002028217905092915050565b61275b82611bc3565b67ffffffffffffffff81111561277457612773611d17565b5b61277e825461248f565b6127898282856126c9565b5f60209050601f8311600181146127ba575f84156127a8578287015190505b6127b28582612737565b865550612819565b601f1984166127c8866125b5565b5f5b828110156127ef578489015182556001820191506020850194506020810190506127ca565b8683101561280c5784890151612808601f89168261271b565b8355505b6001600288020188555050505b505050505050565b7f50726f66696c6520646f6573206e6f74206578697374000000000000000000005f82015250565b5f612855601683611bcd565b915061286082612821565b602082019050919050565b5f6020820190508181035f83015261288281612849565b9050919050565b7f4e487b71000000000000000000000000000000000000000000000000000000005f52603260045260245ffd5b5f6020820190506128c95f830184611bb4565b92915050565b5f815190506128dd81611ad4565b92915050565b5f6128f56128f084611d8f565b611d75565b90508281526020810184848401111561291157612910611d13565b5b61291c848285611bdd565b509392505050565b5f82601f83011261293857612937611d0f565b5b81516129488482602086016128e3565b91505092915050565b5f8151905061295f81611ca7565b92915050565b5f805f805f8060c0878903121561297f5761297e611a9c565b5b5f61298c89828a016128cf565b965050602087015167ffffffffffffffff8111156129ad576129ac611aa0565b5b6129b989828a01612924565b955050604087015167ffffffffffffffff8111156129da576129d9611aa0565b5b6129e689828a01612924565b94505060606129f789828a01612951565b9350506080612a0889828a01612951565b92505060a0612a1989828a01612951565b9150509295509295509295565b7f4f776e65722070726f66696c6520616c7265616479206578697374732e0000005f82015250565b5f612a5a601d83611bcd565b9150612a6582612a26565b602082019050919050565b5f6020820190508181035f830152612a8781612a4e565b905091905056fea264697066735822122075505c1db8a335bd66609cbc43bc1f21cd176eb6aa8bedc859fc767ea7ef500464736f6c634300081a0033",
					"opcodes": "PUSH1 0x80 PUSH1 0x40 MSTORE CALLVALUE DUP1 ISZERO PUSH1 0xE JUMPI PUSH0 DUP1 REVERT JUMPDEST POP PUSH2 0x2AC4 DUP1 PUSH2 0x1C PUSH0 CODECOPY PUSH0 RETURN INVALID PUSH1 0x80 PUSH1 0x40 MSTORE CALLVALUE DUP1 ISZERO PUSH2 0xF JUMPI PUSH0 DUP1 REVERT JUMPDEST POP PUSH1 0x4 CALLDATASIZE LT PUSH2 0xB2 JUMPI PUSH0 CALLDATALOAD PUSH1 0xE0 SHR DUP1 PUSH4 0x1AFD3E8D GT PUSH2 0x6F JUMPI DUP1 PUSH4 0x1AFD3E8D EQ PUSH2 0x1A4 JUMPI DUP1 PUSH4 0x35F85C5A EQ PUSH2 0x1C0 JUMPI DUP1 PUSH4 0x54C03AB7 EQ PUSH2 0x1DE JUMPI DUP1 PUSH4 0xABAF78D4 EQ PUSH2 0x1FC JUMPI DUP1 PUSH4 0xC3BB8121 EQ PUSH2 0x22C JUMPI DUP1 PUSH4 0xF5110205 EQ PUSH2 0x25C JUMPI PUSH2 0xB2 JUMP JUMPDEST DUP1 PUSH4 0x22914A7 EQ PUSH2 0xB6 JUMPI DUP1 PUSH4 0x3D7A671 EQ PUSH2 0xEB JUMPI DUP1 PUSH4 0x9261A9E EQ PUSH2 0x107 JUMPI DUP1 PUSH4 0xEB8D0E8 EQ PUSH2 0x123 JUMPI DUP1 PUSH4 0x13C876A2 EQ PUSH2 0x13F JUMPI DUP1 PUSH4 0x1693BFA1 EQ PUSH2 0x16F JUMPI JUMPDEST PUSH0 DUP1 REVERT JUMPDEST PUSH2 0xD0 PUSH1 0x4 DUP1 CALLDATASIZE SUB DUP2 ADD SWAP1 PUSH2 0xCB SWAP2 SWAP1 PUSH2 0x1AFE JUMP JUMPDEST PUSH2 0x28C JUMP JUMPDEST PUSH1 0x40 MLOAD PUSH2 0xE2 SWAP7 SWAP6 SWAP5 SWAP4 SWAP3 SWAP2 SWAP1 PUSH2 0x1C33 JUMP JUMPDEST PUSH1 0x40 MLOAD DUP1 SWAP2 SUB SWAP1 RETURN JUMPDEST PUSH2 0x105 PUSH1 0x4 DUP1 CALLDATASIZE SUB DUP2 ADD SWAP1 PUSH2 0x100 SWAP2 SWAP1 PUSH2 0x1CD1 JUMP JUMPDEST PUSH2 0x480 JUMP JUMPDEST STOP JUMPDEST PUSH2 0x121 PUSH1 0x4 DUP1 CALLDATASIZE SUB DUP2 ADD SWAP1 PUSH2 0x11C SWAP2 SWAP1 PUSH2 0x1E3B JUMP JUMPDEST PUSH2 0x641 JUMP JUMPDEST STOP JUMPDEST PUSH2 0x13D PUSH1 0x4 DUP1 CALLDATASIZE SUB DUP2 ADD SWAP1 PUSH2 0x138 SWAP2 SWAP1 PUSH2 0x1AFE JUMP JUMPDEST PUSH2 0x74C JUMP JUMPDEST STOP JUMPDEST PUSH2 0x159 PUSH1 0x4 DUP1 CALLDATASIZE SUB DUP2 ADD SWAP1 PUSH2 0x154 SWAP2 SWAP1 PUSH2 0x1AFE JUMP JUMPDEST PUSH2 0x7CF JUMP JUMPDEST PUSH1 0x40 MLOAD PUSH2 0x166 SWAP2 SWAP1 PUSH2 0x1EF9 JUMP JUMPDEST PUSH1 0x40 MLOAD DUP1 SWAP2 SUB SWAP1 RETURN JUMPDEST PUSH2 0x189 PUSH1 0x4 DUP1 CALLDATASIZE SUB DUP2 ADD SWAP1 PUSH2 0x184 SWAP2 SWAP1 PUSH2 0x1AFE JUMP JUMPDEST PUSH2 0xBF2 JUMP JUMPDEST PUSH1 0x40 MLOAD PUSH2 0x19B SWAP7 SWAP6 SWAP5 SWAP4 SWAP3 SWAP2 SWAP1 PUSH2 0x2183 JUMP JUMPDEST PUSH1 0x40 MLOAD DUP1 SWAP2 SUB SWAP1 RETURN JUMPDEST PUSH2 0x1BE PUSH1 0x4 DUP1 CALLDATASIZE SUB DUP2 ADD SWAP1 PUSH2 0x1B9 SWAP2 SWAP1 PUSH2 0x222F JUMP JUMPDEST PUSH2 0x1039 JUMP JUMPDEST STOP JUMPDEST PUSH2 0x1C8 PUSH2 0x1283 JUMP JUMPDEST PUSH1 0x40 MLOAD PUSH2 0x1D5 SWAP2 SWAP1 PUSH2 0x22E7 JUMP JUMPDEST PUSH1 0x40 MLOAD DUP1 SWAP2 SUB SWAP1 RETURN JUMPDEST PUSH2 0x1E6 PUSH2 0x12A8 JUMP JUMPDEST PUSH1 0x40 MLOAD PUSH2 0x1F3 SWAP2 SWAP1 PUSH2 0x22E7 JUMP JUMPDEST PUSH1 0x40 MLOAD DUP1 SWAP2 SUB SWAP1 RETURN JUMPDEST PUSH2 0x216 PUSH1 0x4 DUP1 CALLDATASIZE SUB DUP2 ADD SWAP1 PUSH2 0x211 SWAP2 SWAP1 PUSH2 0x1AFE JUMP JUMPDEST PUSH2 0x12D0 JUMP JUMPDEST PUSH1 0x40 MLOAD PUSH2 0x223 SWAP2 SWAP1 PUSH2 0x1EF9 JUMP JUMPDEST PUSH1 0x40 MLOAD DUP1 SWAP2 SUB SWAP1 RETURN JUMPDEST PUSH2 0x246 PUSH1 0x4 DUP1 CALLDATASIZE SUB DUP2 ADD SWAP1 PUSH2 0x241 SWAP2 SWAP1 PUSH2 0x1AFE JUMP JUMPDEST PUSH2 0x1683 JUMP JUMPDEST PUSH1 0x40 MLOAD PUSH2 0x253 SWAP2 SWAP1 PUSH2 0x2429 JUMP JUMPDEST PUSH1 0x40 MLOAD DUP1 SWAP2 SUB SWAP1 RETURN JUMPDEST PUSH2 0x276 PUSH1 0x4 DUP1 CALLDATASIZE SUB DUP2 ADD SWAP1 PUSH2 0x271 SWAP2 SWAP1 PUSH2 0x1AFE JUMP JUMPDEST PUSH2 0x1977 JUMP JUMPDEST PUSH1 0x40 MLOAD PUSH2 0x283 SWAP2 SWAP1 PUSH2 0x2449 JUMP JUMPDEST PUSH1 0x40 MLOAD DUP1 SWAP2 SUB SWAP1 RETURN JUMPDEST PUSH0 PUSH1 0x20 MSTORE DUP1 PUSH0 MSTORE PUSH1 0x40 PUSH0 KECCAK256 PUSH0 SWAP2 POP SWAP1 POP DUP1 PUSH0 ADD PUSH0 SWAP1 SLOAD SWAP1 PUSH2 0x100 EXP SWAP1 DIV PUSH20 0xFFFFFFFFFFFFFFFFFFFFFFFFFFFFFFFFFFFFFFFF AND SWAP1 DUP1 PUSH0 ADD PUSH1 0x14 SWAP1 SLOAD SWAP1 PUSH2 0x100 EXP SWAP1 DIV PUSH1 0xFF AND SWAP1 DUP1 PUSH1 0x1 ADD SLOAD SWAP1 DUP1 PUSH1 0x2 ADD DUP1 SLOAD PUSH2 0x2E7 SWAP1 PUSH2 0x248F JUMP JUMPDEST DUP1 PUSH1 0x1F ADD PUSH1 0x20 DUP1 SWAP2 DIV MUL PUSH1 0x20 ADD PUSH1 0x40 MLOAD SWAP1 DUP2 ADD PUSH1 0x40 MSTORE DUP1 SWAP3 SWAP2 SWAP1 DUP2 DUP2 MSTORE PUSH1 0x20 ADD DUP3 DUP1 SLOAD PUSH2 0x313 SWAP1 PUSH2 0x248F JUMP JUMPDEST DUP1 ISZERO PUSH2 0x35E JUMPI DUP1 PUSH1 0x1F LT PUSH2 0x335 JUMPI PUSH2 0x100 DUP1 DUP4 SLOAD DIV MUL DUP4 MSTORE SWAP2 PUSH1 0x20 ADD SWAP2 PUSH2 0x35E JUMP JUMPDEST DUP3 ADD SWAP2 SWAP1 PUSH0 MSTORE PUSH1 0x20 PUSH0 KECCAK256 SWAP1 JUMPDEST DUP2 SLOAD DUP2 MSTORE SWAP1 PUSH1 0x1 ADD SWAP1 PUSH1 0x20 ADD DUP1 DUP4 GT PUSH2 0x341 JUMPI DUP3 SWAP1 SUB PUSH1 0x1F AND DUP3 ADD SWAP2 JUMPDEST POP POP POP POP POP SWAP1 DUP1 PUSH1 0x3 ADD DUP1 SLOAD PUSH2 0x373 SWAP1 PUSH2 0x248F JUMP JUMPDEST DUP1 PUSH1 0x1F ADD PUSH1 0x20 DUP1 SWAP2 DIV MUL PUSH1 0x20 ADD PUSH1 0x40 MLOAD SWAP1 DUP2 ADD PUSH1 0x40 MSTORE DUP1 SWAP3 SWAP2 SWAP1 DUP2 DUP2 MSTORE PUSH1 0x20 ADD DUP3 DUP1 SLOAD PUSH2 0x39F SWAP1 PUSH2 0x248F JUMP JUMPDEST DUP1 ISZERO PUSH2 0x3EA JUMPI DUP1 PUSH1 0x1F LT PUSH2 0x3C1 JUMPI PUSH2 0x100 DUP1 DUP4 SLOAD DIV MUL DUP4 MSTORE SWAP2 PUSH1 0x20 ADD SWAP2 PUSH2 0x3EA JUMP JUMPDEST DUP3 ADD SWAP2 SWAP1 PUSH0 MSTORE PUSH1 0x20 PUSH0 KECCAK256 SWAP1 JUMPDEST DUP2 SLOAD DUP2 MSTORE SWAP1 PUSH1 0x1 ADD SWAP1 PUSH1 0x20 ADD DUP1 DUP4 GT PUSH2 0x3CD JUMPI DUP3 SWAP1 SUB PUSH1 0x1F AND DUP3 ADD SWAP2 JUMPDEST POP POP POP POP POP SWAP1 DUP1 PUSH1 0x4 ADD DUP1 SLOAD PUSH2 0x3FF SWAP1 PUSH2 0x248F JUMP JUMPDEST DUP1 PUSH1 0x1F ADD PUSH1 0x20 DUP1 SWAP2 DIV MUL PUSH1 0x20 ADD PUSH1 0x40 MLOAD SWAP1 DUP2 ADD PUSH1 0x40 MSTORE DUP1 SWAP3 SWAP2 SWAP1 DUP2 DUP2 MSTORE PUSH1 0x20 ADD DUP3 DUP1 SLOAD PUSH2 0x42B SWAP1 PUSH2 0x248F JUMP JUMPDEST DUP1 ISZERO PUSH2 0x476 JUMPI DUP1 PUSH1 0x1F LT PUSH2 0x44D JUMPI PUSH2 0x100 DUP1 DUP4 SLOAD DIV MUL DUP4 MSTORE SWAP2 PUSH1 0x20 ADD SWAP2 PUSH2 0x476 JUMP JUMPDEST DUP3 ADD SWAP2 SWAP1 PUSH0 MSTORE PUSH1 0x20 PUSH0 KECCAK256 SWAP1 JUMPDEST DUP2 SLOAD DUP2 MSTORE SWAP1 PUSH1 0x1 ADD SWAP1 PUSH1 0x20 ADD DUP1 DUP4 GT PUSH2 0x459 JUMPI DUP3 SWAP1 SUB PUSH1 0x1F AND DUP3 ADD SWAP2 JUMPDEST POP POP POP POP POP SWAP1 POP DUP7 JUMP JUMPDEST PUSH1 0x1 PUSH0 SWAP1 SLOAD SWAP1 PUSH2 0x100 EXP SWAP1 DIV PUSH20 0xFFFFFFFFFFFFFFFFFFFFFFFFFFFFFFFFFFFFFFFF AND PUSH20 0xFFFFFFFFFFFFFFFFFFFFFFFFFFFFFFFFFFFFFFFF AND CALLER PUSH20 0xFFFFFFFFFFFFFFFFFFFFFFFFFFFFFFFFFFFFFFFF AND EQ PUSH2 0x50F JUMPI PUSH1 0x40 MLOAD PUSH32 0x8C379A000000000000000000000000000000000000000000000000000000000 DUP2 MSTORE PUSH1 0x4 ADD PUSH2 0x506 SWAP1 PUSH2 0x252F JUMP JUMPDEST PUSH1 0x40 MLOAD DUP1 SWAP2 SUB SWAP1 REVERT JUMPDEST PUSH0 PUSH20 0xFFFFFFFFFFFFFFFFFFFFFFFFFFFFFFFFFFFFFFFF AND PUSH0 DUP1 DUP5 PUSH20 0xFFFFFFFFFFFFFFFFFFFFFFFFFFFFFFFFFFFFFFFF AND PUSH20 0xFFFFFFFFFFFFFFFFFFFFFFFFFFFFFFFFFFFFFFFF AND DUP2 MSTORE PUSH1 0x20 ADD SWAP1 DUP2 MSTORE PUSH1 0x20 ADD PUSH0 KECCAK256 PUSH0 ADD PUSH0 SWAP1 SLOAD SWAP1 PUSH2 0x100 EXP SWAP1 DIV PUSH20 0xFFFFFFFFFFFFFFFFFFFFFFFFFFFFFFFFFFFFFFFF AND PUSH20 0xFFFFFFFFFFFFFFFFFFFFFFFFFFFFFFFFFFFFFFFF AND SUB PUSH2 0x5DA JUMPI PUSH1 0x40 MLOAD PUSH32 0x8C379A000000000000000000000000000000000000000000000000000000000 DUP2 MSTORE PUSH1 0x4 ADD PUSH2 0x5D1 SWAP1 PUSH2 0x2597 JUMP JUMPDEST PUSH1 0x40 MLOAD DUP1 SWAP2 SUB SWAP1 REVERT JUMPDEST PUSH0 DUP1 DUP4 PUSH20 0xFFFFFFFFFFFFFFFFFFFFFFFFFFFFFFFFFFFFFFFF AND PUSH20 0xFFFFFFFFFFFFFFFFFFFFFFFFFFFFFFFFFFFFFFFF AND DUP2 MSTORE PUSH1 0x20 ADD SWAP1 DUP2 MSTORE PUSH1 0x20 ADD PUSH0 KECCAK256 PUSH1 0x5 ADD DUP2 SWAP1 DUP1 PUSH1 0x1 DUP2 SLOAD ADD DUP1 DUP3 SSTORE DUP1 SWAP2 POP POP PUSH1 0x1 SWAP1 SUB SWAP1 PUSH0 MSTORE PUSH1 0x20 PUSH0 KECCAK256 ADD PUSH0 SWAP1 SWAP2 SWAP1 SWAP2 SWAP1 SWAP2 POP SSTORE POP POP JUMP JUMPDEST PUSH0 DUP1 PUSH0 CALLER PUSH20 0xFFFFFFFFFFFFFFFFFFFFFFFFFFFFFFFFFFFFFFFF AND PUSH20 0xFFFFFFFFFFFFFFFFFFFFFFFFFFFFFFFFFFFFFFFF AND DUP2 MSTORE PUSH1 0x20 ADD SWAP1 DUP2 MSTORE PUSH1 0x20 ADD PUSH0 KECCAK256 SWAP1 POP PUSH0 PUSH20 0xFFFFFFFFFFFFFFFFFFFFFFFFFFFFFFFFFFFFFFFF AND DUP2 PUSH0 ADD PUSH0 SWAP1 SLOAD SWAP1 PUSH2 0x100 EXP SWAP1 DIV PUSH20 0xFFFFFFFFFFFFFFFFFFFFFFFFFFFFFFFFFFFFFFFF AND PUSH20 0xFFFFFFFFFFFFFFFFFFFFFFFFFFFFFFFFFFFFFFFF AND SUB PUSH2 0x710 JUMPI PUSH1 0x40 MLOAD PUSH32 0x8C379A000000000000000000000000000000000000000000000000000000000 DUP2 MSTORE PUSH1 0x4 ADD PUSH2 0x707 SWAP1 PUSH2 0x2597 JUMP JUMPDEST PUSH1 0x40 MLOAD DUP1 SWAP2 SUB SWAP1 REVERT JUMPDEST DUP4 DUP2 PUSH1 0x2 ADD SWAP1 DUP2 PUSH2 0x721 SWAP2 SWAP1 PUSH2 0x2752 JUMP JUMPDEST POP DUP3 DUP2 PUSH1 0x3 ADD SWAP1 DUP2 PUSH2 0x733 SWAP2 SWAP1 PUSH2 0x2752 JUMP JUMPDEST POP DUP2 DUP2 PUSH1 0x4 ADD SWAP1 DUP2 PUSH2 0x745 SWAP2 SWAP1 PUSH2 0x2752 JUMP JUMPDEST POP POP POP POP POP JUMP JUMPDEST DUP1 PUSH1 0x1 PUSH0 PUSH2 0x100 EXP DUP2 SLOAD DUP2 PUSH20 0xFFFFFFFFFFFFFFFFFFFFFFFFFFFFFFFFFFFFFFFF MUL NOT AND SWAP1 DUP4 PUSH20 0xFFFFFFFFFFFFFFFFFFFFFFFFFFFFFFFFFFFFFFFF AND MUL OR SWAP1 SSTORE POP DUP1 PUSH1 0x2 PUSH0 PUSH2 0x100 EXP DUP2 SLOAD DUP2 PUSH20 0xFFFFFFFFFFFFFFFFFFFFFFFFFFFFFFFFFFFFFFFF MUL NOT AND SWAP1 DUP4 PUSH20 0xFFFFFFFFFFFFFFFFFFFFFFFFFFFFFFFFFFFFFFFF AND MUL OR SWAP1 SSTORE POP POP JUMP JUMPDEST PUSH0 PUSH1 0x1 PUSH0 SWAP1 SLOAD SWAP1 PUSH2 0x100 EXP SWAP1 DIV PUSH20 0xFFFFFFFFFFFFFFFFFFFFFFFFFFFFFFFFFFFFFFFF AND PUSH20 0xFFFFFFFFFFFFFFFFFFFFFFFFFFFFFFFFFFFFFFFF AND CALLER PUSH20 0xFFFFFFFFFFFFFFFFFFFFFFFFFFFFFFFFFFFFFFFF AND EQ PUSH2 0x85F JUMPI PUSH1 0x40 MLOAD PUSH32 0x8C379A000000000000000000000000000000000000000000000000000000000 DUP2 MSTORE PUSH1 0x4 ADD PUSH2 0x856 SWAP1 PUSH2 0x252F JUMP JUMPDEST PUSH1 0x40 MLOAD DUP1 SWAP2 SUB SWAP1 REVERT JUMPDEST PUSH0 DUP1 PUSH0 DUP5 PUSH20 0xFFFFFFFFFFFFFFFFFFFFFFFFFFFFFFFFFFFFFFFF AND PUSH20 0xFFFFFFFFFFFFFFFFFFFFFFFFFFFFFFFFFFFFFFFF AND DUP2 MSTORE PUSH1 0x20 ADD SWAP1 DUP2 MSTORE PUSH1 0x20 ADD PUSH0 KECCAK256 PUSH1 0x40 MLOAD DUP1 PUSH1 0xE0 ADD PUSH1 0x40 MSTORE SWAP1 DUP2 PUSH0 DUP3 ADD PUSH0 SWAP1 SLOAD SWAP1 PUSH2 0x100 EXP SWAP1 DIV PUSH20 0xFFFFFFFFFFFFFFFFFFFFFFFFFFFFFFFFFFFFFFFF AND PUSH20 0xFFFFFFFFFFFFFFFFFFFFFFFFFFFFFFFFFFFFFFFF AND PUSH20 0xFFFFFFFFFFFFFFFFFFFFFFFFFFFFFFFFFFFFFFFF AND DUP2 MSTORE PUSH1 0x20 ADD PUSH0 DUP3 ADD PUSH1 0x14 SWAP1 SLOAD SWAP1 PUSH2 0x100 EXP SWAP1 DIV PUSH1 0xFF AND PUSH1 0x2 DUP2 GT ISZERO PUSH2 0x91F JUMPI PUSH2 0x91E PUSH2 0x1B38 JUMP JUMPDEST JUMPDEST PUSH1 0x2 DUP2 GT ISZERO PUSH2 0x931 JUMPI PUSH2 0x930 PUSH2 0x1B38 JUMP JUMPDEST JUMPDEST DUP2 MSTORE PUSH1 0x20 ADD PUSH1 0x1 DUP3 ADD SLOAD DUP2 MSTORE PUSH1 0x20 ADD PUSH1 0x2 DUP3 ADD DUP1 SLOAD PUSH2 0x94F SWAP1 PUSH2 0x248F JUMP JUMPDEST DUP1 PUSH1 0x1F ADD PUSH1 0x20 DUP1 SWAP2 DIV MUL PUSH1 0x20 ADD PUSH1 0x40 MLOAD SWAP1 DUP2 ADD PUSH1 0x40 MSTORE DUP1 SWAP3 SWAP2 SWAP1 DUP2 DUP2 MSTORE PUSH1 0x20 ADD DUP3 DUP1 SLOAD PUSH2 0x97B SWAP1 PUSH2 0x248F JUMP JUMPDEST DUP1 ISZERO PUSH2 0x9C6 JUMPI DUP1 PUSH1 0x1F LT PUSH2 0x99D JUMPI PUSH2 0x100 DUP1 DUP4 SLOAD DIV MUL DUP4 MSTORE SWAP2 PUSH1 0x20 ADD SWAP2 PUSH2 0x9C6 JUMP JUMPDEST DUP3 ADD SWAP2 SWAP1 PUSH0 MSTORE PUSH1 0x20 PUSH0 KECCAK256 SWAP1 JUMPDEST DUP2 SLOAD DUP2 MSTORE SWAP1 PUSH1 0x1 ADD SWAP1 PUSH1 0x20 ADD DUP1 DUP4 GT PUSH2 0x9A9 JUMPI DUP3 SWAP1 SUB PUSH1 0x1F AND DUP3 ADD SWAP2 JUMPDEST POP POP POP POP POP DUP2 MSTORE PUSH1 0x20 ADD PUSH1 0x3 DUP3 ADD DUP1 SLOAD PUSH2 0x9DF SWAP1 PUSH2 0x248F JUMP JUMPDEST DUP1 PUSH1 0x1F ADD PUSH1 0x20 DUP1 SWAP2 DIV MUL PUSH1 0x20 ADD PUSH1 0x40 MLOAD SWAP1 DUP2 ADD PUSH1 0x40 MSTORE DUP1 SWAP3 SWAP2 SWAP1 DUP2 DUP2 MSTORE PUSH1 0x20 ADD DUP3 DUP1 SLOAD PUSH2 0xA0B SWAP1 PUSH2 0x248F JUMP JUMPDEST DUP1 ISZERO PUSH2 0xA56 JUMPI DUP1 PUSH1 0x1F LT PUSH2 0xA2D JUMPI PUSH2 0x100 DUP1 DUP4 SLOAD DIV MUL DUP4 MSTORE SWAP2 PUSH1 0x20 ADD SWAP2 PUSH2 0xA56 JUMP JUMPDEST DUP3 ADD SWAP2 SWAP1 PUSH0 MSTORE PUSH1 0x20 PUSH0 KECCAK256 SWAP1 JUMPDEST DUP2 SLOAD DUP2 MSTORE SWAP1 PUSH1 0x1 ADD SWAP1 PUSH1 0x20 ADD DUP1 DUP4 GT PUSH2 0xA39 JUMPI DUP3 SWAP1 SUB PUSH1 0x1F AND DUP3 ADD SWAP2 JUMPDEST POP POP POP POP POP DUP2 MSTORE PUSH1 0x20 ADD PUSH1 0x4 DUP3 ADD DUP1 SLOAD PUSH2 0xA6F SWAP1 PUSH2 0x248F JUMP JUMPDEST DUP1 PUSH1 0x1F ADD PUSH1 0x20 DUP1 SWAP2 DIV MUL PUSH1 0x20 ADD PUSH1 0x40 MLOAD SWAP1 DUP2 ADD PUSH1 0x40 MSTORE DUP1 SWAP3 SWAP2 SWAP1 DUP2 DUP2 MSTORE PUSH1 0x20 ADD DUP3 DUP1 SLOAD PUSH2 0xA9B SWAP1 PUSH2 0x248F JUMP JUMPDEST DUP1 ISZERO PUSH2 0xAE6 JUMPI DUP1 PUSH1 0x1F LT PUSH2 0xABD JUMPI PUSH2 0x100 DUP1 DUP4 SLOAD DIV MUL DUP4 MSTORE SWAP2 PUSH1 0x20 ADD SWAP2 PUSH2 0xAE6 JUMP JUMPDEST DUP3 ADD SWAP2 SWAP1 PUSH0 MSTORE PUSH1 0x20 PUSH0 KECCAK256 SWAP1 JUMPDEST DUP2 SLOAD DUP2 MSTORE SWAP1 PUSH1 0x1 ADD SWAP1 PUSH1 0x20 ADD DUP1 DUP4 GT PUSH2 0xAC9 JUMPI DUP3 SWAP1 SUB PUSH1 0x1F AND DUP3 ADD SWAP2 JUMPDEST POP POP POP POP POP DUP2 MSTORE PUSH1 0x20 ADD PUSH1 0x5 DUP3 ADD DUP1 SLOAD DUP1 PUSH1 0x20 MUL PUSH1 0x20 ADD PUSH1 0x40 MLOAD SWAP1 DUP2 ADD PUSH1 0x40 MSTORE DUP1 SWAP3 SWAP2 SWAP1 DUP2 DUP2 MSTORE PUSH1 0x20 ADD DUP3 DUP1 SLOAD DUP1 ISZERO PUSH2 0xB3C JUMPI PUSH1 0x20 MUL DUP3 ADD SWAP2 SWAP1 PUSH0 MSTORE PUSH1 0x20 PUSH0 KECCAK256 SWAP1 JUMPDEST DUP2 SLOAD DUP2 MSTORE PUSH1 0x20 ADD SWAP1 PUSH1 0x1 ADD SWAP1 DUP1 DUP4 GT PUSH2 0xB28 JUMPI JUMPDEST POP POP POP POP POP DUP2 MSTORE POP POP SWAP1 POP PUSH0 PUSH20 0xFFFFFFFFFFFFFFFFFFFFFFFFFFFFFFFFFFFFFFFF AND DUP2 PUSH0 ADD MLOAD PUSH20 0xFFFFFFFFFFFFFFFFFFFFFFFFFFFFFFFFFFFFFFFF AND SUB PUSH2 0xBB8 JUMPI PUSH1 0x40 MLOAD PUSH32 0x8C379A000000000000000000000000000000000000000000000000000000000 DUP2 MSTORE PUSH1 0x4 ADD PUSH2 0xBAF SWAP1 PUSH2 0x286B JUMP JUMPDEST PUSH1 0x40 MLOAD DUP1 SWAP2 SUB SWAP1 REVERT JUMPDEST DUP3 PUSH20 0xFFFFFFFFFFFFFFFFFFFFFFFFFFFFFFFFFFFFFFFF AND DUP2 PUSH0 ADD MLOAD PUSH20 0xFFFFFFFFFFFFFFFFFFFFFFFFFFFFFFFFFFFFFFFF AND EQ SWAP2 POP POP SWAP2 SWAP1 POP JUMP JUMPDEST PUSH1 0x60 DUP1 PUSH1 0x60 DUP1 PUSH1 0x60 DUP1 PUSH0 DUP1 PUSH0 DUP10 PUSH20 0xFFFFFFFFFFFFFFFFFFFFFFFFFFFFFFFFFFFFFFFF AND PUSH20 0xFFFFFFFFFFFFFFFFFFFFFFFFFFFFFFFFFFFFFFFF AND DUP2 MSTORE PUSH1 0x20 ADD SWAP1 DUP2 MSTORE PUSH1 0x20 ADD PUSH0 KECCAK256 PUSH1 0x5 ADD DUP1 SLOAD DUP1 PUSH1 0x20 MUL PUSH1 0x20 ADD PUSH1 0x40 MLOAD SWAP1 DUP2 ADD PUSH1 0x40 MSTORE DUP1 SWAP3 SWAP2 SWAP1 DUP2 DUP2 MSTORE PUSH1 0x20 ADD DUP3 DUP1 SLOAD DUP1 ISZERO PUSH2 0xC83 JUMPI PUSH1 0x20 MUL DUP3 ADD SWAP2 SWAP1 PUSH0 MSTORE PUSH1 0x20 PUSH0 KECCAK256 SWAP1 JUMPDEST DUP2 SLOAD DUP2 MSTORE PUSH1 0x20 ADD SWAP1 PUSH1 0x1 ADD SWAP1 DUP1 DUP4 GT PUSH2 0xC6F JUMPI JUMPDEST POP POP POP POP POP SWAP1 POP DUP1 MLOAD PUSH8 0xFFFFFFFFFFFFFFFF DUP2 GT ISZERO PUSH2 0xCA5 JUMPI PUSH2 0xCA4 PUSH2 0x1D17 JUMP JUMPDEST JUMPDEST PUSH1 0x40 MLOAD SWAP1 DUP1 DUP3 MSTORE DUP1 PUSH1 0x20 MUL PUSH1 0x20 ADD DUP3 ADD PUSH1 0x40 MSTORE DUP1 ISZERO PUSH2 0xCD3 JUMPI DUP2 PUSH1 0x20 ADD PUSH1 0x20 DUP3 MUL DUP1 CALLDATASIZE DUP4 CALLDATACOPY DUP1 DUP3 ADD SWAP2 POP POP SWAP1 POP JUMPDEST POP SWAP7 POP DUP1 MLOAD PUSH8 0xFFFFFFFFFFFFFFFF DUP2 GT ISZERO PUSH2 0xCF1 JUMPI PUSH2 0xCF0 PUSH2 0x1D17 JUMP JUMPDEST JUMPDEST PUSH1 0x40 MLOAD SWAP1 DUP1 DUP3 MSTORE DUP1 PUSH1 0x20 MUL PUSH1 0x20 ADD DUP3 ADD PUSH1 0x40 MSTORE DUP1 ISZERO PUSH2 0xD24 JUMPI DUP2 PUSH1 0x20 ADD JUMPDEST PUSH1 0x60 DUP2 MSTORE PUSH1 0x20 ADD SWAP1 PUSH1 0x1 SWAP1 SUB SWAP1 DUP2 PUSH2 0xD0F JUMPI SWAP1 POP JUMPDEST POP SWAP6 POP DUP1 MLOAD PUSH8 0xFFFFFFFFFFFFFFFF DUP2 GT ISZERO PUSH2 0xD42 JUMPI PUSH2 0xD41 PUSH2 0x1D17 JUMP JUMPDEST JUMPDEST PUSH1 0x40 MLOAD SWAP1 DUP1 DUP3 MSTORE DUP1 PUSH1 0x20 MUL PUSH1 0x20 ADD DUP3 ADD PUSH1 0x40 MSTORE DUP1 ISZERO PUSH2 0xD75 JUMPI DUP2 PUSH1 0x20 ADD JUMPDEST PUSH1 0x60 DUP2 MSTORE PUSH1 0x20 ADD SWAP1 PUSH1 0x1 SWAP1 SUB SWAP1 DUP2 PUSH2 0xD60 JUMPI SWAP1 POP JUMPDEST POP SWAP5 POP DUP1 MLOAD PUSH8 0xFFFFFFFFFFFFFFFF DUP2 GT ISZERO PUSH2 0xD93 JUMPI PUSH2 0xD92 PUSH2 0x1D17 JUMP JUMPDEST JUMPDEST PUSH1 0x40 MLOAD SWAP1 DUP1 DUP3 MSTORE DUP1 PUSH1 0x20 MUL PUSH1 0x20 ADD DUP3 ADD PUSH1 0x40 MSTORE DUP1 ISZERO PUSH2 0xDC1 JUMPI DUP2 PUSH1 0x20 ADD PUSH1 0x20 DUP3 MUL DUP1 CALLDATASIZE DUP4 CALLDATACOPY DUP1 DUP3 ADD SWAP2 POP POP SWAP1 POP JUMPDEST POP SWAP4 POP DUP1 MLOAD PUSH8 0xFFFFFFFFFFFFFFFF DUP2 GT ISZERO PUSH2 0xDDF JUMPI PUSH2 0xDDE PUSH2 0x1D17 JUMP JUMPDEST JUMPDEST PUSH1 0x40 MLOAD SWAP1 DUP1 DUP3 MSTORE DUP1 PUSH1 0x20 MUL PUSH1 0x20 ADD DUP3 ADD PUSH1 0x40 MSTORE DUP1 ISZERO PUSH2 0xE0D JUMPI DUP2 PUSH1 0x20 ADD PUSH1 0x20 DUP3 MUL DUP1 CALLDATASIZE DUP4 CALLDATACOPY DUP1 DUP3 ADD SWAP2 POP POP SWAP1 POP JUMPDEST POP SWAP3 POP DUP1 MLOAD PUSH8 0xFFFFFFFFFFFFFFFF DUP2 GT ISZERO PUSH2 0xE2B JUMPI PUSH2 0xE2A PUSH2 0x1D17 JUMP JUMPDEST JUMPDEST PUSH1 0x40 MLOAD SWAP1 DUP1 DUP3 MSTORE DUP1 PUSH1 0x20 MUL PUSH1 0x20 ADD DUP3 ADD PUSH1 0x40 MSTORE DUP1 ISZERO PUSH2 0xE59 JUMPI DUP2 PUSH1 0x20 ADD PUSH1 0x20 DUP3 MUL DUP1 CALLDATASIZE DUP4 CALLDATACOPY DUP1 DUP3 ADD SWAP2 POP POP SWAP1 POP JUMPDEST POP SWAP2 POP PUSH0 JUMPDEST DUP2 MLOAD DUP2 LT ISZERO PUSH2 0x102E JUMPI PUSH0 DUP1 PUSH0 DUP1 PUSH0 DUP1 PUSH1 0x2 PUSH0 SWAP1 SLOAD SWAP1 PUSH2 0x100 EXP SWAP1 DIV PUSH20 0xFFFFFFFFFFFFFFFFFFFFFFFFFFFFFFFFFFFFFFFF AND PUSH20 0xFFFFFFFFFFFFFFFFFFFFFFFFFFFFFFFFFFFFFFFF AND PUSH4 0xD993DE62 DUP10 DUP10 DUP2 MLOAD DUP2 LT PUSH2 0xEBD JUMPI PUSH2 0xEBC PUSH2 0x2889 JUMP JUMPDEST JUMPDEST PUSH1 0x20 MUL PUSH1 0x20 ADD ADD MLOAD PUSH1 0x40 MLOAD DUP3 PUSH4 0xFFFFFFFF AND PUSH1 0xE0 SHL DUP2 MSTORE PUSH1 0x4 ADD PUSH2 0xEE1 SWAP2 SWAP1 PUSH2 0x28B6 JUMP JUMPDEST PUSH0 PUSH1 0x40 MLOAD DUP1 DUP4 SUB DUP2 DUP7 GAS STATICCALL ISZERO DUP1 ISZERO PUSH2 0xEFB JUMPI RETURNDATASIZE PUSH0 DUP1 RETURNDATACOPY RETURNDATASIZE PUSH0 REVERT JUMPDEST POP POP POP POP PUSH1 0x40 MLOAD RETURNDATASIZE PUSH0 DUP3 RETURNDATACOPY RETURNDATASIZE PUSH1 0x1F NOT PUSH1 0x1F DUP3 ADD AND DUP3 ADD DUP1 PUSH1 0x40 MSTORE POP DUP2 ADD SWAP1 PUSH2 0xF23 SWAP2 SWAP1 PUSH2 0x2965 JUMP JUMPDEST SWAP6 POP SWAP6 POP SWAP6 POP SWAP6 POP SWAP6 POP SWAP6 POP DUP6 DUP15 DUP9 DUP2 MLOAD DUP2 LT PUSH2 0xF43 JUMPI PUSH2 0xF42 PUSH2 0x2889 JUMP JUMPDEST JUMPDEST PUSH1 0x20 MUL PUSH1 0x20 ADD ADD SWAP1 PUSH20 0xFFFFFFFFFFFFFFFFFFFFFFFFFFFFFFFFFFFFFFFF AND SWAP1 DUP2 PUSH20 0xFFFFFFFFFFFFFFFFFFFFFFFFFFFFFFFFFFFFFFFF AND DUP2 MSTORE POP POP DUP5 DUP14 DUP9 DUP2 MLOAD DUP2 LT PUSH2 0xF91 JUMPI PUSH2 0xF90 PUSH2 0x2889 JUMP JUMPDEST JUMPDEST PUSH1 0x20 MUL PUSH1 0x20 ADD ADD DUP2 SWAP1 MSTORE POP DUP4 DUP13 DUP9 DUP2 MLOAD DUP2 LT PUSH2 0xFB0 JUMPI PUSH2 0xFAF PUSH2 0x2889 JUMP JUMPDEST JUMPDEST PUSH1 0x20 MUL PUSH1 0x20 ADD ADD DUP2 SWAP1 MSTORE POP DUP3 DUP12 DUP9 DUP2 MLOAD DUP2 LT PUSH2 0xFCF JUMPI PUSH2 0xFCE PUSH2 0x2889 JUMP JUMPDEST JUMPDEST PUSH1 0x20 MUL PUSH1 0x20 ADD ADD DUP2 DUP2 MSTORE POP POP DUP2 DUP11 DUP9 DUP2 MLOAD DUP2 LT PUSH2 0xFEF JUMPI PUSH2 0xFEE PUSH2 0x2889 JUMP JUMPDEST JUMPDEST PUSH1 0x20 MUL PUSH1 0x20 ADD ADD DUP2 DUP2 MSTORE POP POP DUP1 DUP10 DUP9 DUP2 MLOAD DUP2 LT PUSH2 0x100F JUMPI PUSH2 0x100E PUSH2 0x2889 JUMP JUMPDEST JUMPDEST PUSH1 0x20 MUL PUSH1 0x20 ADD ADD DUP2 DUP2 MSTORE POP POP POP POP POP POP POP POP DUP1 DUP1 PUSH1 0x1 ADD SWAP2 POP POP PUSH2 0xE5E JUMP JUMPDEST POP POP SWAP2 SWAP4 SWAP6 POP SWAP2 SWAP4 SWAP6 JUMP JUMPDEST PUSH0 PUSH20 0xFFFFFFFFFFFFFFFFFFFFFFFFFFFFFFFFFFFFFFFF AND PUSH0 DUP1 CALLER PUSH20 0xFFFFFFFFFFFFFFFFFFFFFFFFFFFFFFFFFFFFFFFF AND PUSH20 0xFFFFFFFFFFFFFFFFFFFFFFFFFFFFFFFFFFFFFFFF AND DUP2 MSTORE PUSH1 0x20 ADD SWAP1 DUP2 MSTORE PUSH1 0x20 ADD PUSH0 KECCAK256 PUSH0 ADD PUSH0 SWAP1 SLOAD SWAP1 PUSH2 0x100 EXP SWAP1 DIV PUSH20 0xFFFFFFFFFFFFFFFFFFFFFFFFFFFFFFFFFFFFFFFF AND PUSH20 0xFFFFFFFFFFFFFFFFFFFFFFFFFFFFFFFFFFFFFFFF AND EQ PUSH2 0x1104 JUMPI PUSH1 0x40 MLOAD PUSH32 0x8C379A000000000000000000000000000000000000000000000000000000000 DUP2 MSTORE PUSH1 0x4 ADD PUSH2 0x10FB SWAP1 PUSH2 0x2A70 JUMP JUMPDEST PUSH1 0x40 MLOAD DUP1 SWAP2 SUB SWAP1 REVERT JUMPDEST PUSH1 0x60 PUSH1 0x40 MLOAD DUP1 PUSH1 0xE0 ADD PUSH1 0x40 MSTORE DUP1 CALLER PUSH20 0xFFFFFFFFFFFFFFFFFFFFFFFFFFFFFFFFFFFFFFFF AND DUP2 MSTORE PUSH1 0x20 ADD DUP7 PUSH1 0x2 DUP2 GT ISZERO PUSH2 0x1140 JUMPI PUSH2 0x113F PUSH2 0x1B38 JUMP JUMPDEST JUMPDEST DUP2 MSTORE PUSH1 0x20 ADD TIMESTAMP DUP2 MSTORE PUSH1 0x20 ADD DUP6 DUP2 MSTORE PUSH1 0x20 ADD DUP5 DUP2 MSTORE PUSH1 0x20 ADD DUP4 DUP2 MSTORE PUSH1 0x20 ADD DUP3 DUP2 MSTORE POP PUSH0 DUP1 CALLER PUSH20 0xFFFFFFFFFFFFFFFFFFFFFFFFFFFFFFFFFFFFFFFF AND PUSH20 0xFFFFFFFFFFFFFFFFFFFFFFFFFFFFFFFFFFFFFFFF AND DUP2 MSTORE PUSH1 0x20 ADD SWAP1 DUP2 MSTORE PUSH1 0x20 ADD PUSH0 KECCAK256 PUSH0 DUP3 ADD MLOAD DUP2 PUSH0 ADD PUSH0 PUSH2 0x100 EXP DUP2 SLOAD DUP2 PUSH20 0xFFFFFFFFFFFFFFFFFFFFFFFFFFFFFFFFFFFFFFFF MUL NOT AND SWAP1 DUP4 PUSH20 0xFFFFFFFFFFFFFFFFFFFFFFFFFFFFFFFFFFFFFFFF AND MUL OR SWAP1 SSTORE POP PUSH1 0x20 DUP3 ADD MLOAD DUP2 PUSH0 ADD PUSH1 0x14 PUSH2 0x100 EXP DUP2 SLOAD DUP2 PUSH1 0xFF MUL NOT AND SWAP1 DUP4 PUSH1 0x2 DUP2 GT ISZERO PUSH2 0x120B JUMPI PUSH2 0x120A PUSH2 0x1B38 JUMP JUMPDEST JUMPDEST MUL OR SWAP1 SSTORE POP PUSH1 0x40 DUP3 ADD MLOAD DUP2 PUSH1 0x1 ADD SSTORE PUSH1 0x60 DUP3 ADD MLOAD DUP2 PUSH1 0x2 ADD SWAP1 DUP2 PUSH2 0x122F SWAP2 SWAP1 PUSH2 0x2752 JUMP JUMPDEST POP PUSH1 0x80 DUP3 ADD MLOAD DUP2 PUSH1 0x3 ADD SWAP1 DUP2 PUSH2 0x1245 SWAP2 SWAP1 PUSH2 0x2752 JUMP JUMPDEST POP PUSH1 0xA0 DUP3 ADD MLOAD DUP2 PUSH1 0x4 ADD SWAP1 DUP2 PUSH2 0x125B SWAP2 SWAP1 PUSH2 0x2752 JUMP JUMPDEST POP PUSH1 0xC0 DUP3 ADD MLOAD DUP2 PUSH1 0x5 ADD SWAP1 DUP1 MLOAD SWAP1 PUSH1 0x20 ADD SWAP1 PUSH2 0x1278 SWAP3 SWAP2 SWAP1 PUSH2 0x19CB JUMP JUMPDEST POP SWAP1 POP POP POP POP POP POP POP JUMP JUMPDEST PUSH1 0x1 PUSH0 SWAP1 SLOAD SWAP1 PUSH2 0x100 EXP SWAP1 DIV PUSH20 0xFFFFFFFFFFFFFFFFFFFFFFFFFFFFFFFFFFFFFFFF AND DUP2 JUMP JUMPDEST PUSH0 PUSH1 0x1 PUSH0 SWAP1 SLOAD SWAP1 PUSH2 0x100 EXP SWAP1 DIV PUSH20 0xFFFFFFFFFFFFFFFFFFFFFFFFFFFFFFFFFFFFFFFF AND SWAP1 POP SWAP1 JUMP JUMPDEST PUSH0 PUSH1 0x1 PUSH0 SWAP1 SLOAD SWAP1 PUSH2 0x100 EXP SWAP1 DIV PUSH20 0xFFFFFFFFFFFFFFFFFFFFFFFFFFFFFFFFFFFFFFFF AND PUSH20 0xFFFFFFFFFFFFFFFFFFFFFFFFFFFFFFFFFFFFFFFF AND CALLER PUSH20 0xFFFFFFFFFFFFFFFFFFFFFFFFFFFFFFFFFFFFFFFF AND EQ PUSH2 0x1360 JUMPI PUSH1 0x40 MLOAD PUSH32 0x8C379A000000000000000000000000000000000000000000000000000000000 DUP2 MSTORE PUSH1 0x4 ADD PUSH2 0x1357 SWAP1 PUSH2 0x252F JUMP JUMPDEST PUSH1 0x40 MLOAD DUP1 SWAP2 SUB SWAP1 REVERT JUMPDEST PUSH0 DUP1 PUSH0 DUP5 PUSH20 0xFFFFFFFFFFFFFFFFFFFFFFFFFFFFFFFFFFFFFFFF AND PUSH20 0xFFFFFFFFFFFFFFFFFFFFFFFFFFFFFFFFFFFFFFFF AND DUP2 MSTORE PUSH1 0x20 ADD SWAP1 DUP2 MSTORE PUSH1 0x20 ADD PUSH0 KECCAK256 PUSH1 0x40 MLOAD DUP1 PUSH1 0xE0 ADD PUSH1 0x40 MSTORE SWAP1 DUP2 PUSH0 DUP3 ADD PUSH0 SWAP1 SLOAD SWAP1 PUSH2 0x100 EXP SWAP1 DIV PUSH20 0xFFFFFFFFFFFFFFFFFFFFFFFFFFFFFFFFFFFFFFFF AND PUSH20 0xFFFFFFFFFFFFFFFFFFFFFFFFFFFFFFFFFFFFFFFF AND PUSH20 0xFFFFFFFFFFFFFFFFFFFFFFFFFFFFFFFFFFFFFFFF AND DUP2 MSTORE PUSH1 0x20 ADD PUSH0 DUP3 ADD PUSH1 0x14 SWAP1 SLOAD SWAP1 PUSH2 0x100 EXP SWAP1 DIV PUSH1 0xFF AND PUSH1 0x2 DUP2 GT ISZERO PUSH2 0x1420 JUMPI PUSH2 0x141F PUSH2 0x1B38 JUMP JUMPDEST JUMPDEST PUSH1 0x2 DUP2 GT ISZERO PUSH2 0x1432 JUMPI PUSH2 0x1431 PUSH2 0x1B38 JUMP JUMPDEST JUMPDEST DUP2 MSTORE PUSH1 0x20 ADD PUSH1 0x1 DUP3 ADD SLOAD DUP2 MSTORE PUSH1 0x20 ADD PUSH1 0x2 DUP3 ADD DUP1 SLOAD PUSH2 0x1450 SWAP1 PUSH2 0x248F JUMP JUMPDEST DUP1 PUSH1 0x1F ADD PUSH1 0x20 DUP1 SWAP2 DIV MUL PUSH1 0x20 ADD PUSH1 0x40 MLOAD SWAP1 DUP2 ADD PUSH1 0x40 MSTORE DUP1 SWAP3 SWAP2 SWAP1 DUP2 DUP2 MSTORE PUSH1 0x20 ADD DUP3 DUP1 SLOAD PUSH2 0x147C SWAP1 PUSH2 0x248F JUMP JUMPDEST DUP1 ISZERO PUSH2 0x14C7 JUMPI DUP1 PUSH1 0x1F LT PUSH2 0x149E JUMPI PUSH2 0x100 DUP1 DUP4 SLOAD DIV MUL DUP4 MSTORE SWAP2 PUSH1 0x20 ADD SWAP2 PUSH2 0x14C7 JUMP JUMPDEST DUP3 ADD SWAP2 SWAP1 PUSH0 MSTORE PUSH1 0x20 PUSH0 KECCAK256 SWAP1 JUMPDEST DUP2 SLOAD DUP2 MSTORE SWAP1 PUSH1 0x1 ADD SWAP1 PUSH1 0x20 ADD DUP1 DUP4 GT PUSH2 0x14AA JUMPI DUP3 SWAP1 SUB PUSH1 0x1F AND DUP3 ADD SWAP2 JUMPDEST POP POP POP POP POP DUP2 MSTORE PUSH1 0x20 ADD PUSH1 0x3 DUP3 ADD DUP1 SLOAD PUSH2 0x14E0 SWAP1 PUSH2 0x248F JUMP JUMPDEST DUP1 PUSH1 0x1F ADD PUSH1 0x20 DUP1 SWAP2 DIV MUL PUSH1 0x20 ADD PUSH1 0x40 MLOAD SWAP1 DUP2 ADD PUSH1 0x40 MSTORE DUP1 SWAP3 SWAP2 SWAP1 DUP2 DUP2 MSTORE PUSH1 0x20 ADD DUP3 DUP1 SLOAD PUSH2 0x150C SWAP1 PUSH2 0x248F JUMP JUMPDEST DUP1 ISZERO PUSH2 0x1557 JUMPI DUP1 PUSH1 0x1F LT PUSH2 0x152E JUMPI PUSH2 0x100 DUP1 DUP4 SLOAD DIV MUL DUP4 MSTORE SWAP2 PUSH1 0x20 ADD SWAP2 PUSH2 0x1557 JUMP JUMPDEST DUP3 ADD SWAP2 SWAP1 PUSH0 MSTORE PUSH1 0x20 PUSH0 KECCAK256 SWAP1 JUMPDEST DUP2 SLOAD DUP2 MSTORE SWAP1 PUSH1 0x1 ADD SWAP1 PUSH1 0x20 ADD DUP1 DUP4 GT PUSH2 0x153A JUMPI DUP3 SWAP1 SUB PUSH1 0x1F AND DUP3 ADD SWAP2 JUMPDEST POP POP POP POP POP DUP2 MSTORE PUSH1 0x20 ADD PUSH1 0x4 DUP3 ADD DUP1 SLOAD PUSH2 0x1570 SWAP1 PUSH2 0x248F JUMP JUMPDEST DUP1 PUSH1 0x1F ADD PUSH1 0x20 DUP1 SWAP2 DIV MUL PUSH1 0x20 ADD PUSH1 0x40 MLOAD SWAP1 DUP2 ADD PUSH1 0x40 MSTORE DUP1 SWAP3 SWAP2 SWAP1 DUP2 DUP2 MSTORE PUSH1 0x20 ADD DUP3 DUP1 SLOAD PUSH2 0x159C SWAP1 PUSH2 0x248F JUMP JUMPDEST DUP1 ISZERO PUSH2 0x15E7 JUMPI DUP1 PUSH1 0x1F LT PUSH2 0x15BE JUMPI PUSH2 0x100 DUP1 DUP4 SLOAD DIV MUL DUP4 MSTORE SWAP2 PUSH1 0x20 ADD SWAP2 PUSH2 0x15E7 JUMP JUMPDEST DUP3 ADD SWAP2 SWAP1 PUSH0 MSTORE PUSH1 0x20 PUSH0 KECCAK256 SWAP1 JUMPDEST DUP2 SLOAD DUP2 MSTORE SWAP1 PUSH1 0x1 ADD SWAP1 PUSH1 0x20 ADD DUP1 DUP4 GT PUSH2 0x15CA JUMPI DUP3 SWAP1 SUB PUSH1 0x1F AND DUP3 ADD SWAP2 JUMPDEST POP POP POP POP POP DUP2 MSTORE PUSH1 0x20 ADD PUSH1 0x5 DUP3 ADD DUP1 SLOAD DUP1 PUSH1 0x20 MUL PUSH1 0x20 ADD PUSH1 0x40 MLOAD SWAP1 DUP2 ADD PUSH1 0x40 MSTORE DUP1 SWAP3 SWAP2 SWAP1 DUP2 DUP2 MSTORE PUSH1 0x20 ADD DUP3 DUP1 SLOAD DUP1 ISZERO PUSH2 0x163D JUMPI PUSH1 0x20 MUL DUP3 ADD SWAP2 SWAP1 PUSH0 MSTORE PUSH1 0x20 PUSH0 KECCAK256 SWAP1 JUMPDEST DUP2 SLOAD DUP2 MSTORE PUSH1 0x20 ADD SWAP1 PUSH1 0x1 ADD SWAP1 DUP1 DUP4 GT PUSH2 0x1629 JUMPI JUMPDEST POP POP POP POP POP DUP2 MSTORE POP POP SWAP1 POP PUSH0 PUSH20 0xFFFFFFFFFFFFFFFFFFFFFFFFFFFFFFFFFFFFFFFF AND DUP2 PUSH0 ADD MLOAD PUSH20 0xFFFFFFFFFFFFFFFFFFFFFFFFFFFFFFFFFFFFFFFF AND EQ ISZERO SWAP2 POP POP SWAP2 SWAP1 POP JUMP JUMPDEST PUSH2 0x168B PUSH2 0x1A16 JUMP JUMPDEST PUSH0 DUP1 DUP4 PUSH20 0xFFFFFFFFFFFFFFFFFFFFFFFFFFFFFFFFFFFFFFFF AND PUSH20 0xFFFFFFFFFFFFFFFFFFFFFFFFFFFFFFFFFFFFFFFF AND DUP2 MSTORE PUSH1 0x20 ADD SWAP1 DUP2 MSTORE PUSH1 0x20 ADD PUSH0 KECCAK256 PUSH1 0x40 MLOAD DUP1 PUSH1 0xE0 ADD PUSH1 0x40 MSTORE SWAP1 DUP2 PUSH0 DUP3 ADD PUSH0 SWAP1 SLOAD SWAP1 PUSH2 0x100 EXP SWAP1 DIV PUSH20 0xFFFFFFFFFFFFFFFFFFFFFFFFFFFFFFFFFFFFFFFF AND PUSH20 0xFFFFFFFFFFFFFFFFFFFFFFFFFFFFFFFFFFFFFFFF AND PUSH20 0xFFFFFFFFFFFFFFFFFFFFFFFFFFFFFFFFFFFFFFFF AND DUP2 MSTORE PUSH1 0x20 ADD PUSH0 DUP3 ADD PUSH1 0x14 SWAP1 SLOAD SWAP1 PUSH2 0x100 EXP SWAP1 DIV PUSH1 0xFF AND PUSH1 0x2 DUP2 GT ISZERO PUSH2 0x174A JUMPI PUSH2 0x1749 PUSH2 0x1B38 JUMP JUMPDEST JUMPDEST PUSH1 0x2 DUP2 GT ISZERO PUSH2 0x175C JUMPI PUSH2 0x175B PUSH2 0x1B38 JUMP JUMPDEST JUMPDEST DUP2 MSTORE PUSH1 0x20 ADD PUSH1 0x1 DUP3 ADD SLOAD DUP2 MSTORE PUSH1 0x20 ADD PUSH1 0x2 DUP3 ADD DUP1 SLOAD PUSH2 0x177A SWAP1 PUSH2 0x248F JUMP JUMPDEST DUP1 PUSH1 0x1F ADD PUSH1 0x20 DUP1 SWAP2 DIV MUL PUSH1 0x20 ADD PUSH1 0x40 MLOAD SWAP1 DUP2 ADD PUSH1 0x40 MSTORE DUP1 SWAP3 SWAP2 SWAP1 DUP2 DUP2 MSTORE PUSH1 0x20 ADD DUP3 DUP1 SLOAD PUSH2 0x17A6 SWAP1 PUSH2 0x248F JUMP JUMPDEST DUP1 ISZERO PUSH2 0x17F1 JUMPI DUP1 PUSH1 0x1F LT PUSH2 0x17C8 JUMPI PUSH2 0x100 DUP1 DUP4 SLOAD DIV MUL DUP4 MSTORE SWAP2 PUSH1 0x20 ADD SWAP2 PUSH2 0x17F1 JUMP JUMPDEST DUP3 ADD SWAP2 SWAP1 PUSH0 MSTORE PUSH1 0x20 PUSH0 KECCAK256 SWAP1 JUMPDEST DUP2 SLOAD DUP2 MSTORE SWAP1 PUSH1 0x1 ADD SWAP1 PUSH1 0x20 ADD DUP1 DUP4 GT PUSH2 0x17D4 JUMPI DUP3 SWAP1 SUB PUSH1 0x1F AND DUP3 ADD SWAP2 JUMPDEST POP POP POP POP POP DUP2 MSTORE PUSH1 0x20 ADD PUSH1 0x3 DUP3 ADD DUP1 SLOAD PUSH2 0x180A SWAP1 PUSH2 0x248F JUMP JUMPDEST DUP1 PUSH1 0x1F ADD PUSH1 0x20 DUP1 SWAP2 DIV MUL PUSH1 0x20 ADD PUSH1 0x40 MLOAD SWAP1 DUP2 ADD PUSH1 0x40 MSTORE DUP1 SWAP3 SWAP2 SWAP1 DUP2 DUP2 MSTORE PUSH1 0x20 ADD DUP3 DUP1 SLOAD PUSH2 0x1836 SWAP1 PUSH2 0x248F JUMP JUMPDEST DUP1 ISZERO PUSH2 0x1881 JUMPI DUP1 PUSH1 0x1F LT PUSH2 0x1858 JUMPI PUSH2 0x100 DUP1 DUP4 SLOAD DIV MUL DUP4 MSTORE SWAP2 PUSH1 0x20 ADD SWAP2 PUSH2 0x1881 JUMP JUMPDEST DUP3 ADD SWAP2 SWAP1 PUSH0 MSTORE PUSH1 0x20 PUSH0 KECCAK256 SWAP1 JUMPDEST DUP2 SLOAD DUP2 MSTORE SWAP1 PUSH1 0x1 ADD SWAP1 PUSH1 0x20 ADD DUP1 DUP4 GT PUSH2 0x1864 JUMPI DUP3 SWAP1 SUB PUSH1 0x1F AND DUP3 ADD SWAP2 JUMPDEST POP POP POP POP POP DUP2 MSTORE PUSH1 0x20 ADD PUSH1 0x4 DUP3 ADD DUP1 SLOAD PUSH2 0x189A SWAP1 PUSH2 0x248F JUMP JUMPDEST DUP1 PUSH1 0x1F ADD PUSH1 0x20 DUP1 SWAP2 DIV MUL PUSH1 0x20 ADD PUSH1 0x40 MLOAD SWAP1 DUP2 ADD PUSH1 0x40 MSTORE DUP1 SWAP3 SWAP2 SWAP1 DUP2 DUP2 MSTORE PUSH1 0x20 ADD DUP3 DUP1 SLOAD PUSH2 0x18C6 SWAP1 PUSH2 0x248F JUMP JUMPDEST DUP1 ISZERO PUSH2 0x1911 JUMPI DUP1 PUSH1 0x1F LT PUSH2 0x18E8 JUMPI PUSH2 0x100 DUP1 DUP4 SLOAD DIV MUL DUP4 MSTORE SWAP2 PUSH1 0x20 ADD SWAP2 PUSH2 0x1911 JUMP JUMPDEST DUP3 ADD SWAP2 SWAP1 PUSH0 MSTORE PUSH1 0x20 PUSH0 KECCAK256 SWAP1 JUMPDEST DUP2 SLOAD DUP2 MSTORE SWAP1 PUSH1 0x1 ADD SWAP1 PUSH1 0x20 ADD DUP1 DUP4 GT PUSH2 0x18F4 JUMPI DUP3 SWAP1 SUB PUSH1 0x1F AND DUP3 ADD SWAP2 JUMPDEST POP POP POP POP POP DUP2 MSTORE PUSH1 0x20 ADD PUSH1 0x5 DUP3 ADD DUP1 SLOAD DUP1 PUSH1 0x20 MUL PUSH1 0x20 ADD PUSH1 0x40 MLOAD SWAP1 DUP2 ADD PUSH1 0x40 MSTORE DUP1 SWAP3 SWAP2 SWAP1 DUP2 DUP2 MSTORE PUSH1 0x20 ADD DUP3 DUP1 SLOAD DUP1 ISZERO PUSH2 0x1967 JUMPI PUSH1 0x20 MUL DUP3 ADD SWAP2 SWAP1 PUSH0 MSTORE PUSH1 0x20 PUSH0 KECCAK256 SWAP1 JUMPDEST DUP2 SLOAD DUP2 MSTORE PUSH1 0x20 ADD SWAP1 PUSH1 0x1 ADD SWAP1 DUP1 DUP4 GT PUSH2 0x1953 JUMPI JUMPDEST POP POP POP POP POP DUP2 MSTORE POP POP SWAP1 POP SWAP2 SWAP1 POP JUMP JUMPDEST PUSH0 DUP1 PUSH0 DUP4 PUSH20 0xFFFFFFFFFFFFFFFFFFFFFFFFFFFFFFFFFFFFFFFF AND PUSH20 0xFFFFFFFFFFFFFFFFFFFFFFFFFFFFFFFFFFFFFFFF AND DUP2 MSTORE PUSH1 0x20 ADD SWAP1 DUP2 MSTORE PUSH1 0x20 ADD PUSH0 KECCAK256 PUSH0 ADD PUSH1 0x14 SWAP1 SLOAD SWAP1 PUSH2 0x100 EXP SWAP1 DIV PUSH1 0xFF AND SWAP1 POP SWAP2 SWAP1 POP JUMP JUMPDEST DUP3 DUP1 SLOAD DUP3 DUP3 SSTORE SWAP1 PUSH0 MSTORE PUSH1 0x20 PUSH0 KECCAK256 SWAP1 DUP2 ADD SWAP3 DUP3 ISZERO PUSH2 0x1A05 JUMPI SWAP2 PUSH1 0x20 MUL DUP3 ADD JUMPDEST DUP3 DUP2 GT ISZERO PUSH2 0x1A04 JUMPI DUP3 MLOAD DUP3 SSTORE SWAP2 PUSH1 0x20 ADD SWAP2 SWAP1 PUSH1 0x1 ADD SWAP1 PUSH2 0x19E9 JUMP JUMPDEST JUMPDEST POP SWAP1 POP PUSH2 0x1A12 SWAP2 SWAP1 PUSH2 0x1A78 JUMP JUMPDEST POP SWAP1 JUMP JUMPDEST PUSH1 0x40 MLOAD DUP1 PUSH1 0xE0 ADD PUSH1 0x40 MSTORE DUP1 PUSH0 PUSH20 0xFFFFFFFFFFFFFFFFFFFFFFFFFFFFFFFFFFFFFFFF AND DUP2 MSTORE PUSH1 0x20 ADD PUSH0 PUSH1 0x2 DUP2 GT ISZERO PUSH2 0x1A50 JUMPI PUSH2 0x1A4F PUSH2 0x1B38 JUMP JUMPDEST JUMPDEST DUP2 MSTORE PUSH1 0x20 ADD PUSH0 DUP2 MSTORE PUSH1 0x20 ADD PUSH1 0x60 DUP2 MSTORE PUSH1 0x20 ADD PUSH1 0x60 DUP2 MSTORE PUSH1 0x20 ADD PUSH1 0x60 DUP2 MSTORE PUSH1 0x20 ADD PUSH1 0x60 DUP2 MSTORE POP SWAP1 JUMP JUMPDEST JUMPDEST DUP1 DUP3 GT ISZERO PUSH2 0x1A8F JUMPI PUSH0 DUP2 PUSH0 SWAP1 SSTORE POP PUSH1 0x1 ADD PUSH2 0x1A79 JUMP JUMPDEST POP SWAP1 JUMP JUMPDEST PUSH0 PUSH1 0x40 MLOAD SWAP1 POP SWAP1 JUMP JUMPDEST PUSH0 DUP1 REVERT JUMPDEST PUSH0 DUP1 REVERT JUMPDEST PUSH0 PUSH20 0xFFFFFFFFFFFFFFFFFFFFFFFFFFFFFFFFFFFFFFFF DUP3 AND SWAP1 POP SWAP2 SWAP1 POP JUMP JUMPDEST PUSH0 PUSH2 0x1ACD DUP3 PUSH2 0x1AA4 JUMP JUMPDEST SWAP1 POP SWAP2 SWAP1 POP JUMP JUMPDEST PUSH2 0x1ADD DUP2 PUSH2 0x1AC3 JUMP JUMPDEST DUP2 EQ PUSH2 0x1AE7 JUMPI PUSH0 DUP1 REVERT JUMPDEST POP JUMP JUMPDEST PUSH0 DUP2 CALLDATALOAD SWAP1 POP PUSH2 0x1AF8 DUP2 PUSH2 0x1AD4 JUMP JUMPDEST SWAP3 SWAP2 POP POP JUMP JUMPDEST PUSH0 PUSH1 0x20 DUP3 DUP5 SUB SLT ISZERO PUSH2 0x1B13 JUMPI PUSH2 0x1B12 PUSH2 0x1A9C JUMP JUMPDEST JUMPDEST PUSH0 PUSH2 0x1B20 DUP5 DUP3 DUP6 ADD PUSH2 0x1AEA JUMP JUMPDEST SWAP2 POP POP SWAP3 SWAP2 POP POP JUMP JUMPDEST PUSH2 0x1B32 DUP2 PUSH2 0x1AC3 JUMP JUMPDEST DUP3 MSTORE POP POP JUMP JUMPDEST PUSH32 0x4E487B7100000000000000000000000000000000000000000000000000000000 PUSH0 MSTORE PUSH1 0x21 PUSH1 0x4 MSTORE PUSH1 0x24 PUSH0 REVERT JUMPDEST PUSH1 0x3 DUP2 LT PUSH2 0x1B76 JUMPI PUSH2 0x1B75 PUSH2 0x1B38 JUMP JUMPDEST JUMPDEST POP JUMP JUMPDEST PUSH0 DUP2 SWAP1 POP PUSH2 0x1B86 DUP3 PUSH2 0x1B65 JUMP JUMPDEST SWAP2 SWAP1 POP JUMP JUMPDEST PUSH0 PUSH2 0x1B95 DUP3 PUSH2 0x1B79 JUMP JUMPDEST SWAP1 POP SWAP2 SWAP1 POP JUMP JUMPDEST PUSH2 0x1BA5 DUP2 PUSH2 0x1B8B JUMP JUMPDEST DUP3 MSTORE POP POP JUMP JUMPDEST PUSH0 DUP2 SWAP1 POP SWAP2 SWAP1 POP JUMP JUMPDEST PUSH2 0x1BBD DUP2 PUSH2 0x1BAB JUMP JUMPDEST DUP3 MSTORE POP POP JUMP JUMPDEST PUSH0 DUP2 MLOAD SWAP1 POP SWAP2 SWAP1 POP JUMP JUMPDEST PUSH0 DUP3 DUP3 MSTORE PUSH1 0x20 DUP3 ADD SWAP1 POP SWAP3 SWAP2 POP POP JUMP JUMPDEST DUP3 DUP2 DUP4 MCOPY PUSH0 DUP4 DUP4 ADD MSTORE POP POP POP JUMP JUMPDEST PUSH0 PUSH1 0x1F NOT PUSH1 0x1F DUP4 ADD AND SWAP1 POP SWAP2 SWAP1 POP JUMP JUMPDEST PUSH0 PUSH2 0x1C05 DUP3 PUSH2 0x1BC3 JUMP JUMPDEST PUSH2 0x1C0F DUP2 DUP6 PUSH2 0x1BCD JUMP JUMPDEST SWAP4 POP PUSH2 0x1C1F DUP2 DUP6 PUSH1 0x20 DUP7 ADD PUSH2 0x1BDD JUMP JUMPDEST PUSH2 0x1C28 DUP2 PUSH2 0x1BEB JUMP JUMPDEST DUP5 ADD SWAP2 POP POP SWAP3 SWAP2 POP POP JUMP JUMPDEST PUSH0 PUSH1 0xC0 DUP3 ADD SWAP1 POP PUSH2 0x1C46 PUSH0 DUP4 ADD DUP10 PUSH2 0x1B29 JUMP JUMPDEST PUSH2 0x1C53 PUSH1 0x20 DUP4 ADD DUP9 PUSH2 0x1B9C JUMP JUMPDEST PUSH2 0x1C60 PUSH1 0x40 DUP4 ADD DUP8 PUSH2 0x1BB4 JUMP JUMPDEST DUP2 DUP2 SUB PUSH1 0x60 DUP4 ADD MSTORE PUSH2 0x1C72 DUP2 DUP7 PUSH2 0x1BFB JUMP JUMPDEST SWAP1 POP DUP2 DUP2 SUB PUSH1 0x80 DUP4 ADD MSTORE PUSH2 0x1C86 DUP2 DUP6 PUSH2 0x1BFB JUMP JUMPDEST SWAP1 POP DUP2 DUP2 SUB PUSH1 0xA0 DUP4 ADD MSTORE PUSH2 0x1C9A DUP2 DUP5 PUSH2 0x1BFB JUMP JUMPDEST SWAP1 POP SWAP8 SWAP7 POP POP POP POP POP POP POP JUMP JUMPDEST PUSH2 0x1CB0 DUP2 PUSH2 0x1BAB JUMP JUMPDEST DUP2 EQ PUSH2 0x1CBA JUMPI PUSH0 DUP1 REVERT JUMPDEST POP JUMP JUMPDEST PUSH0 DUP2 CALLDATALOAD SWAP1 POP PUSH2 0x1CCB DUP2 PUSH2 0x1CA7 JUMP JUMPDEST SWAP3 SWAP2 POP POP JUMP JUMPDEST PUSH0 DUP1 PUSH1 0x40 DUP4 DUP6 SUB SLT ISZERO PUSH2 0x1CE7 JUMPI PUSH2 0x1CE6 PUSH2 0x1A9C JUMP JUMPDEST JUMPDEST PUSH0 PUSH2 0x1CF4 DUP6 DUP3 DUP7 ADD PUSH2 0x1AEA JUMP JUMPDEST SWAP3 POP POP PUSH1 0x20 PUSH2 0x1D05 DUP6 DUP3 DUP7 ADD PUSH2 0x1CBD JUMP JUMPDEST SWAP2 POP POP SWAP3 POP SWAP3 SWAP1 POP JUMP JUMPDEST PUSH0 DUP1 REVERT JUMPDEST PUSH0 DUP1 REVERT JUMPDEST PUSH32 0x4E487B7100000000000000000000000000000000000000000000000000000000 PUSH0 MSTORE PUSH1 0x41 PUSH1 0x4 MSTORE PUSH1 0x24 PUSH0 REVERT JUMPDEST PUSH2 0x1D4D DUP3 PUSH2 0x1BEB JUMP JUMPDEST DUP2 ADD DUP2 DUP2 LT PUSH8 0xFFFFFFFFFFFFFFFF DUP3 GT OR ISZERO PUSH2 0x1D6C JUMPI PUSH2 0x1D6B PUSH2 0x1D17 JUMP JUMPDEST JUMPDEST DUP1 PUSH1 0x40 MSTORE POP POP POP JUMP JUMPDEST PUSH0 PUSH2 0x1D7E PUSH2 0x1A93 JUMP JUMPDEST SWAP1 POP PUSH2 0x1D8A DUP3 DUP3 PUSH2 0x1D44 JUMP JUMPDEST SWAP2 SWAP1 POP JUMP JUMPDEST PUSH0 PUSH8 0xFFFFFFFFFFFFFFFF DUP3 GT ISZERO PUSH2 0x1DA9 JUMPI PUSH2 0x1DA8 PUSH2 0x1D17 JUMP JUMPDEST JUMPDEST PUSH2 0x1DB2 DUP3 PUSH2 0x1BEB JUMP JUMPDEST SWAP1 POP PUSH1 0x20 DUP2 ADD SWAP1 POP SWAP2 SWAP1 POP JUMP JUMPDEST DUP3 DUP2 DUP4 CALLDATACOPY PUSH0 DUP4 DUP4 ADD MSTORE POP POP POP JUMP JUMPDEST PUSH0 PUSH2 0x1DDF PUSH2 0x1DDA DUP5 PUSH2 0x1D8F JUMP JUMPDEST PUSH2 0x1D75 JUMP JUMPDEST SWAP1 POP DUP3 DUP2 MSTORE PUSH1 0x20 DUP2 ADD DUP5 DUP5 DUP5 ADD GT ISZERO PUSH2 0x1DFB JUMPI PUSH2 0x1DFA PUSH2 0x1D13 JUMP JUMPDEST JUMPDEST PUSH2 0x1E06 DUP5 DUP3 DUP6 PUSH2 0x1DBF JUMP JUMPDEST POP SWAP4 SWAP3 POP POP POP JUMP JUMPDEST PUSH0 DUP3 PUSH1 0x1F DUP4 ADD SLT PUSH2 0x1E22 JUMPI PUSH2 0x1E21 PUSH2 0x1D0F JUMP JUMPDEST JUMPDEST DUP2 CALLDATALOAD PUSH2 0x1E32 DUP5 DUP3 PUSH1 0x20 DUP7 ADD PUSH2 0x1DCD JUMP JUMPDEST SWAP2 POP POP SWAP3 SWAP2 POP POP JUMP JUMPDEST PUSH0 DUP1 PUSH0 PUSH1 0x60 DUP5 DUP7 SUB SLT ISZERO PUSH2 0x1E52 JUMPI PUSH2 0x1E51 PUSH2 0x1A9C JUMP JUMPDEST JUMPDEST PUSH0 DUP5 ADD CALLDATALOAD PUSH8 0xFFFFFFFFFFFFFFFF DUP2 GT ISZERO PUSH2 0x1E6F JUMPI PUSH2 0x1E6E PUSH2 0x1AA0 JUMP JUMPDEST JUMPDEST PUSH2 0x1E7B DUP7 DUP3 DUP8 ADD PUSH2 0x1E0E JUMP JUMPDEST SWAP4 POP POP PUSH1 0x20 DUP5 ADD CALLDATALOAD PUSH8 0xFFFFFFFFFFFFFFFF DUP2 GT ISZERO PUSH2 0x1E9C JUMPI PUSH2 0x1E9B PUSH2 0x1AA0 JUMP JUMPDEST JUMPDEST PUSH2 0x1EA8 DUP7 DUP3 DUP8 ADD PUSH2 0x1E0E JUMP JUMPDEST SWAP3 POP POP PUSH1 0x40 DUP5 ADD CALLDATALOAD PUSH8 0xFFFFFFFFFFFFFFFF DUP2 GT ISZERO PUSH2 0x1EC9 JUMPI PUSH2 0x1EC8 PUSH2 0x1AA0 JUMP JUMPDEST JUMPDEST PUSH2 0x1ED5 DUP7 DUP3 DUP8 ADD PUSH2 0x1E0E JUMP JUMPDEST SWAP2 POP POP SWAP3 POP SWAP3 POP SWAP3 JUMP JUMPDEST PUSH0 DUP2 ISZERO ISZERO SWAP1 POP SWAP2 SWAP1 POP JUMP JUMPDEST PUSH2 0x1EF3 DUP2 PUSH2 0x1EDF JUMP JUMPDEST DUP3 MSTORE POP POP JUMP JUMPDEST PUSH0 PUSH1 0x20 DUP3 ADD SWAP1 POP PUSH2 0x1F0C PUSH0 DUP4 ADD DUP5 PUSH2 0x1EEA JUMP JUMPDEST SWAP3 SWAP2 POP POP JUMP JUMPDEST PUSH0 DUP2 MLOAD SWAP1 POP SWAP2 SWAP1 POP JUMP JUMPDEST PUSH0 DUP3 DUP3 MSTORE PUSH1 0x20 DUP3 ADD SWAP1 POP SWAP3 SWAP2 POP POP JUMP JUMPDEST PUSH0 DUP2 SWAP1 POP PUSH1 0x20 DUP3 ADD SWAP1 POP SWAP2 SWAP1 POP JUMP JUMPDEST PUSH2 0x1F44 DUP2 PUSH2 0x1AC3 JUMP JUMPDEST DUP3 MSTORE POP POP JUMP JUMPDEST PUSH0 PUSH2 0x1F55 DUP4 DUP4 PUSH2 0x1F3B JUMP JUMPDEST PUSH1 0x20 DUP4 ADD SWAP1 POP SWAP3 SWAP2 POP POP JUMP JUMPDEST PUSH0 PUSH1 0x20 DUP3 ADD SWAP1 POP SWAP2 SWAP1 POP JUMP JUMPDEST PUSH0 PUSH2 0x1F77 DUP3 PUSH2 0x1F12 JUMP JUMPDEST PUSH2 0x1F81 DUP2 DUP6 PUSH2 0x1F1C JUMP JUMPDEST SWAP4 POP PUSH2 0x1F8C DUP4 PUSH2 0x1F2C JUMP JUMPDEST DUP1 PUSH0 JUMPDEST DUP4 DUP2 LT ISZERO PUSH2 0x1FBC JUMPI DUP2 MLOAD PUSH2 0x1FA3 DUP9 DUP3 PUSH2 0x1F4A JUMP JUMPDEST SWAP8 POP PUSH2 0x1FAE DUP4 PUSH2 0x1F61 JUMP JUMPDEST SWAP3 POP POP PUSH1 0x1 DUP2 ADD SWAP1 POP PUSH2 0x1F8F JUMP JUMPDEST POP DUP6 SWAP4 POP POP POP POP SWAP3 SWAP2 POP POP JUMP JUMPDEST PUSH0 DUP2 MLOAD SWAP1 POP SWAP2 SWAP1 POP JUMP JUMPDEST PUSH0 DUP3 DUP3 MSTORE PUSH1 0x20 DUP3 ADD SWAP1 POP SWAP3 SWAP2 POP POP JUMP JUMPDEST PUSH0 DUP2 SWAP1 POP PUSH1 0x20 DUP3 ADD SWAP1 POP SWAP2 SWAP1 POP JUMP JUMPDEST PUSH0 DUP3 DUP3 MSTORE PUSH1 0x20 DUP3 ADD SWAP1 POP SWAP3 SWAP2 POP POP JUMP JUMPDEST PUSH0 PUSH2 0x200C DUP3 PUSH2 0x1BC3 JUMP JUMPDEST PUSH2 0x2016 DUP2 DUP6 PUSH2 0x1FF2 JUMP JUMPDEST SWAP4 POP PUSH2 0x2026 DUP2 DUP6 PUSH1 0x20 DUP7 ADD PUSH2 0x1BDD JUMP JUMPDEST PUSH2 0x202F DUP2 PUSH2 0x1BEB JUMP JUMPDEST DUP5 ADD SWAP2 POP POP SWAP3 SWAP2 POP POP JUMP JUMPDEST PUSH0 PUSH2 0x2045 DUP4 DUP4 PUSH2 0x2002 JUMP JUMPDEST SWAP1 POP SWAP3 SWAP2 POP POP JUMP JUMPDEST PUSH0 PUSH1 0x20 DUP3 ADD SWAP1 POP SWAP2 SWAP1 POP JUMP JUMPDEST PUSH0 PUSH2 0x2063 DUP3 PUSH2 0x1FC9 JUMP JUMPDEST PUSH2 0x206D DUP2 DUP6 PUSH2 0x1FD3 JUMP JUMPDEST SWAP4 POP DUP4 PUSH1 0x20 DUP3 MUL DUP6 ADD PUSH2 0x207F DUP6 PUSH2 0x1FE3 JUMP JUMPDEST DUP1 PUSH0 JUMPDEST DUP6 DUP2 LT ISZERO PUSH2 0x20BA JUMPI DUP5 DUP5 SUB DUP10 MSTORE DUP2 MLOAD PUSH2 0x209B DUP6 DUP3 PUSH2 0x203A JUMP JUMPDEST SWAP5 POP PUSH2 0x20A6 DUP4 PUSH2 0x204D JUMP JUMPDEST SWAP3 POP PUSH1 0x20 DUP11 ADD SWAP10 POP POP PUSH1 0x1 DUP2 ADD SWAP1 POP PUSH2 0x2082 JUMP JUMPDEST POP DUP3 SWAP8 POP DUP8 SWAP6 POP POP POP POP POP POP SWAP3 SWAP2 POP POP JUMP JUMPDEST PUSH0 DUP2 MLOAD SWAP1 POP SWAP2 SWAP1 POP JUMP JUMPDEST PUSH0 DUP3 DUP3 MSTORE PUSH1 0x20 DUP3 ADD SWAP1 POP SWAP3 SWAP2 POP POP JUMP JUMPDEST PUSH0 DUP2 SWAP1 POP PUSH1 0x20 DUP3 ADD SWAP1 POP SWAP2 SWAP1 POP JUMP JUMPDEST PUSH2 0x20FE DUP2 PUSH2 0x1BAB JUMP JUMPDEST DUP3 MSTORE POP POP JUMP JUMPDEST PUSH0 PUSH2 0x210F DUP4 DUP4 PUSH2 0x20F5 JUMP JUMPDEST PUSH1 0x20 DUP4 ADD SWAP1 POP SWAP3 SWAP2 POP POP JUMP JUMPDEST PUSH0 PUSH1 0x20 DUP3 ADD SWAP1 POP SWAP2 SWAP1 POP JUMP JUMPDEST PUSH0 PUSH2 0x2131 DUP3 PUSH2 0x20CC JUMP JUMPDEST PUSH2 0x213B DUP2 DUP6 PUSH2 0x20D6 JUMP JUMPDEST SWAP4 POP PUSH2 0x2146 DUP4 PUSH2 0x20E6 JUMP JUMPDEST DUP1 PUSH0 JUMPDEST DUP4 DUP2 LT ISZERO PUSH2 0x2176 JUMPI DUP2 MLOAD PUSH2 0x215D DUP9 DUP3 PUSH2 0x2104 JUMP JUMPDEST SWAP8 POP PUSH2 0x2168 DUP4 PUSH2 0x211B JUMP JUMPDEST SWAP3 POP POP PUSH1 0x1 DUP2 ADD SWAP1 POP PUSH2 0x2149 JUMP JUMPDEST POP DUP6 SWAP4 POP POP POP POP SWAP3 SWAP2 POP POP JUMP JUMPDEST PUSH0 PUSH1 0xC0 DUP3 ADD SWAP1 POP DUP2 DUP2 SUB PUSH0 DUP4 ADD MSTORE PUSH2 0x219B DUP2 DUP10 PUSH2 0x1F6D JUMP JUMPDEST SWAP1 POP DUP2 DUP2 SUB PUSH1 0x20 DUP4 ADD MSTORE PUSH2 0x21AF DUP2 DUP9 PUSH2 0x2059 JUMP JUMPDEST SWAP1 POP DUP2 DUP2 SUB PUSH1 0x40 DUP4 ADD MSTORE PUSH2 0x21C3 DUP2 DUP8 PUSH2 0x2059 JUMP JUMPDEST SWAP1 POP DUP2 DUP2 SUB PUSH1 0x60 DUP4 ADD MSTORE PUSH2 0x21D7 DUP2 DUP7 PUSH2 0x2127 JUMP JUMPDEST SWAP1 POP DUP2 DUP2 SUB PUSH1 0x80 DUP4 ADD MSTORE PUSH2 0x21EB DUP2 DUP6 PUSH2 0x2127 JUMP JUMPDEST SWAP1 POP DUP2 DUP2 SUB PUSH1 0xA0 DUP4 ADD MSTORE PUSH2 0x21FF DUP2 DUP5 PUSH2 0x2127 JUMP JUMPDEST SWAP1 POP SWAP8 SWAP7 POP POP POP POP POP POP POP JUMP JUMPDEST PUSH1 0x3 DUP2 LT PUSH2 0x2218 JUMPI PUSH0 DUP1 REVERT JUMPDEST POP JUMP JUMPDEST PUSH0 DUP2 CALLDATALOAD SWAP1 POP PUSH2 0x2229 DUP2 PUSH2 0x220C JUMP JUMPDEST SWAP3 SWAP2 POP POP JUMP JUMPDEST PUSH0 DUP1 PUSH0 DUP1 PUSH1 0x80 DUP6 DUP8 SUB SLT ISZERO PUSH2 0x2247 JUMPI PUSH2 0x2246 PUSH2 0x1A9C JUMP JUMPDEST JUMPDEST PUSH0 PUSH2 0x2254 DUP8 DUP3 DUP9 ADD PUSH2 0x221B JUMP JUMPDEST SWAP5 POP POP PUSH1 0x20 DUP6 ADD CALLDATALOAD PUSH8 0xFFFFFFFFFFFFFFFF DUP2 GT ISZERO PUSH2 0x2275 JUMPI PUSH2 0x2274 PUSH2 0x1AA0 JUMP JUMPDEST JUMPDEST PUSH2 0x2281 DUP8 DUP3 DUP9 ADD PUSH2 0x1E0E JUMP JUMPDEST SWAP4 POP POP PUSH1 0x40 DUP6 ADD CALLDATALOAD PUSH8 0xFFFFFFFFFFFFFFFF DUP2 GT ISZERO PUSH2 0x22A2 JUMPI PUSH2 0x22A1 PUSH2 0x1AA0 JUMP JUMPDEST JUMPDEST PUSH2 0x22AE DUP8 DUP3 DUP9 ADD PUSH2 0x1E0E JUMP JUMPDEST SWAP3 POP POP PUSH1 0x60 DUP6 ADD CALLDATALOAD PUSH8 0xFFFFFFFFFFFFFFFF DUP2 GT ISZERO PUSH2 0x22CF JUMPI PUSH2 0x22CE PUSH2 0x1AA0 JUMP JUMPDEST JUMPDEST PUSH2 0x22DB DUP8 DUP3 DUP9 ADD PUSH2 0x1E0E JUMP JUMPDEST SWAP2 POP POP SWAP3 SWAP6 SWAP2 SWAP5 POP SWAP3 POP JUMP JUMPDEST PUSH0 PUSH1 0x20 DUP3 ADD SWAP1 POP PUSH2 0x22FA PUSH0 DUP4 ADD DUP5 PUSH2 0x1B29 JUMP JUMPDEST SWAP3 SWAP2 POP POP JUMP JUMPDEST PUSH2 0x2309 DUP2 PUSH2 0x1B8B JUMP JUMPDEST DUP3 MSTORE POP POP JUMP JUMPDEST PUSH0 DUP3 DUP3 MSTORE PUSH1 0x20 DUP3 ADD SWAP1 POP SWAP3 SWAP2 POP POP JUMP JUMPDEST PUSH0 PUSH2 0x2329 DUP3 PUSH2 0x20CC JUMP JUMPDEST PUSH2 0x2333 DUP2 DUP6 PUSH2 0x230F JUMP JUMPDEST SWAP4 POP PUSH2 0x233E DUP4 PUSH2 0x20E6 JUMP JUMPDEST DUP1 PUSH0 JUMPDEST DUP4 DUP2 LT ISZERO PUSH2 0x236E JUMPI DUP2 MLOAD PUSH2 0x2355 DUP9 DUP3 PUSH2 0x2104 JUMP JUMPDEST SWAP8 POP PUSH2 0x2360 DUP4 PUSH2 0x211B JUMP JUMPDEST SWAP3 POP POP PUSH1 0x1 DUP2 ADD SWAP1 POP PUSH2 0x2341 JUMP JUMPDEST POP DUP6 SWAP4 POP POP POP POP SWAP3 SWAP2 POP POP JUMP JUMPDEST PUSH0 PUSH1 0xE0 DUP4 ADD PUSH0 DUP4 ADD MLOAD PUSH2 0x2390 PUSH0 DUP7 ADD DUP3 PUSH2 0x1F3B JUMP JUMPDEST POP PUSH1 0x20 DUP4 ADD MLOAD PUSH2 0x23A3 PUSH1 0x20 DUP7 ADD DUP3 PUSH2 0x2300 JUMP JUMPDEST POP PUSH1 0x40 DUP4 ADD MLOAD PUSH2 0x23B6 PUSH1 0x40 DUP7 ADD DUP3 PUSH2 0x20F5 JUMP JUMPDEST POP PUSH1 0x60 DUP4 ADD MLOAD DUP5 DUP3 SUB PUSH1 0x60 DUP7 ADD MSTORE PUSH2 0x23CE DUP3 DUP3 PUSH2 0x2002 JUMP JUMPDEST SWAP2 POP POP PUSH1 0x80 DUP4 ADD MLOAD DUP5 DUP3 SUB PUSH1 0x80 DUP7 ADD MSTORE PUSH2 0x23E8 DUP3 DUP3 PUSH2 0x2002 JUMP JUMPDEST SWAP2 POP POP PUSH1 0xA0 DUP4 ADD MLOAD DUP5 DUP3 SUB PUSH1 0xA0 DUP7 ADD MSTORE PUSH2 0x2402 DUP3 DUP3 PUSH2 0x2002 JUMP JUMPDEST SWAP2 POP POP PUSH1 0xC0 DUP4 ADD MLOAD DUP5 DUP3 SUB PUSH1 0xC0 DUP7 ADD MSTORE PUSH2 0x241C DUP3 DUP3 PUSH2 0x231F JUMP JUMPDEST SWAP2 POP POP DUP1 SWAP2 POP POP SWAP3 SWAP2 POP POP JUMP JUMPDEST PUSH0 PUSH1 0x20 DUP3 ADD SWAP1 POP DUP2 DUP2 SUB PUSH0 DUP4 ADD MSTORE PUSH2 0x2441 DUP2 DUP5 PUSH2 0x237B JUMP JUMPDEST SWAP1 POP SWAP3 SWAP2 POP POP JUMP JUMPDEST PUSH0 PUSH1 0x20 DUP3 ADD SWAP1 POP PUSH2 0x245C PUSH0 DUP4 ADD DUP5 PUSH2 0x1B9C JUMP JUMPDEST SWAP3 SWAP2 POP POP JUMP JUMPDEST PUSH32 0x4E487B7100000000000000000000000000000000000000000000000000000000 PUSH0 MSTORE PUSH1 0x22 PUSH1 0x4 MSTORE PUSH1 0x24 PUSH0 REVERT JUMPDEST PUSH0 PUSH1 0x2 DUP3 DIV SWAP1 POP PUSH1 0x1 DUP3 AND DUP1 PUSH2 0x24A6 JUMPI PUSH1 0x7F DUP3 AND SWAP2 POP JUMPDEST PUSH1 0x20 DUP3 LT DUP2 SUB PUSH2 0x24B9 JUMPI PUSH2 0x24B8 PUSH2 0x2462 JUMP JUMPDEST JUMPDEST POP SWAP2 SWAP1 POP JUMP JUMPDEST PUSH32 0x4F6E6C7920446F6E6174696F6E7320636F6E74726163742063616E2063616C6C PUSH0 DUP3 ADD MSTORE PUSH32 0x20746869732066756E6374696F6E2E0000000000000000000000000000000000 PUSH1 0x20 DUP3 ADD MSTORE POP JUMP JUMPDEST PUSH0 PUSH2 0x2519 PUSH1 0x2F DUP4 PUSH2 0x1BCD JUMP JUMPDEST SWAP2 POP PUSH2 0x2524 DUP3 PUSH2 0x24BF JUMP JUMPDEST PUSH1 0x40 DUP3 ADD SWAP1 POP SWAP2 SWAP1 POP JUMP JUMPDEST PUSH0 PUSH1 0x20 DUP3 ADD SWAP1 POP DUP2 DUP2 SUB PUSH0 DUP4 ADD MSTORE PUSH2 0x2546 DUP2 PUSH2 0x250D JUMP JUMPDEST SWAP1 POP SWAP2 SWAP1 POP JUMP JUMPDEST PUSH32 0x4F776E65722070726F66696C6520646F6573206E6F742065786973742E000000 PUSH0 DUP3 ADD MSTORE POP JUMP JUMPDEST PUSH0 PUSH2 0x2581 PUSH1 0x1D DUP4 PUSH2 0x1BCD JUMP JUMPDEST SWAP2 POP PUSH2 0x258C DUP3 PUSH2 0x254D JUMP JUMPDEST PUSH1 0x20 DUP3 ADD SWAP1 POP SWAP2 SWAP1 POP JUMP JUMPDEST PUSH0 PUSH1 0x20 DUP3 ADD SWAP1 POP DUP2 DUP2 SUB PUSH0 DUP4 ADD MSTORE PUSH2 0x25AE DUP2 PUSH2 0x2575 JUMP JUMPDEST SWAP1 POP SWAP2 SWAP1 POP JUMP JUMPDEST PUSH0 DUP2 SWAP1 POP DUP2 PUSH0 MSTORE PUSH1 0x20 PUSH0 KECCAK256 SWAP1 POP SWAP2 SWAP1 POP JUMP JUMPDEST PUSH0 PUSH1 0x20 PUSH1 0x1F DUP4 ADD DIV SWAP1 POP SWAP2 SWAP1 POP JUMP JUMPDEST PUSH0 DUP3 DUP3 SHL SWAP1 POP SWAP3 SWAP2 POP POP JUMP JUMPDEST PUSH0 PUSH1 0x8 DUP4 MUL PUSH2 0x2611 PUSH32 0xFFFFFFFFFFFFFFFFFFFFFFFFFFFFFFFFFFFFFFFFFFFFFFFFFFFFFFFFFFFFFFFF DUP3 PUSH2 0x25D6 JUMP JUMPDEST PUSH2 0x261B DUP7 DUP4 PUSH2 0x25D6 JUMP JUMPDEST SWAP6 POP DUP1 NOT DUP5 AND SWAP4 POP DUP1 DUP7 AND DUP5 OR SWAP3 POP POP POP SWAP4 SWAP3 POP POP POP JUMP JUMPDEST PUSH0 DUP2 SWAP1 POP SWAP2 SWAP1 POP JUMP JUMPDEST PUSH0 PUSH2 0x2656 PUSH2 0x2651 PUSH2 0x264C DUP5 PUSH2 0x1BAB JUMP JUMPDEST PUSH2 0x2633 JUMP JUMPDEST PUSH2 0x1BAB JUMP JUMPDEST SWAP1 POP SWAP2 SWAP1 POP JUMP JUMPDEST PUSH0 DUP2 SWAP1 POP SWAP2 SWAP1 POP JUMP JUMPDEST PUSH2 0x266F DUP4 PUSH2 0x263C JUMP JUMPDEST PUSH2 0x2683 PUSH2 0x267B DUP3 PUSH2 0x265D JUMP JUMPDEST DUP5 DUP5 SLOAD PUSH2 0x25E2 JUMP JUMPDEST DUP3 SSTORE POP POP POP POP JUMP JUMPDEST PUSH0 SWAP1 JUMP JUMPDEST PUSH2 0x2697 PUSH2 0x268B JUMP JUMPDEST PUSH2 0x26A2 DUP2 DUP5 DUP5 PUSH2 0x2666 JUMP JUMPDEST POP POP POP JUMP JUMPDEST JUMPDEST DUP2 DUP2 LT ISZERO PUSH2 0x26C5 JUMPI PUSH2 0x26BA PUSH0 DUP3 PUSH2 0x268F JUMP JUMPDEST PUSH1 0x1 DUP2 ADD SWAP1 POP PUSH2 0x26A8 JUMP JUMPDEST POP POP JUMP JUMPDEST PUSH1 0x1F DUP3 GT ISZERO PUSH2 0x270A JUMPI PUSH2 0x26DB DUP2 PUSH2 0x25B5 JUMP JUMPDEST PUSH2 0x26E4 DUP5 PUSH2 0x25C7 JUMP JUMPDEST DUP2 ADD PUSH1 0x20 DUP6 LT ISZERO PUSH2 0x26F3 JUMPI DUP2 SWAP1 POP JUMPDEST PUSH2 0x2707 PUSH2 0x26FF DUP6 PUSH2 0x25C7 JUMP JUMPDEST DUP4 ADD DUP3 PUSH2 0x26A7 JUMP JUMPDEST POP POP JUMPDEST POP POP POP JUMP JUMPDEST PUSH0 DUP3 DUP3 SHR SWAP1 POP SWAP3 SWAP2 POP POP JUMP JUMPDEST PUSH0 PUSH2 0x272A PUSH0 NOT DUP5 PUSH1 0x8 MUL PUSH2 0x270F JUMP JUMPDEST NOT DUP1 DUP4 AND SWAP2 POP POP SWAP3 SWAP2 POP POP JUMP JUMPDEST PUSH0 PUSH2 0x2742 DUP4 DUP4 PUSH2 0x271B JUMP JUMPDEST SWAP2 POP DUP3 PUSH1 0x2 MUL DUP3 OR SWAP1 POP SWAP3 SWAP2 POP POP JUMP JUMPDEST PUSH2 0x275B DUP3 PUSH2 0x1BC3 JUMP JUMPDEST PUSH8 0xFFFFFFFFFFFFFFFF DUP2 GT ISZERO PUSH2 0x2774 JUMPI PUSH2 0x2773 PUSH2 0x1D17 JUMP JUMPDEST JUMPDEST PUSH2 0x277E DUP3 SLOAD PUSH2 0x248F JUMP JUMPDEST PUSH2 0x2789 DUP3 DUP3 DUP6 PUSH2 0x26C9 JUMP JUMPDEST PUSH0 PUSH1 0x20 SWAP1 POP PUSH1 0x1F DUP4 GT PUSH1 0x1 DUP2 EQ PUSH2 0x27BA JUMPI PUSH0 DUP5 ISZERO PUSH2 0x27A8 JUMPI DUP3 DUP8 ADD MLOAD SWAP1 POP JUMPDEST PUSH2 0x27B2 DUP6 DUP3 PUSH2 0x2737 JUMP JUMPDEST DUP7 SSTORE POP PUSH2 0x2819 JUMP JUMPDEST PUSH1 0x1F NOT DUP5 AND PUSH2 0x27C8 DUP7 PUSH2 0x25B5 JUMP JUMPDEST PUSH0 JUMPDEST DUP3 DUP2 LT ISZERO PUSH2 0x27EF JUMPI DUP5 DUP10 ADD MLOAD DUP3 SSTORE PUSH1 0x1 DUP3 ADD SWAP2 POP PUSH1 0x20 DUP6 ADD SWAP5 POP PUSH1 0x20 DUP2 ADD SWAP1 POP PUSH2 0x27CA JUMP JUMPDEST DUP7 DUP4 LT ISZERO PUSH2 0x280C JUMPI DUP5 DUP10 ADD MLOAD PUSH2 0x2808 PUSH1 0x1F DUP10 AND DUP3 PUSH2 0x271B JUMP JUMPDEST DUP4 SSTORE POP JUMPDEST PUSH1 0x1 PUSH1 0x2 DUP9 MUL ADD DUP9 SSTORE POP POP POP JUMPDEST POP POP POP POP POP POP JUMP JUMPDEST PUSH32 0x50726F66696C6520646F6573206E6F7420657869737400000000000000000000 PUSH0 DUP3 ADD MSTORE POP JUMP JUMPDEST PUSH0 PUSH2 0x2855 PUSH1 0x16 DUP4 PUSH2 0x1BCD JUMP JUMPDEST SWAP2 POP PUSH2 0x2860 DUP3 PUSH2 0x2821 JUMP JUMPDEST PUSH1 0x20 DUP3 ADD SWAP1 POP SWAP2 SWAP1 POP JUMP JUMPDEST PUSH0 PUSH1 0x20 DUP3 ADD SWAP1 POP DUP2 DUP2 SUB PUSH0 DUP4 ADD MSTORE PUSH2 0x2882 DUP2 PUSH2 0x2849 JUMP JUMPDEST SWAP1 POP SWAP2 SWAP1 POP JUMP JUMPDEST PUSH32 0x4E487B7100000000000000000000000000000000000000000000000000000000 PUSH0 MSTORE PUSH1 0x32 PUSH1 0x4 MSTORE PUSH1 0x24 PUSH0 REVERT JUMPDEST PUSH0 PUSH1 0x20 DUP3 ADD SWAP1 POP PUSH2 0x28C9 PUSH0 DUP4 ADD DUP5 PUSH2 0x1BB4 JUMP JUMPDEST SWAP3 SWAP2 POP POP JUMP JUMPDEST PUSH0 DUP2 MLOAD SWAP1 POP PUSH2 0x28DD DUP2 PUSH2 0x1AD4 JUMP JUMPDEST SWAP3 SWAP2 POP POP JUMP JUMPDEST PUSH0 PUSH2 0x28F5 PUSH2 0x28F0 DUP5 PUSH2 0x1D8F JUMP JUMPDEST PUSH2 0x1D75 JUMP JUMPDEST SWAP1 POP DUP3 DUP2 MSTORE PUSH1 0x20 DUP2 ADD DUP5 DUP5 DUP5 ADD GT ISZERO PUSH2 0x2911 JUMPI PUSH2 0x2910 PUSH2 0x1D13 JUMP JUMPDEST JUMPDEST PUSH2 0x291C DUP5 DUP3 DUP6 PUSH2 0x1BDD JUMP JUMPDEST POP SWAP4 SWAP3 POP POP POP JUMP JUMPDEST PUSH0 DUP3 PUSH1 0x1F DUP4 ADD SLT PUSH2 0x2938 JUMPI PUSH2 0x2937 PUSH2 0x1D0F JUMP JUMPDEST JUMPDEST DUP2 MLOAD PUSH2 0x2948 DUP5 DUP3 PUSH1 0x20 DUP7 ADD PUSH2 0x28E3 JUMP JUMPDEST SWAP2 POP POP SWAP3 SWAP2 POP POP JUMP JUMPDEST PUSH0 DUP2 MLOAD SWAP1 POP PUSH2 0x295F DUP2 PUSH2 0x1CA7 JUMP JUMPDEST SWAP3 SWAP2 POP POP JUMP JUMPDEST PUSH0 DUP1 PUSH0 DUP1 PUSH0 DUP1 PUSH1 0xC0 DUP8 DUP10 SUB SLT ISZERO PUSH2 0x297F JUMPI PUSH2 0x297E PUSH2 0x1A9C JUMP JUMPDEST JUMPDEST PUSH0 PUSH2 0x298C DUP10 DUP3 DUP11 ADD PUSH2 0x28CF JUMP JUMPDEST SWAP7 POP POP PUSH1 0x20 DUP8 ADD MLOAD PUSH8 0xFFFFFFFFFFFFFFFF DUP2 GT ISZERO PUSH2 0x29AD JUMPI PUSH2 0x29AC PUSH2 0x1AA0 JUMP JUMPDEST JUMPDEST PUSH2 0x29B9 DUP10 DUP3 DUP11 ADD PUSH2 0x2924 JUMP JUMPDEST SWAP6 POP POP PUSH1 0x40 DUP8 ADD MLOAD PUSH8 0xFFFFFFFFFFFFFFFF DUP2 GT ISZERO PUSH2 0x29DA JUMPI PUSH2 0x29D9 PUSH2 0x1AA0 JUMP JUMPDEST JUMPDEST PUSH2 0x29E6 DUP10 DUP3 DUP11 ADD PUSH2 0x2924 JUMP JUMPDEST SWAP5 POP POP PUSH1 0x60 PUSH2 0x29F7 DUP10 DUP3 DUP11 ADD PUSH2 0x2951 JUMP JUMPDEST SWAP4 POP POP PUSH1 0x80 PUSH2 0x2A08 DUP10 DUP3 DUP11 ADD PUSH2 0x2951 JUMP JUMPDEST SWAP3 POP POP PUSH1 0xA0 PUSH2 0x2A19 DUP10 DUP3 DUP11 ADD PUSH2 0x2951 JUMP JUMPDEST SWAP2 POP POP SWAP3 SWAP6 POP SWAP3 SWAP6 POP SWAP3 SWAP6 JUMP JUMPDEST PUSH32 0x4F776E65722070726F66696C6520616C7265616479206578697374732E000000 PUSH0 DUP3 ADD MSTORE POP JUMP JUMPDEST PUSH0 PUSH2 0x2A5A PUSH1 0x1D DUP4 PUSH2 0x1BCD JUMP JUMPDEST SWAP2 POP PUSH2 0x2A65 DUP3 PUSH2 0x2A26 JUMP JUMPDEST PUSH1 0x20 DUP3 ADD SWAP1 POP SWAP2 SWAP1 POP JUMP JUMPDEST PUSH0 PUSH1 0x20 DUP3 ADD SWAP1 POP DUP2 DUP2 SUB PUSH0 DUP4 ADD MSTORE PUSH2 0x2A87 DUP2 PUSH2 0x2A4E JUMP JUMPDEST SWAP1 POP SWAP2 SWAP1 POP JUMP INVALID LOG2 PUSH5 0x6970667358 0x22 SLT KECCAK256 PUSH22 0x505C1DB8A335BD66609CBC43BC1F21CD176EB6AA8BED 0xC8 MSIZE 0xFC PUSH23 0x7EA7EF500464736F6C634300081A003300000000000000 "
				},
				"gasEstimates": {
					"creation": {
						"codeDepositCost": "2189600",
						"executionCost": "2336",
						"totalCost": "2191936"
					},
					"external": {
						"addCampaign(address,uint256)": "51588",
						"createOwnerProfile(uint8,string,string,string)": "infinite",
						"donationsContract()": "2530",
						"getCampaigns(address)": "infinite",
						"getDonationAddress()": "2559",
						"getOwnerDetails(address)": "infinite",
						"getOwnerRole(address)": "3124",
						"isProfileActive(address)": "infinite",
						"isProfileOwner(address)": "infinite",
						"owners(address)": "infinite",
						"setDonationsContract(address)": "49048",
						"updateOwnerProfile(string,string,string)": "infinite"
					}
				},
				"methodIdentifiers": {
					"addCampaign(address,uint256)": "03d7a671",
					"createOwnerProfile(uint8,string,string,string)": "1afd3e8d",
					"donationsContract()": "35f85c5a",
					"getCampaigns(address)": "1693bfa1",
					"getDonationAddress()": "54c03ab7",
					"getOwnerDetails(address)": "c3bb8121",
					"getOwnerRole(address)": "f5110205",
					"isProfileActive(address)": "abaf78d4",
					"isProfileOwner(address)": "13c876a2",
					"owners(address)": "022914a7",
					"setDonationsContract(address)": "0eb8d0e8",
					"updateOwnerProfile(string,string,string)": "09261a9e"
				}
			},
			"storageLayout": {
				"storage": [
					{
						"astId": 45,
						"contract": "Blockchain_project/ProfileManager.sol:ProfileManager",
						"label": "owners",
						"offset": 0,
						"slot": "0",
						"type": "t_mapping(t_address,t_struct(Owner)40_storage)"
					},
					{
						"astId": 47,
						"contract": "Blockchain_project/ProfileManager.sol:ProfileManager",
						"label": "donationsContract",
						"offset": 0,
						"slot": "1",
						"type": "t_address"
					},
					{
						"astId": 50,
						"contract": "Blockchain_project/ProfileManager.sol:ProfileManager",
						"label": "donationsInstance",
						"offset": 0,
						"slot": "2",
						"type": "t_contract(DonationsInterface)19"
					}
				],
				"types": {
					"t_address": {
						"encoding": "inplace",
						"label": "address",
						"numberOfBytes": "20"
					},
					"t_array(t_uint256)dyn_storage": {
						"base": "t_uint256",
						"encoding": "dynamic_array",
						"label": "uint256[]",
						"numberOfBytes": "32"
					},
					"t_contract(DonationsInterface)19": {
						"encoding": "inplace",
						"label": "contract DonationsInterface",
						"numberOfBytes": "20"
					},
					"t_enum(Role)23": {
						"encoding": "inplace",
						"label": "enum ProfileManager.Role",
						"numberOfBytes": "1"
					},
					"t_mapping(t_address,t_struct(Owner)40_storage)": {
						"encoding": "mapping",
						"key": "t_address",
						"label": "mapping(address => struct ProfileManager.Owner)",
						"numberOfBytes": "32",
						"value": "t_struct(Owner)40_storage"
					},
					"t_string_storage": {
						"encoding": "bytes",
						"label": "string",
						"numberOfBytes": "32"
					},
					"t_struct(Owner)40_storage": {
						"encoding": "inplace",
						"label": "struct ProfileManager.Owner",
						"members": [
							{
								"astId": 25,
								"contract": "Blockchain_project/ProfileManager.sol:ProfileManager",
								"label": "ownerAddress",
								"offset": 0,
								"slot": "0",
								"type": "t_address"
							},
							{
								"astId": 28,
								"contract": "Blockchain_project/ProfileManager.sol:ProfileManager",
								"label": "role",
								"offset": 20,
								"slot": "0",
								"type": "t_enum(Role)23"
							},
							{
								"astId": 30,
								"contract": "Blockchain_project/ProfileManager.sol:ProfileManager",
								"label": "creationDate",
								"offset": 0,
								"slot": "1",
								"type": "t_uint256"
							},
							{
								"astId": 32,
								"contract": "Blockchain_project/ProfileManager.sol:ProfileManager",
								"label": "name",
								"offset": 0,
								"slot": "2",
								"type": "t_string_storage"
							},
							{
								"astId": 34,
								"contract": "Blockchain_project/ProfileManager.sol:ProfileManager",
								"label": "profileImage",
								"offset": 0,
								"slot": "3",
								"type": "t_string_storage"
							},
							{
								"astId": 36,
								"contract": "Blockchain_project/ProfileManager.sol:ProfileManager",
								"label": "description",
								"offset": 0,
								"slot": "4",
								"type": "t_string_storage"
							},
							{
								"astId": 39,
								"contract": "Blockchain_project/ProfileManager.sol:ProfileManager",
								"label": "campaignIds",
								"offset": 0,
								"slot": "5",
								"type": "t_array(t_uint256)dyn_storage"
							}
						],
						"numberOfBytes": "192"
					},
					"t_uint256": {
						"encoding": "inplace",
						"label": "uint256",
						"numberOfBytes": "32"
					}
				}
			},
			"userdoc": {
				"kind": "user",
				"methods": {},
				"version": 1
			}
		}
	}
}