{
	"Blockchain_project/ProfileManager.sol": {
		"ProfileManager": {
			"abi": [
				{
					"inputs": [
						{
							"internalType": "address",
							"name": "_donationsContract",
							"type": "address"
						}
					],
					"stateMutability": "nonpayable",
					"type": "constructor"
				},
				{
					"inputs": [
						{
							"internalType": "address",
							"name": "_ownerAddress",
							"type": "address"
						},
						{
							"internalType": "uint256",
							"name": "_campaignId",
							"type": "uint256"
						}
					],
					"name": "addCampaign",
					"outputs": [],
					"stateMutability": "nonpayable",
					"type": "function"
				},
				{
					"inputs": [
						{
							"internalType": "enum ProfileManager.Role",
							"name": "_role",
							"type": "uint8"
						},
						{
							"internalType": "string",
							"name": "_name",
							"type": "string"
						},
						{
							"internalType": "string",
							"name": "_profileImage",
							"type": "string"
						},
						{
							"internalType": "string",
							"name": "_description",
							"type": "string"
						}
					],
					"name": "createOwnerProfile",
					"outputs": [],
					"stateMutability": "nonpayable",
					"type": "function"
				},
				{
					"inputs": [],
					"name": "donationsContract",
					"outputs": [
						{
							"internalType": "address",
							"name": "",
							"type": "address"
						}
					],
					"stateMutability": "view",
					"type": "function"
				},
				{
					"inputs": [
						{
							"internalType": "address",
							"name": "_ownerAddress",
							"type": "address"
						}
					],
					"name": "getCampaigns",
					"outputs": [
						{
							"internalType": "string[]",
							"name": "titles",
							"type": "string[]"
						},
						{
							"internalType": "string[]",
							"name": "descriptions",
							"type": "string[]"
						},
						{
							"internalType": "address[]",
							"name": "creators",
							"type": "address[]"
						},
						{
							"internalType": "uint256[]",
							"name": "targets",
							"type": "uint256[]"
						},
						{
							"internalType": "uint256[]",
							"name": "deadlines",
							"type": "uint256[]"
						},
						{
							"internalType": "string[]",
							"name": "statuses",
							"type": "string[]"
						},
						{
							"internalType": "address[][]",
							"name": "contributors",
							"type": "address[][]"
						}
					],
					"stateMutability": "view",
					"type": "function"
				},
				{
					"inputs": [
						{
							"internalType": "address",
							"name": "_ownerAddress",
							"type": "address"
						}
					],
					"name": "getOwnerDetails",
					"outputs": [
						{
							"components": [
								{
									"internalType": "address",
									"name": "ownerAddress",
									"type": "address"
								},
								{
									"internalType": "enum ProfileManager.Role",
									"name": "role",
									"type": "uint8"
								},
								{
									"internalType": "uint256",
									"name": "creationDate",
									"type": "uint256"
								},
								{
									"internalType": "string",
									"name": "name",
									"type": "string"
								},
								{
									"internalType": "string",
									"name": "profileImage",
									"type": "string"
								},
								{
									"internalType": "string",
									"name": "description",
									"type": "string"
								},
								{
									"internalType": "uint256[]",
									"name": "campaignIds",
									"type": "uint256[]"
								}
							],
							"internalType": "struct ProfileManager.Owner",
							"name": "",
							"type": "tuple"
						}
					],
					"stateMutability": "view",
					"type": "function"
				},
				{
					"inputs": [
						{
							"internalType": "address",
							"name": "_ownerAddress",
							"type": "address"
						}
					],
					"name": "getOwnerRole",
					"outputs": [
						{
							"internalType": "enum ProfileManager.Role",
							"name": "",
							"type": "uint8"
						}
					],
					"stateMutability": "view",
					"type": "function"
				},
				{
					"inputs": [
						{
							"internalType": "address",
							"name": "_user",
							"type": "address"
						}
					],
					"name": "isProfileActive",
					"outputs": [
						{
							"internalType": "bool",
							"name": "",
							"type": "bool"
						}
					],
					"stateMutability": "view",
					"type": "function"
				},
				{
					"inputs": [
						{
							"internalType": "address",
							"name": "_user",
							"type": "address"
						}
					],
					"name": "isProfileOwner",
					"outputs": [
						{
							"internalType": "bool",
							"name": "",
							"type": "bool"
						}
					],
					"stateMutability": "view",
					"type": "function"
				},
				{
					"inputs": [
						{
							"internalType": "address",
							"name": "",
							"type": "address"
						}
					],
					"name": "owners",
					"outputs": [
						{
							"internalType": "address",
							"name": "ownerAddress",
							"type": "address"
						},
						{
							"internalType": "enum ProfileManager.Role",
							"name": "role",
							"type": "uint8"
						},
						{
							"internalType": "uint256",
							"name": "creationDate",
							"type": "uint256"
						},
						{
							"internalType": "string",
							"name": "name",
							"type": "string"
						},
						{
							"internalType": "string",
							"name": "profileImage",
							"type": "string"
						},
						{
							"internalType": "string",
							"name": "description",
							"type": "string"
						}
					],
					"stateMutability": "view",
					"type": "function"
				},
				{
					"inputs": [
						{
							"internalType": "string",
							"name": "_name",
							"type": "string"
						},
						{
							"internalType": "string",
							"name": "_profileImage",
							"type": "string"
						},
						{
							"internalType": "string",
							"name": "_description",
							"type": "string"
						}
					],
					"name": "updateOwnerProfile",
					"outputs": [],
					"stateMutability": "nonpayable",
					"type": "function"
				}
			],
			"devdoc": {
				"kind": "dev",
				"methods": {},
				"version": 1
			},
			"evm": {
				"assembly": "    /* \"Blockchain_project/ProfileManager.sol\":382:5282  contract ProfileManager {... */\n  mstore(0x40, 0x80)\n    /* \"Blockchain_project/ProfileManager.sol\":1312:1475  constructor(address _donationsContract) {... */\n  callvalue\n  dup1\n  iszero\n  tag_1\n  jumpi\n  0x00\n  dup1\n  revert\ntag_1:\n  pop\n  mload(0x40)\n  sub(codesize, bytecodeSize)\n  dup1\n  bytecodeSize\n  dup4\n  codecopy\n  dup2\n  dup2\n  add\n  0x40\n  mstore\n  dup2\n  add\n  swap1\n  tag_2\n  swap2\n  swap1\n  tag_3\n  jump\t// in\ntag_2:\n    /* \"Blockchain_project/ProfileManager.sol\":1382:1400  _donationsContract */\n  dup1\n    /* \"Blockchain_project/ProfileManager.sol\":1362:1379  donationsContract */\n  0x01\n  0x00\n    /* \"Blockchain_project/ProfileManager.sol\":1362:1400  donationsContract = _donationsContract */\n  0x0100\n  exp\n  dup2\n  sload\n  dup2\n  0xffffffffffffffffffffffffffffffffffffffff\n  mul\n  not\n  and\n  swap1\n  dup4\n  0xffffffffffffffffffffffffffffffffffffffff\n  and\n  mul\n  or\n  swap1\n  sstore\n  pop\n    /* \"Blockchain_project/ProfileManager.sol\":1449:1467  _donationsContract */\n  dup1\n    /* \"Blockchain_project/ProfileManager.sol\":1410:1427  donationsInstance */\n  0x02\n  0x00\n    /* \"Blockchain_project/ProfileManager.sol\":1410:1468  donationsInstance = DonationsInterface(_donationsContract) */\n  0x0100\n  exp\n  dup2\n  sload\n  dup2\n  0xffffffffffffffffffffffffffffffffffffffff\n  mul\n  not\n  and\n  swap1\n  dup4\n  0xffffffffffffffffffffffffffffffffffffffff\n  and\n  mul\n  or\n  swap1\n  sstore\n  pop\n    /* \"Blockchain_project/ProfileManager.sol\":1312:1475  constructor(address _donationsContract) {... */\n  pop\n    /* \"Blockchain_project/ProfileManager.sol\":382:5282  contract ProfileManager {... */\n  jump(tag_6)\n    /* \"#utility.yul\":88:205   */\ntag_8:\n    /* \"#utility.yul\":197:198   */\n  0x00\n    /* \"#utility.yul\":194:195   */\n  dup1\n    /* \"#utility.yul\":187:199   */\n  revert\n    /* \"#utility.yul\":334:460   */\ntag_10:\n    /* \"#utility.yul\":371:378   */\n  0x00\n    /* \"#utility.yul\":411:453   */\n  0xffffffffffffffffffffffffffffffffffffffff\n    /* \"#utility.yul\":404:409   */\n  dup3\n    /* \"#utility.yul\":400:454   */\n  and\n    /* \"#utility.yul\":389:454   */\n  swap1\n  pop\n    /* \"#utility.yul\":334:460   */\n  swap2\n  swap1\n  pop\n  jump\t// out\n    /* \"#utility.yul\":466:562   */\ntag_11:\n    /* \"#utility.yul\":503:510   */\n  0x00\n    /* \"#utility.yul\":532:556   */\n  tag_20\n    /* \"#utility.yul\":550:555   */\n  dup3\n    /* \"#utility.yul\":532:556   */\n  tag_10\n  jump\t// in\ntag_20:\n    /* \"#utility.yul\":521:556   */\n  swap1\n  pop\n    /* \"#utility.yul\":466:562   */\n  swap2\n  swap1\n  pop\n  jump\t// out\n    /* \"#utility.yul\":568:690   */\ntag_12:\n    /* \"#utility.yul\":641:665   */\n  tag_22\n    /* \"#utility.yul\":659:664   */\n  dup2\n    /* \"#utility.yul\":641:665   */\n  tag_11\n  jump\t// in\ntag_22:\n    /* \"#utility.yul\":634:639   */\n  dup2\n    /* \"#utility.yul\":631:666   */\n  eq\n    /* \"#utility.yul\":621:684   */\n  tag_23\n  jumpi\n    /* \"#utility.yul\":680:681   */\n  0x00\n    /* \"#utility.yul\":677:678   */\n  dup1\n    /* \"#utility.yul\":670:682   */\n  revert\n    /* \"#utility.yul\":621:684   */\ntag_23:\n    /* \"#utility.yul\":568:690   */\n  pop\n  jump\t// out\n    /* \"#utility.yul\":696:839   */\ntag_13:\n    /* \"#utility.yul\":753:758   */\n  0x00\n    /* \"#utility.yul\":784:790   */\n  dup2\n    /* \"#utility.yul\":778:791   */\n  mload\n    /* \"#utility.yul\":769:791   */\n  swap1\n  pop\n    /* \"#utility.yul\":800:833   */\n  tag_25\n    /* \"#utility.yul\":827:832   */\n  dup2\n    /* \"#utility.yul\":800:833   */\n  tag_12\n  jump\t// in\ntag_25:\n    /* \"#utility.yul\":696:839   */\n  swap3\n  swap2\n  pop\n  pop\n  jump\t// out\n    /* \"#utility.yul\":845:1196   */\ntag_3:\n    /* \"#utility.yul\":915:921   */\n  0x00\n    /* \"#utility.yul\":964:966   */\n  0x20\n    /* \"#utility.yul\":952:961   */\n  dup3\n    /* \"#utility.yul\":943:950   */\n  dup5\n    /* \"#utility.yul\":939:962   */\n  sub\n    /* \"#utility.yul\":935:967   */\n  slt\n    /* \"#utility.yul\":932:1051   */\n  iszero\n  tag_27\n  jumpi\n    /* \"#utility.yul\":970:1049   */\n  tag_28\n  tag_8\n  jump\t// in\ntag_28:\n    /* \"#utility.yul\":932:1051   */\ntag_27:\n    /* \"#utility.yul\":1090:1091   */\n  0x00\n    /* \"#utility.yul\":1115:1179   */\n  tag_29\n    /* \"#utility.yul\":1171:1178   */\n  dup5\n    /* \"#utility.yul\":1162:1168   */\n  dup3\n    /* \"#utility.yul\":1151:1160   */\n  dup6\n    /* \"#utility.yul\":1147:1169   */\n  add\n    /* \"#utility.yul\":1115:1179   */\n  tag_13\n  jump\t// in\ntag_29:\n    /* \"#utility.yul\":1105:1179   */\n  swap2\n  pop\n    /* \"#utility.yul\":1061:1189   */\n  pop\n    /* \"#utility.yul\":845:1196   */\n  swap3\n  swap2\n  pop\n  pop\n  jump\t// out\n    /* \"Blockchain_project/ProfileManager.sol\":382:5282  contract ProfileManager {... */\ntag_6:\n  dataSize(sub_0)\n  dup1\n  dataOffset(sub_0)\n  0x00\n  codecopy\n  0x00\n  return\nstop\n\nsub_0: assembly {\n        /* \"Blockchain_project/ProfileManager.sol\":382:5282  contract ProfileManager {... */\n      mstore(0x40, 0x80)\n      callvalue\n      dup1\n      iszero\n      tag_1\n      jumpi\n      0x00\n      dup1\n      revert\n    tag_1:\n      pop\n      jumpi(tag_2, lt(calldatasize, 0x04))\n      shr(0xe0, calldataload(0x00))\n      dup1\n      0x1afd3e8d\n      gt\n      tag_13\n      jumpi\n      dup1\n      0x1afd3e8d\n      eq\n      tag_8\n      jumpi\n      dup1\n      0x35f85c5a\n      eq\n      tag_9\n      jumpi\n      dup1\n      0xabaf78d4\n      eq\n      tag_10\n      jumpi\n      dup1\n      0xc3bb8121\n      eq\n      tag_11\n      jumpi\n      dup1\n      0xf5110205\n      eq\n      tag_12\n      jumpi\n      jump(tag_2)\n    tag_13:\n      dup1\n      0x022914a7\n      eq\n      tag_3\n      jumpi\n      dup1\n      0x03d7a671\n      eq\n      tag_4\n      jumpi\n      dup1\n      0x09261a9e\n      eq\n      tag_5\n      jumpi\n      dup1\n      0x13c876a2\n      eq\n      tag_6\n      jumpi\n      dup1\n      0x1693bfa1\n      eq\n      tag_7\n      jumpi\n    tag_2:\n      0x00\n      dup1\n      revert\n        /* \"Blockchain_project/ProfileManager.sol\":790:829  mapping(address => Owner) public owners */\n    tag_3:\n      tag_14\n      0x04\n      dup1\n      calldatasize\n      sub\n      dup2\n      add\n      swap1\n      tag_15\n      swap2\n      swap1\n      tag_16\n      jump\t// in\n    tag_15:\n      tag_17\n      jump\t// in\n    tag_14:\n      mload(0x40)\n      tag_18\n      swap7\n      swap6\n      swap5\n      swap4\n      swap3\n      swap2\n      swap1\n      tag_19\n      jump\t// in\n    tag_18:\n      mload(0x40)\n      dup1\n      swap2\n      sub\n      swap1\n      return\n        /* \"Blockchain_project/ProfileManager.sol\":3422:3813  function addCampaign(... */\n    tag_4:\n      tag_20\n      0x04\n      dup1\n      calldatasize\n      sub\n      dup2\n      add\n      swap1\n      tag_21\n      swap2\n      swap1\n      tag_22\n      jump\t// in\n    tag_21:\n      tag_23\n      jump\t// in\n    tag_20:\n      stop\n        /* \"Blockchain_project/ProfileManager.sol\":2680:3113  function updateOwnerProfile(... */\n    tag_5:\n      tag_24\n      0x04\n      dup1\n      calldatasize\n      sub\n      dup2\n      add\n      swap1\n      tag_25\n      swap2\n      swap1\n      tag_26\n      jump\t// in\n    tag_25:\n      tag_27\n      jump\t// in\n    tag_24:\n      stop\n        /* \"Blockchain_project/ProfileManager.sol\":2230:2378  function isProfileOwner(address _user) public view onlyDonationsContract  returns (bool) {... */\n    tag_6:\n      tag_28\n      0x04\n      dup1\n      calldatasize\n      sub\n      dup2\n      add\n      swap1\n      tag_29\n      swap2\n      swap1\n      tag_16\n      jump\t// in\n    tag_29:\n      tag_30\n      jump\t// in\n    tag_28:\n      mload(0x40)\n      tag_31\n      swap2\n      swap1\n      tag_32\n      jump\t// in\n    tag_31:\n      mload(0x40)\n      dup1\n      swap2\n      sub\n      swap1\n      return\n        /* \"Blockchain_project/ProfileManager.sol\":3900:5108  function getCampaigns(address _ownerAddress)... */\n    tag_7:\n      tag_33\n      0x04\n      dup1\n      calldatasize\n      sub\n      dup2\n      add\n      swap1\n      tag_34\n      swap2\n      swap1\n      tag_16\n      jump\t// in\n    tag_34:\n      tag_35\n      jump\t// in\n    tag_33:\n      mload(0x40)\n      tag_36\n      swap8\n      swap7\n      swap6\n      swap5\n      swap4\n      swap3\n      swap2\n      swap1\n      tag_37\n      jump\t// in\n    tag_36:\n      mload(0x40)\n      dup1\n      swap2\n      sub\n      swap1\n      return\n        /* \"Blockchain_project/ProfileManager.sol\":1524:2168  function createOwnerProfile(... */\n    tag_8:\n      tag_38\n      0x04\n      dup1\n      calldatasize\n      sub\n      dup2\n      add\n      swap1\n      tag_39\n      swap2\n      swap1\n      tag_40\n      jump\t// in\n    tag_39:\n      tag_41\n      jump\t// in\n    tag_38:\n      stop\n        /* \"Blockchain_project/ProfileManager.sol\":884:916  address public donationsContract */\n    tag_9:\n      tag_42\n      tag_43\n      jump\t// in\n    tag_42:\n      mload(0x40)\n      tag_44\n      swap2\n      swap1\n      tag_45\n      jump\t// in\n    tag_44:\n      mload(0x40)\n      dup1\n      swap2\n      sub\n      swap1\n      return\n        /* \"Blockchain_project/ProfileManager.sol\":2430:2584  function isProfileActive(address _user) public view onlyDonationsContract  returns (bool) {... */\n    tag_10:\n      tag_46\n      0x04\n      dup1\n      calldatasize\n      sub\n      dup2\n      add\n      swap1\n      tag_47\n      swap2\n      swap1\n      tag_16\n      jump\t// in\n    tag_47:\n      tag_48\n      jump\t// in\n    tag_46:\n      mload(0x40)\n      tag_49\n      swap2\n      swap1\n      tag_32\n      jump\t// in\n    tag_49:\n      mload(0x40)\n      dup1\n      swap2\n      sub\n      swap1\n      return\n        /* \"Blockchain_project/ProfileManager.sol\":3161:3317  function getOwnerDetails(address _ownerAddress)... */\n    tag_11:\n      tag_50\n      0x04\n      dup1\n      calldatasize\n      sub\n      dup2\n      add\n      swap1\n      tag_51\n      swap2\n      swap1\n      tag_16\n      jump\t// in\n    tag_51:\n      tag_52\n      jump\t// in\n    tag_50:\n      mload(0x40)\n      tag_53\n      swap2\n      swap1\n      tag_54\n      jump\t// in\n    tag_53:\n      mload(0x40)\n      dup1\n      swap2\n      sub\n      swap1\n      return\n        /* \"Blockchain_project/ProfileManager.sol\":5158:5280  function getOwnerRole(address _ownerAddress) public view returns (Role) {... */\n    tag_12:\n      tag_55\n      0x04\n      dup1\n      calldatasize\n      sub\n      dup2\n      add\n      swap1\n      tag_56\n      swap2\n      swap1\n      tag_16\n      jump\t// in\n    tag_56:\n      tag_57\n      jump\t// in\n    tag_55:\n      mload(0x40)\n      tag_58\n      swap2\n      swap1\n      tag_59\n      jump\t// in\n    tag_58:\n      mload(0x40)\n      dup1\n      swap2\n      sub\n      swap1\n      return\n        /* \"Blockchain_project/ProfileManager.sol\":790:829  mapping(address => Owner) public owners */\n    tag_17:\n      mstore(0x20, 0x00)\n      dup1\n      0x00\n      mstore\n      keccak256(0x00, 0x40)\n      0x00\n      swap2\n      pop\n      swap1\n      pop\n      dup1\n      0x00\n      add\n      0x00\n      swap1\n      sload\n      swap1\n      0x0100\n      exp\n      swap1\n      div\n      0xffffffffffffffffffffffffffffffffffffffff\n      and\n      swap1\n      dup1\n      0x00\n      add\n      0x14\n      swap1\n      sload\n      swap1\n      0x0100\n      exp\n      swap1\n      div\n      0xff\n      and\n      swap1\n      dup1\n      0x01\n      add\n      sload\n      swap1\n      dup1\n      0x02\n      add\n      dup1\n      sload\n      tag_60\n      swap1\n      tag_61\n      jump\t// in\n    tag_60:\n      dup1\n      0x1f\n      add\n      0x20\n      dup1\n      swap2\n      div\n      mul\n      0x20\n      add\n      mload(0x40)\n      swap1\n      dup2\n      add\n      0x40\n      mstore\n      dup1\n      swap3\n      swap2\n      swap1\n      dup2\n      dup2\n      mstore\n      0x20\n      add\n      dup3\n      dup1\n      sload\n      tag_62\n      swap1\n      tag_61\n      jump\t// in\n    tag_62:\n      dup1\n      iszero\n      tag_63\n      jumpi\n      dup1\n      0x1f\n      lt\n      tag_64\n      jumpi\n      0x0100\n      dup1\n      dup4\n      sload\n      div\n      mul\n      dup4\n      mstore\n      swap2\n      0x20\n      add\n      swap2\n      jump(tag_63)\n    tag_64:\n      dup3\n      add\n      swap2\n      swap1\n      0x00\n      mstore\n      keccak256(0x00, 0x20)\n      swap1\n    tag_65:\n      dup2\n      sload\n      dup2\n      mstore\n      swap1\n      0x01\n      add\n      swap1\n      0x20\n      add\n      dup1\n      dup4\n      gt\n      tag_65\n      jumpi\n      dup3\n      swap1\n      sub\n      0x1f\n      and\n      dup3\n      add\n      swap2\n    tag_63:\n      pop\n      pop\n      pop\n      pop\n      pop\n      swap1\n      dup1\n      0x03\n      add\n      dup1\n      sload\n      tag_66\n      swap1\n      tag_61\n      jump\t// in\n    tag_66:\n      dup1\n      0x1f\n      add\n      0x20\n      dup1\n      swap2\n      div\n      mul\n      0x20\n      add\n      mload(0x40)\n      swap1\n      dup2\n      add\n      0x40\n      mstore\n      dup1\n      swap3\n      swap2\n      swap1\n      dup2\n      dup2\n      mstore\n      0x20\n      add\n      dup3\n      dup1\n      sload\n      tag_67\n      swap1\n      tag_61\n      jump\t// in\n    tag_67:\n      dup1\n      iszero\n      tag_68\n      jumpi\n      dup1\n      0x1f\n      lt\n      tag_69\n      jumpi\n      0x0100\n      dup1\n      dup4\n      sload\n      div\n      mul\n      dup4\n      mstore\n      swap2\n      0x20\n      add\n      swap2\n      jump(tag_68)\n    tag_69:\n      dup3\n      add\n      swap2\n      swap1\n      0x00\n      mstore\n      keccak256(0x00, 0x20)\n      swap1\n    tag_70:\n      dup2\n      sload\n      dup2\n      mstore\n      swap1\n      0x01\n      add\n      swap1\n      0x20\n      add\n      dup1\n      dup4\n      gt\n      tag_70\n      jumpi\n      dup3\n      swap1\n      sub\n      0x1f\n      and\n      dup3\n      add\n      swap2\n    tag_68:\n      pop\n      pop\n      pop\n      pop\n      pop\n      swap1\n      dup1\n      0x04\n      add\n      dup1\n      sload\n      tag_71\n      swap1\n      tag_61\n      jump\t// in\n    tag_71:\n      dup1\n      0x1f\n      add\n      0x20\n      dup1\n      swap2\n      div\n      mul\n      0x20\n      add\n      mload(0x40)\n      swap1\n      dup2\n      add\n      0x40\n      mstore\n      dup1\n      swap3\n      swap2\n      swap1\n      dup2\n      dup2\n      mstore\n      0x20\n      add\n      dup3\n      dup1\n      sload\n      tag_72\n      swap1\n      tag_61\n      jump\t// in\n    tag_72:\n      dup1\n      iszero\n      tag_73\n      jumpi\n      dup1\n      0x1f\n      lt\n      tag_74\n      jumpi\n      0x0100\n      dup1\n      dup4\n      sload\n      div\n      mul\n      dup4\n      mstore\n      swap2\n      0x20\n      add\n      swap2\n      jump(tag_73)\n    tag_74:\n      dup3\n      add\n      swap2\n      swap1\n      0x00\n      mstore\n      keccak256(0x00, 0x20)\n      swap1\n    tag_75:\n      dup2\n      sload\n      dup2\n      mstore\n      swap1\n      0x01\n      add\n      swap1\n      0x20\n      add\n      dup1\n      dup4\n      gt\n      tag_75\n      jumpi\n      dup3\n      swap1\n      sub\n      0x1f\n      and\n      dup3\n      add\n      swap2\n    tag_73:\n      pop\n      pop\n      pop\n      pop\n      pop\n      swap1\n      pop\n      dup7\n      jump\t// out\n        /* \"Blockchain_project/ProfileManager.sol\":3422:3813  function addCampaign(... */\n    tag_23:\n        /* \"Blockchain_project/ProfileManager.sol\":1141:1158  donationsContract */\n      0x01\n      0x00\n      swap1\n      sload\n      swap1\n      0x0100\n      exp\n      swap1\n      div\n      0xffffffffffffffffffffffffffffffffffffffff\n      and\n        /* \"Blockchain_project/ProfileManager.sol\":1127:1158  msg.sender == donationsContract */\n      0xffffffffffffffffffffffffffffffffffffffff\n      and\n        /* \"Blockchain_project/ProfileManager.sol\":1127:1137  msg.sender */\n      caller\n        /* \"Blockchain_project/ProfileManager.sol\":1127:1158  msg.sender == donationsContract */\n      0xffffffffffffffffffffffffffffffffffffffff\n      and\n      eq\n        /* \"Blockchain_project/ProfileManager.sol\":1106:1231  require(... */\n      tag_77\n      jumpi\n      mload(0x40)\n      0x08c379a000000000000000000000000000000000000000000000000000000000\n      dup2\n      mstore\n      0x04\n      add\n      tag_78\n      swap1\n      tag_79\n      jump\t// in\n    tag_78:\n      mload(0x40)\n      dup1\n      swap2\n      sub\n      swap1\n      revert\n    tag_77:\n        /* \"Blockchain_project/ProfileManager.sol\":3663:3664  0 */\n      0x00\n        /* \"Blockchain_project/ProfileManager.sol\":3617:3665  owners[_ownerAddress].ownerAddress != address(0) */\n      0xffffffffffffffffffffffffffffffffffffffff\n      and\n        /* \"Blockchain_project/ProfileManager.sol\":3617:3623  owners */\n      0x00\n        /* \"Blockchain_project/ProfileManager.sol\":3617:3638  owners[_ownerAddress] */\n      dup1\n        /* \"Blockchain_project/ProfileManager.sol\":3624:3637  _ownerAddress */\n      dup5\n        /* \"Blockchain_project/ProfileManager.sol\":3617:3638  owners[_ownerAddress] */\n      0xffffffffffffffffffffffffffffffffffffffff\n      and\n      0xffffffffffffffffffffffffffffffffffffffff\n      and\n      dup2\n      mstore\n      0x20\n      add\n      swap1\n      dup2\n      mstore\n      0x20\n      add\n      0x00\n      keccak256\n        /* \"Blockchain_project/ProfileManager.sol\":3617:3651  owners[_ownerAddress].ownerAddress */\n      0x00\n      add\n      0x00\n      swap1\n      sload\n      swap1\n      0x0100\n      exp\n      swap1\n      div\n      0xffffffffffffffffffffffffffffffffffffffff\n      and\n        /* \"Blockchain_project/ProfileManager.sol\":3617:3665  owners[_ownerAddress].ownerAddress != address(0) */\n      0xffffffffffffffffffffffffffffffffffffffff\n      and\n      sub\n        /* \"Blockchain_project/ProfileManager.sol\":3596:3720  require(... */\n      tag_81\n      jumpi\n      mload(0x40)\n      0x08c379a000000000000000000000000000000000000000000000000000000000\n      dup2\n      mstore\n      0x04\n      add\n      tag_82\n      swap1\n      tag_83\n      jump\t// in\n    tag_82:\n      mload(0x40)\n      dup1\n      swap2\n      sub\n      swap1\n      revert\n    tag_81:\n        /* \"Blockchain_project/ProfileManager.sol\":3731:3737  owners */\n      0x00\n        /* \"Blockchain_project/ProfileManager.sol\":3731:3752  owners[_ownerAddress] */\n      dup1\n        /* \"Blockchain_project/ProfileManager.sol\":3738:3751  _ownerAddress */\n      dup4\n        /* \"Blockchain_project/ProfileManager.sol\":3731:3752  owners[_ownerAddress] */\n      0xffffffffffffffffffffffffffffffffffffffff\n      and\n      0xffffffffffffffffffffffffffffffffffffffff\n      and\n      dup2\n      mstore\n      0x20\n      add\n      swap1\n      dup2\n      mstore\n      0x20\n      add\n      0x00\n      keccak256\n        /* \"Blockchain_project/ProfileManager.sol\":3731:3764  owners[_ownerAddress].campaignIds */\n      0x05\n      add\n        /* \"Blockchain_project/ProfileManager.sol\":3770:3781  _campaignId */\n      dup2\n        /* \"Blockchain_project/ProfileManager.sol\":3731:3782  owners[_ownerAddress].campaignIds.push(_campaignId) */\n      swap1\n      dup1\n      0x01\n      dup2\n      sload\n      add\n      dup1\n      dup3\n      sstore\n      dup1\n      swap2\n      pop\n      pop\n      0x01\n      swap1\n      sub\n      swap1\n      0x00\n      mstore\n      keccak256(0x00, 0x20)\n      add\n      0x00\n      swap1\n      swap2\n      swap1\n      swap2\n      swap1\n      swap2\n      pop\n      sstore\n        /* \"Blockchain_project/ProfileManager.sol\":3422:3813  function addCampaign(... */\n      pop\n      pop\n      jump\t// out\n        /* \"Blockchain_project/ProfileManager.sol\":2680:3113  function updateOwnerProfile(... */\n    tag_27:\n        /* \"Blockchain_project/ProfileManager.sol\":2833:2852  Owner storage owner */\n      0x00\n        /* \"Blockchain_project/ProfileManager.sol\":2855:2861  owners */\n      dup1\n        /* \"Blockchain_project/ProfileManager.sol\":2855:2873  owners[msg.sender] */\n      0x00\n        /* \"Blockchain_project/ProfileManager.sol\":2862:2872  msg.sender */\n      caller\n        /* \"Blockchain_project/ProfileManager.sol\":2855:2873  owners[msg.sender] */\n      0xffffffffffffffffffffffffffffffffffffffff\n      and\n      0xffffffffffffffffffffffffffffffffffffffff\n      and\n      dup2\n      mstore\n      0x20\n      add\n      swap1\n      dup2\n      mstore\n      0x20\n      add\n      0x00\n      keccak256\n        /* \"Blockchain_project/ProfileManager.sol\":2833:2873  Owner storage owner = owners[msg.sender] */\n      swap1\n      pop\n        /* \"Blockchain_project/ProfileManager.sol\":2934:2935  0 */\n      0x00\n        /* \"Blockchain_project/ProfileManager.sol\":2904:2936  owner.ownerAddress != address(0) */\n      0xffffffffffffffffffffffffffffffffffffffff\n      and\n        /* \"Blockchain_project/ProfileManager.sol\":2904:2909  owner */\n      dup2\n        /* \"Blockchain_project/ProfileManager.sol\":2904:2922  owner.ownerAddress */\n      0x00\n      add\n      0x00\n      swap1\n      sload\n      swap1\n      0x0100\n      exp\n      swap1\n      div\n      0xffffffffffffffffffffffffffffffffffffffff\n      and\n        /* \"Blockchain_project/ProfileManager.sol\":2904:2936  owner.ownerAddress != address(0) */\n      0xffffffffffffffffffffffffffffffffffffffff\n      and\n      sub\n        /* \"Blockchain_project/ProfileManager.sol\":2883:2991  require(... */\n      tag_86\n      jumpi\n      mload(0x40)\n      0x08c379a000000000000000000000000000000000000000000000000000000000\n      dup2\n      mstore\n      0x04\n      add\n      tag_87\n      swap1\n      tag_83\n      jump\t// in\n    tag_87:\n      mload(0x40)\n      dup1\n      swap2\n      sub\n      swap1\n      revert\n    tag_86:\n        /* \"Blockchain_project/ProfileManager.sol\":3015:3020  _name */\n      dup4\n        /* \"Blockchain_project/ProfileManager.sol\":3002:3007  owner */\n      dup2\n        /* \"Blockchain_project/ProfileManager.sol\":3002:3012  owner.name */\n      0x02\n      add\n        /* \"Blockchain_project/ProfileManager.sol\":3002:3020  owner.name = _name */\n      swap1\n      dup2\n      tag_88\n      swap2\n      swap1\n      tag_89\n      jump\t// in\n    tag_88:\n      pop\n        /* \"Blockchain_project/ProfileManager.sol\":3051:3064  _profileImage */\n      dup3\n        /* \"Blockchain_project/ProfileManager.sol\":3030:3035  owner */\n      dup2\n        /* \"Blockchain_project/ProfileManager.sol\":3030:3048  owner.profileImage */\n      0x03\n      add\n        /* \"Blockchain_project/ProfileManager.sol\":3030:3064  owner.profileImage = _profileImage */\n      swap1\n      dup2\n      tag_90\n      swap2\n      swap1\n      tag_89\n      jump\t// in\n    tag_90:\n      pop\n        /* \"Blockchain_project/ProfileManager.sol\":3094:3106  _description */\n      dup2\n        /* \"Blockchain_project/ProfileManager.sol\":3074:3079  owner */\n      dup2\n        /* \"Blockchain_project/ProfileManager.sol\":3074:3091  owner.description */\n      0x04\n      add\n        /* \"Blockchain_project/ProfileManager.sol\":3074:3106  owner.description = _description */\n      swap1\n      dup2\n      tag_91\n      swap2\n      swap1\n      tag_89\n      jump\t// in\n    tag_91:\n      pop\n        /* \"Blockchain_project/ProfileManager.sol\":2823:3113  {... */\n      pop\n        /* \"Blockchain_project/ProfileManager.sol\":2680:3113  function updateOwnerProfile(... */\n      pop\n      pop\n      pop\n      jump\t// out\n        /* \"Blockchain_project/ProfileManager.sol\":2230:2378  function isProfileOwner(address _user) public view onlyDonationsContract  returns (bool) {... */\n    tag_30:\n        /* \"Blockchain_project/ProfileManager.sol\":2313:2317  bool */\n      0x00\n        /* \"Blockchain_project/ProfileManager.sol\":1141:1158  donationsContract */\n      0x01\n      0x00\n      swap1\n      sload\n      swap1\n      0x0100\n      exp\n      swap1\n      div\n      0xffffffffffffffffffffffffffffffffffffffff\n      and\n        /* \"Blockchain_project/ProfileManager.sol\":1127:1158  msg.sender == donationsContract */\n      0xffffffffffffffffffffffffffffffffffffffff\n      and\n        /* \"Blockchain_project/ProfileManager.sol\":1127:1137  msg.sender */\n      caller\n        /* \"Blockchain_project/ProfileManager.sol\":1127:1158  msg.sender == donationsContract */\n      0xffffffffffffffffffffffffffffffffffffffff\n      and\n      eq\n        /* \"Blockchain_project/ProfileManager.sol\":1106:1231  require(... */\n      tag_93\n      jumpi\n      mload(0x40)\n      0x08c379a000000000000000000000000000000000000000000000000000000000\n      dup2\n      mstore\n      0x04\n      add\n      tag_94\n      swap1\n      tag_79\n      jump\t// in\n    tag_94:\n      mload(0x40)\n      dup1\n      swap2\n      sub\n      swap1\n      revert\n    tag_93:\n        /* \"Blockchain_project/ProfileManager.sol\":2366:2371  _user */\n      dup2\n        /* \"Blockchain_project/ProfileManager.sol\":2336:2371  owners[_user].ownerAddress == _user */\n      0xffffffffffffffffffffffffffffffffffffffff\n      and\n        /* \"Blockchain_project/ProfileManager.sol\":2336:2342  owners */\n      0x00\n        /* \"Blockchain_project/ProfileManager.sol\":2336:2349  owners[_user] */\n      dup1\n        /* \"Blockchain_project/ProfileManager.sol\":2343:2348  _user */\n      dup5\n        /* \"Blockchain_project/ProfileManager.sol\":2336:2349  owners[_user] */\n      0xffffffffffffffffffffffffffffffffffffffff\n      and\n      0xffffffffffffffffffffffffffffffffffffffff\n      and\n      dup2\n      mstore\n      0x20\n      add\n      swap1\n      dup2\n      mstore\n      0x20\n      add\n      0x00\n      keccak256\n        /* \"Blockchain_project/ProfileManager.sol\":2336:2362  owners[_user].ownerAddress */\n      0x00\n      add\n      0x00\n      swap1\n      sload\n      swap1\n      0x0100\n      exp\n      swap1\n      div\n      0xffffffffffffffffffffffffffffffffffffffff\n      and\n        /* \"Blockchain_project/ProfileManager.sol\":2336:2371  owners[_user].ownerAddress == _user */\n      0xffffffffffffffffffffffffffffffffffffffff\n      and\n      eq\n        /* \"Blockchain_project/ProfileManager.sol\":2329:2371  return owners[_user].ownerAddress == _user */\n      swap1\n      pop\n        /* \"Blockchain_project/ProfileManager.sol\":2230:2378  function isProfileOwner(address _user) public view onlyDonationsContract  returns (bool) {... */\n      swap2\n      swap1\n      pop\n      jump\t// out\n        /* \"Blockchain_project/ProfileManager.sol\":3900:5108  function getCampaigns(address _ownerAddress)... */\n    tag_35:\n        /* \"Blockchain_project/ProfileManager.sol\":4003:4025  string[] memory titles */\n      0x60\n        /* \"Blockchain_project/ProfileManager.sol\":4039:4067  string[] memory descriptions */\n      dup1\n        /* \"Blockchain_project/ProfileManager.sol\":4081:4106  address[] memory creators */\n      0x60\n        /* \"Blockchain_project/ProfileManager.sol\":4120:4144  uint256[] memory targets */\n      dup1\n        /* \"Blockchain_project/ProfileManager.sol\":4158:4184  uint256[] memory deadlines */\n      0x60\n        /* \"Blockchain_project/ProfileManager.sol\":4198:4222  string[] memory statuses */\n      dup1\n        /* \"Blockchain_project/ProfileManager.sol\":4236:4267  address[][] memory contributors */\n      0x60\n        /* \"Blockchain_project/ProfileManager.sol\":4292:4320  uint256[] memory campaignIds */\n      0x00\n        /* \"Blockchain_project/ProfileManager.sol\":4323:4329  owners */\n      dup1\n        /* \"Blockchain_project/ProfileManager.sol\":4323:4344  owners[_ownerAddress] */\n      0x00\n        /* \"Blockchain_project/ProfileManager.sol\":4330:4343  _ownerAddress */\n      dup11\n        /* \"Blockchain_project/ProfileManager.sol\":4323:4344  owners[_ownerAddress] */\n      0xffffffffffffffffffffffffffffffffffffffff\n      and\n      0xffffffffffffffffffffffffffffffffffffffff\n      and\n      dup2\n      mstore\n      0x20\n      add\n      swap1\n      dup2\n      mstore\n      0x20\n      add\n      0x00\n      keccak256\n        /* \"Blockchain_project/ProfileManager.sol\":4323:4356  owners[_ownerAddress].campaignIds */\n      0x05\n      add\n        /* \"Blockchain_project/ProfileManager.sol\":4292:4356  uint256[] memory campaignIds = owners[_ownerAddress].campaignIds */\n      dup1\n      sload\n      dup1\n      0x20\n      mul\n      0x20\n      add\n      mload(0x40)\n      swap1\n      dup2\n      add\n      0x40\n      mstore\n      dup1\n      swap3\n      swap2\n      swap1\n      dup2\n      dup2\n      mstore\n      0x20\n      add\n      dup3\n      dup1\n      sload\n      dup1\n      iszero\n      tag_97\n      jumpi\n      0x20\n      mul\n      dup3\n      add\n      swap2\n      swap1\n      0x00\n      mstore\n      keccak256(0x00, 0x20)\n      swap1\n    tag_98:\n      dup2\n      sload\n      dup2\n      mstore\n      0x20\n      add\n      swap1\n      0x01\n      add\n      swap1\n      dup1\n      dup4\n      gt\n      tag_98\n      jumpi\n    tag_97:\n      pop\n      pop\n      pop\n      pop\n      pop\n      swap1\n      pop\n        /* \"Blockchain_project/ProfileManager.sol\":4388:4399  campaignIds */\n      dup1\n        /* \"Blockchain_project/ProfileManager.sol\":4388:4406  campaignIds.length */\n      mload\n        /* \"Blockchain_project/ProfileManager.sol\":4375:4407  new string[](campaignIds.length) */\n      0xffffffffffffffff\n      dup2\n      gt\n      iszero\n      tag_99\n      jumpi\n      tag_100\n      tag_101\n      jump\t// in\n    tag_100:\n    tag_99:\n      mload(0x40)\n      swap1\n      dup1\n      dup3\n      mstore\n      dup1\n      0x20\n      mul\n      0x20\n      add\n      dup3\n      add\n      0x40\n      mstore\n      dup1\n      iszero\n      tag_102\n      jumpi\n      dup2\n      0x20\n      add\n    tag_103:\n      0x60\n      dup2\n      mstore\n      0x20\n      add\n      swap1\n      0x01\n      swap1\n      sub\n      swap1\n      dup2\n      tag_103\n      jumpi\n      swap1\n      pop\n    tag_102:\n      pop\n        /* \"Blockchain_project/ProfileManager.sol\":4366:4407  titles = new string[](campaignIds.length) */\n      swap8\n      pop\n        /* \"Blockchain_project/ProfileManager.sol\":4445:4456  campaignIds */\n      dup1\n        /* \"Blockchain_project/ProfileManager.sol\":4445:4463  campaignIds.length */\n      mload\n        /* \"Blockchain_project/ProfileManager.sol\":4432:4464  new string[](campaignIds.length) */\n      0xffffffffffffffff\n      dup2\n      gt\n      iszero\n      tag_104\n      jumpi\n      tag_105\n      tag_101\n      jump\t// in\n    tag_105:\n    tag_104:\n      mload(0x40)\n      swap1\n      dup1\n      dup3\n      mstore\n      dup1\n      0x20\n      mul\n      0x20\n      add\n      dup3\n      add\n      0x40\n      mstore\n      dup1\n      iszero\n      tag_106\n      jumpi\n      dup2\n      0x20\n      add\n    tag_107:\n      0x60\n      dup2\n      mstore\n      0x20\n      add\n      swap1\n      0x01\n      swap1\n      sub\n      swap1\n      dup2\n      tag_107\n      jumpi\n      swap1\n      pop\n    tag_106:\n      pop\n        /* \"Blockchain_project/ProfileManager.sol\":4417:4464  descriptions = new string[](campaignIds.length) */\n      swap7\n      pop\n        /* \"Blockchain_project/ProfileManager.sol\":4499:4510  campaignIds */\n      dup1\n        /* \"Blockchain_project/ProfileManager.sol\":4499:4517  campaignIds.length */\n      mload\n        /* \"Blockchain_project/ProfileManager.sol\":4485:4518  new address[](campaignIds.length) */\n      0xffffffffffffffff\n      dup2\n      gt\n      iszero\n      tag_108\n      jumpi\n      tag_109\n      tag_101\n      jump\t// in\n    tag_109:\n    tag_108:\n      mload(0x40)\n      swap1\n      dup1\n      dup3\n      mstore\n      dup1\n      0x20\n      mul\n      0x20\n      add\n      dup3\n      add\n      0x40\n      mstore\n      dup1\n      iszero\n      tag_110\n      jumpi\n      dup2\n      0x20\n      add\n      0x20\n      dup3\n      mul\n      dup1\n      calldatasize\n      dup4\n      calldatacopy\n      dup1\n      dup3\n      add\n      swap2\n      pop\n      pop\n      swap1\n      pop\n    tag_110:\n      pop\n        /* \"Blockchain_project/ProfileManager.sol\":4474:4518  creators = new address[](campaignIds.length) */\n      swap6\n      pop\n        /* \"Blockchain_project/ProfileManager.sol\":4552:4563  campaignIds */\n      dup1\n        /* \"Blockchain_project/ProfileManager.sol\":4552:4570  campaignIds.length */\n      mload\n        /* \"Blockchain_project/ProfileManager.sol\":4538:4571  new uint256[](campaignIds.length) */\n      0xffffffffffffffff\n      dup2\n      gt\n      iszero\n      tag_111\n      jumpi\n      tag_112\n      tag_101\n      jump\t// in\n    tag_112:\n    tag_111:\n      mload(0x40)\n      swap1\n      dup1\n      dup3\n      mstore\n      dup1\n      0x20\n      mul\n      0x20\n      add\n      dup3\n      add\n      0x40\n      mstore\n      dup1\n      iszero\n      tag_113\n      jumpi\n      dup2\n      0x20\n      add\n      0x20\n      dup3\n      mul\n      dup1\n      calldatasize\n      dup4\n      calldatacopy\n      dup1\n      dup3\n      add\n      swap2\n      pop\n      pop\n      swap1\n      pop\n    tag_113:\n      pop\n        /* \"Blockchain_project/ProfileManager.sol\":4528:4571  targets = new uint256[](campaignIds.length) */\n      swap5\n      pop\n        /* \"Blockchain_project/ProfileManager.sol\":4607:4618  campaignIds */\n      dup1\n        /* \"Blockchain_project/ProfileManager.sol\":4607:4625  campaignIds.length */\n      mload\n        /* \"Blockchain_project/ProfileManager.sol\":4593:4626  new uint256[](campaignIds.length) */\n      0xffffffffffffffff\n      dup2\n      gt\n      iszero\n      tag_114\n      jumpi\n      tag_115\n      tag_101\n      jump\t// in\n    tag_115:\n    tag_114:\n      mload(0x40)\n      swap1\n      dup1\n      dup3\n      mstore\n      dup1\n      0x20\n      mul\n      0x20\n      add\n      dup3\n      add\n      0x40\n      mstore\n      dup1\n      iszero\n      tag_116\n      jumpi\n      dup2\n      0x20\n      add\n      0x20\n      dup3\n      mul\n      dup1\n      calldatasize\n      dup4\n      calldatacopy\n      dup1\n      dup3\n      add\n      swap2\n      pop\n      pop\n      swap1\n      pop\n    tag_116:\n      pop\n        /* \"Blockchain_project/ProfileManager.sol\":4581:4626  deadlines = new uint256[](campaignIds.length) */\n      swap4\n      pop\n        /* \"Blockchain_project/ProfileManager.sol\":4660:4671  campaignIds */\n      dup1\n        /* \"Blockchain_project/ProfileManager.sol\":4660:4678  campaignIds.length */\n      mload\n        /* \"Blockchain_project/ProfileManager.sol\":4647:4679  new string[](campaignIds.length) */\n      0xffffffffffffffff\n      dup2\n      gt\n      iszero\n      tag_117\n      jumpi\n      tag_118\n      tag_101\n      jump\t// in\n    tag_118:\n    tag_117:\n      mload(0x40)\n      swap1\n      dup1\n      dup3\n      mstore\n      dup1\n      0x20\n      mul\n      0x20\n      add\n      dup3\n      add\n      0x40\n      mstore\n      dup1\n      iszero\n      tag_119\n      jumpi\n      dup2\n      0x20\n      add\n    tag_120:\n      0x60\n      dup2\n      mstore\n      0x20\n      add\n      swap1\n      0x01\n      swap1\n      sub\n      swap1\n      dup2\n      tag_120\n      jumpi\n      swap1\n      pop\n    tag_119:\n      pop\n        /* \"Blockchain_project/ProfileManager.sol\":4636:4679  statuses = new string[](campaignIds.length) */\n      swap3\n      pop\n        /* \"Blockchain_project/ProfileManager.sol\":4720:4731  campaignIds */\n      dup1\n        /* \"Blockchain_project/ProfileManager.sol\":4720:4738  campaignIds.length */\n      mload\n        /* \"Blockchain_project/ProfileManager.sol\":4704:4739  new address[][](campaignIds.length) */\n      0xffffffffffffffff\n      dup2\n      gt\n      iszero\n      tag_121\n      jumpi\n      tag_122\n      tag_101\n      jump\t// in\n    tag_122:\n    tag_121:\n      mload(0x40)\n      swap1\n      dup1\n      dup3\n      mstore\n      dup1\n      0x20\n      mul\n      0x20\n      add\n      dup3\n      add\n      0x40\n      mstore\n      dup1\n      iszero\n      tag_123\n      jumpi\n      dup2\n      0x20\n      add\n    tag_124:\n      0x60\n      dup2\n      mstore\n      0x20\n      add\n      swap1\n      0x01\n      swap1\n      sub\n      swap1\n      dup2\n      tag_124\n      jumpi\n      swap1\n      pop\n    tag_123:\n      pop\n        /* \"Blockchain_project/ProfileManager.sol\":4689:4739  contributors = new address[][](campaignIds.length) */\n      swap2\n      pop\n        /* \"Blockchain_project/ProfileManager.sol\":4755:4764  uint256 i */\n      0x00\n        /* \"Blockchain_project/ProfileManager.sol\":4750:5102  for (uint256 i = 0; i < campaignIds.length; i++) {... */\n    tag_125:\n        /* \"Blockchain_project/ProfileManager.sol\":4774:4785  campaignIds */\n      dup2\n        /* \"Blockchain_project/ProfileManager.sol\":4774:4792  campaignIds.length */\n      mload\n        /* \"Blockchain_project/ProfileManager.sol\":4770:4771  i */\n      dup2\n        /* \"Blockchain_project/ProfileManager.sol\":4770:4792  i < campaignIds.length */\n      lt\n        /* \"Blockchain_project/ProfileManager.sol\":4750:5102  for (uint256 i = 0; i < campaignIds.length; i++) {... */\n      iszero\n      tag_126\n      jumpi\n        /* \"Blockchain_project/ProfileManager.sol\":5039:5056  donationsInstance */\n      0x02\n      0x00\n      swap1\n      sload\n      swap1\n      0x0100\n      exp\n      swap1\n      div\n      0xffffffffffffffffffffffffffffffffffffffff\n      and\n        /* \"Blockchain_project/ProfileManager.sol\":5039:5075  donationsInstance.getCampaignDetails */\n      0xffffffffffffffffffffffffffffffffffffffff\n      and\n      0xd993de62\n        /* \"Blockchain_project/ProfileManager.sol\":5076:5087  campaignIds */\n      dup4\n        /* \"Blockchain_project/ProfileManager.sol\":5088:5089  i */\n      dup4\n        /* \"Blockchain_project/ProfileManager.sol\":5076:5090  campaignIds[i] */\n      dup2\n      mload\n      dup2\n      lt\n      tag_128\n      jumpi\n      tag_129\n      tag_130\n      jump\t// in\n    tag_129:\n    tag_128:\n      0x20\n      mul\n      0x20\n      add\n      add\n      mload\n        /* \"Blockchain_project/ProfileManager.sol\":5039:5091  donationsInstance.getCampaignDetails(campaignIds[i]) */\n      mload(0x40)\n      dup3\n      0xffffffff\n      and\n      0xe0\n      shl\n      dup2\n      mstore\n      0x04\n      add\n      tag_131\n      swap2\n      swap1\n      tag_132\n      jump\t// in\n    tag_131:\n      0x00\n      mload(0x40)\n      dup1\n      dup4\n      sub\n      dup2\n      dup7\n      gas\n      staticcall\n      iszero\n      dup1\n      iszero\n      tag_134\n      jumpi\n      returndatasize\n      0x00\n      dup1\n      returndatacopy\n      revert(0x00, returndatasize)\n    tag_134:\n      pop\n      pop\n      pop\n      pop\n      mload(0x40)\n      returndatasize\n      0x00\n      dup3\n      returndatacopy\n      returndatasize\n      not(0x1f)\n      0x1f\n      dup3\n      add\n      and\n      dup3\n      add\n      dup1\n      0x40\n      mstore\n      pop\n      dup2\n      add\n      swap1\n      tag_135\n      swap2\n      swap1\n      tag_136\n      jump\t// in\n    tag_135:\n        /* \"Blockchain_project/ProfileManager.sol\":4831:4837  titles */\n      dup16\n        /* \"Blockchain_project/ProfileManager.sol\":4838:4839  i */\n      dup9\n        /* \"Blockchain_project/ProfileManager.sol\":4831:4840  titles[i] */\n      dup2\n      mload\n      dup2\n      lt\n      tag_137\n      jumpi\n      tag_138\n      tag_130\n      jump\t// in\n    tag_138:\n    tag_137:\n      0x20\n      mul\n      0x20\n      add\n      add\n        /* \"Blockchain_project/ProfileManager.sol\":4858:4870  descriptions */\n      dup16\n        /* \"Blockchain_project/ProfileManager.sol\":4871:4872  i */\n      dup10\n        /* \"Blockchain_project/ProfileManager.sol\":4858:4873  descriptions[i] */\n      dup2\n      mload\n      dup2\n      lt\n      tag_139\n      jumpi\n      tag_140\n      tag_130\n      jump\t// in\n    tag_140:\n    tag_139:\n      0x20\n      mul\n      0x20\n      add\n      add\n        /* \"Blockchain_project/ProfileManager.sol\":4891:4899  creators */\n      dup16\n        /* \"Blockchain_project/ProfileManager.sol\":4900:4901  i */\n      dup11\n        /* \"Blockchain_project/ProfileManager.sol\":4891:4902  creators[i] */\n      dup2\n      mload\n      dup2\n      lt\n      tag_141\n      jumpi\n      tag_142\n      tag_130\n      jump\t// in\n    tag_142:\n    tag_141:\n      0x20\n      mul\n      0x20\n      add\n      add\n        /* \"Blockchain_project/ProfileManager.sol\":4920:4927  targets */\n      dup16\n        /* \"Blockchain_project/ProfileManager.sol\":4928:4929  i */\n      dup12\n        /* \"Blockchain_project/ProfileManager.sol\":4920:4930  targets[i] */\n      dup2\n      mload\n      dup2\n      lt\n      tag_143\n      jumpi\n      tag_144\n      tag_130\n      jump\t// in\n    tag_144:\n    tag_143:\n      0x20\n      mul\n      0x20\n      add\n      add\n        /* \"Blockchain_project/ProfileManager.sol\":4948:4957  deadlines */\n      dup16\n        /* \"Blockchain_project/ProfileManager.sol\":4958:4959  i */\n      dup13\n        /* \"Blockchain_project/ProfileManager.sol\":4948:4960  deadlines[i] */\n      dup2\n      mload\n      dup2\n      lt\n      tag_145\n      jumpi\n      tag_146\n      tag_130\n      jump\t// in\n    tag_146:\n    tag_145:\n      0x20\n      mul\n      0x20\n      add\n      add\n        /* \"Blockchain_project/ProfileManager.sol\":4978:4986  statuses */\n      dup16\n        /* \"Blockchain_project/ProfileManager.sol\":4987:4988  i */\n      dup14\n        /* \"Blockchain_project/ProfileManager.sol\":4978:4989  statuses[i] */\n      dup2\n      mload\n      dup2\n      lt\n      tag_147\n      jumpi\n      tag_148\n      tag_130\n      jump\t// in\n    tag_148:\n    tag_147:\n      0x20\n      mul\n      0x20\n      add\n      add\n        /* \"Blockchain_project/ProfileManager.sol\":5007:5019  contributors */\n      dup16\n        /* \"Blockchain_project/ProfileManager.sol\":5020:5021  i */\n      dup15\n        /* \"Blockchain_project/ProfileManager.sol\":5007:5022  contributors[i] */\n      dup2\n      mload\n      dup2\n      lt\n      tag_149\n      jumpi\n      tag_150\n      tag_130\n      jump\t// in\n    tag_150:\n    tag_149:\n      0x20\n      mul\n      0x20\n      add\n      add\n        /* \"Blockchain_project/ProfileManager.sol\":4813:5091  (... */\n      dup8\n      swap1\n      mstore\n      dup8\n      swap1\n      mstore\n      dup8\n      dup2\n      mstore\n      pop\n      dup8\n      dup2\n      mstore\n      pop\n      dup8\n      0xffffffffffffffffffffffffffffffffffffffff\n      and\n      0xffffffffffffffffffffffffffffffffffffffff\n      and\n      dup2\n      mstore\n      pop\n      dup8\n      swap1\n      mstore\n      dup8\n      swap1\n      mstore\n      pop\n      pop\n      pop\n      pop\n      pop\n      pop\n      pop\n        /* \"Blockchain_project/ProfileManager.sol\":4794:4797  i++ */\n      dup1\n      dup1\n      0x01\n      add\n      swap2\n      pop\n      pop\n        /* \"Blockchain_project/ProfileManager.sol\":4750:5102  for (uint256 i = 0; i < campaignIds.length; i++) {... */\n      jump(tag_125)\n    tag_126:\n      pop\n        /* \"Blockchain_project/ProfileManager.sol\":4282:5108  {... */\n      pop\n        /* \"Blockchain_project/ProfileManager.sol\":3900:5108  function getCampaigns(address _ownerAddress)... */\n      swap2\n      swap4\n      swap6\n      swap8\n      swap1\n      swap3\n      swap5\n      swap7\n      pop\n      jump\t// out\n        /* \"Blockchain_project/ProfileManager.sol\":1524:2168  function createOwnerProfile(... */\n    tag_41:\n        /* \"Blockchain_project/ProfileManager.sol\":1761:1762  0 */\n      0x00\n        /* \"Blockchain_project/ProfileManager.sol\":1718:1763  owners[msg.sender].ownerAddress == address(0) */\n      0xffffffffffffffffffffffffffffffffffffffff\n      and\n        /* \"Blockchain_project/ProfileManager.sol\":1718:1724  owners */\n      0x00\n        /* \"Blockchain_project/ProfileManager.sol\":1718:1736  owners[msg.sender] */\n      dup1\n        /* \"Blockchain_project/ProfileManager.sol\":1725:1735  msg.sender */\n      caller\n        /* \"Blockchain_project/ProfileManager.sol\":1718:1736  owners[msg.sender] */\n      0xffffffffffffffffffffffffffffffffffffffff\n      and\n      0xffffffffffffffffffffffffffffffffffffffff\n      and\n      dup2\n      mstore\n      0x20\n      add\n      swap1\n      dup2\n      mstore\n      0x20\n      add\n      0x00\n      keccak256\n        /* \"Blockchain_project/ProfileManager.sol\":1718:1749  owners[msg.sender].ownerAddress */\n      0x00\n      add\n      0x00\n      swap1\n      sload\n      swap1\n      0x0100\n      exp\n      swap1\n      div\n      0xffffffffffffffffffffffffffffffffffffffff\n      and\n        /* \"Blockchain_project/ProfileManager.sol\":1718:1763  owners[msg.sender].ownerAddress == address(0) */\n      0xffffffffffffffffffffffffffffffffffffffff\n      and\n      eq\n        /* \"Blockchain_project/ProfileManager.sol\":1697:1818  require(... */\n      tag_152\n      jumpi\n      mload(0x40)\n      0x08c379a000000000000000000000000000000000000000000000000000000000\n      dup2\n      mstore\n      0x04\n      add\n      tag_153\n      swap1\n      tag_154\n      jump\t// in\n    tag_153:\n      mload(0x40)\n      dup1\n      swap2\n      sub\n      swap1\n      revert\n    tag_152:\n        /* \"Blockchain_project/ProfileManager.sol\":1829:1860  uint256[] memory myDynamicArray */\n      0x60\n        /* \"Blockchain_project/ProfileManager.sol\":1892:2161  Owner({... */\n      mload(0x40)\n      dup1\n      0xe0\n      add\n      0x40\n      mstore\n      dup1\n        /* \"Blockchain_project/ProfileManager.sol\":1926:1936  msg.sender */\n      caller\n        /* \"Blockchain_project/ProfileManager.sol\":1892:2161  Owner({... */\n      0xffffffffffffffffffffffffffffffffffffffff\n      and\n      dup2\n      mstore\n      0x20\n      add\n        /* \"Blockchain_project/ProfileManager.sol\":1956:1961  _role */\n      dup7\n        /* \"Blockchain_project/ProfileManager.sol\":1892:2161  Owner({... */\n      0x02\n      dup2\n      gt\n      iszero\n      tag_155\n      jumpi\n      tag_156\n      tag_157\n      jump\t// in\n    tag_156:\n    tag_155:\n      dup2\n      mstore\n      0x20\n      add\n        /* \"Blockchain_project/ProfileManager.sol\":1989:2004  block.timestamp */\n      timestamp\n        /* \"Blockchain_project/ProfileManager.sol\":1892:2161  Owner({... */\n      dup2\n      mstore\n      0x20\n      add\n        /* \"Blockchain_project/ProfileManager.sol\":2024:2029  _name */\n      dup6\n        /* \"Blockchain_project/ProfileManager.sol\":1892:2161  Owner({... */\n      dup2\n      mstore\n      0x20\n      add\n        /* \"Blockchain_project/ProfileManager.sol\":2057:2070  _profileImage */\n      dup5\n        /* \"Blockchain_project/ProfileManager.sol\":1892:2161  Owner({... */\n      dup2\n      mstore\n      0x20\n      add\n        /* \"Blockchain_project/ProfileManager.sol\":2097:2109  _description */\n      dup4\n        /* \"Blockchain_project/ProfileManager.sol\":1892:2161  Owner({... */\n      dup2\n      mstore\n      0x20\n      add\n        /* \"Blockchain_project/ProfileManager.sol\":2136:2150  myDynamicArray */\n      dup3\n        /* \"Blockchain_project/ProfileManager.sol\":1892:2161  Owner({... */\n      dup2\n      mstore\n      pop\n        /* \"Blockchain_project/ProfileManager.sol\":1871:1877  owners */\n      0x00\n        /* \"Blockchain_project/ProfileManager.sol\":1871:1889  owners[msg.sender] */\n      dup1\n        /* \"Blockchain_project/ProfileManager.sol\":1878:1888  msg.sender */\n      caller\n        /* \"Blockchain_project/ProfileManager.sol\":1871:1889  owners[msg.sender] */\n      0xffffffffffffffffffffffffffffffffffffffff\n      and\n      0xffffffffffffffffffffffffffffffffffffffff\n      and\n      dup2\n      mstore\n      0x20\n      add\n      swap1\n      dup2\n      mstore\n      0x20\n      add\n      0x00\n      keccak256\n        /* \"Blockchain_project/ProfileManager.sol\":1871:2161  owners[msg.sender] = Owner({... */\n      0x00\n      dup3\n      add\n      mload\n      dup2\n      0x00\n      add\n      exp(0x0100, 0x00)\n      dup2\n      sload\n      dup2\n      0xffffffffffffffffffffffffffffffffffffffff\n      mul\n      not\n      and\n      swap1\n      dup4\n      0xffffffffffffffffffffffffffffffffffffffff\n      and\n      mul\n      or\n      swap1\n      sstore\n      pop\n      0x20\n      dup3\n      add\n      mload\n      dup2\n      0x00\n      add\n      exp(0x0100, 0x14)\n      dup2\n      sload\n      dup2\n      0xff\n      mul\n      not\n      and\n      swap1\n      dup4\n      0x02\n      dup2\n      gt\n      iszero\n      tag_158\n      jumpi\n      tag_159\n      tag_157\n      jump\t// in\n    tag_159:\n    tag_158:\n      mul\n      or\n      swap1\n      sstore\n      pop\n      0x40\n      dup3\n      add\n      mload\n      dup2\n      0x01\n      add\n      sstore\n      0x60\n      dup3\n      add\n      mload\n      dup2\n      0x02\n      add\n      swap1\n      dup2\n      tag_160\n      swap2\n      swap1\n      tag_89\n      jump\t// in\n    tag_160:\n      pop\n      0x80\n      dup3\n      add\n      mload\n      dup2\n      0x03\n      add\n      swap1\n      dup2\n      tag_161\n      swap2\n      swap1\n      tag_89\n      jump\t// in\n    tag_161:\n      pop\n      0xa0\n      dup3\n      add\n      mload\n      dup2\n      0x04\n      add\n      swap1\n      dup2\n      tag_162\n      swap2\n      swap1\n      tag_89\n      jump\t// in\n    tag_162:\n      pop\n      0xc0\n      dup3\n      add\n      mload\n      dup2\n      0x05\n      add\n      swap1\n      dup1\n      mload\n      swap1\n      0x20\n      add\n      swap1\n      tag_163\n      swap3\n      swap2\n      swap1\n      tag_164\n      jump\t// in\n    tag_163:\n      pop\n      swap1\n      pop\n      pop\n        /* \"Blockchain_project/ProfileManager.sol\":1687:2168  {... */\n      pop\n        /* \"Blockchain_project/ProfileManager.sol\":1524:2168  function createOwnerProfile(... */\n      pop\n      pop\n      pop\n      pop\n      jump\t// out\n        /* \"Blockchain_project/ProfileManager.sol\":884:916  address public donationsContract */\n    tag_43:\n      0x01\n      0x00\n      swap1\n      sload\n      swap1\n      0x0100\n      exp\n      swap1\n      div\n      0xffffffffffffffffffffffffffffffffffffffff\n      and\n      dup2\n      jump\t// out\n        /* \"Blockchain_project/ProfileManager.sol\":2430:2584  function isProfileActive(address _user) public view onlyDonationsContract  returns (bool) {... */\n    tag_48:\n        /* \"Blockchain_project/ProfileManager.sol\":2514:2518  bool */\n      0x00\n        /* \"Blockchain_project/ProfileManager.sol\":1141:1158  donationsContract */\n      0x01\n      0x00\n      swap1\n      sload\n      swap1\n      0x0100\n      exp\n      swap1\n      div\n      0xffffffffffffffffffffffffffffffffffffffff\n      and\n        /* \"Blockchain_project/ProfileManager.sol\":1127:1158  msg.sender == donationsContract */\n      0xffffffffffffffffffffffffffffffffffffffff\n      and\n        /* \"Blockchain_project/ProfileManager.sol\":1127:1137  msg.sender */\n      caller\n        /* \"Blockchain_project/ProfileManager.sol\":1127:1158  msg.sender == donationsContract */\n      0xffffffffffffffffffffffffffffffffffffffff\n      and\n      eq\n        /* \"Blockchain_project/ProfileManager.sol\":1106:1231  require(... */\n      tag_166\n      jumpi\n      mload(0x40)\n      0x08c379a000000000000000000000000000000000000000000000000000000000\n      dup2\n      mstore\n      0x04\n      add\n      tag_167\n      swap1\n      tag_79\n      jump\t// in\n    tag_167:\n      mload(0x40)\n      dup1\n      swap2\n      sub\n      swap1\n      revert\n    tag_166:\n        /* \"Blockchain_project/ProfileManager.sol\":2575:2576  0 */\n      0x00\n        /* \"Blockchain_project/ProfileManager.sol\":2537:2577  owners[_user].ownerAddress != address(0) */\n      0xffffffffffffffffffffffffffffffffffffffff\n      and\n        /* \"Blockchain_project/ProfileManager.sol\":2537:2543  owners */\n      0x00\n        /* \"Blockchain_project/ProfileManager.sol\":2537:2550  owners[_user] */\n      dup1\n        /* \"Blockchain_project/ProfileManager.sol\":2544:2549  _user */\n      dup5\n        /* \"Blockchain_project/ProfileManager.sol\":2537:2550  owners[_user] */\n      0xffffffffffffffffffffffffffffffffffffffff\n      and\n      0xffffffffffffffffffffffffffffffffffffffff\n      and\n      dup2\n      mstore\n      0x20\n      add\n      swap1\n      dup2\n      mstore\n      0x20\n      add\n      0x00\n      keccak256\n        /* \"Blockchain_project/ProfileManager.sol\":2537:2563  owners[_user].ownerAddress */\n      0x00\n      add\n      0x00\n      swap1\n      sload\n      swap1\n      0x0100\n      exp\n      swap1\n      div\n      0xffffffffffffffffffffffffffffffffffffffff\n      and\n        /* \"Blockchain_project/ProfileManager.sol\":2537:2577  owners[_user].ownerAddress != address(0) */\n      0xffffffffffffffffffffffffffffffffffffffff\n      and\n      eq\n      iszero\n        /* \"Blockchain_project/ProfileManager.sol\":2530:2577  return owners[_user].ownerAddress != address(0) */\n      swap1\n      pop\n        /* \"Blockchain_project/ProfileManager.sol\":2430:2584  function isProfileActive(address _user) public view onlyDonationsContract  returns (bool) {... */\n      swap2\n      swap1\n      pop\n      jump\t// out\n        /* \"Blockchain_project/ProfileManager.sol\":3161:3317  function getOwnerDetails(address _ownerAddress)... */\n    tag_52:\n        /* \"Blockchain_project/ProfileManager.sol\":3254:3266  Owner memory */\n      tag_169\n      tag_170\n      jump\t// in\n    tag_169:\n        /* \"Blockchain_project/ProfileManager.sol\":3289:3295  owners */\n      0x00\n        /* \"Blockchain_project/ProfileManager.sol\":3289:3310  owners[_ownerAddress] */\n      dup1\n        /* \"Blockchain_project/ProfileManager.sol\":3296:3309  _ownerAddress */\n      dup4\n        /* \"Blockchain_project/ProfileManager.sol\":3289:3310  owners[_ownerAddress] */\n      0xffffffffffffffffffffffffffffffffffffffff\n      and\n      0xffffffffffffffffffffffffffffffffffffffff\n      and\n      dup2\n      mstore\n      0x20\n      add\n      swap1\n      dup2\n      mstore\n      0x20\n      add\n      0x00\n      keccak256\n        /* \"Blockchain_project/ProfileManager.sol\":3282:3310  return owners[_ownerAddress] */\n      mload(0x40)\n      dup1\n      0xe0\n      add\n      0x40\n      mstore\n      swap1\n      dup2\n      0x00\n      dup3\n      add\n      0x00\n      swap1\n      sload\n      swap1\n      0x0100\n      exp\n      swap1\n      div\n      0xffffffffffffffffffffffffffffffffffffffff\n      and\n      0xffffffffffffffffffffffffffffffffffffffff\n      and\n      0xffffffffffffffffffffffffffffffffffffffff\n      and\n      dup2\n      mstore\n      0x20\n      add\n      0x00\n      dup3\n      add\n      0x14\n      swap1\n      sload\n      swap1\n      0x0100\n      exp\n      swap1\n      div\n      0xff\n      and\n      0x02\n      dup2\n      gt\n      iszero\n      tag_172\n      jumpi\n      tag_173\n      tag_157\n      jump\t// in\n    tag_173:\n    tag_172:\n      0x02\n      dup2\n      gt\n      iszero\n      tag_174\n      jumpi\n      tag_175\n      tag_157\n      jump\t// in\n    tag_175:\n    tag_174:\n      dup2\n      mstore\n      0x20\n      add\n      0x01\n      dup3\n      add\n      sload\n      dup2\n      mstore\n      0x20\n      add\n      0x02\n      dup3\n      add\n      dup1\n      sload\n      tag_176\n      swap1\n      tag_61\n      jump\t// in\n    tag_176:\n      dup1\n      0x1f\n      add\n      0x20\n      dup1\n      swap2\n      div\n      mul\n      0x20\n      add\n      mload(0x40)\n      swap1\n      dup2\n      add\n      0x40\n      mstore\n      dup1\n      swap3\n      swap2\n      swap1\n      dup2\n      dup2\n      mstore\n      0x20\n      add\n      dup3\n      dup1\n      sload\n      tag_177\n      swap1\n      tag_61\n      jump\t// in\n    tag_177:\n      dup1\n      iszero\n      tag_178\n      jumpi\n      dup1\n      0x1f\n      lt\n      tag_179\n      jumpi\n      0x0100\n      dup1\n      dup4\n      sload\n      div\n      mul\n      dup4\n      mstore\n      swap2\n      0x20\n      add\n      swap2\n      jump(tag_178)\n    tag_179:\n      dup3\n      add\n      swap2\n      swap1\n      0x00\n      mstore\n      keccak256(0x00, 0x20)\n      swap1\n    tag_180:\n      dup2\n      sload\n      dup2\n      mstore\n      swap1\n      0x01\n      add\n      swap1\n      0x20\n      add\n      dup1\n      dup4\n      gt\n      tag_180\n      jumpi\n      dup3\n      swap1\n      sub\n      0x1f\n      and\n      dup3\n      add\n      swap2\n    tag_178:\n      pop\n      pop\n      pop\n      pop\n      pop\n      dup2\n      mstore\n      0x20\n      add\n      0x03\n      dup3\n      add\n      dup1\n      sload\n      tag_181\n      swap1\n      tag_61\n      jump\t// in\n    tag_181:\n      dup1\n      0x1f\n      add\n      0x20\n      dup1\n      swap2\n      div\n      mul\n      0x20\n      add\n      mload(0x40)\n      swap1\n      dup2\n      add\n      0x40\n      mstore\n      dup1\n      swap3\n      swap2\n      swap1\n      dup2\n      dup2\n      mstore\n      0x20\n      add\n      dup3\n      dup1\n      sload\n      tag_182\n      swap1\n      tag_61\n      jump\t// in\n    tag_182:\n      dup1\n      iszero\n      tag_183\n      jumpi\n      dup1\n      0x1f\n      lt\n      tag_184\n      jumpi\n      0x0100\n      dup1\n      dup4\n      sload\n      div\n      mul\n      dup4\n      mstore\n      swap2\n      0x20\n      add\n      swap2\n      jump(tag_183)\n    tag_184:\n      dup3\n      add\n      swap2\n      swap1\n      0x00\n      mstore\n      keccak256(0x00, 0x20)\n      swap1\n    tag_185:\n      dup2\n      sload\n      dup2\n      mstore\n      swap1\n      0x01\n      add\n      swap1\n      0x20\n      add\n      dup1\n      dup4\n      gt\n      tag_185\n      jumpi\n      dup3\n      swap1\n      sub\n      0x1f\n      and\n      dup3\n      add\n      swap2\n    tag_183:\n      pop\n      pop\n      pop\n      pop\n      pop\n      dup2\n      mstore\n      0x20\n      add\n      0x04\n      dup3\n      add\n      dup1\n      sload\n      tag_186\n      swap1\n      tag_61\n      jump\t// in\n    tag_186:\n      dup1\n      0x1f\n      add\n      0x20\n      dup1\n      swap2\n      div\n      mul\n      0x20\n      add\n      mload(0x40)\n      swap1\n      dup2\n      add\n      0x40\n      mstore\n      dup1\n      swap3\n      swap2\n      swap1\n      dup2\n      dup2\n      mstore\n      0x20\n      add\n      dup3\n      dup1\n      sload\n      tag_187\n      swap1\n      tag_61\n      jump\t// in\n    tag_187:\n      dup1\n      iszero\n      tag_188\n      jumpi\n      dup1\n      0x1f\n      lt\n      tag_189\n      jumpi\n      0x0100\n      dup1\n      dup4\n      sload\n      div\n      mul\n      dup4\n      mstore\n      swap2\n      0x20\n      add\n      swap2\n      jump(tag_188)\n    tag_189:\n      dup3\n      add\n      swap2\n      swap1\n      0x00\n      mstore\n      keccak256(0x00, 0x20)\n      swap1\n    tag_190:\n      dup2\n      sload\n      dup2\n      mstore\n      swap1\n      0x01\n      add\n      swap1\n      0x20\n      add\n      dup1\n      dup4\n      gt\n      tag_190\n      jumpi\n      dup3\n      swap1\n      sub\n      0x1f\n      and\n      dup3\n      add\n      swap2\n    tag_188:\n      pop\n      pop\n      pop\n      pop\n      pop\n      dup2\n      mstore\n      0x20\n      add\n      0x05\n      dup3\n      add\n      dup1\n      sload\n      dup1\n      0x20\n      mul\n      0x20\n      add\n      mload(0x40)\n      swap1\n      dup2\n      add\n      0x40\n      mstore\n      dup1\n      swap3\n      swap2\n      swap1\n      dup2\n      dup2\n      mstore\n      0x20\n      add\n      dup3\n      dup1\n      sload\n      dup1\n      iszero\n      tag_191\n      jumpi\n      0x20\n      mul\n      dup3\n      add\n      swap2\n      swap1\n      0x00\n      mstore\n      keccak256(0x00, 0x20)\n      swap1\n    tag_192:\n      dup2\n      sload\n      dup2\n      mstore\n      0x20\n      add\n      swap1\n      0x01\n      add\n      swap1\n      dup1\n      dup4\n      gt\n      tag_192\n      jumpi\n    tag_191:\n      pop\n      pop\n      pop\n      pop\n      pop\n      dup2\n      mstore\n      pop\n      pop\n      swap1\n      pop\n        /* \"Blockchain_project/ProfileManager.sol\":3161:3317  function getOwnerDetails(address _ownerAddress)... */\n      swap2\n      swap1\n      pop\n      jump\t// out\n        /* \"Blockchain_project/ProfileManager.sol\":5158:5280  function getOwnerRole(address _ownerAddress) public view returns (Role) {... */\n    tag_57:\n        /* \"Blockchain_project/ProfileManager.sol\":5224:5228  Role */\n      0x00\n        /* \"Blockchain_project/ProfileManager.sol\":5247:5253  owners */\n      dup1\n        /* \"Blockchain_project/ProfileManager.sol\":5247:5268  owners[_ownerAddress] */\n      0x00\n        /* \"Blockchain_project/ProfileManager.sol\":5254:5267  _ownerAddress */\n      dup4\n        /* \"Blockchain_project/ProfileManager.sol\":5247:5268  owners[_ownerAddress] */\n      0xffffffffffffffffffffffffffffffffffffffff\n      and\n      0xffffffffffffffffffffffffffffffffffffffff\n      and\n      dup2\n      mstore\n      0x20\n      add\n      swap1\n      dup2\n      mstore\n      0x20\n      add\n      0x00\n      keccak256\n        /* \"Blockchain_project/ProfileManager.sol\":5247:5273  owners[_ownerAddress].role */\n      0x00\n      add\n      0x14\n      swap1\n      sload\n      swap1\n      0x0100\n      exp\n      swap1\n      div\n      0xff\n      and\n        /* \"Blockchain_project/ProfileManager.sol\":5240:5273  return owners[_ownerAddress].role */\n      swap1\n      pop\n        /* \"Blockchain_project/ProfileManager.sol\":5158:5280  function getOwnerRole(address _ownerAddress) public view returns (Role) {... */\n      swap2\n      swap1\n      pop\n      jump\t// out\n    tag_164:\n      dup3\n      dup1\n      sload\n      dup3\n      dup3\n      sstore\n      swap1\n      0x00\n      mstore\n      keccak256(0x00, 0x20)\n      swap1\n      dup2\n      add\n      swap3\n      dup3\n      iszero\n      tag_194\n      jumpi\n      swap2\n      0x20\n      mul\n      dup3\n      add\n    tag_195:\n      dup3\n      dup2\n      gt\n      iszero\n      tag_196\n      jumpi\n      dup3\n      mload\n      dup3\n      sstore\n      swap2\n      0x20\n      add\n      swap2\n      swap1\n      0x01\n      add\n      swap1\n      jump(tag_195)\n    tag_196:\n    tag_194:\n      pop\n      swap1\n      pop\n      tag_197\n      swap2\n      swap1\n      tag_198\n      jump\t// in\n    tag_197:\n      pop\n      swap1\n      jump\t// out\n    tag_170:\n      mload(0x40)\n      dup1\n      0xe0\n      add\n      0x40\n      mstore\n      dup1\n      and(0xffffffffffffffffffffffffffffffffffffffff, 0x00)\n      dup2\n      mstore\n      0x20\n      add\n      0x00\n      0x02\n      dup2\n      gt\n      iszero\n      tag_199\n      jumpi\n      tag_200\n      tag_157\n      jump\t// in\n    tag_200:\n    tag_199:\n      dup2\n      mstore\n      0x20\n      add\n      0x00\n      dup2\n      mstore\n      0x20\n      add\n      0x60\n      dup2\n      mstore\n      0x20\n      add\n      0x60\n      dup2\n      mstore\n      0x20\n      add\n      0x60\n      dup2\n      mstore\n      0x20\n      add\n      0x60\n      dup2\n      mstore\n      pop\n      swap1\n      jump\t// out\n    tag_198:\n    tag_201:\n      dup1\n      dup3\n      gt\n      iszero\n      tag_202\n      jumpi\n      0x00\n      dup2\n      0x00\n      swap1\n      sstore\n      pop\n      0x01\n      add\n      jump(tag_201)\n    tag_202:\n      pop\n      swap1\n      jump\t// out\n        /* \"#utility.yul\":7:82   */\n    tag_203:\n        /* \"#utility.yul\":40:46   */\n      0x00\n        /* \"#utility.yul\":73:75   */\n      0x40\n        /* \"#utility.yul\":67:76   */\n      mload\n        /* \"#utility.yul\":57:76   */\n      swap1\n      pop\n        /* \"#utility.yul\":7:82   */\n      swap1\n      jump\t// out\n        /* \"#utility.yul\":88:205   */\n    tag_204:\n        /* \"#utility.yul\":197:198   */\n      0x00\n        /* \"#utility.yul\":194:195   */\n      dup1\n        /* \"#utility.yul\":187:199   */\n      revert\n        /* \"#utility.yul\":211:328   */\n    tag_205:\n        /* \"#utility.yul\":320:321   */\n      0x00\n        /* \"#utility.yul\":317:318   */\n      dup1\n        /* \"#utility.yul\":310:322   */\n      revert\n        /* \"#utility.yul\":334:460   */\n    tag_206:\n        /* \"#utility.yul\":371:378   */\n      0x00\n        /* \"#utility.yul\":411:453   */\n      0xffffffffffffffffffffffffffffffffffffffff\n        /* \"#utility.yul\":404:409   */\n      dup3\n        /* \"#utility.yul\":400:454   */\n      and\n        /* \"#utility.yul\":389:454   */\n      swap1\n      pop\n        /* \"#utility.yul\":334:460   */\n      swap2\n      swap1\n      pop\n      jump\t// out\n        /* \"#utility.yul\":466:562   */\n    tag_207:\n        /* \"#utility.yul\":503:510   */\n      0x00\n        /* \"#utility.yul\":532:556   */\n      tag_306\n        /* \"#utility.yul\":550:555   */\n      dup3\n        /* \"#utility.yul\":532:556   */\n      tag_206\n      jump\t// in\n    tag_306:\n        /* \"#utility.yul\":521:556   */\n      swap1\n      pop\n        /* \"#utility.yul\":466:562   */\n      swap2\n      swap1\n      pop\n      jump\t// out\n        /* \"#utility.yul\":568:690   */\n    tag_208:\n        /* \"#utility.yul\":641:665   */\n      tag_308\n        /* \"#utility.yul\":659:664   */\n      dup2\n        /* \"#utility.yul\":641:665   */\n      tag_207\n      jump\t// in\n    tag_308:\n        /* \"#utility.yul\":634:639   */\n      dup2\n        /* \"#utility.yul\":631:666   */\n      eq\n        /* \"#utility.yul\":621:684   */\n      tag_309\n      jumpi\n        /* \"#utility.yul\":680:681   */\n      0x00\n        /* \"#utility.yul\":677:678   */\n      dup1\n        /* \"#utility.yul\":670:682   */\n      revert\n        /* \"#utility.yul\":621:684   */\n    tag_309:\n        /* \"#utility.yul\":568:690   */\n      pop\n      jump\t// out\n        /* \"#utility.yul\":696:835   */\n    tag_209:\n        /* \"#utility.yul\":742:747   */\n      0x00\n        /* \"#utility.yul\":780:786   */\n      dup2\n        /* \"#utility.yul\":767:787   */\n      calldataload\n        /* \"#utility.yul\":758:787   */\n      swap1\n      pop\n        /* \"#utility.yul\":796:829   */\n      tag_311\n        /* \"#utility.yul\":823:828   */\n      dup2\n        /* \"#utility.yul\":796:829   */\n      tag_208\n      jump\t// in\n    tag_311:\n        /* \"#utility.yul\":696:835   */\n      swap3\n      swap2\n      pop\n      pop\n      jump\t// out\n        /* \"#utility.yul\":841:1170   */\n    tag_16:\n        /* \"#utility.yul\":900:906   */\n      0x00\n        /* \"#utility.yul\":949:951   */\n      0x20\n        /* \"#utility.yul\":937:946   */\n      dup3\n        /* \"#utility.yul\":928:935   */\n      dup5\n        /* \"#utility.yul\":924:947   */\n      sub\n        /* \"#utility.yul\":920:952   */\n      slt\n        /* \"#utility.yul\":917:1036   */\n      iszero\n      tag_313\n      jumpi\n        /* \"#utility.yul\":955:1034   */\n      tag_314\n      tag_204\n      jump\t// in\n    tag_314:\n        /* \"#utility.yul\":917:1036   */\n    tag_313:\n        /* \"#utility.yul\":1075:1076   */\n      0x00\n        /* \"#utility.yul\":1100:1153   */\n      tag_315\n        /* \"#utility.yul\":1145:1152   */\n      dup5\n        /* \"#utility.yul\":1136:1142   */\n      dup3\n        /* \"#utility.yul\":1125:1134   */\n      dup6\n        /* \"#utility.yul\":1121:1143   */\n      add\n        /* \"#utility.yul\":1100:1153   */\n      tag_209\n      jump\t// in\n    tag_315:\n        /* \"#utility.yul\":1090:1153   */\n      swap2\n      pop\n        /* \"#utility.yul\":1046:1163   */\n      pop\n        /* \"#utility.yul\":841:1170   */\n      swap3\n      swap2\n      pop\n      pop\n      jump\t// out\n        /* \"#utility.yul\":1176:1294   */\n    tag_210:\n        /* \"#utility.yul\":1263:1287   */\n      tag_317\n        /* \"#utility.yul\":1281:1286   */\n      dup2\n        /* \"#utility.yul\":1263:1287   */\n      tag_207\n      jump\t// in\n    tag_317:\n        /* \"#utility.yul\":1258:1261   */\n      dup3\n        /* \"#utility.yul\":1251:1288   */\n      mstore\n        /* \"#utility.yul\":1176:1294   */\n      pop\n      pop\n      jump\t// out\n        /* \"#utility.yul\":1300:1480   */\n    tag_157:\n        /* \"#utility.yul\":1348:1425   */\n      0x4e487b7100000000000000000000000000000000000000000000000000000000\n        /* \"#utility.yul\":1345:1346   */\n      0x00\n        /* \"#utility.yul\":1338:1426   */\n      mstore\n        /* \"#utility.yul\":1445:1449   */\n      0x21\n        /* \"#utility.yul\":1442:1443   */\n      0x04\n        /* \"#utility.yul\":1435:1450   */\n      mstore\n        /* \"#utility.yul\":1469:1473   */\n      0x24\n        /* \"#utility.yul\":1466:1467   */\n      0x00\n        /* \"#utility.yul\":1459:1474   */\n      revert\n        /* \"#utility.yul\":1486:1598   */\n    tag_211:\n        /* \"#utility.yul\":1566:1567   */\n      0x03\n        /* \"#utility.yul\":1559:1564   */\n      dup2\n        /* \"#utility.yul\":1556:1568   */\n      lt\n        /* \"#utility.yul\":1546:1592   */\n      tag_320\n      jumpi\n        /* \"#utility.yul\":1572:1590   */\n      tag_321\n      tag_157\n      jump\t// in\n    tag_321:\n        /* \"#utility.yul\":1546:1592   */\n    tag_320:\n        /* \"#utility.yul\":1486:1598   */\n      pop\n      jump\t// out\n        /* \"#utility.yul\":1604:1729   */\n    tag_212:\n        /* \"#utility.yul\":1648:1655   */\n      0x00\n        /* \"#utility.yul\":1677:1682   */\n      dup2\n        /* \"#utility.yul\":1666:1682   */\n      swap1\n      pop\n        /* \"#utility.yul\":1683:1723   */\n      tag_323\n        /* \"#utility.yul\":1717:1722   */\n      dup3\n        /* \"#utility.yul\":1683:1723   */\n      tag_211\n      jump\t// in\n    tag_323:\n        /* \"#utility.yul\":1604:1729   */\n      swap2\n      swap1\n      pop\n      jump\t// out\n        /* \"#utility.yul\":1735:1860   */\n    tag_213:\n        /* \"#utility.yul\":1790:1799   */\n      0x00\n        /* \"#utility.yul\":1823:1854   */\n      tag_325\n        /* \"#utility.yul\":1848:1853   */\n      dup3\n        /* \"#utility.yul\":1823:1854   */\n      tag_212\n      jump\t// in\n    tag_325:\n        /* \"#utility.yul\":1810:1854   */\n      swap1\n      pop\n        /* \"#utility.yul\":1735:1860   */\n      swap2\n      swap1\n      pop\n      jump\t// out\n        /* \"#utility.yul\":1866:2007   */\n    tag_214:\n        /* \"#utility.yul\":1958:2000   */\n      tag_327\n        /* \"#utility.yul\":1994:1999   */\n      dup2\n        /* \"#utility.yul\":1958:2000   */\n      tag_213\n      jump\t// in\n    tag_327:\n        /* \"#utility.yul\":1953:1956   */\n      dup3\n        /* \"#utility.yul\":1946:2001   */\n      mstore\n        /* \"#utility.yul\":1866:2007   */\n      pop\n      pop\n      jump\t// out\n        /* \"#utility.yul\":2013:2090   */\n    tag_215:\n        /* \"#utility.yul\":2050:2057   */\n      0x00\n        /* \"#utility.yul\":2079:2084   */\n      dup2\n        /* \"#utility.yul\":2068:2084   */\n      swap1\n      pop\n        /* \"#utility.yul\":2013:2090   */\n      swap2\n      swap1\n      pop\n      jump\t// out\n        /* \"#utility.yul\":2096:2214   */\n    tag_216:\n        /* \"#utility.yul\":2183:2207   */\n      tag_330\n        /* \"#utility.yul\":2201:2206   */\n      dup2\n        /* \"#utility.yul\":2183:2207   */\n      tag_215\n      jump\t// in\n    tag_330:\n        /* \"#utility.yul\":2178:2181   */\n      dup3\n        /* \"#utility.yul\":2171:2208   */\n      mstore\n        /* \"#utility.yul\":2096:2214   */\n      pop\n      pop\n      jump\t// out\n        /* \"#utility.yul\":2220:2319   */\n    tag_217:\n        /* \"#utility.yul\":2272:2278   */\n      0x00\n        /* \"#utility.yul\":2306:2311   */\n      dup2\n        /* \"#utility.yul\":2300:2312   */\n      mload\n        /* \"#utility.yul\":2290:2312   */\n      swap1\n      pop\n        /* \"#utility.yul\":2220:2319   */\n      swap2\n      swap1\n      pop\n      jump\t// out\n        /* \"#utility.yul\":2325:2494   */\n    tag_218:\n        /* \"#utility.yul\":2409:2420   */\n      0x00\n        /* \"#utility.yul\":2443:2449   */\n      dup3\n        /* \"#utility.yul\":2438:2441   */\n      dup3\n        /* \"#utility.yul\":2431:2450   */\n      mstore\n        /* \"#utility.yul\":2483:2487   */\n      0x20\n        /* \"#utility.yul\":2478:2481   */\n      dup3\n        /* \"#utility.yul\":2474:2488   */\n      add\n        /* \"#utility.yul\":2459:2488   */\n      swap1\n      pop\n        /* \"#utility.yul\":2325:2494   */\n      swap3\n      swap2\n      pop\n      pop\n      jump\t// out\n        /* \"#utility.yul\":2500:2639   */\n    tag_219:\n        /* \"#utility.yul\":2589:2595   */\n      dup3\n        /* \"#utility.yul\":2584:2587   */\n      dup2\n        /* \"#utility.yul\":2579:2582   */\n      dup4\n        /* \"#utility.yul\":2573:2596   */\n      mcopy\n        /* \"#utility.yul\":2630:2631   */\n      0x00\n        /* \"#utility.yul\":2621:2627   */\n      dup4\n        /* \"#utility.yul\":2616:2619   */\n      dup4\n        /* \"#utility.yul\":2612:2628   */\n      add\n        /* \"#utility.yul\":2605:2632   */\n      mstore\n        /* \"#utility.yul\":2500:2639   */\n      pop\n      pop\n      pop\n      jump\t// out\n        /* \"#utility.yul\":2645:2747   */\n    tag_220:\n        /* \"#utility.yul\":2686:2692   */\n      0x00\n        /* \"#utility.yul\":2737:2739   */\n      0x1f\n        /* \"#utility.yul\":2733:2740   */\n      not\n        /* \"#utility.yul\":2728:2730   */\n      0x1f\n        /* \"#utility.yul\":2721:2726   */\n      dup4\n        /* \"#utility.yul\":2717:2731   */\n      add\n        /* \"#utility.yul\":2713:2741   */\n      and\n        /* \"#utility.yul\":2703:2741   */\n      swap1\n      pop\n        /* \"#utility.yul\":2645:2747   */\n      swap2\n      swap1\n      pop\n      jump\t// out\n        /* \"#utility.yul\":2753:3130   */\n    tag_221:\n        /* \"#utility.yul\":2841:2844   */\n      0x00\n        /* \"#utility.yul\":2869:2908   */\n      tag_336\n        /* \"#utility.yul\":2902:2907   */\n      dup3\n        /* \"#utility.yul\":2869:2908   */\n      tag_217\n      jump\t// in\n    tag_336:\n        /* \"#utility.yul\":2924:2995   */\n      tag_337\n        /* \"#utility.yul\":2988:2994   */\n      dup2\n        /* \"#utility.yul\":2983:2986   */\n      dup6\n        /* \"#utility.yul\":2924:2995   */\n      tag_218\n      jump\t// in\n    tag_337:\n        /* \"#utility.yul\":2917:2995   */\n      swap4\n      pop\n        /* \"#utility.yul\":3004:3069   */\n      tag_338\n        /* \"#utility.yul\":3062:3068   */\n      dup2\n        /* \"#utility.yul\":3057:3060   */\n      dup6\n        /* \"#utility.yul\":3050:3054   */\n      0x20\n        /* \"#utility.yul\":3043:3048   */\n      dup7\n        /* \"#utility.yul\":3039:3055   */\n      add\n        /* \"#utility.yul\":3004:3069   */\n      tag_219\n      jump\t// in\n    tag_338:\n        /* \"#utility.yul\":3094:3123   */\n      tag_339\n        /* \"#utility.yul\":3116:3122   */\n      dup2\n        /* \"#utility.yul\":3094:3123   */\n      tag_220\n      jump\t// in\n    tag_339:\n        /* \"#utility.yul\":3089:3092   */\n      dup5\n        /* \"#utility.yul\":3085:3124   */\n      add\n        /* \"#utility.yul\":3078:3124   */\n      swap2\n      pop\n        /* \"#utility.yul\":2845:3130   */\n      pop\n        /* \"#utility.yul\":2753:3130   */\n      swap3\n      swap2\n      pop\n      pop\n      jump\t// out\n        /* \"#utility.yul\":3136:4194   */\n    tag_19:\n        /* \"#utility.yul\":3434:3438   */\n      0x00\n        /* \"#utility.yul\":3472:3475   */\n      0xc0\n        /* \"#utility.yul\":3461:3470   */\n      dup3\n        /* \"#utility.yul\":3457:3476   */\n      add\n        /* \"#utility.yul\":3449:3476   */\n      swap1\n      pop\n        /* \"#utility.yul\":3486:3557   */\n      tag_341\n        /* \"#utility.yul\":3554:3555   */\n      0x00\n        /* \"#utility.yul\":3543:3552   */\n      dup4\n        /* \"#utility.yul\":3539:3556   */\n      add\n        /* \"#utility.yul\":3530:3536   */\n      dup10\n        /* \"#utility.yul\":3486:3557   */\n      tag_210\n      jump\t// in\n    tag_341:\n        /* \"#utility.yul\":3567:3644   */\n      tag_342\n        /* \"#utility.yul\":3640:3642   */\n      0x20\n        /* \"#utility.yul\":3629:3638   */\n      dup4\n        /* \"#utility.yul\":3625:3643   */\n      add\n        /* \"#utility.yul\":3616:3622   */\n      dup9\n        /* \"#utility.yul\":3567:3644   */\n      tag_214\n      jump\t// in\n    tag_342:\n        /* \"#utility.yul\":3654:3726   */\n      tag_343\n        /* \"#utility.yul\":3722:3724   */\n      0x40\n        /* \"#utility.yul\":3711:3720   */\n      dup4\n        /* \"#utility.yul\":3707:3725   */\n      add\n        /* \"#utility.yul\":3698:3704   */\n      dup8\n        /* \"#utility.yul\":3654:3726   */\n      tag_216\n      jump\t// in\n    tag_343:\n        /* \"#utility.yul\":3773:3782   */\n      dup2\n        /* \"#utility.yul\":3767:3771   */\n      dup2\n        /* \"#utility.yul\":3763:3783   */\n      sub\n        /* \"#utility.yul\":3758:3760   */\n      0x60\n        /* \"#utility.yul\":3747:3756   */\n      dup4\n        /* \"#utility.yul\":3743:3761   */\n      add\n        /* \"#utility.yul\":3736:3784   */\n      mstore\n        /* \"#utility.yul\":3801:3879   */\n      tag_344\n        /* \"#utility.yul\":3874:3878   */\n      dup2\n        /* \"#utility.yul\":3865:3871   */\n      dup7\n        /* \"#utility.yul\":3801:3879   */\n      tag_221\n      jump\t// in\n    tag_344:\n        /* \"#utility.yul\":3793:3879   */\n      swap1\n      pop\n        /* \"#utility.yul\":3927:3936   */\n      dup2\n        /* \"#utility.yul\":3921:3925   */\n      dup2\n        /* \"#utility.yul\":3917:3937   */\n      sub\n        /* \"#utility.yul\":3911:3914   */\n      0x80\n        /* \"#utility.yul\":3900:3909   */\n      dup4\n        /* \"#utility.yul\":3896:3915   */\n      add\n        /* \"#utility.yul\":3889:3938   */\n      mstore\n        /* \"#utility.yul\":3955:4033   */\n      tag_345\n        /* \"#utility.yul\":4028:4032   */\n      dup2\n        /* \"#utility.yul\":4019:4025   */\n      dup6\n        /* \"#utility.yul\":3955:4033   */\n      tag_221\n      jump\t// in\n    tag_345:\n        /* \"#utility.yul\":3947:4033   */\n      swap1\n      pop\n        /* \"#utility.yul\":4081:4090   */\n      dup2\n        /* \"#utility.yul\":4075:4079   */\n      dup2\n        /* \"#utility.yul\":4071:4091   */\n      sub\n        /* \"#utility.yul\":4065:4068   */\n      0xa0\n        /* \"#utility.yul\":4054:4063   */\n      dup4\n        /* \"#utility.yul\":4050:4069   */\n      add\n        /* \"#utility.yul\":4043:4092   */\n      mstore\n        /* \"#utility.yul\":4109:4187   */\n      tag_346\n        /* \"#utility.yul\":4182:4186   */\n      dup2\n        /* \"#utility.yul\":4173:4179   */\n      dup5\n        /* \"#utility.yul\":4109:4187   */\n      tag_221\n      jump\t// in\n    tag_346:\n        /* \"#utility.yul\":4101:4187   */\n      swap1\n      pop\n        /* \"#utility.yul\":3136:4194   */\n      swap8\n      swap7\n      pop\n      pop\n      pop\n      pop\n      pop\n      pop\n      pop\n      jump\t// out\n        /* \"#utility.yul\":4200:4322   */\n    tag_222:\n        /* \"#utility.yul\":4273:4297   */\n      tag_348\n        /* \"#utility.yul\":4291:4296   */\n      dup2\n        /* \"#utility.yul\":4273:4297   */\n      tag_215\n      jump\t// in\n    tag_348:\n        /* \"#utility.yul\":4266:4271   */\n      dup2\n        /* \"#utility.yul\":4263:4298   */\n      eq\n        /* \"#utility.yul\":4253:4316   */\n      tag_349\n      jumpi\n        /* \"#utility.yul\":4312:4313   */\n      0x00\n        /* \"#utility.yul\":4309:4310   */\n      dup1\n        /* \"#utility.yul\":4302:4314   */\n      revert\n        /* \"#utility.yul\":4253:4316   */\n    tag_349:\n        /* \"#utility.yul\":4200:4322   */\n      pop\n      jump\t// out\n        /* \"#utility.yul\":4328:4467   */\n    tag_223:\n        /* \"#utility.yul\":4374:4379   */\n      0x00\n        /* \"#utility.yul\":4412:4418   */\n      dup2\n        /* \"#utility.yul\":4399:4419   */\n      calldataload\n        /* \"#utility.yul\":4390:4419   */\n      swap1\n      pop\n        /* \"#utility.yul\":4428:4461   */\n      tag_351\n        /* \"#utility.yul\":4455:4460   */\n      dup2\n        /* \"#utility.yul\":4428:4461   */\n      tag_222\n      jump\t// in\n    tag_351:\n        /* \"#utility.yul\":4328:4467   */\n      swap3\n      swap2\n      pop\n      pop\n      jump\t// out\n        /* \"#utility.yul\":4473:4947   */\n    tag_22:\n        /* \"#utility.yul\":4541:4547   */\n      0x00\n        /* \"#utility.yul\":4549:4555   */\n      dup1\n        /* \"#utility.yul\":4598:4600   */\n      0x40\n        /* \"#utility.yul\":4586:4595   */\n      dup4\n        /* \"#utility.yul\":4577:4584   */\n      dup6\n        /* \"#utility.yul\":4573:4596   */\n      sub\n        /* \"#utility.yul\":4569:4601   */\n      slt\n        /* \"#utility.yul\":4566:4685   */\n      iszero\n      tag_353\n      jumpi\n        /* \"#utility.yul\":4604:4683   */\n      tag_354\n      tag_204\n      jump\t// in\n    tag_354:\n        /* \"#utility.yul\":4566:4685   */\n    tag_353:\n        /* \"#utility.yul\":4724:4725   */\n      0x00\n        /* \"#utility.yul\":4749:4802   */\n      tag_355\n        /* \"#utility.yul\":4794:4801   */\n      dup6\n        /* \"#utility.yul\":4785:4791   */\n      dup3\n        /* \"#utility.yul\":4774:4783   */\n      dup7\n        /* \"#utility.yul\":4770:4792   */\n      add\n        /* \"#utility.yul\":4749:4802   */\n      tag_209\n      jump\t// in\n    tag_355:\n        /* \"#utility.yul\":4739:4802   */\n      swap3\n      pop\n        /* \"#utility.yul\":4695:4812   */\n      pop\n        /* \"#utility.yul\":4851:4853   */\n      0x20\n        /* \"#utility.yul\":4877:4930   */\n      tag_356\n        /* \"#utility.yul\":4922:4929   */\n      dup6\n        /* \"#utility.yul\":4913:4919   */\n      dup3\n        /* \"#utility.yul\":4902:4911   */\n      dup7\n        /* \"#utility.yul\":4898:4920   */\n      add\n        /* \"#utility.yul\":4877:4930   */\n      tag_223\n      jump\t// in\n    tag_356:\n        /* \"#utility.yul\":4867:4930   */\n      swap2\n      pop\n        /* \"#utility.yul\":4822:4940   */\n      pop\n        /* \"#utility.yul\":4473:4947   */\n      swap3\n      pop\n      swap3\n      swap1\n      pop\n      jump\t// out\n        /* \"#utility.yul\":4953:5070   */\n    tag_224:\n        /* \"#utility.yul\":5062:5063   */\n      0x00\n        /* \"#utility.yul\":5059:5060   */\n      dup1\n        /* \"#utility.yul\":5052:5064   */\n      revert\n        /* \"#utility.yul\":5076:5193   */\n    tag_225:\n        /* \"#utility.yul\":5185:5186   */\n      0x00\n        /* \"#utility.yul\":5182:5183   */\n      dup1\n        /* \"#utility.yul\":5175:5187   */\n      revert\n        /* \"#utility.yul\":5199:5379   */\n    tag_101:\n        /* \"#utility.yul\":5247:5324   */\n      0x4e487b7100000000000000000000000000000000000000000000000000000000\n        /* \"#utility.yul\":5244:5245   */\n      0x00\n        /* \"#utility.yul\":5237:5325   */\n      mstore\n        /* \"#utility.yul\":5344:5348   */\n      0x41\n        /* \"#utility.yul\":5341:5342   */\n      0x04\n        /* \"#utility.yul\":5334:5349   */\n      mstore\n        /* \"#utility.yul\":5368:5372   */\n      0x24\n        /* \"#utility.yul\":5365:5366   */\n      0x00\n        /* \"#utility.yul\":5358:5373   */\n      revert\n        /* \"#utility.yul\":5385:5666   */\n    tag_226:\n        /* \"#utility.yul\":5468:5495   */\n      tag_361\n        /* \"#utility.yul\":5490:5494   */\n      dup3\n        /* \"#utility.yul\":5468:5495   */\n      tag_220\n      jump\t// in\n    tag_361:\n        /* \"#utility.yul\":5460:5466   */\n      dup2\n        /* \"#utility.yul\":5456:5496   */\n      add\n        /* \"#utility.yul\":5598:5604   */\n      dup2\n        /* \"#utility.yul\":5586:5596   */\n      dup2\n        /* \"#utility.yul\":5583:5605   */\n      lt\n        /* \"#utility.yul\":5562:5580   */\n      0xffffffffffffffff\n        /* \"#utility.yul\":5550:5560   */\n      dup3\n        /* \"#utility.yul\":5547:5581   */\n      gt\n        /* \"#utility.yul\":5544:5606   */\n      or\n        /* \"#utility.yul\":5541:5629   */\n      iszero\n      tag_362\n      jumpi\n        /* \"#utility.yul\":5609:5627   */\n      tag_363\n      tag_101\n      jump\t// in\n    tag_363:\n        /* \"#utility.yul\":5541:5629   */\n    tag_362:\n        /* \"#utility.yul\":5649:5659   */\n      dup1\n        /* \"#utility.yul\":5645:5647   */\n      0x40\n        /* \"#utility.yul\":5638:5660   */\n      mstore\n        /* \"#utility.yul\":5428:5666   */\n      pop\n        /* \"#utility.yul\":5385:5666   */\n      pop\n      pop\n      jump\t// out\n        /* \"#utility.yul\":5672:5801   */\n    tag_227:\n        /* \"#utility.yul\":5706:5712   */\n      0x00\n        /* \"#utility.yul\":5733:5753   */\n      tag_365\n      tag_203\n      jump\t// in\n    tag_365:\n        /* \"#utility.yul\":5723:5753   */\n      swap1\n      pop\n        /* \"#utility.yul\":5762:5795   */\n      tag_366\n        /* \"#utility.yul\":5790:5794   */\n      dup3\n        /* \"#utility.yul\":5782:5788   */\n      dup3\n        /* \"#utility.yul\":5762:5795   */\n      tag_226\n      jump\t// in\n    tag_366:\n        /* \"#utility.yul\":5672:5801   */\n      swap2\n      swap1\n      pop\n      jump\t// out\n        /* \"#utility.yul\":5807:6115   */\n    tag_228:\n        /* \"#utility.yul\":5869:5873   */\n      0x00\n        /* \"#utility.yul\":5959:5977   */\n      0xffffffffffffffff\n        /* \"#utility.yul\":5951:5957   */\n      dup3\n        /* \"#utility.yul\":5948:5978   */\n      gt\n        /* \"#utility.yul\":5945:6001   */\n      iszero\n      tag_368\n      jumpi\n        /* \"#utility.yul\":5981:5999   */\n      tag_369\n      tag_101\n      jump\t// in\n    tag_369:\n        /* \"#utility.yul\":5945:6001   */\n    tag_368:\n        /* \"#utility.yul\":6019:6048   */\n      tag_370\n        /* \"#utility.yul\":6041:6047   */\n      dup3\n        /* \"#utility.yul\":6019:6048   */\n      tag_220\n      jump\t// in\n    tag_370:\n        /* \"#utility.yul\":6011:6048   */\n      swap1\n      pop\n        /* \"#utility.yul\":6103:6107   */\n      0x20\n        /* \"#utility.yul\":6097:6101   */\n      dup2\n        /* \"#utility.yul\":6093:6108   */\n      add\n        /* \"#utility.yul\":6085:6108   */\n      swap1\n      pop\n        /* \"#utility.yul\":5807:6115   */\n      swap2\n      swap1\n      pop\n      jump\t// out\n        /* \"#utility.yul\":6121:6269   */\n    tag_229:\n        /* \"#utility.yul\":6219:6225   */\n      dup3\n        /* \"#utility.yul\":6214:6217   */\n      dup2\n        /* \"#utility.yul\":6209:6212   */\n      dup4\n        /* \"#utility.yul\":6196:6226   */\n      calldatacopy\n        /* \"#utility.yul\":6260:6261   */\n      0x00\n        /* \"#utility.yul\":6251:6257   */\n      dup4\n        /* \"#utility.yul\":6246:6249   */\n      dup4\n        /* \"#utility.yul\":6242:6258   */\n      add\n        /* \"#utility.yul\":6235:6262   */\n      mstore\n        /* \"#utility.yul\":6121:6269   */\n      pop\n      pop\n      pop\n      jump\t// out\n        /* \"#utility.yul\":6275:6700   */\n    tag_230:\n        /* \"#utility.yul\":6353:6358   */\n      0x00\n        /* \"#utility.yul\":6378:6444   */\n      tag_373\n        /* \"#utility.yul\":6394:6443   */\n      tag_374\n        /* \"#utility.yul\":6436:6442   */\n      dup5\n        /* \"#utility.yul\":6394:6443   */\n      tag_228\n      jump\t// in\n    tag_374:\n        /* \"#utility.yul\":6378:6444   */\n      tag_227\n      jump\t// in\n    tag_373:\n        /* \"#utility.yul\":6369:6444   */\n      swap1\n      pop\n        /* \"#utility.yul\":6467:6473   */\n      dup3\n        /* \"#utility.yul\":6460:6465   */\n      dup2\n        /* \"#utility.yul\":6453:6474   */\n      mstore\n        /* \"#utility.yul\":6505:6509   */\n      0x20\n        /* \"#utility.yul\":6498:6503   */\n      dup2\n        /* \"#utility.yul\":6494:6510   */\n      add\n        /* \"#utility.yul\":6543:6546   */\n      dup5\n        /* \"#utility.yul\":6534:6540   */\n      dup5\n        /* \"#utility.yul\":6529:6532   */\n      dup5\n        /* \"#utility.yul\":6525:6541   */\n      add\n        /* \"#utility.yul\":6522:6547   */\n      gt\n        /* \"#utility.yul\":6519:6631   */\n      iszero\n      tag_375\n      jumpi\n        /* \"#utility.yul\":6550:6629   */\n      tag_376\n      tag_225\n      jump\t// in\n    tag_376:\n        /* \"#utility.yul\":6519:6631   */\n    tag_375:\n        /* \"#utility.yul\":6640:6694   */\n      tag_377\n        /* \"#utility.yul\":6687:6693   */\n      dup5\n        /* \"#utility.yul\":6682:6685   */\n      dup3\n        /* \"#utility.yul\":6677:6680   */\n      dup6\n        /* \"#utility.yul\":6640:6694   */\n      tag_229\n      jump\t// in\n    tag_377:\n        /* \"#utility.yul\":6359:6700   */\n      pop\n        /* \"#utility.yul\":6275:6700   */\n      swap4\n      swap3\n      pop\n      pop\n      pop\n      jump\t// out\n        /* \"#utility.yul\":6720:7060   */\n    tag_231:\n        /* \"#utility.yul\":6776:6781   */\n      0x00\n        /* \"#utility.yul\":6825:6828   */\n      dup3\n        /* \"#utility.yul\":6818:6822   */\n      0x1f\n        /* \"#utility.yul\":6810:6816   */\n      dup4\n        /* \"#utility.yul\":6806:6823   */\n      add\n        /* \"#utility.yul\":6802:6829   */\n      slt\n        /* \"#utility.yul\":6792:6914   */\n      tag_379\n      jumpi\n        /* \"#utility.yul\":6833:6912   */\n      tag_380\n      tag_224\n      jump\t// in\n    tag_380:\n        /* \"#utility.yul\":6792:6914   */\n    tag_379:\n        /* \"#utility.yul\":6950:6956   */\n      dup2\n        /* \"#utility.yul\":6937:6957   */\n      calldataload\n        /* \"#utility.yul\":6975:7054   */\n      tag_381\n        /* \"#utility.yul\":7050:7053   */\n      dup5\n        /* \"#utility.yul\":7042:7048   */\n      dup3\n        /* \"#utility.yul\":7035:7039   */\n      0x20\n        /* \"#utility.yul\":7027:7033   */\n      dup7\n        /* \"#utility.yul\":7023:7040   */\n      add\n        /* \"#utility.yul\":6975:7054   */\n      tag_230\n      jump\t// in\n    tag_381:\n        /* \"#utility.yul\":6966:7054   */\n      swap2\n      pop\n        /* \"#utility.yul\":6782:7060   */\n      pop\n        /* \"#utility.yul\":6720:7060   */\n      swap3\n      swap2\n      pop\n      pop\n      jump\t// out\n        /* \"#utility.yul\":7066:8225   */\n    tag_26:\n        /* \"#utility.yul\":7173:7179   */\n      0x00\n        /* \"#utility.yul\":7181:7187   */\n      dup1\n        /* \"#utility.yul\":7189:7195   */\n      0x00\n        /* \"#utility.yul\":7238:7240   */\n      0x60\n        /* \"#utility.yul\":7226:7235   */\n      dup5\n        /* \"#utility.yul\":7217:7224   */\n      dup7\n        /* \"#utility.yul\":7213:7236   */\n      sub\n        /* \"#utility.yul\":7209:7241   */\n      slt\n        /* \"#utility.yul\":7206:7325   */\n      iszero\n      tag_383\n      jumpi\n        /* \"#utility.yul\":7244:7323   */\n      tag_384\n      tag_204\n      jump\t// in\n    tag_384:\n        /* \"#utility.yul\":7206:7325   */\n    tag_383:\n        /* \"#utility.yul\":7392:7393   */\n      0x00\n        /* \"#utility.yul\":7381:7390   */\n      dup5\n        /* \"#utility.yul\":7377:7394   */\n      add\n        /* \"#utility.yul\":7364:7395   */\n      calldataload\n        /* \"#utility.yul\":7422:7440   */\n      0xffffffffffffffff\n        /* \"#utility.yul\":7414:7420   */\n      dup2\n        /* \"#utility.yul\":7411:7441   */\n      gt\n        /* \"#utility.yul\":7408:7525   */\n      iszero\n      tag_385\n      jumpi\n        /* \"#utility.yul\":7444:7523   */\n      tag_386\n      tag_205\n      jump\t// in\n    tag_386:\n        /* \"#utility.yul\":7408:7525   */\n    tag_385:\n        /* \"#utility.yul\":7549:7612   */\n      tag_387\n        /* \"#utility.yul\":7604:7611   */\n      dup7\n        /* \"#utility.yul\":7595:7601   */\n      dup3\n        /* \"#utility.yul\":7584:7593   */\n      dup8\n        /* \"#utility.yul\":7580:7602   */\n      add\n        /* \"#utility.yul\":7549:7612   */\n      tag_231\n      jump\t// in\n    tag_387:\n        /* \"#utility.yul\":7539:7612   */\n      swap4\n      pop\n        /* \"#utility.yul\":7335:7622   */\n      pop\n        /* \"#utility.yul\":7689:7691   */\n      0x20\n        /* \"#utility.yul\":7678:7687   */\n      dup5\n        /* \"#utility.yul\":7674:7692   */\n      add\n        /* \"#utility.yul\":7661:7693   */\n      calldataload\n        /* \"#utility.yul\":7720:7738   */\n      0xffffffffffffffff\n        /* \"#utility.yul\":7712:7718   */\n      dup2\n        /* \"#utility.yul\":7709:7739   */\n      gt\n        /* \"#utility.yul\":7706:7823   */\n      iszero\n      tag_388\n      jumpi\n        /* \"#utility.yul\":7742:7821   */\n      tag_389\n      tag_205\n      jump\t// in\n    tag_389:\n        /* \"#utility.yul\":7706:7823   */\n    tag_388:\n        /* \"#utility.yul\":7847:7910   */\n      tag_390\n        /* \"#utility.yul\":7902:7909   */\n      dup7\n        /* \"#utility.yul\":7893:7899   */\n      dup3\n        /* \"#utility.yul\":7882:7891   */\n      dup8\n        /* \"#utility.yul\":7878:7900   */\n      add\n        /* \"#utility.yul\":7847:7910   */\n      tag_231\n      jump\t// in\n    tag_390:\n        /* \"#utility.yul\":7837:7910   */\n      swap3\n      pop\n        /* \"#utility.yul\":7632:7920   */\n      pop\n        /* \"#utility.yul\":7987:7989   */\n      0x40\n        /* \"#utility.yul\":7976:7985   */\n      dup5\n        /* \"#utility.yul\":7972:7990   */\n      add\n        /* \"#utility.yul\":7959:7991   */\n      calldataload\n        /* \"#utility.yul\":8018:8036   */\n      0xffffffffffffffff\n        /* \"#utility.yul\":8010:8016   */\n      dup2\n        /* \"#utility.yul\":8007:8037   */\n      gt\n        /* \"#utility.yul\":8004:8121   */\n      iszero\n      tag_391\n      jumpi\n        /* \"#utility.yul\":8040:8119   */\n      tag_392\n      tag_205\n      jump\t// in\n    tag_392:\n        /* \"#utility.yul\":8004:8121   */\n    tag_391:\n        /* \"#utility.yul\":8145:8208   */\n      tag_393\n        /* \"#utility.yul\":8200:8207   */\n      dup7\n        /* \"#utility.yul\":8191:8197   */\n      dup3\n        /* \"#utility.yul\":8180:8189   */\n      dup8\n        /* \"#utility.yul\":8176:8198   */\n      add\n        /* \"#utility.yul\":8145:8208   */\n      tag_231\n      jump\t// in\n    tag_393:\n        /* \"#utility.yul\":8135:8208   */\n      swap2\n      pop\n        /* \"#utility.yul\":7930:8218   */\n      pop\n        /* \"#utility.yul\":7066:8225   */\n      swap3\n      pop\n      swap3\n      pop\n      swap3\n      jump\t// out\n        /* \"#utility.yul\":8231:8321   */\n    tag_232:\n        /* \"#utility.yul\":8265:8272   */\n      0x00\n        /* \"#utility.yul\":8308:8313   */\n      dup2\n        /* \"#utility.yul\":8301:8314   */\n      iszero\n        /* \"#utility.yul\":8294:8315   */\n      iszero\n        /* \"#utility.yul\":8283:8315   */\n      swap1\n      pop\n        /* \"#utility.yul\":8231:8321   */\n      swap2\n      swap1\n      pop\n      jump\t// out\n        /* \"#utility.yul\":8327:8436   */\n    tag_233:\n        /* \"#utility.yul\":8408:8429   */\n      tag_396\n        /* \"#utility.yul\":8423:8428   */\n      dup2\n        /* \"#utility.yul\":8408:8429   */\n      tag_232\n      jump\t// in\n    tag_396:\n        /* \"#utility.yul\":8403:8406   */\n      dup3\n        /* \"#utility.yul\":8396:8430   */\n      mstore\n        /* \"#utility.yul\":8327:8436   */\n      pop\n      pop\n      jump\t// out\n        /* \"#utility.yul\":8442:8652   */\n    tag_32:\n        /* \"#utility.yul\":8529:8533   */\n      0x00\n        /* \"#utility.yul\":8567:8569   */\n      0x20\n        /* \"#utility.yul\":8556:8565   */\n      dup3\n        /* \"#utility.yul\":8552:8570   */\n      add\n        /* \"#utility.yul\":8544:8570   */\n      swap1\n      pop\n        /* \"#utility.yul\":8580:8645   */\n      tag_398\n        /* \"#utility.yul\":8642:8643   */\n      0x00\n        /* \"#utility.yul\":8631:8640   */\n      dup4\n        /* \"#utility.yul\":8627:8644   */\n      add\n        /* \"#utility.yul\":8618:8624   */\n      dup5\n        /* \"#utility.yul\":8580:8645   */\n      tag_233\n      jump\t// in\n    tag_398:\n        /* \"#utility.yul\":8442:8652   */\n      swap3\n      swap2\n      pop\n      pop\n      jump\t// out\n        /* \"#utility.yul\":8658:8782   */\n    tag_234:\n        /* \"#utility.yul\":8735:8741   */\n      0x00\n        /* \"#utility.yul\":8769:8774   */\n      dup2\n        /* \"#utility.yul\":8763:8775   */\n      mload\n        /* \"#utility.yul\":8753:8775   */\n      swap1\n      pop\n        /* \"#utility.yul\":8658:8782   */\n      swap2\n      swap1\n      pop\n      jump\t// out\n        /* \"#utility.yul\":8788:8982   */\n    tag_235:\n        /* \"#utility.yul\":8897:8908   */\n      0x00\n        /* \"#utility.yul\":8931:8937   */\n      dup3\n        /* \"#utility.yul\":8926:8929   */\n      dup3\n        /* \"#utility.yul\":8919:8938   */\n      mstore\n        /* \"#utility.yul\":8971:8975   */\n      0x20\n        /* \"#utility.yul\":8966:8969   */\n      dup3\n        /* \"#utility.yul\":8962:8976   */\n      add\n        /* \"#utility.yul\":8947:8976   */\n      swap1\n      pop\n        /* \"#utility.yul\":8788:8982   */\n      swap3\n      swap2\n      pop\n      pop\n      jump\t// out\n        /* \"#utility.yul\":8988:9130   */\n    tag_236:\n        /* \"#utility.yul\":9065:9069   */\n      0x00\n        /* \"#utility.yul\":9088:9091   */\n      dup2\n        /* \"#utility.yul\":9080:9091   */\n      swap1\n      pop\n        /* \"#utility.yul\":9118:9122   */\n      0x20\n        /* \"#utility.yul\":9113:9116   */\n      dup3\n        /* \"#utility.yul\":9109:9123   */\n      add\n        /* \"#utility.yul\":9101:9123   */\n      swap1\n      pop\n        /* \"#utility.yul\":8988:9130   */\n      swap2\n      swap1\n      pop\n      jump\t// out\n        /* \"#utility.yul\":9136:9295   */\n    tag_237:\n        /* \"#utility.yul\":9210:9221   */\n      0x00\n        /* \"#utility.yul\":9244:9250   */\n      dup3\n        /* \"#utility.yul\":9239:9242   */\n      dup3\n        /* \"#utility.yul\":9232:9251   */\n      mstore\n        /* \"#utility.yul\":9284:9288   */\n      0x20\n        /* \"#utility.yul\":9279:9282   */\n      dup3\n        /* \"#utility.yul\":9275:9289   */\n      add\n        /* \"#utility.yul\":9260:9289   */\n      swap1\n      pop\n        /* \"#utility.yul\":9136:9295   */\n      swap3\n      swap2\n      pop\n      pop\n      jump\t// out\n        /* \"#utility.yul\":9301:9658   */\n    tag_238:\n        /* \"#utility.yul\":9379:9382   */\n      0x00\n        /* \"#utility.yul\":9407:9446   */\n      tag_404\n        /* \"#utility.yul\":9440:9445   */\n      dup3\n        /* \"#utility.yul\":9407:9446   */\n      tag_217\n      jump\t// in\n    tag_404:\n        /* \"#utility.yul\":9462:9523   */\n      tag_405\n        /* \"#utility.yul\":9516:9522   */\n      dup2\n        /* \"#utility.yul\":9511:9514   */\n      dup6\n        /* \"#utility.yul\":9462:9523   */\n      tag_237\n      jump\t// in\n    tag_405:\n        /* \"#utility.yul\":9455:9523   */\n      swap4\n      pop\n        /* \"#utility.yul\":9532:9597   */\n      tag_406\n        /* \"#utility.yul\":9590:9596   */\n      dup2\n        /* \"#utility.yul\":9585:9588   */\n      dup6\n        /* \"#utility.yul\":9578:9582   */\n      0x20\n        /* \"#utility.yul\":9571:9576   */\n      dup7\n        /* \"#utility.yul\":9567:9583   */\n      add\n        /* \"#utility.yul\":9532:9597   */\n      tag_219\n      jump\t// in\n    tag_406:\n        /* \"#utility.yul\":9622:9651   */\n      tag_407\n        /* \"#utility.yul\":9644:9650   */\n      dup2\n        /* \"#utility.yul\":9622:9651   */\n      tag_220\n      jump\t// in\n    tag_407:\n        /* \"#utility.yul\":9617:9620   */\n      dup5\n        /* \"#utility.yul\":9613:9652   */\n      add\n        /* \"#utility.yul\":9606:9652   */\n      swap2\n      pop\n        /* \"#utility.yul\":9383:9658   */\n      pop\n        /* \"#utility.yul\":9301:9658   */\n      swap3\n      swap2\n      pop\n      pop\n      jump\t// out\n        /* \"#utility.yul\":9664:9860   */\n    tag_239:\n        /* \"#utility.yul\":9753:9763   */\n      0x00\n        /* \"#utility.yul\":9788:9854   */\n      tag_409\n        /* \"#utility.yul\":9850:9853   */\n      dup4\n        /* \"#utility.yul\":9842:9848   */\n      dup4\n        /* \"#utility.yul\":9788:9854   */\n      tag_238\n      jump\t// in\n    tag_409:\n        /* \"#utility.yul\":9774:9854   */\n      swap1\n      pop\n        /* \"#utility.yul\":9664:9860   */\n      swap3\n      swap2\n      pop\n      pop\n      jump\t// out\n        /* \"#utility.yul\":9866:9989   */\n    tag_240:\n        /* \"#utility.yul\":9946:9950   */\n      0x00\n        /* \"#utility.yul\":9978:9982   */\n      0x20\n        /* \"#utility.yul\":9973:9976   */\n      dup3\n        /* \"#utility.yul\":9969:9983   */\n      add\n        /* \"#utility.yul\":9961:9983   */\n      swap1\n      pop\n        /* \"#utility.yul\":9866:9989   */\n      swap2\n      swap1\n      pop\n      jump\t// out\n        /* \"#utility.yul\":10023:11014   */\n    tag_241:\n        /* \"#utility.yul\":10162:10165   */\n      0x00\n        /* \"#utility.yul\":10191:10255   */\n      tag_412\n        /* \"#utility.yul\":10249:10254   */\n      dup3\n        /* \"#utility.yul\":10191:10255   */\n      tag_234\n      jump\t// in\n    tag_412:\n        /* \"#utility.yul\":10271:10367   */\n      tag_413\n        /* \"#utility.yul\":10360:10366   */\n      dup2\n        /* \"#utility.yul\":10355:10358   */\n      dup6\n        /* \"#utility.yul\":10271:10367   */\n      tag_235\n      jump\t// in\n    tag_413:\n        /* \"#utility.yul\":10264:10367   */\n      swap4\n      pop\n        /* \"#utility.yul\":10393:10396   */\n      dup4\n        /* \"#utility.yul\":10438:10442   */\n      0x20\n        /* \"#utility.yul\":10430:10436   */\n      dup3\n        /* \"#utility.yul\":10426:10443   */\n      mul\n        /* \"#utility.yul\":10421:10424   */\n      dup6\n        /* \"#utility.yul\":10417:10444   */\n      add\n        /* \"#utility.yul\":10468:10534   */\n      tag_414\n        /* \"#utility.yul\":10528:10533   */\n      dup6\n        /* \"#utility.yul\":10468:10534   */\n      tag_236\n      jump\t// in\n    tag_414:\n        /* \"#utility.yul\":10557:10564   */\n      dup1\n        /* \"#utility.yul\":10588:10589   */\n      0x00\n        /* \"#utility.yul\":10573:10969   */\n    tag_415:\n        /* \"#utility.yul\":10598:10604   */\n      dup6\n        /* \"#utility.yul\":10595:10596   */\n      dup2\n        /* \"#utility.yul\":10592:10605   */\n      lt\n        /* \"#utility.yul\":10573:10969   */\n      iszero\n      tag_417\n      jumpi\n        /* \"#utility.yul\":10669:10678   */\n      dup5\n        /* \"#utility.yul\":10663:10667   */\n      dup5\n        /* \"#utility.yul\":10659:10679   */\n      sub\n        /* \"#utility.yul\":10654:10657   */\n      dup10\n        /* \"#utility.yul\":10647:10680   */\n      mstore\n        /* \"#utility.yul\":10720:10726   */\n      dup2\n        /* \"#utility.yul\":10714:10727   */\n      mload\n        /* \"#utility.yul\":10748:10832   */\n      tag_418\n        /* \"#utility.yul\":10827:10831   */\n      dup6\n        /* \"#utility.yul\":10812:10825   */\n      dup3\n        /* \"#utility.yul\":10748:10832   */\n      tag_239\n      jump\t// in\n    tag_418:\n        /* \"#utility.yul\":10740:10832   */\n      swap5\n      pop\n        /* \"#utility.yul\":10855:10925   */\n      tag_419\n        /* \"#utility.yul\":10918:10924   */\n      dup4\n        /* \"#utility.yul\":10855:10925   */\n      tag_240\n      jump\t// in\n    tag_419:\n        /* \"#utility.yul\":10845:10925   */\n      swap3\n      pop\n        /* \"#utility.yul\":10954:10958   */\n      0x20\n        /* \"#utility.yul\":10949:10952   */\n      dup11\n        /* \"#utility.yul\":10945:10959   */\n      add\n        /* \"#utility.yul\":10938:10959   */\n      swap10\n      pop\n        /* \"#utility.yul\":10633:10969   */\n      pop\n        /* \"#utility.yul\":10620:10621   */\n      0x01\n        /* \"#utility.yul\":10617:10618   */\n      dup2\n        /* \"#utility.yul\":10613:10622   */\n      add\n        /* \"#utility.yul\":10608:10622   */\n      swap1\n      pop\n        /* \"#utility.yul\":10573:10969   */\n      jump(tag_415)\n    tag_417:\n        /* \"#utility.yul\":10577:10591   */\n      pop\n        /* \"#utility.yul\":10985:10989   */\n      dup3\n        /* \"#utility.yul\":10978:10989   */\n      swap8\n      pop\n        /* \"#utility.yul\":11005:11008   */\n      dup8\n        /* \"#utility.yul\":10998:11008   */\n      swap6\n      pop\n        /* \"#utility.yul\":10167:11014   */\n      pop\n      pop\n      pop\n      pop\n      pop\n        /* \"#utility.yul\":10023:11014   */\n      swap3\n      swap2\n      pop\n      pop\n      jump\t// out\n        /* \"#utility.yul\":11020:11134   */\n    tag_242:\n        /* \"#utility.yul\":11087:11093   */\n      0x00\n        /* \"#utility.yul\":11121:11126   */\n      dup2\n        /* \"#utility.yul\":11115:11127   */\n      mload\n        /* \"#utility.yul\":11105:11127   */\n      swap1\n      pop\n        /* \"#utility.yul\":11020:11134   */\n      swap2\n      swap1\n      pop\n      jump\t// out\n        /* \"#utility.yul\":11140:11324   */\n    tag_243:\n        /* \"#utility.yul\":11239:11250   */\n      0x00\n        /* \"#utility.yul\":11273:11279   */\n      dup3\n        /* \"#utility.yul\":11268:11271   */\n      dup3\n        /* \"#utility.yul\":11261:11280   */\n      mstore\n        /* \"#utility.yul\":11313:11317   */\n      0x20\n        /* \"#utility.yul\":11308:11311   */\n      dup3\n        /* \"#utility.yul\":11304:11318   */\n      add\n        /* \"#utility.yul\":11289:11318   */\n      swap1\n      pop\n        /* \"#utility.yul\":11140:11324   */\n      swap3\n      swap2\n      pop\n      pop\n      jump\t// out\n        /* \"#utility.yul\":11330:11462   */\n    tag_244:\n        /* \"#utility.yul\":11397:11401   */\n      0x00\n        /* \"#utility.yul\":11420:11423   */\n      dup2\n        /* \"#utility.yul\":11412:11423   */\n      swap1\n      pop\n        /* \"#utility.yul\":11450:11454   */\n      0x20\n        /* \"#utility.yul\":11445:11448   */\n      dup3\n        /* \"#utility.yul\":11441:11455   */\n      add\n        /* \"#utility.yul\":11433:11455   */\n      swap1\n      pop\n        /* \"#utility.yul\":11330:11462   */\n      swap2\n      swap1\n      pop\n      jump\t// out\n        /* \"#utility.yul\":11468:11576   */\n    tag_245:\n        /* \"#utility.yul\":11545:11569   */\n      tag_424\n        /* \"#utility.yul\":11563:11568   */\n      dup2\n        /* \"#utility.yul\":11545:11569   */\n      tag_207\n      jump\t// in\n    tag_424:\n        /* \"#utility.yul\":11540:11543   */\n      dup3\n        /* \"#utility.yul\":11533:11570   */\n      mstore\n        /* \"#utility.yul\":11468:11576   */\n      pop\n      pop\n      jump\t// out\n        /* \"#utility.yul\":11582:11761   */\n    tag_246:\n        /* \"#utility.yul\":11651:11661   */\n      0x00\n        /* \"#utility.yul\":11672:11718   */\n      tag_426\n        /* \"#utility.yul\":11714:11717   */\n      dup4\n        /* \"#utility.yul\":11706:11712   */\n      dup4\n        /* \"#utility.yul\":11672:11718   */\n      tag_245\n      jump\t// in\n    tag_426:\n        /* \"#utility.yul\":11750:11754   */\n      0x20\n        /* \"#utility.yul\":11745:11748   */\n      dup4\n        /* \"#utility.yul\":11741:11755   */\n      add\n        /* \"#utility.yul\":11727:11755   */\n      swap1\n      pop\n        /* \"#utility.yul\":11582:11761   */\n      swap3\n      swap2\n      pop\n      pop\n      jump\t// out\n        /* \"#utility.yul\":11767:11880   */\n    tag_247:\n        /* \"#utility.yul\":11837:11841   */\n      0x00\n        /* \"#utility.yul\":11869:11873   */\n      0x20\n        /* \"#utility.yul\":11864:11867   */\n      dup3\n        /* \"#utility.yul\":11860:11874   */\n      add\n        /* \"#utility.yul\":11852:11874   */\n      swap1\n      pop\n        /* \"#utility.yul\":11767:11880   */\n      swap2\n      swap1\n      pop\n      jump\t// out\n        /* \"#utility.yul\":11916:12648   */\n    tag_248:\n        /* \"#utility.yul\":12035:12038   */\n      0x00\n        /* \"#utility.yul\":12064:12118   */\n      tag_429\n        /* \"#utility.yul\":12112:12117   */\n      dup3\n        /* \"#utility.yul\":12064:12118   */\n      tag_242\n      jump\t// in\n    tag_429:\n        /* \"#utility.yul\":12134:12220   */\n      tag_430\n        /* \"#utility.yul\":12213:12219   */\n      dup2\n        /* \"#utility.yul\":12208:12211   */\n      dup6\n        /* \"#utility.yul\":12134:12220   */\n      tag_243\n      jump\t// in\n    tag_430:\n        /* \"#utility.yul\":12127:12220   */\n      swap4\n      pop\n        /* \"#utility.yul\":12244:12300   */\n      tag_431\n        /* \"#utility.yul\":12294:12299   */\n      dup4\n        /* \"#utility.yul\":12244:12300   */\n      tag_244\n      jump\t// in\n    tag_431:\n        /* \"#utility.yul\":12323:12330   */\n      dup1\n        /* \"#utility.yul\":12354:12355   */\n      0x00\n        /* \"#utility.yul\":12339:12623   */\n    tag_432:\n        /* \"#utility.yul\":12364:12370   */\n      dup4\n        /* \"#utility.yul\":12361:12362   */\n      dup2\n        /* \"#utility.yul\":12358:12371   */\n      lt\n        /* \"#utility.yul\":12339:12623   */\n      iszero\n      tag_434\n      jumpi\n        /* \"#utility.yul\":12440:12446   */\n      dup2\n        /* \"#utility.yul\":12434:12447   */\n      mload\n        /* \"#utility.yul\":12467:12530   */\n      tag_435\n        /* \"#utility.yul\":12526:12529   */\n      dup9\n        /* \"#utility.yul\":12511:12524   */\n      dup3\n        /* \"#utility.yul\":12467:12530   */\n      tag_246\n      jump\t// in\n    tag_435:\n        /* \"#utility.yul\":12460:12530   */\n      swap8\n      pop\n        /* \"#utility.yul\":12553:12613   */\n      tag_436\n        /* \"#utility.yul\":12606:12612   */\n      dup4\n        /* \"#utility.yul\":12553:12613   */\n      tag_247\n      jump\t// in\n    tag_436:\n        /* \"#utility.yul\":12543:12613   */\n      swap3\n      pop\n        /* \"#utility.yul\":12399:12623   */\n      pop\n        /* \"#utility.yul\":12386:12387   */\n      0x01\n        /* \"#utility.yul\":12383:12384   */\n      dup2\n        /* \"#utility.yul\":12379:12388   */\n      add\n        /* \"#utility.yul\":12374:12388   */\n      swap1\n      pop\n        /* \"#utility.yul\":12339:12623   */\n      jump(tag_432)\n    tag_434:\n        /* \"#utility.yul\":12343:12357   */\n      pop\n        /* \"#utility.yul\":12639:12642   */\n      dup6\n        /* \"#utility.yul\":12632:12642   */\n      swap4\n      pop\n        /* \"#utility.yul\":12040:12648   */\n      pop\n      pop\n      pop\n        /* \"#utility.yul\":11916:12648   */\n      swap3\n      swap2\n      pop\n      pop\n      jump\t// out\n        /* \"#utility.yul\":12654:12768   */\n    tag_249:\n        /* \"#utility.yul\":12721:12727   */\n      0x00\n        /* \"#utility.yul\":12755:12760   */\n      dup2\n        /* \"#utility.yul\":12749:12761   */\n      mload\n        /* \"#utility.yul\":12739:12761   */\n      swap1\n      pop\n        /* \"#utility.yul\":12654:12768   */\n      swap2\n      swap1\n      pop\n      jump\t// out\n        /* \"#utility.yul\":12774:12958   */\n    tag_250:\n        /* \"#utility.yul\":12873:12884   */\n      0x00\n        /* \"#utility.yul\":12907:12913   */\n      dup3\n        /* \"#utility.yul\":12902:12905   */\n      dup3\n        /* \"#utility.yul\":12895:12914   */\n      mstore\n        /* \"#utility.yul\":12947:12951   */\n      0x20\n        /* \"#utility.yul\":12942:12945   */\n      dup3\n        /* \"#utility.yul\":12938:12952   */\n      add\n        /* \"#utility.yul\":12923:12952   */\n      swap1\n      pop\n        /* \"#utility.yul\":12774:12958   */\n      swap3\n      swap2\n      pop\n      pop\n      jump\t// out\n        /* \"#utility.yul\":12964:13096   */\n    tag_251:\n        /* \"#utility.yul\":13031:13035   */\n      0x00\n        /* \"#utility.yul\":13054:13057   */\n      dup2\n        /* \"#utility.yul\":13046:13057   */\n      swap1\n      pop\n        /* \"#utility.yul\":13084:13088   */\n      0x20\n        /* \"#utility.yul\":13079:13082   */\n      dup3\n        /* \"#utility.yul\":13075:13089   */\n      add\n        /* \"#utility.yul\":13067:13089   */\n      swap1\n      pop\n        /* \"#utility.yul\":12964:13096   */\n      swap2\n      swap1\n      pop\n      jump\t// out\n        /* \"#utility.yul\":13102:13210   */\n    tag_252:\n        /* \"#utility.yul\":13179:13203   */\n      tag_441\n        /* \"#utility.yul\":13197:13202   */\n      dup2\n        /* \"#utility.yul\":13179:13203   */\n      tag_215\n      jump\t// in\n    tag_441:\n        /* \"#utility.yul\":13174:13177   */\n      dup3\n        /* \"#utility.yul\":13167:13204   */\n      mstore\n        /* \"#utility.yul\":13102:13210   */\n      pop\n      pop\n      jump\t// out\n        /* \"#utility.yul\":13216:13395   */\n    tag_253:\n        /* \"#utility.yul\":13285:13295   */\n      0x00\n        /* \"#utility.yul\":13306:13352   */\n      tag_443\n        /* \"#utility.yul\":13348:13351   */\n      dup4\n        /* \"#utility.yul\":13340:13346   */\n      dup4\n        /* \"#utility.yul\":13306:13352   */\n      tag_252\n      jump\t// in\n    tag_443:\n        /* \"#utility.yul\":13384:13388   */\n      0x20\n        /* \"#utility.yul\":13379:13382   */\n      dup4\n        /* \"#utility.yul\":13375:13389   */\n      add\n        /* \"#utility.yul\":13361:13389   */\n      swap1\n      pop\n        /* \"#utility.yul\":13216:13395   */\n      swap3\n      swap2\n      pop\n      pop\n      jump\t// out\n        /* \"#utility.yul\":13401:13514   */\n    tag_254:\n        /* \"#utility.yul\":13471:13475   */\n      0x00\n        /* \"#utility.yul\":13503:13507   */\n      0x20\n        /* \"#utility.yul\":13498:13501   */\n      dup3\n        /* \"#utility.yul\":13494:13508   */\n      add\n        /* \"#utility.yul\":13486:13508   */\n      swap1\n      pop\n        /* \"#utility.yul\":13401:13514   */\n      swap2\n      swap1\n      pop\n      jump\t// out\n        /* \"#utility.yul\":13550:14282   */\n    tag_255:\n        /* \"#utility.yul\":13669:13672   */\n      0x00\n        /* \"#utility.yul\":13698:13752   */\n      tag_446\n        /* \"#utility.yul\":13746:13751   */\n      dup3\n        /* \"#utility.yul\":13698:13752   */\n      tag_249\n      jump\t// in\n    tag_446:\n        /* \"#utility.yul\":13768:13854   */\n      tag_447\n        /* \"#utility.yul\":13847:13853   */\n      dup2\n        /* \"#utility.yul\":13842:13845   */\n      dup6\n        /* \"#utility.yul\":13768:13854   */\n      tag_250\n      jump\t// in\n    tag_447:\n        /* \"#utility.yul\":13761:13854   */\n      swap4\n      pop\n        /* \"#utility.yul\":13878:13934   */\n      tag_448\n        /* \"#utility.yul\":13928:13933   */\n      dup4\n        /* \"#utility.yul\":13878:13934   */\n      tag_251\n      jump\t// in\n    tag_448:\n        /* \"#utility.yul\":13957:13964   */\n      dup1\n        /* \"#utility.yul\":13988:13989   */\n      0x00\n        /* \"#utility.yul\":13973:14257   */\n    tag_449:\n        /* \"#utility.yul\":13998:14004   */\n      dup4\n        /* \"#utility.yul\":13995:13996   */\n      dup2\n        /* \"#utility.yul\":13992:14005   */\n      lt\n        /* \"#utility.yul\":13973:14257   */\n      iszero\n      tag_451\n      jumpi\n        /* \"#utility.yul\":14074:14080   */\n      dup2\n        /* \"#utility.yul\":14068:14081   */\n      mload\n        /* \"#utility.yul\":14101:14164   */\n      tag_452\n        /* \"#utility.yul\":14160:14163   */\n      dup9\n        /* \"#utility.yul\":14145:14158   */\n      dup3\n        /* \"#utility.yul\":14101:14164   */\n      tag_253\n      jump\t// in\n    tag_452:\n        /* \"#utility.yul\":14094:14164   */\n      swap8\n      pop\n        /* \"#utility.yul\":14187:14247   */\n      tag_453\n        /* \"#utility.yul\":14240:14246   */\n      dup4\n        /* \"#utility.yul\":14187:14247   */\n      tag_254\n      jump\t// in\n    tag_453:\n        /* \"#utility.yul\":14177:14247   */\n      swap3\n      pop\n        /* \"#utility.yul\":14033:14257   */\n      pop\n        /* \"#utility.yul\":14020:14021   */\n      0x01\n        /* \"#utility.yul\":14017:14018   */\n      dup2\n        /* \"#utility.yul\":14013:14022   */\n      add\n        /* \"#utility.yul\":14008:14022   */\n      swap1\n      pop\n        /* \"#utility.yul\":13973:14257   */\n      jump(tag_449)\n    tag_451:\n        /* \"#utility.yul\":13977:13991   */\n      pop\n        /* \"#utility.yul\":14273:14276   */\n      dup6\n        /* \"#utility.yul\":14266:14276   */\n      swap4\n      pop\n        /* \"#utility.yul\":13674:14282   */\n      pop\n      pop\n      pop\n        /* \"#utility.yul\":13550:14282   */\n      swap3\n      swap2\n      pop\n      pop\n      jump\t// out\n        /* \"#utility.yul\":14288:14427   */\n    tag_256:\n        /* \"#utility.yul\":14380:14386   */\n      0x00\n        /* \"#utility.yul\":14414:14419   */\n      dup2\n        /* \"#utility.yul\":14408:14420   */\n      mload\n        /* \"#utility.yul\":14398:14420   */\n      swap1\n      pop\n        /* \"#utility.yul\":14288:14427   */\n      swap2\n      swap1\n      pop\n      jump\t// out\n        /* \"#utility.yul\":14433:14642   */\n    tag_257:\n        /* \"#utility.yul\":14557:14568   */\n      0x00\n        /* \"#utility.yul\":14591:14597   */\n      dup3\n        /* \"#utility.yul\":14586:14589   */\n      dup3\n        /* \"#utility.yul\":14579:14598   */\n      mstore\n        /* \"#utility.yul\":14631:14635   */\n      0x20\n        /* \"#utility.yul\":14626:14629   */\n      dup3\n        /* \"#utility.yul\":14622:14636   */\n      add\n        /* \"#utility.yul\":14607:14636   */\n      swap1\n      pop\n        /* \"#utility.yul\":14433:14642   */\n      swap3\n      swap2\n      pop\n      pop\n      jump\t// out\n        /* \"#utility.yul\":14648:14805   */\n    tag_258:\n        /* \"#utility.yul\":14740:14744   */\n      0x00\n        /* \"#utility.yul\":14763:14766   */\n      dup2\n        /* \"#utility.yul\":14755:14766   */\n      swap1\n      pop\n        /* \"#utility.yul\":14793:14797   */\n      0x20\n        /* \"#utility.yul\":14788:14791   */\n      dup3\n        /* \"#utility.yul\":14784:14798   */\n      add\n        /* \"#utility.yul\":14776:14798   */\n      swap1\n      pop\n        /* \"#utility.yul\":14648:14805   */\n      swap2\n      swap1\n      pop\n      jump\t// out\n        /* \"#utility.yul\":14811:14985   */\n    tag_259:\n        /* \"#utility.yul\":14900:14911   */\n      0x00\n        /* \"#utility.yul\":14934:14940   */\n      dup3\n        /* \"#utility.yul\":14929:14932   */\n      dup3\n        /* \"#utility.yul\":14922:14941   */\n      mstore\n        /* \"#utility.yul\":14974:14978   */\n      0x20\n        /* \"#utility.yul\":14969:14972   */\n      dup3\n        /* \"#utility.yul\":14965:14979   */\n      add\n        /* \"#utility.yul\":14950:14979   */\n      swap1\n      pop\n        /* \"#utility.yul\":14811:14985   */\n      swap3\n      swap2\n      pop\n      pop\n      jump\t// out\n        /* \"#utility.yul\":15021:15733   */\n    tag_260:\n        /* \"#utility.yul\":15130:15133   */\n      0x00\n        /* \"#utility.yul\":15159:15213   */\n      tag_459\n        /* \"#utility.yul\":15207:15212   */\n      dup3\n        /* \"#utility.yul\":15159:15213   */\n      tag_242\n      jump\t// in\n    tag_459:\n        /* \"#utility.yul\":15229:15305   */\n      tag_460\n        /* \"#utility.yul\":15298:15304   */\n      dup2\n        /* \"#utility.yul\":15293:15296   */\n      dup6\n        /* \"#utility.yul\":15229:15305   */\n      tag_259\n      jump\t// in\n    tag_460:\n        /* \"#utility.yul\":15222:15305   */\n      swap4\n      pop\n        /* \"#utility.yul\":15329:15385   */\n      tag_461\n        /* \"#utility.yul\":15379:15384   */\n      dup4\n        /* \"#utility.yul\":15329:15385   */\n      tag_244\n      jump\t// in\n    tag_461:\n        /* \"#utility.yul\":15408:15415   */\n      dup1\n        /* \"#utility.yul\":15439:15440   */\n      0x00\n        /* \"#utility.yul\":15424:15708   */\n    tag_462:\n        /* \"#utility.yul\":15449:15455   */\n      dup4\n        /* \"#utility.yul\":15446:15447   */\n      dup2\n        /* \"#utility.yul\":15443:15456   */\n      lt\n        /* \"#utility.yul\":15424:15708   */\n      iszero\n      tag_464\n      jumpi\n        /* \"#utility.yul\":15525:15531   */\n      dup2\n        /* \"#utility.yul\":15519:15532   */\n      mload\n        /* \"#utility.yul\":15552:15615   */\n      tag_465\n        /* \"#utility.yul\":15611:15614   */\n      dup9\n        /* \"#utility.yul\":15596:15609   */\n      dup3\n        /* \"#utility.yul\":15552:15615   */\n      tag_246\n      jump\t// in\n    tag_465:\n        /* \"#utility.yul\":15545:15615   */\n      swap8\n      pop\n        /* \"#utility.yul\":15638:15698   */\n      tag_466\n        /* \"#utility.yul\":15691:15697   */\n      dup4\n        /* \"#utility.yul\":15638:15698   */\n      tag_247\n      jump\t// in\n    tag_466:\n        /* \"#utility.yul\":15628:15698   */\n      swap3\n      pop\n        /* \"#utility.yul\":15484:15708   */\n      pop\n        /* \"#utility.yul\":15471:15472   */\n      0x01\n        /* \"#utility.yul\":15468:15469   */\n      dup2\n        /* \"#utility.yul\":15464:15473   */\n      add\n        /* \"#utility.yul\":15459:15473   */\n      swap1\n      pop\n        /* \"#utility.yul\":15424:15708   */\n      jump(tag_462)\n    tag_464:\n        /* \"#utility.yul\":15428:15442   */\n      pop\n        /* \"#utility.yul\":15724:15727   */\n      dup6\n        /* \"#utility.yul\":15717:15727   */\n      swap4\n      pop\n        /* \"#utility.yul\":15135:15733   */\n      pop\n      pop\n      pop\n        /* \"#utility.yul\":15021:15733   */\n      swap3\n      swap2\n      pop\n      pop\n      jump\t// out\n        /* \"#utility.yul\":15739:15995   */\n    tag_261:\n        /* \"#utility.yul\":15858:15868   */\n      0x00\n        /* \"#utility.yul\":15893:15989   */\n      tag_468\n        /* \"#utility.yul\":15985:15988   */\n      dup4\n        /* \"#utility.yul\":15977:15983   */\n      dup4\n        /* \"#utility.yul\":15893:15989   */\n      tag_260\n      jump\t// in\n    tag_468:\n        /* \"#utility.yul\":15879:15989   */\n      swap1\n      pop\n        /* \"#utility.yul\":15739:15995   */\n      swap3\n      swap2\n      pop\n      pop\n      jump\t// out\n        /* \"#utility.yul\":16001:16139   */\n    tag_262:\n        /* \"#utility.yul\":16096:16100   */\n      0x00\n        /* \"#utility.yul\":16128:16132   */\n      0x20\n        /* \"#utility.yul\":16123:16126   */\n      dup3\n        /* \"#utility.yul\":16119:16133   */\n      add\n        /* \"#utility.yul\":16111:16133   */\n      swap1\n      pop\n        /* \"#utility.yul\":16001:16139   */\n      swap2\n      swap1\n      pop\n      jump\t// out\n        /* \"#utility.yul\":16179:17290   */\n    tag_263:\n        /* \"#utility.yul\":16348:16351   */\n      0x00\n        /* \"#utility.yul\":16377:16456   */\n      tag_471\n        /* \"#utility.yul\":16450:16455   */\n      dup3\n        /* \"#utility.yul\":16377:16456   */\n      tag_256\n      jump\t// in\n    tag_471:\n        /* \"#utility.yul\":16472:16583   */\n      tag_472\n        /* \"#utility.yul\":16576:16582   */\n      dup2\n        /* \"#utility.yul\":16571:16574   */\n      dup6\n        /* \"#utility.yul\":16472:16583   */\n      tag_257\n      jump\t// in\n    tag_472:\n        /* \"#utility.yul\":16465:16583   */\n      swap4\n      pop\n        /* \"#utility.yul\":16609:16612   */\n      dup4\n        /* \"#utility.yul\":16654:16658   */\n      0x20\n        /* \"#utility.yul\":16646:16652   */\n      dup3\n        /* \"#utility.yul\":16642:16659   */\n      mul\n        /* \"#utility.yul\":16637:16640   */\n      dup6\n        /* \"#utility.yul\":16633:16660   */\n      add\n        /* \"#utility.yul\":16684:16765   */\n      tag_473\n        /* \"#utility.yul\":16759:16764   */\n      dup6\n        /* \"#utility.yul\":16684:16765   */\n      tag_258\n      jump\t// in\n    tag_473:\n        /* \"#utility.yul\":16788:16795   */\n      dup1\n        /* \"#utility.yul\":16819:16820   */\n      0x00\n        /* \"#utility.yul\":16804:17245   */\n    tag_474:\n        /* \"#utility.yul\":16829:16835   */\n      dup6\n        /* \"#utility.yul\":16826:16827   */\n      dup2\n        /* \"#utility.yul\":16823:16836   */\n      lt\n        /* \"#utility.yul\":16804:17245   */\n      iszero\n      tag_476\n      jumpi\n        /* \"#utility.yul\":16900:16909   */\n      dup5\n        /* \"#utility.yul\":16894:16898   */\n      dup5\n        /* \"#utility.yul\":16890:16910   */\n      sub\n        /* \"#utility.yul\":16885:16888   */\n      dup10\n        /* \"#utility.yul\":16878:16911   */\n      mstore\n        /* \"#utility.yul\":16951:16957   */\n      dup2\n        /* \"#utility.yul\":16945:16958   */\n      mload\n        /* \"#utility.yul\":16979:17093   */\n      tag_477\n        /* \"#utility.yul\":17088:17092   */\n      dup6\n        /* \"#utility.yul\":17073:17086   */\n      dup3\n        /* \"#utility.yul\":16979:17093   */\n      tag_261\n      jump\t// in\n    tag_477:\n        /* \"#utility.yul\":16971:17093   */\n      swap5\n      pop\n        /* \"#utility.yul\":17116:17201   */\n      tag_478\n        /* \"#utility.yul\":17194:17200   */\n      dup4\n        /* \"#utility.yul\":17116:17201   */\n      tag_262\n      jump\t// in\n    tag_478:\n        /* \"#utility.yul\":17106:17201   */\n      swap3\n      pop\n        /* \"#utility.yul\":17230:17234   */\n      0x20\n        /* \"#utility.yul\":17225:17228   */\n      dup11\n        /* \"#utility.yul\":17221:17235   */\n      add\n        /* \"#utility.yul\":17214:17235   */\n      swap10\n      pop\n        /* \"#utility.yul\":16864:17245   */\n      pop\n        /* \"#utility.yul\":16851:16852   */\n      0x01\n        /* \"#utility.yul\":16848:16849   */\n      dup2\n        /* \"#utility.yul\":16844:16853   */\n      add\n        /* \"#utility.yul\":16839:16853   */\n      swap1\n      pop\n        /* \"#utility.yul\":16804:17245   */\n      jump(tag_474)\n    tag_476:\n        /* \"#utility.yul\":16808:16822   */\n      pop\n        /* \"#utility.yul\":17261:17265   */\n      dup3\n        /* \"#utility.yul\":17254:17265   */\n      swap8\n      pop\n        /* \"#utility.yul\":17281:17284   */\n      dup8\n        /* \"#utility.yul\":17274:17284   */\n      swap6\n      pop\n        /* \"#utility.yul\":16353:17290   */\n      pop\n      pop\n      pop\n      pop\n      pop\n        /* \"#utility.yul\":16179:17290   */\n      swap3\n      swap2\n      pop\n      pop\n      jump\t// out\n        /* \"#utility.yul\":17296:19459   */\n    tag_37:\n        /* \"#utility.yul\":18017:18021   */\n      0x00\n        /* \"#utility.yul\":18055:18058   */\n      0xe0\n        /* \"#utility.yul\":18044:18053   */\n      dup3\n        /* \"#utility.yul\":18040:18059   */\n      add\n        /* \"#utility.yul\":18032:18059   */\n      swap1\n      pop\n        /* \"#utility.yul\":18105:18114   */\n      dup2\n        /* \"#utility.yul\":18099:18103   */\n      dup2\n        /* \"#utility.yul\":18095:18115   */\n      sub\n        /* \"#utility.yul\":18091:18092   */\n      0x00\n        /* \"#utility.yul\":18080:18089   */\n      dup4\n        /* \"#utility.yul\":18076:18093   */\n      add\n        /* \"#utility.yul\":18069:18116   */\n      mstore\n        /* \"#utility.yul\":18133:18261   */\n      tag_480\n        /* \"#utility.yul\":18256:18260   */\n      dup2\n        /* \"#utility.yul\":18247:18253   */\n      dup11\n        /* \"#utility.yul\":18133:18261   */\n      tag_241\n      jump\t// in\n    tag_480:\n        /* \"#utility.yul\":18125:18261   */\n      swap1\n      pop\n        /* \"#utility.yul\":18308:18317   */\n      dup2\n        /* \"#utility.yul\":18302:18306   */\n      dup2\n        /* \"#utility.yul\":18298:18318   */\n      sub\n        /* \"#utility.yul\":18293:18295   */\n      0x20\n        /* \"#utility.yul\":18282:18291   */\n      dup4\n        /* \"#utility.yul\":18278:18296   */\n      add\n        /* \"#utility.yul\":18271:18319   */\n      mstore\n        /* \"#utility.yul\":18336:18464   */\n      tag_481\n        /* \"#utility.yul\":18459:18463   */\n      dup2\n        /* \"#utility.yul\":18450:18456   */\n      dup10\n        /* \"#utility.yul\":18336:18464   */\n      tag_241\n      jump\t// in\n    tag_481:\n        /* \"#utility.yul\":18328:18464   */\n      swap1\n      pop\n        /* \"#utility.yul\":18511:18520   */\n      dup2\n        /* \"#utility.yul\":18505:18509   */\n      dup2\n        /* \"#utility.yul\":18501:18521   */\n      sub\n        /* \"#utility.yul\":18496:18498   */\n      0x40\n        /* \"#utility.yul\":18485:18494   */\n      dup4\n        /* \"#utility.yul\":18481:18499   */\n      add\n        /* \"#utility.yul\":18474:18522   */\n      mstore\n        /* \"#utility.yul\":18539:18647   */\n      tag_482\n        /* \"#utility.yul\":18642:18646   */\n      dup2\n        /* \"#utility.yul\":18633:18639   */\n      dup9\n        /* \"#utility.yul\":18539:18647   */\n      tag_248\n      jump\t// in\n    tag_482:\n        /* \"#utility.yul\":18531:18647   */\n      swap1\n      pop\n        /* \"#utility.yul\":18694:18703   */\n      dup2\n        /* \"#utility.yul\":18688:18692   */\n      dup2\n        /* \"#utility.yul\":18684:18704   */\n      sub\n        /* \"#utility.yul\":18679:18681   */\n      0x60\n        /* \"#utility.yul\":18668:18677   */\n      dup4\n        /* \"#utility.yul\":18664:18682   */\n      add\n        /* \"#utility.yul\":18657:18705   */\n      mstore\n        /* \"#utility.yul\":18722:18830   */\n      tag_483\n        /* \"#utility.yul\":18825:18829   */\n      dup2\n        /* \"#utility.yul\":18816:18822   */\n      dup8\n        /* \"#utility.yul\":18722:18830   */\n      tag_255\n      jump\t// in\n    tag_483:\n        /* \"#utility.yul\":18714:18830   */\n      swap1\n      pop\n        /* \"#utility.yul\":18878:18887   */\n      dup2\n        /* \"#utility.yul\":18872:18876   */\n      dup2\n        /* \"#utility.yul\":18868:18888   */\n      sub\n        /* \"#utility.yul\":18862:18865   */\n      0x80\n        /* \"#utility.yul\":18851:18860   */\n      dup4\n        /* \"#utility.yul\":18847:18866   */\n      add\n        /* \"#utility.yul\":18840:18889   */\n      mstore\n        /* \"#utility.yul\":18906:19014   */\n      tag_484\n        /* \"#utility.yul\":19009:19013   */\n      dup2\n        /* \"#utility.yul\":19000:19006   */\n      dup7\n        /* \"#utility.yul\":18906:19014   */\n      tag_255\n      jump\t// in\n    tag_484:\n        /* \"#utility.yul\":18898:19014   */\n      swap1\n      pop\n        /* \"#utility.yul\":19062:19071   */\n      dup2\n        /* \"#utility.yul\":19056:19060   */\n      dup2\n        /* \"#utility.yul\":19052:19072   */\n      sub\n        /* \"#utility.yul\":19046:19049   */\n      0xa0\n        /* \"#utility.yul\":19035:19044   */\n      dup4\n        /* \"#utility.yul\":19031:19050   */\n      add\n        /* \"#utility.yul\":19024:19073   */\n      mstore\n        /* \"#utility.yul\":19090:19218   */\n      tag_485\n        /* \"#utility.yul\":19213:19217   */\n      dup2\n        /* \"#utility.yul\":19204:19210   */\n      dup6\n        /* \"#utility.yul\":19090:19218   */\n      tag_241\n      jump\t// in\n    tag_485:\n        /* \"#utility.yul\":19082:19218   */\n      swap1\n      pop\n        /* \"#utility.yul\":19266:19275   */\n      dup2\n        /* \"#utility.yul\":19260:19264   */\n      dup2\n        /* \"#utility.yul\":19256:19276   */\n      sub\n        /* \"#utility.yul\":19250:19253   */\n      0xc0\n        /* \"#utility.yul\":19239:19248   */\n      dup4\n        /* \"#utility.yul\":19235:19254   */\n      add\n        /* \"#utility.yul\":19228:19277   */\n      mstore\n        /* \"#utility.yul\":19294:19452   */\n      tag_486\n        /* \"#utility.yul\":19447:19451   */\n      dup2\n        /* \"#utility.yul\":19438:19444   */\n      dup5\n        /* \"#utility.yul\":19294:19452   */\n      tag_263\n      jump\t// in\n    tag_486:\n        /* \"#utility.yul\":19286:19452   */\n      swap1\n      pop\n        /* \"#utility.yul\":17296:19459   */\n      swap9\n      swap8\n      pop\n      pop\n      pop\n      pop\n      pop\n      pop\n      pop\n      pop\n      jump\t// out\n        /* \"#utility.yul\":19465:19571   */\n    tag_264:\n        /* \"#utility.yul\":19545:19546   */\n      0x03\n        /* \"#utility.yul\":19538:19543   */\n      dup2\n        /* \"#utility.yul\":19535:19547   */\n      lt\n        /* \"#utility.yul\":19525:19565   */\n      tag_488\n      jumpi\n        /* \"#utility.yul\":19561:19562   */\n      0x00\n        /* \"#utility.yul\":19558:19559   */\n      dup1\n        /* \"#utility.yul\":19551:19563   */\n      revert\n        /* \"#utility.yul\":19525:19565   */\n    tag_488:\n        /* \"#utility.yul\":19465:19571   */\n      pop\n      jump\t// out\n        /* \"#utility.yul\":19577:19730   */\n    tag_265:\n        /* \"#utility.yul\":19630:19635   */\n      0x00\n        /* \"#utility.yul\":19668:19674   */\n      dup2\n        /* \"#utility.yul\":19655:19675   */\n      calldataload\n        /* \"#utility.yul\":19646:19675   */\n      swap1\n      pop\n        /* \"#utility.yul\":19684:19724   */\n      tag_490\n        /* \"#utility.yul\":19718:19723   */\n      dup2\n        /* \"#utility.yul\":19684:19724   */\n      tag_264\n      jump\t// in\n    tag_490:\n        /* \"#utility.yul\":19577:19730   */\n      swap3\n      swap2\n      pop\n      pop\n      jump\t// out\n        /* \"#utility.yul\":19736:21055   */\n    tag_40:\n        /* \"#utility.yul\":19859:19865   */\n      0x00\n        /* \"#utility.yul\":19867:19873   */\n      dup1\n        /* \"#utility.yul\":19875:19881   */\n      0x00\n        /* \"#utility.yul\":19883:19889   */\n      dup1\n        /* \"#utility.yul\":19932:19935   */\n      0x80\n        /* \"#utility.yul\":19920:19929   */\n      dup6\n        /* \"#utility.yul\":19911:19918   */\n      dup8\n        /* \"#utility.yul\":19907:19930   */\n      sub\n        /* \"#utility.yul\":19903:19936   */\n      slt\n        /* \"#utility.yul\":19900:20020   */\n      iszero\n      tag_492\n      jumpi\n        /* \"#utility.yul\":19939:20018   */\n      tag_493\n      tag_204\n      jump\t// in\n    tag_493:\n        /* \"#utility.yul\":19900:20020   */\n    tag_492:\n        /* \"#utility.yul\":20059:20060   */\n      0x00\n        /* \"#utility.yul\":20084:20144   */\n      tag_494\n        /* \"#utility.yul\":20136:20143   */\n      dup8\n        /* \"#utility.yul\":20127:20133   */\n      dup3\n        /* \"#utility.yul\":20116:20125   */\n      dup9\n        /* \"#utility.yul\":20112:20134   */\n      add\n        /* \"#utility.yul\":20084:20144   */\n      tag_265\n      jump\t// in\n    tag_494:\n        /* \"#utility.yul\":20074:20144   */\n      swap5\n      pop\n        /* \"#utility.yul\":20030:20154   */\n      pop\n        /* \"#utility.yul\":20221:20223   */\n      0x20\n        /* \"#utility.yul\":20210:20219   */\n      dup6\n        /* \"#utility.yul\":20206:20224   */\n      add\n        /* \"#utility.yul\":20193:20225   */\n      calldataload\n        /* \"#utility.yul\":20252:20270   */\n      0xffffffffffffffff\n        /* \"#utility.yul\":20244:20250   */\n      dup2\n        /* \"#utility.yul\":20241:20271   */\n      gt\n        /* \"#utility.yul\":20238:20355   */\n      iszero\n      tag_495\n      jumpi\n        /* \"#utility.yul\":20274:20353   */\n      tag_496\n      tag_205\n      jump\t// in\n    tag_496:\n        /* \"#utility.yul\":20238:20355   */\n    tag_495:\n        /* \"#utility.yul\":20379:20442   */\n      tag_497\n        /* \"#utility.yul\":20434:20441   */\n      dup8\n        /* \"#utility.yul\":20425:20431   */\n      dup3\n        /* \"#utility.yul\":20414:20423   */\n      dup9\n        /* \"#utility.yul\":20410:20432   */\n      add\n        /* \"#utility.yul\":20379:20442   */\n      tag_231\n      jump\t// in\n    tag_497:\n        /* \"#utility.yul\":20369:20442   */\n      swap4\n      pop\n        /* \"#utility.yul\":20164:20452   */\n      pop\n        /* \"#utility.yul\":20519:20521   */\n      0x40\n        /* \"#utility.yul\":20508:20517   */\n      dup6\n        /* \"#utility.yul\":20504:20522   */\n      add\n        /* \"#utility.yul\":20491:20523   */\n      calldataload\n        /* \"#utility.yul\":20550:20568   */\n      0xffffffffffffffff\n        /* \"#utility.yul\":20542:20548   */\n      dup2\n        /* \"#utility.yul\":20539:20569   */\n      gt\n        /* \"#utility.yul\":20536:20653   */\n      iszero\n      tag_498\n      jumpi\n        /* \"#utility.yul\":20572:20651   */\n      tag_499\n      tag_205\n      jump\t// in\n    tag_499:\n        /* \"#utility.yul\":20536:20653   */\n    tag_498:\n        /* \"#utility.yul\":20677:20740   */\n      tag_500\n        /* \"#utility.yul\":20732:20739   */\n      dup8\n        /* \"#utility.yul\":20723:20729   */\n      dup3\n        /* \"#utility.yul\":20712:20721   */\n      dup9\n        /* \"#utility.yul\":20708:20730   */\n      add\n        /* \"#utility.yul\":20677:20740   */\n      tag_231\n      jump\t// in\n    tag_500:\n        /* \"#utility.yul\":20667:20740   */\n      swap3\n      pop\n        /* \"#utility.yul\":20462:20750   */\n      pop\n        /* \"#utility.yul\":20817:20819   */\n      0x60\n        /* \"#utility.yul\":20806:20815   */\n      dup6\n        /* \"#utility.yul\":20802:20820   */\n      add\n        /* \"#utility.yul\":20789:20821   */\n      calldataload\n        /* \"#utility.yul\":20848:20866   */\n      0xffffffffffffffff\n        /* \"#utility.yul\":20840:20846   */\n      dup2\n        /* \"#utility.yul\":20837:20867   */\n      gt\n        /* \"#utility.yul\":20834:20951   */\n      iszero\n      tag_501\n      jumpi\n        /* \"#utility.yul\":20870:20949   */\n      tag_502\n      tag_205\n      jump\t// in\n    tag_502:\n        /* \"#utility.yul\":20834:20951   */\n    tag_501:\n        /* \"#utility.yul\":20975:21038   */\n      tag_503\n        /* \"#utility.yul\":21030:21037   */\n      dup8\n        /* \"#utility.yul\":21021:21027   */\n      dup3\n        /* \"#utility.yul\":21010:21019   */\n      dup9\n        /* \"#utility.yul\":21006:21028   */\n      add\n        /* \"#utility.yul\":20975:21038   */\n      tag_231\n      jump\t// in\n    tag_503:\n        /* \"#utility.yul\":20965:21038   */\n      swap2\n      pop\n        /* \"#utility.yul\":20760:21048   */\n      pop\n        /* \"#utility.yul\":19736:21055   */\n      swap3\n      swap6\n      swap2\n      swap5\n      pop\n      swap3\n      pop\n      jump\t// out\n        /* \"#utility.yul\":21061:21283   */\n    tag_45:\n        /* \"#utility.yul\":21154:21158   */\n      0x00\n        /* \"#utility.yul\":21192:21194   */\n      0x20\n        /* \"#utility.yul\":21181:21190   */\n      dup3\n        /* \"#utility.yul\":21177:21195   */\n      add\n        /* \"#utility.yul\":21169:21195   */\n      swap1\n      pop\n        /* \"#utility.yul\":21205:21276   */\n      tag_505\n        /* \"#utility.yul\":21273:21274   */\n      0x00\n        /* \"#utility.yul\":21262:21271   */\n      dup4\n        /* \"#utility.yul\":21258:21275   */\n      add\n        /* \"#utility.yul\":21249:21255   */\n      dup5\n        /* \"#utility.yul\":21205:21276   */\n      tag_210\n      jump\t// in\n    tag_505:\n        /* \"#utility.yul\":21061:21283   */\n      swap3\n      swap2\n      pop\n      pop\n      jump\t// out\n        /* \"#utility.yul\":21289:21420   */\n    tag_266:\n        /* \"#utility.yul\":21371:21413   */\n      tag_507\n        /* \"#utility.yul\":21407:21412   */\n      dup2\n        /* \"#utility.yul\":21371:21413   */\n      tag_213\n      jump\t// in\n    tag_507:\n        /* \"#utility.yul\":21366:21369   */\n      dup3\n        /* \"#utility.yul\":21359:21414   */\n      mstore\n        /* \"#utility.yul\":21289:21420   */\n      pop\n      pop\n      jump\t// out\n        /* \"#utility.yul\":21426:21600   */\n    tag_267:\n        /* \"#utility.yul\":21515:21526   */\n      0x00\n        /* \"#utility.yul\":21549:21555   */\n      dup3\n        /* \"#utility.yul\":21544:21547   */\n      dup3\n        /* \"#utility.yul\":21537:21556   */\n      mstore\n        /* \"#utility.yul\":21589:21593   */\n      0x20\n        /* \"#utility.yul\":21584:21587   */\n      dup3\n        /* \"#utility.yul\":21580:21594   */\n      add\n        /* \"#utility.yul\":21565:21594   */\n      swap1\n      pop\n        /* \"#utility.yul\":21426:21600   */\n      swap3\n      swap2\n      pop\n      pop\n      jump\t// out\n        /* \"#utility.yul\":21636:22348   */\n    tag_268:\n        /* \"#utility.yul\":21745:21748   */\n      0x00\n        /* \"#utility.yul\":21774:21828   */\n      tag_510\n        /* \"#utility.yul\":21822:21827   */\n      dup3\n        /* \"#utility.yul\":21774:21828   */\n      tag_249\n      jump\t// in\n    tag_510:\n        /* \"#utility.yul\":21844:21920   */\n      tag_511\n        /* \"#utility.yul\":21913:21919   */\n      dup2\n        /* \"#utility.yul\":21908:21911   */\n      dup6\n        /* \"#utility.yul\":21844:21920   */\n      tag_267\n      jump\t// in\n    tag_511:\n        /* \"#utility.yul\":21837:21920   */\n      swap4\n      pop\n        /* \"#utility.yul\":21944:22000   */\n      tag_512\n        /* \"#utility.yul\":21994:21999   */\n      dup4\n        /* \"#utility.yul\":21944:22000   */\n      tag_251\n      jump\t// in\n    tag_512:\n        /* \"#utility.yul\":22023:22030   */\n      dup1\n        /* \"#utility.yul\":22054:22055   */\n      0x00\n        /* \"#utility.yul\":22039:22323   */\n    tag_513:\n        /* \"#utility.yul\":22064:22070   */\n      dup4\n        /* \"#utility.yul\":22061:22062   */\n      dup2\n        /* \"#utility.yul\":22058:22071   */\n      lt\n        /* \"#utility.yul\":22039:22323   */\n      iszero\n      tag_515\n      jumpi\n        /* \"#utility.yul\":22140:22146   */\n      dup2\n        /* \"#utility.yul\":22134:22147   */\n      mload\n        /* \"#utility.yul\":22167:22230   */\n      tag_516\n        /* \"#utility.yul\":22226:22229   */\n      dup9\n        /* \"#utility.yul\":22211:22224   */\n      dup3\n        /* \"#utility.yul\":22167:22230   */\n      tag_253\n      jump\t// in\n    tag_516:\n        /* \"#utility.yul\":22160:22230   */\n      swap8\n      pop\n        /* \"#utility.yul\":22253:22313   */\n      tag_517\n        /* \"#utility.yul\":22306:22312   */\n      dup4\n        /* \"#utility.yul\":22253:22313   */\n      tag_254\n      jump\t// in\n    tag_517:\n        /* \"#utility.yul\":22243:22313   */\n      swap3\n      pop\n        /* \"#utility.yul\":22099:22323   */\n      pop\n        /* \"#utility.yul\":22086:22087   */\n      0x01\n        /* \"#utility.yul\":22083:22084   */\n      dup2\n        /* \"#utility.yul\":22079:22088   */\n      add\n        /* \"#utility.yul\":22074:22088   */\n      swap1\n      pop\n        /* \"#utility.yul\":22039:22323   */\n      jump(tag_513)\n    tag_515:\n        /* \"#utility.yul\":22043:22057   */\n      pop\n        /* \"#utility.yul\":22339:22342   */\n      dup6\n        /* \"#utility.yul\":22332:22342   */\n      swap4\n      pop\n        /* \"#utility.yul\":21750:22348   */\n      pop\n      pop\n      pop\n        /* \"#utility.yul\":21636:22348   */\n      swap3\n      swap2\n      pop\n      pop\n      jump\t// out\n        /* \"#utility.yul\":22420:24174   */\n    tag_269:\n        /* \"#utility.yul\":22531:22534   */\n      0x00\n        /* \"#utility.yul\":22567:22571   */\n      0xe0\n        /* \"#utility.yul\":22562:22565   */\n      dup4\n        /* \"#utility.yul\":22558:22572   */\n      add\n        /* \"#utility.yul\":22662:22666   */\n      0x00\n        /* \"#utility.yul\":22655:22660   */\n      dup4\n        /* \"#utility.yul\":22651:22667   */\n      add\n        /* \"#utility.yul\":22645:22668   */\n      mload\n        /* \"#utility.yul\":22681:22744   */\n      tag_519\n        /* \"#utility.yul\":22738:22742   */\n      0x00\n        /* \"#utility.yul\":22733:22736   */\n      dup7\n        /* \"#utility.yul\":22729:22743   */\n      add\n        /* \"#utility.yul\":22715:22727   */\n      dup3\n        /* \"#utility.yul\":22681:22744   */\n      tag_245\n      jump\t// in\n    tag_519:\n        /* \"#utility.yul\":22582:22754   */\n      pop\n        /* \"#utility.yul\":22836:22840   */\n      0x20\n        /* \"#utility.yul\":22829:22834   */\n      dup4\n        /* \"#utility.yul\":22825:22841   */\n      add\n        /* \"#utility.yul\":22819:22842   */\n      mload\n        /* \"#utility.yul\":22855:22923   */\n      tag_520\n        /* \"#utility.yul\":22917:22921   */\n      0x20\n        /* \"#utility.yul\":22912:22915   */\n      dup7\n        /* \"#utility.yul\":22908:22922   */\n      add\n        /* \"#utility.yul\":22894:22906   */\n      dup3\n        /* \"#utility.yul\":22855:22923   */\n      tag_266\n      jump\t// in\n    tag_520:\n        /* \"#utility.yul\":22764:22933   */\n      pop\n        /* \"#utility.yul\":23023:23027   */\n      0x40\n        /* \"#utility.yul\":23016:23021   */\n      dup4\n        /* \"#utility.yul\":23012:23028   */\n      add\n        /* \"#utility.yul\":23006:23029   */\n      mload\n        /* \"#utility.yul\":23042:23105   */\n      tag_521\n        /* \"#utility.yul\":23099:23103   */\n      0x40\n        /* \"#utility.yul\":23094:23097   */\n      dup7\n        /* \"#utility.yul\":23090:23104   */\n      add\n        /* \"#utility.yul\":23076:23088   */\n      dup3\n        /* \"#utility.yul\":23042:23105   */\n      tag_252\n      jump\t// in\n    tag_521:\n        /* \"#utility.yul\":22943:23115   */\n      pop\n        /* \"#utility.yul\":23197:23201   */\n      0x60\n        /* \"#utility.yul\":23190:23195   */\n      dup4\n        /* \"#utility.yul\":23186:23202   */\n      add\n        /* \"#utility.yul\":23180:23203   */\n      mload\n        /* \"#utility.yul\":23250:23253   */\n      dup5\n        /* \"#utility.yul\":23244:23248   */\n      dup3\n        /* \"#utility.yul\":23240:23254   */\n      sub\n        /* \"#utility.yul\":23233:23237   */\n      0x60\n        /* \"#utility.yul\":23228:23231   */\n      dup7\n        /* \"#utility.yul\":23224:23238   */\n      add\n        /* \"#utility.yul\":23217:23255   */\n      mstore\n        /* \"#utility.yul\":23276:23349   */\n      tag_522\n        /* \"#utility.yul\":23344:23348   */\n      dup3\n        /* \"#utility.yul\":23330:23342   */\n      dup3\n        /* \"#utility.yul\":23276:23349   */\n      tag_238\n      jump\t// in\n    tag_522:\n        /* \"#utility.yul\":23268:23349   */\n      swap2\n      pop\n        /* \"#utility.yul\":23125:23360   */\n      pop\n        /* \"#utility.yul\":23450:23454   */\n      0x80\n        /* \"#utility.yul\":23443:23448   */\n      dup4\n        /* \"#utility.yul\":23439:23455   */\n      add\n        /* \"#utility.yul\":23433:23456   */\n      mload\n        /* \"#utility.yul\":23503:23506   */\n      dup5\n        /* \"#utility.yul\":23497:23501   */\n      dup3\n        /* \"#utility.yul\":23493:23507   */\n      sub\n        /* \"#utility.yul\":23486:23490   */\n      0x80\n        /* \"#utility.yul\":23481:23484   */\n      dup7\n        /* \"#utility.yul\":23477:23491   */\n      add\n        /* \"#utility.yul\":23470:23508   */\n      mstore\n        /* \"#utility.yul\":23529:23602   */\n      tag_523\n        /* \"#utility.yul\":23597:23601   */\n      dup3\n        /* \"#utility.yul\":23583:23595   */\n      dup3\n        /* \"#utility.yul\":23529:23602   */\n      tag_238\n      jump\t// in\n    tag_523:\n        /* \"#utility.yul\":23521:23602   */\n      swap2\n      pop\n        /* \"#utility.yul\":23370:23613   */\n      pop\n        /* \"#utility.yul\":23702:23706   */\n      0xa0\n        /* \"#utility.yul\":23695:23700   */\n      dup4\n        /* \"#utility.yul\":23691:23707   */\n      add\n        /* \"#utility.yul\":23685:23708   */\n      mload\n        /* \"#utility.yul\":23755:23758   */\n      dup5\n        /* \"#utility.yul\":23749:23753   */\n      dup3\n        /* \"#utility.yul\":23745:23759   */\n      sub\n        /* \"#utility.yul\":23738:23742   */\n      0xa0\n        /* \"#utility.yul\":23733:23736   */\n      dup7\n        /* \"#utility.yul\":23729:23743   */\n      add\n        /* \"#utility.yul\":23722:23760   */\n      mstore\n        /* \"#utility.yul\":23781:23854   */\n      tag_524\n        /* \"#utility.yul\":23849:23853   */\n      dup3\n        /* \"#utility.yul\":23835:23847   */\n      dup3\n        /* \"#utility.yul\":23781:23854   */\n      tag_238\n      jump\t// in\n    tag_524:\n        /* \"#utility.yul\":23773:23854   */\n      swap2\n      pop\n        /* \"#utility.yul\":23623:23865   */\n      pop\n        /* \"#utility.yul\":23954:23958   */\n      0xc0\n        /* \"#utility.yul\":23947:23952   */\n      dup4\n        /* \"#utility.yul\":23943:23959   */\n      add\n        /* \"#utility.yul\":23937:23960   */\n      mload\n        /* \"#utility.yul\":24007:24010   */\n      dup5\n        /* \"#utility.yul\":24001:24005   */\n      dup3\n        /* \"#utility.yul\":23997:24011   */\n      sub\n        /* \"#utility.yul\":23990:23994   */\n      0xc0\n        /* \"#utility.yul\":23985:23988   */\n      dup7\n        /* \"#utility.yul\":23981:23995   */\n      add\n        /* \"#utility.yul\":23974:24012   */\n      mstore\n        /* \"#utility.yul\":24033:24136   */\n      tag_525\n        /* \"#utility.yul\":24131:24135   */\n      dup3\n        /* \"#utility.yul\":24117:24129   */\n      dup3\n        /* \"#utility.yul\":24033:24136   */\n      tag_268\n      jump\t// in\n    tag_525:\n        /* \"#utility.yul\":24025:24136   */\n      swap2\n      pop\n        /* \"#utility.yul\":23875:24147   */\n      pop\n        /* \"#utility.yul\":24164:24168   */\n      dup1\n        /* \"#utility.yul\":24157:24168   */\n      swap2\n      pop\n        /* \"#utility.yul\":22536:24174   */\n      pop\n        /* \"#utility.yul\":22420:24174   */\n      swap3\n      swap2\n      pop\n      pop\n      jump\t// out\n        /* \"#utility.yul\":24180:24537   */\n    tag_54:\n        /* \"#utility.yul\":24315:24319   */\n      0x00\n        /* \"#utility.yul\":24353:24355   */\n      0x20\n        /* \"#utility.yul\":24342:24351   */\n      dup3\n        /* \"#utility.yul\":24338:24356   */\n      add\n        /* \"#utility.yul\":24330:24356   */\n      swap1\n      pop\n        /* \"#utility.yul\":24402:24411   */\n      dup2\n        /* \"#utility.yul\":24396:24400   */\n      dup2\n        /* \"#utility.yul\":24392:24412   */\n      sub\n        /* \"#utility.yul\":24388:24389   */\n      0x00\n        /* \"#utility.yul\":24377:24386   */\n      dup4\n        /* \"#utility.yul\":24373:24390   */\n      add\n        /* \"#utility.yul\":24366:24413   */\n      mstore\n        /* \"#utility.yul\":24430:24530   */\n      tag_527\n        /* \"#utility.yul\":24525:24529   */\n      dup2\n        /* \"#utility.yul\":24516:24522   */\n      dup5\n        /* \"#utility.yul\":24430:24530   */\n      tag_269\n      jump\t// in\n    tag_527:\n        /* \"#utility.yul\":24422:24530   */\n      swap1\n      pop\n        /* \"#utility.yul\":24180:24537   */\n      swap3\n      swap2\n      pop\n      pop\n      jump\t// out\n        /* \"#utility.yul\":24543:24775   */\n    tag_59:\n        /* \"#utility.yul\":24641:24645   */\n      0x00\n        /* \"#utility.yul\":24679:24681   */\n      0x20\n        /* \"#utility.yul\":24668:24677   */\n      dup3\n        /* \"#utility.yul\":24664:24682   */\n      add\n        /* \"#utility.yul\":24656:24682   */\n      swap1\n      pop\n        /* \"#utility.yul\":24692:24768   */\n      tag_529\n        /* \"#utility.yul\":24765:24766   */\n      0x00\n        /* \"#utility.yul\":24754:24763   */\n      dup4\n        /* \"#utility.yul\":24750:24767   */\n      add\n        /* \"#utility.yul\":24741:24747   */\n      dup5\n        /* \"#utility.yul\":24692:24768   */\n      tag_214\n      jump\t// in\n    tag_529:\n        /* \"#utility.yul\":24543:24775   */\n      swap3\n      swap2\n      pop\n      pop\n      jump\t// out\n        /* \"#utility.yul\":24781:24961   */\n    tag_270:\n        /* \"#utility.yul\":24829:24906   */\n      0x4e487b7100000000000000000000000000000000000000000000000000000000\n        /* \"#utility.yul\":24826:24827   */\n      0x00\n        /* \"#utility.yul\":24819:24907   */\n      mstore\n        /* \"#utility.yul\":24926:24930   */\n      0x22\n        /* \"#utility.yul\":24923:24924   */\n      0x04\n        /* \"#utility.yul\":24916:24931   */\n      mstore\n        /* \"#utility.yul\":24950:24954   */\n      0x24\n        /* \"#utility.yul\":24947:24948   */\n      0x00\n        /* \"#utility.yul\":24940:24955   */\n      revert\n        /* \"#utility.yul\":24967:25287   */\n    tag_61:\n        /* \"#utility.yul\":25011:25017   */\n      0x00\n        /* \"#utility.yul\":25048:25049   */\n      0x02\n        /* \"#utility.yul\":25042:25046   */\n      dup3\n        /* \"#utility.yul\":25038:25050   */\n      div\n        /* \"#utility.yul\":25028:25050   */\n      swap1\n      pop\n        /* \"#utility.yul\":25095:25096   */\n      0x01\n        /* \"#utility.yul\":25089:25093   */\n      dup3\n        /* \"#utility.yul\":25085:25097   */\n      and\n        /* \"#utility.yul\":25116:25134   */\n      dup1\n        /* \"#utility.yul\":25106:25187   */\n      tag_532\n      jumpi\n        /* \"#utility.yul\":25172:25176   */\n      0x7f\n        /* \"#utility.yul\":25164:25170   */\n      dup3\n        /* \"#utility.yul\":25160:25177   */\n      and\n        /* \"#utility.yul\":25150:25177   */\n      swap2\n      pop\n        /* \"#utility.yul\":25106:25187   */\n    tag_532:\n        /* \"#utility.yul\":25234:25236   */\n      0x20\n        /* \"#utility.yul\":25226:25232   */\n      dup3\n        /* \"#utility.yul\":25223:25237   */\n      lt\n        /* \"#utility.yul\":25203:25221   */\n      dup2\n        /* \"#utility.yul\":25200:25238   */\n      sub\n        /* \"#utility.yul\":25197:25281   */\n      tag_533\n      jumpi\n        /* \"#utility.yul\":25253:25271   */\n      tag_534\n      tag_270\n      jump\t// in\n    tag_534:\n        /* \"#utility.yul\":25197:25281   */\n    tag_533:\n        /* \"#utility.yul\":25018:25287   */\n      pop\n        /* \"#utility.yul\":24967:25287   */\n      swap2\n      swap1\n      pop\n      jump\t// out\n        /* \"#utility.yul\":25293:25527   */\n    tag_271:\n        /* \"#utility.yul\":25433:25467   */\n      0x4f6e6c7920446f6e6174696f6e7320636f6e74726163742063616e2063616c6c\n        /* \"#utility.yul\":25429:25430   */\n      0x00\n        /* \"#utility.yul\":25421:25427   */\n      dup3\n        /* \"#utility.yul\":25417:25431   */\n      add\n        /* \"#utility.yul\":25410:25468   */\n      mstore\n        /* \"#utility.yul\":25502:25519   */\n      0x20746869732066756e6374696f6e2e0000000000000000000000000000000000\n        /* \"#utility.yul\":25497:25499   */\n      0x20\n        /* \"#utility.yul\":25489:25495   */\n      dup3\n        /* \"#utility.yul\":25485:25500   */\n      add\n        /* \"#utility.yul\":25478:25520   */\n      mstore\n        /* \"#utility.yul\":25293:25527   */\n      pop\n      jump\t// out\n        /* \"#utility.yul\":25533:25899   */\n    tag_272:\n        /* \"#utility.yul\":25675:25678   */\n      0x00\n        /* \"#utility.yul\":25696:25763   */\n      tag_537\n        /* \"#utility.yul\":25760:25762   */\n      0x2f\n        /* \"#utility.yul\":25755:25758   */\n      dup4\n        /* \"#utility.yul\":25696:25763   */\n      tag_218\n      jump\t// in\n    tag_537:\n        /* \"#utility.yul\":25689:25763   */\n      swap2\n      pop\n        /* \"#utility.yul\":25772:25865   */\n      tag_538\n        /* \"#utility.yul\":25861:25864   */\n      dup3\n        /* \"#utility.yul\":25772:25865   */\n      tag_271\n      jump\t// in\n    tag_538:\n        /* \"#utility.yul\":25890:25892   */\n      0x40\n        /* \"#utility.yul\":25885:25888   */\n      dup3\n        /* \"#utility.yul\":25881:25893   */\n      add\n        /* \"#utility.yul\":25874:25893   */\n      swap1\n      pop\n        /* \"#utility.yul\":25533:25899   */\n      swap2\n      swap1\n      pop\n      jump\t// out\n        /* \"#utility.yul\":25905:26324   */\n    tag_79:\n        /* \"#utility.yul\":26071:26075   */\n      0x00\n        /* \"#utility.yul\":26109:26111   */\n      0x20\n        /* \"#utility.yul\":26098:26107   */\n      dup3\n        /* \"#utility.yul\":26094:26112   */\n      add\n        /* \"#utility.yul\":26086:26112   */\n      swap1\n      pop\n        /* \"#utility.yul\":26158:26167   */\n      dup2\n        /* \"#utility.yul\":26152:26156   */\n      dup2\n        /* \"#utility.yul\":26148:26168   */\n      sub\n        /* \"#utility.yul\":26144:26145   */\n      0x00\n        /* \"#utility.yul\":26133:26142   */\n      dup4\n        /* \"#utility.yul\":26129:26146   */\n      add\n        /* \"#utility.yul\":26122:26169   */\n      mstore\n        /* \"#utility.yul\":26186:26317   */\n      tag_540\n        /* \"#utility.yul\":26312:26316   */\n      dup2\n        /* \"#utility.yul\":26186:26317   */\n      tag_272\n      jump\t// in\n    tag_540:\n        /* \"#utility.yul\":26178:26317   */\n      swap1\n      pop\n        /* \"#utility.yul\":25905:26324   */\n      swap2\n      swap1\n      pop\n      jump\t// out\n        /* \"#utility.yul\":26330:26509   */\n    tag_273:\n        /* \"#utility.yul\":26470:26501   */\n      0x4f776e65722070726f66696c6520646f6573206e6f742065786973742e000000\n        /* \"#utility.yul\":26466:26467   */\n      0x00\n        /* \"#utility.yul\":26458:26464   */\n      dup3\n        /* \"#utility.yul\":26454:26468   */\n      add\n        /* \"#utility.yul\":26447:26502   */\n      mstore\n        /* \"#utility.yul\":26330:26509   */\n      pop\n      jump\t// out\n        /* \"#utility.yul\":26515:26881   */\n    tag_274:\n        /* \"#utility.yul\":26657:26660   */\n      0x00\n        /* \"#utility.yul\":26678:26745   */\n      tag_543\n        /* \"#utility.yul\":26742:26744   */\n      0x1d\n        /* \"#utility.yul\":26737:26740   */\n      dup4\n        /* \"#utility.yul\":26678:26745   */\n      tag_218\n      jump\t// in\n    tag_543:\n        /* \"#utility.yul\":26671:26745   */\n      swap2\n      pop\n        /* \"#utility.yul\":26754:26847   */\n      tag_544\n        /* \"#utility.yul\":26843:26846   */\n      dup3\n        /* \"#utility.yul\":26754:26847   */\n      tag_273\n      jump\t// in\n    tag_544:\n        /* \"#utility.yul\":26872:26874   */\n      0x20\n        /* \"#utility.yul\":26867:26870   */\n      dup3\n        /* \"#utility.yul\":26863:26875   */\n      add\n        /* \"#utility.yul\":26856:26875   */\n      swap1\n      pop\n        /* \"#utility.yul\":26515:26881   */\n      swap2\n      swap1\n      pop\n      jump\t// out\n        /* \"#utility.yul\":26887:27306   */\n    tag_83:\n        /* \"#utility.yul\":27053:27057   */\n      0x00\n        /* \"#utility.yul\":27091:27093   */\n      0x20\n        /* \"#utility.yul\":27080:27089   */\n      dup3\n        /* \"#utility.yul\":27076:27094   */\n      add\n        /* \"#utility.yul\":27068:27094   */\n      swap1\n      pop\n        /* \"#utility.yul\":27140:27149   */\n      dup2\n        /* \"#utility.yul\":27134:27138   */\n      dup2\n        /* \"#utility.yul\":27130:27150   */\n      sub\n        /* \"#utility.yul\":27126:27127   */\n      0x00\n        /* \"#utility.yul\":27115:27124   */\n      dup4\n        /* \"#utility.yul\":27111:27128   */\n      add\n        /* \"#utility.yul\":27104:27151   */\n      mstore\n        /* \"#utility.yul\":27168:27299   */\n      tag_546\n        /* \"#utility.yul\":27294:27298   */\n      dup2\n        /* \"#utility.yul\":27168:27299   */\n      tag_274\n      jump\t// in\n    tag_546:\n        /* \"#utility.yul\":27160:27299   */\n      swap1\n      pop\n        /* \"#utility.yul\":26887:27306   */\n      swap2\n      swap1\n      pop\n      jump\t// out\n        /* \"#utility.yul\":27312:27453   */\n    tag_275:\n        /* \"#utility.yul\":27361:27365   */\n      0x00\n        /* \"#utility.yul\":27384:27387   */\n      dup2\n        /* \"#utility.yul\":27376:27387   */\n      swap1\n      pop\n        /* \"#utility.yul\":27407:27410   */\n      dup2\n        /* \"#utility.yul\":27404:27405   */\n      0x00\n        /* \"#utility.yul\":27397:27411   */\n      mstore\n        /* \"#utility.yul\":27441:27445   */\n      0x20\n        /* \"#utility.yul\":27438:27439   */\n      0x00\n        /* \"#utility.yul\":27428:27446   */\n      keccak256\n        /* \"#utility.yul\":27420:27446   */\n      swap1\n      pop\n        /* \"#utility.yul\":27312:27453   */\n      swap2\n      swap1\n      pop\n      jump\t// out\n        /* \"#utility.yul\":27459:27552   */\n    tag_276:\n        /* \"#utility.yul\":27496:27502   */\n      0x00\n        /* \"#utility.yul\":27543:27545   */\n      0x20\n        /* \"#utility.yul\":27538:27540   */\n      0x1f\n        /* \"#utility.yul\":27531:27536   */\n      dup4\n        /* \"#utility.yul\":27527:27541   */\n      add\n        /* \"#utility.yul\":27523:27546   */\n      div\n        /* \"#utility.yul\":27513:27546   */\n      swap1\n      pop\n        /* \"#utility.yul\":27459:27552   */\n      swap2\n      swap1\n      pop\n      jump\t// out\n        /* \"#utility.yul\":27558:27665   */\n    tag_277:\n        /* \"#utility.yul\":27602:27610   */\n      0x00\n        /* \"#utility.yul\":27652:27657   */\n      dup3\n        /* \"#utility.yul\":27646:27650   */\n      dup3\n        /* \"#utility.yul\":27642:27658   */\n      shl\n        /* \"#utility.yul\":27621:27658   */\n      swap1\n      pop\n        /* \"#utility.yul\":27558:27665   */\n      swap3\n      swap2\n      pop\n      pop\n      jump\t// out\n        /* \"#utility.yul\":27671:28064   */\n    tag_278:\n        /* \"#utility.yul\":27740:27746   */\n      0x00\n        /* \"#utility.yul\":27790:27791   */\n      0x08\n        /* \"#utility.yul\":27778:27788   */\n      dup4\n        /* \"#utility.yul\":27774:27792   */\n      mul\n        /* \"#utility.yul\":27813:27910   */\n      tag_551\n        /* \"#utility.yul\":27843:27909   */\n      0xffffffffffffffffffffffffffffffffffffffffffffffffffffffffffffffff\n        /* \"#utility.yul\":27832:27841   */\n      dup3\n        /* \"#utility.yul\":27813:27910   */\n      tag_277\n      jump\t// in\n    tag_551:\n        /* \"#utility.yul\":27931:27970   */\n      tag_552\n        /* \"#utility.yul\":27961:27969   */\n      dup7\n        /* \"#utility.yul\":27950:27959   */\n      dup4\n        /* \"#utility.yul\":27931:27970   */\n      tag_277\n      jump\t// in\n    tag_552:\n        /* \"#utility.yul\":27919:27970   */\n      swap6\n      pop\n        /* \"#utility.yul\":28003:28007   */\n      dup1\n        /* \"#utility.yul\":27999:28008   */\n      not\n        /* \"#utility.yul\":27992:27997   */\n      dup5\n        /* \"#utility.yul\":27988:28009   */\n      and\n        /* \"#utility.yul\":27979:28009   */\n      swap4\n      pop\n        /* \"#utility.yul\":28052:28056   */\n      dup1\n        /* \"#utility.yul\":28042:28050   */\n      dup7\n        /* \"#utility.yul\":28038:28057   */\n      and\n        /* \"#utility.yul\":28031:28036   */\n      dup5\n        /* \"#utility.yul\":28028:28058   */\n      or\n        /* \"#utility.yul\":28018:28058   */\n      swap3\n      pop\n        /* \"#utility.yul\":27747:28064   */\n      pop\n      pop\n        /* \"#utility.yul\":27671:28064   */\n      swap4\n      swap3\n      pop\n      pop\n      pop\n      jump\t// out\n        /* \"#utility.yul\":28070:28130   */\n    tag_279:\n        /* \"#utility.yul\":28098:28101   */\n      0x00\n        /* \"#utility.yul\":28119:28124   */\n      dup2\n        /* \"#utility.yul\":28112:28124   */\n      swap1\n      pop\n        /* \"#utility.yul\":28070:28130   */\n      swap2\n      swap1\n      pop\n      jump\t// out\n        /* \"#utility.yul\":28136:28278   */\n    tag_280:\n        /* \"#utility.yul\":28186:28195   */\n      0x00\n        /* \"#utility.yul\":28219:28272   */\n      tag_555\n        /* \"#utility.yul\":28237:28271   */\n      tag_556\n        /* \"#utility.yul\":28246:28270   */\n      tag_557\n        /* \"#utility.yul\":28264:28269   */\n      dup5\n        /* \"#utility.yul\":28246:28270   */\n      tag_215\n      jump\t// in\n    tag_557:\n        /* \"#utility.yul\":28237:28271   */\n      tag_279\n      jump\t// in\n    tag_556:\n        /* \"#utility.yul\":28219:28272   */\n      tag_215\n      jump\t// in\n    tag_555:\n        /* \"#utility.yul\":28206:28272   */\n      swap1\n      pop\n        /* \"#utility.yul\":28136:28278   */\n      swap2\n      swap1\n      pop\n      jump\t// out\n        /* \"#utility.yul\":28284:28359   */\n    tag_281:\n        /* \"#utility.yul\":28327:28330   */\n      0x00\n        /* \"#utility.yul\":28348:28353   */\n      dup2\n        /* \"#utility.yul\":28341:28353   */\n      swap1\n      pop\n        /* \"#utility.yul\":28284:28359   */\n      swap2\n      swap1\n      pop\n      jump\t// out\n        /* \"#utility.yul\":28365:28634   */\n    tag_282:\n        /* \"#utility.yul\":28475:28514   */\n      tag_560\n        /* \"#utility.yul\":28506:28513   */\n      dup4\n        /* \"#utility.yul\":28475:28514   */\n      tag_280\n      jump\t// in\n    tag_560:\n        /* \"#utility.yul\":28536:28627   */\n      tag_561\n        /* \"#utility.yul\":28585:28626   */\n      tag_562\n        /* \"#utility.yul\":28609:28625   */\n      dup3\n        /* \"#utility.yul\":28585:28626   */\n      tag_281\n      jump\t// in\n    tag_562:\n        /* \"#utility.yul\":28577:28583   */\n      dup5\n        /* \"#utility.yul\":28570:28574   */\n      dup5\n        /* \"#utility.yul\":28564:28575   */\n      sload\n        /* \"#utility.yul\":28536:28627   */\n      tag_278\n      jump\t// in\n    tag_561:\n        /* \"#utility.yul\":28530:28534   */\n      dup3\n        /* \"#utility.yul\":28523:28628   */\n      sstore\n        /* \"#utility.yul\":28441:28634   */\n      pop\n        /* \"#utility.yul\":28365:28634   */\n      pop\n      pop\n      pop\n      jump\t// out\n        /* \"#utility.yul\":28640:28713   */\n    tag_283:\n        /* \"#utility.yul\":28685:28688   */\n      0x00\n        /* \"#utility.yul\":28640:28713   */\n      swap1\n      jump\t// out\n        /* \"#utility.yul\":28719:28908   */\n    tag_284:\n        /* \"#utility.yul\":28796:28828   */\n      tag_565\n      tag_283\n      jump\t// in\n    tag_565:\n        /* \"#utility.yul\":28837:28902   */\n      tag_566\n        /* \"#utility.yul\":28895:28901   */\n      dup2\n        /* \"#utility.yul\":28887:28893   */\n      dup5\n        /* \"#utility.yul\":28881:28885   */\n      dup5\n        /* \"#utility.yul\":28837:28902   */\n      tag_282\n      jump\t// in\n    tag_566:\n        /* \"#utility.yul\":28772:28908   */\n      pop\n        /* \"#utility.yul\":28719:28908   */\n      pop\n      pop\n      jump\t// out\n        /* \"#utility.yul\":28914:29100   */\n    tag_285:\n        /* \"#utility.yul\":28974:29094   */\n    tag_568:\n        /* \"#utility.yul\":28991:28994   */\n      dup2\n        /* \"#utility.yul\":28984:28989   */\n      dup2\n        /* \"#utility.yul\":28981:28995   */\n      lt\n        /* \"#utility.yul\":28974:29094   */\n      iszero\n      tag_570\n      jumpi\n        /* \"#utility.yul\":29045:29084   */\n      tag_571\n        /* \"#utility.yul\":29082:29083   */\n      0x00\n        /* \"#utility.yul\":29075:29080   */\n      dup3\n        /* \"#utility.yul\":29045:29084   */\n      tag_284\n      jump\t// in\n    tag_571:\n        /* \"#utility.yul\":29018:29019   */\n      0x01\n        /* \"#utility.yul\":29011:29016   */\n      dup2\n        /* \"#utility.yul\":29007:29020   */\n      add\n        /* \"#utility.yul\":28998:29020   */\n      swap1\n      pop\n        /* \"#utility.yul\":28974:29094   */\n      jump(tag_568)\n    tag_570:\n        /* \"#utility.yul\":28914:29100   */\n      pop\n      pop\n      jump\t// out\n        /* \"#utility.yul\":29106:29649   */\n    tag_286:\n        /* \"#utility.yul\":29207:29209   */\n      0x1f\n        /* \"#utility.yul\":29202:29205   */\n      dup3\n        /* \"#utility.yul\":29199:29210   */\n      gt\n        /* \"#utility.yul\":29196:29642   */\n      iszero\n      tag_573\n      jumpi\n        /* \"#utility.yul\":29241:29279   */\n      tag_574\n        /* \"#utility.yul\":29273:29278   */\n      dup2\n        /* \"#utility.yul\":29241:29279   */\n      tag_275\n      jump\t// in\n    tag_574:\n        /* \"#utility.yul\":29325:29354   */\n      tag_575\n        /* \"#utility.yul\":29343:29353   */\n      dup5\n        /* \"#utility.yul\":29325:29354   */\n      tag_276\n      jump\t// in\n    tag_575:\n        /* \"#utility.yul\":29315:29323   */\n      dup2\n        /* \"#utility.yul\":29311:29355   */\n      add\n        /* \"#utility.yul\":29508:29510   */\n      0x20\n        /* \"#utility.yul\":29496:29506   */\n      dup6\n        /* \"#utility.yul\":29493:29511   */\n      lt\n        /* \"#utility.yul\":29490:29539   */\n      iszero\n      tag_576\n      jumpi\n        /* \"#utility.yul\":29529:29537   */\n      dup2\n        /* \"#utility.yul\":29514:29537   */\n      swap1\n      pop\n        /* \"#utility.yul\":29490:29539   */\n    tag_576:\n        /* \"#utility.yul\":29552:29632   */\n      tag_577\n        /* \"#utility.yul\":29608:29630   */\n      tag_578\n        /* \"#utility.yul\":29626:29629   */\n      dup6\n        /* \"#utility.yul\":29608:29630   */\n      tag_276\n      jump\t// in\n    tag_578:\n        /* \"#utility.yul\":29598:29606   */\n      dup4\n        /* \"#utility.yul\":29594:29631   */\n      add\n        /* \"#utility.yul\":29581:29592   */\n      dup3\n        /* \"#utility.yul\":29552:29632   */\n      tag_285\n      jump\t// in\n    tag_577:\n        /* \"#utility.yul\":29211:29642   */\n      pop\n      pop\n        /* \"#utility.yul\":29196:29642   */\n    tag_573:\n        /* \"#utility.yul\":29106:29649   */\n      pop\n      pop\n      pop\n      jump\t// out\n        /* \"#utility.yul\":29655:29772   */\n    tag_287:\n        /* \"#utility.yul\":29709:29717   */\n      0x00\n        /* \"#utility.yul\":29759:29764   */\n      dup3\n        /* \"#utility.yul\":29753:29757   */\n      dup3\n        /* \"#utility.yul\":29749:29765   */\n      shr\n        /* \"#utility.yul\":29728:29765   */\n      swap1\n      pop\n        /* \"#utility.yul\":29655:29772   */\n      swap3\n      swap2\n      pop\n      pop\n      jump\t// out\n        /* \"#utility.yul\":29778:29947   */\n    tag_288:\n        /* \"#utility.yul\":29822:29828   */\n      0x00\n        /* \"#utility.yul\":29855:29906   */\n      tag_581\n        /* \"#utility.yul\":29903:29904   */\n      0x00\n        /* \"#utility.yul\":29899:29905   */\n      not\n        /* \"#utility.yul\":29891:29896   */\n      dup5\n        /* \"#utility.yul\":29888:29889   */\n      0x08\n        /* \"#utility.yul\":29884:29897   */\n      mul\n        /* \"#utility.yul\":29855:29906   */\n      tag_287\n      jump\t// in\n    tag_581:\n        /* \"#utility.yul\":29851:29907   */\n      not\n        /* \"#utility.yul\":29936:29940   */\n      dup1\n        /* \"#utility.yul\":29930:29934   */\n      dup4\n        /* \"#utility.yul\":29926:29941   */\n      and\n        /* \"#utility.yul\":29916:29941   */\n      swap2\n      pop\n        /* \"#utility.yul\":29829:29947   */\n      pop\n        /* \"#utility.yul\":29778:29947   */\n      swap3\n      swap2\n      pop\n      pop\n      jump\t// out\n        /* \"#utility.yul\":29952:30247   */\n    tag_289:\n        /* \"#utility.yul\":30028:30032   */\n      0x00\n        /* \"#utility.yul\":30174:30203   */\n      tag_583\n        /* \"#utility.yul\":30199:30202   */\n      dup4\n        /* \"#utility.yul\":30193:30197   */\n      dup4\n        /* \"#utility.yul\":30174:30203   */\n      tag_288\n      jump\t// in\n    tag_583:\n        /* \"#utility.yul\":30166:30203   */\n      swap2\n      pop\n        /* \"#utility.yul\":30236:30239   */\n      dup3\n        /* \"#utility.yul\":30233:30234   */\n      0x02\n        /* \"#utility.yul\":30229:30240   */\n      mul\n        /* \"#utility.yul\":30223:30227   */\n      dup3\n        /* \"#utility.yul\":30220:30241   */\n      or\n        /* \"#utility.yul\":30212:30241   */\n      swap1\n      pop\n        /* \"#utility.yul\":29952:30247   */\n      swap3\n      swap2\n      pop\n      pop\n      jump\t// out\n        /* \"#utility.yul\":30252:31647   */\n    tag_89:\n        /* \"#utility.yul\":30369:30406   */\n      tag_585\n        /* \"#utility.yul\":30402:30405   */\n      dup3\n        /* \"#utility.yul\":30369:30406   */\n      tag_217\n      jump\t// in\n    tag_585:\n        /* \"#utility.yul\":30471:30489   */\n      0xffffffffffffffff\n        /* \"#utility.yul\":30463:30469   */\n      dup2\n        /* \"#utility.yul\":30460:30490   */\n      gt\n        /* \"#utility.yul\":30457:30513   */\n      iszero\n      tag_586\n      jumpi\n        /* \"#utility.yul\":30493:30511   */\n      tag_587\n      tag_101\n      jump\t// in\n    tag_587:\n        /* \"#utility.yul\":30457:30513   */\n    tag_586:\n        /* \"#utility.yul\":30537:30575   */\n      tag_588\n        /* \"#utility.yul\":30569:30573   */\n      dup3\n        /* \"#utility.yul\":30563:30574   */\n      sload\n        /* \"#utility.yul\":30537:30575   */\n      tag_61\n      jump\t// in\n    tag_588:\n        /* \"#utility.yul\":30622:30689   */\n      tag_589\n        /* \"#utility.yul\":30682:30688   */\n      dup3\n        /* \"#utility.yul\":30674:30680   */\n      dup3\n        /* \"#utility.yul\":30668:30672   */\n      dup6\n        /* \"#utility.yul\":30622:30689   */\n      tag_286\n      jump\t// in\n    tag_589:\n        /* \"#utility.yul\":30716:30717   */\n      0x00\n        /* \"#utility.yul\":30740:30744   */\n      0x20\n        /* \"#utility.yul\":30727:30744   */\n      swap1\n      pop\n        /* \"#utility.yul\":30772:30774   */\n      0x1f\n        /* \"#utility.yul\":30764:30770   */\n      dup4\n        /* \"#utility.yul\":30761:30775   */\n      gt\n        /* \"#utility.yul\":30789:30790   */\n      0x01\n        /* \"#utility.yul\":30784:31402   */\n      dup2\n      eq\n      tag_591\n      jumpi\n        /* \"#utility.yul\":31446:31447   */\n      0x00\n        /* \"#utility.yul\":31463:31469   */\n      dup5\n        /* \"#utility.yul\":31460:31537   */\n      iszero\n      tag_592\n      jumpi\n        /* \"#utility.yul\":31512:31521   */\n      dup3\n        /* \"#utility.yul\":31507:31510   */\n      dup8\n        /* \"#utility.yul\":31503:31522   */\n      add\n        /* \"#utility.yul\":31497:31523   */\n      mload\n        /* \"#utility.yul\":31488:31523   */\n      swap1\n      pop\n        /* \"#utility.yul\":31460:31537   */\n    tag_592:\n        /* \"#utility.yul\":31563:31630   */\n      tag_593\n        /* \"#utility.yul\":31623:31629   */\n      dup6\n        /* \"#utility.yul\":31616:31621   */\n      dup3\n        /* \"#utility.yul\":31563:31630   */\n      tag_289\n      jump\t// in\n    tag_593:\n        /* \"#utility.yul\":31557:31561   */\n      dup7\n        /* \"#utility.yul\":31550:31631   */\n      sstore\n        /* \"#utility.yul\":31419:31641   */\n      pop\n        /* \"#utility.yul\":30754:31641   */\n      jump(tag_590)\n        /* \"#utility.yul\":30784:31402   */\n    tag_591:\n        /* \"#utility.yul\":30836:30840   */\n      0x1f\n        /* \"#utility.yul\":30832:30841   */\n      not\n        /* \"#utility.yul\":30824:30830   */\n      dup5\n        /* \"#utility.yul\":30820:30842   */\n      and\n        /* \"#utility.yul\":30870:30907   */\n      tag_594\n        /* \"#utility.yul\":30902:30906   */\n      dup7\n        /* \"#utility.yul\":30870:30907   */\n      tag_275\n      jump\t// in\n    tag_594:\n        /* \"#utility.yul\":30929:30930   */\n      0x00\n        /* \"#utility.yul\":30943:31151   */\n    tag_595:\n        /* \"#utility.yul\":30957:30964   */\n      dup3\n        /* \"#utility.yul\":30954:30955   */\n      dup2\n        /* \"#utility.yul\":30951:30965   */\n      lt\n        /* \"#utility.yul\":30943:31151   */\n      iszero\n      tag_597\n      jumpi\n        /* \"#utility.yul\":31036:31045   */\n      dup5\n        /* \"#utility.yul\":31031:31034   */\n      dup10\n        /* \"#utility.yul\":31027:31046   */\n      add\n        /* \"#utility.yul\":31021:31047   */\n      mload\n        /* \"#utility.yul\":31013:31019   */\n      dup3\n        /* \"#utility.yul\":31006:31048   */\n      sstore\n        /* \"#utility.yul\":31087:31088   */\n      0x01\n        /* \"#utility.yul\":31079:31085   */\n      dup3\n        /* \"#utility.yul\":31075:31089   */\n      add\n        /* \"#utility.yul\":31065:31089   */\n      swap2\n      pop\n        /* \"#utility.yul\":31134:31136   */\n      0x20\n        /* \"#utility.yul\":31123:31132   */\n      dup6\n        /* \"#utility.yul\":31119:31137   */\n      add\n        /* \"#utility.yul\":31106:31137   */\n      swap5\n      pop\n        /* \"#utility.yul\":30980:30984   */\n      0x20\n        /* \"#utility.yul\":30977:30978   */\n      dup2\n        /* \"#utility.yul\":30973:30985   */\n      add\n        /* \"#utility.yul\":30968:30985   */\n      swap1\n      pop\n        /* \"#utility.yul\":30943:31151   */\n      jump(tag_595)\n    tag_597:\n        /* \"#utility.yul\":31179:31185   */\n      dup7\n        /* \"#utility.yul\":31170:31177   */\n      dup4\n        /* \"#utility.yul\":31167:31186   */\n      lt\n        /* \"#utility.yul\":31164:31343   */\n      iszero\n      tag_598\n      jumpi\n        /* \"#utility.yul\":31237:31246   */\n      dup5\n        /* \"#utility.yul\":31232:31235   */\n      dup10\n        /* \"#utility.yul\":31228:31247   */\n      add\n        /* \"#utility.yul\":31222:31248   */\n      mload\n        /* \"#utility.yul\":31280:31328   */\n      tag_599\n        /* \"#utility.yul\":31322:31326   */\n      0x1f\n        /* \"#utility.yul\":31314:31320   */\n      dup10\n        /* \"#utility.yul\":31310:31327   */\n      and\n        /* \"#utility.yul\":31299:31308   */\n      dup3\n        /* \"#utility.yul\":31280:31328   */\n      tag_288\n      jump\t// in\n    tag_599:\n        /* \"#utility.yul\":31272:31278   */\n      dup4\n        /* \"#utility.yul\":31265:31329   */\n      sstore\n        /* \"#utility.yul\":31187:31343   */\n      pop\n        /* \"#utility.yul\":31164:31343   */\n    tag_598:\n        /* \"#utility.yul\":31389:31390   */\n      0x01\n        /* \"#utility.yul\":31385:31386   */\n      0x02\n        /* \"#utility.yul\":31377:31383   */\n      dup9\n        /* \"#utility.yul\":31373:31387   */\n      mul\n        /* \"#utility.yul\":31369:31391   */\n      add\n        /* \"#utility.yul\":31363:31367   */\n      dup9\n        /* \"#utility.yul\":31356:31392   */\n      sstore\n        /* \"#utility.yul\":30791:31402   */\n      pop\n      pop\n      pop\n        /* \"#utility.yul\":30754:31641   */\n    tag_590:\n      pop\n        /* \"#utility.yul\":30344:31647   */\n      pop\n      pop\n      pop\n        /* \"#utility.yul\":30252:31647   */\n      pop\n      pop\n      jump\t// out\n        /* \"#utility.yul\":31653:31833   */\n    tag_130:\n        /* \"#utility.yul\":31701:31778   */\n      0x4e487b7100000000000000000000000000000000000000000000000000000000\n        /* \"#utility.yul\":31698:31699   */\n      0x00\n        /* \"#utility.yul\":31691:31779   */\n      mstore\n        /* \"#utility.yul\":31798:31802   */\n      0x32\n        /* \"#utility.yul\":31795:31796   */\n      0x04\n        /* \"#utility.yul\":31788:31803   */\n      mstore\n        /* \"#utility.yul\":31822:31826   */\n      0x24\n        /* \"#utility.yul\":31819:31820   */\n      0x00\n        /* \"#utility.yul\":31812:31827   */\n      revert\n        /* \"#utility.yul\":31839:32061   */\n    tag_132:\n        /* \"#utility.yul\":31932:31936   */\n      0x00\n        /* \"#utility.yul\":31970:31972   */\n      0x20\n        /* \"#utility.yul\":31959:31968   */\n      dup3\n        /* \"#utility.yul\":31955:31973   */\n      add\n        /* \"#utility.yul\":31947:31973   */\n      swap1\n      pop\n        /* \"#utility.yul\":31983:32054   */\n      tag_602\n        /* \"#utility.yul\":32051:32052   */\n      0x00\n        /* \"#utility.yul\":32040:32049   */\n      dup4\n        /* \"#utility.yul\":32036:32053   */\n      add\n        /* \"#utility.yul\":32027:32033   */\n      dup5\n        /* \"#utility.yul\":31983:32054   */\n      tag_216\n      jump\t// in\n    tag_602:\n        /* \"#utility.yul\":31839:32061   */\n      swap3\n      swap2\n      pop\n      pop\n      jump\t// out\n        /* \"#utility.yul\":32067:32501   */\n    tag_290:\n        /* \"#utility.yul\":32156:32161   */\n      0x00\n        /* \"#utility.yul\":32181:32247   */\n      tag_604\n        /* \"#utility.yul\":32197:32246   */\n      tag_605\n        /* \"#utility.yul\":32239:32245   */\n      dup5\n        /* \"#utility.yul\":32197:32246   */\n      tag_228\n      jump\t// in\n    tag_605:\n        /* \"#utility.yul\":32181:32247   */\n      tag_227\n      jump\t// in\n    tag_604:\n        /* \"#utility.yul\":32172:32247   */\n      swap1\n      pop\n        /* \"#utility.yul\":32270:32276   */\n      dup3\n        /* \"#utility.yul\":32263:32268   */\n      dup2\n        /* \"#utility.yul\":32256:32277   */\n      mstore\n        /* \"#utility.yul\":32308:32312   */\n      0x20\n        /* \"#utility.yul\":32301:32306   */\n      dup2\n        /* \"#utility.yul\":32297:32313   */\n      add\n        /* \"#utility.yul\":32346:32349   */\n      dup5\n        /* \"#utility.yul\":32337:32343   */\n      dup5\n        /* \"#utility.yul\":32332:32335   */\n      dup5\n        /* \"#utility.yul\":32328:32344   */\n      add\n        /* \"#utility.yul\":32325:32350   */\n      gt\n        /* \"#utility.yul\":32322:32434   */\n      iszero\n      tag_606\n      jumpi\n        /* \"#utility.yul\":32353:32432   */\n      tag_607\n      tag_225\n      jump\t// in\n    tag_607:\n        /* \"#utility.yul\":32322:32434   */\n    tag_606:\n        /* \"#utility.yul\":32443:32495   */\n      tag_608\n        /* \"#utility.yul\":32488:32494   */\n      dup5\n        /* \"#utility.yul\":32483:32486   */\n      dup3\n        /* \"#utility.yul\":32478:32481   */\n      dup6\n        /* \"#utility.yul\":32443:32495   */\n      tag_219\n      jump\t// in\n    tag_608:\n        /* \"#utility.yul\":32162:32501   */\n      pop\n        /* \"#utility.yul\":32067:32501   */\n      swap4\n      swap3\n      pop\n      pop\n      pop\n      jump\t// out\n        /* \"#utility.yul\":32521:32876   */\n    tag_291:\n        /* \"#utility.yul\":32588:32593   */\n      0x00\n        /* \"#utility.yul\":32637:32640   */\n      dup3\n        /* \"#utility.yul\":32630:32634   */\n      0x1f\n        /* \"#utility.yul\":32622:32628   */\n      dup4\n        /* \"#utility.yul\":32618:32635   */\n      add\n        /* \"#utility.yul\":32614:32641   */\n      slt\n        /* \"#utility.yul\":32604:32726   */\n      tag_610\n      jumpi\n        /* \"#utility.yul\":32645:32724   */\n      tag_611\n      tag_224\n      jump\t// in\n    tag_611:\n        /* \"#utility.yul\":32604:32726   */\n    tag_610:\n        /* \"#utility.yul\":32755:32761   */\n      dup2\n        /* \"#utility.yul\":32749:32762   */\n      mload\n        /* \"#utility.yul\":32780:32870   */\n      tag_612\n        /* \"#utility.yul\":32866:32869   */\n      dup5\n        /* \"#utility.yul\":32858:32864   */\n      dup3\n        /* \"#utility.yul\":32851:32855   */\n      0x20\n        /* \"#utility.yul\":32843:32849   */\n      dup7\n        /* \"#utility.yul\":32839:32856   */\n      add\n        /* \"#utility.yul\":32780:32870   */\n      tag_290\n      jump\t// in\n    tag_612:\n        /* \"#utility.yul\":32771:32870   */\n      swap2\n      pop\n        /* \"#utility.yul\":32594:32876   */\n      pop\n        /* \"#utility.yul\":32521:32876   */\n      swap3\n      swap2\n      pop\n      pop\n      jump\t// out\n        /* \"#utility.yul\":32882:33025   */\n    tag_292:\n        /* \"#utility.yul\":32939:32944   */\n      0x00\n        /* \"#utility.yul\":32970:32976   */\n      dup2\n        /* \"#utility.yul\":32964:32977   */\n      mload\n        /* \"#utility.yul\":32955:32977   */\n      swap1\n      pop\n        /* \"#utility.yul\":32986:33019   */\n      tag_614\n        /* \"#utility.yul\":33013:33018   */\n      dup2\n        /* \"#utility.yul\":32986:33019   */\n      tag_208\n      jump\t// in\n    tag_614:\n        /* \"#utility.yul\":32882:33025   */\n      swap3\n      swap2\n      pop\n      pop\n      jump\t// out\n        /* \"#utility.yul\":33031:33174   */\n    tag_293:\n        /* \"#utility.yul\":33088:33093   */\n      0x00\n        /* \"#utility.yul\":33119:33125   */\n      dup2\n        /* \"#utility.yul\":33113:33126   */\n      mload\n        /* \"#utility.yul\":33104:33126   */\n      swap1\n      pop\n        /* \"#utility.yul\":33135:33168   */\n      tag_616\n        /* \"#utility.yul\":33162:33167   */\n      dup2\n        /* \"#utility.yul\":33135:33168   */\n      tag_222\n      jump\t// in\n    tag_616:\n        /* \"#utility.yul\":33031:33174   */\n      swap3\n      swap2\n      pop\n      pop\n      jump\t// out\n        /* \"#utility.yul\":33180:33491   */\n    tag_294:\n        /* \"#utility.yul\":33257:33261   */\n      0x00\n        /* \"#utility.yul\":33347:33365   */\n      0xffffffffffffffff\n        /* \"#utility.yul\":33339:33345   */\n      dup3\n        /* \"#utility.yul\":33336:33366   */\n      gt\n        /* \"#utility.yul\":33333:33389   */\n      iszero\n      tag_618\n      jumpi\n        /* \"#utility.yul\":33369:33387   */\n      tag_619\n      tag_101\n      jump\t// in\n    tag_619:\n        /* \"#utility.yul\":33333:33389   */\n    tag_618:\n        /* \"#utility.yul\":33419:33423   */\n      0x20\n        /* \"#utility.yul\":33411:33417   */\n      dup3\n        /* \"#utility.yul\":33407:33424   */\n      mul\n        /* \"#utility.yul\":33399:33424   */\n      swap1\n      pop\n        /* \"#utility.yul\":33479:33483   */\n      0x20\n        /* \"#utility.yul\":33473:33477   */\n      dup2\n        /* \"#utility.yul\":33469:33484   */\n      add\n        /* \"#utility.yul\":33461:33484   */\n      swap1\n      pop\n        /* \"#utility.yul\":33180:33491   */\n      swap2\n      swap1\n      pop\n      jump\t// out\n        /* \"#utility.yul\":33497:33614   */\n    tag_295:\n        /* \"#utility.yul\":33606:33607   */\n      0x00\n        /* \"#utility.yul\":33603:33604   */\n      dup1\n        /* \"#utility.yul\":33596:33608   */\n      revert\n        /* \"#utility.yul\":33637:34369   */\n    tag_296:\n        /* \"#utility.yul\":33744:33749   */\n      0x00\n        /* \"#utility.yul\":33769:33850   */\n      tag_622\n        /* \"#utility.yul\":33785:33849   */\n      tag_623\n        /* \"#utility.yul\":33842:33848   */\n      dup5\n        /* \"#utility.yul\":33785:33849   */\n      tag_294\n      jump\t// in\n    tag_623:\n        /* \"#utility.yul\":33769:33850   */\n      tag_227\n      jump\t// in\n    tag_622:\n        /* \"#utility.yul\":33760:33850   */\n      swap1\n      pop\n        /* \"#utility.yul\":33870:33875   */\n      dup1\n        /* \"#utility.yul\":33899:33905   */\n      dup4\n        /* \"#utility.yul\":33892:33897   */\n      dup3\n        /* \"#utility.yul\":33885:33906   */\n      mstore\n        /* \"#utility.yul\":33933:33937   */\n      0x20\n        /* \"#utility.yul\":33926:33931   */\n      dup3\n        /* \"#utility.yul\":33922:33938   */\n      add\n        /* \"#utility.yul\":33915:33938   */\n      swap1\n      pop\n        /* \"#utility.yul\":33986:33990   */\n      0x20\n        /* \"#utility.yul\":33978:33984   */\n      dup5\n        /* \"#utility.yul\":33974:33991   */\n      mul\n        /* \"#utility.yul\":33966:33972   */\n      dup4\n        /* \"#utility.yul\":33962:33992   */\n      add\n        /* \"#utility.yul\":34015:34018   */\n      dup6\n        /* \"#utility.yul\":34007:34013   */\n      dup2\n        /* \"#utility.yul\":34004:34019   */\n      gt\n        /* \"#utility.yul\":34001:34123   */\n      iszero\n      tag_624\n      jumpi\n        /* \"#utility.yul\":34034:34113   */\n      tag_625\n      tag_295\n      jump\t// in\n    tag_625:\n        /* \"#utility.yul\":34001:34123   */\n    tag_624:\n        /* \"#utility.yul\":34149:34155   */\n      dup4\n        /* \"#utility.yul\":34132:34363   */\n    tag_626:\n        /* \"#utility.yul\":34166:34172   */\n      dup2\n        /* \"#utility.yul\":34161:34164   */\n      dup2\n        /* \"#utility.yul\":34158:34173   */\n      lt\n        /* \"#utility.yul\":34132:34363   */\n      iszero\n      tag_628\n      jumpi\n        /* \"#utility.yul\":34241:34244   */\n      dup1\n        /* \"#utility.yul\":34270:34318   */\n      tag_629\n        /* \"#utility.yul\":34314:34317   */\n      dup9\n        /* \"#utility.yul\":34302:34312   */\n      dup3\n        /* \"#utility.yul\":34270:34318   */\n      tag_292\n      jump\t// in\n    tag_629:\n        /* \"#utility.yul\":34265:34268   */\n      dup5\n        /* \"#utility.yul\":34258:34319   */\n      mstore\n        /* \"#utility.yul\":34348:34352   */\n      0x20\n        /* \"#utility.yul\":34343:34346   */\n      dup5\n        /* \"#utility.yul\":34339:34353   */\n      add\n        /* \"#utility.yul\":34332:34353   */\n      swap4\n      pop\n        /* \"#utility.yul\":34208:34363   */\n      pop\n        /* \"#utility.yul\":34192:34196   */\n      0x20\n        /* \"#utility.yul\":34187:34190   */\n      dup2\n        /* \"#utility.yul\":34183:34197   */\n      add\n        /* \"#utility.yul\":34176:34197   */\n      swap1\n      pop\n        /* \"#utility.yul\":34132:34363   */\n      jump(tag_626)\n    tag_628:\n        /* \"#utility.yul\":34136:34157   */\n      pop\n        /* \"#utility.yul\":33750:34369   */\n      pop\n      pop\n        /* \"#utility.yul\":33637:34369   */\n      swap4\n      swap3\n      pop\n      pop\n      pop\n      jump\t// out\n        /* \"#utility.yul\":34392:34777   */\n    tag_297:\n        /* \"#utility.yul\":34474:34479   */\n      0x00\n        /* \"#utility.yul\":34523:34526   */\n      dup3\n        /* \"#utility.yul\":34516:34520   */\n      0x1f\n        /* \"#utility.yul\":34508:34514   */\n      dup4\n        /* \"#utility.yul\":34504:34521   */\n      add\n        /* \"#utility.yul\":34500:34527   */\n      slt\n        /* \"#utility.yul\":34490:34612   */\n      tag_631\n      jumpi\n        /* \"#utility.yul\":34531:34610   */\n      tag_632\n      tag_224\n      jump\t// in\n    tag_632:\n        /* \"#utility.yul\":34490:34612   */\n    tag_631:\n        /* \"#utility.yul\":34641:34647   */\n      dup2\n        /* \"#utility.yul\":34635:34648   */\n      mload\n        /* \"#utility.yul\":34666:34771   */\n      tag_633\n        /* \"#utility.yul\":34767:34770   */\n      dup5\n        /* \"#utility.yul\":34759:34765   */\n      dup3\n        /* \"#utility.yul\":34752:34756   */\n      0x20\n        /* \"#utility.yul\":34744:34750   */\n      dup7\n        /* \"#utility.yul\":34740:34757   */\n      add\n        /* \"#utility.yul\":34666:34771   */\n      tag_296\n      jump\t// in\n    tag_633:\n        /* \"#utility.yul\":34657:34771   */\n      swap2\n      pop\n        /* \"#utility.yul\":34480:34777   */\n      pop\n        /* \"#utility.yul\":34392:34777   */\n      swap3\n      swap2\n      pop\n      pop\n      jump\t// out\n        /* \"#utility.yul\":34783:36796   */\n    tag_136:\n        /* \"#utility.yul\":34962:34968   */\n      0x00\n        /* \"#utility.yul\":34970:34976   */\n      dup1\n        /* \"#utility.yul\":34978:34984   */\n      0x00\n        /* \"#utility.yul\":34986:34992   */\n      dup1\n        /* \"#utility.yul\":34994:35000   */\n      0x00\n        /* \"#utility.yul\":35002:35008   */\n      dup1\n        /* \"#utility.yul\":35010:35016   */\n      0x00\n        /* \"#utility.yul\":35059:35062   */\n      0xe0\n        /* \"#utility.yul\":35047:35056   */\n      dup9\n        /* \"#utility.yul\":35038:35045   */\n      dup11\n        /* \"#utility.yul\":35034:35057   */\n      sub\n        /* \"#utility.yul\":35030:35063   */\n      slt\n        /* \"#utility.yul\":35027:35147   */\n      iszero\n      tag_635\n      jumpi\n        /* \"#utility.yul\":35066:35145   */\n      tag_636\n      tag_204\n      jump\t// in\n    tag_636:\n        /* \"#utility.yul\":35027:35147   */\n    tag_635:\n        /* \"#utility.yul\":35207:35208   */\n      0x00\n        /* \"#utility.yul\":35196:35205   */\n      dup9\n        /* \"#utility.yul\":35192:35209   */\n      add\n        /* \"#utility.yul\":35186:35210   */\n      mload\n        /* \"#utility.yul\":35237:35255   */\n      0xffffffffffffffff\n        /* \"#utility.yul\":35229:35235   */\n      dup2\n        /* \"#utility.yul\":35226:35256   */\n      gt\n        /* \"#utility.yul\":35223:35340   */\n      iszero\n      tag_637\n      jumpi\n        /* \"#utility.yul\":35259:35338   */\n      tag_638\n      tag_205\n      jump\t// in\n    tag_638:\n        /* \"#utility.yul\":35223:35340   */\n    tag_637:\n        /* \"#utility.yul\":35364:35438   */\n      tag_639\n        /* \"#utility.yul\":35430:35437   */\n      dup11\n        /* \"#utility.yul\":35421:35427   */\n      dup3\n        /* \"#utility.yul\":35410:35419   */\n      dup12\n        /* \"#utility.yul\":35406:35428   */\n      add\n        /* \"#utility.yul\":35364:35438   */\n      tag_291\n      jump\t// in\n    tag_639:\n        /* \"#utility.yul\":35354:35438   */\n      swap8\n      pop\n        /* \"#utility.yul\":35157:35448   */\n      pop\n        /* \"#utility.yul\":35508:35510   */\n      0x20\n        /* \"#utility.yul\":35497:35506   */\n      dup9\n        /* \"#utility.yul\":35493:35511   */\n      add\n        /* \"#utility.yul\":35487:35512   */\n      mload\n        /* \"#utility.yul\":35539:35557   */\n      0xffffffffffffffff\n        /* \"#utility.yul\":35531:35537   */\n      dup2\n        /* \"#utility.yul\":35528:35558   */\n      gt\n        /* \"#utility.yul\":35525:35642   */\n      iszero\n      tag_640\n      jumpi\n        /* \"#utility.yul\":35561:35640   */\n      tag_641\n      tag_205\n      jump\t// in\n    tag_641:\n        /* \"#utility.yul\":35525:35642   */\n    tag_640:\n        /* \"#utility.yul\":35666:35740   */\n      tag_642\n        /* \"#utility.yul\":35732:35739   */\n      dup11\n        /* \"#utility.yul\":35723:35729   */\n      dup3\n        /* \"#utility.yul\":35712:35721   */\n      dup12\n        /* \"#utility.yul\":35708:35730   */\n      add\n        /* \"#utility.yul\":35666:35740   */\n      tag_291\n      jump\t// in\n    tag_642:\n        /* \"#utility.yul\":35656:35740   */\n      swap7\n      pop\n        /* \"#utility.yul\":35458:35750   */\n      pop\n        /* \"#utility.yul\":35789:35791   */\n      0x40\n        /* \"#utility.yul\":35815:35879   */\n      tag_643\n        /* \"#utility.yul\":35871:35878   */\n      dup11\n        /* \"#utility.yul\":35862:35868   */\n      dup3\n        /* \"#utility.yul\":35851:35860   */\n      dup12\n        /* \"#utility.yul\":35847:35869   */\n      add\n        /* \"#utility.yul\":35815:35879   */\n      tag_292\n      jump\t// in\n    tag_643:\n        /* \"#utility.yul\":35805:35879   */\n      swap6\n      pop\n        /* \"#utility.yul\":35760:35889   */\n      pop\n        /* \"#utility.yul\":35928:35930   */\n      0x60\n        /* \"#utility.yul\":35954:36018   */\n      tag_644\n        /* \"#utility.yul\":36010:36017   */\n      dup11\n        /* \"#utility.yul\":36001:36007   */\n      dup3\n        /* \"#utility.yul\":35990:35999   */\n      dup12\n        /* \"#utility.yul\":35986:36008   */\n      add\n        /* \"#utility.yul\":35954:36018   */\n      tag_293\n      jump\t// in\n    tag_644:\n        /* \"#utility.yul\":35944:36018   */\n      swap5\n      pop\n        /* \"#utility.yul\":35899:36028   */\n      pop\n        /* \"#utility.yul\":36067:36070   */\n      0x80\n        /* \"#utility.yul\":36094:36158   */\n      tag_645\n        /* \"#utility.yul\":36150:36157   */\n      dup11\n        /* \"#utility.yul\":36141:36147   */\n      dup3\n        /* \"#utility.yul\":36130:36139   */\n      dup12\n        /* \"#utility.yul\":36126:36148   */\n      add\n        /* \"#utility.yul\":36094:36158   */\n      tag_293\n      jump\t// in\n    tag_645:\n        /* \"#utility.yul\":36084:36158   */\n      swap4\n      pop\n        /* \"#utility.yul\":36038:36168   */\n      pop\n        /* \"#utility.yul\":36228:36231   */\n      0xa0\n        /* \"#utility.yul\":36217:36226   */\n      dup9\n        /* \"#utility.yul\":36213:36232   */\n      add\n        /* \"#utility.yul\":36207:36233   */\n      mload\n        /* \"#utility.yul\":36260:36278   */\n      0xffffffffffffffff\n        /* \"#utility.yul\":36252:36258   */\n      dup2\n        /* \"#utility.yul\":36249:36279   */\n      gt\n        /* \"#utility.yul\":36246:36363   */\n      iszero\n      tag_646\n      jumpi\n        /* \"#utility.yul\":36282:36361   */\n      tag_647\n      tag_205\n      jump\t// in\n    tag_647:\n        /* \"#utility.yul\":36246:36363   */\n    tag_646:\n        /* \"#utility.yul\":36387:36461   */\n      tag_648\n        /* \"#utility.yul\":36453:36460   */\n      dup11\n        /* \"#utility.yul\":36444:36450   */\n      dup3\n        /* \"#utility.yul\":36433:36442   */\n      dup12\n        /* \"#utility.yul\":36429:36451   */\n      add\n        /* \"#utility.yul\":36387:36461   */\n      tag_291\n      jump\t// in\n    tag_648:\n        /* \"#utility.yul\":36377:36461   */\n      swap3\n      pop\n        /* \"#utility.yul\":36178:36471   */\n      pop\n        /* \"#utility.yul\":36531:36534   */\n      0xc0\n        /* \"#utility.yul\":36520:36529   */\n      dup9\n        /* \"#utility.yul\":36516:36535   */\n      add\n        /* \"#utility.yul\":36510:36536   */\n      mload\n        /* \"#utility.yul\":36563:36581   */\n      0xffffffffffffffff\n        /* \"#utility.yul\":36555:36561   */\n      dup2\n        /* \"#utility.yul\":36552:36582   */\n      gt\n        /* \"#utility.yul\":36549:36666   */\n      iszero\n      tag_649\n      jumpi\n        /* \"#utility.yul\":36585:36664   */\n      tag_650\n      tag_205\n      jump\t// in\n    tag_650:\n        /* \"#utility.yul\":36549:36666   */\n    tag_649:\n        /* \"#utility.yul\":36690:36779   */\n      tag_651\n        /* \"#utility.yul\":36771:36778   */\n      dup11\n        /* \"#utility.yul\":36762:36768   */\n      dup3\n        /* \"#utility.yul\":36751:36760   */\n      dup12\n        /* \"#utility.yul\":36747:36769   */\n      add\n        /* \"#utility.yul\":36690:36779   */\n      tag_297\n      jump\t// in\n    tag_651:\n        /* \"#utility.yul\":36680:36779   */\n      swap2\n      pop\n        /* \"#utility.yul\":36481:36789   */\n      pop\n        /* \"#utility.yul\":34783:36796   */\n      swap3\n      swap6\n      swap9\n      swap2\n      swap5\n      swap8\n      pop\n      swap3\n      swap6\n      pop\n      jump\t// out\n        /* \"#utility.yul\":36802:36981   */\n    tag_298:\n        /* \"#utility.yul\":36942:36973   */\n      0x4f776e65722070726f66696c6520616c7265616479206578697374732e000000\n        /* \"#utility.yul\":36938:36939   */\n      0x00\n        /* \"#utility.yul\":36930:36936   */\n      dup3\n        /* \"#utility.yul\":36926:36940   */\n      add\n        /* \"#utility.yul\":36919:36974   */\n      mstore\n        /* \"#utility.yul\":36802:36981   */\n      pop\n      jump\t// out\n        /* \"#utility.yul\":36987:37353   */\n    tag_299:\n        /* \"#utility.yul\":37129:37132   */\n      0x00\n        /* \"#utility.yul\":37150:37217   */\n      tag_654\n        /* \"#utility.yul\":37214:37216   */\n      0x1d\n        /* \"#utility.yul\":37209:37212   */\n      dup4\n        /* \"#utility.yul\":37150:37217   */\n      tag_218\n      jump\t// in\n    tag_654:\n        /* \"#utility.yul\":37143:37217   */\n      swap2\n      pop\n        /* \"#utility.yul\":37226:37319   */\n      tag_655\n        /* \"#utility.yul\":37315:37318   */\n      dup3\n        /* \"#utility.yul\":37226:37319   */\n      tag_298\n      jump\t// in\n    tag_655:\n        /* \"#utility.yul\":37344:37346   */\n      0x20\n        /* \"#utility.yul\":37339:37342   */\n      dup3\n        /* \"#utility.yul\":37335:37347   */\n      add\n        /* \"#utility.yul\":37328:37347   */\n      swap1\n      pop\n        /* \"#utility.yul\":36987:37353   */\n      swap2\n      swap1\n      pop\n      jump\t// out\n        /* \"#utility.yul\":37359:37778   */\n    tag_154:\n        /* \"#utility.yul\":37525:37529   */\n      0x00\n        /* \"#utility.yul\":37563:37565   */\n      0x20\n        /* \"#utility.yul\":37552:37561   */\n      dup3\n        /* \"#utility.yul\":37548:37566   */\n      add\n        /* \"#utility.yul\":37540:37566   */\n      swap1\n      pop\n        /* \"#utility.yul\":37612:37621   */\n      dup2\n        /* \"#utility.yul\":37606:37610   */\n      dup2\n        /* \"#utility.yul\":37602:37622   */\n      sub\n        /* \"#utility.yul\":37598:37599   */\n      0x00\n        /* \"#utility.yul\":37587:37596   */\n      dup4\n        /* \"#utility.yul\":37583:37600   */\n      add\n        /* \"#utility.yul\":37576:37623   */\n      mstore\n        /* \"#utility.yul\":37640:37771   */\n      tag_657\n        /* \"#utility.yul\":37766:37770   */\n      dup2\n        /* \"#utility.yul\":37640:37771   */\n      tag_299\n      jump\t// in\n    tag_657:\n        /* \"#utility.yul\":37632:37771   */\n      swap1\n      pop\n        /* \"#utility.yul\":37359:37778   */\n      swap2\n      swap1\n      pop\n      jump\t// out\n\n    auxdata: 0xa264697066735822122050bd67afa03f2565ac1d8eb36d340f672c54702344f7d8bd553fba86abdc24e264736f6c634300081a0033\n}\n",
				"bytecode": {
					"linkReferences": {},
					"object": "608060405234801561000f575f80fd5b506040516127c33803806127c383398181016040528101906100319190610115565b8060015f6101000a81548173ffffffffffffffffffffffffffffffffffffffff021916908373ffffffffffffffffffffffffffffffffffffffff1602179055508060025f6101000a81548173ffffffffffffffffffffffffffffffffffffffff021916908373ffffffffffffffffffffffffffffffffffffffff16021790555050610140565b5f80fd5b5f73ffffffffffffffffffffffffffffffffffffffff82169050919050565b5f6100e4826100bb565b9050919050565b6100f4816100da565b81146100fe575f80fd5b50565b5f8151905061010f816100eb565b92915050565b5f6020828403121561012a576101296100b7565b5b5f61013784828501610101565b91505092915050565b6126768061014d5f395ff3fe608060405234801561000f575f80fd5b506004361061009c575f3560e01c80631afd3e8d116100645780631afd3e8d1461017357806335f85c5a1461018f578063abaf78d4146101ad578063c3bb8121146101dd578063f51102051461020d5761009c565b8063022914a7146100a057806303d7a671146100d557806309261a9e146100f157806313c876a21461010d5780631693bfa11461013d575b5f80fd5b6100ba60048036038101906100b591906114cc565b61023d565b6040516100cc96959493929190611601565b60405180910390f35b6100ef60048036038101906100ea919061169f565b610431565b005b61010b60048036038101906101069190611809565b6105f2565b005b610127600480360381019061012291906114cc565b6106fd565b60405161013491906118c7565b60405180910390f35b610157600480360381019061015291906114cc565b610820565b60405161016a9796959493929190611c78565b60405180910390f35b61018d60048036038101906101889190611d39565b610cbe565b005b610197610f08565b6040516101a49190611df1565b60405180910390f35b6101c760048036038101906101c291906114cc565b610f2d565b6040516101d491906118c7565b60405180910390f35b6101f760048036038101906101f291906114cc565b611051565b6040516102049190611f33565b60405180910390f35b610227600480360381019061022291906114cc565b611345565b6040516102349190611f53565b60405180910390f35b5f602052805f5260405f205f91509050805f015f9054906101000a900473ffffffffffffffffffffffffffffffffffffffff1690805f0160149054906101000a900460ff169080600101549080600201805461029890611f99565b80601f01602080910402602001604051908101604052809291908181526020018280546102c490611f99565b801561030f5780601f106102e65761010080835404028352916020019161030f565b820191905f5260205f20905b8154815290600101906020018083116102f257829003601f168201915b50505050509080600301805461032490611f99565b80601f016020809104026020016040519081016040528092919081815260200182805461035090611f99565b801561039b5780601f106103725761010080835404028352916020019161039b565b820191905f5260205f20905b81548152906001019060200180831161037e57829003601f168201915b5050505050908060040180546103b090611f99565b80601f01602080910402602001604051908101604052809291908181526020018280546103dc90611f99565b80156104275780601f106103fe57610100808354040283529160200191610427565b820191905f5260205f20905b81548152906001019060200180831161040a57829003601f168201915b5050505050905086565b60015f9054906101000a900473ffffffffffffffffffffffffffffffffffffffff1673ffffffffffffffffffffffffffffffffffffffff163373ffffffffffffffffffffffffffffffffffffffff16146104c0576040517f08c379a00000000000000000000000000000000000000000000000000000000081526004016104b790612039565b60405180910390fd5b5f73ffffffffffffffffffffffffffffffffffffffff165f808473ffffffffffffffffffffffffffffffffffffffff1673ffffffffffffffffffffffffffffffffffffffff1681526020019081526020015f205f015f9054906101000a900473ffffffffffffffffffffffffffffffffffffffff1673ffffffffffffffffffffffffffffffffffffffff160361058b576040517f08c379a0000000000000000000000000000000000000000000000000000000008152600401610582906120a1565b60405180910390fd5b5f808373ffffffffffffffffffffffffffffffffffffffff1673ffffffffffffffffffffffffffffffffffffffff1681526020019081526020015f2060050181908060018154018082558091505060019003905f5260205f20015f90919091909150555050565b5f805f3373ffffffffffffffffffffffffffffffffffffffff1673ffffffffffffffffffffffffffffffffffffffff1681526020019081526020015f2090505f73ffffffffffffffffffffffffffffffffffffffff16815f015f9054906101000a900473ffffffffffffffffffffffffffffffffffffffff1673ffffffffffffffffffffffffffffffffffffffff16036106c1576040517f08c379a00000000000000000000000000000000000000000000000000000000081526004016106b8906120a1565b60405180910390fd5b838160020190816106d2919061225c565b50828160030190816106e4919061225c565b50818160040190816106f6919061225c565b5050505050565b5f60015f9054906101000a900473ffffffffffffffffffffffffffffffffffffffff1673ffffffffffffffffffffffffffffffffffffffff163373ffffffffffffffffffffffffffffffffffffffff161461078d576040517f08c379a000000000000000000000000000000000000000000000000000000000815260040161078490612039565b60405180910390fd5b8173ffffffffffffffffffffffffffffffffffffffff165f808473ffffffffffffffffffffffffffffffffffffffff1673ffffffffffffffffffffffffffffffffffffffff1681526020019081526020015f205f015f9054906101000a900473ffffffffffffffffffffffffffffffffffffffff1673ffffffffffffffffffffffffffffffffffffffff16149050919050565b60608060608060608060605f805f8a73ffffffffffffffffffffffffffffffffffffffff1673ffffffffffffffffffffffffffffffffffffffff1681526020019081526020015f206005018054806020026020016040519081016040528092919081815260200182805480156108b357602002820191905f5260205f20905b81548152602001906001019080831161089f575b50505050509050805167ffffffffffffffff8111156108d5576108d46116e5565b5b60405190808252806020026020018201604052801561090857816020015b60608152602001906001900390816108f35790505b509750805167ffffffffffffffff811115610926576109256116e5565b5b60405190808252806020026020018201604052801561095957816020015b60608152602001906001900390816109445790505b509650805167ffffffffffffffff811115610977576109766116e5565b5b6040519080825280602002602001820160405280156109a55781602001602082028036833780820191505090505b509550805167ffffffffffffffff8111156109c3576109c26116e5565b5b6040519080825280602002602001820160405280156109f15781602001602082028036833780820191505090505b509450805167ffffffffffffffff811115610a0f57610a0e6116e5565b5b604051908082528060200260200182016040528015610a3d5781602001602082028036833780820191505090505b509350805167ffffffffffffffff811115610a5b57610a5a6116e5565b5b604051908082528060200260200182016040528015610a8e57816020015b6060815260200190600190039081610a795790505b509250805167ffffffffffffffff811115610aac57610aab6116e5565b5b604051908082528060200260200182016040528015610adf57816020015b6060815260200190600190039081610aca5790505b5091505f5b8151811015610cb15760025f9054906101000a900473ffffffffffffffffffffffffffffffffffffffff1673ffffffffffffffffffffffffffffffffffffffff1663d993de62838381518110610b3d57610b3c61232b565b5b60200260200101516040518263ffffffff1660e01b8152600401610b619190612358565b5f60405180830381865afa158015610b7b573d5f803e3d5ffd5b505050506040513d5f823e3d601f19601f82011682018060405250810190610ba391906124cb565b8f8881518110610bb657610bb561232b565b5b602002602001018f8981518110610bd057610bcf61232b565b5b602002602001018f8a81518110610bea57610be961232b565b5b602002602001018f8b81518110610c0457610c0361232b565b5b602002602001018f8c81518110610c1e57610c1d61232b565b5b602002602001018f8d81518110610c3857610c3761232b565b5b602002602001018f8e81518110610c5257610c5161232b565b5b6020026020010187905287905287815250878152508773ffffffffffffffffffffffffffffffffffffffff1673ffffffffffffffffffffffffffffffffffffffff16815250879052879052505050505050508080600101915050610ae4565b5050919395979092949650565b5f73ffffffffffffffffffffffffffffffffffffffff165f803373ffffffffffffffffffffffffffffffffffffffff1673ffffffffffffffffffffffffffffffffffffffff1681526020019081526020015f205f015f9054906101000a900473ffffffffffffffffffffffffffffffffffffffff1673ffffffffffffffffffffffffffffffffffffffff1614610d89576040517f08c379a0000000000000000000000000000000000000000000000000000000008152600401610d8090612622565b60405180910390fd5b60606040518060e001604052803373ffffffffffffffffffffffffffffffffffffffff168152602001866002811115610dc557610dc4611506565b5b8152602001428152602001858152602001848152602001838152602001828152505f803373ffffffffffffffffffffffffffffffffffffffff1673ffffffffffffffffffffffffffffffffffffffff1681526020019081526020015f205f820151815f015f6101000a81548173ffffffffffffffffffffffffffffffffffffffff021916908373ffffffffffffffffffffffffffffffffffffffff1602179055506020820151815f0160146101000a81548160ff02191690836002811115610e9057610e8f611506565b5b0217905550604082015181600101556060820151816002019081610eb4919061225c565b506080820151816003019081610eca919061225c565b5060a0820151816004019081610ee0919061225c565b5060c0820151816005019080519060200190610efd929190611399565b509050505050505050565b60015f9054906101000a900473ffffffffffffffffffffffffffffffffffffffff1681565b5f60015f9054906101000a900473ffffffffffffffffffffffffffffffffffffffff1673ffffffffffffffffffffffffffffffffffffffff163373ffffffffffffffffffffffffffffffffffffffff1614610fbd576040517f08c379a0000000000000000000000000000000000000000000000000000000008152600401610fb490612039565b60405180910390fd5b5f73ffffffffffffffffffffffffffffffffffffffff165f808473ffffffffffffffffffffffffffffffffffffffff1673ffffffffffffffffffffffffffffffffffffffff1681526020019081526020015f205f015f9054906101000a900473ffffffffffffffffffffffffffffffffffffffff1673ffffffffffffffffffffffffffffffffffffffff1614159050919050565b6110596113e4565b5f808373ffffffffffffffffffffffffffffffffffffffff1673ffffffffffffffffffffffffffffffffffffffff1681526020019081526020015f206040518060e00160405290815f82015f9054906101000a900473ffffffffffffffffffffffffffffffffffffffff1673ffffffffffffffffffffffffffffffffffffffff1673ffffffffffffffffffffffffffffffffffffffff1681526020015f820160149054906101000a900460ff16600281111561111857611117611506565b5b600281111561112a57611129611506565b5b81526020016001820154815260200160028201805461114890611f99565b80601f016020809104026020016040519081016040528092919081815260200182805461117490611f99565b80156111bf5780601f10611196576101008083540402835291602001916111bf565b820191905f5260205f20905b8154815290600101906020018083116111a257829003601f168201915b505050505081526020016003820180546111d890611f99565b80601f016020809104026020016040519081016040528092919081815260200182805461120490611f99565b801561124f5780601f106112265761010080835404028352916020019161124f565b820191905f5260205f20905b81548152906001019060200180831161123257829003601f168201915b5050505050815260200160048201805461126890611f99565b80601f016020809104026020016040519081016040528092919081815260200182805461129490611f99565b80156112df5780601f106112b6576101008083540402835291602001916112df565b820191905f5260205f20905b8154815290600101906020018083116112c257829003601f168201915b505050505081526020016005820180548060200260200160405190810160405280929190818152602001828054801561133557602002820191905f5260205f20905b815481526020019060010190808311611321575b5050505050815250509050919050565b5f805f8373ffffffffffffffffffffffffffffffffffffffff1673ffffffffffffffffffffffffffffffffffffffff1681526020019081526020015f205f0160149054906101000a900460ff169050919050565b828054828255905f5260205f209081019282156113d3579160200282015b828111156113d25782518255916020019190600101906113b7565b5b5090506113e09190611446565b5090565b6040518060e001604052805f73ffffffffffffffffffffffffffffffffffffffff1681526020015f600281111561141e5761141d611506565b5b81526020015f8152602001606081526020016060815260200160608152602001606081525090565b5b8082111561145d575f815f905550600101611447565b5090565b5f604051905090565b5f80fd5b5f80fd5b5f73ffffffffffffffffffffffffffffffffffffffff82169050919050565b5f61149b82611472565b9050919050565b6114ab81611491565b81146114b5575f80fd5b50565b5f813590506114c6816114a2565b92915050565b5f602082840312156114e1576114e061146a565b5b5f6114ee848285016114b8565b91505092915050565b61150081611491565b82525050565b7f4e487b71000000000000000000000000000000000000000000000000000000005f52602160045260245ffd5b6003811061154457611543611506565b5b50565b5f81905061155482611533565b919050565b5f61156382611547565b9050919050565b61157381611559565b82525050565b5f819050919050565b61158b81611579565b82525050565b5f81519050919050565b5f82825260208201905092915050565b8281835e5f83830152505050565b5f601f19601f8301169050919050565b5f6115d382611591565b6115dd818561159b565b93506115ed8185602086016115ab565b6115f6816115b9565b840191505092915050565b5f60c0820190506116145f8301896114f7565b611621602083018861156a565b61162e6040830187611582565b818103606083015261164081866115c9565b9050818103608083015261165481856115c9565b905081810360a083015261166881846115c9565b9050979650505050505050565b61167e81611579565b8114611688575f80fd5b50565b5f8135905061169981611675565b92915050565b5f80604083850312156116b5576116b461146a565b5b5f6116c2858286016114b8565b92505060206116d38582860161168b565b9150509250929050565b5f80fd5b5f80fd5b7f4e487b71000000000000000000000000000000000000000000000000000000005f52604160045260245ffd5b61171b826115b9565b810181811067ffffffffffffffff8211171561173a576117396116e5565b5b80604052505050565b5f61174c611461565b90506117588282611712565b919050565b5f67ffffffffffffffff821115611777576117766116e5565b5b611780826115b9565b9050602081019050919050565b828183375f83830152505050565b5f6117ad6117a88461175d565b611743565b9050828152602081018484840111156117c9576117c86116e1565b5b6117d484828561178d565b509392505050565b5f82601f8301126117f0576117ef6116dd565b5b813561180084826020860161179b565b91505092915050565b5f805f606084860312156118205761181f61146a565b5b5f84013567ffffffffffffffff81111561183d5761183c61146e565b5b611849868287016117dc565b935050602084013567ffffffffffffffff81111561186a5761186961146e565b5b611876868287016117dc565b925050604084013567ffffffffffffffff8111156118975761189661146e565b5b6118a3868287016117dc565b9150509250925092565b5f8115159050919050565b6118c1816118ad565b82525050565b5f6020820190506118da5f8301846118b8565b92915050565b5f81519050919050565b5f82825260208201905092915050565b5f819050602082019050919050565b5f82825260208201905092915050565b5f61192382611591565b61192d8185611909565b935061193d8185602086016115ab565b611946816115b9565b840191505092915050565b5f61195c8383611919565b905092915050565b5f602082019050919050565b5f61197a826118e0565b61198481856118ea565b935083602082028501611996856118fa565b805f5b858110156119d157848403895281516119b28582611951565b94506119bd83611964565b925060208a01995050600181019050611999565b50829750879550505050505092915050565b5f81519050919050565b5f82825260208201905092915050565b5f819050602082019050919050565b611a1581611491565b82525050565b5f611a268383611a0c565b60208301905092915050565b5f602082019050919050565b5f611a48826119e3565b611a5281856119ed565b9350611a5d836119fd565b805f5b83811015611a8d578151611a748882611a1b565b9750611a7f83611a32565b925050600181019050611a60565b5085935050505092915050565b5f81519050919050565b5f82825260208201905092915050565b5f819050602082019050919050565b611acc81611579565b82525050565b5f611add8383611ac3565b60208301905092915050565b5f602082019050919050565b5f611aff82611a9a565b611b098185611aa4565b9350611b1483611ab4565b805f5b83811015611b44578151611b2b8882611ad2565b9750611b3683611ae9565b925050600181019050611b17565b5085935050505092915050565b5f81519050919050565b5f82825260208201905092915050565b5f819050602082019050919050565b5f82825260208201905092915050565b5f611b94826119e3565b611b9e8185611b7a565b9350611ba9836119fd565b805f5b83811015611bd9578151611bc08882611a1b565b9750611bcb83611a32565b925050600181019050611bac565b5085935050505092915050565b5f611bf18383611b8a565b905092915050565b5f602082019050919050565b5f611c0f82611b51565b611c198185611b5b565b935083602082028501611c2b85611b6b565b805f5b85811015611c665784840389528151611c478582611be6565b9450611c5283611bf9565b925060208a01995050600181019050611c2e565b50829750879550505050505092915050565b5f60e0820190508181035f830152611c90818a611970565b90508181036020830152611ca48189611970565b90508181036040830152611cb88188611a3e565b90508181036060830152611ccc8187611af5565b90508181036080830152611ce08186611af5565b905081810360a0830152611cf48185611970565b905081810360c0830152611d088184611c05565b905098975050505050505050565b60038110611d22575f80fd5b50565b5f81359050611d3381611d16565b92915050565b5f805f8060808587031215611d5157611d5061146a565b5b5f611d5e87828801611d25565b945050602085013567ffffffffffffffff811115611d7f57611d7e61146e565b5b611d8b878288016117dc565b935050604085013567ffffffffffffffff811115611dac57611dab61146e565b5b611db8878288016117dc565b925050606085013567ffffffffffffffff811115611dd957611dd861146e565b5b611de5878288016117dc565b91505092959194509250565b5f602082019050611e045f8301846114f7565b92915050565b611e1381611559565b82525050565b5f82825260208201905092915050565b5f611e3382611a9a565b611e3d8185611e19565b9350611e4883611ab4565b805f5b83811015611e78578151611e5f8882611ad2565b9750611e6a83611ae9565b925050600181019050611e4b565b5085935050505092915050565b5f60e083015f830151611e9a5f860182611a0c565b506020830151611ead6020860182611e0a565b506040830151611ec06040860182611ac3565b5060608301518482036060860152611ed88282611919565b91505060808301518482036080860152611ef28282611919565b91505060a083015184820360a0860152611f0c8282611919565b91505060c083015184820360c0860152611f268282611e29565b9150508091505092915050565b5f6020820190508181035f830152611f4b8184611e85565b905092915050565b5f602082019050611f665f83018461156a565b92915050565b7f4e487b71000000000000000000000000000000000000000000000000000000005f52602260045260245ffd5b5f6002820490506001821680611fb057607f821691505b602082108103611fc357611fc2611f6c565b5b50919050565b7f4f6e6c7920446f6e6174696f6e7320636f6e74726163742063616e2063616c6c5f8201527f20746869732066756e6374696f6e2e0000000000000000000000000000000000602082015250565b5f612023602f8361159b565b915061202e82611fc9565b604082019050919050565b5f6020820190508181035f83015261205081612017565b9050919050565b7f4f776e65722070726f66696c6520646f6573206e6f742065786973742e0000005f82015250565b5f61208b601d8361159b565b915061209682612057565b602082019050919050565b5f6020820190508181035f8301526120b88161207f565b9050919050565b5f819050815f5260205f209050919050565b5f6020601f8301049050919050565b5f82821b905092915050565b5f6008830261211b7fffffffffffffffffffffffffffffffffffffffffffffffffffffffffffffffff826120e0565b61212586836120e0565b95508019841693508086168417925050509392505050565b5f819050919050565b5f61216061215b61215684611579565b61213d565b611579565b9050919050565b5f819050919050565b61217983612146565b61218d61218582612167565b8484546120ec565b825550505050565b5f90565b6121a1612195565b6121ac818484612170565b505050565b5b818110156121cf576121c45f82612199565b6001810190506121b2565b5050565b601f821115612214576121e5816120bf565b6121ee846120d1565b810160208510156121fd578190505b612211612209856120d1565b8301826121b1565b50505b505050565b5f82821c905092915050565b5f6122345f1984600802612219565b1980831691505092915050565b5f61224c8383612225565b9150826002028217905092915050565b61226582611591565b67ffffffffffffffff81111561227e5761227d6116e5565b5b6122888254611f99565b6122938282856121d3565b5f60209050601f8311600181146122c4575f84156122b2578287015190505b6122bc8582612241565b865550612323565b601f1984166122d2866120bf565b5f5b828110156122f9578489015182556001820191506020850194506020810190506122d4565b868310156123165784890151612312601f891682612225565b8355505b6001600288020188555050505b505050505050565b7f4e487b71000000000000000000000000000000000000000000000000000000005f52603260045260245ffd5b5f60208201905061236b5f830184611582565b92915050565b5f61238361237e8461175d565b611743565b90508281526020810184848401111561239f5761239e6116e1565b5b6123aa8482856115ab565b509392505050565b5f82601f8301126123c6576123c56116dd565b5b81516123d6848260208601612371565b91505092915050565b5f815190506123ed816114a2565b92915050565b5f8151905061240181611675565b92915050565b5f67ffffffffffffffff821115612421576124206116e5565b5b602082029050602081019050919050565b5f80fd5b5f61244861244384612407565b611743565b9050808382526020820190506020840283018581111561246b5761246a612432565b5b835b81811015612494578061248088826123df565b84526020840193505060208101905061246d565b5050509392505050565b5f82601f8301126124b2576124b16116dd565b5b81516124c2848260208601612436565b91505092915050565b5f805f805f805f60e0888a0312156124e6576124e561146a565b5b5f88015167ffffffffffffffff8111156125035761250261146e565b5b61250f8a828b016123b2565b975050602088015167ffffffffffffffff8111156125305761252f61146e565b5b61253c8a828b016123b2565b965050604061254d8a828b016123df565b955050606061255e8a828b016123f3565b945050608061256f8a828b016123f3565b93505060a088015167ffffffffffffffff8111156125905761258f61146e565b5b61259c8a828b016123b2565b92505060c088015167ffffffffffffffff8111156125bd576125bc61146e565b5b6125c98a828b0161249e565b91505092959891949750929550565b7f4f776e65722070726f66696c6520616c7265616479206578697374732e0000005f82015250565b5f61260c601d8361159b565b9150612617826125d8565b602082019050919050565b5f6020820190508181035f83015261263981612600565b905091905056fea264697066735822122050bd67afa03f2565ac1d8eb36d340f672c54702344f7d8bd553fba86abdc24e264736f6c634300081a0033",
					"opcodes": "PUSH1 0x80 PUSH1 0x40 MSTORE CALLVALUE DUP1 ISZERO PUSH2 0xF JUMPI PUSH0 DUP1 REVERT JUMPDEST POP PUSH1 0x40 MLOAD PUSH2 0x27C3 CODESIZE SUB DUP1 PUSH2 0x27C3 DUP4 CODECOPY DUP2 DUP2 ADD PUSH1 0x40 MSTORE DUP2 ADD SWAP1 PUSH2 0x31 SWAP2 SWAP1 PUSH2 0x115 JUMP JUMPDEST DUP1 PUSH1 0x1 PUSH0 PUSH2 0x100 EXP DUP2 SLOAD DUP2 PUSH20 0xFFFFFFFFFFFFFFFFFFFFFFFFFFFFFFFFFFFFFFFF MUL NOT AND SWAP1 DUP4 PUSH20 0xFFFFFFFFFFFFFFFFFFFFFFFFFFFFFFFFFFFFFFFF AND MUL OR SWAP1 SSTORE POP DUP1 PUSH1 0x2 PUSH0 PUSH2 0x100 EXP DUP2 SLOAD DUP2 PUSH20 0xFFFFFFFFFFFFFFFFFFFFFFFFFFFFFFFFFFFFFFFF MUL NOT AND SWAP1 DUP4 PUSH20 0xFFFFFFFFFFFFFFFFFFFFFFFFFFFFFFFFFFFFFFFF AND MUL OR SWAP1 SSTORE POP POP PUSH2 0x140 JUMP JUMPDEST PUSH0 DUP1 REVERT JUMPDEST PUSH0 PUSH20 0xFFFFFFFFFFFFFFFFFFFFFFFFFFFFFFFFFFFFFFFF DUP3 AND SWAP1 POP SWAP2 SWAP1 POP JUMP JUMPDEST PUSH0 PUSH2 0xE4 DUP3 PUSH2 0xBB JUMP JUMPDEST SWAP1 POP SWAP2 SWAP1 POP JUMP JUMPDEST PUSH2 0xF4 DUP2 PUSH2 0xDA JUMP JUMPDEST DUP2 EQ PUSH2 0xFE JUMPI PUSH0 DUP1 REVERT JUMPDEST POP JUMP JUMPDEST PUSH0 DUP2 MLOAD SWAP1 POP PUSH2 0x10F DUP2 PUSH2 0xEB JUMP JUMPDEST SWAP3 SWAP2 POP POP JUMP JUMPDEST PUSH0 PUSH1 0x20 DUP3 DUP5 SUB SLT ISZERO PUSH2 0x12A JUMPI PUSH2 0x129 PUSH2 0xB7 JUMP JUMPDEST JUMPDEST PUSH0 PUSH2 0x137 DUP5 DUP3 DUP6 ADD PUSH2 0x101 JUMP JUMPDEST SWAP2 POP POP SWAP3 SWAP2 POP POP JUMP JUMPDEST PUSH2 0x2676 DUP1 PUSH2 0x14D PUSH0 CODECOPY PUSH0 RETURN INVALID PUSH1 0x80 PUSH1 0x40 MSTORE CALLVALUE DUP1 ISZERO PUSH2 0xF JUMPI PUSH0 DUP1 REVERT JUMPDEST POP PUSH1 0x4 CALLDATASIZE LT PUSH2 0x9C JUMPI PUSH0 CALLDATALOAD PUSH1 0xE0 SHR DUP1 PUSH4 0x1AFD3E8D GT PUSH2 0x64 JUMPI DUP1 PUSH4 0x1AFD3E8D EQ PUSH2 0x173 JUMPI DUP1 PUSH4 0x35F85C5A EQ PUSH2 0x18F JUMPI DUP1 PUSH4 0xABAF78D4 EQ PUSH2 0x1AD JUMPI DUP1 PUSH4 0xC3BB8121 EQ PUSH2 0x1DD JUMPI DUP1 PUSH4 0xF5110205 EQ PUSH2 0x20D JUMPI PUSH2 0x9C JUMP JUMPDEST DUP1 PUSH4 0x22914A7 EQ PUSH2 0xA0 JUMPI DUP1 PUSH4 0x3D7A671 EQ PUSH2 0xD5 JUMPI DUP1 PUSH4 0x9261A9E EQ PUSH2 0xF1 JUMPI DUP1 PUSH4 0x13C876A2 EQ PUSH2 0x10D JUMPI DUP1 PUSH4 0x1693BFA1 EQ PUSH2 0x13D JUMPI JUMPDEST PUSH0 DUP1 REVERT JUMPDEST PUSH2 0xBA PUSH1 0x4 DUP1 CALLDATASIZE SUB DUP2 ADD SWAP1 PUSH2 0xB5 SWAP2 SWAP1 PUSH2 0x14CC JUMP JUMPDEST PUSH2 0x23D JUMP JUMPDEST PUSH1 0x40 MLOAD PUSH2 0xCC SWAP7 SWAP6 SWAP5 SWAP4 SWAP3 SWAP2 SWAP1 PUSH2 0x1601 JUMP JUMPDEST PUSH1 0x40 MLOAD DUP1 SWAP2 SUB SWAP1 RETURN JUMPDEST PUSH2 0xEF PUSH1 0x4 DUP1 CALLDATASIZE SUB DUP2 ADD SWAP1 PUSH2 0xEA SWAP2 SWAP1 PUSH2 0x169F JUMP JUMPDEST PUSH2 0x431 JUMP JUMPDEST STOP JUMPDEST PUSH2 0x10B PUSH1 0x4 DUP1 CALLDATASIZE SUB DUP2 ADD SWAP1 PUSH2 0x106 SWAP2 SWAP1 PUSH2 0x1809 JUMP JUMPDEST PUSH2 0x5F2 JUMP JUMPDEST STOP JUMPDEST PUSH2 0x127 PUSH1 0x4 DUP1 CALLDATASIZE SUB DUP2 ADD SWAP1 PUSH2 0x122 SWAP2 SWAP1 PUSH2 0x14CC JUMP JUMPDEST PUSH2 0x6FD JUMP JUMPDEST PUSH1 0x40 MLOAD PUSH2 0x134 SWAP2 SWAP1 PUSH2 0x18C7 JUMP JUMPDEST PUSH1 0x40 MLOAD DUP1 SWAP2 SUB SWAP1 RETURN JUMPDEST PUSH2 0x157 PUSH1 0x4 DUP1 CALLDATASIZE SUB DUP2 ADD SWAP1 PUSH2 0x152 SWAP2 SWAP1 PUSH2 0x14CC JUMP JUMPDEST PUSH2 0x820 JUMP JUMPDEST PUSH1 0x40 MLOAD PUSH2 0x16A SWAP8 SWAP7 SWAP6 SWAP5 SWAP4 SWAP3 SWAP2 SWAP1 PUSH2 0x1C78 JUMP JUMPDEST PUSH1 0x40 MLOAD DUP1 SWAP2 SUB SWAP1 RETURN JUMPDEST PUSH2 0x18D PUSH1 0x4 DUP1 CALLDATASIZE SUB DUP2 ADD SWAP1 PUSH2 0x188 SWAP2 SWAP1 PUSH2 0x1D39 JUMP JUMPDEST PUSH2 0xCBE JUMP JUMPDEST STOP JUMPDEST PUSH2 0x197 PUSH2 0xF08 JUMP JUMPDEST PUSH1 0x40 MLOAD PUSH2 0x1A4 SWAP2 SWAP1 PUSH2 0x1DF1 JUMP JUMPDEST PUSH1 0x40 MLOAD DUP1 SWAP2 SUB SWAP1 RETURN JUMPDEST PUSH2 0x1C7 PUSH1 0x4 DUP1 CALLDATASIZE SUB DUP2 ADD SWAP1 PUSH2 0x1C2 SWAP2 SWAP1 PUSH2 0x14CC JUMP JUMPDEST PUSH2 0xF2D JUMP JUMPDEST PUSH1 0x40 MLOAD PUSH2 0x1D4 SWAP2 SWAP1 PUSH2 0x18C7 JUMP JUMPDEST PUSH1 0x40 MLOAD DUP1 SWAP2 SUB SWAP1 RETURN JUMPDEST PUSH2 0x1F7 PUSH1 0x4 DUP1 CALLDATASIZE SUB DUP2 ADD SWAP1 PUSH2 0x1F2 SWAP2 SWAP1 PUSH2 0x14CC JUMP JUMPDEST PUSH2 0x1051 JUMP JUMPDEST PUSH1 0x40 MLOAD PUSH2 0x204 SWAP2 SWAP1 PUSH2 0x1F33 JUMP JUMPDEST PUSH1 0x40 MLOAD DUP1 SWAP2 SUB SWAP1 RETURN JUMPDEST PUSH2 0x227 PUSH1 0x4 DUP1 CALLDATASIZE SUB DUP2 ADD SWAP1 PUSH2 0x222 SWAP2 SWAP1 PUSH2 0x14CC JUMP JUMPDEST PUSH2 0x1345 JUMP JUMPDEST PUSH1 0x40 MLOAD PUSH2 0x234 SWAP2 SWAP1 PUSH2 0x1F53 JUMP JUMPDEST PUSH1 0x40 MLOAD DUP1 SWAP2 SUB SWAP1 RETURN JUMPDEST PUSH0 PUSH1 0x20 MSTORE DUP1 PUSH0 MSTORE PUSH1 0x40 PUSH0 KECCAK256 PUSH0 SWAP2 POP SWAP1 POP DUP1 PUSH0 ADD PUSH0 SWAP1 SLOAD SWAP1 PUSH2 0x100 EXP SWAP1 DIV PUSH20 0xFFFFFFFFFFFFFFFFFFFFFFFFFFFFFFFFFFFFFFFF AND SWAP1 DUP1 PUSH0 ADD PUSH1 0x14 SWAP1 SLOAD SWAP1 PUSH2 0x100 EXP SWAP1 DIV PUSH1 0xFF AND SWAP1 DUP1 PUSH1 0x1 ADD SLOAD SWAP1 DUP1 PUSH1 0x2 ADD DUP1 SLOAD PUSH2 0x298 SWAP1 PUSH2 0x1F99 JUMP JUMPDEST DUP1 PUSH1 0x1F ADD PUSH1 0x20 DUP1 SWAP2 DIV MUL PUSH1 0x20 ADD PUSH1 0x40 MLOAD SWAP1 DUP2 ADD PUSH1 0x40 MSTORE DUP1 SWAP3 SWAP2 SWAP1 DUP2 DUP2 MSTORE PUSH1 0x20 ADD DUP3 DUP1 SLOAD PUSH2 0x2C4 SWAP1 PUSH2 0x1F99 JUMP JUMPDEST DUP1 ISZERO PUSH2 0x30F JUMPI DUP1 PUSH1 0x1F LT PUSH2 0x2E6 JUMPI PUSH2 0x100 DUP1 DUP4 SLOAD DIV MUL DUP4 MSTORE SWAP2 PUSH1 0x20 ADD SWAP2 PUSH2 0x30F JUMP JUMPDEST DUP3 ADD SWAP2 SWAP1 PUSH0 MSTORE PUSH1 0x20 PUSH0 KECCAK256 SWAP1 JUMPDEST DUP2 SLOAD DUP2 MSTORE SWAP1 PUSH1 0x1 ADD SWAP1 PUSH1 0x20 ADD DUP1 DUP4 GT PUSH2 0x2F2 JUMPI DUP3 SWAP1 SUB PUSH1 0x1F AND DUP3 ADD SWAP2 JUMPDEST POP POP POP POP POP SWAP1 DUP1 PUSH1 0x3 ADD DUP1 SLOAD PUSH2 0x324 SWAP1 PUSH2 0x1F99 JUMP JUMPDEST DUP1 PUSH1 0x1F ADD PUSH1 0x20 DUP1 SWAP2 DIV MUL PUSH1 0x20 ADD PUSH1 0x40 MLOAD SWAP1 DUP2 ADD PUSH1 0x40 MSTORE DUP1 SWAP3 SWAP2 SWAP1 DUP2 DUP2 MSTORE PUSH1 0x20 ADD DUP3 DUP1 SLOAD PUSH2 0x350 SWAP1 PUSH2 0x1F99 JUMP JUMPDEST DUP1 ISZERO PUSH2 0x39B JUMPI DUP1 PUSH1 0x1F LT PUSH2 0x372 JUMPI PUSH2 0x100 DUP1 DUP4 SLOAD DIV MUL DUP4 MSTORE SWAP2 PUSH1 0x20 ADD SWAP2 PUSH2 0x39B JUMP JUMPDEST DUP3 ADD SWAP2 SWAP1 PUSH0 MSTORE PUSH1 0x20 PUSH0 KECCAK256 SWAP1 JUMPDEST DUP2 SLOAD DUP2 MSTORE SWAP1 PUSH1 0x1 ADD SWAP1 PUSH1 0x20 ADD DUP1 DUP4 GT PUSH2 0x37E JUMPI DUP3 SWAP1 SUB PUSH1 0x1F AND DUP3 ADD SWAP2 JUMPDEST POP POP POP POP POP SWAP1 DUP1 PUSH1 0x4 ADD DUP1 SLOAD PUSH2 0x3B0 SWAP1 PUSH2 0x1F99 JUMP JUMPDEST DUP1 PUSH1 0x1F ADD PUSH1 0x20 DUP1 SWAP2 DIV MUL PUSH1 0x20 ADD PUSH1 0x40 MLOAD SWAP1 DUP2 ADD PUSH1 0x40 MSTORE DUP1 SWAP3 SWAP2 SWAP1 DUP2 DUP2 MSTORE PUSH1 0x20 ADD DUP3 DUP1 SLOAD PUSH2 0x3DC SWAP1 PUSH2 0x1F99 JUMP JUMPDEST DUP1 ISZERO PUSH2 0x427 JUMPI DUP1 PUSH1 0x1F LT PUSH2 0x3FE JUMPI PUSH2 0x100 DUP1 DUP4 SLOAD DIV MUL DUP4 MSTORE SWAP2 PUSH1 0x20 ADD SWAP2 PUSH2 0x427 JUMP JUMPDEST DUP3 ADD SWAP2 SWAP1 PUSH0 MSTORE PUSH1 0x20 PUSH0 KECCAK256 SWAP1 JUMPDEST DUP2 SLOAD DUP2 MSTORE SWAP1 PUSH1 0x1 ADD SWAP1 PUSH1 0x20 ADD DUP1 DUP4 GT PUSH2 0x40A JUMPI DUP3 SWAP1 SUB PUSH1 0x1F AND DUP3 ADD SWAP2 JUMPDEST POP POP POP POP POP SWAP1 POP DUP7 JUMP JUMPDEST PUSH1 0x1 PUSH0 SWAP1 SLOAD SWAP1 PUSH2 0x100 EXP SWAP1 DIV PUSH20 0xFFFFFFFFFFFFFFFFFFFFFFFFFFFFFFFFFFFFFFFF AND PUSH20 0xFFFFFFFFFFFFFFFFFFFFFFFFFFFFFFFFFFFFFFFF AND CALLER PUSH20 0xFFFFFFFFFFFFFFFFFFFFFFFFFFFFFFFFFFFFFFFF AND EQ PUSH2 0x4C0 JUMPI PUSH1 0x40 MLOAD PUSH32 0x8C379A000000000000000000000000000000000000000000000000000000000 DUP2 MSTORE PUSH1 0x4 ADD PUSH2 0x4B7 SWAP1 PUSH2 0x2039 JUMP JUMPDEST PUSH1 0x40 MLOAD DUP1 SWAP2 SUB SWAP1 REVERT JUMPDEST PUSH0 PUSH20 0xFFFFFFFFFFFFFFFFFFFFFFFFFFFFFFFFFFFFFFFF AND PUSH0 DUP1 DUP5 PUSH20 0xFFFFFFFFFFFFFFFFFFFFFFFFFFFFFFFFFFFFFFFF AND PUSH20 0xFFFFFFFFFFFFFFFFFFFFFFFFFFFFFFFFFFFFFFFF AND DUP2 MSTORE PUSH1 0x20 ADD SWAP1 DUP2 MSTORE PUSH1 0x20 ADD PUSH0 KECCAK256 PUSH0 ADD PUSH0 SWAP1 SLOAD SWAP1 PUSH2 0x100 EXP SWAP1 DIV PUSH20 0xFFFFFFFFFFFFFFFFFFFFFFFFFFFFFFFFFFFFFFFF AND PUSH20 0xFFFFFFFFFFFFFFFFFFFFFFFFFFFFFFFFFFFFFFFF AND SUB PUSH2 0x58B JUMPI PUSH1 0x40 MLOAD PUSH32 0x8C379A000000000000000000000000000000000000000000000000000000000 DUP2 MSTORE PUSH1 0x4 ADD PUSH2 0x582 SWAP1 PUSH2 0x20A1 JUMP JUMPDEST PUSH1 0x40 MLOAD DUP1 SWAP2 SUB SWAP1 REVERT JUMPDEST PUSH0 DUP1 DUP4 PUSH20 0xFFFFFFFFFFFFFFFFFFFFFFFFFFFFFFFFFFFFFFFF AND PUSH20 0xFFFFFFFFFFFFFFFFFFFFFFFFFFFFFFFFFFFFFFFF AND DUP2 MSTORE PUSH1 0x20 ADD SWAP1 DUP2 MSTORE PUSH1 0x20 ADD PUSH0 KECCAK256 PUSH1 0x5 ADD DUP2 SWAP1 DUP1 PUSH1 0x1 DUP2 SLOAD ADD DUP1 DUP3 SSTORE DUP1 SWAP2 POP POP PUSH1 0x1 SWAP1 SUB SWAP1 PUSH0 MSTORE PUSH1 0x20 PUSH0 KECCAK256 ADD PUSH0 SWAP1 SWAP2 SWAP1 SWAP2 SWAP1 SWAP2 POP SSTORE POP POP JUMP JUMPDEST PUSH0 DUP1 PUSH0 CALLER PUSH20 0xFFFFFFFFFFFFFFFFFFFFFFFFFFFFFFFFFFFFFFFF AND PUSH20 0xFFFFFFFFFFFFFFFFFFFFFFFFFFFFFFFFFFFFFFFF AND DUP2 MSTORE PUSH1 0x20 ADD SWAP1 DUP2 MSTORE PUSH1 0x20 ADD PUSH0 KECCAK256 SWAP1 POP PUSH0 PUSH20 0xFFFFFFFFFFFFFFFFFFFFFFFFFFFFFFFFFFFFFFFF AND DUP2 PUSH0 ADD PUSH0 SWAP1 SLOAD SWAP1 PUSH2 0x100 EXP SWAP1 DIV PUSH20 0xFFFFFFFFFFFFFFFFFFFFFFFFFFFFFFFFFFFFFFFF AND PUSH20 0xFFFFFFFFFFFFFFFFFFFFFFFFFFFFFFFFFFFFFFFF AND SUB PUSH2 0x6C1 JUMPI PUSH1 0x40 MLOAD PUSH32 0x8C379A000000000000000000000000000000000000000000000000000000000 DUP2 MSTORE PUSH1 0x4 ADD PUSH2 0x6B8 SWAP1 PUSH2 0x20A1 JUMP JUMPDEST PUSH1 0x40 MLOAD DUP1 SWAP2 SUB SWAP1 REVERT JUMPDEST DUP4 DUP2 PUSH1 0x2 ADD SWAP1 DUP2 PUSH2 0x6D2 SWAP2 SWAP1 PUSH2 0x225C JUMP JUMPDEST POP DUP3 DUP2 PUSH1 0x3 ADD SWAP1 DUP2 PUSH2 0x6E4 SWAP2 SWAP1 PUSH2 0x225C JUMP JUMPDEST POP DUP2 DUP2 PUSH1 0x4 ADD SWAP1 DUP2 PUSH2 0x6F6 SWAP2 SWAP1 PUSH2 0x225C JUMP JUMPDEST POP POP POP POP POP JUMP JUMPDEST PUSH0 PUSH1 0x1 PUSH0 SWAP1 SLOAD SWAP1 PUSH2 0x100 EXP SWAP1 DIV PUSH20 0xFFFFFFFFFFFFFFFFFFFFFFFFFFFFFFFFFFFFFFFF AND PUSH20 0xFFFFFFFFFFFFFFFFFFFFFFFFFFFFFFFFFFFFFFFF AND CALLER PUSH20 0xFFFFFFFFFFFFFFFFFFFFFFFFFFFFFFFFFFFFFFFF AND EQ PUSH2 0x78D JUMPI PUSH1 0x40 MLOAD PUSH32 0x8C379A000000000000000000000000000000000000000000000000000000000 DUP2 MSTORE PUSH1 0x4 ADD PUSH2 0x784 SWAP1 PUSH2 0x2039 JUMP JUMPDEST PUSH1 0x40 MLOAD DUP1 SWAP2 SUB SWAP1 REVERT JUMPDEST DUP2 PUSH20 0xFFFFFFFFFFFFFFFFFFFFFFFFFFFFFFFFFFFFFFFF AND PUSH0 DUP1 DUP5 PUSH20 0xFFFFFFFFFFFFFFFFFFFFFFFFFFFFFFFFFFFFFFFF AND PUSH20 0xFFFFFFFFFFFFFFFFFFFFFFFFFFFFFFFFFFFFFFFF AND DUP2 MSTORE PUSH1 0x20 ADD SWAP1 DUP2 MSTORE PUSH1 0x20 ADD PUSH0 KECCAK256 PUSH0 ADD PUSH0 SWAP1 SLOAD SWAP1 PUSH2 0x100 EXP SWAP1 DIV PUSH20 0xFFFFFFFFFFFFFFFFFFFFFFFFFFFFFFFFFFFFFFFF AND PUSH20 0xFFFFFFFFFFFFFFFFFFFFFFFFFFFFFFFFFFFFFFFF AND EQ SWAP1 POP SWAP2 SWAP1 POP JUMP JUMPDEST PUSH1 0x60 DUP1 PUSH1 0x60 DUP1 PUSH1 0x60 DUP1 PUSH1 0x60 PUSH0 DUP1 PUSH0 DUP11 PUSH20 0xFFFFFFFFFFFFFFFFFFFFFFFFFFFFFFFFFFFFFFFF AND PUSH20 0xFFFFFFFFFFFFFFFFFFFFFFFFFFFFFFFFFFFFFFFF AND DUP2 MSTORE PUSH1 0x20 ADD SWAP1 DUP2 MSTORE PUSH1 0x20 ADD PUSH0 KECCAK256 PUSH1 0x5 ADD DUP1 SLOAD DUP1 PUSH1 0x20 MUL PUSH1 0x20 ADD PUSH1 0x40 MLOAD SWAP1 DUP2 ADD PUSH1 0x40 MSTORE DUP1 SWAP3 SWAP2 SWAP1 DUP2 DUP2 MSTORE PUSH1 0x20 ADD DUP3 DUP1 SLOAD DUP1 ISZERO PUSH2 0x8B3 JUMPI PUSH1 0x20 MUL DUP3 ADD SWAP2 SWAP1 PUSH0 MSTORE PUSH1 0x20 PUSH0 KECCAK256 SWAP1 JUMPDEST DUP2 SLOAD DUP2 MSTORE PUSH1 0x20 ADD SWAP1 PUSH1 0x1 ADD SWAP1 DUP1 DUP4 GT PUSH2 0x89F JUMPI JUMPDEST POP POP POP POP POP SWAP1 POP DUP1 MLOAD PUSH8 0xFFFFFFFFFFFFFFFF DUP2 GT ISZERO PUSH2 0x8D5 JUMPI PUSH2 0x8D4 PUSH2 0x16E5 JUMP JUMPDEST JUMPDEST PUSH1 0x40 MLOAD SWAP1 DUP1 DUP3 MSTORE DUP1 PUSH1 0x20 MUL PUSH1 0x20 ADD DUP3 ADD PUSH1 0x40 MSTORE DUP1 ISZERO PUSH2 0x908 JUMPI DUP2 PUSH1 0x20 ADD JUMPDEST PUSH1 0x60 DUP2 MSTORE PUSH1 0x20 ADD SWAP1 PUSH1 0x1 SWAP1 SUB SWAP1 DUP2 PUSH2 0x8F3 JUMPI SWAP1 POP JUMPDEST POP SWAP8 POP DUP1 MLOAD PUSH8 0xFFFFFFFFFFFFFFFF DUP2 GT ISZERO PUSH2 0x926 JUMPI PUSH2 0x925 PUSH2 0x16E5 JUMP JUMPDEST JUMPDEST PUSH1 0x40 MLOAD SWAP1 DUP1 DUP3 MSTORE DUP1 PUSH1 0x20 MUL PUSH1 0x20 ADD DUP3 ADD PUSH1 0x40 MSTORE DUP1 ISZERO PUSH2 0x959 JUMPI DUP2 PUSH1 0x20 ADD JUMPDEST PUSH1 0x60 DUP2 MSTORE PUSH1 0x20 ADD SWAP1 PUSH1 0x1 SWAP1 SUB SWAP1 DUP2 PUSH2 0x944 JUMPI SWAP1 POP JUMPDEST POP SWAP7 POP DUP1 MLOAD PUSH8 0xFFFFFFFFFFFFFFFF DUP2 GT ISZERO PUSH2 0x977 JUMPI PUSH2 0x976 PUSH2 0x16E5 JUMP JUMPDEST JUMPDEST PUSH1 0x40 MLOAD SWAP1 DUP1 DUP3 MSTORE DUP1 PUSH1 0x20 MUL PUSH1 0x20 ADD DUP3 ADD PUSH1 0x40 MSTORE DUP1 ISZERO PUSH2 0x9A5 JUMPI DUP2 PUSH1 0x20 ADD PUSH1 0x20 DUP3 MUL DUP1 CALLDATASIZE DUP4 CALLDATACOPY DUP1 DUP3 ADD SWAP2 POP POP SWAP1 POP JUMPDEST POP SWAP6 POP DUP1 MLOAD PUSH8 0xFFFFFFFFFFFFFFFF DUP2 GT ISZERO PUSH2 0x9C3 JUMPI PUSH2 0x9C2 PUSH2 0x16E5 JUMP JUMPDEST JUMPDEST PUSH1 0x40 MLOAD SWAP1 DUP1 DUP3 MSTORE DUP1 PUSH1 0x20 MUL PUSH1 0x20 ADD DUP3 ADD PUSH1 0x40 MSTORE DUP1 ISZERO PUSH2 0x9F1 JUMPI DUP2 PUSH1 0x20 ADD PUSH1 0x20 DUP3 MUL DUP1 CALLDATASIZE DUP4 CALLDATACOPY DUP1 DUP3 ADD SWAP2 POP POP SWAP1 POP JUMPDEST POP SWAP5 POP DUP1 MLOAD PUSH8 0xFFFFFFFFFFFFFFFF DUP2 GT ISZERO PUSH2 0xA0F JUMPI PUSH2 0xA0E PUSH2 0x16E5 JUMP JUMPDEST JUMPDEST PUSH1 0x40 MLOAD SWAP1 DUP1 DUP3 MSTORE DUP1 PUSH1 0x20 MUL PUSH1 0x20 ADD DUP3 ADD PUSH1 0x40 MSTORE DUP1 ISZERO PUSH2 0xA3D JUMPI DUP2 PUSH1 0x20 ADD PUSH1 0x20 DUP3 MUL DUP1 CALLDATASIZE DUP4 CALLDATACOPY DUP1 DUP3 ADD SWAP2 POP POP SWAP1 POP JUMPDEST POP SWAP4 POP DUP1 MLOAD PUSH8 0xFFFFFFFFFFFFFFFF DUP2 GT ISZERO PUSH2 0xA5B JUMPI PUSH2 0xA5A PUSH2 0x16E5 JUMP JUMPDEST JUMPDEST PUSH1 0x40 MLOAD SWAP1 DUP1 DUP3 MSTORE DUP1 PUSH1 0x20 MUL PUSH1 0x20 ADD DUP3 ADD PUSH1 0x40 MSTORE DUP1 ISZERO PUSH2 0xA8E JUMPI DUP2 PUSH1 0x20 ADD JUMPDEST PUSH1 0x60 DUP2 MSTORE PUSH1 0x20 ADD SWAP1 PUSH1 0x1 SWAP1 SUB SWAP1 DUP2 PUSH2 0xA79 JUMPI SWAP1 POP JUMPDEST POP SWAP3 POP DUP1 MLOAD PUSH8 0xFFFFFFFFFFFFFFFF DUP2 GT ISZERO PUSH2 0xAAC JUMPI PUSH2 0xAAB PUSH2 0x16E5 JUMP JUMPDEST JUMPDEST PUSH1 0x40 MLOAD SWAP1 DUP1 DUP3 MSTORE DUP1 PUSH1 0x20 MUL PUSH1 0x20 ADD DUP3 ADD PUSH1 0x40 MSTORE DUP1 ISZERO PUSH2 0xADF JUMPI DUP2 PUSH1 0x20 ADD JUMPDEST PUSH1 0x60 DUP2 MSTORE PUSH1 0x20 ADD SWAP1 PUSH1 0x1 SWAP1 SUB SWAP1 DUP2 PUSH2 0xACA JUMPI SWAP1 POP JUMPDEST POP SWAP2 POP PUSH0 JUMPDEST DUP2 MLOAD DUP2 LT ISZERO PUSH2 0xCB1 JUMPI PUSH1 0x2 PUSH0 SWAP1 SLOAD SWAP1 PUSH2 0x100 EXP SWAP1 DIV PUSH20 0xFFFFFFFFFFFFFFFFFFFFFFFFFFFFFFFFFFFFFFFF AND PUSH20 0xFFFFFFFFFFFFFFFFFFFFFFFFFFFFFFFFFFFFFFFF AND PUSH4 0xD993DE62 DUP4 DUP4 DUP2 MLOAD DUP2 LT PUSH2 0xB3D JUMPI PUSH2 0xB3C PUSH2 0x232B JUMP JUMPDEST JUMPDEST PUSH1 0x20 MUL PUSH1 0x20 ADD ADD MLOAD PUSH1 0x40 MLOAD DUP3 PUSH4 0xFFFFFFFF AND PUSH1 0xE0 SHL DUP2 MSTORE PUSH1 0x4 ADD PUSH2 0xB61 SWAP2 SWAP1 PUSH2 0x2358 JUMP JUMPDEST PUSH0 PUSH1 0x40 MLOAD DUP1 DUP4 SUB DUP2 DUP7 GAS STATICCALL ISZERO DUP1 ISZERO PUSH2 0xB7B JUMPI RETURNDATASIZE PUSH0 DUP1 RETURNDATACOPY RETURNDATASIZE PUSH0 REVERT JUMPDEST POP POP POP POP PUSH1 0x40 MLOAD RETURNDATASIZE PUSH0 DUP3 RETURNDATACOPY RETURNDATASIZE PUSH1 0x1F NOT PUSH1 0x1F DUP3 ADD AND DUP3 ADD DUP1 PUSH1 0x40 MSTORE POP DUP2 ADD SWAP1 PUSH2 0xBA3 SWAP2 SWAP1 PUSH2 0x24CB JUMP JUMPDEST DUP16 DUP9 DUP2 MLOAD DUP2 LT PUSH2 0xBB6 JUMPI PUSH2 0xBB5 PUSH2 0x232B JUMP JUMPDEST JUMPDEST PUSH1 0x20 MUL PUSH1 0x20 ADD ADD DUP16 DUP10 DUP2 MLOAD DUP2 LT PUSH2 0xBD0 JUMPI PUSH2 0xBCF PUSH2 0x232B JUMP JUMPDEST JUMPDEST PUSH1 0x20 MUL PUSH1 0x20 ADD ADD DUP16 DUP11 DUP2 MLOAD DUP2 LT PUSH2 0xBEA JUMPI PUSH2 0xBE9 PUSH2 0x232B JUMP JUMPDEST JUMPDEST PUSH1 0x20 MUL PUSH1 0x20 ADD ADD DUP16 DUP12 DUP2 MLOAD DUP2 LT PUSH2 0xC04 JUMPI PUSH2 0xC03 PUSH2 0x232B JUMP JUMPDEST JUMPDEST PUSH1 0x20 MUL PUSH1 0x20 ADD ADD DUP16 DUP13 DUP2 MLOAD DUP2 LT PUSH2 0xC1E JUMPI PUSH2 0xC1D PUSH2 0x232B JUMP JUMPDEST JUMPDEST PUSH1 0x20 MUL PUSH1 0x20 ADD ADD DUP16 DUP14 DUP2 MLOAD DUP2 LT PUSH2 0xC38 JUMPI PUSH2 0xC37 PUSH2 0x232B JUMP JUMPDEST JUMPDEST PUSH1 0x20 MUL PUSH1 0x20 ADD ADD DUP16 DUP15 DUP2 MLOAD DUP2 LT PUSH2 0xC52 JUMPI PUSH2 0xC51 PUSH2 0x232B JUMP JUMPDEST JUMPDEST PUSH1 0x20 MUL PUSH1 0x20 ADD ADD DUP8 SWAP1 MSTORE DUP8 SWAP1 MSTORE DUP8 DUP2 MSTORE POP DUP8 DUP2 MSTORE POP DUP8 PUSH20 0xFFFFFFFFFFFFFFFFFFFFFFFFFFFFFFFFFFFFFFFF AND PUSH20 0xFFFFFFFFFFFFFFFFFFFFFFFFFFFFFFFFFFFFFFFF AND DUP2 MSTORE POP DUP8 SWAP1 MSTORE DUP8 SWAP1 MSTORE POP POP POP POP POP POP POP DUP1 DUP1 PUSH1 0x1 ADD SWAP2 POP POP PUSH2 0xAE4 JUMP JUMPDEST POP POP SWAP2 SWAP4 SWAP6 SWAP8 SWAP1 SWAP3 SWAP5 SWAP7 POP JUMP JUMPDEST PUSH0 PUSH20 0xFFFFFFFFFFFFFFFFFFFFFFFFFFFFFFFFFFFFFFFF AND PUSH0 DUP1 CALLER PUSH20 0xFFFFFFFFFFFFFFFFFFFFFFFFFFFFFFFFFFFFFFFF AND PUSH20 0xFFFFFFFFFFFFFFFFFFFFFFFFFFFFFFFFFFFFFFFF AND DUP2 MSTORE PUSH1 0x20 ADD SWAP1 DUP2 MSTORE PUSH1 0x20 ADD PUSH0 KECCAK256 PUSH0 ADD PUSH0 SWAP1 SLOAD SWAP1 PUSH2 0x100 EXP SWAP1 DIV PUSH20 0xFFFFFFFFFFFFFFFFFFFFFFFFFFFFFFFFFFFFFFFF AND PUSH20 0xFFFFFFFFFFFFFFFFFFFFFFFFFFFFFFFFFFFFFFFF AND EQ PUSH2 0xD89 JUMPI PUSH1 0x40 MLOAD PUSH32 0x8C379A000000000000000000000000000000000000000000000000000000000 DUP2 MSTORE PUSH1 0x4 ADD PUSH2 0xD80 SWAP1 PUSH2 0x2622 JUMP JUMPDEST PUSH1 0x40 MLOAD DUP1 SWAP2 SUB SWAP1 REVERT JUMPDEST PUSH1 0x60 PUSH1 0x40 MLOAD DUP1 PUSH1 0xE0 ADD PUSH1 0x40 MSTORE DUP1 CALLER PUSH20 0xFFFFFFFFFFFFFFFFFFFFFFFFFFFFFFFFFFFFFFFF AND DUP2 MSTORE PUSH1 0x20 ADD DUP7 PUSH1 0x2 DUP2 GT ISZERO PUSH2 0xDC5 JUMPI PUSH2 0xDC4 PUSH2 0x1506 JUMP JUMPDEST JUMPDEST DUP2 MSTORE PUSH1 0x20 ADD TIMESTAMP DUP2 MSTORE PUSH1 0x20 ADD DUP6 DUP2 MSTORE PUSH1 0x20 ADD DUP5 DUP2 MSTORE PUSH1 0x20 ADD DUP4 DUP2 MSTORE PUSH1 0x20 ADD DUP3 DUP2 MSTORE POP PUSH0 DUP1 CALLER PUSH20 0xFFFFFFFFFFFFFFFFFFFFFFFFFFFFFFFFFFFFFFFF AND PUSH20 0xFFFFFFFFFFFFFFFFFFFFFFFFFFFFFFFFFFFFFFFF AND DUP2 MSTORE PUSH1 0x20 ADD SWAP1 DUP2 MSTORE PUSH1 0x20 ADD PUSH0 KECCAK256 PUSH0 DUP3 ADD MLOAD DUP2 PUSH0 ADD PUSH0 PUSH2 0x100 EXP DUP2 SLOAD DUP2 PUSH20 0xFFFFFFFFFFFFFFFFFFFFFFFFFFFFFFFFFFFFFFFF MUL NOT AND SWAP1 DUP4 PUSH20 0xFFFFFFFFFFFFFFFFFFFFFFFFFFFFFFFFFFFFFFFF AND MUL OR SWAP1 SSTORE POP PUSH1 0x20 DUP3 ADD MLOAD DUP2 PUSH0 ADD PUSH1 0x14 PUSH2 0x100 EXP DUP2 SLOAD DUP2 PUSH1 0xFF MUL NOT AND SWAP1 DUP4 PUSH1 0x2 DUP2 GT ISZERO PUSH2 0xE90 JUMPI PUSH2 0xE8F PUSH2 0x1506 JUMP JUMPDEST JUMPDEST MUL OR SWAP1 SSTORE POP PUSH1 0x40 DUP3 ADD MLOAD DUP2 PUSH1 0x1 ADD SSTORE PUSH1 0x60 DUP3 ADD MLOAD DUP2 PUSH1 0x2 ADD SWAP1 DUP2 PUSH2 0xEB4 SWAP2 SWAP1 PUSH2 0x225C JUMP JUMPDEST POP PUSH1 0x80 DUP3 ADD MLOAD DUP2 PUSH1 0x3 ADD SWAP1 DUP2 PUSH2 0xECA SWAP2 SWAP1 PUSH2 0x225C JUMP JUMPDEST POP PUSH1 0xA0 DUP3 ADD MLOAD DUP2 PUSH1 0x4 ADD SWAP1 DUP2 PUSH2 0xEE0 SWAP2 SWAP1 PUSH2 0x225C JUMP JUMPDEST POP PUSH1 0xC0 DUP3 ADD MLOAD DUP2 PUSH1 0x5 ADD SWAP1 DUP1 MLOAD SWAP1 PUSH1 0x20 ADD SWAP1 PUSH2 0xEFD SWAP3 SWAP2 SWAP1 PUSH2 0x1399 JUMP JUMPDEST POP SWAP1 POP POP POP POP POP POP POP JUMP JUMPDEST PUSH1 0x1 PUSH0 SWAP1 SLOAD SWAP1 PUSH2 0x100 EXP SWAP1 DIV PUSH20 0xFFFFFFFFFFFFFFFFFFFFFFFFFFFFFFFFFFFFFFFF AND DUP2 JUMP JUMPDEST PUSH0 PUSH1 0x1 PUSH0 SWAP1 SLOAD SWAP1 PUSH2 0x100 EXP SWAP1 DIV PUSH20 0xFFFFFFFFFFFFFFFFFFFFFFFFFFFFFFFFFFFFFFFF AND PUSH20 0xFFFFFFFFFFFFFFFFFFFFFFFFFFFFFFFFFFFFFFFF AND CALLER PUSH20 0xFFFFFFFFFFFFFFFFFFFFFFFFFFFFFFFFFFFFFFFF AND EQ PUSH2 0xFBD JUMPI PUSH1 0x40 MLOAD PUSH32 0x8C379A000000000000000000000000000000000000000000000000000000000 DUP2 MSTORE PUSH1 0x4 ADD PUSH2 0xFB4 SWAP1 PUSH2 0x2039 JUMP JUMPDEST PUSH1 0x40 MLOAD DUP1 SWAP2 SUB SWAP1 REVERT JUMPDEST PUSH0 PUSH20 0xFFFFFFFFFFFFFFFFFFFFFFFFFFFFFFFFFFFFFFFF AND PUSH0 DUP1 DUP5 PUSH20 0xFFFFFFFFFFFFFFFFFFFFFFFFFFFFFFFFFFFFFFFF AND PUSH20 0xFFFFFFFFFFFFFFFFFFFFFFFFFFFFFFFFFFFFFFFF AND DUP2 MSTORE PUSH1 0x20 ADD SWAP1 DUP2 MSTORE PUSH1 0x20 ADD PUSH0 KECCAK256 PUSH0 ADD PUSH0 SWAP1 SLOAD SWAP1 PUSH2 0x100 EXP SWAP1 DIV PUSH20 0xFFFFFFFFFFFFFFFFFFFFFFFFFFFFFFFFFFFFFFFF AND PUSH20 0xFFFFFFFFFFFFFFFFFFFFFFFFFFFFFFFFFFFFFFFF AND EQ ISZERO SWAP1 POP SWAP2 SWAP1 POP JUMP JUMPDEST PUSH2 0x1059 PUSH2 0x13E4 JUMP JUMPDEST PUSH0 DUP1 DUP4 PUSH20 0xFFFFFFFFFFFFFFFFFFFFFFFFFFFFFFFFFFFFFFFF AND PUSH20 0xFFFFFFFFFFFFFFFFFFFFFFFFFFFFFFFFFFFFFFFF AND DUP2 MSTORE PUSH1 0x20 ADD SWAP1 DUP2 MSTORE PUSH1 0x20 ADD PUSH0 KECCAK256 PUSH1 0x40 MLOAD DUP1 PUSH1 0xE0 ADD PUSH1 0x40 MSTORE SWAP1 DUP2 PUSH0 DUP3 ADD PUSH0 SWAP1 SLOAD SWAP1 PUSH2 0x100 EXP SWAP1 DIV PUSH20 0xFFFFFFFFFFFFFFFFFFFFFFFFFFFFFFFFFFFFFFFF AND PUSH20 0xFFFFFFFFFFFFFFFFFFFFFFFFFFFFFFFFFFFFFFFF AND PUSH20 0xFFFFFFFFFFFFFFFFFFFFFFFFFFFFFFFFFFFFFFFF AND DUP2 MSTORE PUSH1 0x20 ADD PUSH0 DUP3 ADD PUSH1 0x14 SWAP1 SLOAD SWAP1 PUSH2 0x100 EXP SWAP1 DIV PUSH1 0xFF AND PUSH1 0x2 DUP2 GT ISZERO PUSH2 0x1118 JUMPI PUSH2 0x1117 PUSH2 0x1506 JUMP JUMPDEST JUMPDEST PUSH1 0x2 DUP2 GT ISZERO PUSH2 0x112A JUMPI PUSH2 0x1129 PUSH2 0x1506 JUMP JUMPDEST JUMPDEST DUP2 MSTORE PUSH1 0x20 ADD PUSH1 0x1 DUP3 ADD SLOAD DUP2 MSTORE PUSH1 0x20 ADD PUSH1 0x2 DUP3 ADD DUP1 SLOAD PUSH2 0x1148 SWAP1 PUSH2 0x1F99 JUMP JUMPDEST DUP1 PUSH1 0x1F ADD PUSH1 0x20 DUP1 SWAP2 DIV MUL PUSH1 0x20 ADD PUSH1 0x40 MLOAD SWAP1 DUP2 ADD PUSH1 0x40 MSTORE DUP1 SWAP3 SWAP2 SWAP1 DUP2 DUP2 MSTORE PUSH1 0x20 ADD DUP3 DUP1 SLOAD PUSH2 0x1174 SWAP1 PUSH2 0x1F99 JUMP JUMPDEST DUP1 ISZERO PUSH2 0x11BF JUMPI DUP1 PUSH1 0x1F LT PUSH2 0x1196 JUMPI PUSH2 0x100 DUP1 DUP4 SLOAD DIV MUL DUP4 MSTORE SWAP2 PUSH1 0x20 ADD SWAP2 PUSH2 0x11BF JUMP JUMPDEST DUP3 ADD SWAP2 SWAP1 PUSH0 MSTORE PUSH1 0x20 PUSH0 KECCAK256 SWAP1 JUMPDEST DUP2 SLOAD DUP2 MSTORE SWAP1 PUSH1 0x1 ADD SWAP1 PUSH1 0x20 ADD DUP1 DUP4 GT PUSH2 0x11A2 JUMPI DUP3 SWAP1 SUB PUSH1 0x1F AND DUP3 ADD SWAP2 JUMPDEST POP POP POP POP POP DUP2 MSTORE PUSH1 0x20 ADD PUSH1 0x3 DUP3 ADD DUP1 SLOAD PUSH2 0x11D8 SWAP1 PUSH2 0x1F99 JUMP JUMPDEST DUP1 PUSH1 0x1F ADD PUSH1 0x20 DUP1 SWAP2 DIV MUL PUSH1 0x20 ADD PUSH1 0x40 MLOAD SWAP1 DUP2 ADD PUSH1 0x40 MSTORE DUP1 SWAP3 SWAP2 SWAP1 DUP2 DUP2 MSTORE PUSH1 0x20 ADD DUP3 DUP1 SLOAD PUSH2 0x1204 SWAP1 PUSH2 0x1F99 JUMP JUMPDEST DUP1 ISZERO PUSH2 0x124F JUMPI DUP1 PUSH1 0x1F LT PUSH2 0x1226 JUMPI PUSH2 0x100 DUP1 DUP4 SLOAD DIV MUL DUP4 MSTORE SWAP2 PUSH1 0x20 ADD SWAP2 PUSH2 0x124F JUMP JUMPDEST DUP3 ADD SWAP2 SWAP1 PUSH0 MSTORE PUSH1 0x20 PUSH0 KECCAK256 SWAP1 JUMPDEST DUP2 SLOAD DUP2 MSTORE SWAP1 PUSH1 0x1 ADD SWAP1 PUSH1 0x20 ADD DUP1 DUP4 GT PUSH2 0x1232 JUMPI DUP3 SWAP1 SUB PUSH1 0x1F AND DUP3 ADD SWAP2 JUMPDEST POP POP POP POP POP DUP2 MSTORE PUSH1 0x20 ADD PUSH1 0x4 DUP3 ADD DUP1 SLOAD PUSH2 0x1268 SWAP1 PUSH2 0x1F99 JUMP JUMPDEST DUP1 PUSH1 0x1F ADD PUSH1 0x20 DUP1 SWAP2 DIV MUL PUSH1 0x20 ADD PUSH1 0x40 MLOAD SWAP1 DUP2 ADD PUSH1 0x40 MSTORE DUP1 SWAP3 SWAP2 SWAP1 DUP2 DUP2 MSTORE PUSH1 0x20 ADD DUP3 DUP1 SLOAD PUSH2 0x1294 SWAP1 PUSH2 0x1F99 JUMP JUMPDEST DUP1 ISZERO PUSH2 0x12DF JUMPI DUP1 PUSH1 0x1F LT PUSH2 0x12B6 JUMPI PUSH2 0x100 DUP1 DUP4 SLOAD DIV MUL DUP4 MSTORE SWAP2 PUSH1 0x20 ADD SWAP2 PUSH2 0x12DF JUMP JUMPDEST DUP3 ADD SWAP2 SWAP1 PUSH0 MSTORE PUSH1 0x20 PUSH0 KECCAK256 SWAP1 JUMPDEST DUP2 SLOAD DUP2 MSTORE SWAP1 PUSH1 0x1 ADD SWAP1 PUSH1 0x20 ADD DUP1 DUP4 GT PUSH2 0x12C2 JUMPI DUP3 SWAP1 SUB PUSH1 0x1F AND DUP3 ADD SWAP2 JUMPDEST POP POP POP POP POP DUP2 MSTORE PUSH1 0x20 ADD PUSH1 0x5 DUP3 ADD DUP1 SLOAD DUP1 PUSH1 0x20 MUL PUSH1 0x20 ADD PUSH1 0x40 MLOAD SWAP1 DUP2 ADD PUSH1 0x40 MSTORE DUP1 SWAP3 SWAP2 SWAP1 DUP2 DUP2 MSTORE PUSH1 0x20 ADD DUP3 DUP1 SLOAD DUP1 ISZERO PUSH2 0x1335 JUMPI PUSH1 0x20 MUL DUP3 ADD SWAP2 SWAP1 PUSH0 MSTORE PUSH1 0x20 PUSH0 KECCAK256 SWAP1 JUMPDEST DUP2 SLOAD DUP2 MSTORE PUSH1 0x20 ADD SWAP1 PUSH1 0x1 ADD SWAP1 DUP1 DUP4 GT PUSH2 0x1321 JUMPI JUMPDEST POP POP POP POP POP DUP2 MSTORE POP POP SWAP1 POP SWAP2 SWAP1 POP JUMP JUMPDEST PUSH0 DUP1 PUSH0 DUP4 PUSH20 0xFFFFFFFFFFFFFFFFFFFFFFFFFFFFFFFFFFFFFFFF AND PUSH20 0xFFFFFFFFFFFFFFFFFFFFFFFFFFFFFFFFFFFFFFFF AND DUP2 MSTORE PUSH1 0x20 ADD SWAP1 DUP2 MSTORE PUSH1 0x20 ADD PUSH0 KECCAK256 PUSH0 ADD PUSH1 0x14 SWAP1 SLOAD SWAP1 PUSH2 0x100 EXP SWAP1 DIV PUSH1 0xFF AND SWAP1 POP SWAP2 SWAP1 POP JUMP JUMPDEST DUP3 DUP1 SLOAD DUP3 DUP3 SSTORE SWAP1 PUSH0 MSTORE PUSH1 0x20 PUSH0 KECCAK256 SWAP1 DUP2 ADD SWAP3 DUP3 ISZERO PUSH2 0x13D3 JUMPI SWAP2 PUSH1 0x20 MUL DUP3 ADD JUMPDEST DUP3 DUP2 GT ISZERO PUSH2 0x13D2 JUMPI DUP3 MLOAD DUP3 SSTORE SWAP2 PUSH1 0x20 ADD SWAP2 SWAP1 PUSH1 0x1 ADD SWAP1 PUSH2 0x13B7 JUMP JUMPDEST JUMPDEST POP SWAP1 POP PUSH2 0x13E0 SWAP2 SWAP1 PUSH2 0x1446 JUMP JUMPDEST POP SWAP1 JUMP JUMPDEST PUSH1 0x40 MLOAD DUP1 PUSH1 0xE0 ADD PUSH1 0x40 MSTORE DUP1 PUSH0 PUSH20 0xFFFFFFFFFFFFFFFFFFFFFFFFFFFFFFFFFFFFFFFF AND DUP2 MSTORE PUSH1 0x20 ADD PUSH0 PUSH1 0x2 DUP2 GT ISZERO PUSH2 0x141E JUMPI PUSH2 0x141D PUSH2 0x1506 JUMP JUMPDEST JUMPDEST DUP2 MSTORE PUSH1 0x20 ADD PUSH0 DUP2 MSTORE PUSH1 0x20 ADD PUSH1 0x60 DUP2 MSTORE PUSH1 0x20 ADD PUSH1 0x60 DUP2 MSTORE PUSH1 0x20 ADD PUSH1 0x60 DUP2 MSTORE PUSH1 0x20 ADD PUSH1 0x60 DUP2 MSTORE POP SWAP1 JUMP JUMPDEST JUMPDEST DUP1 DUP3 GT ISZERO PUSH2 0x145D JUMPI PUSH0 DUP2 PUSH0 SWAP1 SSTORE POP PUSH1 0x1 ADD PUSH2 0x1447 JUMP JUMPDEST POP SWAP1 JUMP JUMPDEST PUSH0 PUSH1 0x40 MLOAD SWAP1 POP SWAP1 JUMP JUMPDEST PUSH0 DUP1 REVERT JUMPDEST PUSH0 DUP1 REVERT JUMPDEST PUSH0 PUSH20 0xFFFFFFFFFFFFFFFFFFFFFFFFFFFFFFFFFFFFFFFF DUP3 AND SWAP1 POP SWAP2 SWAP1 POP JUMP JUMPDEST PUSH0 PUSH2 0x149B DUP3 PUSH2 0x1472 JUMP JUMPDEST SWAP1 POP SWAP2 SWAP1 POP JUMP JUMPDEST PUSH2 0x14AB DUP2 PUSH2 0x1491 JUMP JUMPDEST DUP2 EQ PUSH2 0x14B5 JUMPI PUSH0 DUP1 REVERT JUMPDEST POP JUMP JUMPDEST PUSH0 DUP2 CALLDATALOAD SWAP1 POP PUSH2 0x14C6 DUP2 PUSH2 0x14A2 JUMP JUMPDEST SWAP3 SWAP2 POP POP JUMP JUMPDEST PUSH0 PUSH1 0x20 DUP3 DUP5 SUB SLT ISZERO PUSH2 0x14E1 JUMPI PUSH2 0x14E0 PUSH2 0x146A JUMP JUMPDEST JUMPDEST PUSH0 PUSH2 0x14EE DUP5 DUP3 DUP6 ADD PUSH2 0x14B8 JUMP JUMPDEST SWAP2 POP POP SWAP3 SWAP2 POP POP JUMP JUMPDEST PUSH2 0x1500 DUP2 PUSH2 0x1491 JUMP JUMPDEST DUP3 MSTORE POP POP JUMP JUMPDEST PUSH32 0x4E487B7100000000000000000000000000000000000000000000000000000000 PUSH0 MSTORE PUSH1 0x21 PUSH1 0x4 MSTORE PUSH1 0x24 PUSH0 REVERT JUMPDEST PUSH1 0x3 DUP2 LT PUSH2 0x1544 JUMPI PUSH2 0x1543 PUSH2 0x1506 JUMP JUMPDEST JUMPDEST POP JUMP JUMPDEST PUSH0 DUP2 SWAP1 POP PUSH2 0x1554 DUP3 PUSH2 0x1533 JUMP JUMPDEST SWAP2 SWAP1 POP JUMP JUMPDEST PUSH0 PUSH2 0x1563 DUP3 PUSH2 0x1547 JUMP JUMPDEST SWAP1 POP SWAP2 SWAP1 POP JUMP JUMPDEST PUSH2 0x1573 DUP2 PUSH2 0x1559 JUMP JUMPDEST DUP3 MSTORE POP POP JUMP JUMPDEST PUSH0 DUP2 SWAP1 POP SWAP2 SWAP1 POP JUMP JUMPDEST PUSH2 0x158B DUP2 PUSH2 0x1579 JUMP JUMPDEST DUP3 MSTORE POP POP JUMP JUMPDEST PUSH0 DUP2 MLOAD SWAP1 POP SWAP2 SWAP1 POP JUMP JUMPDEST PUSH0 DUP3 DUP3 MSTORE PUSH1 0x20 DUP3 ADD SWAP1 POP SWAP3 SWAP2 POP POP JUMP JUMPDEST DUP3 DUP2 DUP4 MCOPY PUSH0 DUP4 DUP4 ADD MSTORE POP POP POP JUMP JUMPDEST PUSH0 PUSH1 0x1F NOT PUSH1 0x1F DUP4 ADD AND SWAP1 POP SWAP2 SWAP1 POP JUMP JUMPDEST PUSH0 PUSH2 0x15D3 DUP3 PUSH2 0x1591 JUMP JUMPDEST PUSH2 0x15DD DUP2 DUP6 PUSH2 0x159B JUMP JUMPDEST SWAP4 POP PUSH2 0x15ED DUP2 DUP6 PUSH1 0x20 DUP7 ADD PUSH2 0x15AB JUMP JUMPDEST PUSH2 0x15F6 DUP2 PUSH2 0x15B9 JUMP JUMPDEST DUP5 ADD SWAP2 POP POP SWAP3 SWAP2 POP POP JUMP JUMPDEST PUSH0 PUSH1 0xC0 DUP3 ADD SWAP1 POP PUSH2 0x1614 PUSH0 DUP4 ADD DUP10 PUSH2 0x14F7 JUMP JUMPDEST PUSH2 0x1621 PUSH1 0x20 DUP4 ADD DUP9 PUSH2 0x156A JUMP JUMPDEST PUSH2 0x162E PUSH1 0x40 DUP4 ADD DUP8 PUSH2 0x1582 JUMP JUMPDEST DUP2 DUP2 SUB PUSH1 0x60 DUP4 ADD MSTORE PUSH2 0x1640 DUP2 DUP7 PUSH2 0x15C9 JUMP JUMPDEST SWAP1 POP DUP2 DUP2 SUB PUSH1 0x80 DUP4 ADD MSTORE PUSH2 0x1654 DUP2 DUP6 PUSH2 0x15C9 JUMP JUMPDEST SWAP1 POP DUP2 DUP2 SUB PUSH1 0xA0 DUP4 ADD MSTORE PUSH2 0x1668 DUP2 DUP5 PUSH2 0x15C9 JUMP JUMPDEST SWAP1 POP SWAP8 SWAP7 POP POP POP POP POP POP POP JUMP JUMPDEST PUSH2 0x167E DUP2 PUSH2 0x1579 JUMP JUMPDEST DUP2 EQ PUSH2 0x1688 JUMPI PUSH0 DUP1 REVERT JUMPDEST POP JUMP JUMPDEST PUSH0 DUP2 CALLDATALOAD SWAP1 POP PUSH2 0x1699 DUP2 PUSH2 0x1675 JUMP JUMPDEST SWAP3 SWAP2 POP POP JUMP JUMPDEST PUSH0 DUP1 PUSH1 0x40 DUP4 DUP6 SUB SLT ISZERO PUSH2 0x16B5 JUMPI PUSH2 0x16B4 PUSH2 0x146A JUMP JUMPDEST JUMPDEST PUSH0 PUSH2 0x16C2 DUP6 DUP3 DUP7 ADD PUSH2 0x14B8 JUMP JUMPDEST SWAP3 POP POP PUSH1 0x20 PUSH2 0x16D3 DUP6 DUP3 DUP7 ADD PUSH2 0x168B JUMP JUMPDEST SWAP2 POP POP SWAP3 POP SWAP3 SWAP1 POP JUMP JUMPDEST PUSH0 DUP1 REVERT JUMPDEST PUSH0 DUP1 REVERT JUMPDEST PUSH32 0x4E487B7100000000000000000000000000000000000000000000000000000000 PUSH0 MSTORE PUSH1 0x41 PUSH1 0x4 MSTORE PUSH1 0x24 PUSH0 REVERT JUMPDEST PUSH2 0x171B DUP3 PUSH2 0x15B9 JUMP JUMPDEST DUP2 ADD DUP2 DUP2 LT PUSH8 0xFFFFFFFFFFFFFFFF DUP3 GT OR ISZERO PUSH2 0x173A JUMPI PUSH2 0x1739 PUSH2 0x16E5 JUMP JUMPDEST JUMPDEST DUP1 PUSH1 0x40 MSTORE POP POP POP JUMP JUMPDEST PUSH0 PUSH2 0x174C PUSH2 0x1461 JUMP JUMPDEST SWAP1 POP PUSH2 0x1758 DUP3 DUP3 PUSH2 0x1712 JUMP JUMPDEST SWAP2 SWAP1 POP JUMP JUMPDEST PUSH0 PUSH8 0xFFFFFFFFFFFFFFFF DUP3 GT ISZERO PUSH2 0x1777 JUMPI PUSH2 0x1776 PUSH2 0x16E5 JUMP JUMPDEST JUMPDEST PUSH2 0x1780 DUP3 PUSH2 0x15B9 JUMP JUMPDEST SWAP1 POP PUSH1 0x20 DUP2 ADD SWAP1 POP SWAP2 SWAP1 POP JUMP JUMPDEST DUP3 DUP2 DUP4 CALLDATACOPY PUSH0 DUP4 DUP4 ADD MSTORE POP POP POP JUMP JUMPDEST PUSH0 PUSH2 0x17AD PUSH2 0x17A8 DUP5 PUSH2 0x175D JUMP JUMPDEST PUSH2 0x1743 JUMP JUMPDEST SWAP1 POP DUP3 DUP2 MSTORE PUSH1 0x20 DUP2 ADD DUP5 DUP5 DUP5 ADD GT ISZERO PUSH2 0x17C9 JUMPI PUSH2 0x17C8 PUSH2 0x16E1 JUMP JUMPDEST JUMPDEST PUSH2 0x17D4 DUP5 DUP3 DUP6 PUSH2 0x178D JUMP JUMPDEST POP SWAP4 SWAP3 POP POP POP JUMP JUMPDEST PUSH0 DUP3 PUSH1 0x1F DUP4 ADD SLT PUSH2 0x17F0 JUMPI PUSH2 0x17EF PUSH2 0x16DD JUMP JUMPDEST JUMPDEST DUP2 CALLDATALOAD PUSH2 0x1800 DUP5 DUP3 PUSH1 0x20 DUP7 ADD PUSH2 0x179B JUMP JUMPDEST SWAP2 POP POP SWAP3 SWAP2 POP POP JUMP JUMPDEST PUSH0 DUP1 PUSH0 PUSH1 0x60 DUP5 DUP7 SUB SLT ISZERO PUSH2 0x1820 JUMPI PUSH2 0x181F PUSH2 0x146A JUMP JUMPDEST JUMPDEST PUSH0 DUP5 ADD CALLDATALOAD PUSH8 0xFFFFFFFFFFFFFFFF DUP2 GT ISZERO PUSH2 0x183D JUMPI PUSH2 0x183C PUSH2 0x146E JUMP JUMPDEST JUMPDEST PUSH2 0x1849 DUP7 DUP3 DUP8 ADD PUSH2 0x17DC JUMP JUMPDEST SWAP4 POP POP PUSH1 0x20 DUP5 ADD CALLDATALOAD PUSH8 0xFFFFFFFFFFFFFFFF DUP2 GT ISZERO PUSH2 0x186A JUMPI PUSH2 0x1869 PUSH2 0x146E JUMP JUMPDEST JUMPDEST PUSH2 0x1876 DUP7 DUP3 DUP8 ADD PUSH2 0x17DC JUMP JUMPDEST SWAP3 POP POP PUSH1 0x40 DUP5 ADD CALLDATALOAD PUSH8 0xFFFFFFFFFFFFFFFF DUP2 GT ISZERO PUSH2 0x1897 JUMPI PUSH2 0x1896 PUSH2 0x146E JUMP JUMPDEST JUMPDEST PUSH2 0x18A3 DUP7 DUP3 DUP8 ADD PUSH2 0x17DC JUMP JUMPDEST SWAP2 POP POP SWAP3 POP SWAP3 POP SWAP3 JUMP JUMPDEST PUSH0 DUP2 ISZERO ISZERO SWAP1 POP SWAP2 SWAP1 POP JUMP JUMPDEST PUSH2 0x18C1 DUP2 PUSH2 0x18AD JUMP JUMPDEST DUP3 MSTORE POP POP JUMP JUMPDEST PUSH0 PUSH1 0x20 DUP3 ADD SWAP1 POP PUSH2 0x18DA PUSH0 DUP4 ADD DUP5 PUSH2 0x18B8 JUMP JUMPDEST SWAP3 SWAP2 POP POP JUMP JUMPDEST PUSH0 DUP2 MLOAD SWAP1 POP SWAP2 SWAP1 POP JUMP JUMPDEST PUSH0 DUP3 DUP3 MSTORE PUSH1 0x20 DUP3 ADD SWAP1 POP SWAP3 SWAP2 POP POP JUMP JUMPDEST PUSH0 DUP2 SWAP1 POP PUSH1 0x20 DUP3 ADD SWAP1 POP SWAP2 SWAP1 POP JUMP JUMPDEST PUSH0 DUP3 DUP3 MSTORE PUSH1 0x20 DUP3 ADD SWAP1 POP SWAP3 SWAP2 POP POP JUMP JUMPDEST PUSH0 PUSH2 0x1923 DUP3 PUSH2 0x1591 JUMP JUMPDEST PUSH2 0x192D DUP2 DUP6 PUSH2 0x1909 JUMP JUMPDEST SWAP4 POP PUSH2 0x193D DUP2 DUP6 PUSH1 0x20 DUP7 ADD PUSH2 0x15AB JUMP JUMPDEST PUSH2 0x1946 DUP2 PUSH2 0x15B9 JUMP JUMPDEST DUP5 ADD SWAP2 POP POP SWAP3 SWAP2 POP POP JUMP JUMPDEST PUSH0 PUSH2 0x195C DUP4 DUP4 PUSH2 0x1919 JUMP JUMPDEST SWAP1 POP SWAP3 SWAP2 POP POP JUMP JUMPDEST PUSH0 PUSH1 0x20 DUP3 ADD SWAP1 POP SWAP2 SWAP1 POP JUMP JUMPDEST PUSH0 PUSH2 0x197A DUP3 PUSH2 0x18E0 JUMP JUMPDEST PUSH2 0x1984 DUP2 DUP6 PUSH2 0x18EA JUMP JUMPDEST SWAP4 POP DUP4 PUSH1 0x20 DUP3 MUL DUP6 ADD PUSH2 0x1996 DUP6 PUSH2 0x18FA JUMP JUMPDEST DUP1 PUSH0 JUMPDEST DUP6 DUP2 LT ISZERO PUSH2 0x19D1 JUMPI DUP5 DUP5 SUB DUP10 MSTORE DUP2 MLOAD PUSH2 0x19B2 DUP6 DUP3 PUSH2 0x1951 JUMP JUMPDEST SWAP5 POP PUSH2 0x19BD DUP4 PUSH2 0x1964 JUMP JUMPDEST SWAP3 POP PUSH1 0x20 DUP11 ADD SWAP10 POP POP PUSH1 0x1 DUP2 ADD SWAP1 POP PUSH2 0x1999 JUMP JUMPDEST POP DUP3 SWAP8 POP DUP8 SWAP6 POP POP POP POP POP POP SWAP3 SWAP2 POP POP JUMP JUMPDEST PUSH0 DUP2 MLOAD SWAP1 POP SWAP2 SWAP1 POP JUMP JUMPDEST PUSH0 DUP3 DUP3 MSTORE PUSH1 0x20 DUP3 ADD SWAP1 POP SWAP3 SWAP2 POP POP JUMP JUMPDEST PUSH0 DUP2 SWAP1 POP PUSH1 0x20 DUP3 ADD SWAP1 POP SWAP2 SWAP1 POP JUMP JUMPDEST PUSH2 0x1A15 DUP2 PUSH2 0x1491 JUMP JUMPDEST DUP3 MSTORE POP POP JUMP JUMPDEST PUSH0 PUSH2 0x1A26 DUP4 DUP4 PUSH2 0x1A0C JUMP JUMPDEST PUSH1 0x20 DUP4 ADD SWAP1 POP SWAP3 SWAP2 POP POP JUMP JUMPDEST PUSH0 PUSH1 0x20 DUP3 ADD SWAP1 POP SWAP2 SWAP1 POP JUMP JUMPDEST PUSH0 PUSH2 0x1A48 DUP3 PUSH2 0x19E3 JUMP JUMPDEST PUSH2 0x1A52 DUP2 DUP6 PUSH2 0x19ED JUMP JUMPDEST SWAP4 POP PUSH2 0x1A5D DUP4 PUSH2 0x19FD JUMP JUMPDEST DUP1 PUSH0 JUMPDEST DUP4 DUP2 LT ISZERO PUSH2 0x1A8D JUMPI DUP2 MLOAD PUSH2 0x1A74 DUP9 DUP3 PUSH2 0x1A1B JUMP JUMPDEST SWAP8 POP PUSH2 0x1A7F DUP4 PUSH2 0x1A32 JUMP JUMPDEST SWAP3 POP POP PUSH1 0x1 DUP2 ADD SWAP1 POP PUSH2 0x1A60 JUMP JUMPDEST POP DUP6 SWAP4 POP POP POP POP SWAP3 SWAP2 POP POP JUMP JUMPDEST PUSH0 DUP2 MLOAD SWAP1 POP SWAP2 SWAP1 POP JUMP JUMPDEST PUSH0 DUP3 DUP3 MSTORE PUSH1 0x20 DUP3 ADD SWAP1 POP SWAP3 SWAP2 POP POP JUMP JUMPDEST PUSH0 DUP2 SWAP1 POP PUSH1 0x20 DUP3 ADD SWAP1 POP SWAP2 SWAP1 POP JUMP JUMPDEST PUSH2 0x1ACC DUP2 PUSH2 0x1579 JUMP JUMPDEST DUP3 MSTORE POP POP JUMP JUMPDEST PUSH0 PUSH2 0x1ADD DUP4 DUP4 PUSH2 0x1AC3 JUMP JUMPDEST PUSH1 0x20 DUP4 ADD SWAP1 POP SWAP3 SWAP2 POP POP JUMP JUMPDEST PUSH0 PUSH1 0x20 DUP3 ADD SWAP1 POP SWAP2 SWAP1 POP JUMP JUMPDEST PUSH0 PUSH2 0x1AFF DUP3 PUSH2 0x1A9A JUMP JUMPDEST PUSH2 0x1B09 DUP2 DUP6 PUSH2 0x1AA4 JUMP JUMPDEST SWAP4 POP PUSH2 0x1B14 DUP4 PUSH2 0x1AB4 JUMP JUMPDEST DUP1 PUSH0 JUMPDEST DUP4 DUP2 LT ISZERO PUSH2 0x1B44 JUMPI DUP2 MLOAD PUSH2 0x1B2B DUP9 DUP3 PUSH2 0x1AD2 JUMP JUMPDEST SWAP8 POP PUSH2 0x1B36 DUP4 PUSH2 0x1AE9 JUMP JUMPDEST SWAP3 POP POP PUSH1 0x1 DUP2 ADD SWAP1 POP PUSH2 0x1B17 JUMP JUMPDEST POP DUP6 SWAP4 POP POP POP POP SWAP3 SWAP2 POP POP JUMP JUMPDEST PUSH0 DUP2 MLOAD SWAP1 POP SWAP2 SWAP1 POP JUMP JUMPDEST PUSH0 DUP3 DUP3 MSTORE PUSH1 0x20 DUP3 ADD SWAP1 POP SWAP3 SWAP2 POP POP JUMP JUMPDEST PUSH0 DUP2 SWAP1 POP PUSH1 0x20 DUP3 ADD SWAP1 POP SWAP2 SWAP1 POP JUMP JUMPDEST PUSH0 DUP3 DUP3 MSTORE PUSH1 0x20 DUP3 ADD SWAP1 POP SWAP3 SWAP2 POP POP JUMP JUMPDEST PUSH0 PUSH2 0x1B94 DUP3 PUSH2 0x19E3 JUMP JUMPDEST PUSH2 0x1B9E DUP2 DUP6 PUSH2 0x1B7A JUMP JUMPDEST SWAP4 POP PUSH2 0x1BA9 DUP4 PUSH2 0x19FD JUMP JUMPDEST DUP1 PUSH0 JUMPDEST DUP4 DUP2 LT ISZERO PUSH2 0x1BD9 JUMPI DUP2 MLOAD PUSH2 0x1BC0 DUP9 DUP3 PUSH2 0x1A1B JUMP JUMPDEST SWAP8 POP PUSH2 0x1BCB DUP4 PUSH2 0x1A32 JUMP JUMPDEST SWAP3 POP POP PUSH1 0x1 DUP2 ADD SWAP1 POP PUSH2 0x1BAC JUMP JUMPDEST POP DUP6 SWAP4 POP POP POP POP SWAP3 SWAP2 POP POP JUMP JUMPDEST PUSH0 PUSH2 0x1BF1 DUP4 DUP4 PUSH2 0x1B8A JUMP JUMPDEST SWAP1 POP SWAP3 SWAP2 POP POP JUMP JUMPDEST PUSH0 PUSH1 0x20 DUP3 ADD SWAP1 POP SWAP2 SWAP1 POP JUMP JUMPDEST PUSH0 PUSH2 0x1C0F DUP3 PUSH2 0x1B51 JUMP JUMPDEST PUSH2 0x1C19 DUP2 DUP6 PUSH2 0x1B5B JUMP JUMPDEST SWAP4 POP DUP4 PUSH1 0x20 DUP3 MUL DUP6 ADD PUSH2 0x1C2B DUP6 PUSH2 0x1B6B JUMP JUMPDEST DUP1 PUSH0 JUMPDEST DUP6 DUP2 LT ISZERO PUSH2 0x1C66 JUMPI DUP5 DUP5 SUB DUP10 MSTORE DUP2 MLOAD PUSH2 0x1C47 DUP6 DUP3 PUSH2 0x1BE6 JUMP JUMPDEST SWAP5 POP PUSH2 0x1C52 DUP4 PUSH2 0x1BF9 JUMP JUMPDEST SWAP3 POP PUSH1 0x20 DUP11 ADD SWAP10 POP POP PUSH1 0x1 DUP2 ADD SWAP1 POP PUSH2 0x1C2E JUMP JUMPDEST POP DUP3 SWAP8 POP DUP8 SWAP6 POP POP POP POP POP POP SWAP3 SWAP2 POP POP JUMP JUMPDEST PUSH0 PUSH1 0xE0 DUP3 ADD SWAP1 POP DUP2 DUP2 SUB PUSH0 DUP4 ADD MSTORE PUSH2 0x1C90 DUP2 DUP11 PUSH2 0x1970 JUMP JUMPDEST SWAP1 POP DUP2 DUP2 SUB PUSH1 0x20 DUP4 ADD MSTORE PUSH2 0x1CA4 DUP2 DUP10 PUSH2 0x1970 JUMP JUMPDEST SWAP1 POP DUP2 DUP2 SUB PUSH1 0x40 DUP4 ADD MSTORE PUSH2 0x1CB8 DUP2 DUP9 PUSH2 0x1A3E JUMP JUMPDEST SWAP1 POP DUP2 DUP2 SUB PUSH1 0x60 DUP4 ADD MSTORE PUSH2 0x1CCC DUP2 DUP8 PUSH2 0x1AF5 JUMP JUMPDEST SWAP1 POP DUP2 DUP2 SUB PUSH1 0x80 DUP4 ADD MSTORE PUSH2 0x1CE0 DUP2 DUP7 PUSH2 0x1AF5 JUMP JUMPDEST SWAP1 POP DUP2 DUP2 SUB PUSH1 0xA0 DUP4 ADD MSTORE PUSH2 0x1CF4 DUP2 DUP6 PUSH2 0x1970 JUMP JUMPDEST SWAP1 POP DUP2 DUP2 SUB PUSH1 0xC0 DUP4 ADD MSTORE PUSH2 0x1D08 DUP2 DUP5 PUSH2 0x1C05 JUMP JUMPDEST SWAP1 POP SWAP9 SWAP8 POP POP POP POP POP POP POP POP JUMP JUMPDEST PUSH1 0x3 DUP2 LT PUSH2 0x1D22 JUMPI PUSH0 DUP1 REVERT JUMPDEST POP JUMP JUMPDEST PUSH0 DUP2 CALLDATALOAD SWAP1 POP PUSH2 0x1D33 DUP2 PUSH2 0x1D16 JUMP JUMPDEST SWAP3 SWAP2 POP POP JUMP JUMPDEST PUSH0 DUP1 PUSH0 DUP1 PUSH1 0x80 DUP6 DUP8 SUB SLT ISZERO PUSH2 0x1D51 JUMPI PUSH2 0x1D50 PUSH2 0x146A JUMP JUMPDEST JUMPDEST PUSH0 PUSH2 0x1D5E DUP8 DUP3 DUP9 ADD PUSH2 0x1D25 JUMP JUMPDEST SWAP5 POP POP PUSH1 0x20 DUP6 ADD CALLDATALOAD PUSH8 0xFFFFFFFFFFFFFFFF DUP2 GT ISZERO PUSH2 0x1D7F JUMPI PUSH2 0x1D7E PUSH2 0x146E JUMP JUMPDEST JUMPDEST PUSH2 0x1D8B DUP8 DUP3 DUP9 ADD PUSH2 0x17DC JUMP JUMPDEST SWAP4 POP POP PUSH1 0x40 DUP6 ADD CALLDATALOAD PUSH8 0xFFFFFFFFFFFFFFFF DUP2 GT ISZERO PUSH2 0x1DAC JUMPI PUSH2 0x1DAB PUSH2 0x146E JUMP JUMPDEST JUMPDEST PUSH2 0x1DB8 DUP8 DUP3 DUP9 ADD PUSH2 0x17DC JUMP JUMPDEST SWAP3 POP POP PUSH1 0x60 DUP6 ADD CALLDATALOAD PUSH8 0xFFFFFFFFFFFFFFFF DUP2 GT ISZERO PUSH2 0x1DD9 JUMPI PUSH2 0x1DD8 PUSH2 0x146E JUMP JUMPDEST JUMPDEST PUSH2 0x1DE5 DUP8 DUP3 DUP9 ADD PUSH2 0x17DC JUMP JUMPDEST SWAP2 POP POP SWAP3 SWAP6 SWAP2 SWAP5 POP SWAP3 POP JUMP JUMPDEST PUSH0 PUSH1 0x20 DUP3 ADD SWAP1 POP PUSH2 0x1E04 PUSH0 DUP4 ADD DUP5 PUSH2 0x14F7 JUMP JUMPDEST SWAP3 SWAP2 POP POP JUMP JUMPDEST PUSH2 0x1E13 DUP2 PUSH2 0x1559 JUMP JUMPDEST DUP3 MSTORE POP POP JUMP JUMPDEST PUSH0 DUP3 DUP3 MSTORE PUSH1 0x20 DUP3 ADD SWAP1 POP SWAP3 SWAP2 POP POP JUMP JUMPDEST PUSH0 PUSH2 0x1E33 DUP3 PUSH2 0x1A9A JUMP JUMPDEST PUSH2 0x1E3D DUP2 DUP6 PUSH2 0x1E19 JUMP JUMPDEST SWAP4 POP PUSH2 0x1E48 DUP4 PUSH2 0x1AB4 JUMP JUMPDEST DUP1 PUSH0 JUMPDEST DUP4 DUP2 LT ISZERO PUSH2 0x1E78 JUMPI DUP2 MLOAD PUSH2 0x1E5F DUP9 DUP3 PUSH2 0x1AD2 JUMP JUMPDEST SWAP8 POP PUSH2 0x1E6A DUP4 PUSH2 0x1AE9 JUMP JUMPDEST SWAP3 POP POP PUSH1 0x1 DUP2 ADD SWAP1 POP PUSH2 0x1E4B JUMP JUMPDEST POP DUP6 SWAP4 POP POP POP POP SWAP3 SWAP2 POP POP JUMP JUMPDEST PUSH0 PUSH1 0xE0 DUP4 ADD PUSH0 DUP4 ADD MLOAD PUSH2 0x1E9A PUSH0 DUP7 ADD DUP3 PUSH2 0x1A0C JUMP JUMPDEST POP PUSH1 0x20 DUP4 ADD MLOAD PUSH2 0x1EAD PUSH1 0x20 DUP7 ADD DUP3 PUSH2 0x1E0A JUMP JUMPDEST POP PUSH1 0x40 DUP4 ADD MLOAD PUSH2 0x1EC0 PUSH1 0x40 DUP7 ADD DUP3 PUSH2 0x1AC3 JUMP JUMPDEST POP PUSH1 0x60 DUP4 ADD MLOAD DUP5 DUP3 SUB PUSH1 0x60 DUP7 ADD MSTORE PUSH2 0x1ED8 DUP3 DUP3 PUSH2 0x1919 JUMP JUMPDEST SWAP2 POP POP PUSH1 0x80 DUP4 ADD MLOAD DUP5 DUP3 SUB PUSH1 0x80 DUP7 ADD MSTORE PUSH2 0x1EF2 DUP3 DUP3 PUSH2 0x1919 JUMP JUMPDEST SWAP2 POP POP PUSH1 0xA0 DUP4 ADD MLOAD DUP5 DUP3 SUB PUSH1 0xA0 DUP7 ADD MSTORE PUSH2 0x1F0C DUP3 DUP3 PUSH2 0x1919 JUMP JUMPDEST SWAP2 POP POP PUSH1 0xC0 DUP4 ADD MLOAD DUP5 DUP3 SUB PUSH1 0xC0 DUP7 ADD MSTORE PUSH2 0x1F26 DUP3 DUP3 PUSH2 0x1E29 JUMP JUMPDEST SWAP2 POP POP DUP1 SWAP2 POP POP SWAP3 SWAP2 POP POP JUMP JUMPDEST PUSH0 PUSH1 0x20 DUP3 ADD SWAP1 POP DUP2 DUP2 SUB PUSH0 DUP4 ADD MSTORE PUSH2 0x1F4B DUP2 DUP5 PUSH2 0x1E85 JUMP JUMPDEST SWAP1 POP SWAP3 SWAP2 POP POP JUMP JUMPDEST PUSH0 PUSH1 0x20 DUP3 ADD SWAP1 POP PUSH2 0x1F66 PUSH0 DUP4 ADD DUP5 PUSH2 0x156A JUMP JUMPDEST SWAP3 SWAP2 POP POP JUMP JUMPDEST PUSH32 0x4E487B7100000000000000000000000000000000000000000000000000000000 PUSH0 MSTORE PUSH1 0x22 PUSH1 0x4 MSTORE PUSH1 0x24 PUSH0 REVERT JUMPDEST PUSH0 PUSH1 0x2 DUP3 DIV SWAP1 POP PUSH1 0x1 DUP3 AND DUP1 PUSH2 0x1FB0 JUMPI PUSH1 0x7F DUP3 AND SWAP2 POP JUMPDEST PUSH1 0x20 DUP3 LT DUP2 SUB PUSH2 0x1FC3 JUMPI PUSH2 0x1FC2 PUSH2 0x1F6C JUMP JUMPDEST JUMPDEST POP SWAP2 SWAP1 POP JUMP JUMPDEST PUSH32 0x4F6E6C7920446F6E6174696F6E7320636F6E74726163742063616E2063616C6C PUSH0 DUP3 ADD MSTORE PUSH32 0x20746869732066756E6374696F6E2E0000000000000000000000000000000000 PUSH1 0x20 DUP3 ADD MSTORE POP JUMP JUMPDEST PUSH0 PUSH2 0x2023 PUSH1 0x2F DUP4 PUSH2 0x159B JUMP JUMPDEST SWAP2 POP PUSH2 0x202E DUP3 PUSH2 0x1FC9 JUMP JUMPDEST PUSH1 0x40 DUP3 ADD SWAP1 POP SWAP2 SWAP1 POP JUMP JUMPDEST PUSH0 PUSH1 0x20 DUP3 ADD SWAP1 POP DUP2 DUP2 SUB PUSH0 DUP4 ADD MSTORE PUSH2 0x2050 DUP2 PUSH2 0x2017 JUMP JUMPDEST SWAP1 POP SWAP2 SWAP1 POP JUMP JUMPDEST PUSH32 0x4F776E65722070726F66696C6520646F6573206E6F742065786973742E000000 PUSH0 DUP3 ADD MSTORE POP JUMP JUMPDEST PUSH0 PUSH2 0x208B PUSH1 0x1D DUP4 PUSH2 0x159B JUMP JUMPDEST SWAP2 POP PUSH2 0x2096 DUP3 PUSH2 0x2057 JUMP JUMPDEST PUSH1 0x20 DUP3 ADD SWAP1 POP SWAP2 SWAP1 POP JUMP JUMPDEST PUSH0 PUSH1 0x20 DUP3 ADD SWAP1 POP DUP2 DUP2 SUB PUSH0 DUP4 ADD MSTORE PUSH2 0x20B8 DUP2 PUSH2 0x207F JUMP JUMPDEST SWAP1 POP SWAP2 SWAP1 POP JUMP JUMPDEST PUSH0 DUP2 SWAP1 POP DUP2 PUSH0 MSTORE PUSH1 0x20 PUSH0 KECCAK256 SWAP1 POP SWAP2 SWAP1 POP JUMP JUMPDEST PUSH0 PUSH1 0x20 PUSH1 0x1F DUP4 ADD DIV SWAP1 POP SWAP2 SWAP1 POP JUMP JUMPDEST PUSH0 DUP3 DUP3 SHL SWAP1 POP SWAP3 SWAP2 POP POP JUMP JUMPDEST PUSH0 PUSH1 0x8 DUP4 MUL PUSH2 0x211B PUSH32 0xFFFFFFFFFFFFFFFFFFFFFFFFFFFFFFFFFFFFFFFFFFFFFFFFFFFFFFFFFFFFFFFF DUP3 PUSH2 0x20E0 JUMP JUMPDEST PUSH2 0x2125 DUP7 DUP4 PUSH2 0x20E0 JUMP JUMPDEST SWAP6 POP DUP1 NOT DUP5 AND SWAP4 POP DUP1 DUP7 AND DUP5 OR SWAP3 POP POP POP SWAP4 SWAP3 POP POP POP JUMP JUMPDEST PUSH0 DUP2 SWAP1 POP SWAP2 SWAP1 POP JUMP JUMPDEST PUSH0 PUSH2 0x2160 PUSH2 0x215B PUSH2 0x2156 DUP5 PUSH2 0x1579 JUMP JUMPDEST PUSH2 0x213D JUMP JUMPDEST PUSH2 0x1579 JUMP JUMPDEST SWAP1 POP SWAP2 SWAP1 POP JUMP JUMPDEST PUSH0 DUP2 SWAP1 POP SWAP2 SWAP1 POP JUMP JUMPDEST PUSH2 0x2179 DUP4 PUSH2 0x2146 JUMP JUMPDEST PUSH2 0x218D PUSH2 0x2185 DUP3 PUSH2 0x2167 JUMP JUMPDEST DUP5 DUP5 SLOAD PUSH2 0x20EC JUMP JUMPDEST DUP3 SSTORE POP POP POP POP JUMP JUMPDEST PUSH0 SWAP1 JUMP JUMPDEST PUSH2 0x21A1 PUSH2 0x2195 JUMP JUMPDEST PUSH2 0x21AC DUP2 DUP5 DUP5 PUSH2 0x2170 JUMP JUMPDEST POP POP POP JUMP JUMPDEST JUMPDEST DUP2 DUP2 LT ISZERO PUSH2 0x21CF JUMPI PUSH2 0x21C4 PUSH0 DUP3 PUSH2 0x2199 JUMP JUMPDEST PUSH1 0x1 DUP2 ADD SWAP1 POP PUSH2 0x21B2 JUMP JUMPDEST POP POP JUMP JUMPDEST PUSH1 0x1F DUP3 GT ISZERO PUSH2 0x2214 JUMPI PUSH2 0x21E5 DUP2 PUSH2 0x20BF JUMP JUMPDEST PUSH2 0x21EE DUP5 PUSH2 0x20D1 JUMP JUMPDEST DUP2 ADD PUSH1 0x20 DUP6 LT ISZERO PUSH2 0x21FD JUMPI DUP2 SWAP1 POP JUMPDEST PUSH2 0x2211 PUSH2 0x2209 DUP6 PUSH2 0x20D1 JUMP JUMPDEST DUP4 ADD DUP3 PUSH2 0x21B1 JUMP JUMPDEST POP POP JUMPDEST POP POP POP JUMP JUMPDEST PUSH0 DUP3 DUP3 SHR SWAP1 POP SWAP3 SWAP2 POP POP JUMP JUMPDEST PUSH0 PUSH2 0x2234 PUSH0 NOT DUP5 PUSH1 0x8 MUL PUSH2 0x2219 JUMP JUMPDEST NOT DUP1 DUP4 AND SWAP2 POP POP SWAP3 SWAP2 POP POP JUMP JUMPDEST PUSH0 PUSH2 0x224C DUP4 DUP4 PUSH2 0x2225 JUMP JUMPDEST SWAP2 POP DUP3 PUSH1 0x2 MUL DUP3 OR SWAP1 POP SWAP3 SWAP2 POP POP JUMP JUMPDEST PUSH2 0x2265 DUP3 PUSH2 0x1591 JUMP JUMPDEST PUSH8 0xFFFFFFFFFFFFFFFF DUP2 GT ISZERO PUSH2 0x227E JUMPI PUSH2 0x227D PUSH2 0x16E5 JUMP JUMPDEST JUMPDEST PUSH2 0x2288 DUP3 SLOAD PUSH2 0x1F99 JUMP JUMPDEST PUSH2 0x2293 DUP3 DUP3 DUP6 PUSH2 0x21D3 JUMP JUMPDEST PUSH0 PUSH1 0x20 SWAP1 POP PUSH1 0x1F DUP4 GT PUSH1 0x1 DUP2 EQ PUSH2 0x22C4 JUMPI PUSH0 DUP5 ISZERO PUSH2 0x22B2 JUMPI DUP3 DUP8 ADD MLOAD SWAP1 POP JUMPDEST PUSH2 0x22BC DUP6 DUP3 PUSH2 0x2241 JUMP JUMPDEST DUP7 SSTORE POP PUSH2 0x2323 JUMP JUMPDEST PUSH1 0x1F NOT DUP5 AND PUSH2 0x22D2 DUP7 PUSH2 0x20BF JUMP JUMPDEST PUSH0 JUMPDEST DUP3 DUP2 LT ISZERO PUSH2 0x22F9 JUMPI DUP5 DUP10 ADD MLOAD DUP3 SSTORE PUSH1 0x1 DUP3 ADD SWAP2 POP PUSH1 0x20 DUP6 ADD SWAP5 POP PUSH1 0x20 DUP2 ADD SWAP1 POP PUSH2 0x22D4 JUMP JUMPDEST DUP7 DUP4 LT ISZERO PUSH2 0x2316 JUMPI DUP5 DUP10 ADD MLOAD PUSH2 0x2312 PUSH1 0x1F DUP10 AND DUP3 PUSH2 0x2225 JUMP JUMPDEST DUP4 SSTORE POP JUMPDEST PUSH1 0x1 PUSH1 0x2 DUP9 MUL ADD DUP9 SSTORE POP POP POP JUMPDEST POP POP POP POP POP POP JUMP JUMPDEST PUSH32 0x4E487B7100000000000000000000000000000000000000000000000000000000 PUSH0 MSTORE PUSH1 0x32 PUSH1 0x4 MSTORE PUSH1 0x24 PUSH0 REVERT JUMPDEST PUSH0 PUSH1 0x20 DUP3 ADD SWAP1 POP PUSH2 0x236B PUSH0 DUP4 ADD DUP5 PUSH2 0x1582 JUMP JUMPDEST SWAP3 SWAP2 POP POP JUMP JUMPDEST PUSH0 PUSH2 0x2383 PUSH2 0x237E DUP5 PUSH2 0x175D JUMP JUMPDEST PUSH2 0x1743 JUMP JUMPDEST SWAP1 POP DUP3 DUP2 MSTORE PUSH1 0x20 DUP2 ADD DUP5 DUP5 DUP5 ADD GT ISZERO PUSH2 0x239F JUMPI PUSH2 0x239E PUSH2 0x16E1 JUMP JUMPDEST JUMPDEST PUSH2 0x23AA DUP5 DUP3 DUP6 PUSH2 0x15AB JUMP JUMPDEST POP SWAP4 SWAP3 POP POP POP JUMP JUMPDEST PUSH0 DUP3 PUSH1 0x1F DUP4 ADD SLT PUSH2 0x23C6 JUMPI PUSH2 0x23C5 PUSH2 0x16DD JUMP JUMPDEST JUMPDEST DUP2 MLOAD PUSH2 0x23D6 DUP5 DUP3 PUSH1 0x20 DUP7 ADD PUSH2 0x2371 JUMP JUMPDEST SWAP2 POP POP SWAP3 SWAP2 POP POP JUMP JUMPDEST PUSH0 DUP2 MLOAD SWAP1 POP PUSH2 0x23ED DUP2 PUSH2 0x14A2 JUMP JUMPDEST SWAP3 SWAP2 POP POP JUMP JUMPDEST PUSH0 DUP2 MLOAD SWAP1 POP PUSH2 0x2401 DUP2 PUSH2 0x1675 JUMP JUMPDEST SWAP3 SWAP2 POP POP JUMP JUMPDEST PUSH0 PUSH8 0xFFFFFFFFFFFFFFFF DUP3 GT ISZERO PUSH2 0x2421 JUMPI PUSH2 0x2420 PUSH2 0x16E5 JUMP JUMPDEST JUMPDEST PUSH1 0x20 DUP3 MUL SWAP1 POP PUSH1 0x20 DUP2 ADD SWAP1 POP SWAP2 SWAP1 POP JUMP JUMPDEST PUSH0 DUP1 REVERT JUMPDEST PUSH0 PUSH2 0x2448 PUSH2 0x2443 DUP5 PUSH2 0x2407 JUMP JUMPDEST PUSH2 0x1743 JUMP JUMPDEST SWAP1 POP DUP1 DUP4 DUP3 MSTORE PUSH1 0x20 DUP3 ADD SWAP1 POP PUSH1 0x20 DUP5 MUL DUP4 ADD DUP6 DUP2 GT ISZERO PUSH2 0x246B JUMPI PUSH2 0x246A PUSH2 0x2432 JUMP JUMPDEST JUMPDEST DUP4 JUMPDEST DUP2 DUP2 LT ISZERO PUSH2 0x2494 JUMPI DUP1 PUSH2 0x2480 DUP9 DUP3 PUSH2 0x23DF JUMP JUMPDEST DUP5 MSTORE PUSH1 0x20 DUP5 ADD SWAP4 POP POP PUSH1 0x20 DUP2 ADD SWAP1 POP PUSH2 0x246D JUMP JUMPDEST POP POP POP SWAP4 SWAP3 POP POP POP JUMP JUMPDEST PUSH0 DUP3 PUSH1 0x1F DUP4 ADD SLT PUSH2 0x24B2 JUMPI PUSH2 0x24B1 PUSH2 0x16DD JUMP JUMPDEST JUMPDEST DUP2 MLOAD PUSH2 0x24C2 DUP5 DUP3 PUSH1 0x20 DUP7 ADD PUSH2 0x2436 JUMP JUMPDEST SWAP2 POP POP SWAP3 SWAP2 POP POP JUMP JUMPDEST PUSH0 DUP1 PUSH0 DUP1 PUSH0 DUP1 PUSH0 PUSH1 0xE0 DUP9 DUP11 SUB SLT ISZERO PUSH2 0x24E6 JUMPI PUSH2 0x24E5 PUSH2 0x146A JUMP JUMPDEST JUMPDEST PUSH0 DUP9 ADD MLOAD PUSH8 0xFFFFFFFFFFFFFFFF DUP2 GT ISZERO PUSH2 0x2503 JUMPI PUSH2 0x2502 PUSH2 0x146E JUMP JUMPDEST JUMPDEST PUSH2 0x250F DUP11 DUP3 DUP12 ADD PUSH2 0x23B2 JUMP JUMPDEST SWAP8 POP POP PUSH1 0x20 DUP9 ADD MLOAD PUSH8 0xFFFFFFFFFFFFFFFF DUP2 GT ISZERO PUSH2 0x2530 JUMPI PUSH2 0x252F PUSH2 0x146E JUMP JUMPDEST JUMPDEST PUSH2 0x253C DUP11 DUP3 DUP12 ADD PUSH2 0x23B2 JUMP JUMPDEST SWAP7 POP POP PUSH1 0x40 PUSH2 0x254D DUP11 DUP3 DUP12 ADD PUSH2 0x23DF JUMP JUMPDEST SWAP6 POP POP PUSH1 0x60 PUSH2 0x255E DUP11 DUP3 DUP12 ADD PUSH2 0x23F3 JUMP JUMPDEST SWAP5 POP POP PUSH1 0x80 PUSH2 0x256F DUP11 DUP3 DUP12 ADD PUSH2 0x23F3 JUMP JUMPDEST SWAP4 POP POP PUSH1 0xA0 DUP9 ADD MLOAD PUSH8 0xFFFFFFFFFFFFFFFF DUP2 GT ISZERO PUSH2 0x2590 JUMPI PUSH2 0x258F PUSH2 0x146E JUMP JUMPDEST JUMPDEST PUSH2 0x259C DUP11 DUP3 DUP12 ADD PUSH2 0x23B2 JUMP JUMPDEST SWAP3 POP POP PUSH1 0xC0 DUP9 ADD MLOAD PUSH8 0xFFFFFFFFFFFFFFFF DUP2 GT ISZERO PUSH2 0x25BD JUMPI PUSH2 0x25BC PUSH2 0x146E JUMP JUMPDEST JUMPDEST PUSH2 0x25C9 DUP11 DUP3 DUP12 ADD PUSH2 0x249E JUMP JUMPDEST SWAP2 POP POP SWAP3 SWAP6 SWAP9 SWAP2 SWAP5 SWAP8 POP SWAP3 SWAP6 POP JUMP JUMPDEST PUSH32 0x4F776E65722070726F66696C6520616C7265616479206578697374732E000000 PUSH0 DUP3 ADD MSTORE POP JUMP JUMPDEST PUSH0 PUSH2 0x260C PUSH1 0x1D DUP4 PUSH2 0x159B JUMP JUMPDEST SWAP2 POP PUSH2 0x2617 DUP3 PUSH2 0x25D8 JUMP JUMPDEST PUSH1 0x20 DUP3 ADD SWAP1 POP SWAP2 SWAP1 POP JUMP JUMPDEST PUSH0 PUSH1 0x20 DUP3 ADD SWAP1 POP DUP2 DUP2 SUB PUSH0 DUP4 ADD MSTORE PUSH2 0x2639 DUP2 PUSH2 0x2600 JUMP JUMPDEST SWAP1 POP SWAP2 SWAP1 POP JUMP INVALID LOG2 PUSH5 0x6970667358 0x22 SLT KECCAK256 POP 0xBD PUSH8 0xAFA03F2565AC1D8E 0xB3 PUSH14 0x340F672C54702344F7D8BD553FBA DUP7 0xAB 0xDC 0x24 0xE2 PUSH5 0x736F6C6343 STOP ADDMOD BYTE STOP CALLER "
				},
				"gasEstimates": {
					"creation": {
						"codeDepositCost": "1969200",
						"executionCost": "infinite",
						"totalCost": "infinite"
					},
					"external": {
						"addCampaign(address,uint256)": "51588",
						"createOwnerProfile(uint8,string,string,string)": "infinite",
						"donationsContract()": "2530",
						"getCampaigns(address)": "infinite",
						"getOwnerDetails(address)": "infinite",
						"getOwnerRole(address)": "3102",
						"isProfileActive(address)": "5108",
						"isProfileOwner(address)": "5129",
						"owners(address)": "infinite",
						"updateOwnerProfile(string,string,string)": "infinite"
					}
				},
				"methodIdentifiers": {
					"addCampaign(address,uint256)": "03d7a671",
					"createOwnerProfile(uint8,string,string,string)": "1afd3e8d",
					"donationsContract()": "35f85c5a",
					"getCampaigns(address)": "1693bfa1",
					"getOwnerDetails(address)": "c3bb8121",
					"getOwnerRole(address)": "f5110205",
					"isProfileActive(address)": "abaf78d4",
					"isProfileOwner(address)": "13c876a2",
					"owners(address)": "022914a7",
					"updateOwnerProfile(string,string,string)": "09261a9e"
				}
			},
			"storageLayout": {
				"storage": [
					{
						"astId": 48,
						"contract": "Blockchain_project/ProfileManager.sol:ProfileManager",
						"label": "owners",
						"offset": 0,
						"slot": "0",
						"type": "t_mapping(t_address,t_struct(Owner)43_storage)"
					},
					{
						"astId": 50,
						"contract": "Blockchain_project/ProfileManager.sol:ProfileManager",
						"label": "donationsContract",
						"offset": 0,
						"slot": "1",
						"type": "t_address"
					},
					{
						"astId": 53,
						"contract": "Blockchain_project/ProfileManager.sol:ProfileManager",
						"label": "donationsInstance",
						"offset": 0,
						"slot": "2",
						"type": "t_contract(DonationsInterface)22"
					}
				],
				"types": {
					"t_address": {
						"encoding": "inplace",
						"label": "address",
						"numberOfBytes": "20"
					},
					"t_array(t_uint256)dyn_storage": {
						"base": "t_uint256",
						"encoding": "dynamic_array",
						"label": "uint256[]",
						"numberOfBytes": "32"
					},
					"t_contract(DonationsInterface)22": {
						"encoding": "inplace",
						"label": "contract DonationsInterface",
						"numberOfBytes": "20"
					},
					"t_enum(Role)26": {
						"encoding": "inplace",
						"label": "enum ProfileManager.Role",
						"numberOfBytes": "1"
					},
					"t_mapping(t_address,t_struct(Owner)43_storage)": {
						"encoding": "mapping",
						"key": "t_address",
						"label": "mapping(address => struct ProfileManager.Owner)",
						"numberOfBytes": "32",
						"value": "t_struct(Owner)43_storage"
					},
					"t_string_storage": {
						"encoding": "bytes",
						"label": "string",
						"numberOfBytes": "32"
					},
					"t_struct(Owner)43_storage": {
						"encoding": "inplace",
						"label": "struct ProfileManager.Owner",
						"members": [
							{
								"astId": 28,
								"contract": "Blockchain_project/ProfileManager.sol:ProfileManager",
								"label": "ownerAddress",
								"offset": 0,
								"slot": "0",
								"type": "t_address"
							},
							{
								"astId": 31,
								"contract": "Blockchain_project/ProfileManager.sol:ProfileManager",
								"label": "role",
								"offset": 20,
								"slot": "0",
								"type": "t_enum(Role)26"
							},
							{
								"astId": 33,
								"contract": "Blockchain_project/ProfileManager.sol:ProfileManager",
								"label": "creationDate",
								"offset": 0,
								"slot": "1",
								"type": "t_uint256"
							},
							{
								"astId": 35,
								"contract": "Blockchain_project/ProfileManager.sol:ProfileManager",
								"label": "name",
								"offset": 0,
								"slot": "2",
								"type": "t_string_storage"
							},
							{
								"astId": 37,
								"contract": "Blockchain_project/ProfileManager.sol:ProfileManager",
								"label": "profileImage",
								"offset": 0,
								"slot": "3",
								"type": "t_string_storage"
							},
							{
								"astId": 39,
								"contract": "Blockchain_project/ProfileManager.sol:ProfileManager",
								"label": "description",
								"offset": 0,
								"slot": "4",
								"type": "t_string_storage"
							},
							{
								"astId": 42,
								"contract": "Blockchain_project/ProfileManager.sol:ProfileManager",
								"label": "campaignIds",
								"offset": 0,
								"slot": "5",
								"type": "t_array(t_uint256)dyn_storage"
							}
						],
						"numberOfBytes": "192"
					},
					"t_uint256": {
						"encoding": "inplace",
						"label": "uint256",
						"numberOfBytes": "32"
					}
				}
			},
			"userdoc": {
				"kind": "user",
				"methods": {},
				"version": 1
			}
		}
	}
}