{
	"data": {
		"bytecode": {
			"linkReferences": {},
			"object": "60806040525f600555348015610013575f80fd5b506040516146a13803806146a1833981810160405281019061003591906101be565b805f806101000a81548173ffffffffffffffffffffffffffffffffffffffff021916908373ffffffffffffffffffffffffffffffffffffffff1602179055503060015f6101000a81548173ffffffffffffffffffffffffffffffffffffffff021916908373ffffffffffffffffffffffffffffffffffffffff1602179055505f8054906101000a900473ffffffffffffffffffffffffffffffffffffffff1673ffffffffffffffffffffffffffffffffffffffff16630eb8d0e860015f9054906101000a900473ffffffffffffffffffffffffffffffffffffffff166040518263ffffffff1660e01b815260040161012d91906101f8565b5f604051808303815f87803b158015610144575f80fd5b505af1158015610156573d5f803e3d5ffd5b5050505050610211565b5f80fd5b5f73ffffffffffffffffffffffffffffffffffffffff82169050919050565b5f61018d82610164565b9050919050565b61019d81610183565b81146101a7575f80fd5b50565b5f815190506101b881610194565b92915050565b5f602082840312156101d3576101d2610160565b5b5f6101e0848285016101aa565b91505092915050565b6101f281610183565b82525050565b5f60208201905061020b5f8301846101e9565b92915050565b6144838061021e5f395ff3fe6080604052600436106100e0575f3560e01c80637274e30d1161007e578063ee1554a311610058578063ee1554a314610302578063f14faf6f1461033e578063f3f5142e1461035a578063f8f34cde14610384576100e7565b80637274e30d1461026f578063d993de6214610299578063e2c341a2146102da576100e7565b80633b594a68116100ba5780633b594a68146101a55780634a7de20a146101e15780635598f8cc146102095780635791913f14610245576100e7565b80630fa91fa9146100eb578063141961bc146101275780632bd8647b14610169576100e7565b366100e757005b5f80fd5b3480156100f6575f80fd5b50610111600480360381019061010c9190611673565b6103ac565b60405161011e9190611785565b60405180910390f35b348015610132575f80fd5b5061014d60048036038101906101489190611673565b6104a8565b604051610160979695949392919061188e565b60405180910390f35b348015610174575f80fd5b5061018f600480360381019061018a9190611673565b610630565b60405161019c9190611909565b60405180910390f35b3480156101b0575f80fd5b506101cb60048036038101906101c69190611673565b6106c9565b6040516101d8919061193c565b60405180910390f35b3480156101ec575f80fd5b5061020760048036038101906102029190611a81565b6106e6565b005b348015610214575f80fd5b5061022f600480360381019061022a9190611673565b610861565b60405161023c9190611d3f565b60405180910390f35b348015610250575f80fd5b50610259610c30565b6040516102669190611909565b60405180910390f35b34801561027a575f80fd5b50610283610c55565b6040516102909190611d5f565b60405180910390f35b3480156102a4575f80fd5b506102bf60048036038101906102ba9190611673565b610c5b565b6040516102d196959493929190611d78565b60405180910390f35b3480156102e5575f80fd5b5061030060048036038101906102fb9190611ed3565b610dda565b005b34801561030d575f80fd5b5061032860048036038101906103239190611f9e565b6110b9565b6040516103359190611d5f565b60405180910390f35b61035860048036038101906103539190611673565b6110d9565b005b348015610365575f80fd5b5061036e61134f565b60405161037b919061200d565b60405180910390f35b34801561038f575f80fd5b506103aa60048036038101906103a59190612026565b611372565b005b606060045f8381526020019081526020015f205f9054906101000a900460ff1661040b576040517f08c379a0000000000000000000000000000000000000000000000000000000008152600401610402906120c0565b60405180910390fd5b60025f8381526020019081526020015f2060070180548060200260200160405190810160405280929190818152602001828054801561049c57602002820191905f5260205f20905b815f9054906101000a900473ffffffffffffffffffffffffffffffffffffffff1673ffffffffffffffffffffffffffffffffffffffff1681526020019060010190808311610453575b50505050509050919050565b6002602052805f5260405f205f91509050805f015f9054906101000a900473ffffffffffffffffffffffffffffffffffffffff16908060010180546104ec9061210b565b80601f01602080910402602001604051908101604052809291908181526020018280546105189061210b565b80156105635780601f1061053a57610100808354040283529160200191610563565b820191905f5260205f20905b81548152906001019060200180831161054657829003601f168201915b5050505050908060020180546105789061210b565b80601f01602080910402602001604051908101604052809291908181526020018280546105a49061210b565b80156105ef5780601f106105c6576101008083540402835291602001916105ef565b820191905f5260205f20905b8154815290600101906020018083116105d257829003601f168201915b505050505090806003015490806004015490806005015490806008015f9054906101000a900473ffffffffffffffffffffffffffffffffffffffff16905087565b5f60045f8381526020019081526020015f205f9054906101000a900460ff1661068e576040517f08c379a0000000000000000000000000000000000000000000000000000000008152600401610685906120c0565b60405180910390fd5b60025f8381526020019081526020015f206008015f9054906101000a900473ffffffffffffffffffffffffffffffffffffffff169050919050565b6004602052805f5260405f205f915054906101000a900460ff1681565b60045f8381526020019081526020015f205f9054906101000a900460ff16610743576040517f08c379a000000000000000000000000000000000000000000000000000000000815260040161073a906120c0565b60405180910390fd5b5f8054906101000a900473ffffffffffffffffffffffffffffffffffffffff1673ffffffffffffffffffffffffffffffffffffffff166313c876a2336040518263ffffffff1660e01b815260040161079b9190611909565b602060405180830381865afa1580156107b6573d5f803e3d5ffd5b505050506040513d601f19601f820116820180604052508101906107da9190612165565b610819576040517f08c379a000000000000000000000000000000000000000000000000000000000815260040161081090612200565b60405180910390fd5b60025f8381526020019081526020015f2060060181908060018154018082558091505060019003905f5260205f20015f90919091909150908161085c91906123b2565b505050565b6108696115af565b60045f8381526020019081526020015f205f9054906101000a900460ff166108c6576040517f08c379a00000000000000000000000000000000000000000000000000000000081526004016108bd906120c0565b60405180910390fd5b60025f8381526020019081526020015f20604051806101200160405290815f82015f9054906101000a900473ffffffffffffffffffffffffffffffffffffffff1673ffffffffffffffffffffffffffffffffffffffff1673ffffffffffffffffffffffffffffffffffffffff1681526020016001820180546109479061210b565b80601f01602080910402602001604051908101604052809291908181526020018280546109739061210b565b80156109be5780601f10610995576101008083540402835291602001916109be565b820191905f5260205f20905b8154815290600101906020018083116109a157829003601f168201915b505050505081526020016002820180546109d79061210b565b80601f0160208091040260200160405190810160405280929190818152602001828054610a039061210b565b8015610a4e5780601f10610a2557610100808354040283529160200191610a4e565b820191905f5260205f20905b815481529060010190602001808311610a3157829003601f168201915b5050505050815260200160038201548152602001600482015481526020016005820154815260200160068201805480602002602001604051908101604052809291908181526020015f905b82821015610b41578382905f5260205f20018054610ab69061210b565b80601f0160208091040260200160405190810160405280929190818152602001828054610ae29061210b565b8015610b2d5780601f10610b0457610100808354040283529160200191610b2d565b820191905f5260205f20905b815481529060010190602001808311610b1057829003601f168201915b505050505081526020019060010190610a99565b50505050815260200160078201805480602002602001604051908101604052809291908181526020018280548015610bcb57602002820191905f5260205f20905b815f9054906101000a900473ffffffffffffffffffffffffffffffffffffffff1673ffffffffffffffffffffffffffffffffffffffff1681526020019060010190808311610b82575b50505050508152602001600882015f9054906101000a900473ffffffffffffffffffffffffffffffffffffffff1673ffffffffffffffffffffffffffffffffffffffff1673ffffffffffffffffffffffffffffffffffffffff16815250509050919050565b60015f9054906101000a900473ffffffffffffffffffffffffffffffffffffffff1681565b60055481565b5f6060805f805f8060025f8981526020019081526020015f209050805f015f9054906101000a900473ffffffffffffffffffffffffffffffffffffffff168160010182600201836003015484600401548560050154848054610cbc9061210b565b80601f0160208091040260200160405190810160405280929190818152602001828054610ce89061210b565b8015610d335780601f10610d0a57610100808354040283529160200191610d33565b820191905f5260205f20905b815481529060010190602001808311610d1657829003601f168201915b50505050509450838054610d469061210b565b80601f0160208091040260200160405190810160405280929190818152602001828054610d729061210b565b8015610dbd5780601f10610d9457610100808354040283529160200191610dbd565b820191905f5260205f20905b815481529060010190602001808311610da057829003601f168201915b505050505093509650965096509650965096505091939550919395565b5f8054906101000a900473ffffffffffffffffffffffffffffffffffffffff1673ffffffffffffffffffffffffffffffffffffffff166313c876a2336040518263ffffffff1660e01b8152600401610e329190611909565b602060405180830381865afa158015610e4d573d5f803e3d5ffd5b505050506040513d601f19601f82011682018060405250810190610e719190612165565b610eb0576040517f08c379a0000000000000000000000000000000000000000000000000000000008152600401610ea7906124cb565b60405180910390fd5b5f825111610ef3576040517f08c379a0000000000000000000000000000000000000000000000000000000008152600401610eea90612533565b60405180910390fd5b5f81118015610f03575081518111155b610f42576040517f08c379a0000000000000000000000000000000000000000000000000000000008152600401610f399061259b565b60405180910390fd5b60055f815480929190610f54906125e6565b91905055505f60025f60055481526020019081526020015f20905085816001019081610f8091906123b2565b5084816002019081610f9291906123b2565b508381600301819055505f81600401819055505f816005018190555033815f015f6101000a81548173ffffffffffffffffffffffffffffffffffffffff021916908373ffffffffffffffffffffffffffffffffffffffff160217905550828260015f9054906101000a900473ffffffffffffffffffffffffffffffffffffffff1660405161101f90611622565b61102b9392919061262d565b604051809103905ff080158015611044573d5f803e3d5ffd5b50816008015f6101000a81548173ffffffffffffffffffffffffffffffffffffffff021916908373ffffffffffffffffffffffffffffffffffffffff160217905550600160045f60055481526020019081526020015f205f6101000a81548160ff021916908315150217905550505050505050565b6003602052815f5260405f20602052805f5260405f205f91509150505481565b60045f8281526020019081526020015f205f9054906101000a900460ff16611136576040517f08c379a000000000000000000000000000000000000000000000000000000000815260040161112d906120c0565b60405180910390fd5b5f8054906101000a900473ffffffffffffffffffffffffffffffffffffffff1673ffffffffffffffffffffffffffffffffffffffff1663abaf78d4336040518263ffffffff1660e01b815260040161118e9190611909565b602060405180830381865afa1580156111a9573d5f803e3d5ffd5b505050506040513d601f19601f820116820180604052508101906111cd9190612165565b61120c576040517f08c379a0000000000000000000000000000000000000000000000000000000008152600401611203906126b3565b60405180910390fd5b5f341161124e576040517f08c379a00000000000000000000000000000000000000000000000000000000081526004016112459061271b565b60405180910390fd5b3460035f8381526020019081526020015f205f3373ffffffffffffffffffffffffffffffffffffffff1673ffffffffffffffffffffffffffffffffffffffff1681526020019081526020015f205f8282546112a99190612739565b925050819055503460025f8381526020019081526020015f206004015f8282546112d39190612739565b9250508190555060025f8281526020019081526020015f2060070133908060018154018082558091505060019003905f5260205f20015f9091909190916101000a81548173ffffffffffffffffffffffffffffffffffffffff021916908373ffffffffffffffffffffffffffffffffffffffff16021790555050565b5f8054906101000a900473ffffffffffffffffffffffffffffffffffffffff1681565b60045f8481526020019081526020015f205f9054906101000a900460ff166113cf576040517f08c379a00000000000000000000000000000000000000000000000000000000081526004016113c6906120c0565b60405180910390fd5b3373ffffffffffffffffffffffffffffffffffffffff1660025f8581526020019081526020015f205f015f9054906101000a900473ffffffffffffffffffffffffffffffffffffffff1673ffffffffffffffffffffffffffffffffffffffff161461146f576040517f08c379a0000000000000000000000000000000000000000000000000000000008152600401611466906127b6565b60405180910390fd5b60025f8481526020019081526020015f206005015460025f8581526020019081526020015f20600401546114a391906127d4565b8111156114e5576040517f08c379a00000000000000000000000000000000000000000000000000000000081526004016114dc90612851565b60405180910390fd5b8060025f8581526020019081526020015f206005015f8282546115089190612739565b9250508190555060025f8481526020019081526020015f206008015f9054906101000a900473ffffffffffffffffffffffffffffffffffffffff1673ffffffffffffffffffffffffffffffffffffffff16631e7f8f0f83836040518363ffffffff1660e01b815260040161157d92919061286f565b5f604051808303815f87803b158015611594575f80fd5b505af11580156115a6573d5f803e3d5ffd5b50505050505050565b6040518061012001604052805f73ffffffffffffffffffffffffffffffffffffffff16815260200160608152602001606081526020015f81526020015f81526020015f815260200160608152602001606081526020015f73ffffffffffffffffffffffffffffffffffffffff1681525090565b611bb78061289783390190565b5f604051905090565b5f80fd5b5f80fd5b5f819050919050565b61165281611640565b811461165c575f80fd5b50565b5f8135905061166d81611649565b92915050565b5f6020828403121561168857611687611638565b5b5f6116958482850161165f565b91505092915050565b5f81519050919050565b5f82825260208201905092915050565b5f819050602082019050919050565b5f73ffffffffffffffffffffffffffffffffffffffff82169050919050565b5f6116f0826116c7565b9050919050565b611700816116e6565b82525050565b5f61171183836116f7565b60208301905092915050565b5f602082019050919050565b5f6117338261169e565b61173d81856116a8565b9350611748836116b8565b805f5b8381101561177857815161175f8882611706565b975061176a8361171d565b92505060018101905061174b565b5085935050505092915050565b5f6020820190508181035f83015261179d8184611729565b905092915050565b6117ae816116e6565b82525050565b5f81519050919050565b5f82825260208201905092915050565b8281835e5f83830152505050565b5f601f19601f8301169050919050565b5f6117f6826117b4565b61180081856117be565b93506118108185602086016117ce565b611819816117dc565b840191505092915050565b61182d81611640565b82525050565b5f819050919050565b5f61185661185161184c846116c7565b611833565b6116c7565b9050919050565b5f6118678261183c565b9050919050565b5f6118788261185d565b9050919050565b6118888161186e565b82525050565b5f60e0820190506118a15f83018a6117a5565b81810360208301526118b381896117ec565b905081810360408301526118c781886117ec565b90506118d66060830187611824565b6118e36080830186611824565b6118f060a0830185611824565b6118fd60c083018461187f565b98975050505050505050565b5f60208201905061191c5f8301846117a5565b92915050565b5f8115159050919050565b61193681611922565b82525050565b5f60208201905061194f5f83018461192d565b92915050565b5f80fd5b5f80fd5b7f4e487b71000000000000000000000000000000000000000000000000000000005f52604160045260245ffd5b611993826117dc565b810181811067ffffffffffffffff821117156119b2576119b161195d565b5b80604052505050565b5f6119c461162f565b90506119d0828261198a565b919050565b5f67ffffffffffffffff8211156119ef576119ee61195d565b5b6119f8826117dc565b9050602081019050919050565b828183375f83830152505050565b5f611a25611a20846119d5565b6119bb565b905082815260208101848484011115611a4157611a40611959565b5b611a4c848285611a05565b509392505050565b5f82601f830112611a6857611a67611955565b5b8135611a78848260208601611a13565b91505092915050565b5f8060408385031215611a9757611a96611638565b5b5f611aa48582860161165f565b925050602083013567ffffffffffffffff811115611ac557611ac461163c565b5b611ad185828601611a54565b9150509250929050565b5f82825260208201905092915050565b5f611af5826117b4565b611aff8185611adb565b9350611b0f8185602086016117ce565b611b18816117dc565b840191505092915050565b611b2c81611640565b82525050565b5f81519050919050565b5f82825260208201905092915050565b5f819050602082019050919050565b5f611b668383611aeb565b905092915050565b5f602082019050919050565b5f611b8482611b32565b611b8e8185611b3c565b935083602082028501611ba085611b4c565b805f5b85811015611bdb5784840389528151611bbc8582611b5b565b9450611bc783611b6e565b925060208a01995050600181019050611ba3565b50829750879550505050505092915050565b5f82825260208201905092915050565b5f611c078261169e565b611c118185611bed565b9350611c1c836116b8565b805f5b83811015611c4c578151611c338882611706565b9750611c3e8361171d565b925050600181019050611c1f565b5085935050505092915050565b611c628161186e565b82525050565b5f61012083015f830151611c7e5f8601826116f7565b5060208301518482036020860152611c968282611aeb565b91505060408301518482036040860152611cb08282611aeb565b9150506060830151611cc56060860182611b23565b506080830151611cd86080860182611b23565b5060a0830151611ceb60a0860182611b23565b5060c083015184820360c0860152611d038282611b7a565b91505060e083015184820360e0860152611d1d8282611bfd565b915050610100830151611d34610100860182611c59565b508091505092915050565b5f6020820190508181035f830152611d578184611c68565b905092915050565b5f602082019050611d725f830184611824565b92915050565b5f60c082019050611d8b5f8301896117a5565b8181036020830152611d9d81886117ec565b90508181036040830152611db181876117ec565b9050611dc06060830186611824565b611dcd6080830185611824565b611dda60a0830184611824565b979650505050505050565b5f67ffffffffffffffff821115611dff57611dfe61195d565b5b602082029050602081019050919050565b5f80fd5b611e1d816116e6565b8114611e27575f80fd5b50565b5f81359050611e3881611e14565b92915050565b5f611e50611e4b84611de5565b6119bb565b90508083825260208201905060208402830185811115611e7357611e72611e10565b5b835b81811015611e9c5780611e888882611e2a565b845260208401935050602081019050611e75565b5050509392505050565b5f82601f830112611eba57611eb9611955565b5b8135611eca848260208601611e3e565b91505092915050565b5f805f805f60a08688031215611eec57611eeb611638565b5b5f86013567ffffffffffffffff811115611f0957611f0861163c565b5b611f1588828901611a54565b955050602086013567ffffffffffffffff811115611f3657611f3561163c565b5b611f4288828901611a54565b9450506040611f538882890161165f565b935050606086013567ffffffffffffffff811115611f7457611f7361163c565b5b611f8088828901611ea6565b9250506080611f918882890161165f565b9150509295509295909350565b5f8060408385031215611fb457611fb3611638565b5b5f611fc18582860161165f565b9250506020611fd285828601611e2a565b9150509250929050565b5f611fe68261183c565b9050919050565b5f611ff782611fdc565b9050919050565b61200781611fed565b82525050565b5f6020820190506120205f830184611ffe565b92915050565b5f805f6060848603121561203d5761203c611638565b5b5f61204a8682870161165f565b935050602061205b86828701611e2a565b925050604061206c8682870161165f565b9150509250925092565b7f43616d706169676e20646f6573206e6f742065786973740000000000000000005f82015250565b5f6120aa6017836117be565b91506120b582612076565b602082019050919050565b5f6020820190508181035f8301526120d78161209e565b9050919050565b7f4e487b71000000000000000000000000000000000000000000000000000000005f52602260045260245ffd5b5f600282049050600182168061212257607f821691505b602082108103612135576121346120de565b5b50919050565b61214481611922565b811461214e575f80fd5b50565b5f8151905061215f8161213b565b92915050565b5f6020828403121561217a57612179611638565b5b5f61218784828501612151565b91505092915050565b7f4f6e6c792070726f66696c65206f776e65722063616e20706f7374207574696c5f8201527f697a6174696f6e206465736372697074696f6e00000000000000000000000000602082015250565b5f6121ea6033836117be565b91506121f582612190565b604082019050919050565b5f6020820190508181035f830152612217816121de565b9050919050565b5f819050815f5260205f209050919050565b5f6020601f8301049050919050565b5f82821b905092915050565b5f6008830261227a7fffffffffffffffffffffffffffffffffffffffffffffffffffffffffffffffff8261223f565b612284868361223f565b95508019841693508086168417925050509392505050565b5f6122b66122b16122ac84611640565b611833565b611640565b9050919050565b5f819050919050565b6122cf8361229c565b6122e36122db826122bd565b84845461224b565b825550505050565b5f90565b6122f76122eb565b6123028184846122c6565b505050565b5b818110156123255761231a5f826122ef565b600181019050612308565b5050565b601f82111561236a5761233b8161221e565b61234484612230565b81016020851015612353578190505b61236761235f85612230565b830182612307565b50505b505050565b5f82821c905092915050565b5f61238a5f198460080261236f565b1980831691505092915050565b5f6123a2838361237b565b9150826002028217905092915050565b6123bb826117b4565b67ffffffffffffffff8111156123d4576123d361195d565b5b6123de825461210b565b6123e9828285612329565b5f60209050601f83116001811461241a575f8415612408578287015190505b6124128582612397565b865550612479565b601f1984166124288661221e565b5f5b8281101561244f5784890151825560018201915060208501945060208101905061242a565b8683101561246c5784890151612468601f89168261237b565b8355505b6001600288020188555050505b505050505050565b7f4e6f74207468652070726f66696c65206f776e657200000000000000000000005f82015250565b5f6124b56015836117be565b91506124c082612481565b602082019050919050565b5f6020820190508181035f8301526124e2816124a9565b9050919050565b7f4174206c65617374206f6e65207369676e6572207265717569726564000000005f82015250565b5f61251d601c836117be565b9150612528826124e9565b602082019050919050565b5f6020820190508181035f83015261254a81612511565b9050919050565b7f496e76616c6964206e756d626572206f6620617070726f76616c7300000000005f82015250565b5f612585601b836117be565b915061259082612551565b602082019050919050565b5f6020820190508181035f8301526125b281612579565b9050919050565b7f4e487b71000000000000000000000000000000000000000000000000000000005f52601160045260245ffd5b5f6125f082611640565b91507fffffffffffffffffffffffffffffffffffffffffffffffffffffffffffffffff8203612622576126216125b9565b5b600182019050919050565b5f6060820190508181035f8301526126458186611729565b90506126546020830185611824565b61266160408301846117a5565b949350505050565b7f50726f66696c65206973206e6f742061637469766500000000000000000000005f82015250565b5f61269d6015836117be565b91506126a882612669565b602082019050919050565b5f6020820190508181035f8301526126ca81612691565b9050919050565b7f446f6e6174696f6e206d7573742062652067726561746572207468616e2030005f82015250565b5f612705601f836117be565b9150612710826126d1565b602082019050919050565b5f6020820190508181035f830152612732816126f9565b9050919050565b5f61274382611640565b915061274e83611640565b9250828201905080821115612766576127656125b9565b5b92915050565b7f4f6e6c792063616d706169676e206f776e65722063616e2077697468647261775f82015250565b5f6127a06020836117be565b91506127ab8261276c565b602082019050919050565b5f6020820190508181035f8301526127cd81612794565b9050919050565b5f6127de82611640565b91506127e983611640565b9250828203905081811115612801576128006125b9565b5b92915050565b7f496e73756666696369656e742066756e647300000000000000000000000000005f82015250565b5f61283b6012836117be565b915061284682612807565b602082019050919050565b5f6020820190508181035f8301526128688161282f565b9050919050565b5f6040820190506128825f8301856117a5565b61288f6020830184611824565b939250505056fe608060405234801561000f575f80fd5b50604051611bb7380380611bb7833981810160405281019061003191906104c7565b5f835111610074576040517f08c379a000000000000000000000000000000000000000000000000000000000815260040161006b9061058d565b60405180910390fd5b5f82118015610084575082518211155b6100c3576040517f08c379a00000000000000000000000000000000000000000000000000000000081526004016100ba906105f5565b60405180910390fd5b5f5b83518110156101d1575f73ffffffffffffffffffffffffffffffffffffffff168482815181106100f8576100f7610613565b5b602002602001015173ffffffffffffffffffffffffffffffffffffffff1603610156576040517f08c379a000000000000000000000000000000000000000000000000000000000815260040161014d9061068a565b60405180910390fd5b6001805f86848151811061016d5761016c610613565b5b602002602001015173ffffffffffffffffffffffffffffffffffffffff1673ffffffffffffffffffffffffffffffffffffffff1681526020019081526020015f205f6101000a81548160ff02191690831515021790555080806001019150506100c5565b50825f90805190602001906101e7929190610237565b50816002819055508060035f6101000a81548173ffffffffffffffffffffffffffffffffffffffff021916908373ffffffffffffffffffffffffffffffffffffffff1602179055505050506106a8565b828054828255905f5260205f209081019282156102ad579160200282015b828111156102ac578251825f6101000a81548173ffffffffffffffffffffffffffffffffffffffff021916908373ffffffffffffffffffffffffffffffffffffffff16021790555091602001919060010190610255565b5b5090506102ba91906102be565b5090565b5b808211156102d5575f815f9055506001016102bf565b5090565b5f604051905090565b5f80fd5b5f80fd5b5f80fd5b5f601f19601f8301169050919050565b7f4e487b71000000000000000000000000000000000000000000000000000000005f52604160045260245ffd5b610334826102ee565b810181811067ffffffffffffffff82111715610353576103526102fe565b5b80604052505050565b5f6103656102d9565b9050610371828261032b565b919050565b5f67ffffffffffffffff8211156103905761038f6102fe565b5b602082029050602081019050919050565b5f80fd5b5f73ffffffffffffffffffffffffffffffffffffffff82169050919050565b5f6103ce826103a5565b9050919050565b6103de816103c4565b81146103e8575f80fd5b50565b5f815190506103f9816103d5565b92915050565b5f61041161040c84610376565b61035c565b90508083825260208201905060208402830185811115610434576104336103a1565b5b835b8181101561045d578061044988826103eb565b845260208401935050602081019050610436565b5050509392505050565b5f82601f83011261047b5761047a6102ea565b5b815161048b8482602086016103ff565b91505092915050565b5f819050919050565b6104a681610494565b81146104b0575f80fd5b50565b5f815190506104c18161049d565b92915050565b5f805f606084860312156104de576104dd6102e2565b5b5f84015167ffffffffffffffff8111156104fb576104fa6102e6565b5b61050786828701610467565b9350506020610518868287016104b3565b9250506040610529868287016103eb565b9150509250925092565b5f82825260208201905092915050565b7f4174206c65617374206f6e65207369676e6572207265717569726564000000005f82015250565b5f610577601c83610533565b915061058282610543565b602082019050919050565b5f6020820190508181035f8301526105a48161056b565b9050919050565b7f496e76616c6964206e756d626572206f6620617070726f76616c7300000000005f82015250565b5f6105df601b83610533565b91506105ea826105ab565b602082019050919050565b5f6020820190508181035f83015261060c816105d3565b9050919050565b7f4e487b71000000000000000000000000000000000000000000000000000000005f52603260045260245ffd5b7f496e76616c6964207369676e65720000000000000000000000000000000000005f82015250565b5f610674600e83610533565b915061067f82610640565b602082019050919050565b5f6020820190508181035f8301526106a181610668565b9050919050565b611502806106b55f395ff3fe608060405260043610610089575f3560e01c806375624cb91161005857806375624cb91461014d5780637df73e271461017757806399c1aadc146101b35780639ace38c2146101dd578063ce430f821461021c57610090565b80631e7f8f0f146100945780632079fb9a146100bc578063242232d1146100f857806327506f531461012057610090565b3661009057005b5f80fd5b34801561009f575f80fd5b506100ba60048036038101906100b59190610d65565b610248565b005b3480156100c7575f80fd5b506100e260048036038101906100dd9190610da3565b61039a565b6040516100ef9190610ddd565b60405180910390f35b348015610103575f80fd5b5061011e60048036038101906101199190610da3565b6103d4565b005b34801561012b575f80fd5b506101346105e8565b6040516101449493929190611026565b60405180910390f35b348015610158575f80fd5b50610161610854565b60405161016e9190610ddd565b60405180910390f35b348015610182575f80fd5b5061019d60048036038101906101989190611085565b610879565b6040516101aa91906110bf565b60405180910390f35b3480156101be575f80fd5b506101c7610896565b6040516101d491906110e7565b60405180910390f35b3480156101e8575f80fd5b5061020360048036038101906101fe9190610da3565b61089c565b6040516102139493929190611100565b60405180910390f35b348015610227575f80fd5b50610230610902565b60405161023f93929190611143565b60405180910390f35b60035f9054906101000a900473ffffffffffffffffffffffffffffffffffffffff1673ffffffffffffffffffffffffffffffffffffffff163373ffffffffffffffffffffffffffffffffffffffff16146102d7576040517f08c379a00000000000000000000000000000000000000000000000000000000081526004016102ce9061120d565b60405180910390fd5b600460018160018154018082558091505003905f5260205f209050505f600460016004805490506103089190611258565b815481106103195761031861128b565b5b905f5260205f209060050201905082815f015f6101000a81548173ffffffffffffffffffffffffffffffffffffffff021916908373ffffffffffffffffffffffffffffffffffffffff1602179055508181600101819055505f816002015f6101000a81548160ff0219169083151502179055505f8160030181905550505050565b5f81815481106103a8575f80fd5b905f5260205f20015f915054906101000a900473ffffffffffffffffffffffffffffffffffffffff1681565b60015f3373ffffffffffffffffffffffffffffffffffffffff1673ffffffffffffffffffffffffffffffffffffffff1681526020019081526020015f205f9054906101000a900460ff1661045d576040517f08c379a000000000000000000000000000000000000000000000000000000000815260040161045490611302565b60405180910390fd5b5f600482815481106104725761047161128b565b5b905f5260205f2090600502019050806004015f3373ffffffffffffffffffffffffffffffffffffffff1673ffffffffffffffffffffffffffffffffffffffff1681526020019081526020015f205f9054906101000a900460ff161561050c576040517f08c379a00000000000000000000000000000000000000000000000000000000081526004016105039061136a565b60405180910390fd5b806002015f9054906101000a900460ff161561055d576040517f08c379a0000000000000000000000000000000000000000000000000000000008152600401610554906113d2565b60405180910390fd5b6001816004015f3373ffffffffffffffffffffffffffffffffffffffff1673ffffffffffffffffffffffffffffffffffffffff1681526020019081526020015f205f6101000a81548160ff021916908315150217905550806003015f8154809291906105c8906113f0565b91905055506002548160030154106105e4576105e382610b8d565b5b5050565b6060806060805f60048054905090508067ffffffffffffffff81111561061157610610611437565b5b60405190808252806020026020018201604052801561063f5781602001602082028036833780820191505090505b5094508067ffffffffffffffff81111561065c5761065b611437565b5b60405190808252806020026020018201604052801561068a5781602001602082028036833780820191505090505b5093508067ffffffffffffffff8111156106a7576106a6611437565b5b6040519080825280602002602001820160405280156106d55781602001602082028036833780820191505090505b5092508067ffffffffffffffff8111156106f2576106f1611437565b5b6040519080825280602002602001820160405280156107205781602001602082028036833780820191505090505b5091505f5b8181101561084c575f600482815481106107425761074161128b565b5b905f5260205f2090600502019050805f015f9054906101000a900473ffffffffffffffffffffffffffffffffffffffff168783815181106107865761078561128b565b5b602002602001019073ffffffffffffffffffffffffffffffffffffffff16908173ffffffffffffffffffffffffffffffffffffffff168152505080600101548683815181106107d8576107d761128b565b5b602002602001018181525050806002015f9054906101000a900460ff168583815181106108085761080761128b565b5b60200260200101901515908115158152505080600301548483815181106108325761083161128b565b5b602002602001018181525050508080600101915050610725565b505090919293565b60035f9054906101000a900473ffffffffffffffffffffffffffffffffffffffff1681565b6001602052805f5260405f205f915054906101000a900460ff1681565b60025481565b600481815481106108ab575f80fd5b905f5260205f2090600502015f91509050805f015f9054906101000a900473ffffffffffffffffffffffffffffffffffffffff1690806001015490806002015f9054906101000a900460ff16908060030154905084565b60608060605f805b600480549050811015610967576004818154811061092b5761092a61128b565b5b905f5260205f2090600502016002015f9054906101000a900460ff1661095a578180610956906113f0565b9250505b808060010191505061090a565b508067ffffffffffffffff81111561098257610981611437565b5b6040519080825280602002602001820160405280156109b05781602001602082028036833780820191505090505b5093508067ffffffffffffffff8111156109cd576109cc611437565b5b6040519080825280602002602001820160405280156109fb5781602001602082028036833780820191505090505b5092508067ffffffffffffffff811115610a1857610a17611437565b5b604051908082528060200260200182016040528015610a465781602001602082028036833780820191505090505b5091505f805b600480549050811015610b855760048181548110610a6d57610a6c61128b565b5b905f5260205f2090600502016002015f9054906101000a900460ff16610b78575f60048281548110610aa257610aa161128b565b5b905f5260205f2090600502019050805f015f9054906101000a900473ffffffffffffffffffffffffffffffffffffffff16878481518110610ae657610ae561128b565b5b602002602001019073ffffffffffffffffffffffffffffffffffffffff16908173ffffffffffffffffffffffffffffffffffffffff16815250508060010154868481518110610b3857610b3761128b565b5b6020026020010181815250508060030154858481518110610b5c57610b5b61128b565b5b6020026020010181815250508280610b73906113f0565b935050505b8080600101915050610a4c565b505050909192565b5f60048281548110610ba257610ba161128b565b5b905f5260205f209060050201905060025481600301541015610bf9576040517f08c379a0000000000000000000000000000000000000000000000000000000008152600401610bf0906114ae565b60405180910390fd5b806002015f9054906101000a900460ff1615610c4a576040517f08c379a0000000000000000000000000000000000000000000000000000000008152600401610c41906113d2565b60405180910390fd5b6001816002015f6101000a81548160ff021916908315150217905550805f015f9054906101000a900473ffffffffffffffffffffffffffffffffffffffff1673ffffffffffffffffffffffffffffffffffffffff166108fc826001015490811502906040515f60405180830381858888f19350505050158015610ccf573d5f803e3d5ffd5b505050565b5f80fd5b5f73ffffffffffffffffffffffffffffffffffffffff82169050919050565b5f610d0182610cd8565b9050919050565b610d1181610cf7565b8114610d1b575f80fd5b50565b5f81359050610d2c81610d08565b92915050565b5f819050919050565b610d4481610d32565b8114610d4e575f80fd5b50565b5f81359050610d5f81610d3b565b92915050565b5f8060408385031215610d7b57610d7a610cd4565b5b5f610d8885828601610d1e565b9250506020610d9985828601610d51565b9150509250929050565b5f60208284031215610db857610db7610cd4565b5b5f610dc584828501610d51565b91505092915050565b610dd781610cf7565b82525050565b5f602082019050610df05f830184610dce565b92915050565b5f81519050919050565b5f82825260208201905092915050565b5f819050602082019050919050565b610e2881610cf7565b82525050565b5f610e398383610e1f565b60208301905092915050565b5f602082019050919050565b5f610e5b82610df6565b610e658185610e00565b9350610e7083610e10565b805f5b83811015610ea0578151610e878882610e2e565b9750610e9283610e45565b925050600181019050610e73565b5085935050505092915050565b5f81519050919050565b5f82825260208201905092915050565b5f819050602082019050919050565b610edf81610d32565b82525050565b5f610ef08383610ed6565b60208301905092915050565b5f602082019050919050565b5f610f1282610ead565b610f1c8185610eb7565b9350610f2783610ec7565b805f5b83811015610f57578151610f3e8882610ee5565b9750610f4983610efc565b925050600181019050610f2a565b5085935050505092915050565b5f81519050919050565b5f82825260208201905092915050565b5f819050602082019050919050565b5f8115159050919050565b610fa181610f8d565b82525050565b5f610fb28383610f98565b60208301905092915050565b5f602082019050919050565b5f610fd482610f64565b610fde8185610f6e565b9350610fe983610f7e565b805f5b838110156110195781516110008882610fa7565b975061100b83610fbe565b925050600181019050610fec565b5085935050505092915050565b5f6080820190508181035f83015261103e8187610e51565b905081810360208301526110528186610f08565b905081810360408301526110668185610fca565b9050818103606083015261107a8184610f08565b905095945050505050565b5f6020828403121561109a57611099610cd4565b5b5f6110a784828501610d1e565b91505092915050565b6110b981610f8d565b82525050565b5f6020820190506110d25f8301846110b0565b92915050565b6110e181610d32565b82525050565b5f6020820190506110fa5f8301846110d8565b92915050565b5f6080820190506111135f830187610dce565b61112060208301866110d8565b61112d60408301856110b0565b61113a60608301846110d8565b95945050505050565b5f6060820190508181035f83015261115b8186610e51565b9050818103602083015261116f8185610f08565b905081810360408301526111838184610f08565b9050949350505050565b5f82825260208201905092915050565b7f4f6e6c7920446f6e6174696f6e7320636f6e74726163742063616e2063616c6c5f8201527f20746869732066756e6374696f6e2e0000000000000000000000000000000000602082015250565b5f6111f7602f8361118d565b91506112028261119d565b604082019050919050565b5f6020820190508181035f830152611224816111eb565b9050919050565b7f4e487b71000000000000000000000000000000000000000000000000000000005f52601160045260245ffd5b5f61126282610d32565b915061126d83610d32565b92508282039050818111156112855761128461122b565b5b92915050565b7f4e487b71000000000000000000000000000000000000000000000000000000005f52603260045260245ffd5b7f4e6f742061207369676e657200000000000000000000000000000000000000005f82015250565b5f6112ec600c8361118d565b91506112f7826112b8565b602082019050919050565b5f6020820190508181035f830152611319816112e0565b9050919050565b7f5472616e73616374696f6e20616c726561647920617070726f766564000000005f82015250565b5f611354601c8361118d565b915061135f82611320565b602082019050919050565b5f6020820190508181035f83015261138181611348565b9050919050565b7f5472616e73616374696f6e20616c7265616479206578656375746564000000005f82015250565b5f6113bc601c8361118d565b91506113c782611388565b602082019050919050565b5f6020820190508181035f8301526113e9816113b0565b9050919050565b5f6113fa82610d32565b91507fffffffffffffffffffffffffffffffffffffffffffffffffffffffffffffffff820361142c5761142b61122b565b5b600182019050919050565b7f4e487b71000000000000000000000000000000000000000000000000000000005f52604160045260245ffd5b7f4e6f7420656e6f75676820617070726f76616c730000000000000000000000005f82015250565b5f61149860148361118d565b91506114a382611464565b602082019050919050565b5f6020820190508181035f8301526114c58161148c565b905091905056fea2646970667358221220ac06db52431d21009a375f5a4e91e8f337b35f281afaecd6f6f141931d4496de64736f6c634300081a0033a26469706673582212200f365587bf26bb2516dfd6f46766c652ed20db76363736f49875de821d9f947c64736f6c634300081a0033",
			"opcodes": "PUSH1 0x80 PUSH1 0x40 MSTORE PUSH0 PUSH1 0x5 SSTORE CALLVALUE DUP1 ISZERO PUSH2 0x13 JUMPI PUSH0 DUP1 REVERT JUMPDEST POP PUSH1 0x40 MLOAD PUSH2 0x46A1 CODESIZE SUB DUP1 PUSH2 0x46A1 DUP4 CODECOPY DUP2 DUP2 ADD PUSH1 0x40 MSTORE DUP2 ADD SWAP1 PUSH2 0x35 SWAP2 SWAP1 PUSH2 0x1BE JUMP JUMPDEST DUP1 PUSH0 DUP1 PUSH2 0x100 EXP DUP2 SLOAD DUP2 PUSH20 0xFFFFFFFFFFFFFFFFFFFFFFFFFFFFFFFFFFFFFFFF MUL NOT AND SWAP1 DUP4 PUSH20 0xFFFFFFFFFFFFFFFFFFFFFFFFFFFFFFFFFFFFFFFF AND MUL OR SWAP1 SSTORE POP ADDRESS PUSH1 0x1 PUSH0 PUSH2 0x100 EXP DUP2 SLOAD DUP2 PUSH20 0xFFFFFFFFFFFFFFFFFFFFFFFFFFFFFFFFFFFFFFFF MUL NOT AND SWAP1 DUP4 PUSH20 0xFFFFFFFFFFFFFFFFFFFFFFFFFFFFFFFFFFFFFFFF AND MUL OR SWAP1 SSTORE POP PUSH0 DUP1 SLOAD SWAP1 PUSH2 0x100 EXP SWAP1 DIV PUSH20 0xFFFFFFFFFFFFFFFFFFFFFFFFFFFFFFFFFFFFFFFF AND PUSH20 0xFFFFFFFFFFFFFFFFFFFFFFFFFFFFFFFFFFFFFFFF AND PUSH4 0xEB8D0E8 PUSH1 0x1 PUSH0 SWAP1 SLOAD SWAP1 PUSH2 0x100 EXP SWAP1 DIV PUSH20 0xFFFFFFFFFFFFFFFFFFFFFFFFFFFFFFFFFFFFFFFF AND PUSH1 0x40 MLOAD DUP3 PUSH4 0xFFFFFFFF AND PUSH1 0xE0 SHL DUP2 MSTORE PUSH1 0x4 ADD PUSH2 0x12D SWAP2 SWAP1 PUSH2 0x1F8 JUMP JUMPDEST PUSH0 PUSH1 0x40 MLOAD DUP1 DUP4 SUB DUP2 PUSH0 DUP8 DUP1 EXTCODESIZE ISZERO DUP1 ISZERO PUSH2 0x144 JUMPI PUSH0 DUP1 REVERT JUMPDEST POP GAS CALL ISZERO DUP1 ISZERO PUSH2 0x156 JUMPI RETURNDATASIZE PUSH0 DUP1 RETURNDATACOPY RETURNDATASIZE PUSH0 REVERT JUMPDEST POP POP POP POP POP PUSH2 0x211 JUMP JUMPDEST PUSH0 DUP1 REVERT JUMPDEST PUSH0 PUSH20 0xFFFFFFFFFFFFFFFFFFFFFFFFFFFFFFFFFFFFFFFF DUP3 AND SWAP1 POP SWAP2 SWAP1 POP JUMP JUMPDEST PUSH0 PUSH2 0x18D DUP3 PUSH2 0x164 JUMP JUMPDEST SWAP1 POP SWAP2 SWAP1 POP JUMP JUMPDEST PUSH2 0x19D DUP2 PUSH2 0x183 JUMP JUMPDEST DUP2 EQ PUSH2 0x1A7 JUMPI PUSH0 DUP1 REVERT JUMPDEST POP JUMP JUMPDEST PUSH0 DUP2 MLOAD SWAP1 POP PUSH2 0x1B8 DUP2 PUSH2 0x194 JUMP JUMPDEST SWAP3 SWAP2 POP POP JUMP JUMPDEST PUSH0 PUSH1 0x20 DUP3 DUP5 SUB SLT ISZERO PUSH2 0x1D3 JUMPI PUSH2 0x1D2 PUSH2 0x160 JUMP JUMPDEST JUMPDEST PUSH0 PUSH2 0x1E0 DUP5 DUP3 DUP6 ADD PUSH2 0x1AA JUMP JUMPDEST SWAP2 POP POP SWAP3 SWAP2 POP POP JUMP JUMPDEST PUSH2 0x1F2 DUP2 PUSH2 0x183 JUMP JUMPDEST DUP3 MSTORE POP POP JUMP JUMPDEST PUSH0 PUSH1 0x20 DUP3 ADD SWAP1 POP PUSH2 0x20B PUSH0 DUP4 ADD DUP5 PUSH2 0x1E9 JUMP JUMPDEST SWAP3 SWAP2 POP POP JUMP JUMPDEST PUSH2 0x4483 DUP1 PUSH2 0x21E PUSH0 CODECOPY PUSH0 RETURN INVALID PUSH1 0x80 PUSH1 0x40 MSTORE PUSH1 0x4 CALLDATASIZE LT PUSH2 0xE0 JUMPI PUSH0 CALLDATALOAD PUSH1 0xE0 SHR DUP1 PUSH4 0x7274E30D GT PUSH2 0x7E JUMPI DUP1 PUSH4 0xEE1554A3 GT PUSH2 0x58 JUMPI DUP1 PUSH4 0xEE1554A3 EQ PUSH2 0x302 JUMPI DUP1 PUSH4 0xF14FAF6F EQ PUSH2 0x33E JUMPI DUP1 PUSH4 0xF3F5142E EQ PUSH2 0x35A JUMPI DUP1 PUSH4 0xF8F34CDE EQ PUSH2 0x384 JUMPI PUSH2 0xE7 JUMP JUMPDEST DUP1 PUSH4 0x7274E30D EQ PUSH2 0x26F JUMPI DUP1 PUSH4 0xD993DE62 EQ PUSH2 0x299 JUMPI DUP1 PUSH4 0xE2C341A2 EQ PUSH2 0x2DA JUMPI PUSH2 0xE7 JUMP JUMPDEST DUP1 PUSH4 0x3B594A68 GT PUSH2 0xBA JUMPI DUP1 PUSH4 0x3B594A68 EQ PUSH2 0x1A5 JUMPI DUP1 PUSH4 0x4A7DE20A EQ PUSH2 0x1E1 JUMPI DUP1 PUSH4 0x5598F8CC EQ PUSH2 0x209 JUMPI DUP1 PUSH4 0x5791913F EQ PUSH2 0x245 JUMPI PUSH2 0xE7 JUMP JUMPDEST DUP1 PUSH4 0xFA91FA9 EQ PUSH2 0xEB JUMPI DUP1 PUSH4 0x141961BC EQ PUSH2 0x127 JUMPI DUP1 PUSH4 0x2BD8647B EQ PUSH2 0x169 JUMPI PUSH2 0xE7 JUMP JUMPDEST CALLDATASIZE PUSH2 0xE7 JUMPI STOP JUMPDEST PUSH0 DUP1 REVERT JUMPDEST CALLVALUE DUP1 ISZERO PUSH2 0xF6 JUMPI PUSH0 DUP1 REVERT JUMPDEST POP PUSH2 0x111 PUSH1 0x4 DUP1 CALLDATASIZE SUB DUP2 ADD SWAP1 PUSH2 0x10C SWAP2 SWAP1 PUSH2 0x1673 JUMP JUMPDEST PUSH2 0x3AC JUMP JUMPDEST PUSH1 0x40 MLOAD PUSH2 0x11E SWAP2 SWAP1 PUSH2 0x1785 JUMP JUMPDEST PUSH1 0x40 MLOAD DUP1 SWAP2 SUB SWAP1 RETURN JUMPDEST CALLVALUE DUP1 ISZERO PUSH2 0x132 JUMPI PUSH0 DUP1 REVERT JUMPDEST POP PUSH2 0x14D PUSH1 0x4 DUP1 CALLDATASIZE SUB DUP2 ADD SWAP1 PUSH2 0x148 SWAP2 SWAP1 PUSH2 0x1673 JUMP JUMPDEST PUSH2 0x4A8 JUMP JUMPDEST PUSH1 0x40 MLOAD PUSH2 0x160 SWAP8 SWAP7 SWAP6 SWAP5 SWAP4 SWAP3 SWAP2 SWAP1 PUSH2 0x188E JUMP JUMPDEST PUSH1 0x40 MLOAD DUP1 SWAP2 SUB SWAP1 RETURN JUMPDEST CALLVALUE DUP1 ISZERO PUSH2 0x174 JUMPI PUSH0 DUP1 REVERT JUMPDEST POP PUSH2 0x18F PUSH1 0x4 DUP1 CALLDATASIZE SUB DUP2 ADD SWAP1 PUSH2 0x18A SWAP2 SWAP1 PUSH2 0x1673 JUMP JUMPDEST PUSH2 0x630 JUMP JUMPDEST PUSH1 0x40 MLOAD PUSH2 0x19C SWAP2 SWAP1 PUSH2 0x1909 JUMP JUMPDEST PUSH1 0x40 MLOAD DUP1 SWAP2 SUB SWAP1 RETURN JUMPDEST CALLVALUE DUP1 ISZERO PUSH2 0x1B0 JUMPI PUSH0 DUP1 REVERT JUMPDEST POP PUSH2 0x1CB PUSH1 0x4 DUP1 CALLDATASIZE SUB DUP2 ADD SWAP1 PUSH2 0x1C6 SWAP2 SWAP1 PUSH2 0x1673 JUMP JUMPDEST PUSH2 0x6C9 JUMP JUMPDEST PUSH1 0x40 MLOAD PUSH2 0x1D8 SWAP2 SWAP1 PUSH2 0x193C JUMP JUMPDEST PUSH1 0x40 MLOAD DUP1 SWAP2 SUB SWAP1 RETURN JUMPDEST CALLVALUE DUP1 ISZERO PUSH2 0x1EC JUMPI PUSH0 DUP1 REVERT JUMPDEST POP PUSH2 0x207 PUSH1 0x4 DUP1 CALLDATASIZE SUB DUP2 ADD SWAP1 PUSH2 0x202 SWAP2 SWAP1 PUSH2 0x1A81 JUMP JUMPDEST PUSH2 0x6E6 JUMP JUMPDEST STOP JUMPDEST CALLVALUE DUP1 ISZERO PUSH2 0x214 JUMPI PUSH0 DUP1 REVERT JUMPDEST POP PUSH2 0x22F PUSH1 0x4 DUP1 CALLDATASIZE SUB DUP2 ADD SWAP1 PUSH2 0x22A SWAP2 SWAP1 PUSH2 0x1673 JUMP JUMPDEST PUSH2 0x861 JUMP JUMPDEST PUSH1 0x40 MLOAD PUSH2 0x23C SWAP2 SWAP1 PUSH2 0x1D3F JUMP JUMPDEST PUSH1 0x40 MLOAD DUP1 SWAP2 SUB SWAP1 RETURN JUMPDEST CALLVALUE DUP1 ISZERO PUSH2 0x250 JUMPI PUSH0 DUP1 REVERT JUMPDEST POP PUSH2 0x259 PUSH2 0xC30 JUMP JUMPDEST PUSH1 0x40 MLOAD PUSH2 0x266 SWAP2 SWAP1 PUSH2 0x1909 JUMP JUMPDEST PUSH1 0x40 MLOAD DUP1 SWAP2 SUB SWAP1 RETURN JUMPDEST CALLVALUE DUP1 ISZERO PUSH2 0x27A JUMPI PUSH0 DUP1 REVERT JUMPDEST POP PUSH2 0x283 PUSH2 0xC55 JUMP JUMPDEST PUSH1 0x40 MLOAD PUSH2 0x290 SWAP2 SWAP1 PUSH2 0x1D5F JUMP JUMPDEST PUSH1 0x40 MLOAD DUP1 SWAP2 SUB SWAP1 RETURN JUMPDEST CALLVALUE DUP1 ISZERO PUSH2 0x2A4 JUMPI PUSH0 DUP1 REVERT JUMPDEST POP PUSH2 0x2BF PUSH1 0x4 DUP1 CALLDATASIZE SUB DUP2 ADD SWAP1 PUSH2 0x2BA SWAP2 SWAP1 PUSH2 0x1673 JUMP JUMPDEST PUSH2 0xC5B JUMP JUMPDEST PUSH1 0x40 MLOAD PUSH2 0x2D1 SWAP7 SWAP6 SWAP5 SWAP4 SWAP3 SWAP2 SWAP1 PUSH2 0x1D78 JUMP JUMPDEST PUSH1 0x40 MLOAD DUP1 SWAP2 SUB SWAP1 RETURN JUMPDEST CALLVALUE DUP1 ISZERO PUSH2 0x2E5 JUMPI PUSH0 DUP1 REVERT JUMPDEST POP PUSH2 0x300 PUSH1 0x4 DUP1 CALLDATASIZE SUB DUP2 ADD SWAP1 PUSH2 0x2FB SWAP2 SWAP1 PUSH2 0x1ED3 JUMP JUMPDEST PUSH2 0xDDA JUMP JUMPDEST STOP JUMPDEST CALLVALUE DUP1 ISZERO PUSH2 0x30D JUMPI PUSH0 DUP1 REVERT JUMPDEST POP PUSH2 0x328 PUSH1 0x4 DUP1 CALLDATASIZE SUB DUP2 ADD SWAP1 PUSH2 0x323 SWAP2 SWAP1 PUSH2 0x1F9E JUMP JUMPDEST PUSH2 0x10B9 JUMP JUMPDEST PUSH1 0x40 MLOAD PUSH2 0x335 SWAP2 SWAP1 PUSH2 0x1D5F JUMP JUMPDEST PUSH1 0x40 MLOAD DUP1 SWAP2 SUB SWAP1 RETURN JUMPDEST PUSH2 0x358 PUSH1 0x4 DUP1 CALLDATASIZE SUB DUP2 ADD SWAP1 PUSH2 0x353 SWAP2 SWAP1 PUSH2 0x1673 JUMP JUMPDEST PUSH2 0x10D9 JUMP JUMPDEST STOP JUMPDEST CALLVALUE DUP1 ISZERO PUSH2 0x365 JUMPI PUSH0 DUP1 REVERT JUMPDEST POP PUSH2 0x36E PUSH2 0x134F JUMP JUMPDEST PUSH1 0x40 MLOAD PUSH2 0x37B SWAP2 SWAP1 PUSH2 0x200D JUMP JUMPDEST PUSH1 0x40 MLOAD DUP1 SWAP2 SUB SWAP1 RETURN JUMPDEST CALLVALUE DUP1 ISZERO PUSH2 0x38F JUMPI PUSH0 DUP1 REVERT JUMPDEST POP PUSH2 0x3AA PUSH1 0x4 DUP1 CALLDATASIZE SUB DUP2 ADD SWAP1 PUSH2 0x3A5 SWAP2 SWAP1 PUSH2 0x2026 JUMP JUMPDEST PUSH2 0x1372 JUMP JUMPDEST STOP JUMPDEST PUSH1 0x60 PUSH1 0x4 PUSH0 DUP4 DUP2 MSTORE PUSH1 0x20 ADD SWAP1 DUP2 MSTORE PUSH1 0x20 ADD PUSH0 KECCAK256 PUSH0 SWAP1 SLOAD SWAP1 PUSH2 0x100 EXP SWAP1 DIV PUSH1 0xFF AND PUSH2 0x40B JUMPI PUSH1 0x40 MLOAD PUSH32 0x8C379A000000000000000000000000000000000000000000000000000000000 DUP2 MSTORE PUSH1 0x4 ADD PUSH2 0x402 SWAP1 PUSH2 0x20C0 JUMP JUMPDEST PUSH1 0x40 MLOAD DUP1 SWAP2 SUB SWAP1 REVERT JUMPDEST PUSH1 0x2 PUSH0 DUP4 DUP2 MSTORE PUSH1 0x20 ADD SWAP1 DUP2 MSTORE PUSH1 0x20 ADD PUSH0 KECCAK256 PUSH1 0x7 ADD DUP1 SLOAD DUP1 PUSH1 0x20 MUL PUSH1 0x20 ADD PUSH1 0x40 MLOAD SWAP1 DUP2 ADD PUSH1 0x40 MSTORE DUP1 SWAP3 SWAP2 SWAP1 DUP2 DUP2 MSTORE PUSH1 0x20 ADD DUP3 DUP1 SLOAD DUP1 ISZERO PUSH2 0x49C JUMPI PUSH1 0x20 MUL DUP3 ADD SWAP2 SWAP1 PUSH0 MSTORE PUSH1 0x20 PUSH0 KECCAK256 SWAP1 JUMPDEST DUP2 PUSH0 SWAP1 SLOAD SWAP1 PUSH2 0x100 EXP SWAP1 DIV PUSH20 0xFFFFFFFFFFFFFFFFFFFFFFFFFFFFFFFFFFFFFFFF AND PUSH20 0xFFFFFFFFFFFFFFFFFFFFFFFFFFFFFFFFFFFFFFFF AND DUP2 MSTORE PUSH1 0x20 ADD SWAP1 PUSH1 0x1 ADD SWAP1 DUP1 DUP4 GT PUSH2 0x453 JUMPI JUMPDEST POP POP POP POP POP SWAP1 POP SWAP2 SWAP1 POP JUMP JUMPDEST PUSH1 0x2 PUSH1 0x20 MSTORE DUP1 PUSH0 MSTORE PUSH1 0x40 PUSH0 KECCAK256 PUSH0 SWAP2 POP SWAP1 POP DUP1 PUSH0 ADD PUSH0 SWAP1 SLOAD SWAP1 PUSH2 0x100 EXP SWAP1 DIV PUSH20 0xFFFFFFFFFFFFFFFFFFFFFFFFFFFFFFFFFFFFFFFF AND SWAP1 DUP1 PUSH1 0x1 ADD DUP1 SLOAD PUSH2 0x4EC SWAP1 PUSH2 0x210B JUMP JUMPDEST DUP1 PUSH1 0x1F ADD PUSH1 0x20 DUP1 SWAP2 DIV MUL PUSH1 0x20 ADD PUSH1 0x40 MLOAD SWAP1 DUP2 ADD PUSH1 0x40 MSTORE DUP1 SWAP3 SWAP2 SWAP1 DUP2 DUP2 MSTORE PUSH1 0x20 ADD DUP3 DUP1 SLOAD PUSH2 0x518 SWAP1 PUSH2 0x210B JUMP JUMPDEST DUP1 ISZERO PUSH2 0x563 JUMPI DUP1 PUSH1 0x1F LT PUSH2 0x53A JUMPI PUSH2 0x100 DUP1 DUP4 SLOAD DIV MUL DUP4 MSTORE SWAP2 PUSH1 0x20 ADD SWAP2 PUSH2 0x563 JUMP JUMPDEST DUP3 ADD SWAP2 SWAP1 PUSH0 MSTORE PUSH1 0x20 PUSH0 KECCAK256 SWAP1 JUMPDEST DUP2 SLOAD DUP2 MSTORE SWAP1 PUSH1 0x1 ADD SWAP1 PUSH1 0x20 ADD DUP1 DUP4 GT PUSH2 0x546 JUMPI DUP3 SWAP1 SUB PUSH1 0x1F AND DUP3 ADD SWAP2 JUMPDEST POP POP POP POP POP SWAP1 DUP1 PUSH1 0x2 ADD DUP1 SLOAD PUSH2 0x578 SWAP1 PUSH2 0x210B JUMP JUMPDEST DUP1 PUSH1 0x1F ADD PUSH1 0x20 DUP1 SWAP2 DIV MUL PUSH1 0x20 ADD PUSH1 0x40 MLOAD SWAP1 DUP2 ADD PUSH1 0x40 MSTORE DUP1 SWAP3 SWAP2 SWAP1 DUP2 DUP2 MSTORE PUSH1 0x20 ADD DUP3 DUP1 SLOAD PUSH2 0x5A4 SWAP1 PUSH2 0x210B JUMP JUMPDEST DUP1 ISZERO PUSH2 0x5EF JUMPI DUP1 PUSH1 0x1F LT PUSH2 0x5C6 JUMPI PUSH2 0x100 DUP1 DUP4 SLOAD DIV MUL DUP4 MSTORE SWAP2 PUSH1 0x20 ADD SWAP2 PUSH2 0x5EF JUMP JUMPDEST DUP3 ADD SWAP2 SWAP1 PUSH0 MSTORE PUSH1 0x20 PUSH0 KECCAK256 SWAP1 JUMPDEST DUP2 SLOAD DUP2 MSTORE SWAP1 PUSH1 0x1 ADD SWAP1 PUSH1 0x20 ADD DUP1 DUP4 GT PUSH2 0x5D2 JUMPI DUP3 SWAP1 SUB PUSH1 0x1F AND DUP3 ADD SWAP2 JUMPDEST POP POP POP POP POP SWAP1 DUP1 PUSH1 0x3 ADD SLOAD SWAP1 DUP1 PUSH1 0x4 ADD SLOAD SWAP1 DUP1 PUSH1 0x5 ADD SLOAD SWAP1 DUP1 PUSH1 0x8 ADD PUSH0 SWAP1 SLOAD SWAP1 PUSH2 0x100 EXP SWAP1 DIV PUSH20 0xFFFFFFFFFFFFFFFFFFFFFFFFFFFFFFFFFFFFFFFF AND SWAP1 POP DUP8 JUMP JUMPDEST PUSH0 PUSH1 0x4 PUSH0 DUP4 DUP2 MSTORE PUSH1 0x20 ADD SWAP1 DUP2 MSTORE PUSH1 0x20 ADD PUSH0 KECCAK256 PUSH0 SWAP1 SLOAD SWAP1 PUSH2 0x100 EXP SWAP1 DIV PUSH1 0xFF AND PUSH2 0x68E JUMPI PUSH1 0x40 MLOAD PUSH32 0x8C379A000000000000000000000000000000000000000000000000000000000 DUP2 MSTORE PUSH1 0x4 ADD PUSH2 0x685 SWAP1 PUSH2 0x20C0 JUMP JUMPDEST PUSH1 0x40 MLOAD DUP1 SWAP2 SUB SWAP1 REVERT JUMPDEST PUSH1 0x2 PUSH0 DUP4 DUP2 MSTORE PUSH1 0x20 ADD SWAP1 DUP2 MSTORE PUSH1 0x20 ADD PUSH0 KECCAK256 PUSH1 0x8 ADD PUSH0 SWAP1 SLOAD SWAP1 PUSH2 0x100 EXP SWAP1 DIV PUSH20 0xFFFFFFFFFFFFFFFFFFFFFFFFFFFFFFFFFFFFFFFF AND SWAP1 POP SWAP2 SWAP1 POP JUMP JUMPDEST PUSH1 0x4 PUSH1 0x20 MSTORE DUP1 PUSH0 MSTORE PUSH1 0x40 PUSH0 KECCAK256 PUSH0 SWAP2 POP SLOAD SWAP1 PUSH2 0x100 EXP SWAP1 DIV PUSH1 0xFF AND DUP2 JUMP JUMPDEST PUSH1 0x4 PUSH0 DUP4 DUP2 MSTORE PUSH1 0x20 ADD SWAP1 DUP2 MSTORE PUSH1 0x20 ADD PUSH0 KECCAK256 PUSH0 SWAP1 SLOAD SWAP1 PUSH2 0x100 EXP SWAP1 DIV PUSH1 0xFF AND PUSH2 0x743 JUMPI PUSH1 0x40 MLOAD PUSH32 0x8C379A000000000000000000000000000000000000000000000000000000000 DUP2 MSTORE PUSH1 0x4 ADD PUSH2 0x73A SWAP1 PUSH2 0x20C0 JUMP JUMPDEST PUSH1 0x40 MLOAD DUP1 SWAP2 SUB SWAP1 REVERT JUMPDEST PUSH0 DUP1 SLOAD SWAP1 PUSH2 0x100 EXP SWAP1 DIV PUSH20 0xFFFFFFFFFFFFFFFFFFFFFFFFFFFFFFFFFFFFFFFF AND PUSH20 0xFFFFFFFFFFFFFFFFFFFFFFFFFFFFFFFFFFFFFFFF AND PUSH4 0x13C876A2 CALLER PUSH1 0x40 MLOAD DUP3 PUSH4 0xFFFFFFFF AND PUSH1 0xE0 SHL DUP2 MSTORE PUSH1 0x4 ADD PUSH2 0x79B SWAP2 SWAP1 PUSH2 0x1909 JUMP JUMPDEST PUSH1 0x20 PUSH1 0x40 MLOAD DUP1 DUP4 SUB DUP2 DUP7 GAS STATICCALL ISZERO DUP1 ISZERO PUSH2 0x7B6 JUMPI RETURNDATASIZE PUSH0 DUP1 RETURNDATACOPY RETURNDATASIZE PUSH0 REVERT JUMPDEST POP POP POP POP PUSH1 0x40 MLOAD RETURNDATASIZE PUSH1 0x1F NOT PUSH1 0x1F DUP3 ADD AND DUP3 ADD DUP1 PUSH1 0x40 MSTORE POP DUP2 ADD SWAP1 PUSH2 0x7DA SWAP2 SWAP1 PUSH2 0x2165 JUMP JUMPDEST PUSH2 0x819 JUMPI PUSH1 0x40 MLOAD PUSH32 0x8C379A000000000000000000000000000000000000000000000000000000000 DUP2 MSTORE PUSH1 0x4 ADD PUSH2 0x810 SWAP1 PUSH2 0x2200 JUMP JUMPDEST PUSH1 0x40 MLOAD DUP1 SWAP2 SUB SWAP1 REVERT JUMPDEST PUSH1 0x2 PUSH0 DUP4 DUP2 MSTORE PUSH1 0x20 ADD SWAP1 DUP2 MSTORE PUSH1 0x20 ADD PUSH0 KECCAK256 PUSH1 0x6 ADD DUP2 SWAP1 DUP1 PUSH1 0x1 DUP2 SLOAD ADD DUP1 DUP3 SSTORE DUP1 SWAP2 POP POP PUSH1 0x1 SWAP1 SUB SWAP1 PUSH0 MSTORE PUSH1 0x20 PUSH0 KECCAK256 ADD PUSH0 SWAP1 SWAP2 SWAP1 SWAP2 SWAP1 SWAP2 POP SWAP1 DUP2 PUSH2 0x85C SWAP2 SWAP1 PUSH2 0x23B2 JUMP JUMPDEST POP POP POP JUMP JUMPDEST PUSH2 0x869 PUSH2 0x15AF JUMP JUMPDEST PUSH1 0x4 PUSH0 DUP4 DUP2 MSTORE PUSH1 0x20 ADD SWAP1 DUP2 MSTORE PUSH1 0x20 ADD PUSH0 KECCAK256 PUSH0 SWAP1 SLOAD SWAP1 PUSH2 0x100 EXP SWAP1 DIV PUSH1 0xFF AND PUSH2 0x8C6 JUMPI PUSH1 0x40 MLOAD PUSH32 0x8C379A000000000000000000000000000000000000000000000000000000000 DUP2 MSTORE PUSH1 0x4 ADD PUSH2 0x8BD SWAP1 PUSH2 0x20C0 JUMP JUMPDEST PUSH1 0x40 MLOAD DUP1 SWAP2 SUB SWAP1 REVERT JUMPDEST PUSH1 0x2 PUSH0 DUP4 DUP2 MSTORE PUSH1 0x20 ADD SWAP1 DUP2 MSTORE PUSH1 0x20 ADD PUSH0 KECCAK256 PUSH1 0x40 MLOAD DUP1 PUSH2 0x120 ADD PUSH1 0x40 MSTORE SWAP1 DUP2 PUSH0 DUP3 ADD PUSH0 SWAP1 SLOAD SWAP1 PUSH2 0x100 EXP SWAP1 DIV PUSH20 0xFFFFFFFFFFFFFFFFFFFFFFFFFFFFFFFFFFFFFFFF AND PUSH20 0xFFFFFFFFFFFFFFFFFFFFFFFFFFFFFFFFFFFFFFFF AND PUSH20 0xFFFFFFFFFFFFFFFFFFFFFFFFFFFFFFFFFFFFFFFF AND DUP2 MSTORE PUSH1 0x20 ADD PUSH1 0x1 DUP3 ADD DUP1 SLOAD PUSH2 0x947 SWAP1 PUSH2 0x210B JUMP JUMPDEST DUP1 PUSH1 0x1F ADD PUSH1 0x20 DUP1 SWAP2 DIV MUL PUSH1 0x20 ADD PUSH1 0x40 MLOAD SWAP1 DUP2 ADD PUSH1 0x40 MSTORE DUP1 SWAP3 SWAP2 SWAP1 DUP2 DUP2 MSTORE PUSH1 0x20 ADD DUP3 DUP1 SLOAD PUSH2 0x973 SWAP1 PUSH2 0x210B JUMP JUMPDEST DUP1 ISZERO PUSH2 0x9BE JUMPI DUP1 PUSH1 0x1F LT PUSH2 0x995 JUMPI PUSH2 0x100 DUP1 DUP4 SLOAD DIV MUL DUP4 MSTORE SWAP2 PUSH1 0x20 ADD SWAP2 PUSH2 0x9BE JUMP JUMPDEST DUP3 ADD SWAP2 SWAP1 PUSH0 MSTORE PUSH1 0x20 PUSH0 KECCAK256 SWAP1 JUMPDEST DUP2 SLOAD DUP2 MSTORE SWAP1 PUSH1 0x1 ADD SWAP1 PUSH1 0x20 ADD DUP1 DUP4 GT PUSH2 0x9A1 JUMPI DUP3 SWAP1 SUB PUSH1 0x1F AND DUP3 ADD SWAP2 JUMPDEST POP POP POP POP POP DUP2 MSTORE PUSH1 0x20 ADD PUSH1 0x2 DUP3 ADD DUP1 SLOAD PUSH2 0x9D7 SWAP1 PUSH2 0x210B JUMP JUMPDEST DUP1 PUSH1 0x1F ADD PUSH1 0x20 DUP1 SWAP2 DIV MUL PUSH1 0x20 ADD PUSH1 0x40 MLOAD SWAP1 DUP2 ADD PUSH1 0x40 MSTORE DUP1 SWAP3 SWAP2 SWAP1 DUP2 DUP2 MSTORE PUSH1 0x20 ADD DUP3 DUP1 SLOAD PUSH2 0xA03 SWAP1 PUSH2 0x210B JUMP JUMPDEST DUP1 ISZERO PUSH2 0xA4E JUMPI DUP1 PUSH1 0x1F LT PUSH2 0xA25 JUMPI PUSH2 0x100 DUP1 DUP4 SLOAD DIV MUL DUP4 MSTORE SWAP2 PUSH1 0x20 ADD SWAP2 PUSH2 0xA4E JUMP JUMPDEST DUP3 ADD SWAP2 SWAP1 PUSH0 MSTORE PUSH1 0x20 PUSH0 KECCAK256 SWAP1 JUMPDEST DUP2 SLOAD DUP2 MSTORE SWAP1 PUSH1 0x1 ADD SWAP1 PUSH1 0x20 ADD DUP1 DUP4 GT PUSH2 0xA31 JUMPI DUP3 SWAP1 SUB PUSH1 0x1F AND DUP3 ADD SWAP2 JUMPDEST POP POP POP POP POP DUP2 MSTORE PUSH1 0x20 ADD PUSH1 0x3 DUP3 ADD SLOAD DUP2 MSTORE PUSH1 0x20 ADD PUSH1 0x4 DUP3 ADD SLOAD DUP2 MSTORE PUSH1 0x20 ADD PUSH1 0x5 DUP3 ADD SLOAD DUP2 MSTORE PUSH1 0x20 ADD PUSH1 0x6 DUP3 ADD DUP1 SLOAD DUP1 PUSH1 0x20 MUL PUSH1 0x20 ADD PUSH1 0x40 MLOAD SWAP1 DUP2 ADD PUSH1 0x40 MSTORE DUP1 SWAP3 SWAP2 SWAP1 DUP2 DUP2 MSTORE PUSH1 0x20 ADD PUSH0 SWAP1 JUMPDEST DUP3 DUP3 LT ISZERO PUSH2 0xB41 JUMPI DUP4 DUP3 SWAP1 PUSH0 MSTORE PUSH1 0x20 PUSH0 KECCAK256 ADD DUP1 SLOAD PUSH2 0xAB6 SWAP1 PUSH2 0x210B JUMP JUMPDEST DUP1 PUSH1 0x1F ADD PUSH1 0x20 DUP1 SWAP2 DIV MUL PUSH1 0x20 ADD PUSH1 0x40 MLOAD SWAP1 DUP2 ADD PUSH1 0x40 MSTORE DUP1 SWAP3 SWAP2 SWAP1 DUP2 DUP2 MSTORE PUSH1 0x20 ADD DUP3 DUP1 SLOAD PUSH2 0xAE2 SWAP1 PUSH2 0x210B JUMP JUMPDEST DUP1 ISZERO PUSH2 0xB2D JUMPI DUP1 PUSH1 0x1F LT PUSH2 0xB04 JUMPI PUSH2 0x100 DUP1 DUP4 SLOAD DIV MUL DUP4 MSTORE SWAP2 PUSH1 0x20 ADD SWAP2 PUSH2 0xB2D JUMP JUMPDEST DUP3 ADD SWAP2 SWAP1 PUSH0 MSTORE PUSH1 0x20 PUSH0 KECCAK256 SWAP1 JUMPDEST DUP2 SLOAD DUP2 MSTORE SWAP1 PUSH1 0x1 ADD SWAP1 PUSH1 0x20 ADD DUP1 DUP4 GT PUSH2 0xB10 JUMPI DUP3 SWAP1 SUB PUSH1 0x1F AND DUP3 ADD SWAP2 JUMPDEST POP POP POP POP POP DUP2 MSTORE PUSH1 0x20 ADD SWAP1 PUSH1 0x1 ADD SWAP1 PUSH2 0xA99 JUMP JUMPDEST POP POP POP POP DUP2 MSTORE PUSH1 0x20 ADD PUSH1 0x7 DUP3 ADD DUP1 SLOAD DUP1 PUSH1 0x20 MUL PUSH1 0x20 ADD PUSH1 0x40 MLOAD SWAP1 DUP2 ADD PUSH1 0x40 MSTORE DUP1 SWAP3 SWAP2 SWAP1 DUP2 DUP2 MSTORE PUSH1 0x20 ADD DUP3 DUP1 SLOAD DUP1 ISZERO PUSH2 0xBCB JUMPI PUSH1 0x20 MUL DUP3 ADD SWAP2 SWAP1 PUSH0 MSTORE PUSH1 0x20 PUSH0 KECCAK256 SWAP1 JUMPDEST DUP2 PUSH0 SWAP1 SLOAD SWAP1 PUSH2 0x100 EXP SWAP1 DIV PUSH20 0xFFFFFFFFFFFFFFFFFFFFFFFFFFFFFFFFFFFFFFFF AND PUSH20 0xFFFFFFFFFFFFFFFFFFFFFFFFFFFFFFFFFFFFFFFF AND DUP2 MSTORE PUSH1 0x20 ADD SWAP1 PUSH1 0x1 ADD SWAP1 DUP1 DUP4 GT PUSH2 0xB82 JUMPI JUMPDEST POP POP POP POP POP DUP2 MSTORE PUSH1 0x20 ADD PUSH1 0x8 DUP3 ADD PUSH0 SWAP1 SLOAD SWAP1 PUSH2 0x100 EXP SWAP1 DIV PUSH20 0xFFFFFFFFFFFFFFFFFFFFFFFFFFFFFFFFFFFFFFFF AND PUSH20 0xFFFFFFFFFFFFFFFFFFFFFFFFFFFFFFFFFFFFFFFF AND PUSH20 0xFFFFFFFFFFFFFFFFFFFFFFFFFFFFFFFFFFFFFFFF AND DUP2 MSTORE POP POP SWAP1 POP SWAP2 SWAP1 POP JUMP JUMPDEST PUSH1 0x1 PUSH0 SWAP1 SLOAD SWAP1 PUSH2 0x100 EXP SWAP1 DIV PUSH20 0xFFFFFFFFFFFFFFFFFFFFFFFFFFFFFFFFFFFFFFFF AND DUP2 JUMP JUMPDEST PUSH1 0x5 SLOAD DUP2 JUMP JUMPDEST PUSH0 PUSH1 0x60 DUP1 PUSH0 DUP1 PUSH0 DUP1 PUSH1 0x2 PUSH0 DUP10 DUP2 MSTORE PUSH1 0x20 ADD SWAP1 DUP2 MSTORE PUSH1 0x20 ADD PUSH0 KECCAK256 SWAP1 POP DUP1 PUSH0 ADD PUSH0 SWAP1 SLOAD SWAP1 PUSH2 0x100 EXP SWAP1 DIV PUSH20 0xFFFFFFFFFFFFFFFFFFFFFFFFFFFFFFFFFFFFFFFF AND DUP2 PUSH1 0x1 ADD DUP3 PUSH1 0x2 ADD DUP4 PUSH1 0x3 ADD SLOAD DUP5 PUSH1 0x4 ADD SLOAD DUP6 PUSH1 0x5 ADD SLOAD DUP5 DUP1 SLOAD PUSH2 0xCBC SWAP1 PUSH2 0x210B JUMP JUMPDEST DUP1 PUSH1 0x1F ADD PUSH1 0x20 DUP1 SWAP2 DIV MUL PUSH1 0x20 ADD PUSH1 0x40 MLOAD SWAP1 DUP2 ADD PUSH1 0x40 MSTORE DUP1 SWAP3 SWAP2 SWAP1 DUP2 DUP2 MSTORE PUSH1 0x20 ADD DUP3 DUP1 SLOAD PUSH2 0xCE8 SWAP1 PUSH2 0x210B JUMP JUMPDEST DUP1 ISZERO PUSH2 0xD33 JUMPI DUP1 PUSH1 0x1F LT PUSH2 0xD0A JUMPI PUSH2 0x100 DUP1 DUP4 SLOAD DIV MUL DUP4 MSTORE SWAP2 PUSH1 0x20 ADD SWAP2 PUSH2 0xD33 JUMP JUMPDEST DUP3 ADD SWAP2 SWAP1 PUSH0 MSTORE PUSH1 0x20 PUSH0 KECCAK256 SWAP1 JUMPDEST DUP2 SLOAD DUP2 MSTORE SWAP1 PUSH1 0x1 ADD SWAP1 PUSH1 0x20 ADD DUP1 DUP4 GT PUSH2 0xD16 JUMPI DUP3 SWAP1 SUB PUSH1 0x1F AND DUP3 ADD SWAP2 JUMPDEST POP POP POP POP POP SWAP5 POP DUP4 DUP1 SLOAD PUSH2 0xD46 SWAP1 PUSH2 0x210B JUMP JUMPDEST DUP1 PUSH1 0x1F ADD PUSH1 0x20 DUP1 SWAP2 DIV MUL PUSH1 0x20 ADD PUSH1 0x40 MLOAD SWAP1 DUP2 ADD PUSH1 0x40 MSTORE DUP1 SWAP3 SWAP2 SWAP1 DUP2 DUP2 MSTORE PUSH1 0x20 ADD DUP3 DUP1 SLOAD PUSH2 0xD72 SWAP1 PUSH2 0x210B JUMP JUMPDEST DUP1 ISZERO PUSH2 0xDBD JUMPI DUP1 PUSH1 0x1F LT PUSH2 0xD94 JUMPI PUSH2 0x100 DUP1 DUP4 SLOAD DIV MUL DUP4 MSTORE SWAP2 PUSH1 0x20 ADD SWAP2 PUSH2 0xDBD JUMP JUMPDEST DUP3 ADD SWAP2 SWAP1 PUSH0 MSTORE PUSH1 0x20 PUSH0 KECCAK256 SWAP1 JUMPDEST DUP2 SLOAD DUP2 MSTORE SWAP1 PUSH1 0x1 ADD SWAP1 PUSH1 0x20 ADD DUP1 DUP4 GT PUSH2 0xDA0 JUMPI DUP3 SWAP1 SUB PUSH1 0x1F AND DUP3 ADD SWAP2 JUMPDEST POP POP POP POP POP SWAP4 POP SWAP7 POP SWAP7 POP SWAP7 POP SWAP7 POP SWAP7 POP SWAP7 POP POP SWAP2 SWAP4 SWAP6 POP SWAP2 SWAP4 SWAP6 JUMP JUMPDEST PUSH0 DUP1 SLOAD SWAP1 PUSH2 0x100 EXP SWAP1 DIV PUSH20 0xFFFFFFFFFFFFFFFFFFFFFFFFFFFFFFFFFFFFFFFF AND PUSH20 0xFFFFFFFFFFFFFFFFFFFFFFFFFFFFFFFFFFFFFFFF AND PUSH4 0x13C876A2 CALLER PUSH1 0x40 MLOAD DUP3 PUSH4 0xFFFFFFFF AND PUSH1 0xE0 SHL DUP2 MSTORE PUSH1 0x4 ADD PUSH2 0xE32 SWAP2 SWAP1 PUSH2 0x1909 JUMP JUMPDEST PUSH1 0x20 PUSH1 0x40 MLOAD DUP1 DUP4 SUB DUP2 DUP7 GAS STATICCALL ISZERO DUP1 ISZERO PUSH2 0xE4D JUMPI RETURNDATASIZE PUSH0 DUP1 RETURNDATACOPY RETURNDATASIZE PUSH0 REVERT JUMPDEST POP POP POP POP PUSH1 0x40 MLOAD RETURNDATASIZE PUSH1 0x1F NOT PUSH1 0x1F DUP3 ADD AND DUP3 ADD DUP1 PUSH1 0x40 MSTORE POP DUP2 ADD SWAP1 PUSH2 0xE71 SWAP2 SWAP1 PUSH2 0x2165 JUMP JUMPDEST PUSH2 0xEB0 JUMPI PUSH1 0x40 MLOAD PUSH32 0x8C379A000000000000000000000000000000000000000000000000000000000 DUP2 MSTORE PUSH1 0x4 ADD PUSH2 0xEA7 SWAP1 PUSH2 0x24CB JUMP JUMPDEST PUSH1 0x40 MLOAD DUP1 SWAP2 SUB SWAP1 REVERT JUMPDEST PUSH0 DUP3 MLOAD GT PUSH2 0xEF3 JUMPI PUSH1 0x40 MLOAD PUSH32 0x8C379A000000000000000000000000000000000000000000000000000000000 DUP2 MSTORE PUSH1 0x4 ADD PUSH2 0xEEA SWAP1 PUSH2 0x2533 JUMP JUMPDEST PUSH1 0x40 MLOAD DUP1 SWAP2 SUB SWAP1 REVERT JUMPDEST PUSH0 DUP2 GT DUP1 ISZERO PUSH2 0xF03 JUMPI POP DUP2 MLOAD DUP2 GT ISZERO JUMPDEST PUSH2 0xF42 JUMPI PUSH1 0x40 MLOAD PUSH32 0x8C379A000000000000000000000000000000000000000000000000000000000 DUP2 MSTORE PUSH1 0x4 ADD PUSH2 0xF39 SWAP1 PUSH2 0x259B JUMP JUMPDEST PUSH1 0x40 MLOAD DUP1 SWAP2 SUB SWAP1 REVERT JUMPDEST PUSH1 0x5 PUSH0 DUP2 SLOAD DUP1 SWAP3 SWAP2 SWAP1 PUSH2 0xF54 SWAP1 PUSH2 0x25E6 JUMP JUMPDEST SWAP2 SWAP1 POP SSTORE POP PUSH0 PUSH1 0x2 PUSH0 PUSH1 0x5 SLOAD DUP2 MSTORE PUSH1 0x20 ADD SWAP1 DUP2 MSTORE PUSH1 0x20 ADD PUSH0 KECCAK256 SWAP1 POP DUP6 DUP2 PUSH1 0x1 ADD SWAP1 DUP2 PUSH2 0xF80 SWAP2 SWAP1 PUSH2 0x23B2 JUMP JUMPDEST POP DUP5 DUP2 PUSH1 0x2 ADD SWAP1 DUP2 PUSH2 0xF92 SWAP2 SWAP1 PUSH2 0x23B2 JUMP JUMPDEST POP DUP4 DUP2 PUSH1 0x3 ADD DUP2 SWAP1 SSTORE POP PUSH0 DUP2 PUSH1 0x4 ADD DUP2 SWAP1 SSTORE POP PUSH0 DUP2 PUSH1 0x5 ADD DUP2 SWAP1 SSTORE POP CALLER DUP2 PUSH0 ADD PUSH0 PUSH2 0x100 EXP DUP2 SLOAD DUP2 PUSH20 0xFFFFFFFFFFFFFFFFFFFFFFFFFFFFFFFFFFFFFFFF MUL NOT AND SWAP1 DUP4 PUSH20 0xFFFFFFFFFFFFFFFFFFFFFFFFFFFFFFFFFFFFFFFF AND MUL OR SWAP1 SSTORE POP DUP3 DUP3 PUSH1 0x1 PUSH0 SWAP1 SLOAD SWAP1 PUSH2 0x100 EXP SWAP1 DIV PUSH20 0xFFFFFFFFFFFFFFFFFFFFFFFFFFFFFFFFFFFFFFFF AND PUSH1 0x40 MLOAD PUSH2 0x101F SWAP1 PUSH2 0x1622 JUMP JUMPDEST PUSH2 0x102B SWAP4 SWAP3 SWAP2 SWAP1 PUSH2 0x262D JUMP JUMPDEST PUSH1 0x40 MLOAD DUP1 SWAP2 SUB SWAP1 PUSH0 CREATE DUP1 ISZERO DUP1 ISZERO PUSH2 0x1044 JUMPI RETURNDATASIZE PUSH0 DUP1 RETURNDATACOPY RETURNDATASIZE PUSH0 REVERT JUMPDEST POP DUP2 PUSH1 0x8 ADD PUSH0 PUSH2 0x100 EXP DUP2 SLOAD DUP2 PUSH20 0xFFFFFFFFFFFFFFFFFFFFFFFFFFFFFFFFFFFFFFFF MUL NOT AND SWAP1 DUP4 PUSH20 0xFFFFFFFFFFFFFFFFFFFFFFFFFFFFFFFFFFFFFFFF AND MUL OR SWAP1 SSTORE POP PUSH1 0x1 PUSH1 0x4 PUSH0 PUSH1 0x5 SLOAD DUP2 MSTORE PUSH1 0x20 ADD SWAP1 DUP2 MSTORE PUSH1 0x20 ADD PUSH0 KECCAK256 PUSH0 PUSH2 0x100 EXP DUP2 SLOAD DUP2 PUSH1 0xFF MUL NOT AND SWAP1 DUP4 ISZERO ISZERO MUL OR SWAP1 SSTORE POP POP POP POP POP POP POP JUMP JUMPDEST PUSH1 0x3 PUSH1 0x20 MSTORE DUP2 PUSH0 MSTORE PUSH1 0x40 PUSH0 KECCAK256 PUSH1 0x20 MSTORE DUP1 PUSH0 MSTORE PUSH1 0x40 PUSH0 KECCAK256 PUSH0 SWAP2 POP SWAP2 POP POP SLOAD DUP2 JUMP JUMPDEST PUSH1 0x4 PUSH0 DUP3 DUP2 MSTORE PUSH1 0x20 ADD SWAP1 DUP2 MSTORE PUSH1 0x20 ADD PUSH0 KECCAK256 PUSH0 SWAP1 SLOAD SWAP1 PUSH2 0x100 EXP SWAP1 DIV PUSH1 0xFF AND PUSH2 0x1136 JUMPI PUSH1 0x40 MLOAD PUSH32 0x8C379A000000000000000000000000000000000000000000000000000000000 DUP2 MSTORE PUSH1 0x4 ADD PUSH2 0x112D SWAP1 PUSH2 0x20C0 JUMP JUMPDEST PUSH1 0x40 MLOAD DUP1 SWAP2 SUB SWAP1 REVERT JUMPDEST PUSH0 DUP1 SLOAD SWAP1 PUSH2 0x100 EXP SWAP1 DIV PUSH20 0xFFFFFFFFFFFFFFFFFFFFFFFFFFFFFFFFFFFFFFFF AND PUSH20 0xFFFFFFFFFFFFFFFFFFFFFFFFFFFFFFFFFFFFFFFF AND PUSH4 0xABAF78D4 CALLER PUSH1 0x40 MLOAD DUP3 PUSH4 0xFFFFFFFF AND PUSH1 0xE0 SHL DUP2 MSTORE PUSH1 0x4 ADD PUSH2 0x118E SWAP2 SWAP1 PUSH2 0x1909 JUMP JUMPDEST PUSH1 0x20 PUSH1 0x40 MLOAD DUP1 DUP4 SUB DUP2 DUP7 GAS STATICCALL ISZERO DUP1 ISZERO PUSH2 0x11A9 JUMPI RETURNDATASIZE PUSH0 DUP1 RETURNDATACOPY RETURNDATASIZE PUSH0 REVERT JUMPDEST POP POP POP POP PUSH1 0x40 MLOAD RETURNDATASIZE PUSH1 0x1F NOT PUSH1 0x1F DUP3 ADD AND DUP3 ADD DUP1 PUSH1 0x40 MSTORE POP DUP2 ADD SWAP1 PUSH2 0x11CD SWAP2 SWAP1 PUSH2 0x2165 JUMP JUMPDEST PUSH2 0x120C JUMPI PUSH1 0x40 MLOAD PUSH32 0x8C379A000000000000000000000000000000000000000000000000000000000 DUP2 MSTORE PUSH1 0x4 ADD PUSH2 0x1203 SWAP1 PUSH2 0x26B3 JUMP JUMPDEST PUSH1 0x40 MLOAD DUP1 SWAP2 SUB SWAP1 REVERT JUMPDEST PUSH0 CALLVALUE GT PUSH2 0x124E JUMPI PUSH1 0x40 MLOAD PUSH32 0x8C379A000000000000000000000000000000000000000000000000000000000 DUP2 MSTORE PUSH1 0x4 ADD PUSH2 0x1245 SWAP1 PUSH2 0x271B JUMP JUMPDEST PUSH1 0x40 MLOAD DUP1 SWAP2 SUB SWAP1 REVERT JUMPDEST CALLVALUE PUSH1 0x3 PUSH0 DUP4 DUP2 MSTORE PUSH1 0x20 ADD SWAP1 DUP2 MSTORE PUSH1 0x20 ADD PUSH0 KECCAK256 PUSH0 CALLER PUSH20 0xFFFFFFFFFFFFFFFFFFFFFFFFFFFFFFFFFFFFFFFF AND PUSH20 0xFFFFFFFFFFFFFFFFFFFFFFFFFFFFFFFFFFFFFFFF AND DUP2 MSTORE PUSH1 0x20 ADD SWAP1 DUP2 MSTORE PUSH1 0x20 ADD PUSH0 KECCAK256 PUSH0 DUP3 DUP3 SLOAD PUSH2 0x12A9 SWAP2 SWAP1 PUSH2 0x2739 JUMP JUMPDEST SWAP3 POP POP DUP2 SWAP1 SSTORE POP CALLVALUE PUSH1 0x2 PUSH0 DUP4 DUP2 MSTORE PUSH1 0x20 ADD SWAP1 DUP2 MSTORE PUSH1 0x20 ADD PUSH0 KECCAK256 PUSH1 0x4 ADD PUSH0 DUP3 DUP3 SLOAD PUSH2 0x12D3 SWAP2 SWAP1 PUSH2 0x2739 JUMP JUMPDEST SWAP3 POP POP DUP2 SWAP1 SSTORE POP PUSH1 0x2 PUSH0 DUP3 DUP2 MSTORE PUSH1 0x20 ADD SWAP1 DUP2 MSTORE PUSH1 0x20 ADD PUSH0 KECCAK256 PUSH1 0x7 ADD CALLER SWAP1 DUP1 PUSH1 0x1 DUP2 SLOAD ADD DUP1 DUP3 SSTORE DUP1 SWAP2 POP POP PUSH1 0x1 SWAP1 SUB SWAP1 PUSH0 MSTORE PUSH1 0x20 PUSH0 KECCAK256 ADD PUSH0 SWAP1 SWAP2 SWAP1 SWAP2 SWAP1 SWAP2 PUSH2 0x100 EXP DUP2 SLOAD DUP2 PUSH20 0xFFFFFFFFFFFFFFFFFFFFFFFFFFFFFFFFFFFFFFFF MUL NOT AND SWAP1 DUP4 PUSH20 0xFFFFFFFFFFFFFFFFFFFFFFFFFFFFFFFFFFFFFFFF AND MUL OR SWAP1 SSTORE POP POP JUMP JUMPDEST PUSH0 DUP1 SLOAD SWAP1 PUSH2 0x100 EXP SWAP1 DIV PUSH20 0xFFFFFFFFFFFFFFFFFFFFFFFFFFFFFFFFFFFFFFFF AND DUP2 JUMP JUMPDEST PUSH1 0x4 PUSH0 DUP5 DUP2 MSTORE PUSH1 0x20 ADD SWAP1 DUP2 MSTORE PUSH1 0x20 ADD PUSH0 KECCAK256 PUSH0 SWAP1 SLOAD SWAP1 PUSH2 0x100 EXP SWAP1 DIV PUSH1 0xFF AND PUSH2 0x13CF JUMPI PUSH1 0x40 MLOAD PUSH32 0x8C379A000000000000000000000000000000000000000000000000000000000 DUP2 MSTORE PUSH1 0x4 ADD PUSH2 0x13C6 SWAP1 PUSH2 0x20C0 JUMP JUMPDEST PUSH1 0x40 MLOAD DUP1 SWAP2 SUB SWAP1 REVERT JUMPDEST CALLER PUSH20 0xFFFFFFFFFFFFFFFFFFFFFFFFFFFFFFFFFFFFFFFF AND PUSH1 0x2 PUSH0 DUP6 DUP2 MSTORE PUSH1 0x20 ADD SWAP1 DUP2 MSTORE PUSH1 0x20 ADD PUSH0 KECCAK256 PUSH0 ADD PUSH0 SWAP1 SLOAD SWAP1 PUSH2 0x100 EXP SWAP1 DIV PUSH20 0xFFFFFFFFFFFFFFFFFFFFFFFFFFFFFFFFFFFFFFFF AND PUSH20 0xFFFFFFFFFFFFFFFFFFFFFFFFFFFFFFFFFFFFFFFF AND EQ PUSH2 0x146F JUMPI PUSH1 0x40 MLOAD PUSH32 0x8C379A000000000000000000000000000000000000000000000000000000000 DUP2 MSTORE PUSH1 0x4 ADD PUSH2 0x1466 SWAP1 PUSH2 0x27B6 JUMP JUMPDEST PUSH1 0x40 MLOAD DUP1 SWAP2 SUB SWAP1 REVERT JUMPDEST PUSH1 0x2 PUSH0 DUP5 DUP2 MSTORE PUSH1 0x20 ADD SWAP1 DUP2 MSTORE PUSH1 0x20 ADD PUSH0 KECCAK256 PUSH1 0x5 ADD SLOAD PUSH1 0x2 PUSH0 DUP6 DUP2 MSTORE PUSH1 0x20 ADD SWAP1 DUP2 MSTORE PUSH1 0x20 ADD PUSH0 KECCAK256 PUSH1 0x4 ADD SLOAD PUSH2 0x14A3 SWAP2 SWAP1 PUSH2 0x27D4 JUMP JUMPDEST DUP2 GT ISZERO PUSH2 0x14E5 JUMPI PUSH1 0x40 MLOAD PUSH32 0x8C379A000000000000000000000000000000000000000000000000000000000 DUP2 MSTORE PUSH1 0x4 ADD PUSH2 0x14DC SWAP1 PUSH2 0x2851 JUMP JUMPDEST PUSH1 0x40 MLOAD DUP1 SWAP2 SUB SWAP1 REVERT JUMPDEST DUP1 PUSH1 0x2 PUSH0 DUP6 DUP2 MSTORE PUSH1 0x20 ADD SWAP1 DUP2 MSTORE PUSH1 0x20 ADD PUSH0 KECCAK256 PUSH1 0x5 ADD PUSH0 DUP3 DUP3 SLOAD PUSH2 0x1508 SWAP2 SWAP1 PUSH2 0x2739 JUMP JUMPDEST SWAP3 POP POP DUP2 SWAP1 SSTORE POP PUSH1 0x2 PUSH0 DUP5 DUP2 MSTORE PUSH1 0x20 ADD SWAP1 DUP2 MSTORE PUSH1 0x20 ADD PUSH0 KECCAK256 PUSH1 0x8 ADD PUSH0 SWAP1 SLOAD SWAP1 PUSH2 0x100 EXP SWAP1 DIV PUSH20 0xFFFFFFFFFFFFFFFFFFFFFFFFFFFFFFFFFFFFFFFF AND PUSH20 0xFFFFFFFFFFFFFFFFFFFFFFFFFFFFFFFFFFFFFFFF AND PUSH4 0x1E7F8F0F DUP4 DUP4 PUSH1 0x40 MLOAD DUP4 PUSH4 0xFFFFFFFF AND PUSH1 0xE0 SHL DUP2 MSTORE PUSH1 0x4 ADD PUSH2 0x157D SWAP3 SWAP2 SWAP1 PUSH2 0x286F JUMP JUMPDEST PUSH0 PUSH1 0x40 MLOAD DUP1 DUP4 SUB DUP2 PUSH0 DUP8 DUP1 EXTCODESIZE ISZERO DUP1 ISZERO PUSH2 0x1594 JUMPI PUSH0 DUP1 REVERT JUMPDEST POP GAS CALL ISZERO DUP1 ISZERO PUSH2 0x15A6 JUMPI RETURNDATASIZE PUSH0 DUP1 RETURNDATACOPY RETURNDATASIZE PUSH0 REVERT JUMPDEST POP POP POP POP POP POP POP JUMP JUMPDEST PUSH1 0x40 MLOAD DUP1 PUSH2 0x120 ADD PUSH1 0x40 MSTORE DUP1 PUSH0 PUSH20 0xFFFFFFFFFFFFFFFFFFFFFFFFFFFFFFFFFFFFFFFF AND DUP2 MSTORE PUSH1 0x20 ADD PUSH1 0x60 DUP2 MSTORE PUSH1 0x20 ADD PUSH1 0x60 DUP2 MSTORE PUSH1 0x20 ADD PUSH0 DUP2 MSTORE PUSH1 0x20 ADD PUSH0 DUP2 MSTORE PUSH1 0x20 ADD PUSH0 DUP2 MSTORE PUSH1 0x20 ADD PUSH1 0x60 DUP2 MSTORE PUSH1 0x20 ADD PUSH1 0x60 DUP2 MSTORE PUSH1 0x20 ADD PUSH0 PUSH20 0xFFFFFFFFFFFFFFFFFFFFFFFFFFFFFFFFFFFFFFFF AND DUP2 MSTORE POP SWAP1 JUMP JUMPDEST PUSH2 0x1BB7 DUP1 PUSH2 0x2897 DUP4 CODECOPY ADD SWAP1 JUMP JUMPDEST PUSH0 PUSH1 0x40 MLOAD SWAP1 POP SWAP1 JUMP JUMPDEST PUSH0 DUP1 REVERT JUMPDEST PUSH0 DUP1 REVERT JUMPDEST PUSH0 DUP2 SWAP1 POP SWAP2 SWAP1 POP JUMP JUMPDEST PUSH2 0x1652 DUP2 PUSH2 0x1640 JUMP JUMPDEST DUP2 EQ PUSH2 0x165C JUMPI PUSH0 DUP1 REVERT JUMPDEST POP JUMP JUMPDEST PUSH0 DUP2 CALLDATALOAD SWAP1 POP PUSH2 0x166D DUP2 PUSH2 0x1649 JUMP JUMPDEST SWAP3 SWAP2 POP POP JUMP JUMPDEST PUSH0 PUSH1 0x20 DUP3 DUP5 SUB SLT ISZERO PUSH2 0x1688 JUMPI PUSH2 0x1687 PUSH2 0x1638 JUMP JUMPDEST JUMPDEST PUSH0 PUSH2 0x1695 DUP5 DUP3 DUP6 ADD PUSH2 0x165F JUMP JUMPDEST SWAP2 POP POP SWAP3 SWAP2 POP POP JUMP JUMPDEST PUSH0 DUP2 MLOAD SWAP1 POP SWAP2 SWAP1 POP JUMP JUMPDEST PUSH0 DUP3 DUP3 MSTORE PUSH1 0x20 DUP3 ADD SWAP1 POP SWAP3 SWAP2 POP POP JUMP JUMPDEST PUSH0 DUP2 SWAP1 POP PUSH1 0x20 DUP3 ADD SWAP1 POP SWAP2 SWAP1 POP JUMP JUMPDEST PUSH0 PUSH20 0xFFFFFFFFFFFFFFFFFFFFFFFFFFFFFFFFFFFFFFFF DUP3 AND SWAP1 POP SWAP2 SWAP1 POP JUMP JUMPDEST PUSH0 PUSH2 0x16F0 DUP3 PUSH2 0x16C7 JUMP JUMPDEST SWAP1 POP SWAP2 SWAP1 POP JUMP JUMPDEST PUSH2 0x1700 DUP2 PUSH2 0x16E6 JUMP JUMPDEST DUP3 MSTORE POP POP JUMP JUMPDEST PUSH0 PUSH2 0x1711 DUP4 DUP4 PUSH2 0x16F7 JUMP JUMPDEST PUSH1 0x20 DUP4 ADD SWAP1 POP SWAP3 SWAP2 POP POP JUMP JUMPDEST PUSH0 PUSH1 0x20 DUP3 ADD SWAP1 POP SWAP2 SWAP1 POP JUMP JUMPDEST PUSH0 PUSH2 0x1733 DUP3 PUSH2 0x169E JUMP JUMPDEST PUSH2 0x173D DUP2 DUP6 PUSH2 0x16A8 JUMP JUMPDEST SWAP4 POP PUSH2 0x1748 DUP4 PUSH2 0x16B8 JUMP JUMPDEST DUP1 PUSH0 JUMPDEST DUP4 DUP2 LT ISZERO PUSH2 0x1778 JUMPI DUP2 MLOAD PUSH2 0x175F DUP9 DUP3 PUSH2 0x1706 JUMP JUMPDEST SWAP8 POP PUSH2 0x176A DUP4 PUSH2 0x171D JUMP JUMPDEST SWAP3 POP POP PUSH1 0x1 DUP2 ADD SWAP1 POP PUSH2 0x174B JUMP JUMPDEST POP DUP6 SWAP4 POP POP POP POP SWAP3 SWAP2 POP POP JUMP JUMPDEST PUSH0 PUSH1 0x20 DUP3 ADD SWAP1 POP DUP2 DUP2 SUB PUSH0 DUP4 ADD MSTORE PUSH2 0x179D DUP2 DUP5 PUSH2 0x1729 JUMP JUMPDEST SWAP1 POP SWAP3 SWAP2 POP POP JUMP JUMPDEST PUSH2 0x17AE DUP2 PUSH2 0x16E6 JUMP JUMPDEST DUP3 MSTORE POP POP JUMP JUMPDEST PUSH0 DUP2 MLOAD SWAP1 POP SWAP2 SWAP1 POP JUMP JUMPDEST PUSH0 DUP3 DUP3 MSTORE PUSH1 0x20 DUP3 ADD SWAP1 POP SWAP3 SWAP2 POP POP JUMP JUMPDEST DUP3 DUP2 DUP4 MCOPY PUSH0 DUP4 DUP4 ADD MSTORE POP POP POP JUMP JUMPDEST PUSH0 PUSH1 0x1F NOT PUSH1 0x1F DUP4 ADD AND SWAP1 POP SWAP2 SWAP1 POP JUMP JUMPDEST PUSH0 PUSH2 0x17F6 DUP3 PUSH2 0x17B4 JUMP JUMPDEST PUSH2 0x1800 DUP2 DUP6 PUSH2 0x17BE JUMP JUMPDEST SWAP4 POP PUSH2 0x1810 DUP2 DUP6 PUSH1 0x20 DUP7 ADD PUSH2 0x17CE JUMP JUMPDEST PUSH2 0x1819 DUP2 PUSH2 0x17DC JUMP JUMPDEST DUP5 ADD SWAP2 POP POP SWAP3 SWAP2 POP POP JUMP JUMPDEST PUSH2 0x182D DUP2 PUSH2 0x1640 JUMP JUMPDEST DUP3 MSTORE POP POP JUMP JUMPDEST PUSH0 DUP2 SWAP1 POP SWAP2 SWAP1 POP JUMP JUMPDEST PUSH0 PUSH2 0x1856 PUSH2 0x1851 PUSH2 0x184C DUP5 PUSH2 0x16C7 JUMP JUMPDEST PUSH2 0x1833 JUMP JUMPDEST PUSH2 0x16C7 JUMP JUMPDEST SWAP1 POP SWAP2 SWAP1 POP JUMP JUMPDEST PUSH0 PUSH2 0x1867 DUP3 PUSH2 0x183C JUMP JUMPDEST SWAP1 POP SWAP2 SWAP1 POP JUMP JUMPDEST PUSH0 PUSH2 0x1878 DUP3 PUSH2 0x185D JUMP JUMPDEST SWAP1 POP SWAP2 SWAP1 POP JUMP JUMPDEST PUSH2 0x1888 DUP2 PUSH2 0x186E JUMP JUMPDEST DUP3 MSTORE POP POP JUMP JUMPDEST PUSH0 PUSH1 0xE0 DUP3 ADD SWAP1 POP PUSH2 0x18A1 PUSH0 DUP4 ADD DUP11 PUSH2 0x17A5 JUMP JUMPDEST DUP2 DUP2 SUB PUSH1 0x20 DUP4 ADD MSTORE PUSH2 0x18B3 DUP2 DUP10 PUSH2 0x17EC JUMP JUMPDEST SWAP1 POP DUP2 DUP2 SUB PUSH1 0x40 DUP4 ADD MSTORE PUSH2 0x18C7 DUP2 DUP9 PUSH2 0x17EC JUMP JUMPDEST SWAP1 POP PUSH2 0x18D6 PUSH1 0x60 DUP4 ADD DUP8 PUSH2 0x1824 JUMP JUMPDEST PUSH2 0x18E3 PUSH1 0x80 DUP4 ADD DUP7 PUSH2 0x1824 JUMP JUMPDEST PUSH2 0x18F0 PUSH1 0xA0 DUP4 ADD DUP6 PUSH2 0x1824 JUMP JUMPDEST PUSH2 0x18FD PUSH1 0xC0 DUP4 ADD DUP5 PUSH2 0x187F JUMP JUMPDEST SWAP9 SWAP8 POP POP POP POP POP POP POP POP JUMP JUMPDEST PUSH0 PUSH1 0x20 DUP3 ADD SWAP1 POP PUSH2 0x191C PUSH0 DUP4 ADD DUP5 PUSH2 0x17A5 JUMP JUMPDEST SWAP3 SWAP2 POP POP JUMP JUMPDEST PUSH0 DUP2 ISZERO ISZERO SWAP1 POP SWAP2 SWAP1 POP JUMP JUMPDEST PUSH2 0x1936 DUP2 PUSH2 0x1922 JUMP JUMPDEST DUP3 MSTORE POP POP JUMP JUMPDEST PUSH0 PUSH1 0x20 DUP3 ADD SWAP1 POP PUSH2 0x194F PUSH0 DUP4 ADD DUP5 PUSH2 0x192D JUMP JUMPDEST SWAP3 SWAP2 POP POP JUMP JUMPDEST PUSH0 DUP1 REVERT JUMPDEST PUSH0 DUP1 REVERT JUMPDEST PUSH32 0x4E487B7100000000000000000000000000000000000000000000000000000000 PUSH0 MSTORE PUSH1 0x41 PUSH1 0x4 MSTORE PUSH1 0x24 PUSH0 REVERT JUMPDEST PUSH2 0x1993 DUP3 PUSH2 0x17DC JUMP JUMPDEST DUP2 ADD DUP2 DUP2 LT PUSH8 0xFFFFFFFFFFFFFFFF DUP3 GT OR ISZERO PUSH2 0x19B2 JUMPI PUSH2 0x19B1 PUSH2 0x195D JUMP JUMPDEST JUMPDEST DUP1 PUSH1 0x40 MSTORE POP POP POP JUMP JUMPDEST PUSH0 PUSH2 0x19C4 PUSH2 0x162F JUMP JUMPDEST SWAP1 POP PUSH2 0x19D0 DUP3 DUP3 PUSH2 0x198A JUMP JUMPDEST SWAP2 SWAP1 POP JUMP JUMPDEST PUSH0 PUSH8 0xFFFFFFFFFFFFFFFF DUP3 GT ISZERO PUSH2 0x19EF JUMPI PUSH2 0x19EE PUSH2 0x195D JUMP JUMPDEST JUMPDEST PUSH2 0x19F8 DUP3 PUSH2 0x17DC JUMP JUMPDEST SWAP1 POP PUSH1 0x20 DUP2 ADD SWAP1 POP SWAP2 SWAP1 POP JUMP JUMPDEST DUP3 DUP2 DUP4 CALLDATACOPY PUSH0 DUP4 DUP4 ADD MSTORE POP POP POP JUMP JUMPDEST PUSH0 PUSH2 0x1A25 PUSH2 0x1A20 DUP5 PUSH2 0x19D5 JUMP JUMPDEST PUSH2 0x19BB JUMP JUMPDEST SWAP1 POP DUP3 DUP2 MSTORE PUSH1 0x20 DUP2 ADD DUP5 DUP5 DUP5 ADD GT ISZERO PUSH2 0x1A41 JUMPI PUSH2 0x1A40 PUSH2 0x1959 JUMP JUMPDEST JUMPDEST PUSH2 0x1A4C DUP5 DUP3 DUP6 PUSH2 0x1A05 JUMP JUMPDEST POP SWAP4 SWAP3 POP POP POP JUMP JUMPDEST PUSH0 DUP3 PUSH1 0x1F DUP4 ADD SLT PUSH2 0x1A68 JUMPI PUSH2 0x1A67 PUSH2 0x1955 JUMP JUMPDEST JUMPDEST DUP2 CALLDATALOAD PUSH2 0x1A78 DUP5 DUP3 PUSH1 0x20 DUP7 ADD PUSH2 0x1A13 JUMP JUMPDEST SWAP2 POP POP SWAP3 SWAP2 POP POP JUMP JUMPDEST PUSH0 DUP1 PUSH1 0x40 DUP4 DUP6 SUB SLT ISZERO PUSH2 0x1A97 JUMPI PUSH2 0x1A96 PUSH2 0x1638 JUMP JUMPDEST JUMPDEST PUSH0 PUSH2 0x1AA4 DUP6 DUP3 DUP7 ADD PUSH2 0x165F JUMP JUMPDEST SWAP3 POP POP PUSH1 0x20 DUP4 ADD CALLDATALOAD PUSH8 0xFFFFFFFFFFFFFFFF DUP2 GT ISZERO PUSH2 0x1AC5 JUMPI PUSH2 0x1AC4 PUSH2 0x163C JUMP JUMPDEST JUMPDEST PUSH2 0x1AD1 DUP6 DUP3 DUP7 ADD PUSH2 0x1A54 JUMP JUMPDEST SWAP2 POP POP SWAP3 POP SWAP3 SWAP1 POP JUMP JUMPDEST PUSH0 DUP3 DUP3 MSTORE PUSH1 0x20 DUP3 ADD SWAP1 POP SWAP3 SWAP2 POP POP JUMP JUMPDEST PUSH0 PUSH2 0x1AF5 DUP3 PUSH2 0x17B4 JUMP JUMPDEST PUSH2 0x1AFF DUP2 DUP6 PUSH2 0x1ADB JUMP JUMPDEST SWAP4 POP PUSH2 0x1B0F DUP2 DUP6 PUSH1 0x20 DUP7 ADD PUSH2 0x17CE JUMP JUMPDEST PUSH2 0x1B18 DUP2 PUSH2 0x17DC JUMP JUMPDEST DUP5 ADD SWAP2 POP POP SWAP3 SWAP2 POP POP JUMP JUMPDEST PUSH2 0x1B2C DUP2 PUSH2 0x1640 JUMP JUMPDEST DUP3 MSTORE POP POP JUMP JUMPDEST PUSH0 DUP2 MLOAD SWAP1 POP SWAP2 SWAP1 POP JUMP JUMPDEST PUSH0 DUP3 DUP3 MSTORE PUSH1 0x20 DUP3 ADD SWAP1 POP SWAP3 SWAP2 POP POP JUMP JUMPDEST PUSH0 DUP2 SWAP1 POP PUSH1 0x20 DUP3 ADD SWAP1 POP SWAP2 SWAP1 POP JUMP JUMPDEST PUSH0 PUSH2 0x1B66 DUP4 DUP4 PUSH2 0x1AEB JUMP JUMPDEST SWAP1 POP SWAP3 SWAP2 POP POP JUMP JUMPDEST PUSH0 PUSH1 0x20 DUP3 ADD SWAP1 POP SWAP2 SWAP1 POP JUMP JUMPDEST PUSH0 PUSH2 0x1B84 DUP3 PUSH2 0x1B32 JUMP JUMPDEST PUSH2 0x1B8E DUP2 DUP6 PUSH2 0x1B3C JUMP JUMPDEST SWAP4 POP DUP4 PUSH1 0x20 DUP3 MUL DUP6 ADD PUSH2 0x1BA0 DUP6 PUSH2 0x1B4C JUMP JUMPDEST DUP1 PUSH0 JUMPDEST DUP6 DUP2 LT ISZERO PUSH2 0x1BDB JUMPI DUP5 DUP5 SUB DUP10 MSTORE DUP2 MLOAD PUSH2 0x1BBC DUP6 DUP3 PUSH2 0x1B5B JUMP JUMPDEST SWAP5 POP PUSH2 0x1BC7 DUP4 PUSH2 0x1B6E JUMP JUMPDEST SWAP3 POP PUSH1 0x20 DUP11 ADD SWAP10 POP POP PUSH1 0x1 DUP2 ADD SWAP1 POP PUSH2 0x1BA3 JUMP JUMPDEST POP DUP3 SWAP8 POP DUP8 SWAP6 POP POP POP POP POP POP SWAP3 SWAP2 POP POP JUMP JUMPDEST PUSH0 DUP3 DUP3 MSTORE PUSH1 0x20 DUP3 ADD SWAP1 POP SWAP3 SWAP2 POP POP JUMP JUMPDEST PUSH0 PUSH2 0x1C07 DUP3 PUSH2 0x169E JUMP JUMPDEST PUSH2 0x1C11 DUP2 DUP6 PUSH2 0x1BED JUMP JUMPDEST SWAP4 POP PUSH2 0x1C1C DUP4 PUSH2 0x16B8 JUMP JUMPDEST DUP1 PUSH0 JUMPDEST DUP4 DUP2 LT ISZERO PUSH2 0x1C4C JUMPI DUP2 MLOAD PUSH2 0x1C33 DUP9 DUP3 PUSH2 0x1706 JUMP JUMPDEST SWAP8 POP PUSH2 0x1C3E DUP4 PUSH2 0x171D JUMP JUMPDEST SWAP3 POP POP PUSH1 0x1 DUP2 ADD SWAP1 POP PUSH2 0x1C1F JUMP JUMPDEST POP DUP6 SWAP4 POP POP POP POP SWAP3 SWAP2 POP POP JUMP JUMPDEST PUSH2 0x1C62 DUP2 PUSH2 0x186E JUMP JUMPDEST DUP3 MSTORE POP POP JUMP JUMPDEST PUSH0 PUSH2 0x120 DUP4 ADD PUSH0 DUP4 ADD MLOAD PUSH2 0x1C7E PUSH0 DUP7 ADD DUP3 PUSH2 0x16F7 JUMP JUMPDEST POP PUSH1 0x20 DUP4 ADD MLOAD DUP5 DUP3 SUB PUSH1 0x20 DUP7 ADD MSTORE PUSH2 0x1C96 DUP3 DUP3 PUSH2 0x1AEB JUMP JUMPDEST SWAP2 POP POP PUSH1 0x40 DUP4 ADD MLOAD DUP5 DUP3 SUB PUSH1 0x40 DUP7 ADD MSTORE PUSH2 0x1CB0 DUP3 DUP3 PUSH2 0x1AEB JUMP JUMPDEST SWAP2 POP POP PUSH1 0x60 DUP4 ADD MLOAD PUSH2 0x1CC5 PUSH1 0x60 DUP7 ADD DUP3 PUSH2 0x1B23 JUMP JUMPDEST POP PUSH1 0x80 DUP4 ADD MLOAD PUSH2 0x1CD8 PUSH1 0x80 DUP7 ADD DUP3 PUSH2 0x1B23 JUMP JUMPDEST POP PUSH1 0xA0 DUP4 ADD MLOAD PUSH2 0x1CEB PUSH1 0xA0 DUP7 ADD DUP3 PUSH2 0x1B23 JUMP JUMPDEST POP PUSH1 0xC0 DUP4 ADD MLOAD DUP5 DUP3 SUB PUSH1 0xC0 DUP7 ADD MSTORE PUSH2 0x1D03 DUP3 DUP3 PUSH2 0x1B7A JUMP JUMPDEST SWAP2 POP POP PUSH1 0xE0 DUP4 ADD MLOAD DUP5 DUP3 SUB PUSH1 0xE0 DUP7 ADD MSTORE PUSH2 0x1D1D DUP3 DUP3 PUSH2 0x1BFD JUMP JUMPDEST SWAP2 POP POP PUSH2 0x100 DUP4 ADD MLOAD PUSH2 0x1D34 PUSH2 0x100 DUP7 ADD DUP3 PUSH2 0x1C59 JUMP JUMPDEST POP DUP1 SWAP2 POP POP SWAP3 SWAP2 POP POP JUMP JUMPDEST PUSH0 PUSH1 0x20 DUP3 ADD SWAP1 POP DUP2 DUP2 SUB PUSH0 DUP4 ADD MSTORE PUSH2 0x1D57 DUP2 DUP5 PUSH2 0x1C68 JUMP JUMPDEST SWAP1 POP SWAP3 SWAP2 POP POP JUMP JUMPDEST PUSH0 PUSH1 0x20 DUP3 ADD SWAP1 POP PUSH2 0x1D72 PUSH0 DUP4 ADD DUP5 PUSH2 0x1824 JUMP JUMPDEST SWAP3 SWAP2 POP POP JUMP JUMPDEST PUSH0 PUSH1 0xC0 DUP3 ADD SWAP1 POP PUSH2 0x1D8B PUSH0 DUP4 ADD DUP10 PUSH2 0x17A5 JUMP JUMPDEST DUP2 DUP2 SUB PUSH1 0x20 DUP4 ADD MSTORE PUSH2 0x1D9D DUP2 DUP9 PUSH2 0x17EC JUMP JUMPDEST SWAP1 POP DUP2 DUP2 SUB PUSH1 0x40 DUP4 ADD MSTORE PUSH2 0x1DB1 DUP2 DUP8 PUSH2 0x17EC JUMP JUMPDEST SWAP1 POP PUSH2 0x1DC0 PUSH1 0x60 DUP4 ADD DUP7 PUSH2 0x1824 JUMP JUMPDEST PUSH2 0x1DCD PUSH1 0x80 DUP4 ADD DUP6 PUSH2 0x1824 JUMP JUMPDEST PUSH2 0x1DDA PUSH1 0xA0 DUP4 ADD DUP5 PUSH2 0x1824 JUMP JUMPDEST SWAP8 SWAP7 POP POP POP POP POP POP POP JUMP JUMPDEST PUSH0 PUSH8 0xFFFFFFFFFFFFFFFF DUP3 GT ISZERO PUSH2 0x1DFF JUMPI PUSH2 0x1DFE PUSH2 0x195D JUMP JUMPDEST JUMPDEST PUSH1 0x20 DUP3 MUL SWAP1 POP PUSH1 0x20 DUP2 ADD SWAP1 POP SWAP2 SWAP1 POP JUMP JUMPDEST PUSH0 DUP1 REVERT JUMPDEST PUSH2 0x1E1D DUP2 PUSH2 0x16E6 JUMP JUMPDEST DUP2 EQ PUSH2 0x1E27 JUMPI PUSH0 DUP1 REVERT JUMPDEST POP JUMP JUMPDEST PUSH0 DUP2 CALLDATALOAD SWAP1 POP PUSH2 0x1E38 DUP2 PUSH2 0x1E14 JUMP JUMPDEST SWAP3 SWAP2 POP POP JUMP JUMPDEST PUSH0 PUSH2 0x1E50 PUSH2 0x1E4B DUP5 PUSH2 0x1DE5 JUMP JUMPDEST PUSH2 0x19BB JUMP JUMPDEST SWAP1 POP DUP1 DUP4 DUP3 MSTORE PUSH1 0x20 DUP3 ADD SWAP1 POP PUSH1 0x20 DUP5 MUL DUP4 ADD DUP6 DUP2 GT ISZERO PUSH2 0x1E73 JUMPI PUSH2 0x1E72 PUSH2 0x1E10 JUMP JUMPDEST JUMPDEST DUP4 JUMPDEST DUP2 DUP2 LT ISZERO PUSH2 0x1E9C JUMPI DUP1 PUSH2 0x1E88 DUP9 DUP3 PUSH2 0x1E2A JUMP JUMPDEST DUP5 MSTORE PUSH1 0x20 DUP5 ADD SWAP4 POP POP PUSH1 0x20 DUP2 ADD SWAP1 POP PUSH2 0x1E75 JUMP JUMPDEST POP POP POP SWAP4 SWAP3 POP POP POP JUMP JUMPDEST PUSH0 DUP3 PUSH1 0x1F DUP4 ADD SLT PUSH2 0x1EBA JUMPI PUSH2 0x1EB9 PUSH2 0x1955 JUMP JUMPDEST JUMPDEST DUP2 CALLDATALOAD PUSH2 0x1ECA DUP5 DUP3 PUSH1 0x20 DUP7 ADD PUSH2 0x1E3E JUMP JUMPDEST SWAP2 POP POP SWAP3 SWAP2 POP POP JUMP JUMPDEST PUSH0 DUP1 PUSH0 DUP1 PUSH0 PUSH1 0xA0 DUP7 DUP9 SUB SLT ISZERO PUSH2 0x1EEC JUMPI PUSH2 0x1EEB PUSH2 0x1638 JUMP JUMPDEST JUMPDEST PUSH0 DUP7 ADD CALLDATALOAD PUSH8 0xFFFFFFFFFFFFFFFF DUP2 GT ISZERO PUSH2 0x1F09 JUMPI PUSH2 0x1F08 PUSH2 0x163C JUMP JUMPDEST JUMPDEST PUSH2 0x1F15 DUP9 DUP3 DUP10 ADD PUSH2 0x1A54 JUMP JUMPDEST SWAP6 POP POP PUSH1 0x20 DUP7 ADD CALLDATALOAD PUSH8 0xFFFFFFFFFFFFFFFF DUP2 GT ISZERO PUSH2 0x1F36 JUMPI PUSH2 0x1F35 PUSH2 0x163C JUMP JUMPDEST JUMPDEST PUSH2 0x1F42 DUP9 DUP3 DUP10 ADD PUSH2 0x1A54 JUMP JUMPDEST SWAP5 POP POP PUSH1 0x40 PUSH2 0x1F53 DUP9 DUP3 DUP10 ADD PUSH2 0x165F JUMP JUMPDEST SWAP4 POP POP PUSH1 0x60 DUP7 ADD CALLDATALOAD PUSH8 0xFFFFFFFFFFFFFFFF DUP2 GT ISZERO PUSH2 0x1F74 JUMPI PUSH2 0x1F73 PUSH2 0x163C JUMP JUMPDEST JUMPDEST PUSH2 0x1F80 DUP9 DUP3 DUP10 ADD PUSH2 0x1EA6 JUMP JUMPDEST SWAP3 POP POP PUSH1 0x80 PUSH2 0x1F91 DUP9 DUP3 DUP10 ADD PUSH2 0x165F JUMP JUMPDEST SWAP2 POP POP SWAP3 SWAP6 POP SWAP3 SWAP6 SWAP1 SWAP4 POP JUMP JUMPDEST PUSH0 DUP1 PUSH1 0x40 DUP4 DUP6 SUB SLT ISZERO PUSH2 0x1FB4 JUMPI PUSH2 0x1FB3 PUSH2 0x1638 JUMP JUMPDEST JUMPDEST PUSH0 PUSH2 0x1FC1 DUP6 DUP3 DUP7 ADD PUSH2 0x165F JUMP JUMPDEST SWAP3 POP POP PUSH1 0x20 PUSH2 0x1FD2 DUP6 DUP3 DUP7 ADD PUSH2 0x1E2A JUMP JUMPDEST SWAP2 POP POP SWAP3 POP SWAP3 SWAP1 POP JUMP JUMPDEST PUSH0 PUSH2 0x1FE6 DUP3 PUSH2 0x183C JUMP JUMPDEST SWAP1 POP SWAP2 SWAP1 POP JUMP JUMPDEST PUSH0 PUSH2 0x1FF7 DUP3 PUSH2 0x1FDC JUMP JUMPDEST SWAP1 POP SWAP2 SWAP1 POP JUMP JUMPDEST PUSH2 0x2007 DUP2 PUSH2 0x1FED JUMP JUMPDEST DUP3 MSTORE POP POP JUMP JUMPDEST PUSH0 PUSH1 0x20 DUP3 ADD SWAP1 POP PUSH2 0x2020 PUSH0 DUP4 ADD DUP5 PUSH2 0x1FFE JUMP JUMPDEST SWAP3 SWAP2 POP POP JUMP JUMPDEST PUSH0 DUP1 PUSH0 PUSH1 0x60 DUP5 DUP7 SUB SLT ISZERO PUSH2 0x203D JUMPI PUSH2 0x203C PUSH2 0x1638 JUMP JUMPDEST JUMPDEST PUSH0 PUSH2 0x204A DUP7 DUP3 DUP8 ADD PUSH2 0x165F JUMP JUMPDEST SWAP4 POP POP PUSH1 0x20 PUSH2 0x205B DUP7 DUP3 DUP8 ADD PUSH2 0x1E2A JUMP JUMPDEST SWAP3 POP POP PUSH1 0x40 PUSH2 0x206C DUP7 DUP3 DUP8 ADD PUSH2 0x165F JUMP JUMPDEST SWAP2 POP POP SWAP3 POP SWAP3 POP SWAP3 JUMP JUMPDEST PUSH32 0x43616D706169676E20646F6573206E6F74206578697374000000000000000000 PUSH0 DUP3 ADD MSTORE POP JUMP JUMPDEST PUSH0 PUSH2 0x20AA PUSH1 0x17 DUP4 PUSH2 0x17BE JUMP JUMPDEST SWAP2 POP PUSH2 0x20B5 DUP3 PUSH2 0x2076 JUMP JUMPDEST PUSH1 0x20 DUP3 ADD SWAP1 POP SWAP2 SWAP1 POP JUMP JUMPDEST PUSH0 PUSH1 0x20 DUP3 ADD SWAP1 POP DUP2 DUP2 SUB PUSH0 DUP4 ADD MSTORE PUSH2 0x20D7 DUP2 PUSH2 0x209E JUMP JUMPDEST SWAP1 POP SWAP2 SWAP1 POP JUMP JUMPDEST PUSH32 0x4E487B7100000000000000000000000000000000000000000000000000000000 PUSH0 MSTORE PUSH1 0x22 PUSH1 0x4 MSTORE PUSH1 0x24 PUSH0 REVERT JUMPDEST PUSH0 PUSH1 0x2 DUP3 DIV SWAP1 POP PUSH1 0x1 DUP3 AND DUP1 PUSH2 0x2122 JUMPI PUSH1 0x7F DUP3 AND SWAP2 POP JUMPDEST PUSH1 0x20 DUP3 LT DUP2 SUB PUSH2 0x2135 JUMPI PUSH2 0x2134 PUSH2 0x20DE JUMP JUMPDEST JUMPDEST POP SWAP2 SWAP1 POP JUMP JUMPDEST PUSH2 0x2144 DUP2 PUSH2 0x1922 JUMP JUMPDEST DUP2 EQ PUSH2 0x214E JUMPI PUSH0 DUP1 REVERT JUMPDEST POP JUMP JUMPDEST PUSH0 DUP2 MLOAD SWAP1 POP PUSH2 0x215F DUP2 PUSH2 0x213B JUMP JUMPDEST SWAP3 SWAP2 POP POP JUMP JUMPDEST PUSH0 PUSH1 0x20 DUP3 DUP5 SUB SLT ISZERO PUSH2 0x217A JUMPI PUSH2 0x2179 PUSH2 0x1638 JUMP JUMPDEST JUMPDEST PUSH0 PUSH2 0x2187 DUP5 DUP3 DUP6 ADD PUSH2 0x2151 JUMP JUMPDEST SWAP2 POP POP SWAP3 SWAP2 POP POP JUMP JUMPDEST PUSH32 0x4F6E6C792070726F66696C65206F776E65722063616E20706F7374207574696C PUSH0 DUP3 ADD MSTORE PUSH32 0x697A6174696F6E206465736372697074696F6E00000000000000000000000000 PUSH1 0x20 DUP3 ADD MSTORE POP JUMP JUMPDEST PUSH0 PUSH2 0x21EA PUSH1 0x33 DUP4 PUSH2 0x17BE JUMP JUMPDEST SWAP2 POP PUSH2 0x21F5 DUP3 PUSH2 0x2190 JUMP JUMPDEST PUSH1 0x40 DUP3 ADD SWAP1 POP SWAP2 SWAP1 POP JUMP JUMPDEST PUSH0 PUSH1 0x20 DUP3 ADD SWAP1 POP DUP2 DUP2 SUB PUSH0 DUP4 ADD MSTORE PUSH2 0x2217 DUP2 PUSH2 0x21DE JUMP JUMPDEST SWAP1 POP SWAP2 SWAP1 POP JUMP JUMPDEST PUSH0 DUP2 SWAP1 POP DUP2 PUSH0 MSTORE PUSH1 0x20 PUSH0 KECCAK256 SWAP1 POP SWAP2 SWAP1 POP JUMP JUMPDEST PUSH0 PUSH1 0x20 PUSH1 0x1F DUP4 ADD DIV SWAP1 POP SWAP2 SWAP1 POP JUMP JUMPDEST PUSH0 DUP3 DUP3 SHL SWAP1 POP SWAP3 SWAP2 POP POP JUMP JUMPDEST PUSH0 PUSH1 0x8 DUP4 MUL PUSH2 0x227A PUSH32 0xFFFFFFFFFFFFFFFFFFFFFFFFFFFFFFFFFFFFFFFFFFFFFFFFFFFFFFFFFFFFFFFF DUP3 PUSH2 0x223F JUMP JUMPDEST PUSH2 0x2284 DUP7 DUP4 PUSH2 0x223F JUMP JUMPDEST SWAP6 POP DUP1 NOT DUP5 AND SWAP4 POP DUP1 DUP7 AND DUP5 OR SWAP3 POP POP POP SWAP4 SWAP3 POP POP POP JUMP JUMPDEST PUSH0 PUSH2 0x22B6 PUSH2 0x22B1 PUSH2 0x22AC DUP5 PUSH2 0x1640 JUMP JUMPDEST PUSH2 0x1833 JUMP JUMPDEST PUSH2 0x1640 JUMP JUMPDEST SWAP1 POP SWAP2 SWAP1 POP JUMP JUMPDEST PUSH0 DUP2 SWAP1 POP SWAP2 SWAP1 POP JUMP JUMPDEST PUSH2 0x22CF DUP4 PUSH2 0x229C JUMP JUMPDEST PUSH2 0x22E3 PUSH2 0x22DB DUP3 PUSH2 0x22BD JUMP JUMPDEST DUP5 DUP5 SLOAD PUSH2 0x224B JUMP JUMPDEST DUP3 SSTORE POP POP POP POP JUMP JUMPDEST PUSH0 SWAP1 JUMP JUMPDEST PUSH2 0x22F7 PUSH2 0x22EB JUMP JUMPDEST PUSH2 0x2302 DUP2 DUP5 DUP5 PUSH2 0x22C6 JUMP JUMPDEST POP POP POP JUMP JUMPDEST JUMPDEST DUP2 DUP2 LT ISZERO PUSH2 0x2325 JUMPI PUSH2 0x231A PUSH0 DUP3 PUSH2 0x22EF JUMP JUMPDEST PUSH1 0x1 DUP2 ADD SWAP1 POP PUSH2 0x2308 JUMP JUMPDEST POP POP JUMP JUMPDEST PUSH1 0x1F DUP3 GT ISZERO PUSH2 0x236A JUMPI PUSH2 0x233B DUP2 PUSH2 0x221E JUMP JUMPDEST PUSH2 0x2344 DUP5 PUSH2 0x2230 JUMP JUMPDEST DUP2 ADD PUSH1 0x20 DUP6 LT ISZERO PUSH2 0x2353 JUMPI DUP2 SWAP1 POP JUMPDEST PUSH2 0x2367 PUSH2 0x235F DUP6 PUSH2 0x2230 JUMP JUMPDEST DUP4 ADD DUP3 PUSH2 0x2307 JUMP JUMPDEST POP POP JUMPDEST POP POP POP JUMP JUMPDEST PUSH0 DUP3 DUP3 SHR SWAP1 POP SWAP3 SWAP2 POP POP JUMP JUMPDEST PUSH0 PUSH2 0x238A PUSH0 NOT DUP5 PUSH1 0x8 MUL PUSH2 0x236F JUMP JUMPDEST NOT DUP1 DUP4 AND SWAP2 POP POP SWAP3 SWAP2 POP POP JUMP JUMPDEST PUSH0 PUSH2 0x23A2 DUP4 DUP4 PUSH2 0x237B JUMP JUMPDEST SWAP2 POP DUP3 PUSH1 0x2 MUL DUP3 OR SWAP1 POP SWAP3 SWAP2 POP POP JUMP JUMPDEST PUSH2 0x23BB DUP3 PUSH2 0x17B4 JUMP JUMPDEST PUSH8 0xFFFFFFFFFFFFFFFF DUP2 GT ISZERO PUSH2 0x23D4 JUMPI PUSH2 0x23D3 PUSH2 0x195D JUMP JUMPDEST JUMPDEST PUSH2 0x23DE DUP3 SLOAD PUSH2 0x210B JUMP JUMPDEST PUSH2 0x23E9 DUP3 DUP3 DUP6 PUSH2 0x2329 JUMP JUMPDEST PUSH0 PUSH1 0x20 SWAP1 POP PUSH1 0x1F DUP4 GT PUSH1 0x1 DUP2 EQ PUSH2 0x241A JUMPI PUSH0 DUP5 ISZERO PUSH2 0x2408 JUMPI DUP3 DUP8 ADD MLOAD SWAP1 POP JUMPDEST PUSH2 0x2412 DUP6 DUP3 PUSH2 0x2397 JUMP JUMPDEST DUP7 SSTORE POP PUSH2 0x2479 JUMP JUMPDEST PUSH1 0x1F NOT DUP5 AND PUSH2 0x2428 DUP7 PUSH2 0x221E JUMP JUMPDEST PUSH0 JUMPDEST DUP3 DUP2 LT ISZERO PUSH2 0x244F JUMPI DUP5 DUP10 ADD MLOAD DUP3 SSTORE PUSH1 0x1 DUP3 ADD SWAP2 POP PUSH1 0x20 DUP6 ADD SWAP5 POP PUSH1 0x20 DUP2 ADD SWAP1 POP PUSH2 0x242A JUMP JUMPDEST DUP7 DUP4 LT ISZERO PUSH2 0x246C JUMPI DUP5 DUP10 ADD MLOAD PUSH2 0x2468 PUSH1 0x1F DUP10 AND DUP3 PUSH2 0x237B JUMP JUMPDEST DUP4 SSTORE POP JUMPDEST PUSH1 0x1 PUSH1 0x2 DUP9 MUL ADD DUP9 SSTORE POP POP POP JUMPDEST POP POP POP POP POP POP JUMP JUMPDEST PUSH32 0x4E6F74207468652070726F66696C65206F776E65720000000000000000000000 PUSH0 DUP3 ADD MSTORE POP JUMP JUMPDEST PUSH0 PUSH2 0x24B5 PUSH1 0x15 DUP4 PUSH2 0x17BE JUMP JUMPDEST SWAP2 POP PUSH2 0x24C0 DUP3 PUSH2 0x2481 JUMP JUMPDEST PUSH1 0x20 DUP3 ADD SWAP1 POP SWAP2 SWAP1 POP JUMP JUMPDEST PUSH0 PUSH1 0x20 DUP3 ADD SWAP1 POP DUP2 DUP2 SUB PUSH0 DUP4 ADD MSTORE PUSH2 0x24E2 DUP2 PUSH2 0x24A9 JUMP JUMPDEST SWAP1 POP SWAP2 SWAP1 POP JUMP JUMPDEST PUSH32 0x4174206C65617374206F6E65207369676E657220726571756972656400000000 PUSH0 DUP3 ADD MSTORE POP JUMP JUMPDEST PUSH0 PUSH2 0x251D PUSH1 0x1C DUP4 PUSH2 0x17BE JUMP JUMPDEST SWAP2 POP PUSH2 0x2528 DUP3 PUSH2 0x24E9 JUMP JUMPDEST PUSH1 0x20 DUP3 ADD SWAP1 POP SWAP2 SWAP1 POP JUMP JUMPDEST PUSH0 PUSH1 0x20 DUP3 ADD SWAP1 POP DUP2 DUP2 SUB PUSH0 DUP4 ADD MSTORE PUSH2 0x254A DUP2 PUSH2 0x2511 JUMP JUMPDEST SWAP1 POP SWAP2 SWAP1 POP JUMP JUMPDEST PUSH32 0x496E76616C6964206E756D626572206F6620617070726F76616C730000000000 PUSH0 DUP3 ADD MSTORE POP JUMP JUMPDEST PUSH0 PUSH2 0x2585 PUSH1 0x1B DUP4 PUSH2 0x17BE JUMP JUMPDEST SWAP2 POP PUSH2 0x2590 DUP3 PUSH2 0x2551 JUMP JUMPDEST PUSH1 0x20 DUP3 ADD SWAP1 POP SWAP2 SWAP1 POP JUMP JUMPDEST PUSH0 PUSH1 0x20 DUP3 ADD SWAP1 POP DUP2 DUP2 SUB PUSH0 DUP4 ADD MSTORE PUSH2 0x25B2 DUP2 PUSH2 0x2579 JUMP JUMPDEST SWAP1 POP SWAP2 SWAP1 POP JUMP JUMPDEST PUSH32 0x4E487B7100000000000000000000000000000000000000000000000000000000 PUSH0 MSTORE PUSH1 0x11 PUSH1 0x4 MSTORE PUSH1 0x24 PUSH0 REVERT JUMPDEST PUSH0 PUSH2 0x25F0 DUP3 PUSH2 0x1640 JUMP JUMPDEST SWAP2 POP PUSH32 0xFFFFFFFFFFFFFFFFFFFFFFFFFFFFFFFFFFFFFFFFFFFFFFFFFFFFFFFFFFFFFFFF DUP3 SUB PUSH2 0x2622 JUMPI PUSH2 0x2621 PUSH2 0x25B9 JUMP JUMPDEST JUMPDEST PUSH1 0x1 DUP3 ADD SWAP1 POP SWAP2 SWAP1 POP JUMP JUMPDEST PUSH0 PUSH1 0x60 DUP3 ADD SWAP1 POP DUP2 DUP2 SUB PUSH0 DUP4 ADD MSTORE PUSH2 0x2645 DUP2 DUP7 PUSH2 0x1729 JUMP JUMPDEST SWAP1 POP PUSH2 0x2654 PUSH1 0x20 DUP4 ADD DUP6 PUSH2 0x1824 JUMP JUMPDEST PUSH2 0x2661 PUSH1 0x40 DUP4 ADD DUP5 PUSH2 0x17A5 JUMP JUMPDEST SWAP5 SWAP4 POP POP POP POP JUMP JUMPDEST PUSH32 0x50726F66696C65206973206E6F74206163746976650000000000000000000000 PUSH0 DUP3 ADD MSTORE POP JUMP JUMPDEST PUSH0 PUSH2 0x269D PUSH1 0x15 DUP4 PUSH2 0x17BE JUMP JUMPDEST SWAP2 POP PUSH2 0x26A8 DUP3 PUSH2 0x2669 JUMP JUMPDEST PUSH1 0x20 DUP3 ADD SWAP1 POP SWAP2 SWAP1 POP JUMP JUMPDEST PUSH0 PUSH1 0x20 DUP3 ADD SWAP1 POP DUP2 DUP2 SUB PUSH0 DUP4 ADD MSTORE PUSH2 0x26CA DUP2 PUSH2 0x2691 JUMP JUMPDEST SWAP1 POP SWAP2 SWAP1 POP JUMP JUMPDEST PUSH32 0x446F6E6174696F6E206D7573742062652067726561746572207468616E203000 PUSH0 DUP3 ADD MSTORE POP JUMP JUMPDEST PUSH0 PUSH2 0x2705 PUSH1 0x1F DUP4 PUSH2 0x17BE JUMP JUMPDEST SWAP2 POP PUSH2 0x2710 DUP3 PUSH2 0x26D1 JUMP JUMPDEST PUSH1 0x20 DUP3 ADD SWAP1 POP SWAP2 SWAP1 POP JUMP JUMPDEST PUSH0 PUSH1 0x20 DUP3 ADD SWAP1 POP DUP2 DUP2 SUB PUSH0 DUP4 ADD MSTORE PUSH2 0x2732 DUP2 PUSH2 0x26F9 JUMP JUMPDEST SWAP1 POP SWAP2 SWAP1 POP JUMP JUMPDEST PUSH0 PUSH2 0x2743 DUP3 PUSH2 0x1640 JUMP JUMPDEST SWAP2 POP PUSH2 0x274E DUP4 PUSH2 0x1640 JUMP JUMPDEST SWAP3 POP DUP3 DUP3 ADD SWAP1 POP DUP1 DUP3 GT ISZERO PUSH2 0x2766 JUMPI PUSH2 0x2765 PUSH2 0x25B9 JUMP JUMPDEST JUMPDEST SWAP3 SWAP2 POP POP JUMP JUMPDEST PUSH32 0x4F6E6C792063616D706169676E206F776E65722063616E207769746864726177 PUSH0 DUP3 ADD MSTORE POP JUMP JUMPDEST PUSH0 PUSH2 0x27A0 PUSH1 0x20 DUP4 PUSH2 0x17BE JUMP JUMPDEST SWAP2 POP PUSH2 0x27AB DUP3 PUSH2 0x276C JUMP JUMPDEST PUSH1 0x20 DUP3 ADD SWAP1 POP SWAP2 SWAP1 POP JUMP JUMPDEST PUSH0 PUSH1 0x20 DUP3 ADD SWAP1 POP DUP2 DUP2 SUB PUSH0 DUP4 ADD MSTORE PUSH2 0x27CD DUP2 PUSH2 0x2794 JUMP JUMPDEST SWAP1 POP SWAP2 SWAP1 POP JUMP JUMPDEST PUSH0 PUSH2 0x27DE DUP3 PUSH2 0x1640 JUMP JUMPDEST SWAP2 POP PUSH2 0x27E9 DUP4 PUSH2 0x1640 JUMP JUMPDEST SWAP3 POP DUP3 DUP3 SUB SWAP1 POP DUP2 DUP2 GT ISZERO PUSH2 0x2801 JUMPI PUSH2 0x2800 PUSH2 0x25B9 JUMP JUMPDEST JUMPDEST SWAP3 SWAP2 POP POP JUMP JUMPDEST PUSH32 0x496E73756666696369656E742066756E64730000000000000000000000000000 PUSH0 DUP3 ADD MSTORE POP JUMP JUMPDEST PUSH0 PUSH2 0x283B PUSH1 0x12 DUP4 PUSH2 0x17BE JUMP JUMPDEST SWAP2 POP PUSH2 0x2846 DUP3 PUSH2 0x2807 JUMP JUMPDEST PUSH1 0x20 DUP3 ADD SWAP1 POP SWAP2 SWAP1 POP JUMP JUMPDEST PUSH0 PUSH1 0x20 DUP3 ADD SWAP1 POP DUP2 DUP2 SUB PUSH0 DUP4 ADD MSTORE PUSH2 0x2868 DUP2 PUSH2 0x282F JUMP JUMPDEST SWAP1 POP SWAP2 SWAP1 POP JUMP JUMPDEST PUSH0 PUSH1 0x40 DUP3 ADD SWAP1 POP PUSH2 0x2882 PUSH0 DUP4 ADD DUP6 PUSH2 0x17A5 JUMP JUMPDEST PUSH2 0x288F PUSH1 0x20 DUP4 ADD DUP5 PUSH2 0x1824 JUMP JUMPDEST SWAP4 SWAP3 POP POP POP JUMP INVALID PUSH1 0x80 PUSH1 0x40 MSTORE CALLVALUE DUP1 ISZERO PUSH2 0xF JUMPI PUSH0 DUP1 REVERT JUMPDEST POP PUSH1 0x40 MLOAD PUSH2 0x1BB7 CODESIZE SUB DUP1 PUSH2 0x1BB7 DUP4 CODECOPY DUP2 DUP2 ADD PUSH1 0x40 MSTORE DUP2 ADD SWAP1 PUSH2 0x31 SWAP2 SWAP1 PUSH2 0x4C7 JUMP JUMPDEST PUSH0 DUP4 MLOAD GT PUSH2 0x74 JUMPI PUSH1 0x40 MLOAD PUSH32 0x8C379A000000000000000000000000000000000000000000000000000000000 DUP2 MSTORE PUSH1 0x4 ADD PUSH2 0x6B SWAP1 PUSH2 0x58D JUMP JUMPDEST PUSH1 0x40 MLOAD DUP1 SWAP2 SUB SWAP1 REVERT JUMPDEST PUSH0 DUP3 GT DUP1 ISZERO PUSH2 0x84 JUMPI POP DUP3 MLOAD DUP3 GT ISZERO JUMPDEST PUSH2 0xC3 JUMPI PUSH1 0x40 MLOAD PUSH32 0x8C379A000000000000000000000000000000000000000000000000000000000 DUP2 MSTORE PUSH1 0x4 ADD PUSH2 0xBA SWAP1 PUSH2 0x5F5 JUMP JUMPDEST PUSH1 0x40 MLOAD DUP1 SWAP2 SUB SWAP1 REVERT JUMPDEST PUSH0 JUMPDEST DUP4 MLOAD DUP2 LT ISZERO PUSH2 0x1D1 JUMPI PUSH0 PUSH20 0xFFFFFFFFFFFFFFFFFFFFFFFFFFFFFFFFFFFFFFFF AND DUP5 DUP3 DUP2 MLOAD DUP2 LT PUSH2 0xF8 JUMPI PUSH2 0xF7 PUSH2 0x613 JUMP JUMPDEST JUMPDEST PUSH1 0x20 MUL PUSH1 0x20 ADD ADD MLOAD PUSH20 0xFFFFFFFFFFFFFFFFFFFFFFFFFFFFFFFFFFFFFFFF AND SUB PUSH2 0x156 JUMPI PUSH1 0x40 MLOAD PUSH32 0x8C379A000000000000000000000000000000000000000000000000000000000 DUP2 MSTORE PUSH1 0x4 ADD PUSH2 0x14D SWAP1 PUSH2 0x68A JUMP JUMPDEST PUSH1 0x40 MLOAD DUP1 SWAP2 SUB SWAP1 REVERT JUMPDEST PUSH1 0x1 DUP1 PUSH0 DUP7 DUP5 DUP2 MLOAD DUP2 LT PUSH2 0x16D JUMPI PUSH2 0x16C PUSH2 0x613 JUMP JUMPDEST JUMPDEST PUSH1 0x20 MUL PUSH1 0x20 ADD ADD MLOAD PUSH20 0xFFFFFFFFFFFFFFFFFFFFFFFFFFFFFFFFFFFFFFFF AND PUSH20 0xFFFFFFFFFFFFFFFFFFFFFFFFFFFFFFFFFFFFFFFF AND DUP2 MSTORE PUSH1 0x20 ADD SWAP1 DUP2 MSTORE PUSH1 0x20 ADD PUSH0 KECCAK256 PUSH0 PUSH2 0x100 EXP DUP2 SLOAD DUP2 PUSH1 0xFF MUL NOT AND SWAP1 DUP4 ISZERO ISZERO MUL OR SWAP1 SSTORE POP DUP1 DUP1 PUSH1 0x1 ADD SWAP2 POP POP PUSH2 0xC5 JUMP JUMPDEST POP DUP3 PUSH0 SWAP1 DUP1 MLOAD SWAP1 PUSH1 0x20 ADD SWAP1 PUSH2 0x1E7 SWAP3 SWAP2 SWAP1 PUSH2 0x237 JUMP JUMPDEST POP DUP2 PUSH1 0x2 DUP2 SWAP1 SSTORE POP DUP1 PUSH1 0x3 PUSH0 PUSH2 0x100 EXP DUP2 SLOAD DUP2 PUSH20 0xFFFFFFFFFFFFFFFFFFFFFFFFFFFFFFFFFFFFFFFF MUL NOT AND SWAP1 DUP4 PUSH20 0xFFFFFFFFFFFFFFFFFFFFFFFFFFFFFFFFFFFFFFFF AND MUL OR SWAP1 SSTORE POP POP POP POP PUSH2 0x6A8 JUMP JUMPDEST DUP3 DUP1 SLOAD DUP3 DUP3 SSTORE SWAP1 PUSH0 MSTORE PUSH1 0x20 PUSH0 KECCAK256 SWAP1 DUP2 ADD SWAP3 DUP3 ISZERO PUSH2 0x2AD JUMPI SWAP2 PUSH1 0x20 MUL DUP3 ADD JUMPDEST DUP3 DUP2 GT ISZERO PUSH2 0x2AC JUMPI DUP3 MLOAD DUP3 PUSH0 PUSH2 0x100 EXP DUP2 SLOAD DUP2 PUSH20 0xFFFFFFFFFFFFFFFFFFFFFFFFFFFFFFFFFFFFFFFF MUL NOT AND SWAP1 DUP4 PUSH20 0xFFFFFFFFFFFFFFFFFFFFFFFFFFFFFFFFFFFFFFFF AND MUL OR SWAP1 SSTORE POP SWAP2 PUSH1 0x20 ADD SWAP2 SWAP1 PUSH1 0x1 ADD SWAP1 PUSH2 0x255 JUMP JUMPDEST JUMPDEST POP SWAP1 POP PUSH2 0x2BA SWAP2 SWAP1 PUSH2 0x2BE JUMP JUMPDEST POP SWAP1 JUMP JUMPDEST JUMPDEST DUP1 DUP3 GT ISZERO PUSH2 0x2D5 JUMPI PUSH0 DUP2 PUSH0 SWAP1 SSTORE POP PUSH1 0x1 ADD PUSH2 0x2BF JUMP JUMPDEST POP SWAP1 JUMP JUMPDEST PUSH0 PUSH1 0x40 MLOAD SWAP1 POP SWAP1 JUMP JUMPDEST PUSH0 DUP1 REVERT JUMPDEST PUSH0 DUP1 REVERT JUMPDEST PUSH0 DUP1 REVERT JUMPDEST PUSH0 PUSH1 0x1F NOT PUSH1 0x1F DUP4 ADD AND SWAP1 POP SWAP2 SWAP1 POP JUMP JUMPDEST PUSH32 0x4E487B7100000000000000000000000000000000000000000000000000000000 PUSH0 MSTORE PUSH1 0x41 PUSH1 0x4 MSTORE PUSH1 0x24 PUSH0 REVERT JUMPDEST PUSH2 0x334 DUP3 PUSH2 0x2EE JUMP JUMPDEST DUP2 ADD DUP2 DUP2 LT PUSH8 0xFFFFFFFFFFFFFFFF DUP3 GT OR ISZERO PUSH2 0x353 JUMPI PUSH2 0x352 PUSH2 0x2FE JUMP JUMPDEST JUMPDEST DUP1 PUSH1 0x40 MSTORE POP POP POP JUMP JUMPDEST PUSH0 PUSH2 0x365 PUSH2 0x2D9 JUMP JUMPDEST SWAP1 POP PUSH2 0x371 DUP3 DUP3 PUSH2 0x32B JUMP JUMPDEST SWAP2 SWAP1 POP JUMP JUMPDEST PUSH0 PUSH8 0xFFFFFFFFFFFFFFFF DUP3 GT ISZERO PUSH2 0x390 JUMPI PUSH2 0x38F PUSH2 0x2FE JUMP JUMPDEST JUMPDEST PUSH1 0x20 DUP3 MUL SWAP1 POP PUSH1 0x20 DUP2 ADD SWAP1 POP SWAP2 SWAP1 POP JUMP JUMPDEST PUSH0 DUP1 REVERT JUMPDEST PUSH0 PUSH20 0xFFFFFFFFFFFFFFFFFFFFFFFFFFFFFFFFFFFFFFFF DUP3 AND SWAP1 POP SWAP2 SWAP1 POP JUMP JUMPDEST PUSH0 PUSH2 0x3CE DUP3 PUSH2 0x3A5 JUMP JUMPDEST SWAP1 POP SWAP2 SWAP1 POP JUMP JUMPDEST PUSH2 0x3DE DUP2 PUSH2 0x3C4 JUMP JUMPDEST DUP2 EQ PUSH2 0x3E8 JUMPI PUSH0 DUP1 REVERT JUMPDEST POP JUMP JUMPDEST PUSH0 DUP2 MLOAD SWAP1 POP PUSH2 0x3F9 DUP2 PUSH2 0x3D5 JUMP JUMPDEST SWAP3 SWAP2 POP POP JUMP JUMPDEST PUSH0 PUSH2 0x411 PUSH2 0x40C DUP5 PUSH2 0x376 JUMP JUMPDEST PUSH2 0x35C JUMP JUMPDEST SWAP1 POP DUP1 DUP4 DUP3 MSTORE PUSH1 0x20 DUP3 ADD SWAP1 POP PUSH1 0x20 DUP5 MUL DUP4 ADD DUP6 DUP2 GT ISZERO PUSH2 0x434 JUMPI PUSH2 0x433 PUSH2 0x3A1 JUMP JUMPDEST JUMPDEST DUP4 JUMPDEST DUP2 DUP2 LT ISZERO PUSH2 0x45D JUMPI DUP1 PUSH2 0x449 DUP9 DUP3 PUSH2 0x3EB JUMP JUMPDEST DUP5 MSTORE PUSH1 0x20 DUP5 ADD SWAP4 POP POP PUSH1 0x20 DUP2 ADD SWAP1 POP PUSH2 0x436 JUMP JUMPDEST POP POP POP SWAP4 SWAP3 POP POP POP JUMP JUMPDEST PUSH0 DUP3 PUSH1 0x1F DUP4 ADD SLT PUSH2 0x47B JUMPI PUSH2 0x47A PUSH2 0x2EA JUMP JUMPDEST JUMPDEST DUP2 MLOAD PUSH2 0x48B DUP5 DUP3 PUSH1 0x20 DUP7 ADD PUSH2 0x3FF JUMP JUMPDEST SWAP2 POP POP SWAP3 SWAP2 POP POP JUMP JUMPDEST PUSH0 DUP2 SWAP1 POP SWAP2 SWAP1 POP JUMP JUMPDEST PUSH2 0x4A6 DUP2 PUSH2 0x494 JUMP JUMPDEST DUP2 EQ PUSH2 0x4B0 JUMPI PUSH0 DUP1 REVERT JUMPDEST POP JUMP JUMPDEST PUSH0 DUP2 MLOAD SWAP1 POP PUSH2 0x4C1 DUP2 PUSH2 0x49D JUMP JUMPDEST SWAP3 SWAP2 POP POP JUMP JUMPDEST PUSH0 DUP1 PUSH0 PUSH1 0x60 DUP5 DUP7 SUB SLT ISZERO PUSH2 0x4DE JUMPI PUSH2 0x4DD PUSH2 0x2E2 JUMP JUMPDEST JUMPDEST PUSH0 DUP5 ADD MLOAD PUSH8 0xFFFFFFFFFFFFFFFF DUP2 GT ISZERO PUSH2 0x4FB JUMPI PUSH2 0x4FA PUSH2 0x2E6 JUMP JUMPDEST JUMPDEST PUSH2 0x507 DUP7 DUP3 DUP8 ADD PUSH2 0x467 JUMP JUMPDEST SWAP4 POP POP PUSH1 0x20 PUSH2 0x518 DUP7 DUP3 DUP8 ADD PUSH2 0x4B3 JUMP JUMPDEST SWAP3 POP POP PUSH1 0x40 PUSH2 0x529 DUP7 DUP3 DUP8 ADD PUSH2 0x3EB JUMP JUMPDEST SWAP2 POP POP SWAP3 POP SWAP3 POP SWAP3 JUMP JUMPDEST PUSH0 DUP3 DUP3 MSTORE PUSH1 0x20 DUP3 ADD SWAP1 POP SWAP3 SWAP2 POP POP JUMP JUMPDEST PUSH32 0x4174206C65617374206F6E65207369676E657220726571756972656400000000 PUSH0 DUP3 ADD MSTORE POP JUMP JUMPDEST PUSH0 PUSH2 0x577 PUSH1 0x1C DUP4 PUSH2 0x533 JUMP JUMPDEST SWAP2 POP PUSH2 0x582 DUP3 PUSH2 0x543 JUMP JUMPDEST PUSH1 0x20 DUP3 ADD SWAP1 POP SWAP2 SWAP1 POP JUMP JUMPDEST PUSH0 PUSH1 0x20 DUP3 ADD SWAP1 POP DUP2 DUP2 SUB PUSH0 DUP4 ADD MSTORE PUSH2 0x5A4 DUP2 PUSH2 0x56B JUMP JUMPDEST SWAP1 POP SWAP2 SWAP1 POP JUMP JUMPDEST PUSH32 0x496E76616C6964206E756D626572206F6620617070726F76616C730000000000 PUSH0 DUP3 ADD MSTORE POP JUMP JUMPDEST PUSH0 PUSH2 0x5DF PUSH1 0x1B DUP4 PUSH2 0x533 JUMP JUMPDEST SWAP2 POP PUSH2 0x5EA DUP3 PUSH2 0x5AB JUMP JUMPDEST PUSH1 0x20 DUP3 ADD SWAP1 POP SWAP2 SWAP1 POP JUMP JUMPDEST PUSH0 PUSH1 0x20 DUP3 ADD SWAP1 POP DUP2 DUP2 SUB PUSH0 DUP4 ADD MSTORE PUSH2 0x60C DUP2 PUSH2 0x5D3 JUMP JUMPDEST SWAP1 POP SWAP2 SWAP1 POP JUMP JUMPDEST PUSH32 0x4E487B7100000000000000000000000000000000000000000000000000000000 PUSH0 MSTORE PUSH1 0x32 PUSH1 0x4 MSTORE PUSH1 0x24 PUSH0 REVERT JUMPDEST PUSH32 0x496E76616C6964207369676E6572000000000000000000000000000000000000 PUSH0 DUP3 ADD MSTORE POP JUMP JUMPDEST PUSH0 PUSH2 0x674 PUSH1 0xE DUP4 PUSH2 0x533 JUMP JUMPDEST SWAP2 POP PUSH2 0x67F DUP3 PUSH2 0x640 JUMP JUMPDEST PUSH1 0x20 DUP3 ADD SWAP1 POP SWAP2 SWAP1 POP JUMP JUMPDEST PUSH0 PUSH1 0x20 DUP3 ADD SWAP1 POP DUP2 DUP2 SUB PUSH0 DUP4 ADD MSTORE PUSH2 0x6A1 DUP2 PUSH2 0x668 JUMP JUMPDEST SWAP1 POP SWAP2 SWAP1 POP JUMP JUMPDEST PUSH2 0x1502 DUP1 PUSH2 0x6B5 PUSH0 CODECOPY PUSH0 RETURN INVALID PUSH1 0x80 PUSH1 0x40 MSTORE PUSH1 0x4 CALLDATASIZE LT PUSH2 0x89 JUMPI PUSH0 CALLDATALOAD PUSH1 0xE0 SHR DUP1 PUSH4 0x75624CB9 GT PUSH2 0x58 JUMPI DUP1 PUSH4 0x75624CB9 EQ PUSH2 0x14D JUMPI DUP1 PUSH4 0x7DF73E27 EQ PUSH2 0x177 JUMPI DUP1 PUSH4 0x99C1AADC EQ PUSH2 0x1B3 JUMPI DUP1 PUSH4 0x9ACE38C2 EQ PUSH2 0x1DD JUMPI DUP1 PUSH4 0xCE430F82 EQ PUSH2 0x21C JUMPI PUSH2 0x90 JUMP JUMPDEST DUP1 PUSH4 0x1E7F8F0F EQ PUSH2 0x94 JUMPI DUP1 PUSH4 0x2079FB9A EQ PUSH2 0xBC JUMPI DUP1 PUSH4 0x242232D1 EQ PUSH2 0xF8 JUMPI DUP1 PUSH4 0x27506F53 EQ PUSH2 0x120 JUMPI PUSH2 0x90 JUMP JUMPDEST CALLDATASIZE PUSH2 0x90 JUMPI STOP JUMPDEST PUSH0 DUP1 REVERT JUMPDEST CALLVALUE DUP1 ISZERO PUSH2 0x9F JUMPI PUSH0 DUP1 REVERT JUMPDEST POP PUSH2 0xBA PUSH1 0x4 DUP1 CALLDATASIZE SUB DUP2 ADD SWAP1 PUSH2 0xB5 SWAP2 SWAP1 PUSH2 0xD65 JUMP JUMPDEST PUSH2 0x248 JUMP JUMPDEST STOP JUMPDEST CALLVALUE DUP1 ISZERO PUSH2 0xC7 JUMPI PUSH0 DUP1 REVERT JUMPDEST POP PUSH2 0xE2 PUSH1 0x4 DUP1 CALLDATASIZE SUB DUP2 ADD SWAP1 PUSH2 0xDD SWAP2 SWAP1 PUSH2 0xDA3 JUMP JUMPDEST PUSH2 0x39A JUMP JUMPDEST PUSH1 0x40 MLOAD PUSH2 0xEF SWAP2 SWAP1 PUSH2 0xDDD JUMP JUMPDEST PUSH1 0x40 MLOAD DUP1 SWAP2 SUB SWAP1 RETURN JUMPDEST CALLVALUE DUP1 ISZERO PUSH2 0x103 JUMPI PUSH0 DUP1 REVERT JUMPDEST POP PUSH2 0x11E PUSH1 0x4 DUP1 CALLDATASIZE SUB DUP2 ADD SWAP1 PUSH2 0x119 SWAP2 SWAP1 PUSH2 0xDA3 JUMP JUMPDEST PUSH2 0x3D4 JUMP JUMPDEST STOP JUMPDEST CALLVALUE DUP1 ISZERO PUSH2 0x12B JUMPI PUSH0 DUP1 REVERT JUMPDEST POP PUSH2 0x134 PUSH2 0x5E8 JUMP JUMPDEST PUSH1 0x40 MLOAD PUSH2 0x144 SWAP5 SWAP4 SWAP3 SWAP2 SWAP1 PUSH2 0x1026 JUMP JUMPDEST PUSH1 0x40 MLOAD DUP1 SWAP2 SUB SWAP1 RETURN JUMPDEST CALLVALUE DUP1 ISZERO PUSH2 0x158 JUMPI PUSH0 DUP1 REVERT JUMPDEST POP PUSH2 0x161 PUSH2 0x854 JUMP JUMPDEST PUSH1 0x40 MLOAD PUSH2 0x16E SWAP2 SWAP1 PUSH2 0xDDD JUMP JUMPDEST PUSH1 0x40 MLOAD DUP1 SWAP2 SUB SWAP1 RETURN JUMPDEST CALLVALUE DUP1 ISZERO PUSH2 0x182 JUMPI PUSH0 DUP1 REVERT JUMPDEST POP PUSH2 0x19D PUSH1 0x4 DUP1 CALLDATASIZE SUB DUP2 ADD SWAP1 PUSH2 0x198 SWAP2 SWAP1 PUSH2 0x1085 JUMP JUMPDEST PUSH2 0x879 JUMP JUMPDEST PUSH1 0x40 MLOAD PUSH2 0x1AA SWAP2 SWAP1 PUSH2 0x10BF JUMP JUMPDEST PUSH1 0x40 MLOAD DUP1 SWAP2 SUB SWAP1 RETURN JUMPDEST CALLVALUE DUP1 ISZERO PUSH2 0x1BE JUMPI PUSH0 DUP1 REVERT JUMPDEST POP PUSH2 0x1C7 PUSH2 0x896 JUMP JUMPDEST PUSH1 0x40 MLOAD PUSH2 0x1D4 SWAP2 SWAP1 PUSH2 0x10E7 JUMP JUMPDEST PUSH1 0x40 MLOAD DUP1 SWAP2 SUB SWAP1 RETURN JUMPDEST CALLVALUE DUP1 ISZERO PUSH2 0x1E8 JUMPI PUSH0 DUP1 REVERT JUMPDEST POP PUSH2 0x203 PUSH1 0x4 DUP1 CALLDATASIZE SUB DUP2 ADD SWAP1 PUSH2 0x1FE SWAP2 SWAP1 PUSH2 0xDA3 JUMP JUMPDEST PUSH2 0x89C JUMP JUMPDEST PUSH1 0x40 MLOAD PUSH2 0x213 SWAP5 SWAP4 SWAP3 SWAP2 SWAP1 PUSH2 0x1100 JUMP JUMPDEST PUSH1 0x40 MLOAD DUP1 SWAP2 SUB SWAP1 RETURN JUMPDEST CALLVALUE DUP1 ISZERO PUSH2 0x227 JUMPI PUSH0 DUP1 REVERT JUMPDEST POP PUSH2 0x230 PUSH2 0x902 JUMP JUMPDEST PUSH1 0x40 MLOAD PUSH2 0x23F SWAP4 SWAP3 SWAP2 SWAP1 PUSH2 0x1143 JUMP JUMPDEST PUSH1 0x40 MLOAD DUP1 SWAP2 SUB SWAP1 RETURN JUMPDEST PUSH1 0x3 PUSH0 SWAP1 SLOAD SWAP1 PUSH2 0x100 EXP SWAP1 DIV PUSH20 0xFFFFFFFFFFFFFFFFFFFFFFFFFFFFFFFFFFFFFFFF AND PUSH20 0xFFFFFFFFFFFFFFFFFFFFFFFFFFFFFFFFFFFFFFFF AND CALLER PUSH20 0xFFFFFFFFFFFFFFFFFFFFFFFFFFFFFFFFFFFFFFFF AND EQ PUSH2 0x2D7 JUMPI PUSH1 0x40 MLOAD PUSH32 0x8C379A000000000000000000000000000000000000000000000000000000000 DUP2 MSTORE PUSH1 0x4 ADD PUSH2 0x2CE SWAP1 PUSH2 0x120D JUMP JUMPDEST PUSH1 0x40 MLOAD DUP1 SWAP2 SUB SWAP1 REVERT JUMPDEST PUSH1 0x4 PUSH1 0x1 DUP2 PUSH1 0x1 DUP2 SLOAD ADD DUP1 DUP3 SSTORE DUP1 SWAP2 POP POP SUB SWAP1 PUSH0 MSTORE PUSH1 0x20 PUSH0 KECCAK256 SWAP1 POP POP PUSH0 PUSH1 0x4 PUSH1 0x1 PUSH1 0x4 DUP1 SLOAD SWAP1 POP PUSH2 0x308 SWAP2 SWAP1 PUSH2 0x1258 JUMP JUMPDEST DUP2 SLOAD DUP2 LT PUSH2 0x319 JUMPI PUSH2 0x318 PUSH2 0x128B JUMP JUMPDEST JUMPDEST SWAP1 PUSH0 MSTORE PUSH1 0x20 PUSH0 KECCAK256 SWAP1 PUSH1 0x5 MUL ADD SWAP1 POP DUP3 DUP2 PUSH0 ADD PUSH0 PUSH2 0x100 EXP DUP2 SLOAD DUP2 PUSH20 0xFFFFFFFFFFFFFFFFFFFFFFFFFFFFFFFFFFFFFFFF MUL NOT AND SWAP1 DUP4 PUSH20 0xFFFFFFFFFFFFFFFFFFFFFFFFFFFFFFFFFFFFFFFF AND MUL OR SWAP1 SSTORE POP DUP2 DUP2 PUSH1 0x1 ADD DUP2 SWAP1 SSTORE POP PUSH0 DUP2 PUSH1 0x2 ADD PUSH0 PUSH2 0x100 EXP DUP2 SLOAD DUP2 PUSH1 0xFF MUL NOT AND SWAP1 DUP4 ISZERO ISZERO MUL OR SWAP1 SSTORE POP PUSH0 DUP2 PUSH1 0x3 ADD DUP2 SWAP1 SSTORE POP POP POP POP JUMP JUMPDEST PUSH0 DUP2 DUP2 SLOAD DUP2 LT PUSH2 0x3A8 JUMPI PUSH0 DUP1 REVERT JUMPDEST SWAP1 PUSH0 MSTORE PUSH1 0x20 PUSH0 KECCAK256 ADD PUSH0 SWAP2 POP SLOAD SWAP1 PUSH2 0x100 EXP SWAP1 DIV PUSH20 0xFFFFFFFFFFFFFFFFFFFFFFFFFFFFFFFFFFFFFFFF AND DUP2 JUMP JUMPDEST PUSH1 0x1 PUSH0 CALLER PUSH20 0xFFFFFFFFFFFFFFFFFFFFFFFFFFFFFFFFFFFFFFFF AND PUSH20 0xFFFFFFFFFFFFFFFFFFFFFFFFFFFFFFFFFFFFFFFF AND DUP2 MSTORE PUSH1 0x20 ADD SWAP1 DUP2 MSTORE PUSH1 0x20 ADD PUSH0 KECCAK256 PUSH0 SWAP1 SLOAD SWAP1 PUSH2 0x100 EXP SWAP1 DIV PUSH1 0xFF AND PUSH2 0x45D JUMPI PUSH1 0x40 MLOAD PUSH32 0x8C379A000000000000000000000000000000000000000000000000000000000 DUP2 MSTORE PUSH1 0x4 ADD PUSH2 0x454 SWAP1 PUSH2 0x1302 JUMP JUMPDEST PUSH1 0x40 MLOAD DUP1 SWAP2 SUB SWAP1 REVERT JUMPDEST PUSH0 PUSH1 0x4 DUP3 DUP2 SLOAD DUP2 LT PUSH2 0x472 JUMPI PUSH2 0x471 PUSH2 0x128B JUMP JUMPDEST JUMPDEST SWAP1 PUSH0 MSTORE PUSH1 0x20 PUSH0 KECCAK256 SWAP1 PUSH1 0x5 MUL ADD SWAP1 POP DUP1 PUSH1 0x4 ADD PUSH0 CALLER PUSH20 0xFFFFFFFFFFFFFFFFFFFFFFFFFFFFFFFFFFFFFFFF AND PUSH20 0xFFFFFFFFFFFFFFFFFFFFFFFFFFFFFFFFFFFFFFFF AND DUP2 MSTORE PUSH1 0x20 ADD SWAP1 DUP2 MSTORE PUSH1 0x20 ADD PUSH0 KECCAK256 PUSH0 SWAP1 SLOAD SWAP1 PUSH2 0x100 EXP SWAP1 DIV PUSH1 0xFF AND ISZERO PUSH2 0x50C JUMPI PUSH1 0x40 MLOAD PUSH32 0x8C379A000000000000000000000000000000000000000000000000000000000 DUP2 MSTORE PUSH1 0x4 ADD PUSH2 0x503 SWAP1 PUSH2 0x136A JUMP JUMPDEST PUSH1 0x40 MLOAD DUP1 SWAP2 SUB SWAP1 REVERT JUMPDEST DUP1 PUSH1 0x2 ADD PUSH0 SWAP1 SLOAD SWAP1 PUSH2 0x100 EXP SWAP1 DIV PUSH1 0xFF AND ISZERO PUSH2 0x55D JUMPI PUSH1 0x40 MLOAD PUSH32 0x8C379A000000000000000000000000000000000000000000000000000000000 DUP2 MSTORE PUSH1 0x4 ADD PUSH2 0x554 SWAP1 PUSH2 0x13D2 JUMP JUMPDEST PUSH1 0x40 MLOAD DUP1 SWAP2 SUB SWAP1 REVERT JUMPDEST PUSH1 0x1 DUP2 PUSH1 0x4 ADD PUSH0 CALLER PUSH20 0xFFFFFFFFFFFFFFFFFFFFFFFFFFFFFFFFFFFFFFFF AND PUSH20 0xFFFFFFFFFFFFFFFFFFFFFFFFFFFFFFFFFFFFFFFF AND DUP2 MSTORE PUSH1 0x20 ADD SWAP1 DUP2 MSTORE PUSH1 0x20 ADD PUSH0 KECCAK256 PUSH0 PUSH2 0x100 EXP DUP2 SLOAD DUP2 PUSH1 0xFF MUL NOT AND SWAP1 DUP4 ISZERO ISZERO MUL OR SWAP1 SSTORE POP DUP1 PUSH1 0x3 ADD PUSH0 DUP2 SLOAD DUP1 SWAP3 SWAP2 SWAP1 PUSH2 0x5C8 SWAP1 PUSH2 0x13F0 JUMP JUMPDEST SWAP2 SWAP1 POP SSTORE POP PUSH1 0x2 SLOAD DUP2 PUSH1 0x3 ADD SLOAD LT PUSH2 0x5E4 JUMPI PUSH2 0x5E3 DUP3 PUSH2 0xB8D JUMP JUMPDEST JUMPDEST POP POP JUMP JUMPDEST PUSH1 0x60 DUP1 PUSH1 0x60 DUP1 PUSH0 PUSH1 0x4 DUP1 SLOAD SWAP1 POP SWAP1 POP DUP1 PUSH8 0xFFFFFFFFFFFFFFFF DUP2 GT ISZERO PUSH2 0x611 JUMPI PUSH2 0x610 PUSH2 0x1437 JUMP JUMPDEST JUMPDEST PUSH1 0x40 MLOAD SWAP1 DUP1 DUP3 MSTORE DUP1 PUSH1 0x20 MUL PUSH1 0x20 ADD DUP3 ADD PUSH1 0x40 MSTORE DUP1 ISZERO PUSH2 0x63F JUMPI DUP2 PUSH1 0x20 ADD PUSH1 0x20 DUP3 MUL DUP1 CALLDATASIZE DUP4 CALLDATACOPY DUP1 DUP3 ADD SWAP2 POP POP SWAP1 POP JUMPDEST POP SWAP5 POP DUP1 PUSH8 0xFFFFFFFFFFFFFFFF DUP2 GT ISZERO PUSH2 0x65C JUMPI PUSH2 0x65B PUSH2 0x1437 JUMP JUMPDEST JUMPDEST PUSH1 0x40 MLOAD SWAP1 DUP1 DUP3 MSTORE DUP1 PUSH1 0x20 MUL PUSH1 0x20 ADD DUP3 ADD PUSH1 0x40 MSTORE DUP1 ISZERO PUSH2 0x68A JUMPI DUP2 PUSH1 0x20 ADD PUSH1 0x20 DUP3 MUL DUP1 CALLDATASIZE DUP4 CALLDATACOPY DUP1 DUP3 ADD SWAP2 POP POP SWAP1 POP JUMPDEST POP SWAP4 POP DUP1 PUSH8 0xFFFFFFFFFFFFFFFF DUP2 GT ISZERO PUSH2 0x6A7 JUMPI PUSH2 0x6A6 PUSH2 0x1437 JUMP JUMPDEST JUMPDEST PUSH1 0x40 MLOAD SWAP1 DUP1 DUP3 MSTORE DUP1 PUSH1 0x20 MUL PUSH1 0x20 ADD DUP3 ADD PUSH1 0x40 MSTORE DUP1 ISZERO PUSH2 0x6D5 JUMPI DUP2 PUSH1 0x20 ADD PUSH1 0x20 DUP3 MUL DUP1 CALLDATASIZE DUP4 CALLDATACOPY DUP1 DUP3 ADD SWAP2 POP POP SWAP1 POP JUMPDEST POP SWAP3 POP DUP1 PUSH8 0xFFFFFFFFFFFFFFFF DUP2 GT ISZERO PUSH2 0x6F2 JUMPI PUSH2 0x6F1 PUSH2 0x1437 JUMP JUMPDEST JUMPDEST PUSH1 0x40 MLOAD SWAP1 DUP1 DUP3 MSTORE DUP1 PUSH1 0x20 MUL PUSH1 0x20 ADD DUP3 ADD PUSH1 0x40 MSTORE DUP1 ISZERO PUSH2 0x720 JUMPI DUP2 PUSH1 0x20 ADD PUSH1 0x20 DUP3 MUL DUP1 CALLDATASIZE DUP4 CALLDATACOPY DUP1 DUP3 ADD SWAP2 POP POP SWAP1 POP JUMPDEST POP SWAP2 POP PUSH0 JUMPDEST DUP2 DUP2 LT ISZERO PUSH2 0x84C JUMPI PUSH0 PUSH1 0x4 DUP3 DUP2 SLOAD DUP2 LT PUSH2 0x742 JUMPI PUSH2 0x741 PUSH2 0x128B JUMP JUMPDEST JUMPDEST SWAP1 PUSH0 MSTORE PUSH1 0x20 PUSH0 KECCAK256 SWAP1 PUSH1 0x5 MUL ADD SWAP1 POP DUP1 PUSH0 ADD PUSH0 SWAP1 SLOAD SWAP1 PUSH2 0x100 EXP SWAP1 DIV PUSH20 0xFFFFFFFFFFFFFFFFFFFFFFFFFFFFFFFFFFFFFFFF AND DUP8 DUP4 DUP2 MLOAD DUP2 LT PUSH2 0x786 JUMPI PUSH2 0x785 PUSH2 0x128B JUMP JUMPDEST JUMPDEST PUSH1 0x20 MUL PUSH1 0x20 ADD ADD SWAP1 PUSH20 0xFFFFFFFFFFFFFFFFFFFFFFFFFFFFFFFFFFFFFFFF AND SWAP1 DUP2 PUSH20 0xFFFFFFFFFFFFFFFFFFFFFFFFFFFFFFFFFFFFFFFF AND DUP2 MSTORE POP POP DUP1 PUSH1 0x1 ADD SLOAD DUP7 DUP4 DUP2 MLOAD DUP2 LT PUSH2 0x7D8 JUMPI PUSH2 0x7D7 PUSH2 0x128B JUMP JUMPDEST JUMPDEST PUSH1 0x20 MUL PUSH1 0x20 ADD ADD DUP2 DUP2 MSTORE POP POP DUP1 PUSH1 0x2 ADD PUSH0 SWAP1 SLOAD SWAP1 PUSH2 0x100 EXP SWAP1 DIV PUSH1 0xFF AND DUP6 DUP4 DUP2 MLOAD DUP2 LT PUSH2 0x808 JUMPI PUSH2 0x807 PUSH2 0x128B JUMP JUMPDEST JUMPDEST PUSH1 0x20 MUL PUSH1 0x20 ADD ADD SWAP1 ISZERO ISZERO SWAP1 DUP2 ISZERO ISZERO DUP2 MSTORE POP POP DUP1 PUSH1 0x3 ADD SLOAD DUP5 DUP4 DUP2 MLOAD DUP2 LT PUSH2 0x832 JUMPI PUSH2 0x831 PUSH2 0x128B JUMP JUMPDEST JUMPDEST PUSH1 0x20 MUL PUSH1 0x20 ADD ADD DUP2 DUP2 MSTORE POP POP POP DUP1 DUP1 PUSH1 0x1 ADD SWAP2 POP POP PUSH2 0x725 JUMP JUMPDEST POP POP SWAP1 SWAP2 SWAP3 SWAP4 JUMP JUMPDEST PUSH1 0x3 PUSH0 SWAP1 SLOAD SWAP1 PUSH2 0x100 EXP SWAP1 DIV PUSH20 0xFFFFFFFFFFFFFFFFFFFFFFFFFFFFFFFFFFFFFFFF AND DUP2 JUMP JUMPDEST PUSH1 0x1 PUSH1 0x20 MSTORE DUP1 PUSH0 MSTORE PUSH1 0x40 PUSH0 KECCAK256 PUSH0 SWAP2 POP SLOAD SWAP1 PUSH2 0x100 EXP SWAP1 DIV PUSH1 0xFF AND DUP2 JUMP JUMPDEST PUSH1 0x2 SLOAD DUP2 JUMP JUMPDEST PUSH1 0x4 DUP2 DUP2 SLOAD DUP2 LT PUSH2 0x8AB JUMPI PUSH0 DUP1 REVERT JUMPDEST SWAP1 PUSH0 MSTORE PUSH1 0x20 PUSH0 KECCAK256 SWAP1 PUSH1 0x5 MUL ADD PUSH0 SWAP2 POP SWAP1 POP DUP1 PUSH0 ADD PUSH0 SWAP1 SLOAD SWAP1 PUSH2 0x100 EXP SWAP1 DIV PUSH20 0xFFFFFFFFFFFFFFFFFFFFFFFFFFFFFFFFFFFFFFFF AND SWAP1 DUP1 PUSH1 0x1 ADD SLOAD SWAP1 DUP1 PUSH1 0x2 ADD PUSH0 SWAP1 SLOAD SWAP1 PUSH2 0x100 EXP SWAP1 DIV PUSH1 0xFF AND SWAP1 DUP1 PUSH1 0x3 ADD SLOAD SWAP1 POP DUP5 JUMP JUMPDEST PUSH1 0x60 DUP1 PUSH1 0x60 PUSH0 DUP1 JUMPDEST PUSH1 0x4 DUP1 SLOAD SWAP1 POP DUP2 LT ISZERO PUSH2 0x967 JUMPI PUSH1 0x4 DUP2 DUP2 SLOAD DUP2 LT PUSH2 0x92B JUMPI PUSH2 0x92A PUSH2 0x128B JUMP JUMPDEST JUMPDEST SWAP1 PUSH0 MSTORE PUSH1 0x20 PUSH0 KECCAK256 SWAP1 PUSH1 0x5 MUL ADD PUSH1 0x2 ADD PUSH0 SWAP1 SLOAD SWAP1 PUSH2 0x100 EXP SWAP1 DIV PUSH1 0xFF AND PUSH2 0x95A JUMPI DUP2 DUP1 PUSH2 0x956 SWAP1 PUSH2 0x13F0 JUMP JUMPDEST SWAP3 POP POP JUMPDEST DUP1 DUP1 PUSH1 0x1 ADD SWAP2 POP POP PUSH2 0x90A JUMP JUMPDEST POP DUP1 PUSH8 0xFFFFFFFFFFFFFFFF DUP2 GT ISZERO PUSH2 0x982 JUMPI PUSH2 0x981 PUSH2 0x1437 JUMP JUMPDEST JUMPDEST PUSH1 0x40 MLOAD SWAP1 DUP1 DUP3 MSTORE DUP1 PUSH1 0x20 MUL PUSH1 0x20 ADD DUP3 ADD PUSH1 0x40 MSTORE DUP1 ISZERO PUSH2 0x9B0 JUMPI DUP2 PUSH1 0x20 ADD PUSH1 0x20 DUP3 MUL DUP1 CALLDATASIZE DUP4 CALLDATACOPY DUP1 DUP3 ADD SWAP2 POP POP SWAP1 POP JUMPDEST POP SWAP4 POP DUP1 PUSH8 0xFFFFFFFFFFFFFFFF DUP2 GT ISZERO PUSH2 0x9CD JUMPI PUSH2 0x9CC PUSH2 0x1437 JUMP JUMPDEST JUMPDEST PUSH1 0x40 MLOAD SWAP1 DUP1 DUP3 MSTORE DUP1 PUSH1 0x20 MUL PUSH1 0x20 ADD DUP3 ADD PUSH1 0x40 MSTORE DUP1 ISZERO PUSH2 0x9FB JUMPI DUP2 PUSH1 0x20 ADD PUSH1 0x20 DUP3 MUL DUP1 CALLDATASIZE DUP4 CALLDATACOPY DUP1 DUP3 ADD SWAP2 POP POP SWAP1 POP JUMPDEST POP SWAP3 POP DUP1 PUSH8 0xFFFFFFFFFFFFFFFF DUP2 GT ISZERO PUSH2 0xA18 JUMPI PUSH2 0xA17 PUSH2 0x1437 JUMP JUMPDEST JUMPDEST PUSH1 0x40 MLOAD SWAP1 DUP1 DUP3 MSTORE DUP1 PUSH1 0x20 MUL PUSH1 0x20 ADD DUP3 ADD PUSH1 0x40 MSTORE DUP1 ISZERO PUSH2 0xA46 JUMPI DUP2 PUSH1 0x20 ADD PUSH1 0x20 DUP3 MUL DUP1 CALLDATASIZE DUP4 CALLDATACOPY DUP1 DUP3 ADD SWAP2 POP POP SWAP1 POP JUMPDEST POP SWAP2 POP PUSH0 DUP1 JUMPDEST PUSH1 0x4 DUP1 SLOAD SWAP1 POP DUP2 LT ISZERO PUSH2 0xB85 JUMPI PUSH1 0x4 DUP2 DUP2 SLOAD DUP2 LT PUSH2 0xA6D JUMPI PUSH2 0xA6C PUSH2 0x128B JUMP JUMPDEST JUMPDEST SWAP1 PUSH0 MSTORE PUSH1 0x20 PUSH0 KECCAK256 SWAP1 PUSH1 0x5 MUL ADD PUSH1 0x2 ADD PUSH0 SWAP1 SLOAD SWAP1 PUSH2 0x100 EXP SWAP1 DIV PUSH1 0xFF AND PUSH2 0xB78 JUMPI PUSH0 PUSH1 0x4 DUP3 DUP2 SLOAD DUP2 LT PUSH2 0xAA2 JUMPI PUSH2 0xAA1 PUSH2 0x128B JUMP JUMPDEST JUMPDEST SWAP1 PUSH0 MSTORE PUSH1 0x20 PUSH0 KECCAK256 SWAP1 PUSH1 0x5 MUL ADD SWAP1 POP DUP1 PUSH0 ADD PUSH0 SWAP1 SLOAD SWAP1 PUSH2 0x100 EXP SWAP1 DIV PUSH20 0xFFFFFFFFFFFFFFFFFFFFFFFFFFFFFFFFFFFFFFFF AND DUP8 DUP5 DUP2 MLOAD DUP2 LT PUSH2 0xAE6 JUMPI PUSH2 0xAE5 PUSH2 0x128B JUMP JUMPDEST JUMPDEST PUSH1 0x20 MUL PUSH1 0x20 ADD ADD SWAP1 PUSH20 0xFFFFFFFFFFFFFFFFFFFFFFFFFFFFFFFFFFFFFFFF AND SWAP1 DUP2 PUSH20 0xFFFFFFFFFFFFFFFFFFFFFFFFFFFFFFFFFFFFFFFF AND DUP2 MSTORE POP POP DUP1 PUSH1 0x1 ADD SLOAD DUP7 DUP5 DUP2 MLOAD DUP2 LT PUSH2 0xB38 JUMPI PUSH2 0xB37 PUSH2 0x128B JUMP JUMPDEST JUMPDEST PUSH1 0x20 MUL PUSH1 0x20 ADD ADD DUP2 DUP2 MSTORE POP POP DUP1 PUSH1 0x3 ADD SLOAD DUP6 DUP5 DUP2 MLOAD DUP2 LT PUSH2 0xB5C JUMPI PUSH2 0xB5B PUSH2 0x128B JUMP JUMPDEST JUMPDEST PUSH1 0x20 MUL PUSH1 0x20 ADD ADD DUP2 DUP2 MSTORE POP POP DUP3 DUP1 PUSH2 0xB73 SWAP1 PUSH2 0x13F0 JUMP JUMPDEST SWAP4 POP POP POP JUMPDEST DUP1 DUP1 PUSH1 0x1 ADD SWAP2 POP POP PUSH2 0xA4C JUMP JUMPDEST POP POP POP SWAP1 SWAP2 SWAP3 JUMP JUMPDEST PUSH0 PUSH1 0x4 DUP3 DUP2 SLOAD DUP2 LT PUSH2 0xBA2 JUMPI PUSH2 0xBA1 PUSH2 0x128B JUMP JUMPDEST JUMPDEST SWAP1 PUSH0 MSTORE PUSH1 0x20 PUSH0 KECCAK256 SWAP1 PUSH1 0x5 MUL ADD SWAP1 POP PUSH1 0x2 SLOAD DUP2 PUSH1 0x3 ADD SLOAD LT ISZERO PUSH2 0xBF9 JUMPI PUSH1 0x40 MLOAD PUSH32 0x8C379A000000000000000000000000000000000000000000000000000000000 DUP2 MSTORE PUSH1 0x4 ADD PUSH2 0xBF0 SWAP1 PUSH2 0x14AE JUMP JUMPDEST PUSH1 0x40 MLOAD DUP1 SWAP2 SUB SWAP1 REVERT JUMPDEST DUP1 PUSH1 0x2 ADD PUSH0 SWAP1 SLOAD SWAP1 PUSH2 0x100 EXP SWAP1 DIV PUSH1 0xFF AND ISZERO PUSH2 0xC4A JUMPI PUSH1 0x40 MLOAD PUSH32 0x8C379A000000000000000000000000000000000000000000000000000000000 DUP2 MSTORE PUSH1 0x4 ADD PUSH2 0xC41 SWAP1 PUSH2 0x13D2 JUMP JUMPDEST PUSH1 0x40 MLOAD DUP1 SWAP2 SUB SWAP1 REVERT JUMPDEST PUSH1 0x1 DUP2 PUSH1 0x2 ADD PUSH0 PUSH2 0x100 EXP DUP2 SLOAD DUP2 PUSH1 0xFF MUL NOT AND SWAP1 DUP4 ISZERO ISZERO MUL OR SWAP1 SSTORE POP DUP1 PUSH0 ADD PUSH0 SWAP1 SLOAD SWAP1 PUSH2 0x100 EXP SWAP1 DIV PUSH20 0xFFFFFFFFFFFFFFFFFFFFFFFFFFFFFFFFFFFFFFFF AND PUSH20 0xFFFFFFFFFFFFFFFFFFFFFFFFFFFFFFFFFFFFFFFF AND PUSH2 0x8FC DUP3 PUSH1 0x1 ADD SLOAD SWAP1 DUP2 ISZERO MUL SWAP1 PUSH1 0x40 MLOAD PUSH0 PUSH1 0x40 MLOAD DUP1 DUP4 SUB DUP2 DUP6 DUP9 DUP9 CALL SWAP4 POP POP POP POP ISZERO DUP1 ISZERO PUSH2 0xCCF JUMPI RETURNDATASIZE PUSH0 DUP1 RETURNDATACOPY RETURNDATASIZE PUSH0 REVERT JUMPDEST POP POP POP JUMP JUMPDEST PUSH0 DUP1 REVERT JUMPDEST PUSH0 PUSH20 0xFFFFFFFFFFFFFFFFFFFFFFFFFFFFFFFFFFFFFFFF DUP3 AND SWAP1 POP SWAP2 SWAP1 POP JUMP JUMPDEST PUSH0 PUSH2 0xD01 DUP3 PUSH2 0xCD8 JUMP JUMPDEST SWAP1 POP SWAP2 SWAP1 POP JUMP JUMPDEST PUSH2 0xD11 DUP2 PUSH2 0xCF7 JUMP JUMPDEST DUP2 EQ PUSH2 0xD1B JUMPI PUSH0 DUP1 REVERT JUMPDEST POP JUMP JUMPDEST PUSH0 DUP2 CALLDATALOAD SWAP1 POP PUSH2 0xD2C DUP2 PUSH2 0xD08 JUMP JUMPDEST SWAP3 SWAP2 POP POP JUMP JUMPDEST PUSH0 DUP2 SWAP1 POP SWAP2 SWAP1 POP JUMP JUMPDEST PUSH2 0xD44 DUP2 PUSH2 0xD32 JUMP JUMPDEST DUP2 EQ PUSH2 0xD4E JUMPI PUSH0 DUP1 REVERT JUMPDEST POP JUMP JUMPDEST PUSH0 DUP2 CALLDATALOAD SWAP1 POP PUSH2 0xD5F DUP2 PUSH2 0xD3B JUMP JUMPDEST SWAP3 SWAP2 POP POP JUMP JUMPDEST PUSH0 DUP1 PUSH1 0x40 DUP4 DUP6 SUB SLT ISZERO PUSH2 0xD7B JUMPI PUSH2 0xD7A PUSH2 0xCD4 JUMP JUMPDEST JUMPDEST PUSH0 PUSH2 0xD88 DUP6 DUP3 DUP7 ADD PUSH2 0xD1E JUMP JUMPDEST SWAP3 POP POP PUSH1 0x20 PUSH2 0xD99 DUP6 DUP3 DUP7 ADD PUSH2 0xD51 JUMP JUMPDEST SWAP2 POP POP SWAP3 POP SWAP3 SWAP1 POP JUMP JUMPDEST PUSH0 PUSH1 0x20 DUP3 DUP5 SUB SLT ISZERO PUSH2 0xDB8 JUMPI PUSH2 0xDB7 PUSH2 0xCD4 JUMP JUMPDEST JUMPDEST PUSH0 PUSH2 0xDC5 DUP5 DUP3 DUP6 ADD PUSH2 0xD51 JUMP JUMPDEST SWAP2 POP POP SWAP3 SWAP2 POP POP JUMP JUMPDEST PUSH2 0xDD7 DUP2 PUSH2 0xCF7 JUMP JUMPDEST DUP3 MSTORE POP POP JUMP JUMPDEST PUSH0 PUSH1 0x20 DUP3 ADD SWAP1 POP PUSH2 0xDF0 PUSH0 DUP4 ADD DUP5 PUSH2 0xDCE JUMP JUMPDEST SWAP3 SWAP2 POP POP JUMP JUMPDEST PUSH0 DUP2 MLOAD SWAP1 POP SWAP2 SWAP1 POP JUMP JUMPDEST PUSH0 DUP3 DUP3 MSTORE PUSH1 0x20 DUP3 ADD SWAP1 POP SWAP3 SWAP2 POP POP JUMP JUMPDEST PUSH0 DUP2 SWAP1 POP PUSH1 0x20 DUP3 ADD SWAP1 POP SWAP2 SWAP1 POP JUMP JUMPDEST PUSH2 0xE28 DUP2 PUSH2 0xCF7 JUMP JUMPDEST DUP3 MSTORE POP POP JUMP JUMPDEST PUSH0 PUSH2 0xE39 DUP4 DUP4 PUSH2 0xE1F JUMP JUMPDEST PUSH1 0x20 DUP4 ADD SWAP1 POP SWAP3 SWAP2 POP POP JUMP JUMPDEST PUSH0 PUSH1 0x20 DUP3 ADD SWAP1 POP SWAP2 SWAP1 POP JUMP JUMPDEST PUSH0 PUSH2 0xE5B DUP3 PUSH2 0xDF6 JUMP JUMPDEST PUSH2 0xE65 DUP2 DUP6 PUSH2 0xE00 JUMP JUMPDEST SWAP4 POP PUSH2 0xE70 DUP4 PUSH2 0xE10 JUMP JUMPDEST DUP1 PUSH0 JUMPDEST DUP4 DUP2 LT ISZERO PUSH2 0xEA0 JUMPI DUP2 MLOAD PUSH2 0xE87 DUP9 DUP3 PUSH2 0xE2E JUMP JUMPDEST SWAP8 POP PUSH2 0xE92 DUP4 PUSH2 0xE45 JUMP JUMPDEST SWAP3 POP POP PUSH1 0x1 DUP2 ADD SWAP1 POP PUSH2 0xE73 JUMP JUMPDEST POP DUP6 SWAP4 POP POP POP POP SWAP3 SWAP2 POP POP JUMP JUMPDEST PUSH0 DUP2 MLOAD SWAP1 POP SWAP2 SWAP1 POP JUMP JUMPDEST PUSH0 DUP3 DUP3 MSTORE PUSH1 0x20 DUP3 ADD SWAP1 POP SWAP3 SWAP2 POP POP JUMP JUMPDEST PUSH0 DUP2 SWAP1 POP PUSH1 0x20 DUP3 ADD SWAP1 POP SWAP2 SWAP1 POP JUMP JUMPDEST PUSH2 0xEDF DUP2 PUSH2 0xD32 JUMP JUMPDEST DUP3 MSTORE POP POP JUMP JUMPDEST PUSH0 PUSH2 0xEF0 DUP4 DUP4 PUSH2 0xED6 JUMP JUMPDEST PUSH1 0x20 DUP4 ADD SWAP1 POP SWAP3 SWAP2 POP POP JUMP JUMPDEST PUSH0 PUSH1 0x20 DUP3 ADD SWAP1 POP SWAP2 SWAP1 POP JUMP JUMPDEST PUSH0 PUSH2 0xF12 DUP3 PUSH2 0xEAD JUMP JUMPDEST PUSH2 0xF1C DUP2 DUP6 PUSH2 0xEB7 JUMP JUMPDEST SWAP4 POP PUSH2 0xF27 DUP4 PUSH2 0xEC7 JUMP JUMPDEST DUP1 PUSH0 JUMPDEST DUP4 DUP2 LT ISZERO PUSH2 0xF57 JUMPI DUP2 MLOAD PUSH2 0xF3E DUP9 DUP3 PUSH2 0xEE5 JUMP JUMPDEST SWAP8 POP PUSH2 0xF49 DUP4 PUSH2 0xEFC JUMP JUMPDEST SWAP3 POP POP PUSH1 0x1 DUP2 ADD SWAP1 POP PUSH2 0xF2A JUMP JUMPDEST POP DUP6 SWAP4 POP POP POP POP SWAP3 SWAP2 POP POP JUMP JUMPDEST PUSH0 DUP2 MLOAD SWAP1 POP SWAP2 SWAP1 POP JUMP JUMPDEST PUSH0 DUP3 DUP3 MSTORE PUSH1 0x20 DUP3 ADD SWAP1 POP SWAP3 SWAP2 POP POP JUMP JUMPDEST PUSH0 DUP2 SWAP1 POP PUSH1 0x20 DUP3 ADD SWAP1 POP SWAP2 SWAP1 POP JUMP JUMPDEST PUSH0 DUP2 ISZERO ISZERO SWAP1 POP SWAP2 SWAP1 POP JUMP JUMPDEST PUSH2 0xFA1 DUP2 PUSH2 0xF8D JUMP JUMPDEST DUP3 MSTORE POP POP JUMP JUMPDEST PUSH0 PUSH2 0xFB2 DUP4 DUP4 PUSH2 0xF98 JUMP JUMPDEST PUSH1 0x20 DUP4 ADD SWAP1 POP SWAP3 SWAP2 POP POP JUMP JUMPDEST PUSH0 PUSH1 0x20 DUP3 ADD SWAP1 POP SWAP2 SWAP1 POP JUMP JUMPDEST PUSH0 PUSH2 0xFD4 DUP3 PUSH2 0xF64 JUMP JUMPDEST PUSH2 0xFDE DUP2 DUP6 PUSH2 0xF6E JUMP JUMPDEST SWAP4 POP PUSH2 0xFE9 DUP4 PUSH2 0xF7E JUMP JUMPDEST DUP1 PUSH0 JUMPDEST DUP4 DUP2 LT ISZERO PUSH2 0x1019 JUMPI DUP2 MLOAD PUSH2 0x1000 DUP9 DUP3 PUSH2 0xFA7 JUMP JUMPDEST SWAP8 POP PUSH2 0x100B DUP4 PUSH2 0xFBE JUMP JUMPDEST SWAP3 POP POP PUSH1 0x1 DUP2 ADD SWAP1 POP PUSH2 0xFEC JUMP JUMPDEST POP DUP6 SWAP4 POP POP POP POP SWAP3 SWAP2 POP POP JUMP JUMPDEST PUSH0 PUSH1 0x80 DUP3 ADD SWAP1 POP DUP2 DUP2 SUB PUSH0 DUP4 ADD MSTORE PUSH2 0x103E DUP2 DUP8 PUSH2 0xE51 JUMP JUMPDEST SWAP1 POP DUP2 DUP2 SUB PUSH1 0x20 DUP4 ADD MSTORE PUSH2 0x1052 DUP2 DUP7 PUSH2 0xF08 JUMP JUMPDEST SWAP1 POP DUP2 DUP2 SUB PUSH1 0x40 DUP4 ADD MSTORE PUSH2 0x1066 DUP2 DUP6 PUSH2 0xFCA JUMP JUMPDEST SWAP1 POP DUP2 DUP2 SUB PUSH1 0x60 DUP4 ADD MSTORE PUSH2 0x107A DUP2 DUP5 PUSH2 0xF08 JUMP JUMPDEST SWAP1 POP SWAP6 SWAP5 POP POP POP POP POP JUMP JUMPDEST PUSH0 PUSH1 0x20 DUP3 DUP5 SUB SLT ISZERO PUSH2 0x109A JUMPI PUSH2 0x1099 PUSH2 0xCD4 JUMP JUMPDEST JUMPDEST PUSH0 PUSH2 0x10A7 DUP5 DUP3 DUP6 ADD PUSH2 0xD1E JUMP JUMPDEST SWAP2 POP POP SWAP3 SWAP2 POP POP JUMP JUMPDEST PUSH2 0x10B9 DUP2 PUSH2 0xF8D JUMP JUMPDEST DUP3 MSTORE POP POP JUMP JUMPDEST PUSH0 PUSH1 0x20 DUP3 ADD SWAP1 POP PUSH2 0x10D2 PUSH0 DUP4 ADD DUP5 PUSH2 0x10B0 JUMP JUMPDEST SWAP3 SWAP2 POP POP JUMP JUMPDEST PUSH2 0x10E1 DUP2 PUSH2 0xD32 JUMP JUMPDEST DUP3 MSTORE POP POP JUMP JUMPDEST PUSH0 PUSH1 0x20 DUP3 ADD SWAP1 POP PUSH2 0x10FA PUSH0 DUP4 ADD DUP5 PUSH2 0x10D8 JUMP JUMPDEST SWAP3 SWAP2 POP POP JUMP JUMPDEST PUSH0 PUSH1 0x80 DUP3 ADD SWAP1 POP PUSH2 0x1113 PUSH0 DUP4 ADD DUP8 PUSH2 0xDCE JUMP JUMPDEST PUSH2 0x1120 PUSH1 0x20 DUP4 ADD DUP7 PUSH2 0x10D8 JUMP JUMPDEST PUSH2 0x112D PUSH1 0x40 DUP4 ADD DUP6 PUSH2 0x10B0 JUMP JUMPDEST PUSH2 0x113A PUSH1 0x60 DUP4 ADD DUP5 PUSH2 0x10D8 JUMP JUMPDEST SWAP6 SWAP5 POP POP POP POP POP JUMP JUMPDEST PUSH0 PUSH1 0x60 DUP3 ADD SWAP1 POP DUP2 DUP2 SUB PUSH0 DUP4 ADD MSTORE PUSH2 0x115B DUP2 DUP7 PUSH2 0xE51 JUMP JUMPDEST SWAP1 POP DUP2 DUP2 SUB PUSH1 0x20 DUP4 ADD MSTORE PUSH2 0x116F DUP2 DUP6 PUSH2 0xF08 JUMP JUMPDEST SWAP1 POP DUP2 DUP2 SUB PUSH1 0x40 DUP4 ADD MSTORE PUSH2 0x1183 DUP2 DUP5 PUSH2 0xF08 JUMP JUMPDEST SWAP1 POP SWAP5 SWAP4 POP POP POP POP JUMP JUMPDEST PUSH0 DUP3 DUP3 MSTORE PUSH1 0x20 DUP3 ADD SWAP1 POP SWAP3 SWAP2 POP POP JUMP JUMPDEST PUSH32 0x4F6E6C7920446F6E6174696F6E7320636F6E74726163742063616E2063616C6C PUSH0 DUP3 ADD MSTORE PUSH32 0x20746869732066756E6374696F6E2E0000000000000000000000000000000000 PUSH1 0x20 DUP3 ADD MSTORE POP JUMP JUMPDEST PUSH0 PUSH2 0x11F7 PUSH1 0x2F DUP4 PUSH2 0x118D JUMP JUMPDEST SWAP2 POP PUSH2 0x1202 DUP3 PUSH2 0x119D JUMP JUMPDEST PUSH1 0x40 DUP3 ADD SWAP1 POP SWAP2 SWAP1 POP JUMP JUMPDEST PUSH0 PUSH1 0x20 DUP3 ADD SWAP1 POP DUP2 DUP2 SUB PUSH0 DUP4 ADD MSTORE PUSH2 0x1224 DUP2 PUSH2 0x11EB JUMP JUMPDEST SWAP1 POP SWAP2 SWAP1 POP JUMP JUMPDEST PUSH32 0x4E487B7100000000000000000000000000000000000000000000000000000000 PUSH0 MSTORE PUSH1 0x11 PUSH1 0x4 MSTORE PUSH1 0x24 PUSH0 REVERT JUMPDEST PUSH0 PUSH2 0x1262 DUP3 PUSH2 0xD32 JUMP JUMPDEST SWAP2 POP PUSH2 0x126D DUP4 PUSH2 0xD32 JUMP JUMPDEST SWAP3 POP DUP3 DUP3 SUB SWAP1 POP DUP2 DUP2 GT ISZERO PUSH2 0x1285 JUMPI PUSH2 0x1284 PUSH2 0x122B JUMP JUMPDEST JUMPDEST SWAP3 SWAP2 POP POP JUMP JUMPDEST PUSH32 0x4E487B7100000000000000000000000000000000000000000000000000000000 PUSH0 MSTORE PUSH1 0x32 PUSH1 0x4 MSTORE PUSH1 0x24 PUSH0 REVERT JUMPDEST PUSH32 0x4E6F742061207369676E65720000000000000000000000000000000000000000 PUSH0 DUP3 ADD MSTORE POP JUMP JUMPDEST PUSH0 PUSH2 0x12EC PUSH1 0xC DUP4 PUSH2 0x118D JUMP JUMPDEST SWAP2 POP PUSH2 0x12F7 DUP3 PUSH2 0x12B8 JUMP JUMPDEST PUSH1 0x20 DUP3 ADD SWAP1 POP SWAP2 SWAP1 POP JUMP JUMPDEST PUSH0 PUSH1 0x20 DUP3 ADD SWAP1 POP DUP2 DUP2 SUB PUSH0 DUP4 ADD MSTORE PUSH2 0x1319 DUP2 PUSH2 0x12E0 JUMP JUMPDEST SWAP1 POP SWAP2 SWAP1 POP JUMP JUMPDEST PUSH32 0x5472616E73616374696F6E20616C726561647920617070726F76656400000000 PUSH0 DUP3 ADD MSTORE POP JUMP JUMPDEST PUSH0 PUSH2 0x1354 PUSH1 0x1C DUP4 PUSH2 0x118D JUMP JUMPDEST SWAP2 POP PUSH2 0x135F DUP3 PUSH2 0x1320 JUMP JUMPDEST PUSH1 0x20 DUP3 ADD SWAP1 POP SWAP2 SWAP1 POP JUMP JUMPDEST PUSH0 PUSH1 0x20 DUP3 ADD SWAP1 POP DUP2 DUP2 SUB PUSH0 DUP4 ADD MSTORE PUSH2 0x1381 DUP2 PUSH2 0x1348 JUMP JUMPDEST SWAP1 POP SWAP2 SWAP1 POP JUMP JUMPDEST PUSH32 0x5472616E73616374696F6E20616C726561647920657865637574656400000000 PUSH0 DUP3 ADD MSTORE POP JUMP JUMPDEST PUSH0 PUSH2 0x13BC PUSH1 0x1C DUP4 PUSH2 0x118D JUMP JUMPDEST SWAP2 POP PUSH2 0x13C7 DUP3 PUSH2 0x1388 JUMP JUMPDEST PUSH1 0x20 DUP3 ADD SWAP1 POP SWAP2 SWAP1 POP JUMP JUMPDEST PUSH0 PUSH1 0x20 DUP3 ADD SWAP1 POP DUP2 DUP2 SUB PUSH0 DUP4 ADD MSTORE PUSH2 0x13E9 DUP2 PUSH2 0x13B0 JUMP JUMPDEST SWAP1 POP SWAP2 SWAP1 POP JUMP JUMPDEST PUSH0 PUSH2 0x13FA DUP3 PUSH2 0xD32 JUMP JUMPDEST SWAP2 POP PUSH32 0xFFFFFFFFFFFFFFFFFFFFFFFFFFFFFFFFFFFFFFFFFFFFFFFFFFFFFFFFFFFFFFFF DUP3 SUB PUSH2 0x142C JUMPI PUSH2 0x142B PUSH2 0x122B JUMP JUMPDEST JUMPDEST PUSH1 0x1 DUP3 ADD SWAP1 POP SWAP2 SWAP1 POP JUMP JUMPDEST PUSH32 0x4E487B7100000000000000000000000000000000000000000000000000000000 PUSH0 MSTORE PUSH1 0x41 PUSH1 0x4 MSTORE PUSH1 0x24 PUSH0 REVERT JUMPDEST PUSH32 0x4E6F7420656E6F75676820617070726F76616C73000000000000000000000000 PUSH0 DUP3 ADD MSTORE POP JUMP JUMPDEST PUSH0 PUSH2 0x1498 PUSH1 0x14 DUP4 PUSH2 0x118D JUMP JUMPDEST SWAP2 POP PUSH2 0x14A3 DUP3 PUSH2 0x1464 JUMP JUMPDEST PUSH1 0x20 DUP3 ADD SWAP1 POP SWAP2 SWAP1 POP JUMP JUMPDEST PUSH0 PUSH1 0x20 DUP3 ADD SWAP1 POP DUP2 DUP2 SUB PUSH0 DUP4 ADD MSTORE PUSH2 0x14C5 DUP2 PUSH2 0x148C JUMP JUMPDEST SWAP1 POP SWAP2 SWAP1 POP JUMP INVALID LOG2 PUSH5 0x6970667358 0x22 SLT KECCAK256 0xAC MOD 0xDB MSTORE NUMBER SAR 0x21 STOP SWAP11 CALLDATACOPY PUSH0 GAS 0x4E SWAP2 0xE8 RETURN CALLDATACOPY 0xB3 PUSH0 0x28 BYTE STATICCALL 0xEC 0xD6 0xF6 CALL COINBASE SWAP4 SAR PREVRANDAO SWAP7 0xDE PUSH5 0x736F6C6343 STOP ADDMOD BYTE STOP CALLER LOG2 PUSH5 0x6970667358 0x22 SLT KECCAK256 0xF CALLDATASIZE SSTORE DUP8 0xBF 0x26 0xBB 0x25 AND 0xDF 0xD6 DELEGATECALL PUSH8 0x66C652ED20DB7636 CALLDATACOPY CALLDATASIZE DELEGATECALL SWAP9 PUSH22 0xDE821D9F947C64736F6C634300081A00330000000000 "
		},
		"gasEstimates": {
			"creation": {
				"codeDepositCost": "3507800",
				"executionCost": "infinite",
				"totalCost": "infinite"
			},
			"external": {
				"campaignCount()": "2448",
				"campaignExists(uint256)": "2808",
				"campaigns(uint256)": "infinite",
				"createCampaign(string,string,uint256,address[],uint256)": "infinite",
				"donate(uint256)": "infinite",
				"donationContractAddress()": "2597",
				"donations(uint256,address)": "infinite",
				"getCampaign(uint256)": "infinite",
				"getCampaignDetails(uint256)": "infinite",
				"getDonators(uint256)": "infinite",
				"getMultiSigWalletAddress(uint256)": "5154",
				"postFundUtilization(uint256,string)": "infinite",
				"profileManager()": "infinite",
				"withdrawFunds(uint256,address,uint256)": "infinite"
			}
		},
		"methodIdentifiers": {
			"campaignCount()": "7274e30d",
			"campaignExists(uint256)": "3b594a68",
			"campaigns(uint256)": "141961bc",
			"createCampaign(string,string,uint256,address[],uint256)": "e2c341a2",
			"donate(uint256)": "f14faf6f",
			"donationContractAddress()": "5791913f",
			"donations(uint256,address)": "ee1554a3",
			"getCampaign(uint256)": "5598f8cc",
			"getCampaignDetails(uint256)": "d993de62",
			"getDonators(uint256)": "0fa91fa9",
			"getMultiSigWalletAddress(uint256)": "2bd8647b",
			"postFundUtilization(uint256,string)": "4a7de20a",
			"profileManager()": "f3f5142e",
			"withdrawFunds(uint256,address,uint256)": "f8f34cde"
		}
	},
	"abi": [
		{
			"inputs": [
				{
					"internalType": "address",
					"name": "_profileManagerAddress",
					"type": "address"
				}
			],
			"stateMutability": "nonpayable",
			"type": "constructor"
		},
		{
			"inputs": [],
			"name": "campaignCount",
			"outputs": [
				{
					"internalType": "uint256",
					"name": "",
					"type": "uint256"
				}
			],
			"stateMutability": "view",
			"type": "function"
		},
		{
			"inputs": [
				{
					"internalType": "uint256",
					"name": "",
					"type": "uint256"
				}
			],
			"name": "campaignExists",
			"outputs": [
				{
					"internalType": "bool",
					"name": "",
					"type": "bool"
				}
			],
			"stateMutability": "view",
			"type": "function"
		},
		{
			"inputs": [
				{
					"internalType": "uint256",
					"name": "",
					"type": "uint256"
				}
			],
			"name": "campaigns",
			"outputs": [
				{
					"internalType": "address",
					"name": "owner",
					"type": "address"
				},
				{
					"internalType": "string",
					"name": "title",
					"type": "string"
				},
				{
					"internalType": "string",
					"name": "description",
					"type": "string"
				},
				{
					"internalType": "uint256",
					"name": "target",
					"type": "uint256"
				},
				{
					"internalType": "uint256",
					"name": "amountCollected",
					"type": "uint256"
				},
				{
					"internalType": "uint256",
					"name": "totalWithdrawn",
					"type": "uint256"
				},
				{
					"internalType": "contract MultiSigWallet",
					"name": "multiSigWallet",
					"type": "address"
				}
			],
			"stateMutability": "view",
			"type": "function"
		},
		{
			"inputs": [
				{
					"internalType": "string",
					"name": "_title",
					"type": "string"
				},
				{
					"internalType": "string",
					"name": "_description",
					"type": "string"
				},
				{
					"internalType": "uint256",
					"name": "_target",
					"type": "uint256"
				},
				{
					"internalType": "address[]",
					"name": "_signers",
					"type": "address[]"
				},
				{
					"internalType": "uint256",
					"name": "_requiredApprovals",
					"type": "uint256"
				}
			],
			"name": "createCampaign",
			"outputs": [],
			"stateMutability": "nonpayable",
			"type": "function"
		},
		{
			"inputs": [
				{
					"internalType": "uint256",
					"name": "_campaignId",
					"type": "uint256"
				}
			],
			"name": "donate",
			"outputs": [],
			"stateMutability": "payable",
			"type": "function"
		},
		{
			"inputs": [],
			"name": "donationContractAddress",
			"outputs": [
				{
					"internalType": "address",
					"name": "",
					"type": "address"
				}
			],
			"stateMutability": "view",
			"type": "function"
		},
		{
			"inputs": [
				{
					"internalType": "uint256",
					"name": "",
					"type": "uint256"
				},
				{
					"internalType": "address",
					"name": "",
					"type": "address"
				}
			],
			"name": "donations",
			"outputs": [
				{
					"internalType": "uint256",
					"name": "",
					"type": "uint256"
				}
			],
			"stateMutability": "view",
			"type": "function"
		},
		{
			"inputs": [
				{
					"internalType": "uint256",
					"name": "_campaignId",
					"type": "uint256"
				}
			],
			"name": "getCampaign",
			"outputs": [
				{
					"components": [
						{
							"internalType": "address",
							"name": "owner",
							"type": "address"
						},
						{
							"internalType": "string",
							"name": "title",
							"type": "string"
						},
						{
							"internalType": "string",
							"name": "description",
							"type": "string"
						},
						{
							"internalType": "uint256",
							"name": "target",
							"type": "uint256"
						},
						{
							"internalType": "uint256",
							"name": "amountCollected",
							"type": "uint256"
						},
						{
							"internalType": "uint256",
							"name": "totalWithdrawn",
							"type": "uint256"
						},
						{
							"internalType": "string[]",
							"name": "fundUtilization",
							"type": "string[]"
						},
						{
							"internalType": "address[]",
							"name": "donators",
							"type": "address[]"
						},
						{
							"internalType": "contract MultiSigWallet",
							"name": "multiSigWallet",
							"type": "address"
						}
					],
					"internalType": "struct Donation.Campaign",
					"name": "",
					"type": "tuple"
				}
			],
			"stateMutability": "view",
			"type": "function"
		},
		{
			"inputs": [
				{
					"internalType": "uint256",
					"name": "campaignId",
					"type": "uint256"
				}
			],
			"name": "getCampaignDetails",
			"outputs": [
				{
					"internalType": "address",
					"name": "",
					"type": "address"
				},
				{
					"internalType": "string",
					"name": "",
					"type": "string"
				},
				{
					"internalType": "string",
					"name": "",
					"type": "string"
				},
				{
					"internalType": "uint256",
					"name": "",
					"type": "uint256"
				},
				{
					"internalType": "uint256",
					"name": "",
					"type": "uint256"
				},
				{
					"internalType": "uint256",
					"name": "",
					"type": "uint256"
				}
			],
			"stateMutability": "view",
			"type": "function"
		},
		{
			"inputs": [
				{
					"internalType": "uint256",
					"name": "_campaignId",
					"type": "uint256"
				}
			],
			"name": "getDonators",
			"outputs": [
				{
					"internalType": "address[]",
					"name": "",
					"type": "address[]"
				}
			],
			"stateMutability": "view",
			"type": "function"
		},
		{
			"inputs": [
				{
					"internalType": "uint256",
					"name": "_campaignId",
					"type": "uint256"
				}
			],
			"name": "getMultiSigWalletAddress",
			"outputs": [
				{
					"internalType": "address",
					"name": "",
					"type": "address"
				}
			],
			"stateMutability": "view",
			"type": "function"
		},
		{
			"inputs": [
				{
					"internalType": "uint256",
					"name": "_campaignId",
					"type": "uint256"
				},
				{
					"internalType": "string",
					"name": "_utilizationDescription",
					"type": "string"
				}
			],
			"name": "postFundUtilization",
			"outputs": [],
			"stateMutability": "nonpayable",
			"type": "function"
		},
		{
			"inputs": [],
			"name": "profileManager",
			"outputs": [
				{
					"internalType": "contract ProfileManager",
					"name": "",
					"type": "address"
				}
			],
			"stateMutability": "view",
			"type": "function"
		},
		{
			"inputs": [
				{
					"internalType": "uint256",
					"name": "_campaignId",
					"type": "uint256"
				},
				{
					"internalType": "address",
					"name": "_to",
					"type": "address"
				},
				{
					"internalType": "uint256",
					"name": "_amount",
					"type": "uint256"
				}
			],
			"name": "withdrawFunds",
			"outputs": [],
			"stateMutability": "nonpayable",
			"type": "function"
		},
		{
			"stateMutability": "payable",
			"type": "receive"
		}
	]
}