{
	"data": {
		"bytecode": {
			"linkReferences": {},
			"object": "60806040525f600455348015610013575f80fd5b50604051613854380380613854833981810160405281019061003591906100d8565b805f806101000a81548173ffffffffffffffffffffffffffffffffffffffff021916908373ffffffffffffffffffffffffffffffffffffffff16021790555050610103565b5f80fd5b5f73ffffffffffffffffffffffffffffffffffffffff82169050919050565b5f6100a78261007e565b9050919050565b6100b78161009d565b81146100c1575f80fd5b50565b5f815190506100d2816100ae565b92915050565b5f602082840312156100ed576100ec61007a565b5b5f6100fa848285016100c4565b91505092915050565b613744806101105f395ff3fe60806040526004361061009f575f3560e01c80637274e30d116100635780637274e30d146101c8578063e2c341a2146101f2578063ee1554a31461021a578063f14faf6f14610256578063f3f5142e14610272578063f8f34cde1461029c576100a6565b80630fa91fa9146100aa578063141961bc146100e65780633b594a68146101285780634a7de20a146101645780635598f8cc1461018c576100a6565b366100a657005b5f80fd5b3480156100b5575f80fd5b506100d060048036038101906100cb9190611361565b6102c4565b6040516100dd9190611473565b60405180910390f35b3480156100f1575f80fd5b5061010c60048036038101906101079190611361565b6103c0565b60405161011f979695949392919061157c565b60405180910390f35b348015610133575f80fd5b5061014e60048036038101906101499190611361565b610548565b60405161015b9190611611565b60405180910390f35b34801561016f575f80fd5b5061018a60048036038101906101859190611756565b610565565b005b348015610197575f80fd5b506101b260048036038101906101ad9190611361565b6106e0565b6040516101bf9190611a14565b60405180910390f35b3480156101d3575f80fd5b506101dc610aaf565b6040516101e99190611a34565b60405180910390f35b3480156101fd575f80fd5b5061021860048036038101906102139190611b3b565b610ab5565b005b348015610225575f80fd5b50610240600480360381019061023b9190611c06565b610d71565b60405161024d9190611a34565b60405180910390f35b610270600480360381019061026b9190611361565b610d91565b005b34801561027d575f80fd5b50610286611007565b6040516102939190611c75565b60405180910390f35b3480156102a7575f80fd5b506102c260048036038101906102bd9190611c8e565b61102a565b005b606060035f8381526020019081526020015f205f9054906101000a900460ff16610323576040517f08c379a000000000000000000000000000000000000000000000000000000000815260040161031a90611d28565b60405180910390fd5b60015f8381526020019081526020015f206007018054806020026020016040519081016040528092919081815260200182805480156103b457602002820191905f5260205f20905b815f9054906101000a900473ffffffffffffffffffffffffffffffffffffffff1673ffffffffffffffffffffffffffffffffffffffff168152602001906001019080831161036b575b50505050509050919050565b6001602052805f5260405f205f91509050805f015f9054906101000a900473ffffffffffffffffffffffffffffffffffffffff169080600101805461040490611d73565b80601f016020809104026020016040519081016040528092919081815260200182805461043090611d73565b801561047b5780601f106104525761010080835404028352916020019161047b565b820191905f5260205f20905b81548152906001019060200180831161045e57829003601f168201915b50505050509080600201805461049090611d73565b80601f01602080910402602001604051908101604052809291908181526020018280546104bc90611d73565b80156105075780601f106104de57610100808354040283529160200191610507565b820191905f5260205f20905b8154815290600101906020018083116104ea57829003601f168201915b505050505090806003015490806004015490806005015490806008015f9054906101000a900473ffffffffffffffffffffffffffffffffffffffff16905087565b6003602052805f5260405f205f915054906101000a900460ff1681565b60035f8381526020019081526020015f205f9054906101000a900460ff166105c2576040517f08c379a00000000000000000000000000000000000000000000000000000000081526004016105b990611d28565b60405180910390fd5b5f8054906101000a900473ffffffffffffffffffffffffffffffffffffffff1673ffffffffffffffffffffffffffffffffffffffff166313c876a2336040518263ffffffff1660e01b815260040161061a9190611da3565b602060405180830381865afa158015610635573d5f803e3d5ffd5b505050506040513d601f19601f820116820180604052508101906106599190611de6565b610698576040517f08c379a000000000000000000000000000000000000000000000000000000000815260040161068f90611e81565b60405180910390fd5b60015f8381526020019081526020015f2060060181908060018154018082558091505060019003905f5260205f20015f9091909190915090816106db9190612033565b505050565b6106e861129d565b60035f8381526020019081526020015f205f9054906101000a900460ff16610745576040517f08c379a000000000000000000000000000000000000000000000000000000000815260040161073c90611d28565b60405180910390fd5b60015f8381526020019081526020015f20604051806101200160405290815f82015f9054906101000a900473ffffffffffffffffffffffffffffffffffffffff1673ffffffffffffffffffffffffffffffffffffffff1673ffffffffffffffffffffffffffffffffffffffff1681526020016001820180546107c690611d73565b80601f01602080910402602001604051908101604052809291908181526020018280546107f290611d73565b801561083d5780601f106108145761010080835404028352916020019161083d565b820191905f5260205f20905b81548152906001019060200180831161082057829003601f168201915b5050505050815260200160028201805461085690611d73565b80601f016020809104026020016040519081016040528092919081815260200182805461088290611d73565b80156108cd5780601f106108a4576101008083540402835291602001916108cd565b820191905f5260205f20905b8154815290600101906020018083116108b057829003601f168201915b5050505050815260200160038201548152602001600482015481526020016005820154815260200160068201805480602002602001604051908101604052809291908181526020015f905b828210156109c0578382905f5260205f2001805461093590611d73565b80601f016020809104026020016040519081016040528092919081815260200182805461096190611d73565b80156109ac5780601f10610983576101008083540402835291602001916109ac565b820191905f5260205f20905b81548152906001019060200180831161098f57829003601f168201915b505050505081526020019060010190610918565b50505050815260200160078201805480602002602001604051908101604052809291908181526020018280548015610a4a57602002820191905f5260205f20905b815f9054906101000a900473ffffffffffffffffffffffffffffffffffffffff1673ffffffffffffffffffffffffffffffffffffffff1681526020019060010190808311610a01575b50505050508152602001600882015f9054906101000a900473ffffffffffffffffffffffffffffffffffffffff1673ffffffffffffffffffffffffffffffffffffffff1673ffffffffffffffffffffffffffffffffffffffff16815250509050919050565b60045481565b5f8054906101000a900473ffffffffffffffffffffffffffffffffffffffff1673ffffffffffffffffffffffffffffffffffffffff166313c876a2336040518263ffffffff1660e01b8152600401610b0d9190611da3565b602060405180830381865afa158015610b28573d5f803e3d5ffd5b505050506040513d601f19601f82011682018060405250810190610b4c9190611de6565b610b8b576040517f08c379a0000000000000000000000000000000000000000000000000000000008152600401610b829061214c565b60405180910390fd5b5f825111610bce576040517f08c379a0000000000000000000000000000000000000000000000000000000008152600401610bc5906121b4565b60405180910390fd5b5f81118015610bde575081518111155b610c1d576040517f08c379a0000000000000000000000000000000000000000000000000000000008152600401610c149061221c565b60405180910390fd5b60045f815480929190610c2f90612267565b91905055505f60015f60045481526020019081526020015f20905085816001019081610c5b9190612033565b5084816002019081610c6d9190612033565b508381600301819055505f81600401819055505f816005018190555033815f015f6101000a81548173ffffffffffffffffffffffffffffffffffffffff021916908373ffffffffffffffffffffffffffffffffffffffff1602179055508282604051610cd890611310565b610ce39291906122ae565b604051809103905ff080158015610cfc573d5f803e3d5ffd5b50816008015f6101000a81548173ffffffffffffffffffffffffffffffffffffffff021916908373ffffffffffffffffffffffffffffffffffffffff160217905550600160035f60045481526020019081526020015f205f6101000a81548160ff021916908315150217905550505050505050565b6002602052815f5260405f20602052805f5260405f205f91509150505481565b60035f8281526020019081526020015f205f9054906101000a900460ff16610dee576040517f08c379a0000000000000000000000000000000000000000000000000000000008152600401610de590611d28565b60405180910390fd5b5f8054906101000a900473ffffffffffffffffffffffffffffffffffffffff1673ffffffffffffffffffffffffffffffffffffffff1663abaf78d4336040518263ffffffff1660e01b8152600401610e469190611da3565b602060405180830381865afa158015610e61573d5f803e3d5ffd5b505050506040513d601f19601f82011682018060405250810190610e859190611de6565b610ec4576040517f08c379a0000000000000000000000000000000000000000000000000000000008152600401610ebb90612326565b60405180910390fd5b5f3411610f06576040517f08c379a0000000000000000000000000000000000000000000000000000000008152600401610efd9061238e565b60405180910390fd5b3460025f8381526020019081526020015f205f3373ffffffffffffffffffffffffffffffffffffffff1673ffffffffffffffffffffffffffffffffffffffff1681526020019081526020015f205f828254610f6191906123ac565b925050819055503460015f8381526020019081526020015f206004015f828254610f8b91906123ac565b9250508190555060015f8281526020019081526020015f2060070133908060018154018082558091505060019003905f5260205f20015f9091909190916101000a81548173ffffffffffffffffffffffffffffffffffffffff021916908373ffffffffffffffffffffffffffffffffffffffff16021790555050565b5f8054906101000a900473ffffffffffffffffffffffffffffffffffffffff1681565b60035f8481526020019081526020015f205f9054906101000a900460ff16611087576040517f08c379a000000000000000000000000000000000000000000000000000000000815260040161107e90611d28565b60405180910390fd5b5f8054906101000a900473ffffffffffffffffffffffffffffffffffffffff1673ffffffffffffffffffffffffffffffffffffffff166313c876a2336040518263ffffffff1660e01b81526004016110df9190611da3565b602060405180830381865afa1580156110fa573d5f803e3d5ffd5b505050506040513d601f19601f8201168201806040525081019061111e9190611de6565b61115d576040517f08c379a000000000000000000000000000000000000000000000000000000000815260040161115490612429565b60405180910390fd5b60015f8481526020019081526020015f206005015460015f8581526020019081526020015f20600401546111919190612447565b8111156111d3576040517f08c379a00000000000000000000000000000000000000000000000000000000081526004016111ca906124c4565b60405180910390fd5b8060015f8581526020019081526020015f206005015f8282546111f691906123ac565b9250508190555060015f8481526020019081526020015f206008015f9054906101000a900473ffffffffffffffffffffffffffffffffffffffff1673ffffffffffffffffffffffffffffffffffffffff16631e7f8f0f83836040518363ffffffff1660e01b815260040161126b9291906124e2565b5f604051808303815f87803b158015611282575f80fd5b505af1158015611294573d5f803e3d5ffd5b50505050505050565b6040518061012001604052805f73ffffffffffffffffffffffffffffffffffffffff16815260200160608152602001606081526020015f81526020015f81526020015f815260200160608152602001606081526020015f73ffffffffffffffffffffffffffffffffffffffff1681525090565b6112058061250a83390190565b5f604051905090565b5f80fd5b5f80fd5b5f819050919050565b6113408161132e565b811461134a575f80fd5b50565b5f8135905061135b81611337565b92915050565b5f6020828403121561137657611375611326565b5b5f6113838482850161134d565b91505092915050565b5f81519050919050565b5f82825260208201905092915050565b5f819050602082019050919050565b5f73ffffffffffffffffffffffffffffffffffffffff82169050919050565b5f6113de826113b5565b9050919050565b6113ee816113d4565b82525050565b5f6113ff83836113e5565b60208301905092915050565b5f602082019050919050565b5f6114218261138c565b61142b8185611396565b9350611436836113a6565b805f5b8381101561146657815161144d88826113f4565b97506114588361140b565b925050600181019050611439565b5085935050505092915050565b5f6020820190508181035f83015261148b8184611417565b905092915050565b61149c816113d4565b82525050565b5f81519050919050565b5f82825260208201905092915050565b8281835e5f83830152505050565b5f601f19601f8301169050919050565b5f6114e4826114a2565b6114ee81856114ac565b93506114fe8185602086016114bc565b611507816114ca565b840191505092915050565b61151b8161132e565b82525050565b5f819050919050565b5f61154461153f61153a846113b5565b611521565b6113b5565b9050919050565b5f6115558261152a565b9050919050565b5f6115668261154b565b9050919050565b6115768161155c565b82525050565b5f60e08201905061158f5f83018a611493565b81810360208301526115a181896114da565b905081810360408301526115b581886114da565b90506115c46060830187611512565b6115d16080830186611512565b6115de60a0830185611512565b6115eb60c083018461156d565b98975050505050505050565b5f8115159050919050565b61160b816115f7565b82525050565b5f6020820190506116245f830184611602565b92915050565b5f80fd5b5f80fd5b7f4e487b71000000000000000000000000000000000000000000000000000000005f52604160045260245ffd5b611668826114ca565b810181811067ffffffffffffffff8211171561168757611686611632565b5b80604052505050565b5f61169961131d565b90506116a5828261165f565b919050565b5f67ffffffffffffffff8211156116c4576116c3611632565b5b6116cd826114ca565b9050602081019050919050565b828183375f83830152505050565b5f6116fa6116f5846116aa565b611690565b9050828152602081018484840111156117165761171561162e565b5b6117218482856116da565b509392505050565b5f82601f83011261173d5761173c61162a565b5b813561174d8482602086016116e8565b91505092915050565b5f806040838503121561176c5761176b611326565b5b5f6117798582860161134d565b925050602083013567ffffffffffffffff81111561179a5761179961132a565b5b6117a685828601611729565b9150509250929050565b5f82825260208201905092915050565b5f6117ca826114a2565b6117d481856117b0565b93506117e48185602086016114bc565b6117ed816114ca565b840191505092915050565b6118018161132e565b82525050565b5f81519050919050565b5f82825260208201905092915050565b5f819050602082019050919050565b5f61183b83836117c0565b905092915050565b5f602082019050919050565b5f61185982611807565b6118638185611811565b93508360208202850161187585611821565b805f5b858110156118b057848403895281516118918582611830565b945061189c83611843565b925060208a01995050600181019050611878565b50829750879550505050505092915050565b5f82825260208201905092915050565b5f6118dc8261138c565b6118e681856118c2565b93506118f1836113a6565b805f5b8381101561192157815161190888826113f4565b97506119138361140b565b9250506001810190506118f4565b5085935050505092915050565b6119378161155c565b82525050565b5f61012083015f8301516119535f8601826113e5565b506020830151848203602086015261196b82826117c0565b9150506040830151848203604086015261198582826117c0565b915050606083015161199a60608601826117f8565b5060808301516119ad60808601826117f8565b5060a08301516119c060a08601826117f8565b5060c083015184820360c08601526119d8828261184f565b91505060e083015184820360e08601526119f282826118d2565b915050610100830151611a0961010086018261192e565b508091505092915050565b5f6020820190508181035f830152611a2c818461193d565b905092915050565b5f602082019050611a475f830184611512565b92915050565b5f67ffffffffffffffff821115611a6757611a66611632565b5b602082029050602081019050919050565b5f80fd5b611a85816113d4565b8114611a8f575f80fd5b50565b5f81359050611aa081611a7c565b92915050565b5f611ab8611ab384611a4d565b611690565b90508083825260208201905060208402830185811115611adb57611ada611a78565b5b835b81811015611b045780611af08882611a92565b845260208401935050602081019050611add565b5050509392505050565b5f82601f830112611b2257611b2161162a565b5b8135611b32848260208601611aa6565b91505092915050565b5f805f805f60a08688031215611b5457611b53611326565b5b5f86013567ffffffffffffffff811115611b7157611b7061132a565b5b611b7d88828901611729565b955050602086013567ffffffffffffffff811115611b9e57611b9d61132a565b5b611baa88828901611729565b9450506040611bbb8882890161134d565b935050606086013567ffffffffffffffff811115611bdc57611bdb61132a565b5b611be888828901611b0e565b9250506080611bf98882890161134d565b9150509295509295909350565b5f8060408385031215611c1c57611c1b611326565b5b5f611c298582860161134d565b9250506020611c3a85828601611a92565b9150509250929050565b5f611c4e8261152a565b9050919050565b5f611c5f82611c44565b9050919050565b611c6f81611c55565b82525050565b5f602082019050611c885f830184611c66565b92915050565b5f805f60608486031215611ca557611ca4611326565b5b5f611cb28682870161134d565b9350506020611cc386828701611a92565b9250506040611cd48682870161134d565b9150509250925092565b7f43616d706169676e20646f6573206e6f742065786973740000000000000000005f82015250565b5f611d126017836114ac565b9150611d1d82611cde565b602082019050919050565b5f6020820190508181035f830152611d3f81611d06565b9050919050565b7f4e487b71000000000000000000000000000000000000000000000000000000005f52602260045260245ffd5b5f6002820490506001821680611d8a57607f821691505b602082108103611d9d57611d9c611d46565b5b50919050565b5f602082019050611db65f830184611493565b92915050565b611dc5816115f7565b8114611dcf575f80fd5b50565b5f81519050611de081611dbc565b92915050565b5f60208284031215611dfb57611dfa611326565b5b5f611e0884828501611dd2565b91505092915050565b7f4f6e6c792070726f66696c65206f776e65722063616e20706f7374207574696c5f8201527f697a6174696f6e206465736372697074696f6e00000000000000000000000000602082015250565b5f611e6b6033836114ac565b9150611e7682611e11565b604082019050919050565b5f6020820190508181035f830152611e9881611e5f565b9050919050565b5f819050815f5260205f209050919050565b5f6020601f8301049050919050565b5f82821b905092915050565b5f60088302611efb7fffffffffffffffffffffffffffffffffffffffffffffffffffffffffffffffff82611ec0565b611f058683611ec0565b95508019841693508086168417925050509392505050565b5f611f37611f32611f2d8461132e565b611521565b61132e565b9050919050565b5f819050919050565b611f5083611f1d565b611f64611f5c82611f3e565b848454611ecc565b825550505050565b5f90565b611f78611f6c565b611f83818484611f47565b505050565b5b81811015611fa657611f9b5f82611f70565b600181019050611f89565b5050565b601f821115611feb57611fbc81611e9f565b611fc584611eb1565b81016020851015611fd4578190505b611fe8611fe085611eb1565b830182611f88565b50505b505050565b5f82821c905092915050565b5f61200b5f1984600802611ff0565b1980831691505092915050565b5f6120238383611ffc565b9150826002028217905092915050565b61203c826114a2565b67ffffffffffffffff81111561205557612054611632565b5b61205f8254611d73565b61206a828285611faa565b5f60209050601f83116001811461209b575f8415612089578287015190505b6120938582612018565b8655506120fa565b601f1984166120a986611e9f565b5f5b828110156120d0578489015182556001820191506020850194506020810190506120ab565b868310156120ed57848901516120e9601f891682611ffc565b8355505b6001600288020188555050505b505050505050565b7f4e6f74207468652070726f66696c65206f776e657200000000000000000000005f82015250565b5f6121366015836114ac565b915061214182612102565b602082019050919050565b5f6020820190508181035f8301526121638161212a565b9050919050565b7f4174206c65617374206f6e65207369676e6572207265717569726564000000005f82015250565b5f61219e601c836114ac565b91506121a98261216a565b602082019050919050565b5f6020820190508181035f8301526121cb81612192565b9050919050565b7f496e76616c6964206e756d626572206f6620617070726f76616c7300000000005f82015250565b5f612206601b836114ac565b9150612211826121d2565b602082019050919050565b5f6020820190508181035f830152612233816121fa565b9050919050565b7f4e487b71000000000000000000000000000000000000000000000000000000005f52601160045260245ffd5b5f6122718261132e565b91507fffffffffffffffffffffffffffffffffffffffffffffffffffffffffffffffff82036122a3576122a261223a565b5b600182019050919050565b5f6040820190508181035f8301526122c68185611417565b90506122d56020830184611512565b9392505050565b7f50726f66696c65206973206e6f742061637469766500000000000000000000005f82015250565b5f6123106015836114ac565b915061231b826122dc565b602082019050919050565b5f6020820190508181035f83015261233d81612304565b9050919050565b7f446f6e6174696f6e206d7573742062652067726561746572207468616e2030005f82015250565b5f612378601f836114ac565b915061238382612344565b602082019050919050565b5f6020820190508181035f8301526123a58161236c565b9050919050565b5f6123b68261132e565b91506123c18361132e565b92508282019050808211156123d9576123d861223a565b5b92915050565b7f4f6e6c792070726f66696c65206f776e65722063616e207769746864726177005f82015250565b5f612413601f836114ac565b915061241e826123df565b602082019050919050565b5f6020820190508181035f83015261244081612407565b9050919050565b5f6124518261132e565b915061245c8361132e565b92508282039050818111156124745761247361223a565b5b92915050565b7f496e73756666696369656e742066756e647300000000000000000000000000005f82015250565b5f6124ae6012836114ac565b91506124b98261247a565b602082019050919050565b5f6020820190508181035f8301526124db816124a2565b9050919050565b5f6040820190506124f55f830185611493565b6125026020830184611512565b939250505056fe608060405234801561000f575f80fd5b5060405161120538038061120583398181016040528101906100319190610486565b5f825111610074576040517f08c379a000000000000000000000000000000000000000000000000000000000815260040161006b9061053a565b60405180910390fd5b5f81118015610084575081518111155b6100c3576040517f08c379a00000000000000000000000000000000000000000000000000000000081526004016100ba906105a2565b60405180910390fd5b5f5b82518110156101d1575f73ffffffffffffffffffffffffffffffffffffffff168382815181106100f8576100f76105c0565b5b602002602001015173ffffffffffffffffffffffffffffffffffffffff1603610156576040517f08c379a000000000000000000000000000000000000000000000000000000000815260040161014d90610637565b60405180910390fd5b6001805f85848151811061016d5761016c6105c0565b5b602002602001015173ffffffffffffffffffffffffffffffffffffffff1673ffffffffffffffffffffffffffffffffffffffff1681526020019081526020015f205f6101000a81548160ff02191690831515021790555080806001019150506100c5565b50815f90805190602001906101e79291906101f6565b50806002819055505050610655565b828054828255905f5260205f2090810192821561026c579160200282015b8281111561026b578251825f6101000a81548173ffffffffffffffffffffffffffffffffffffffff021916908373ffffffffffffffffffffffffffffffffffffffff16021790555091602001919060010190610214565b5b509050610279919061027d565b5090565b5b80821115610294575f815f90555060010161027e565b5090565b5f604051905090565b5f80fd5b5f80fd5b5f80fd5b5f601f19601f8301169050919050565b7f4e487b71000000000000000000000000000000000000000000000000000000005f52604160045260245ffd5b6102f3826102ad565b810181811067ffffffffffffffff82111715610312576103116102bd565b5b80604052505050565b5f610324610298565b905061033082826102ea565b919050565b5f67ffffffffffffffff82111561034f5761034e6102bd565b5b602082029050602081019050919050565b5f80fd5b5f73ffffffffffffffffffffffffffffffffffffffff82169050919050565b5f61038d82610364565b9050919050565b61039d81610383565b81146103a7575f80fd5b50565b5f815190506103b881610394565b92915050565b5f6103d06103cb84610335565b61031b565b905080838252602082019050602084028301858111156103f3576103f2610360565b5b835b8181101561041c578061040888826103aa565b8452602084019350506020810190506103f5565b5050509392505050565b5f82601f83011261043a576104396102a9565b5b815161044a8482602086016103be565b91505092915050565b5f819050919050565b61046581610453565b811461046f575f80fd5b50565b5f815190506104808161045c565b92915050565b5f806040838503121561049c5761049b6102a1565b5b5f83015167ffffffffffffffff8111156104b9576104b86102a5565b5b6104c585828601610426565b92505060206104d685828601610472565b9150509250929050565b5f82825260208201905092915050565b7f4174206c65617374206f6e65207369676e6572207265717569726564000000005f82015250565b5f610524601c836104e0565b915061052f826104f0565b602082019050919050565b5f6020820190508181035f83015261055181610518565b9050919050565b7f496e76616c6964206e756d626572206f6620617070726f76616c7300000000005f82015250565b5f61058c601b836104e0565b915061059782610558565b602082019050919050565b5f6020820190508181035f8301526105b981610580565b9050919050565b7f4e487b71000000000000000000000000000000000000000000000000000000005f52603260045260245ffd5b7f496e76616c6964207369676e65720000000000000000000000000000000000005f82015250565b5f610621600e836104e0565b915061062c826105ed565b602082019050919050565b5f6020820190508181035f83015261064e81610615565b9050919050565b610ba3806106625f395ff3fe608060405260043610610058575f3560e01c80631e7f8f0f146100635780632079fb9a1461008b578063242232d1146100c75780637df73e27146100ef57806399c1aadc1461012b5780639ace38c2146101555761005f565b3661005f57005b5f80fd5b34801561006e575f80fd5b506100896004803603810190610084919061078f565b610194565b005b348015610096575f80fd5b506100b160048036038101906100ac91906107cd565b6102e0565b6040516100be9190610807565b60405180910390f35b3480156100d2575f80fd5b506100ed60048036038101906100e891906107cd565b61031a565b005b3480156100fa575f80fd5b5061011560048036038101906101109190610820565b61052e565b6040516101229190610865565b60405180910390f35b348015610136575f80fd5b5061013f61054b565b60405161014c919061088d565b60405180910390f35b348015610160575f80fd5b5061017b600480360381019061017691906107cd565b610551565b60405161018b94939291906108a6565b60405180910390f35b60015f3373ffffffffffffffffffffffffffffffffffffffff1673ffffffffffffffffffffffffffffffffffffffff1681526020019081526020015f205f9054906101000a900460ff1661021d576040517f08c379a000000000000000000000000000000000000000000000000000000000815260040161021490610943565b60405180910390fd5b600360018160018154018082558091505003905f5260205f209050505f6003600160038054905061024e919061098e565b8154811061025f5761025e6109c1565b5b905f5260205f209060050201905082815f015f6101000a81548173ffffffffffffffffffffffffffffffffffffffff021916908373ffffffffffffffffffffffffffffffffffffffff1602179055508181600101819055505f816002015f6101000a81548160ff0219169083151502179055505f8160030181905550505050565b5f81815481106102ee575f80fd5b905f5260205f20015f915054906101000a900473ffffffffffffffffffffffffffffffffffffffff1681565b60015f3373ffffffffffffffffffffffffffffffffffffffff1673ffffffffffffffffffffffffffffffffffffffff1681526020019081526020015f205f9054906101000a900460ff166103a3576040517f08c379a000000000000000000000000000000000000000000000000000000000815260040161039a90610943565b60405180910390fd5b5f600382815481106103b8576103b76109c1565b5b905f5260205f2090600502019050806004015f3373ffffffffffffffffffffffffffffffffffffffff1673ffffffffffffffffffffffffffffffffffffffff1681526020019081526020015f205f9054906101000a900460ff1615610452576040517f08c379a000000000000000000000000000000000000000000000000000000000815260040161044990610a38565b60405180910390fd5b806002015f9054906101000a900460ff16156104a3576040517f08c379a000000000000000000000000000000000000000000000000000000000815260040161049a90610aa0565b60405180910390fd5b6001816004015f3373ffffffffffffffffffffffffffffffffffffffff1673ffffffffffffffffffffffffffffffffffffffff1681526020019081526020015f205f6101000a81548160ff021916908315150217905550806003015f81548092919061050e90610abe565b919050555060025481600301541061052a57610529826105b7565b5b5050565b6001602052805f5260405f205f915054906101000a900460ff1681565b60025481565b60038181548110610560575f80fd5b905f5260205f2090600502015f91509050805f015f9054906101000a900473ffffffffffffffffffffffffffffffffffffffff1690806001015490806002015f9054906101000a900460ff16908060030154905084565b5f600382815481106105cc576105cb6109c1565b5b905f5260205f209060050201905060025481600301541015610623576040517f08c379a000000000000000000000000000000000000000000000000000000000815260040161061a90610b4f565b60405180910390fd5b806002015f9054906101000a900460ff1615610674576040517f08c379a000000000000000000000000000000000000000000000000000000000815260040161066b90610aa0565b60405180910390fd5b6001816002015f6101000a81548160ff021916908315150217905550805f015f9054906101000a900473ffffffffffffffffffffffffffffffffffffffff1673ffffffffffffffffffffffffffffffffffffffff166108fc826001015490811502906040515f60405180830381858888f193505050501580156106f9573d5f803e3d5ffd5b505050565b5f80fd5b5f73ffffffffffffffffffffffffffffffffffffffff82169050919050565b5f61072b82610702565b9050919050565b61073b81610721565b8114610745575f80fd5b50565b5f8135905061075681610732565b92915050565b5f819050919050565b61076e8161075c565b8114610778575f80fd5b50565b5f8135905061078981610765565b92915050565b5f80604083850312156107a5576107a46106fe565b5b5f6107b285828601610748565b92505060206107c38582860161077b565b9150509250929050565b5f602082840312156107e2576107e16106fe565b5b5f6107ef8482850161077b565b91505092915050565b61080181610721565b82525050565b5f60208201905061081a5f8301846107f8565b92915050565b5f60208284031215610835576108346106fe565b5b5f61084284828501610748565b91505092915050565b5f8115159050919050565b61085f8161084b565b82525050565b5f6020820190506108785f830184610856565b92915050565b6108878161075c565b82525050565b5f6020820190506108a05f83018461087e565b92915050565b5f6080820190506108b95f8301876107f8565b6108c6602083018661087e565b6108d36040830185610856565b6108e0606083018461087e565b95945050505050565b5f82825260208201905092915050565b7f4e6f742061207369676e657200000000000000000000000000000000000000005f82015250565b5f61092d600c836108e9565b9150610938826108f9565b602082019050919050565b5f6020820190508181035f83015261095a81610921565b9050919050565b7f4e487b71000000000000000000000000000000000000000000000000000000005f52601160045260245ffd5b5f6109988261075c565b91506109a38361075c565b92508282039050818111156109bb576109ba610961565b5b92915050565b7f4e487b71000000000000000000000000000000000000000000000000000000005f52603260045260245ffd5b7f5472616e73616374696f6e20616c726561647920617070726f766564000000005f82015250565b5f610a22601c836108e9565b9150610a2d826109ee565b602082019050919050565b5f6020820190508181035f830152610a4f81610a16565b9050919050565b7f5472616e73616374696f6e20616c7265616479206578656375746564000000005f82015250565b5f610a8a601c836108e9565b9150610a9582610a56565b602082019050919050565b5f6020820190508181035f830152610ab781610a7e565b9050919050565b5f610ac88261075c565b91507fffffffffffffffffffffffffffffffffffffffffffffffffffffffffffffffff8203610afa57610af9610961565b5b600182019050919050565b7f4e6f7420656e6f75676820617070726f76616c730000000000000000000000005f82015250565b5f610b396014836108e9565b9150610b4482610b05565b602082019050919050565b5f6020820190508181035f830152610b6681610b2d565b905091905056fea2646970667358221220588ff38e592b356e332404f3f2f9ee7eec44605e8724be9b0f1ce04a3c1cc2fa64736f6c634300081a0033a26469706673582212207f959082f0fb67ca42938b09698c5f480fcd9d362afce35ac916c870616f8ca764736f6c634300081a0033",
			"opcodes": "PUSH1 0x80 PUSH1 0x40 MSTORE PUSH0 PUSH1 0x4 SSTORE CALLVALUE DUP1 ISZERO PUSH2 0x13 JUMPI PUSH0 DUP1 REVERT JUMPDEST POP PUSH1 0x40 MLOAD PUSH2 0x3854 CODESIZE SUB DUP1 PUSH2 0x3854 DUP4 CODECOPY DUP2 DUP2 ADD PUSH1 0x40 MSTORE DUP2 ADD SWAP1 PUSH2 0x35 SWAP2 SWAP1 PUSH2 0xD8 JUMP JUMPDEST DUP1 PUSH0 DUP1 PUSH2 0x100 EXP DUP2 SLOAD DUP2 PUSH20 0xFFFFFFFFFFFFFFFFFFFFFFFFFFFFFFFFFFFFFFFF MUL NOT AND SWAP1 DUP4 PUSH20 0xFFFFFFFFFFFFFFFFFFFFFFFFFFFFFFFFFFFFFFFF AND MUL OR SWAP1 SSTORE POP POP PUSH2 0x103 JUMP JUMPDEST PUSH0 DUP1 REVERT JUMPDEST PUSH0 PUSH20 0xFFFFFFFFFFFFFFFFFFFFFFFFFFFFFFFFFFFFFFFF DUP3 AND SWAP1 POP SWAP2 SWAP1 POP JUMP JUMPDEST PUSH0 PUSH2 0xA7 DUP3 PUSH2 0x7E JUMP JUMPDEST SWAP1 POP SWAP2 SWAP1 POP JUMP JUMPDEST PUSH2 0xB7 DUP2 PUSH2 0x9D JUMP JUMPDEST DUP2 EQ PUSH2 0xC1 JUMPI PUSH0 DUP1 REVERT JUMPDEST POP JUMP JUMPDEST PUSH0 DUP2 MLOAD SWAP1 POP PUSH2 0xD2 DUP2 PUSH2 0xAE JUMP JUMPDEST SWAP3 SWAP2 POP POP JUMP JUMPDEST PUSH0 PUSH1 0x20 DUP3 DUP5 SUB SLT ISZERO PUSH2 0xED JUMPI PUSH2 0xEC PUSH2 0x7A JUMP JUMPDEST JUMPDEST PUSH0 PUSH2 0xFA DUP5 DUP3 DUP6 ADD PUSH2 0xC4 JUMP JUMPDEST SWAP2 POP POP SWAP3 SWAP2 POP POP JUMP JUMPDEST PUSH2 0x3744 DUP1 PUSH2 0x110 PUSH0 CODECOPY PUSH0 RETURN INVALID PUSH1 0x80 PUSH1 0x40 MSTORE PUSH1 0x4 CALLDATASIZE LT PUSH2 0x9F JUMPI PUSH0 CALLDATALOAD PUSH1 0xE0 SHR DUP1 PUSH4 0x7274E30D GT PUSH2 0x63 JUMPI DUP1 PUSH4 0x7274E30D EQ PUSH2 0x1C8 JUMPI DUP1 PUSH4 0xE2C341A2 EQ PUSH2 0x1F2 JUMPI DUP1 PUSH4 0xEE1554A3 EQ PUSH2 0x21A JUMPI DUP1 PUSH4 0xF14FAF6F EQ PUSH2 0x256 JUMPI DUP1 PUSH4 0xF3F5142E EQ PUSH2 0x272 JUMPI DUP1 PUSH4 0xF8F34CDE EQ PUSH2 0x29C JUMPI PUSH2 0xA6 JUMP JUMPDEST DUP1 PUSH4 0xFA91FA9 EQ PUSH2 0xAA JUMPI DUP1 PUSH4 0x141961BC EQ PUSH2 0xE6 JUMPI DUP1 PUSH4 0x3B594A68 EQ PUSH2 0x128 JUMPI DUP1 PUSH4 0x4A7DE20A EQ PUSH2 0x164 JUMPI DUP1 PUSH4 0x5598F8CC EQ PUSH2 0x18C JUMPI PUSH2 0xA6 JUMP JUMPDEST CALLDATASIZE PUSH2 0xA6 JUMPI STOP JUMPDEST PUSH0 DUP1 REVERT JUMPDEST CALLVALUE DUP1 ISZERO PUSH2 0xB5 JUMPI PUSH0 DUP1 REVERT JUMPDEST POP PUSH2 0xD0 PUSH1 0x4 DUP1 CALLDATASIZE SUB DUP2 ADD SWAP1 PUSH2 0xCB SWAP2 SWAP1 PUSH2 0x1361 JUMP JUMPDEST PUSH2 0x2C4 JUMP JUMPDEST PUSH1 0x40 MLOAD PUSH2 0xDD SWAP2 SWAP1 PUSH2 0x1473 JUMP JUMPDEST PUSH1 0x40 MLOAD DUP1 SWAP2 SUB SWAP1 RETURN JUMPDEST CALLVALUE DUP1 ISZERO PUSH2 0xF1 JUMPI PUSH0 DUP1 REVERT JUMPDEST POP PUSH2 0x10C PUSH1 0x4 DUP1 CALLDATASIZE SUB DUP2 ADD SWAP1 PUSH2 0x107 SWAP2 SWAP1 PUSH2 0x1361 JUMP JUMPDEST PUSH2 0x3C0 JUMP JUMPDEST PUSH1 0x40 MLOAD PUSH2 0x11F SWAP8 SWAP7 SWAP6 SWAP5 SWAP4 SWAP3 SWAP2 SWAP1 PUSH2 0x157C JUMP JUMPDEST PUSH1 0x40 MLOAD DUP1 SWAP2 SUB SWAP1 RETURN JUMPDEST CALLVALUE DUP1 ISZERO PUSH2 0x133 JUMPI PUSH0 DUP1 REVERT JUMPDEST POP PUSH2 0x14E PUSH1 0x4 DUP1 CALLDATASIZE SUB DUP2 ADD SWAP1 PUSH2 0x149 SWAP2 SWAP1 PUSH2 0x1361 JUMP JUMPDEST PUSH2 0x548 JUMP JUMPDEST PUSH1 0x40 MLOAD PUSH2 0x15B SWAP2 SWAP1 PUSH2 0x1611 JUMP JUMPDEST PUSH1 0x40 MLOAD DUP1 SWAP2 SUB SWAP1 RETURN JUMPDEST CALLVALUE DUP1 ISZERO PUSH2 0x16F JUMPI PUSH0 DUP1 REVERT JUMPDEST POP PUSH2 0x18A PUSH1 0x4 DUP1 CALLDATASIZE SUB DUP2 ADD SWAP1 PUSH2 0x185 SWAP2 SWAP1 PUSH2 0x1756 JUMP JUMPDEST PUSH2 0x565 JUMP JUMPDEST STOP JUMPDEST CALLVALUE DUP1 ISZERO PUSH2 0x197 JUMPI PUSH0 DUP1 REVERT JUMPDEST POP PUSH2 0x1B2 PUSH1 0x4 DUP1 CALLDATASIZE SUB DUP2 ADD SWAP1 PUSH2 0x1AD SWAP2 SWAP1 PUSH2 0x1361 JUMP JUMPDEST PUSH2 0x6E0 JUMP JUMPDEST PUSH1 0x40 MLOAD PUSH2 0x1BF SWAP2 SWAP1 PUSH2 0x1A14 JUMP JUMPDEST PUSH1 0x40 MLOAD DUP1 SWAP2 SUB SWAP1 RETURN JUMPDEST CALLVALUE DUP1 ISZERO PUSH2 0x1D3 JUMPI PUSH0 DUP1 REVERT JUMPDEST POP PUSH2 0x1DC PUSH2 0xAAF JUMP JUMPDEST PUSH1 0x40 MLOAD PUSH2 0x1E9 SWAP2 SWAP1 PUSH2 0x1A34 JUMP JUMPDEST PUSH1 0x40 MLOAD DUP1 SWAP2 SUB SWAP1 RETURN JUMPDEST CALLVALUE DUP1 ISZERO PUSH2 0x1FD JUMPI PUSH0 DUP1 REVERT JUMPDEST POP PUSH2 0x218 PUSH1 0x4 DUP1 CALLDATASIZE SUB DUP2 ADD SWAP1 PUSH2 0x213 SWAP2 SWAP1 PUSH2 0x1B3B JUMP JUMPDEST PUSH2 0xAB5 JUMP JUMPDEST STOP JUMPDEST CALLVALUE DUP1 ISZERO PUSH2 0x225 JUMPI PUSH0 DUP1 REVERT JUMPDEST POP PUSH2 0x240 PUSH1 0x4 DUP1 CALLDATASIZE SUB DUP2 ADD SWAP1 PUSH2 0x23B SWAP2 SWAP1 PUSH2 0x1C06 JUMP JUMPDEST PUSH2 0xD71 JUMP JUMPDEST PUSH1 0x40 MLOAD PUSH2 0x24D SWAP2 SWAP1 PUSH2 0x1A34 JUMP JUMPDEST PUSH1 0x40 MLOAD DUP1 SWAP2 SUB SWAP1 RETURN JUMPDEST PUSH2 0x270 PUSH1 0x4 DUP1 CALLDATASIZE SUB DUP2 ADD SWAP1 PUSH2 0x26B SWAP2 SWAP1 PUSH2 0x1361 JUMP JUMPDEST PUSH2 0xD91 JUMP JUMPDEST STOP JUMPDEST CALLVALUE DUP1 ISZERO PUSH2 0x27D JUMPI PUSH0 DUP1 REVERT JUMPDEST POP PUSH2 0x286 PUSH2 0x1007 JUMP JUMPDEST PUSH1 0x40 MLOAD PUSH2 0x293 SWAP2 SWAP1 PUSH2 0x1C75 JUMP JUMPDEST PUSH1 0x40 MLOAD DUP1 SWAP2 SUB SWAP1 RETURN JUMPDEST CALLVALUE DUP1 ISZERO PUSH2 0x2A7 JUMPI PUSH0 DUP1 REVERT JUMPDEST POP PUSH2 0x2C2 PUSH1 0x4 DUP1 CALLDATASIZE SUB DUP2 ADD SWAP1 PUSH2 0x2BD SWAP2 SWAP1 PUSH2 0x1C8E JUMP JUMPDEST PUSH2 0x102A JUMP JUMPDEST STOP JUMPDEST PUSH1 0x60 PUSH1 0x3 PUSH0 DUP4 DUP2 MSTORE PUSH1 0x20 ADD SWAP1 DUP2 MSTORE PUSH1 0x20 ADD PUSH0 KECCAK256 PUSH0 SWAP1 SLOAD SWAP1 PUSH2 0x100 EXP SWAP1 DIV PUSH1 0xFF AND PUSH2 0x323 JUMPI PUSH1 0x40 MLOAD PUSH32 0x8C379A000000000000000000000000000000000000000000000000000000000 DUP2 MSTORE PUSH1 0x4 ADD PUSH2 0x31A SWAP1 PUSH2 0x1D28 JUMP JUMPDEST PUSH1 0x40 MLOAD DUP1 SWAP2 SUB SWAP1 REVERT JUMPDEST PUSH1 0x1 PUSH0 DUP4 DUP2 MSTORE PUSH1 0x20 ADD SWAP1 DUP2 MSTORE PUSH1 0x20 ADD PUSH0 KECCAK256 PUSH1 0x7 ADD DUP1 SLOAD DUP1 PUSH1 0x20 MUL PUSH1 0x20 ADD PUSH1 0x40 MLOAD SWAP1 DUP2 ADD PUSH1 0x40 MSTORE DUP1 SWAP3 SWAP2 SWAP1 DUP2 DUP2 MSTORE PUSH1 0x20 ADD DUP3 DUP1 SLOAD DUP1 ISZERO PUSH2 0x3B4 JUMPI PUSH1 0x20 MUL DUP3 ADD SWAP2 SWAP1 PUSH0 MSTORE PUSH1 0x20 PUSH0 KECCAK256 SWAP1 JUMPDEST DUP2 PUSH0 SWAP1 SLOAD SWAP1 PUSH2 0x100 EXP SWAP1 DIV PUSH20 0xFFFFFFFFFFFFFFFFFFFFFFFFFFFFFFFFFFFFFFFF AND PUSH20 0xFFFFFFFFFFFFFFFFFFFFFFFFFFFFFFFFFFFFFFFF AND DUP2 MSTORE PUSH1 0x20 ADD SWAP1 PUSH1 0x1 ADD SWAP1 DUP1 DUP4 GT PUSH2 0x36B JUMPI JUMPDEST POP POP POP POP POP SWAP1 POP SWAP2 SWAP1 POP JUMP JUMPDEST PUSH1 0x1 PUSH1 0x20 MSTORE DUP1 PUSH0 MSTORE PUSH1 0x40 PUSH0 KECCAK256 PUSH0 SWAP2 POP SWAP1 POP DUP1 PUSH0 ADD PUSH0 SWAP1 SLOAD SWAP1 PUSH2 0x100 EXP SWAP1 DIV PUSH20 0xFFFFFFFFFFFFFFFFFFFFFFFFFFFFFFFFFFFFFFFF AND SWAP1 DUP1 PUSH1 0x1 ADD DUP1 SLOAD PUSH2 0x404 SWAP1 PUSH2 0x1D73 JUMP JUMPDEST DUP1 PUSH1 0x1F ADD PUSH1 0x20 DUP1 SWAP2 DIV MUL PUSH1 0x20 ADD PUSH1 0x40 MLOAD SWAP1 DUP2 ADD PUSH1 0x40 MSTORE DUP1 SWAP3 SWAP2 SWAP1 DUP2 DUP2 MSTORE PUSH1 0x20 ADD DUP3 DUP1 SLOAD PUSH2 0x430 SWAP1 PUSH2 0x1D73 JUMP JUMPDEST DUP1 ISZERO PUSH2 0x47B JUMPI DUP1 PUSH1 0x1F LT PUSH2 0x452 JUMPI PUSH2 0x100 DUP1 DUP4 SLOAD DIV MUL DUP4 MSTORE SWAP2 PUSH1 0x20 ADD SWAP2 PUSH2 0x47B JUMP JUMPDEST DUP3 ADD SWAP2 SWAP1 PUSH0 MSTORE PUSH1 0x20 PUSH0 KECCAK256 SWAP1 JUMPDEST DUP2 SLOAD DUP2 MSTORE SWAP1 PUSH1 0x1 ADD SWAP1 PUSH1 0x20 ADD DUP1 DUP4 GT PUSH2 0x45E JUMPI DUP3 SWAP1 SUB PUSH1 0x1F AND DUP3 ADD SWAP2 JUMPDEST POP POP POP POP POP SWAP1 DUP1 PUSH1 0x2 ADD DUP1 SLOAD PUSH2 0x490 SWAP1 PUSH2 0x1D73 JUMP JUMPDEST DUP1 PUSH1 0x1F ADD PUSH1 0x20 DUP1 SWAP2 DIV MUL PUSH1 0x20 ADD PUSH1 0x40 MLOAD SWAP1 DUP2 ADD PUSH1 0x40 MSTORE DUP1 SWAP3 SWAP2 SWAP1 DUP2 DUP2 MSTORE PUSH1 0x20 ADD DUP3 DUP1 SLOAD PUSH2 0x4BC SWAP1 PUSH2 0x1D73 JUMP JUMPDEST DUP1 ISZERO PUSH2 0x507 JUMPI DUP1 PUSH1 0x1F LT PUSH2 0x4DE JUMPI PUSH2 0x100 DUP1 DUP4 SLOAD DIV MUL DUP4 MSTORE SWAP2 PUSH1 0x20 ADD SWAP2 PUSH2 0x507 JUMP JUMPDEST DUP3 ADD SWAP2 SWAP1 PUSH0 MSTORE PUSH1 0x20 PUSH0 KECCAK256 SWAP1 JUMPDEST DUP2 SLOAD DUP2 MSTORE SWAP1 PUSH1 0x1 ADD SWAP1 PUSH1 0x20 ADD DUP1 DUP4 GT PUSH2 0x4EA JUMPI DUP3 SWAP1 SUB PUSH1 0x1F AND DUP3 ADD SWAP2 JUMPDEST POP POP POP POP POP SWAP1 DUP1 PUSH1 0x3 ADD SLOAD SWAP1 DUP1 PUSH1 0x4 ADD SLOAD SWAP1 DUP1 PUSH1 0x5 ADD SLOAD SWAP1 DUP1 PUSH1 0x8 ADD PUSH0 SWAP1 SLOAD SWAP1 PUSH2 0x100 EXP SWAP1 DIV PUSH20 0xFFFFFFFFFFFFFFFFFFFFFFFFFFFFFFFFFFFFFFFF AND SWAP1 POP DUP8 JUMP JUMPDEST PUSH1 0x3 PUSH1 0x20 MSTORE DUP1 PUSH0 MSTORE PUSH1 0x40 PUSH0 KECCAK256 PUSH0 SWAP2 POP SLOAD SWAP1 PUSH2 0x100 EXP SWAP1 DIV PUSH1 0xFF AND DUP2 JUMP JUMPDEST PUSH1 0x3 PUSH0 DUP4 DUP2 MSTORE PUSH1 0x20 ADD SWAP1 DUP2 MSTORE PUSH1 0x20 ADD PUSH0 KECCAK256 PUSH0 SWAP1 SLOAD SWAP1 PUSH2 0x100 EXP SWAP1 DIV PUSH1 0xFF AND PUSH2 0x5C2 JUMPI PUSH1 0x40 MLOAD PUSH32 0x8C379A000000000000000000000000000000000000000000000000000000000 DUP2 MSTORE PUSH1 0x4 ADD PUSH2 0x5B9 SWAP1 PUSH2 0x1D28 JUMP JUMPDEST PUSH1 0x40 MLOAD DUP1 SWAP2 SUB SWAP1 REVERT JUMPDEST PUSH0 DUP1 SLOAD SWAP1 PUSH2 0x100 EXP SWAP1 DIV PUSH20 0xFFFFFFFFFFFFFFFFFFFFFFFFFFFFFFFFFFFFFFFF AND PUSH20 0xFFFFFFFFFFFFFFFFFFFFFFFFFFFFFFFFFFFFFFFF AND PUSH4 0x13C876A2 CALLER PUSH1 0x40 MLOAD DUP3 PUSH4 0xFFFFFFFF AND PUSH1 0xE0 SHL DUP2 MSTORE PUSH1 0x4 ADD PUSH2 0x61A SWAP2 SWAP1 PUSH2 0x1DA3 JUMP JUMPDEST PUSH1 0x20 PUSH1 0x40 MLOAD DUP1 DUP4 SUB DUP2 DUP7 GAS STATICCALL ISZERO DUP1 ISZERO PUSH2 0x635 JUMPI RETURNDATASIZE PUSH0 DUP1 RETURNDATACOPY RETURNDATASIZE PUSH0 REVERT JUMPDEST POP POP POP POP PUSH1 0x40 MLOAD RETURNDATASIZE PUSH1 0x1F NOT PUSH1 0x1F DUP3 ADD AND DUP3 ADD DUP1 PUSH1 0x40 MSTORE POP DUP2 ADD SWAP1 PUSH2 0x659 SWAP2 SWAP1 PUSH2 0x1DE6 JUMP JUMPDEST PUSH2 0x698 JUMPI PUSH1 0x40 MLOAD PUSH32 0x8C379A000000000000000000000000000000000000000000000000000000000 DUP2 MSTORE PUSH1 0x4 ADD PUSH2 0x68F SWAP1 PUSH2 0x1E81 JUMP JUMPDEST PUSH1 0x40 MLOAD DUP1 SWAP2 SUB SWAP1 REVERT JUMPDEST PUSH1 0x1 PUSH0 DUP4 DUP2 MSTORE PUSH1 0x20 ADD SWAP1 DUP2 MSTORE PUSH1 0x20 ADD PUSH0 KECCAK256 PUSH1 0x6 ADD DUP2 SWAP1 DUP1 PUSH1 0x1 DUP2 SLOAD ADD DUP1 DUP3 SSTORE DUP1 SWAP2 POP POP PUSH1 0x1 SWAP1 SUB SWAP1 PUSH0 MSTORE PUSH1 0x20 PUSH0 KECCAK256 ADD PUSH0 SWAP1 SWAP2 SWAP1 SWAP2 SWAP1 SWAP2 POP SWAP1 DUP2 PUSH2 0x6DB SWAP2 SWAP1 PUSH2 0x2033 JUMP JUMPDEST POP POP POP JUMP JUMPDEST PUSH2 0x6E8 PUSH2 0x129D JUMP JUMPDEST PUSH1 0x3 PUSH0 DUP4 DUP2 MSTORE PUSH1 0x20 ADD SWAP1 DUP2 MSTORE PUSH1 0x20 ADD PUSH0 KECCAK256 PUSH0 SWAP1 SLOAD SWAP1 PUSH2 0x100 EXP SWAP1 DIV PUSH1 0xFF AND PUSH2 0x745 JUMPI PUSH1 0x40 MLOAD PUSH32 0x8C379A000000000000000000000000000000000000000000000000000000000 DUP2 MSTORE PUSH1 0x4 ADD PUSH2 0x73C SWAP1 PUSH2 0x1D28 JUMP JUMPDEST PUSH1 0x40 MLOAD DUP1 SWAP2 SUB SWAP1 REVERT JUMPDEST PUSH1 0x1 PUSH0 DUP4 DUP2 MSTORE PUSH1 0x20 ADD SWAP1 DUP2 MSTORE PUSH1 0x20 ADD PUSH0 KECCAK256 PUSH1 0x40 MLOAD DUP1 PUSH2 0x120 ADD PUSH1 0x40 MSTORE SWAP1 DUP2 PUSH0 DUP3 ADD PUSH0 SWAP1 SLOAD SWAP1 PUSH2 0x100 EXP SWAP1 DIV PUSH20 0xFFFFFFFFFFFFFFFFFFFFFFFFFFFFFFFFFFFFFFFF AND PUSH20 0xFFFFFFFFFFFFFFFFFFFFFFFFFFFFFFFFFFFFFFFF AND PUSH20 0xFFFFFFFFFFFFFFFFFFFFFFFFFFFFFFFFFFFFFFFF AND DUP2 MSTORE PUSH1 0x20 ADD PUSH1 0x1 DUP3 ADD DUP1 SLOAD PUSH2 0x7C6 SWAP1 PUSH2 0x1D73 JUMP JUMPDEST DUP1 PUSH1 0x1F ADD PUSH1 0x20 DUP1 SWAP2 DIV MUL PUSH1 0x20 ADD PUSH1 0x40 MLOAD SWAP1 DUP2 ADD PUSH1 0x40 MSTORE DUP1 SWAP3 SWAP2 SWAP1 DUP2 DUP2 MSTORE PUSH1 0x20 ADD DUP3 DUP1 SLOAD PUSH2 0x7F2 SWAP1 PUSH2 0x1D73 JUMP JUMPDEST DUP1 ISZERO PUSH2 0x83D JUMPI DUP1 PUSH1 0x1F LT PUSH2 0x814 JUMPI PUSH2 0x100 DUP1 DUP4 SLOAD DIV MUL DUP4 MSTORE SWAP2 PUSH1 0x20 ADD SWAP2 PUSH2 0x83D JUMP JUMPDEST DUP3 ADD SWAP2 SWAP1 PUSH0 MSTORE PUSH1 0x20 PUSH0 KECCAK256 SWAP1 JUMPDEST DUP2 SLOAD DUP2 MSTORE SWAP1 PUSH1 0x1 ADD SWAP1 PUSH1 0x20 ADD DUP1 DUP4 GT PUSH2 0x820 JUMPI DUP3 SWAP1 SUB PUSH1 0x1F AND DUP3 ADD SWAP2 JUMPDEST POP POP POP POP POP DUP2 MSTORE PUSH1 0x20 ADD PUSH1 0x2 DUP3 ADD DUP1 SLOAD PUSH2 0x856 SWAP1 PUSH2 0x1D73 JUMP JUMPDEST DUP1 PUSH1 0x1F ADD PUSH1 0x20 DUP1 SWAP2 DIV MUL PUSH1 0x20 ADD PUSH1 0x40 MLOAD SWAP1 DUP2 ADD PUSH1 0x40 MSTORE DUP1 SWAP3 SWAP2 SWAP1 DUP2 DUP2 MSTORE PUSH1 0x20 ADD DUP3 DUP1 SLOAD PUSH2 0x882 SWAP1 PUSH2 0x1D73 JUMP JUMPDEST DUP1 ISZERO PUSH2 0x8CD JUMPI DUP1 PUSH1 0x1F LT PUSH2 0x8A4 JUMPI PUSH2 0x100 DUP1 DUP4 SLOAD DIV MUL DUP4 MSTORE SWAP2 PUSH1 0x20 ADD SWAP2 PUSH2 0x8CD JUMP JUMPDEST DUP3 ADD SWAP2 SWAP1 PUSH0 MSTORE PUSH1 0x20 PUSH0 KECCAK256 SWAP1 JUMPDEST DUP2 SLOAD DUP2 MSTORE SWAP1 PUSH1 0x1 ADD SWAP1 PUSH1 0x20 ADD DUP1 DUP4 GT PUSH2 0x8B0 JUMPI DUP3 SWAP1 SUB PUSH1 0x1F AND DUP3 ADD SWAP2 JUMPDEST POP POP POP POP POP DUP2 MSTORE PUSH1 0x20 ADD PUSH1 0x3 DUP3 ADD SLOAD DUP2 MSTORE PUSH1 0x20 ADD PUSH1 0x4 DUP3 ADD SLOAD DUP2 MSTORE PUSH1 0x20 ADD PUSH1 0x5 DUP3 ADD SLOAD DUP2 MSTORE PUSH1 0x20 ADD PUSH1 0x6 DUP3 ADD DUP1 SLOAD DUP1 PUSH1 0x20 MUL PUSH1 0x20 ADD PUSH1 0x40 MLOAD SWAP1 DUP2 ADD PUSH1 0x40 MSTORE DUP1 SWAP3 SWAP2 SWAP1 DUP2 DUP2 MSTORE PUSH1 0x20 ADD PUSH0 SWAP1 JUMPDEST DUP3 DUP3 LT ISZERO PUSH2 0x9C0 JUMPI DUP4 DUP3 SWAP1 PUSH0 MSTORE PUSH1 0x20 PUSH0 KECCAK256 ADD DUP1 SLOAD PUSH2 0x935 SWAP1 PUSH2 0x1D73 JUMP JUMPDEST DUP1 PUSH1 0x1F ADD PUSH1 0x20 DUP1 SWAP2 DIV MUL PUSH1 0x20 ADD PUSH1 0x40 MLOAD SWAP1 DUP2 ADD PUSH1 0x40 MSTORE DUP1 SWAP3 SWAP2 SWAP1 DUP2 DUP2 MSTORE PUSH1 0x20 ADD DUP3 DUP1 SLOAD PUSH2 0x961 SWAP1 PUSH2 0x1D73 JUMP JUMPDEST DUP1 ISZERO PUSH2 0x9AC JUMPI DUP1 PUSH1 0x1F LT PUSH2 0x983 JUMPI PUSH2 0x100 DUP1 DUP4 SLOAD DIV MUL DUP4 MSTORE SWAP2 PUSH1 0x20 ADD SWAP2 PUSH2 0x9AC JUMP JUMPDEST DUP3 ADD SWAP2 SWAP1 PUSH0 MSTORE PUSH1 0x20 PUSH0 KECCAK256 SWAP1 JUMPDEST DUP2 SLOAD DUP2 MSTORE SWAP1 PUSH1 0x1 ADD SWAP1 PUSH1 0x20 ADD DUP1 DUP4 GT PUSH2 0x98F JUMPI DUP3 SWAP1 SUB PUSH1 0x1F AND DUP3 ADD SWAP2 JUMPDEST POP POP POP POP POP DUP2 MSTORE PUSH1 0x20 ADD SWAP1 PUSH1 0x1 ADD SWAP1 PUSH2 0x918 JUMP JUMPDEST POP POP POP POP DUP2 MSTORE PUSH1 0x20 ADD PUSH1 0x7 DUP3 ADD DUP1 SLOAD DUP1 PUSH1 0x20 MUL PUSH1 0x20 ADD PUSH1 0x40 MLOAD SWAP1 DUP2 ADD PUSH1 0x40 MSTORE DUP1 SWAP3 SWAP2 SWAP1 DUP2 DUP2 MSTORE PUSH1 0x20 ADD DUP3 DUP1 SLOAD DUP1 ISZERO PUSH2 0xA4A JUMPI PUSH1 0x20 MUL DUP3 ADD SWAP2 SWAP1 PUSH0 MSTORE PUSH1 0x20 PUSH0 KECCAK256 SWAP1 JUMPDEST DUP2 PUSH0 SWAP1 SLOAD SWAP1 PUSH2 0x100 EXP SWAP1 DIV PUSH20 0xFFFFFFFFFFFFFFFFFFFFFFFFFFFFFFFFFFFFFFFF AND PUSH20 0xFFFFFFFFFFFFFFFFFFFFFFFFFFFFFFFFFFFFFFFF AND DUP2 MSTORE PUSH1 0x20 ADD SWAP1 PUSH1 0x1 ADD SWAP1 DUP1 DUP4 GT PUSH2 0xA01 JUMPI JUMPDEST POP POP POP POP POP DUP2 MSTORE PUSH1 0x20 ADD PUSH1 0x8 DUP3 ADD PUSH0 SWAP1 SLOAD SWAP1 PUSH2 0x100 EXP SWAP1 DIV PUSH20 0xFFFFFFFFFFFFFFFFFFFFFFFFFFFFFFFFFFFFFFFF AND PUSH20 0xFFFFFFFFFFFFFFFFFFFFFFFFFFFFFFFFFFFFFFFF AND PUSH20 0xFFFFFFFFFFFFFFFFFFFFFFFFFFFFFFFFFFFFFFFF AND DUP2 MSTORE POP POP SWAP1 POP SWAP2 SWAP1 POP JUMP JUMPDEST PUSH1 0x4 SLOAD DUP2 JUMP JUMPDEST PUSH0 DUP1 SLOAD SWAP1 PUSH2 0x100 EXP SWAP1 DIV PUSH20 0xFFFFFFFFFFFFFFFFFFFFFFFFFFFFFFFFFFFFFFFF AND PUSH20 0xFFFFFFFFFFFFFFFFFFFFFFFFFFFFFFFFFFFFFFFF AND PUSH4 0x13C876A2 CALLER PUSH1 0x40 MLOAD DUP3 PUSH4 0xFFFFFFFF AND PUSH1 0xE0 SHL DUP2 MSTORE PUSH1 0x4 ADD PUSH2 0xB0D SWAP2 SWAP1 PUSH2 0x1DA3 JUMP JUMPDEST PUSH1 0x20 PUSH1 0x40 MLOAD DUP1 DUP4 SUB DUP2 DUP7 GAS STATICCALL ISZERO DUP1 ISZERO PUSH2 0xB28 JUMPI RETURNDATASIZE PUSH0 DUP1 RETURNDATACOPY RETURNDATASIZE PUSH0 REVERT JUMPDEST POP POP POP POP PUSH1 0x40 MLOAD RETURNDATASIZE PUSH1 0x1F NOT PUSH1 0x1F DUP3 ADD AND DUP3 ADD DUP1 PUSH1 0x40 MSTORE POP DUP2 ADD SWAP1 PUSH2 0xB4C SWAP2 SWAP1 PUSH2 0x1DE6 JUMP JUMPDEST PUSH2 0xB8B JUMPI PUSH1 0x40 MLOAD PUSH32 0x8C379A000000000000000000000000000000000000000000000000000000000 DUP2 MSTORE PUSH1 0x4 ADD PUSH2 0xB82 SWAP1 PUSH2 0x214C JUMP JUMPDEST PUSH1 0x40 MLOAD DUP1 SWAP2 SUB SWAP1 REVERT JUMPDEST PUSH0 DUP3 MLOAD GT PUSH2 0xBCE JUMPI PUSH1 0x40 MLOAD PUSH32 0x8C379A000000000000000000000000000000000000000000000000000000000 DUP2 MSTORE PUSH1 0x4 ADD PUSH2 0xBC5 SWAP1 PUSH2 0x21B4 JUMP JUMPDEST PUSH1 0x40 MLOAD DUP1 SWAP2 SUB SWAP1 REVERT JUMPDEST PUSH0 DUP2 GT DUP1 ISZERO PUSH2 0xBDE JUMPI POP DUP2 MLOAD DUP2 GT ISZERO JUMPDEST PUSH2 0xC1D JUMPI PUSH1 0x40 MLOAD PUSH32 0x8C379A000000000000000000000000000000000000000000000000000000000 DUP2 MSTORE PUSH1 0x4 ADD PUSH2 0xC14 SWAP1 PUSH2 0x221C JUMP JUMPDEST PUSH1 0x40 MLOAD DUP1 SWAP2 SUB SWAP1 REVERT JUMPDEST PUSH1 0x4 PUSH0 DUP2 SLOAD DUP1 SWAP3 SWAP2 SWAP1 PUSH2 0xC2F SWAP1 PUSH2 0x2267 JUMP JUMPDEST SWAP2 SWAP1 POP SSTORE POP PUSH0 PUSH1 0x1 PUSH0 PUSH1 0x4 SLOAD DUP2 MSTORE PUSH1 0x20 ADD SWAP1 DUP2 MSTORE PUSH1 0x20 ADD PUSH0 KECCAK256 SWAP1 POP DUP6 DUP2 PUSH1 0x1 ADD SWAP1 DUP2 PUSH2 0xC5B SWAP2 SWAP1 PUSH2 0x2033 JUMP JUMPDEST POP DUP5 DUP2 PUSH1 0x2 ADD SWAP1 DUP2 PUSH2 0xC6D SWAP2 SWAP1 PUSH2 0x2033 JUMP JUMPDEST POP DUP4 DUP2 PUSH1 0x3 ADD DUP2 SWAP1 SSTORE POP PUSH0 DUP2 PUSH1 0x4 ADD DUP2 SWAP1 SSTORE POP PUSH0 DUP2 PUSH1 0x5 ADD DUP2 SWAP1 SSTORE POP CALLER DUP2 PUSH0 ADD PUSH0 PUSH2 0x100 EXP DUP2 SLOAD DUP2 PUSH20 0xFFFFFFFFFFFFFFFFFFFFFFFFFFFFFFFFFFFFFFFF MUL NOT AND SWAP1 DUP4 PUSH20 0xFFFFFFFFFFFFFFFFFFFFFFFFFFFFFFFFFFFFFFFF AND MUL OR SWAP1 SSTORE POP DUP3 DUP3 PUSH1 0x40 MLOAD PUSH2 0xCD8 SWAP1 PUSH2 0x1310 JUMP JUMPDEST PUSH2 0xCE3 SWAP3 SWAP2 SWAP1 PUSH2 0x22AE JUMP JUMPDEST PUSH1 0x40 MLOAD DUP1 SWAP2 SUB SWAP1 PUSH0 CREATE DUP1 ISZERO DUP1 ISZERO PUSH2 0xCFC JUMPI RETURNDATASIZE PUSH0 DUP1 RETURNDATACOPY RETURNDATASIZE PUSH0 REVERT JUMPDEST POP DUP2 PUSH1 0x8 ADD PUSH0 PUSH2 0x100 EXP DUP2 SLOAD DUP2 PUSH20 0xFFFFFFFFFFFFFFFFFFFFFFFFFFFFFFFFFFFFFFFF MUL NOT AND SWAP1 DUP4 PUSH20 0xFFFFFFFFFFFFFFFFFFFFFFFFFFFFFFFFFFFFFFFF AND MUL OR SWAP1 SSTORE POP PUSH1 0x1 PUSH1 0x3 PUSH0 PUSH1 0x4 SLOAD DUP2 MSTORE PUSH1 0x20 ADD SWAP1 DUP2 MSTORE PUSH1 0x20 ADD PUSH0 KECCAK256 PUSH0 PUSH2 0x100 EXP DUP2 SLOAD DUP2 PUSH1 0xFF MUL NOT AND SWAP1 DUP4 ISZERO ISZERO MUL OR SWAP1 SSTORE POP POP POP POP POP POP POP JUMP JUMPDEST PUSH1 0x2 PUSH1 0x20 MSTORE DUP2 PUSH0 MSTORE PUSH1 0x40 PUSH0 KECCAK256 PUSH1 0x20 MSTORE DUP1 PUSH0 MSTORE PUSH1 0x40 PUSH0 KECCAK256 PUSH0 SWAP2 POP SWAP2 POP POP SLOAD DUP2 JUMP JUMPDEST PUSH1 0x3 PUSH0 DUP3 DUP2 MSTORE PUSH1 0x20 ADD SWAP1 DUP2 MSTORE PUSH1 0x20 ADD PUSH0 KECCAK256 PUSH0 SWAP1 SLOAD SWAP1 PUSH2 0x100 EXP SWAP1 DIV PUSH1 0xFF AND PUSH2 0xDEE JUMPI PUSH1 0x40 MLOAD PUSH32 0x8C379A000000000000000000000000000000000000000000000000000000000 DUP2 MSTORE PUSH1 0x4 ADD PUSH2 0xDE5 SWAP1 PUSH2 0x1D28 JUMP JUMPDEST PUSH1 0x40 MLOAD DUP1 SWAP2 SUB SWAP1 REVERT JUMPDEST PUSH0 DUP1 SLOAD SWAP1 PUSH2 0x100 EXP SWAP1 DIV PUSH20 0xFFFFFFFFFFFFFFFFFFFFFFFFFFFFFFFFFFFFFFFF AND PUSH20 0xFFFFFFFFFFFFFFFFFFFFFFFFFFFFFFFFFFFFFFFF AND PUSH4 0xABAF78D4 CALLER PUSH1 0x40 MLOAD DUP3 PUSH4 0xFFFFFFFF AND PUSH1 0xE0 SHL DUP2 MSTORE PUSH1 0x4 ADD PUSH2 0xE46 SWAP2 SWAP1 PUSH2 0x1DA3 JUMP JUMPDEST PUSH1 0x20 PUSH1 0x40 MLOAD DUP1 DUP4 SUB DUP2 DUP7 GAS STATICCALL ISZERO DUP1 ISZERO PUSH2 0xE61 JUMPI RETURNDATASIZE PUSH0 DUP1 RETURNDATACOPY RETURNDATASIZE PUSH0 REVERT JUMPDEST POP POP POP POP PUSH1 0x40 MLOAD RETURNDATASIZE PUSH1 0x1F NOT PUSH1 0x1F DUP3 ADD AND DUP3 ADD DUP1 PUSH1 0x40 MSTORE POP DUP2 ADD SWAP1 PUSH2 0xE85 SWAP2 SWAP1 PUSH2 0x1DE6 JUMP JUMPDEST PUSH2 0xEC4 JUMPI PUSH1 0x40 MLOAD PUSH32 0x8C379A000000000000000000000000000000000000000000000000000000000 DUP2 MSTORE PUSH1 0x4 ADD PUSH2 0xEBB SWAP1 PUSH2 0x2326 JUMP JUMPDEST PUSH1 0x40 MLOAD DUP1 SWAP2 SUB SWAP1 REVERT JUMPDEST PUSH0 CALLVALUE GT PUSH2 0xF06 JUMPI PUSH1 0x40 MLOAD PUSH32 0x8C379A000000000000000000000000000000000000000000000000000000000 DUP2 MSTORE PUSH1 0x4 ADD PUSH2 0xEFD SWAP1 PUSH2 0x238E JUMP JUMPDEST PUSH1 0x40 MLOAD DUP1 SWAP2 SUB SWAP1 REVERT JUMPDEST CALLVALUE PUSH1 0x2 PUSH0 DUP4 DUP2 MSTORE PUSH1 0x20 ADD SWAP1 DUP2 MSTORE PUSH1 0x20 ADD PUSH0 KECCAK256 PUSH0 CALLER PUSH20 0xFFFFFFFFFFFFFFFFFFFFFFFFFFFFFFFFFFFFFFFF AND PUSH20 0xFFFFFFFFFFFFFFFFFFFFFFFFFFFFFFFFFFFFFFFF AND DUP2 MSTORE PUSH1 0x20 ADD SWAP1 DUP2 MSTORE PUSH1 0x20 ADD PUSH0 KECCAK256 PUSH0 DUP3 DUP3 SLOAD PUSH2 0xF61 SWAP2 SWAP1 PUSH2 0x23AC JUMP JUMPDEST SWAP3 POP POP DUP2 SWAP1 SSTORE POP CALLVALUE PUSH1 0x1 PUSH0 DUP4 DUP2 MSTORE PUSH1 0x20 ADD SWAP1 DUP2 MSTORE PUSH1 0x20 ADD PUSH0 KECCAK256 PUSH1 0x4 ADD PUSH0 DUP3 DUP3 SLOAD PUSH2 0xF8B SWAP2 SWAP1 PUSH2 0x23AC JUMP JUMPDEST SWAP3 POP POP DUP2 SWAP1 SSTORE POP PUSH1 0x1 PUSH0 DUP3 DUP2 MSTORE PUSH1 0x20 ADD SWAP1 DUP2 MSTORE PUSH1 0x20 ADD PUSH0 KECCAK256 PUSH1 0x7 ADD CALLER SWAP1 DUP1 PUSH1 0x1 DUP2 SLOAD ADD DUP1 DUP3 SSTORE DUP1 SWAP2 POP POP PUSH1 0x1 SWAP1 SUB SWAP1 PUSH0 MSTORE PUSH1 0x20 PUSH0 KECCAK256 ADD PUSH0 SWAP1 SWAP2 SWAP1 SWAP2 SWAP1 SWAP2 PUSH2 0x100 EXP DUP2 SLOAD DUP2 PUSH20 0xFFFFFFFFFFFFFFFFFFFFFFFFFFFFFFFFFFFFFFFF MUL NOT AND SWAP1 DUP4 PUSH20 0xFFFFFFFFFFFFFFFFFFFFFFFFFFFFFFFFFFFFFFFF AND MUL OR SWAP1 SSTORE POP POP JUMP JUMPDEST PUSH0 DUP1 SLOAD SWAP1 PUSH2 0x100 EXP SWAP1 DIV PUSH20 0xFFFFFFFFFFFFFFFFFFFFFFFFFFFFFFFFFFFFFFFF AND DUP2 JUMP JUMPDEST PUSH1 0x3 PUSH0 DUP5 DUP2 MSTORE PUSH1 0x20 ADD SWAP1 DUP2 MSTORE PUSH1 0x20 ADD PUSH0 KECCAK256 PUSH0 SWAP1 SLOAD SWAP1 PUSH2 0x100 EXP SWAP1 DIV PUSH1 0xFF AND PUSH2 0x1087 JUMPI PUSH1 0x40 MLOAD PUSH32 0x8C379A000000000000000000000000000000000000000000000000000000000 DUP2 MSTORE PUSH1 0x4 ADD PUSH2 0x107E SWAP1 PUSH2 0x1D28 JUMP JUMPDEST PUSH1 0x40 MLOAD DUP1 SWAP2 SUB SWAP1 REVERT JUMPDEST PUSH0 DUP1 SLOAD SWAP1 PUSH2 0x100 EXP SWAP1 DIV PUSH20 0xFFFFFFFFFFFFFFFFFFFFFFFFFFFFFFFFFFFFFFFF AND PUSH20 0xFFFFFFFFFFFFFFFFFFFFFFFFFFFFFFFFFFFFFFFF AND PUSH4 0x13C876A2 CALLER PUSH1 0x40 MLOAD DUP3 PUSH4 0xFFFFFFFF AND PUSH1 0xE0 SHL DUP2 MSTORE PUSH1 0x4 ADD PUSH2 0x10DF SWAP2 SWAP1 PUSH2 0x1DA3 JUMP JUMPDEST PUSH1 0x20 PUSH1 0x40 MLOAD DUP1 DUP4 SUB DUP2 DUP7 GAS STATICCALL ISZERO DUP1 ISZERO PUSH2 0x10FA JUMPI RETURNDATASIZE PUSH0 DUP1 RETURNDATACOPY RETURNDATASIZE PUSH0 REVERT JUMPDEST POP POP POP POP PUSH1 0x40 MLOAD RETURNDATASIZE PUSH1 0x1F NOT PUSH1 0x1F DUP3 ADD AND DUP3 ADD DUP1 PUSH1 0x40 MSTORE POP DUP2 ADD SWAP1 PUSH2 0x111E SWAP2 SWAP1 PUSH2 0x1DE6 JUMP JUMPDEST PUSH2 0x115D JUMPI PUSH1 0x40 MLOAD PUSH32 0x8C379A000000000000000000000000000000000000000000000000000000000 DUP2 MSTORE PUSH1 0x4 ADD PUSH2 0x1154 SWAP1 PUSH2 0x2429 JUMP JUMPDEST PUSH1 0x40 MLOAD DUP1 SWAP2 SUB SWAP1 REVERT JUMPDEST PUSH1 0x1 PUSH0 DUP5 DUP2 MSTORE PUSH1 0x20 ADD SWAP1 DUP2 MSTORE PUSH1 0x20 ADD PUSH0 KECCAK256 PUSH1 0x5 ADD SLOAD PUSH1 0x1 PUSH0 DUP6 DUP2 MSTORE PUSH1 0x20 ADD SWAP1 DUP2 MSTORE PUSH1 0x20 ADD PUSH0 KECCAK256 PUSH1 0x4 ADD SLOAD PUSH2 0x1191 SWAP2 SWAP1 PUSH2 0x2447 JUMP JUMPDEST DUP2 GT ISZERO PUSH2 0x11D3 JUMPI PUSH1 0x40 MLOAD PUSH32 0x8C379A000000000000000000000000000000000000000000000000000000000 DUP2 MSTORE PUSH1 0x4 ADD PUSH2 0x11CA SWAP1 PUSH2 0x24C4 JUMP JUMPDEST PUSH1 0x40 MLOAD DUP1 SWAP2 SUB SWAP1 REVERT JUMPDEST DUP1 PUSH1 0x1 PUSH0 DUP6 DUP2 MSTORE PUSH1 0x20 ADD SWAP1 DUP2 MSTORE PUSH1 0x20 ADD PUSH0 KECCAK256 PUSH1 0x5 ADD PUSH0 DUP3 DUP3 SLOAD PUSH2 0x11F6 SWAP2 SWAP1 PUSH2 0x23AC JUMP JUMPDEST SWAP3 POP POP DUP2 SWAP1 SSTORE POP PUSH1 0x1 PUSH0 DUP5 DUP2 MSTORE PUSH1 0x20 ADD SWAP1 DUP2 MSTORE PUSH1 0x20 ADD PUSH0 KECCAK256 PUSH1 0x8 ADD PUSH0 SWAP1 SLOAD SWAP1 PUSH2 0x100 EXP SWAP1 DIV PUSH20 0xFFFFFFFFFFFFFFFFFFFFFFFFFFFFFFFFFFFFFFFF AND PUSH20 0xFFFFFFFFFFFFFFFFFFFFFFFFFFFFFFFFFFFFFFFF AND PUSH4 0x1E7F8F0F DUP4 DUP4 PUSH1 0x40 MLOAD DUP4 PUSH4 0xFFFFFFFF AND PUSH1 0xE0 SHL DUP2 MSTORE PUSH1 0x4 ADD PUSH2 0x126B SWAP3 SWAP2 SWAP1 PUSH2 0x24E2 JUMP JUMPDEST PUSH0 PUSH1 0x40 MLOAD DUP1 DUP4 SUB DUP2 PUSH0 DUP8 DUP1 EXTCODESIZE ISZERO DUP1 ISZERO PUSH2 0x1282 JUMPI PUSH0 DUP1 REVERT JUMPDEST POP GAS CALL ISZERO DUP1 ISZERO PUSH2 0x1294 JUMPI RETURNDATASIZE PUSH0 DUP1 RETURNDATACOPY RETURNDATASIZE PUSH0 REVERT JUMPDEST POP POP POP POP POP POP POP JUMP JUMPDEST PUSH1 0x40 MLOAD DUP1 PUSH2 0x120 ADD PUSH1 0x40 MSTORE DUP1 PUSH0 PUSH20 0xFFFFFFFFFFFFFFFFFFFFFFFFFFFFFFFFFFFFFFFF AND DUP2 MSTORE PUSH1 0x20 ADD PUSH1 0x60 DUP2 MSTORE PUSH1 0x20 ADD PUSH1 0x60 DUP2 MSTORE PUSH1 0x20 ADD PUSH0 DUP2 MSTORE PUSH1 0x20 ADD PUSH0 DUP2 MSTORE PUSH1 0x20 ADD PUSH0 DUP2 MSTORE PUSH1 0x20 ADD PUSH1 0x60 DUP2 MSTORE PUSH1 0x20 ADD PUSH1 0x60 DUP2 MSTORE PUSH1 0x20 ADD PUSH0 PUSH20 0xFFFFFFFFFFFFFFFFFFFFFFFFFFFFFFFFFFFFFFFF AND DUP2 MSTORE POP SWAP1 JUMP JUMPDEST PUSH2 0x1205 DUP1 PUSH2 0x250A DUP4 CODECOPY ADD SWAP1 JUMP JUMPDEST PUSH0 PUSH1 0x40 MLOAD SWAP1 POP SWAP1 JUMP JUMPDEST PUSH0 DUP1 REVERT JUMPDEST PUSH0 DUP1 REVERT JUMPDEST PUSH0 DUP2 SWAP1 POP SWAP2 SWAP1 POP JUMP JUMPDEST PUSH2 0x1340 DUP2 PUSH2 0x132E JUMP JUMPDEST DUP2 EQ PUSH2 0x134A JUMPI PUSH0 DUP1 REVERT JUMPDEST POP JUMP JUMPDEST PUSH0 DUP2 CALLDATALOAD SWAP1 POP PUSH2 0x135B DUP2 PUSH2 0x1337 JUMP JUMPDEST SWAP3 SWAP2 POP POP JUMP JUMPDEST PUSH0 PUSH1 0x20 DUP3 DUP5 SUB SLT ISZERO PUSH2 0x1376 JUMPI PUSH2 0x1375 PUSH2 0x1326 JUMP JUMPDEST JUMPDEST PUSH0 PUSH2 0x1383 DUP5 DUP3 DUP6 ADD PUSH2 0x134D JUMP JUMPDEST SWAP2 POP POP SWAP3 SWAP2 POP POP JUMP JUMPDEST PUSH0 DUP2 MLOAD SWAP1 POP SWAP2 SWAP1 POP JUMP JUMPDEST PUSH0 DUP3 DUP3 MSTORE PUSH1 0x20 DUP3 ADD SWAP1 POP SWAP3 SWAP2 POP POP JUMP JUMPDEST PUSH0 DUP2 SWAP1 POP PUSH1 0x20 DUP3 ADD SWAP1 POP SWAP2 SWAP1 POP JUMP JUMPDEST PUSH0 PUSH20 0xFFFFFFFFFFFFFFFFFFFFFFFFFFFFFFFFFFFFFFFF DUP3 AND SWAP1 POP SWAP2 SWAP1 POP JUMP JUMPDEST PUSH0 PUSH2 0x13DE DUP3 PUSH2 0x13B5 JUMP JUMPDEST SWAP1 POP SWAP2 SWAP1 POP JUMP JUMPDEST PUSH2 0x13EE DUP2 PUSH2 0x13D4 JUMP JUMPDEST DUP3 MSTORE POP POP JUMP JUMPDEST PUSH0 PUSH2 0x13FF DUP4 DUP4 PUSH2 0x13E5 JUMP JUMPDEST PUSH1 0x20 DUP4 ADD SWAP1 POP SWAP3 SWAP2 POP POP JUMP JUMPDEST PUSH0 PUSH1 0x20 DUP3 ADD SWAP1 POP SWAP2 SWAP1 POP JUMP JUMPDEST PUSH0 PUSH2 0x1421 DUP3 PUSH2 0x138C JUMP JUMPDEST PUSH2 0x142B DUP2 DUP6 PUSH2 0x1396 JUMP JUMPDEST SWAP4 POP PUSH2 0x1436 DUP4 PUSH2 0x13A6 JUMP JUMPDEST DUP1 PUSH0 JUMPDEST DUP4 DUP2 LT ISZERO PUSH2 0x1466 JUMPI DUP2 MLOAD PUSH2 0x144D DUP9 DUP3 PUSH2 0x13F4 JUMP JUMPDEST SWAP8 POP PUSH2 0x1458 DUP4 PUSH2 0x140B JUMP JUMPDEST SWAP3 POP POP PUSH1 0x1 DUP2 ADD SWAP1 POP PUSH2 0x1439 JUMP JUMPDEST POP DUP6 SWAP4 POP POP POP POP SWAP3 SWAP2 POP POP JUMP JUMPDEST PUSH0 PUSH1 0x20 DUP3 ADD SWAP1 POP DUP2 DUP2 SUB PUSH0 DUP4 ADD MSTORE PUSH2 0x148B DUP2 DUP5 PUSH2 0x1417 JUMP JUMPDEST SWAP1 POP SWAP3 SWAP2 POP POP JUMP JUMPDEST PUSH2 0x149C DUP2 PUSH2 0x13D4 JUMP JUMPDEST DUP3 MSTORE POP POP JUMP JUMPDEST PUSH0 DUP2 MLOAD SWAP1 POP SWAP2 SWAP1 POP JUMP JUMPDEST PUSH0 DUP3 DUP3 MSTORE PUSH1 0x20 DUP3 ADD SWAP1 POP SWAP3 SWAP2 POP POP JUMP JUMPDEST DUP3 DUP2 DUP4 MCOPY PUSH0 DUP4 DUP4 ADD MSTORE POP POP POP JUMP JUMPDEST PUSH0 PUSH1 0x1F NOT PUSH1 0x1F DUP4 ADD AND SWAP1 POP SWAP2 SWAP1 POP JUMP JUMPDEST PUSH0 PUSH2 0x14E4 DUP3 PUSH2 0x14A2 JUMP JUMPDEST PUSH2 0x14EE DUP2 DUP6 PUSH2 0x14AC JUMP JUMPDEST SWAP4 POP PUSH2 0x14FE DUP2 DUP6 PUSH1 0x20 DUP7 ADD PUSH2 0x14BC JUMP JUMPDEST PUSH2 0x1507 DUP2 PUSH2 0x14CA JUMP JUMPDEST DUP5 ADD SWAP2 POP POP SWAP3 SWAP2 POP POP JUMP JUMPDEST PUSH2 0x151B DUP2 PUSH2 0x132E JUMP JUMPDEST DUP3 MSTORE POP POP JUMP JUMPDEST PUSH0 DUP2 SWAP1 POP SWAP2 SWAP1 POP JUMP JUMPDEST PUSH0 PUSH2 0x1544 PUSH2 0x153F PUSH2 0x153A DUP5 PUSH2 0x13B5 JUMP JUMPDEST PUSH2 0x1521 JUMP JUMPDEST PUSH2 0x13B5 JUMP JUMPDEST SWAP1 POP SWAP2 SWAP1 POP JUMP JUMPDEST PUSH0 PUSH2 0x1555 DUP3 PUSH2 0x152A JUMP JUMPDEST SWAP1 POP SWAP2 SWAP1 POP JUMP JUMPDEST PUSH0 PUSH2 0x1566 DUP3 PUSH2 0x154B JUMP JUMPDEST SWAP1 POP SWAP2 SWAP1 POP JUMP JUMPDEST PUSH2 0x1576 DUP2 PUSH2 0x155C JUMP JUMPDEST DUP3 MSTORE POP POP JUMP JUMPDEST PUSH0 PUSH1 0xE0 DUP3 ADD SWAP1 POP PUSH2 0x158F PUSH0 DUP4 ADD DUP11 PUSH2 0x1493 JUMP JUMPDEST DUP2 DUP2 SUB PUSH1 0x20 DUP4 ADD MSTORE PUSH2 0x15A1 DUP2 DUP10 PUSH2 0x14DA JUMP JUMPDEST SWAP1 POP DUP2 DUP2 SUB PUSH1 0x40 DUP4 ADD MSTORE PUSH2 0x15B5 DUP2 DUP9 PUSH2 0x14DA JUMP JUMPDEST SWAP1 POP PUSH2 0x15C4 PUSH1 0x60 DUP4 ADD DUP8 PUSH2 0x1512 JUMP JUMPDEST PUSH2 0x15D1 PUSH1 0x80 DUP4 ADD DUP7 PUSH2 0x1512 JUMP JUMPDEST PUSH2 0x15DE PUSH1 0xA0 DUP4 ADD DUP6 PUSH2 0x1512 JUMP JUMPDEST PUSH2 0x15EB PUSH1 0xC0 DUP4 ADD DUP5 PUSH2 0x156D JUMP JUMPDEST SWAP9 SWAP8 POP POP POP POP POP POP POP POP JUMP JUMPDEST PUSH0 DUP2 ISZERO ISZERO SWAP1 POP SWAP2 SWAP1 POP JUMP JUMPDEST PUSH2 0x160B DUP2 PUSH2 0x15F7 JUMP JUMPDEST DUP3 MSTORE POP POP JUMP JUMPDEST PUSH0 PUSH1 0x20 DUP3 ADD SWAP1 POP PUSH2 0x1624 PUSH0 DUP4 ADD DUP5 PUSH2 0x1602 JUMP JUMPDEST SWAP3 SWAP2 POP POP JUMP JUMPDEST PUSH0 DUP1 REVERT JUMPDEST PUSH0 DUP1 REVERT JUMPDEST PUSH32 0x4E487B7100000000000000000000000000000000000000000000000000000000 PUSH0 MSTORE PUSH1 0x41 PUSH1 0x4 MSTORE PUSH1 0x24 PUSH0 REVERT JUMPDEST PUSH2 0x1668 DUP3 PUSH2 0x14CA JUMP JUMPDEST DUP2 ADD DUP2 DUP2 LT PUSH8 0xFFFFFFFFFFFFFFFF DUP3 GT OR ISZERO PUSH2 0x1687 JUMPI PUSH2 0x1686 PUSH2 0x1632 JUMP JUMPDEST JUMPDEST DUP1 PUSH1 0x40 MSTORE POP POP POP JUMP JUMPDEST PUSH0 PUSH2 0x1699 PUSH2 0x131D JUMP JUMPDEST SWAP1 POP PUSH2 0x16A5 DUP3 DUP3 PUSH2 0x165F JUMP JUMPDEST SWAP2 SWAP1 POP JUMP JUMPDEST PUSH0 PUSH8 0xFFFFFFFFFFFFFFFF DUP3 GT ISZERO PUSH2 0x16C4 JUMPI PUSH2 0x16C3 PUSH2 0x1632 JUMP JUMPDEST JUMPDEST PUSH2 0x16CD DUP3 PUSH2 0x14CA JUMP JUMPDEST SWAP1 POP PUSH1 0x20 DUP2 ADD SWAP1 POP SWAP2 SWAP1 POP JUMP JUMPDEST DUP3 DUP2 DUP4 CALLDATACOPY PUSH0 DUP4 DUP4 ADD MSTORE POP POP POP JUMP JUMPDEST PUSH0 PUSH2 0x16FA PUSH2 0x16F5 DUP5 PUSH2 0x16AA JUMP JUMPDEST PUSH2 0x1690 JUMP JUMPDEST SWAP1 POP DUP3 DUP2 MSTORE PUSH1 0x20 DUP2 ADD DUP5 DUP5 DUP5 ADD GT ISZERO PUSH2 0x1716 JUMPI PUSH2 0x1715 PUSH2 0x162E JUMP JUMPDEST JUMPDEST PUSH2 0x1721 DUP5 DUP3 DUP6 PUSH2 0x16DA JUMP JUMPDEST POP SWAP4 SWAP3 POP POP POP JUMP JUMPDEST PUSH0 DUP3 PUSH1 0x1F DUP4 ADD SLT PUSH2 0x173D JUMPI PUSH2 0x173C PUSH2 0x162A JUMP JUMPDEST JUMPDEST DUP2 CALLDATALOAD PUSH2 0x174D DUP5 DUP3 PUSH1 0x20 DUP7 ADD PUSH2 0x16E8 JUMP JUMPDEST SWAP2 POP POP SWAP3 SWAP2 POP POP JUMP JUMPDEST PUSH0 DUP1 PUSH1 0x40 DUP4 DUP6 SUB SLT ISZERO PUSH2 0x176C JUMPI PUSH2 0x176B PUSH2 0x1326 JUMP JUMPDEST JUMPDEST PUSH0 PUSH2 0x1779 DUP6 DUP3 DUP7 ADD PUSH2 0x134D JUMP JUMPDEST SWAP3 POP POP PUSH1 0x20 DUP4 ADD CALLDATALOAD PUSH8 0xFFFFFFFFFFFFFFFF DUP2 GT ISZERO PUSH2 0x179A JUMPI PUSH2 0x1799 PUSH2 0x132A JUMP JUMPDEST JUMPDEST PUSH2 0x17A6 DUP6 DUP3 DUP7 ADD PUSH2 0x1729 JUMP JUMPDEST SWAP2 POP POP SWAP3 POP SWAP3 SWAP1 POP JUMP JUMPDEST PUSH0 DUP3 DUP3 MSTORE PUSH1 0x20 DUP3 ADD SWAP1 POP SWAP3 SWAP2 POP POP JUMP JUMPDEST PUSH0 PUSH2 0x17CA DUP3 PUSH2 0x14A2 JUMP JUMPDEST PUSH2 0x17D4 DUP2 DUP6 PUSH2 0x17B0 JUMP JUMPDEST SWAP4 POP PUSH2 0x17E4 DUP2 DUP6 PUSH1 0x20 DUP7 ADD PUSH2 0x14BC JUMP JUMPDEST PUSH2 0x17ED DUP2 PUSH2 0x14CA JUMP JUMPDEST DUP5 ADD SWAP2 POP POP SWAP3 SWAP2 POP POP JUMP JUMPDEST PUSH2 0x1801 DUP2 PUSH2 0x132E JUMP JUMPDEST DUP3 MSTORE POP POP JUMP JUMPDEST PUSH0 DUP2 MLOAD SWAP1 POP SWAP2 SWAP1 POP JUMP JUMPDEST PUSH0 DUP3 DUP3 MSTORE PUSH1 0x20 DUP3 ADD SWAP1 POP SWAP3 SWAP2 POP POP JUMP JUMPDEST PUSH0 DUP2 SWAP1 POP PUSH1 0x20 DUP3 ADD SWAP1 POP SWAP2 SWAP1 POP JUMP JUMPDEST PUSH0 PUSH2 0x183B DUP4 DUP4 PUSH2 0x17C0 JUMP JUMPDEST SWAP1 POP SWAP3 SWAP2 POP POP JUMP JUMPDEST PUSH0 PUSH1 0x20 DUP3 ADD SWAP1 POP SWAP2 SWAP1 POP JUMP JUMPDEST PUSH0 PUSH2 0x1859 DUP3 PUSH2 0x1807 JUMP JUMPDEST PUSH2 0x1863 DUP2 DUP6 PUSH2 0x1811 JUMP JUMPDEST SWAP4 POP DUP4 PUSH1 0x20 DUP3 MUL DUP6 ADD PUSH2 0x1875 DUP6 PUSH2 0x1821 JUMP JUMPDEST DUP1 PUSH0 JUMPDEST DUP6 DUP2 LT ISZERO PUSH2 0x18B0 JUMPI DUP5 DUP5 SUB DUP10 MSTORE DUP2 MLOAD PUSH2 0x1891 DUP6 DUP3 PUSH2 0x1830 JUMP JUMPDEST SWAP5 POP PUSH2 0x189C DUP4 PUSH2 0x1843 JUMP JUMPDEST SWAP3 POP PUSH1 0x20 DUP11 ADD SWAP10 POP POP PUSH1 0x1 DUP2 ADD SWAP1 POP PUSH2 0x1878 JUMP JUMPDEST POP DUP3 SWAP8 POP DUP8 SWAP6 POP POP POP POP POP POP SWAP3 SWAP2 POP POP JUMP JUMPDEST PUSH0 DUP3 DUP3 MSTORE PUSH1 0x20 DUP3 ADD SWAP1 POP SWAP3 SWAP2 POP POP JUMP JUMPDEST PUSH0 PUSH2 0x18DC DUP3 PUSH2 0x138C JUMP JUMPDEST PUSH2 0x18E6 DUP2 DUP6 PUSH2 0x18C2 JUMP JUMPDEST SWAP4 POP PUSH2 0x18F1 DUP4 PUSH2 0x13A6 JUMP JUMPDEST DUP1 PUSH0 JUMPDEST DUP4 DUP2 LT ISZERO PUSH2 0x1921 JUMPI DUP2 MLOAD PUSH2 0x1908 DUP9 DUP3 PUSH2 0x13F4 JUMP JUMPDEST SWAP8 POP PUSH2 0x1913 DUP4 PUSH2 0x140B JUMP JUMPDEST SWAP3 POP POP PUSH1 0x1 DUP2 ADD SWAP1 POP PUSH2 0x18F4 JUMP JUMPDEST POP DUP6 SWAP4 POP POP POP POP SWAP3 SWAP2 POP POP JUMP JUMPDEST PUSH2 0x1937 DUP2 PUSH2 0x155C JUMP JUMPDEST DUP3 MSTORE POP POP JUMP JUMPDEST PUSH0 PUSH2 0x120 DUP4 ADD PUSH0 DUP4 ADD MLOAD PUSH2 0x1953 PUSH0 DUP7 ADD DUP3 PUSH2 0x13E5 JUMP JUMPDEST POP PUSH1 0x20 DUP4 ADD MLOAD DUP5 DUP3 SUB PUSH1 0x20 DUP7 ADD MSTORE PUSH2 0x196B DUP3 DUP3 PUSH2 0x17C0 JUMP JUMPDEST SWAP2 POP POP PUSH1 0x40 DUP4 ADD MLOAD DUP5 DUP3 SUB PUSH1 0x40 DUP7 ADD MSTORE PUSH2 0x1985 DUP3 DUP3 PUSH2 0x17C0 JUMP JUMPDEST SWAP2 POP POP PUSH1 0x60 DUP4 ADD MLOAD PUSH2 0x199A PUSH1 0x60 DUP7 ADD DUP3 PUSH2 0x17F8 JUMP JUMPDEST POP PUSH1 0x80 DUP4 ADD MLOAD PUSH2 0x19AD PUSH1 0x80 DUP7 ADD DUP3 PUSH2 0x17F8 JUMP JUMPDEST POP PUSH1 0xA0 DUP4 ADD MLOAD PUSH2 0x19C0 PUSH1 0xA0 DUP7 ADD DUP3 PUSH2 0x17F8 JUMP JUMPDEST POP PUSH1 0xC0 DUP4 ADD MLOAD DUP5 DUP3 SUB PUSH1 0xC0 DUP7 ADD MSTORE PUSH2 0x19D8 DUP3 DUP3 PUSH2 0x184F JUMP JUMPDEST SWAP2 POP POP PUSH1 0xE0 DUP4 ADD MLOAD DUP5 DUP3 SUB PUSH1 0xE0 DUP7 ADD MSTORE PUSH2 0x19F2 DUP3 DUP3 PUSH2 0x18D2 JUMP JUMPDEST SWAP2 POP POP PUSH2 0x100 DUP4 ADD MLOAD PUSH2 0x1A09 PUSH2 0x100 DUP7 ADD DUP3 PUSH2 0x192E JUMP JUMPDEST POP DUP1 SWAP2 POP POP SWAP3 SWAP2 POP POP JUMP JUMPDEST PUSH0 PUSH1 0x20 DUP3 ADD SWAP1 POP DUP2 DUP2 SUB PUSH0 DUP4 ADD MSTORE PUSH2 0x1A2C DUP2 DUP5 PUSH2 0x193D JUMP JUMPDEST SWAP1 POP SWAP3 SWAP2 POP POP JUMP JUMPDEST PUSH0 PUSH1 0x20 DUP3 ADD SWAP1 POP PUSH2 0x1A47 PUSH0 DUP4 ADD DUP5 PUSH2 0x1512 JUMP JUMPDEST SWAP3 SWAP2 POP POP JUMP JUMPDEST PUSH0 PUSH8 0xFFFFFFFFFFFFFFFF DUP3 GT ISZERO PUSH2 0x1A67 JUMPI PUSH2 0x1A66 PUSH2 0x1632 JUMP JUMPDEST JUMPDEST PUSH1 0x20 DUP3 MUL SWAP1 POP PUSH1 0x20 DUP2 ADD SWAP1 POP SWAP2 SWAP1 POP JUMP JUMPDEST PUSH0 DUP1 REVERT JUMPDEST PUSH2 0x1A85 DUP2 PUSH2 0x13D4 JUMP JUMPDEST DUP2 EQ PUSH2 0x1A8F JUMPI PUSH0 DUP1 REVERT JUMPDEST POP JUMP JUMPDEST PUSH0 DUP2 CALLDATALOAD SWAP1 POP PUSH2 0x1AA0 DUP2 PUSH2 0x1A7C JUMP JUMPDEST SWAP3 SWAP2 POP POP JUMP JUMPDEST PUSH0 PUSH2 0x1AB8 PUSH2 0x1AB3 DUP5 PUSH2 0x1A4D JUMP JUMPDEST PUSH2 0x1690 JUMP JUMPDEST SWAP1 POP DUP1 DUP4 DUP3 MSTORE PUSH1 0x20 DUP3 ADD SWAP1 POP PUSH1 0x20 DUP5 MUL DUP4 ADD DUP6 DUP2 GT ISZERO PUSH2 0x1ADB JUMPI PUSH2 0x1ADA PUSH2 0x1A78 JUMP JUMPDEST JUMPDEST DUP4 JUMPDEST DUP2 DUP2 LT ISZERO PUSH2 0x1B04 JUMPI DUP1 PUSH2 0x1AF0 DUP9 DUP3 PUSH2 0x1A92 JUMP JUMPDEST DUP5 MSTORE PUSH1 0x20 DUP5 ADD SWAP4 POP POP PUSH1 0x20 DUP2 ADD SWAP1 POP PUSH2 0x1ADD JUMP JUMPDEST POP POP POP SWAP4 SWAP3 POP POP POP JUMP JUMPDEST PUSH0 DUP3 PUSH1 0x1F DUP4 ADD SLT PUSH2 0x1B22 JUMPI PUSH2 0x1B21 PUSH2 0x162A JUMP JUMPDEST JUMPDEST DUP2 CALLDATALOAD PUSH2 0x1B32 DUP5 DUP3 PUSH1 0x20 DUP7 ADD PUSH2 0x1AA6 JUMP JUMPDEST SWAP2 POP POP SWAP3 SWAP2 POP POP JUMP JUMPDEST PUSH0 DUP1 PUSH0 DUP1 PUSH0 PUSH1 0xA0 DUP7 DUP9 SUB SLT ISZERO PUSH2 0x1B54 JUMPI PUSH2 0x1B53 PUSH2 0x1326 JUMP JUMPDEST JUMPDEST PUSH0 DUP7 ADD CALLDATALOAD PUSH8 0xFFFFFFFFFFFFFFFF DUP2 GT ISZERO PUSH2 0x1B71 JUMPI PUSH2 0x1B70 PUSH2 0x132A JUMP JUMPDEST JUMPDEST PUSH2 0x1B7D DUP9 DUP3 DUP10 ADD PUSH2 0x1729 JUMP JUMPDEST SWAP6 POP POP PUSH1 0x20 DUP7 ADD CALLDATALOAD PUSH8 0xFFFFFFFFFFFFFFFF DUP2 GT ISZERO PUSH2 0x1B9E JUMPI PUSH2 0x1B9D PUSH2 0x132A JUMP JUMPDEST JUMPDEST PUSH2 0x1BAA DUP9 DUP3 DUP10 ADD PUSH2 0x1729 JUMP JUMPDEST SWAP5 POP POP PUSH1 0x40 PUSH2 0x1BBB DUP9 DUP3 DUP10 ADD PUSH2 0x134D JUMP JUMPDEST SWAP4 POP POP PUSH1 0x60 DUP7 ADD CALLDATALOAD PUSH8 0xFFFFFFFFFFFFFFFF DUP2 GT ISZERO PUSH2 0x1BDC JUMPI PUSH2 0x1BDB PUSH2 0x132A JUMP JUMPDEST JUMPDEST PUSH2 0x1BE8 DUP9 DUP3 DUP10 ADD PUSH2 0x1B0E JUMP JUMPDEST SWAP3 POP POP PUSH1 0x80 PUSH2 0x1BF9 DUP9 DUP3 DUP10 ADD PUSH2 0x134D JUMP JUMPDEST SWAP2 POP POP SWAP3 SWAP6 POP SWAP3 SWAP6 SWAP1 SWAP4 POP JUMP JUMPDEST PUSH0 DUP1 PUSH1 0x40 DUP4 DUP6 SUB SLT ISZERO PUSH2 0x1C1C JUMPI PUSH2 0x1C1B PUSH2 0x1326 JUMP JUMPDEST JUMPDEST PUSH0 PUSH2 0x1C29 DUP6 DUP3 DUP7 ADD PUSH2 0x134D JUMP JUMPDEST SWAP3 POP POP PUSH1 0x20 PUSH2 0x1C3A DUP6 DUP3 DUP7 ADD PUSH2 0x1A92 JUMP JUMPDEST SWAP2 POP POP SWAP3 POP SWAP3 SWAP1 POP JUMP JUMPDEST PUSH0 PUSH2 0x1C4E DUP3 PUSH2 0x152A JUMP JUMPDEST SWAP1 POP SWAP2 SWAP1 POP JUMP JUMPDEST PUSH0 PUSH2 0x1C5F DUP3 PUSH2 0x1C44 JUMP JUMPDEST SWAP1 POP SWAP2 SWAP1 POP JUMP JUMPDEST PUSH2 0x1C6F DUP2 PUSH2 0x1C55 JUMP JUMPDEST DUP3 MSTORE POP POP JUMP JUMPDEST PUSH0 PUSH1 0x20 DUP3 ADD SWAP1 POP PUSH2 0x1C88 PUSH0 DUP4 ADD DUP5 PUSH2 0x1C66 JUMP JUMPDEST SWAP3 SWAP2 POP POP JUMP JUMPDEST PUSH0 DUP1 PUSH0 PUSH1 0x60 DUP5 DUP7 SUB SLT ISZERO PUSH2 0x1CA5 JUMPI PUSH2 0x1CA4 PUSH2 0x1326 JUMP JUMPDEST JUMPDEST PUSH0 PUSH2 0x1CB2 DUP7 DUP3 DUP8 ADD PUSH2 0x134D JUMP JUMPDEST SWAP4 POP POP PUSH1 0x20 PUSH2 0x1CC3 DUP7 DUP3 DUP8 ADD PUSH2 0x1A92 JUMP JUMPDEST SWAP3 POP POP PUSH1 0x40 PUSH2 0x1CD4 DUP7 DUP3 DUP8 ADD PUSH2 0x134D JUMP JUMPDEST SWAP2 POP POP SWAP3 POP SWAP3 POP SWAP3 JUMP JUMPDEST PUSH32 0x43616D706169676E20646F6573206E6F74206578697374000000000000000000 PUSH0 DUP3 ADD MSTORE POP JUMP JUMPDEST PUSH0 PUSH2 0x1D12 PUSH1 0x17 DUP4 PUSH2 0x14AC JUMP JUMPDEST SWAP2 POP PUSH2 0x1D1D DUP3 PUSH2 0x1CDE JUMP JUMPDEST PUSH1 0x20 DUP3 ADD SWAP1 POP SWAP2 SWAP1 POP JUMP JUMPDEST PUSH0 PUSH1 0x20 DUP3 ADD SWAP1 POP DUP2 DUP2 SUB PUSH0 DUP4 ADD MSTORE PUSH2 0x1D3F DUP2 PUSH2 0x1D06 JUMP JUMPDEST SWAP1 POP SWAP2 SWAP1 POP JUMP JUMPDEST PUSH32 0x4E487B7100000000000000000000000000000000000000000000000000000000 PUSH0 MSTORE PUSH1 0x22 PUSH1 0x4 MSTORE PUSH1 0x24 PUSH0 REVERT JUMPDEST PUSH0 PUSH1 0x2 DUP3 DIV SWAP1 POP PUSH1 0x1 DUP3 AND DUP1 PUSH2 0x1D8A JUMPI PUSH1 0x7F DUP3 AND SWAP2 POP JUMPDEST PUSH1 0x20 DUP3 LT DUP2 SUB PUSH2 0x1D9D JUMPI PUSH2 0x1D9C PUSH2 0x1D46 JUMP JUMPDEST JUMPDEST POP SWAP2 SWAP1 POP JUMP JUMPDEST PUSH0 PUSH1 0x20 DUP3 ADD SWAP1 POP PUSH2 0x1DB6 PUSH0 DUP4 ADD DUP5 PUSH2 0x1493 JUMP JUMPDEST SWAP3 SWAP2 POP POP JUMP JUMPDEST PUSH2 0x1DC5 DUP2 PUSH2 0x15F7 JUMP JUMPDEST DUP2 EQ PUSH2 0x1DCF JUMPI PUSH0 DUP1 REVERT JUMPDEST POP JUMP JUMPDEST PUSH0 DUP2 MLOAD SWAP1 POP PUSH2 0x1DE0 DUP2 PUSH2 0x1DBC JUMP JUMPDEST SWAP3 SWAP2 POP POP JUMP JUMPDEST PUSH0 PUSH1 0x20 DUP3 DUP5 SUB SLT ISZERO PUSH2 0x1DFB JUMPI PUSH2 0x1DFA PUSH2 0x1326 JUMP JUMPDEST JUMPDEST PUSH0 PUSH2 0x1E08 DUP5 DUP3 DUP6 ADD PUSH2 0x1DD2 JUMP JUMPDEST SWAP2 POP POP SWAP3 SWAP2 POP POP JUMP JUMPDEST PUSH32 0x4F6E6C792070726F66696C65206F776E65722063616E20706F7374207574696C PUSH0 DUP3 ADD MSTORE PUSH32 0x697A6174696F6E206465736372697074696F6E00000000000000000000000000 PUSH1 0x20 DUP3 ADD MSTORE POP JUMP JUMPDEST PUSH0 PUSH2 0x1E6B PUSH1 0x33 DUP4 PUSH2 0x14AC JUMP JUMPDEST SWAP2 POP PUSH2 0x1E76 DUP3 PUSH2 0x1E11 JUMP JUMPDEST PUSH1 0x40 DUP3 ADD SWAP1 POP SWAP2 SWAP1 POP JUMP JUMPDEST PUSH0 PUSH1 0x20 DUP3 ADD SWAP1 POP DUP2 DUP2 SUB PUSH0 DUP4 ADD MSTORE PUSH2 0x1E98 DUP2 PUSH2 0x1E5F JUMP JUMPDEST SWAP1 POP SWAP2 SWAP1 POP JUMP JUMPDEST PUSH0 DUP2 SWAP1 POP DUP2 PUSH0 MSTORE PUSH1 0x20 PUSH0 KECCAK256 SWAP1 POP SWAP2 SWAP1 POP JUMP JUMPDEST PUSH0 PUSH1 0x20 PUSH1 0x1F DUP4 ADD DIV SWAP1 POP SWAP2 SWAP1 POP JUMP JUMPDEST PUSH0 DUP3 DUP3 SHL SWAP1 POP SWAP3 SWAP2 POP POP JUMP JUMPDEST PUSH0 PUSH1 0x8 DUP4 MUL PUSH2 0x1EFB PUSH32 0xFFFFFFFFFFFFFFFFFFFFFFFFFFFFFFFFFFFFFFFFFFFFFFFFFFFFFFFFFFFFFFFF DUP3 PUSH2 0x1EC0 JUMP JUMPDEST PUSH2 0x1F05 DUP7 DUP4 PUSH2 0x1EC0 JUMP JUMPDEST SWAP6 POP DUP1 NOT DUP5 AND SWAP4 POP DUP1 DUP7 AND DUP5 OR SWAP3 POP POP POP SWAP4 SWAP3 POP POP POP JUMP JUMPDEST PUSH0 PUSH2 0x1F37 PUSH2 0x1F32 PUSH2 0x1F2D DUP5 PUSH2 0x132E JUMP JUMPDEST PUSH2 0x1521 JUMP JUMPDEST PUSH2 0x132E JUMP JUMPDEST SWAP1 POP SWAP2 SWAP1 POP JUMP JUMPDEST PUSH0 DUP2 SWAP1 POP SWAP2 SWAP1 POP JUMP JUMPDEST PUSH2 0x1F50 DUP4 PUSH2 0x1F1D JUMP JUMPDEST PUSH2 0x1F64 PUSH2 0x1F5C DUP3 PUSH2 0x1F3E JUMP JUMPDEST DUP5 DUP5 SLOAD PUSH2 0x1ECC JUMP JUMPDEST DUP3 SSTORE POP POP POP POP JUMP JUMPDEST PUSH0 SWAP1 JUMP JUMPDEST PUSH2 0x1F78 PUSH2 0x1F6C JUMP JUMPDEST PUSH2 0x1F83 DUP2 DUP5 DUP5 PUSH2 0x1F47 JUMP JUMPDEST POP POP POP JUMP JUMPDEST JUMPDEST DUP2 DUP2 LT ISZERO PUSH2 0x1FA6 JUMPI PUSH2 0x1F9B PUSH0 DUP3 PUSH2 0x1F70 JUMP JUMPDEST PUSH1 0x1 DUP2 ADD SWAP1 POP PUSH2 0x1F89 JUMP JUMPDEST POP POP JUMP JUMPDEST PUSH1 0x1F DUP3 GT ISZERO PUSH2 0x1FEB JUMPI PUSH2 0x1FBC DUP2 PUSH2 0x1E9F JUMP JUMPDEST PUSH2 0x1FC5 DUP5 PUSH2 0x1EB1 JUMP JUMPDEST DUP2 ADD PUSH1 0x20 DUP6 LT ISZERO PUSH2 0x1FD4 JUMPI DUP2 SWAP1 POP JUMPDEST PUSH2 0x1FE8 PUSH2 0x1FE0 DUP6 PUSH2 0x1EB1 JUMP JUMPDEST DUP4 ADD DUP3 PUSH2 0x1F88 JUMP JUMPDEST POP POP JUMPDEST POP POP POP JUMP JUMPDEST PUSH0 DUP3 DUP3 SHR SWAP1 POP SWAP3 SWAP2 POP POP JUMP JUMPDEST PUSH0 PUSH2 0x200B PUSH0 NOT DUP5 PUSH1 0x8 MUL PUSH2 0x1FF0 JUMP JUMPDEST NOT DUP1 DUP4 AND SWAP2 POP POP SWAP3 SWAP2 POP POP JUMP JUMPDEST PUSH0 PUSH2 0x2023 DUP4 DUP4 PUSH2 0x1FFC JUMP JUMPDEST SWAP2 POP DUP3 PUSH1 0x2 MUL DUP3 OR SWAP1 POP SWAP3 SWAP2 POP POP JUMP JUMPDEST PUSH2 0x203C DUP3 PUSH2 0x14A2 JUMP JUMPDEST PUSH8 0xFFFFFFFFFFFFFFFF DUP2 GT ISZERO PUSH2 0x2055 JUMPI PUSH2 0x2054 PUSH2 0x1632 JUMP JUMPDEST JUMPDEST PUSH2 0x205F DUP3 SLOAD PUSH2 0x1D73 JUMP JUMPDEST PUSH2 0x206A DUP3 DUP3 DUP6 PUSH2 0x1FAA JUMP JUMPDEST PUSH0 PUSH1 0x20 SWAP1 POP PUSH1 0x1F DUP4 GT PUSH1 0x1 DUP2 EQ PUSH2 0x209B JUMPI PUSH0 DUP5 ISZERO PUSH2 0x2089 JUMPI DUP3 DUP8 ADD MLOAD SWAP1 POP JUMPDEST PUSH2 0x2093 DUP6 DUP3 PUSH2 0x2018 JUMP JUMPDEST DUP7 SSTORE POP PUSH2 0x20FA JUMP JUMPDEST PUSH1 0x1F NOT DUP5 AND PUSH2 0x20A9 DUP7 PUSH2 0x1E9F JUMP JUMPDEST PUSH0 JUMPDEST DUP3 DUP2 LT ISZERO PUSH2 0x20D0 JUMPI DUP5 DUP10 ADD MLOAD DUP3 SSTORE PUSH1 0x1 DUP3 ADD SWAP2 POP PUSH1 0x20 DUP6 ADD SWAP5 POP PUSH1 0x20 DUP2 ADD SWAP1 POP PUSH2 0x20AB JUMP JUMPDEST DUP7 DUP4 LT ISZERO PUSH2 0x20ED JUMPI DUP5 DUP10 ADD MLOAD PUSH2 0x20E9 PUSH1 0x1F DUP10 AND DUP3 PUSH2 0x1FFC JUMP JUMPDEST DUP4 SSTORE POP JUMPDEST PUSH1 0x1 PUSH1 0x2 DUP9 MUL ADD DUP9 SSTORE POP POP POP JUMPDEST POP POP POP POP POP POP JUMP JUMPDEST PUSH32 0x4E6F74207468652070726F66696C65206F776E65720000000000000000000000 PUSH0 DUP3 ADD MSTORE POP JUMP JUMPDEST PUSH0 PUSH2 0x2136 PUSH1 0x15 DUP4 PUSH2 0x14AC JUMP JUMPDEST SWAP2 POP PUSH2 0x2141 DUP3 PUSH2 0x2102 JUMP JUMPDEST PUSH1 0x20 DUP3 ADD SWAP1 POP SWAP2 SWAP1 POP JUMP JUMPDEST PUSH0 PUSH1 0x20 DUP3 ADD SWAP1 POP DUP2 DUP2 SUB PUSH0 DUP4 ADD MSTORE PUSH2 0x2163 DUP2 PUSH2 0x212A JUMP JUMPDEST SWAP1 POP SWAP2 SWAP1 POP JUMP JUMPDEST PUSH32 0x4174206C65617374206F6E65207369676E657220726571756972656400000000 PUSH0 DUP3 ADD MSTORE POP JUMP JUMPDEST PUSH0 PUSH2 0x219E PUSH1 0x1C DUP4 PUSH2 0x14AC JUMP JUMPDEST SWAP2 POP PUSH2 0x21A9 DUP3 PUSH2 0x216A JUMP JUMPDEST PUSH1 0x20 DUP3 ADD SWAP1 POP SWAP2 SWAP1 POP JUMP JUMPDEST PUSH0 PUSH1 0x20 DUP3 ADD SWAP1 POP DUP2 DUP2 SUB PUSH0 DUP4 ADD MSTORE PUSH2 0x21CB DUP2 PUSH2 0x2192 JUMP JUMPDEST SWAP1 POP SWAP2 SWAP1 POP JUMP JUMPDEST PUSH32 0x496E76616C6964206E756D626572206F6620617070726F76616C730000000000 PUSH0 DUP3 ADD MSTORE POP JUMP JUMPDEST PUSH0 PUSH2 0x2206 PUSH1 0x1B DUP4 PUSH2 0x14AC JUMP JUMPDEST SWAP2 POP PUSH2 0x2211 DUP3 PUSH2 0x21D2 JUMP JUMPDEST PUSH1 0x20 DUP3 ADD SWAP1 POP SWAP2 SWAP1 POP JUMP JUMPDEST PUSH0 PUSH1 0x20 DUP3 ADD SWAP1 POP DUP2 DUP2 SUB PUSH0 DUP4 ADD MSTORE PUSH2 0x2233 DUP2 PUSH2 0x21FA JUMP JUMPDEST SWAP1 POP SWAP2 SWAP1 POP JUMP JUMPDEST PUSH32 0x4E487B7100000000000000000000000000000000000000000000000000000000 PUSH0 MSTORE PUSH1 0x11 PUSH1 0x4 MSTORE PUSH1 0x24 PUSH0 REVERT JUMPDEST PUSH0 PUSH2 0x2271 DUP3 PUSH2 0x132E JUMP JUMPDEST SWAP2 POP PUSH32 0xFFFFFFFFFFFFFFFFFFFFFFFFFFFFFFFFFFFFFFFFFFFFFFFFFFFFFFFFFFFFFFFF DUP3 SUB PUSH2 0x22A3 JUMPI PUSH2 0x22A2 PUSH2 0x223A JUMP JUMPDEST JUMPDEST PUSH1 0x1 DUP3 ADD SWAP1 POP SWAP2 SWAP1 POP JUMP JUMPDEST PUSH0 PUSH1 0x40 DUP3 ADD SWAP1 POP DUP2 DUP2 SUB PUSH0 DUP4 ADD MSTORE PUSH2 0x22C6 DUP2 DUP6 PUSH2 0x1417 JUMP JUMPDEST SWAP1 POP PUSH2 0x22D5 PUSH1 0x20 DUP4 ADD DUP5 PUSH2 0x1512 JUMP JUMPDEST SWAP4 SWAP3 POP POP POP JUMP JUMPDEST PUSH32 0x50726F66696C65206973206E6F74206163746976650000000000000000000000 PUSH0 DUP3 ADD MSTORE POP JUMP JUMPDEST PUSH0 PUSH2 0x2310 PUSH1 0x15 DUP4 PUSH2 0x14AC JUMP JUMPDEST SWAP2 POP PUSH2 0x231B DUP3 PUSH2 0x22DC JUMP JUMPDEST PUSH1 0x20 DUP3 ADD SWAP1 POP SWAP2 SWAP1 POP JUMP JUMPDEST PUSH0 PUSH1 0x20 DUP3 ADD SWAP1 POP DUP2 DUP2 SUB PUSH0 DUP4 ADD MSTORE PUSH2 0x233D DUP2 PUSH2 0x2304 JUMP JUMPDEST SWAP1 POP SWAP2 SWAP1 POP JUMP JUMPDEST PUSH32 0x446F6E6174696F6E206D7573742062652067726561746572207468616E203000 PUSH0 DUP3 ADD MSTORE POP JUMP JUMPDEST PUSH0 PUSH2 0x2378 PUSH1 0x1F DUP4 PUSH2 0x14AC JUMP JUMPDEST SWAP2 POP PUSH2 0x2383 DUP3 PUSH2 0x2344 JUMP JUMPDEST PUSH1 0x20 DUP3 ADD SWAP1 POP SWAP2 SWAP1 POP JUMP JUMPDEST PUSH0 PUSH1 0x20 DUP3 ADD SWAP1 POP DUP2 DUP2 SUB PUSH0 DUP4 ADD MSTORE PUSH2 0x23A5 DUP2 PUSH2 0x236C JUMP JUMPDEST SWAP1 POP SWAP2 SWAP1 POP JUMP JUMPDEST PUSH0 PUSH2 0x23B6 DUP3 PUSH2 0x132E JUMP JUMPDEST SWAP2 POP PUSH2 0x23C1 DUP4 PUSH2 0x132E JUMP JUMPDEST SWAP3 POP DUP3 DUP3 ADD SWAP1 POP DUP1 DUP3 GT ISZERO PUSH2 0x23D9 JUMPI PUSH2 0x23D8 PUSH2 0x223A JUMP JUMPDEST JUMPDEST SWAP3 SWAP2 POP POP JUMP JUMPDEST PUSH32 0x4F6E6C792070726F66696C65206F776E65722063616E20776974686472617700 PUSH0 DUP3 ADD MSTORE POP JUMP JUMPDEST PUSH0 PUSH2 0x2413 PUSH1 0x1F DUP4 PUSH2 0x14AC JUMP JUMPDEST SWAP2 POP PUSH2 0x241E DUP3 PUSH2 0x23DF JUMP JUMPDEST PUSH1 0x20 DUP3 ADD SWAP1 POP SWAP2 SWAP1 POP JUMP JUMPDEST PUSH0 PUSH1 0x20 DUP3 ADD SWAP1 POP DUP2 DUP2 SUB PUSH0 DUP4 ADD MSTORE PUSH2 0x2440 DUP2 PUSH2 0x2407 JUMP JUMPDEST SWAP1 POP SWAP2 SWAP1 POP JUMP JUMPDEST PUSH0 PUSH2 0x2451 DUP3 PUSH2 0x132E JUMP JUMPDEST SWAP2 POP PUSH2 0x245C DUP4 PUSH2 0x132E JUMP JUMPDEST SWAP3 POP DUP3 DUP3 SUB SWAP1 POP DUP2 DUP2 GT ISZERO PUSH2 0x2474 JUMPI PUSH2 0x2473 PUSH2 0x223A JUMP JUMPDEST JUMPDEST SWAP3 SWAP2 POP POP JUMP JUMPDEST PUSH32 0x496E73756666696369656E742066756E64730000000000000000000000000000 PUSH0 DUP3 ADD MSTORE POP JUMP JUMPDEST PUSH0 PUSH2 0x24AE PUSH1 0x12 DUP4 PUSH2 0x14AC JUMP JUMPDEST SWAP2 POP PUSH2 0x24B9 DUP3 PUSH2 0x247A JUMP JUMPDEST PUSH1 0x20 DUP3 ADD SWAP1 POP SWAP2 SWAP1 POP JUMP JUMPDEST PUSH0 PUSH1 0x20 DUP3 ADD SWAP1 POP DUP2 DUP2 SUB PUSH0 DUP4 ADD MSTORE PUSH2 0x24DB DUP2 PUSH2 0x24A2 JUMP JUMPDEST SWAP1 POP SWAP2 SWAP1 POP JUMP JUMPDEST PUSH0 PUSH1 0x40 DUP3 ADD SWAP1 POP PUSH2 0x24F5 PUSH0 DUP4 ADD DUP6 PUSH2 0x1493 JUMP JUMPDEST PUSH2 0x2502 PUSH1 0x20 DUP4 ADD DUP5 PUSH2 0x1512 JUMP JUMPDEST SWAP4 SWAP3 POP POP POP JUMP INVALID PUSH1 0x80 PUSH1 0x40 MSTORE CALLVALUE DUP1 ISZERO PUSH2 0xF JUMPI PUSH0 DUP1 REVERT JUMPDEST POP PUSH1 0x40 MLOAD PUSH2 0x1205 CODESIZE SUB DUP1 PUSH2 0x1205 DUP4 CODECOPY DUP2 DUP2 ADD PUSH1 0x40 MSTORE DUP2 ADD SWAP1 PUSH2 0x31 SWAP2 SWAP1 PUSH2 0x486 JUMP JUMPDEST PUSH0 DUP3 MLOAD GT PUSH2 0x74 JUMPI PUSH1 0x40 MLOAD PUSH32 0x8C379A000000000000000000000000000000000000000000000000000000000 DUP2 MSTORE PUSH1 0x4 ADD PUSH2 0x6B SWAP1 PUSH2 0x53A JUMP JUMPDEST PUSH1 0x40 MLOAD DUP1 SWAP2 SUB SWAP1 REVERT JUMPDEST PUSH0 DUP2 GT DUP1 ISZERO PUSH2 0x84 JUMPI POP DUP2 MLOAD DUP2 GT ISZERO JUMPDEST PUSH2 0xC3 JUMPI PUSH1 0x40 MLOAD PUSH32 0x8C379A000000000000000000000000000000000000000000000000000000000 DUP2 MSTORE PUSH1 0x4 ADD PUSH2 0xBA SWAP1 PUSH2 0x5A2 JUMP JUMPDEST PUSH1 0x40 MLOAD DUP1 SWAP2 SUB SWAP1 REVERT JUMPDEST PUSH0 JUMPDEST DUP3 MLOAD DUP2 LT ISZERO PUSH2 0x1D1 JUMPI PUSH0 PUSH20 0xFFFFFFFFFFFFFFFFFFFFFFFFFFFFFFFFFFFFFFFF AND DUP4 DUP3 DUP2 MLOAD DUP2 LT PUSH2 0xF8 JUMPI PUSH2 0xF7 PUSH2 0x5C0 JUMP JUMPDEST JUMPDEST PUSH1 0x20 MUL PUSH1 0x20 ADD ADD MLOAD PUSH20 0xFFFFFFFFFFFFFFFFFFFFFFFFFFFFFFFFFFFFFFFF AND SUB PUSH2 0x156 JUMPI PUSH1 0x40 MLOAD PUSH32 0x8C379A000000000000000000000000000000000000000000000000000000000 DUP2 MSTORE PUSH1 0x4 ADD PUSH2 0x14D SWAP1 PUSH2 0x637 JUMP JUMPDEST PUSH1 0x40 MLOAD DUP1 SWAP2 SUB SWAP1 REVERT JUMPDEST PUSH1 0x1 DUP1 PUSH0 DUP6 DUP5 DUP2 MLOAD DUP2 LT PUSH2 0x16D JUMPI PUSH2 0x16C PUSH2 0x5C0 JUMP JUMPDEST JUMPDEST PUSH1 0x20 MUL PUSH1 0x20 ADD ADD MLOAD PUSH20 0xFFFFFFFFFFFFFFFFFFFFFFFFFFFFFFFFFFFFFFFF AND PUSH20 0xFFFFFFFFFFFFFFFFFFFFFFFFFFFFFFFFFFFFFFFF AND DUP2 MSTORE PUSH1 0x20 ADD SWAP1 DUP2 MSTORE PUSH1 0x20 ADD PUSH0 KECCAK256 PUSH0 PUSH2 0x100 EXP DUP2 SLOAD DUP2 PUSH1 0xFF MUL NOT AND SWAP1 DUP4 ISZERO ISZERO MUL OR SWAP1 SSTORE POP DUP1 DUP1 PUSH1 0x1 ADD SWAP2 POP POP PUSH2 0xC5 JUMP JUMPDEST POP DUP2 PUSH0 SWAP1 DUP1 MLOAD SWAP1 PUSH1 0x20 ADD SWAP1 PUSH2 0x1E7 SWAP3 SWAP2 SWAP1 PUSH2 0x1F6 JUMP JUMPDEST POP DUP1 PUSH1 0x2 DUP2 SWAP1 SSTORE POP POP POP PUSH2 0x655 JUMP JUMPDEST DUP3 DUP1 SLOAD DUP3 DUP3 SSTORE SWAP1 PUSH0 MSTORE PUSH1 0x20 PUSH0 KECCAK256 SWAP1 DUP2 ADD SWAP3 DUP3 ISZERO PUSH2 0x26C JUMPI SWAP2 PUSH1 0x20 MUL DUP3 ADD JUMPDEST DUP3 DUP2 GT ISZERO PUSH2 0x26B JUMPI DUP3 MLOAD DUP3 PUSH0 PUSH2 0x100 EXP DUP2 SLOAD DUP2 PUSH20 0xFFFFFFFFFFFFFFFFFFFFFFFFFFFFFFFFFFFFFFFF MUL NOT AND SWAP1 DUP4 PUSH20 0xFFFFFFFFFFFFFFFFFFFFFFFFFFFFFFFFFFFFFFFF AND MUL OR SWAP1 SSTORE POP SWAP2 PUSH1 0x20 ADD SWAP2 SWAP1 PUSH1 0x1 ADD SWAP1 PUSH2 0x214 JUMP JUMPDEST JUMPDEST POP SWAP1 POP PUSH2 0x279 SWAP2 SWAP1 PUSH2 0x27D JUMP JUMPDEST POP SWAP1 JUMP JUMPDEST JUMPDEST DUP1 DUP3 GT ISZERO PUSH2 0x294 JUMPI PUSH0 DUP2 PUSH0 SWAP1 SSTORE POP PUSH1 0x1 ADD PUSH2 0x27E JUMP JUMPDEST POP SWAP1 JUMP JUMPDEST PUSH0 PUSH1 0x40 MLOAD SWAP1 POP SWAP1 JUMP JUMPDEST PUSH0 DUP1 REVERT JUMPDEST PUSH0 DUP1 REVERT JUMPDEST PUSH0 DUP1 REVERT JUMPDEST PUSH0 PUSH1 0x1F NOT PUSH1 0x1F DUP4 ADD AND SWAP1 POP SWAP2 SWAP1 POP JUMP JUMPDEST PUSH32 0x4E487B7100000000000000000000000000000000000000000000000000000000 PUSH0 MSTORE PUSH1 0x41 PUSH1 0x4 MSTORE PUSH1 0x24 PUSH0 REVERT JUMPDEST PUSH2 0x2F3 DUP3 PUSH2 0x2AD JUMP JUMPDEST DUP2 ADD DUP2 DUP2 LT PUSH8 0xFFFFFFFFFFFFFFFF DUP3 GT OR ISZERO PUSH2 0x312 JUMPI PUSH2 0x311 PUSH2 0x2BD JUMP JUMPDEST JUMPDEST DUP1 PUSH1 0x40 MSTORE POP POP POP JUMP JUMPDEST PUSH0 PUSH2 0x324 PUSH2 0x298 JUMP JUMPDEST SWAP1 POP PUSH2 0x330 DUP3 DUP3 PUSH2 0x2EA JUMP JUMPDEST SWAP2 SWAP1 POP JUMP JUMPDEST PUSH0 PUSH8 0xFFFFFFFFFFFFFFFF DUP3 GT ISZERO PUSH2 0x34F JUMPI PUSH2 0x34E PUSH2 0x2BD JUMP JUMPDEST JUMPDEST PUSH1 0x20 DUP3 MUL SWAP1 POP PUSH1 0x20 DUP2 ADD SWAP1 POP SWAP2 SWAP1 POP JUMP JUMPDEST PUSH0 DUP1 REVERT JUMPDEST PUSH0 PUSH20 0xFFFFFFFFFFFFFFFFFFFFFFFFFFFFFFFFFFFFFFFF DUP3 AND SWAP1 POP SWAP2 SWAP1 POP JUMP JUMPDEST PUSH0 PUSH2 0x38D DUP3 PUSH2 0x364 JUMP JUMPDEST SWAP1 POP SWAP2 SWAP1 POP JUMP JUMPDEST PUSH2 0x39D DUP2 PUSH2 0x383 JUMP JUMPDEST DUP2 EQ PUSH2 0x3A7 JUMPI PUSH0 DUP1 REVERT JUMPDEST POP JUMP JUMPDEST PUSH0 DUP2 MLOAD SWAP1 POP PUSH2 0x3B8 DUP2 PUSH2 0x394 JUMP JUMPDEST SWAP3 SWAP2 POP POP JUMP JUMPDEST PUSH0 PUSH2 0x3D0 PUSH2 0x3CB DUP5 PUSH2 0x335 JUMP JUMPDEST PUSH2 0x31B JUMP JUMPDEST SWAP1 POP DUP1 DUP4 DUP3 MSTORE PUSH1 0x20 DUP3 ADD SWAP1 POP PUSH1 0x20 DUP5 MUL DUP4 ADD DUP6 DUP2 GT ISZERO PUSH2 0x3F3 JUMPI PUSH2 0x3F2 PUSH2 0x360 JUMP JUMPDEST JUMPDEST DUP4 JUMPDEST DUP2 DUP2 LT ISZERO PUSH2 0x41C JUMPI DUP1 PUSH2 0x408 DUP9 DUP3 PUSH2 0x3AA JUMP JUMPDEST DUP5 MSTORE PUSH1 0x20 DUP5 ADD SWAP4 POP POP PUSH1 0x20 DUP2 ADD SWAP1 POP PUSH2 0x3F5 JUMP JUMPDEST POP POP POP SWAP4 SWAP3 POP POP POP JUMP JUMPDEST PUSH0 DUP3 PUSH1 0x1F DUP4 ADD SLT PUSH2 0x43A JUMPI PUSH2 0x439 PUSH2 0x2A9 JUMP JUMPDEST JUMPDEST DUP2 MLOAD PUSH2 0x44A DUP5 DUP3 PUSH1 0x20 DUP7 ADD PUSH2 0x3BE JUMP JUMPDEST SWAP2 POP POP SWAP3 SWAP2 POP POP JUMP JUMPDEST PUSH0 DUP2 SWAP1 POP SWAP2 SWAP1 POP JUMP JUMPDEST PUSH2 0x465 DUP2 PUSH2 0x453 JUMP JUMPDEST DUP2 EQ PUSH2 0x46F JUMPI PUSH0 DUP1 REVERT JUMPDEST POP JUMP JUMPDEST PUSH0 DUP2 MLOAD SWAP1 POP PUSH2 0x480 DUP2 PUSH2 0x45C JUMP JUMPDEST SWAP3 SWAP2 POP POP JUMP JUMPDEST PUSH0 DUP1 PUSH1 0x40 DUP4 DUP6 SUB SLT ISZERO PUSH2 0x49C JUMPI PUSH2 0x49B PUSH2 0x2A1 JUMP JUMPDEST JUMPDEST PUSH0 DUP4 ADD MLOAD PUSH8 0xFFFFFFFFFFFFFFFF DUP2 GT ISZERO PUSH2 0x4B9 JUMPI PUSH2 0x4B8 PUSH2 0x2A5 JUMP JUMPDEST JUMPDEST PUSH2 0x4C5 DUP6 DUP3 DUP7 ADD PUSH2 0x426 JUMP JUMPDEST SWAP3 POP POP PUSH1 0x20 PUSH2 0x4D6 DUP6 DUP3 DUP7 ADD PUSH2 0x472 JUMP JUMPDEST SWAP2 POP POP SWAP3 POP SWAP3 SWAP1 POP JUMP JUMPDEST PUSH0 DUP3 DUP3 MSTORE PUSH1 0x20 DUP3 ADD SWAP1 POP SWAP3 SWAP2 POP POP JUMP JUMPDEST PUSH32 0x4174206C65617374206F6E65207369676E657220726571756972656400000000 PUSH0 DUP3 ADD MSTORE POP JUMP JUMPDEST PUSH0 PUSH2 0x524 PUSH1 0x1C DUP4 PUSH2 0x4E0 JUMP JUMPDEST SWAP2 POP PUSH2 0x52F DUP3 PUSH2 0x4F0 JUMP JUMPDEST PUSH1 0x20 DUP3 ADD SWAP1 POP SWAP2 SWAP1 POP JUMP JUMPDEST PUSH0 PUSH1 0x20 DUP3 ADD SWAP1 POP DUP2 DUP2 SUB PUSH0 DUP4 ADD MSTORE PUSH2 0x551 DUP2 PUSH2 0x518 JUMP JUMPDEST SWAP1 POP SWAP2 SWAP1 POP JUMP JUMPDEST PUSH32 0x496E76616C6964206E756D626572206F6620617070726F76616C730000000000 PUSH0 DUP3 ADD MSTORE POP JUMP JUMPDEST PUSH0 PUSH2 0x58C PUSH1 0x1B DUP4 PUSH2 0x4E0 JUMP JUMPDEST SWAP2 POP PUSH2 0x597 DUP3 PUSH2 0x558 JUMP JUMPDEST PUSH1 0x20 DUP3 ADD SWAP1 POP SWAP2 SWAP1 POP JUMP JUMPDEST PUSH0 PUSH1 0x20 DUP3 ADD SWAP1 POP DUP2 DUP2 SUB PUSH0 DUP4 ADD MSTORE PUSH2 0x5B9 DUP2 PUSH2 0x580 JUMP JUMPDEST SWAP1 POP SWAP2 SWAP1 POP JUMP JUMPDEST PUSH32 0x4E487B7100000000000000000000000000000000000000000000000000000000 PUSH0 MSTORE PUSH1 0x32 PUSH1 0x4 MSTORE PUSH1 0x24 PUSH0 REVERT JUMPDEST PUSH32 0x496E76616C6964207369676E6572000000000000000000000000000000000000 PUSH0 DUP3 ADD MSTORE POP JUMP JUMPDEST PUSH0 PUSH2 0x621 PUSH1 0xE DUP4 PUSH2 0x4E0 JUMP JUMPDEST SWAP2 POP PUSH2 0x62C DUP3 PUSH2 0x5ED JUMP JUMPDEST PUSH1 0x20 DUP3 ADD SWAP1 POP SWAP2 SWAP1 POP JUMP JUMPDEST PUSH0 PUSH1 0x20 DUP3 ADD SWAP1 POP DUP2 DUP2 SUB PUSH0 DUP4 ADD MSTORE PUSH2 0x64E DUP2 PUSH2 0x615 JUMP JUMPDEST SWAP1 POP SWAP2 SWAP1 POP JUMP JUMPDEST PUSH2 0xBA3 DUP1 PUSH2 0x662 PUSH0 CODECOPY PUSH0 RETURN INVALID PUSH1 0x80 PUSH1 0x40 MSTORE PUSH1 0x4 CALLDATASIZE LT PUSH2 0x58 JUMPI PUSH0 CALLDATALOAD PUSH1 0xE0 SHR DUP1 PUSH4 0x1E7F8F0F EQ PUSH2 0x63 JUMPI DUP1 PUSH4 0x2079FB9A EQ PUSH2 0x8B JUMPI DUP1 PUSH4 0x242232D1 EQ PUSH2 0xC7 JUMPI DUP1 PUSH4 0x7DF73E27 EQ PUSH2 0xEF JUMPI DUP1 PUSH4 0x99C1AADC EQ PUSH2 0x12B JUMPI DUP1 PUSH4 0x9ACE38C2 EQ PUSH2 0x155 JUMPI PUSH2 0x5F JUMP JUMPDEST CALLDATASIZE PUSH2 0x5F JUMPI STOP JUMPDEST PUSH0 DUP1 REVERT JUMPDEST CALLVALUE DUP1 ISZERO PUSH2 0x6E JUMPI PUSH0 DUP1 REVERT JUMPDEST POP PUSH2 0x89 PUSH1 0x4 DUP1 CALLDATASIZE SUB DUP2 ADD SWAP1 PUSH2 0x84 SWAP2 SWAP1 PUSH2 0x78F JUMP JUMPDEST PUSH2 0x194 JUMP JUMPDEST STOP JUMPDEST CALLVALUE DUP1 ISZERO PUSH2 0x96 JUMPI PUSH0 DUP1 REVERT JUMPDEST POP PUSH2 0xB1 PUSH1 0x4 DUP1 CALLDATASIZE SUB DUP2 ADD SWAP1 PUSH2 0xAC SWAP2 SWAP1 PUSH2 0x7CD JUMP JUMPDEST PUSH2 0x2E0 JUMP JUMPDEST PUSH1 0x40 MLOAD PUSH2 0xBE SWAP2 SWAP1 PUSH2 0x807 JUMP JUMPDEST PUSH1 0x40 MLOAD DUP1 SWAP2 SUB SWAP1 RETURN JUMPDEST CALLVALUE DUP1 ISZERO PUSH2 0xD2 JUMPI PUSH0 DUP1 REVERT JUMPDEST POP PUSH2 0xED PUSH1 0x4 DUP1 CALLDATASIZE SUB DUP2 ADD SWAP1 PUSH2 0xE8 SWAP2 SWAP1 PUSH2 0x7CD JUMP JUMPDEST PUSH2 0x31A JUMP JUMPDEST STOP JUMPDEST CALLVALUE DUP1 ISZERO PUSH2 0xFA JUMPI PUSH0 DUP1 REVERT JUMPDEST POP PUSH2 0x115 PUSH1 0x4 DUP1 CALLDATASIZE SUB DUP2 ADD SWAP1 PUSH2 0x110 SWAP2 SWAP1 PUSH2 0x820 JUMP JUMPDEST PUSH2 0x52E JUMP JUMPDEST PUSH1 0x40 MLOAD PUSH2 0x122 SWAP2 SWAP1 PUSH2 0x865 JUMP JUMPDEST PUSH1 0x40 MLOAD DUP1 SWAP2 SUB SWAP1 RETURN JUMPDEST CALLVALUE DUP1 ISZERO PUSH2 0x136 JUMPI PUSH0 DUP1 REVERT JUMPDEST POP PUSH2 0x13F PUSH2 0x54B JUMP JUMPDEST PUSH1 0x40 MLOAD PUSH2 0x14C SWAP2 SWAP1 PUSH2 0x88D JUMP JUMPDEST PUSH1 0x40 MLOAD DUP1 SWAP2 SUB SWAP1 RETURN JUMPDEST CALLVALUE DUP1 ISZERO PUSH2 0x160 JUMPI PUSH0 DUP1 REVERT JUMPDEST POP PUSH2 0x17B PUSH1 0x4 DUP1 CALLDATASIZE SUB DUP2 ADD SWAP1 PUSH2 0x176 SWAP2 SWAP1 PUSH2 0x7CD JUMP JUMPDEST PUSH2 0x551 JUMP JUMPDEST PUSH1 0x40 MLOAD PUSH2 0x18B SWAP5 SWAP4 SWAP3 SWAP2 SWAP1 PUSH2 0x8A6 JUMP JUMPDEST PUSH1 0x40 MLOAD DUP1 SWAP2 SUB SWAP1 RETURN JUMPDEST PUSH1 0x1 PUSH0 CALLER PUSH20 0xFFFFFFFFFFFFFFFFFFFFFFFFFFFFFFFFFFFFFFFF AND PUSH20 0xFFFFFFFFFFFFFFFFFFFFFFFFFFFFFFFFFFFFFFFF AND DUP2 MSTORE PUSH1 0x20 ADD SWAP1 DUP2 MSTORE PUSH1 0x20 ADD PUSH0 KECCAK256 PUSH0 SWAP1 SLOAD SWAP1 PUSH2 0x100 EXP SWAP1 DIV PUSH1 0xFF AND PUSH2 0x21D JUMPI PUSH1 0x40 MLOAD PUSH32 0x8C379A000000000000000000000000000000000000000000000000000000000 DUP2 MSTORE PUSH1 0x4 ADD PUSH2 0x214 SWAP1 PUSH2 0x943 JUMP JUMPDEST PUSH1 0x40 MLOAD DUP1 SWAP2 SUB SWAP1 REVERT JUMPDEST PUSH1 0x3 PUSH1 0x1 DUP2 PUSH1 0x1 DUP2 SLOAD ADD DUP1 DUP3 SSTORE DUP1 SWAP2 POP POP SUB SWAP1 PUSH0 MSTORE PUSH1 0x20 PUSH0 KECCAK256 SWAP1 POP POP PUSH0 PUSH1 0x3 PUSH1 0x1 PUSH1 0x3 DUP1 SLOAD SWAP1 POP PUSH2 0x24E SWAP2 SWAP1 PUSH2 0x98E JUMP JUMPDEST DUP2 SLOAD DUP2 LT PUSH2 0x25F JUMPI PUSH2 0x25E PUSH2 0x9C1 JUMP JUMPDEST JUMPDEST SWAP1 PUSH0 MSTORE PUSH1 0x20 PUSH0 KECCAK256 SWAP1 PUSH1 0x5 MUL ADD SWAP1 POP DUP3 DUP2 PUSH0 ADD PUSH0 PUSH2 0x100 EXP DUP2 SLOAD DUP2 PUSH20 0xFFFFFFFFFFFFFFFFFFFFFFFFFFFFFFFFFFFFFFFF MUL NOT AND SWAP1 DUP4 PUSH20 0xFFFFFFFFFFFFFFFFFFFFFFFFFFFFFFFFFFFFFFFF AND MUL OR SWAP1 SSTORE POP DUP2 DUP2 PUSH1 0x1 ADD DUP2 SWAP1 SSTORE POP PUSH0 DUP2 PUSH1 0x2 ADD PUSH0 PUSH2 0x100 EXP DUP2 SLOAD DUP2 PUSH1 0xFF MUL NOT AND SWAP1 DUP4 ISZERO ISZERO MUL OR SWAP1 SSTORE POP PUSH0 DUP2 PUSH1 0x3 ADD DUP2 SWAP1 SSTORE POP POP POP POP JUMP JUMPDEST PUSH0 DUP2 DUP2 SLOAD DUP2 LT PUSH2 0x2EE JUMPI PUSH0 DUP1 REVERT JUMPDEST SWAP1 PUSH0 MSTORE PUSH1 0x20 PUSH0 KECCAK256 ADD PUSH0 SWAP2 POP SLOAD SWAP1 PUSH2 0x100 EXP SWAP1 DIV PUSH20 0xFFFFFFFFFFFFFFFFFFFFFFFFFFFFFFFFFFFFFFFF AND DUP2 JUMP JUMPDEST PUSH1 0x1 PUSH0 CALLER PUSH20 0xFFFFFFFFFFFFFFFFFFFFFFFFFFFFFFFFFFFFFFFF AND PUSH20 0xFFFFFFFFFFFFFFFFFFFFFFFFFFFFFFFFFFFFFFFF AND DUP2 MSTORE PUSH1 0x20 ADD SWAP1 DUP2 MSTORE PUSH1 0x20 ADD PUSH0 KECCAK256 PUSH0 SWAP1 SLOAD SWAP1 PUSH2 0x100 EXP SWAP1 DIV PUSH1 0xFF AND PUSH2 0x3A3 JUMPI PUSH1 0x40 MLOAD PUSH32 0x8C379A000000000000000000000000000000000000000000000000000000000 DUP2 MSTORE PUSH1 0x4 ADD PUSH2 0x39A SWAP1 PUSH2 0x943 JUMP JUMPDEST PUSH1 0x40 MLOAD DUP1 SWAP2 SUB SWAP1 REVERT JUMPDEST PUSH0 PUSH1 0x3 DUP3 DUP2 SLOAD DUP2 LT PUSH2 0x3B8 JUMPI PUSH2 0x3B7 PUSH2 0x9C1 JUMP JUMPDEST JUMPDEST SWAP1 PUSH0 MSTORE PUSH1 0x20 PUSH0 KECCAK256 SWAP1 PUSH1 0x5 MUL ADD SWAP1 POP DUP1 PUSH1 0x4 ADD PUSH0 CALLER PUSH20 0xFFFFFFFFFFFFFFFFFFFFFFFFFFFFFFFFFFFFFFFF AND PUSH20 0xFFFFFFFFFFFFFFFFFFFFFFFFFFFFFFFFFFFFFFFF AND DUP2 MSTORE PUSH1 0x20 ADD SWAP1 DUP2 MSTORE PUSH1 0x20 ADD PUSH0 KECCAK256 PUSH0 SWAP1 SLOAD SWAP1 PUSH2 0x100 EXP SWAP1 DIV PUSH1 0xFF AND ISZERO PUSH2 0x452 JUMPI PUSH1 0x40 MLOAD PUSH32 0x8C379A000000000000000000000000000000000000000000000000000000000 DUP2 MSTORE PUSH1 0x4 ADD PUSH2 0x449 SWAP1 PUSH2 0xA38 JUMP JUMPDEST PUSH1 0x40 MLOAD DUP1 SWAP2 SUB SWAP1 REVERT JUMPDEST DUP1 PUSH1 0x2 ADD PUSH0 SWAP1 SLOAD SWAP1 PUSH2 0x100 EXP SWAP1 DIV PUSH1 0xFF AND ISZERO PUSH2 0x4A3 JUMPI PUSH1 0x40 MLOAD PUSH32 0x8C379A000000000000000000000000000000000000000000000000000000000 DUP2 MSTORE PUSH1 0x4 ADD PUSH2 0x49A SWAP1 PUSH2 0xAA0 JUMP JUMPDEST PUSH1 0x40 MLOAD DUP1 SWAP2 SUB SWAP1 REVERT JUMPDEST PUSH1 0x1 DUP2 PUSH1 0x4 ADD PUSH0 CALLER PUSH20 0xFFFFFFFFFFFFFFFFFFFFFFFFFFFFFFFFFFFFFFFF AND PUSH20 0xFFFFFFFFFFFFFFFFFFFFFFFFFFFFFFFFFFFFFFFF AND DUP2 MSTORE PUSH1 0x20 ADD SWAP1 DUP2 MSTORE PUSH1 0x20 ADD PUSH0 KECCAK256 PUSH0 PUSH2 0x100 EXP DUP2 SLOAD DUP2 PUSH1 0xFF MUL NOT AND SWAP1 DUP4 ISZERO ISZERO MUL OR SWAP1 SSTORE POP DUP1 PUSH1 0x3 ADD PUSH0 DUP2 SLOAD DUP1 SWAP3 SWAP2 SWAP1 PUSH2 0x50E SWAP1 PUSH2 0xABE JUMP JUMPDEST SWAP2 SWAP1 POP SSTORE POP PUSH1 0x2 SLOAD DUP2 PUSH1 0x3 ADD SLOAD LT PUSH2 0x52A JUMPI PUSH2 0x529 DUP3 PUSH2 0x5B7 JUMP JUMPDEST JUMPDEST POP POP JUMP JUMPDEST PUSH1 0x1 PUSH1 0x20 MSTORE DUP1 PUSH0 MSTORE PUSH1 0x40 PUSH0 KECCAK256 PUSH0 SWAP2 POP SLOAD SWAP1 PUSH2 0x100 EXP SWAP1 DIV PUSH1 0xFF AND DUP2 JUMP JUMPDEST PUSH1 0x2 SLOAD DUP2 JUMP JUMPDEST PUSH1 0x3 DUP2 DUP2 SLOAD DUP2 LT PUSH2 0x560 JUMPI PUSH0 DUP1 REVERT JUMPDEST SWAP1 PUSH0 MSTORE PUSH1 0x20 PUSH0 KECCAK256 SWAP1 PUSH1 0x5 MUL ADD PUSH0 SWAP2 POP SWAP1 POP DUP1 PUSH0 ADD PUSH0 SWAP1 SLOAD SWAP1 PUSH2 0x100 EXP SWAP1 DIV PUSH20 0xFFFFFFFFFFFFFFFFFFFFFFFFFFFFFFFFFFFFFFFF AND SWAP1 DUP1 PUSH1 0x1 ADD SLOAD SWAP1 DUP1 PUSH1 0x2 ADD PUSH0 SWAP1 SLOAD SWAP1 PUSH2 0x100 EXP SWAP1 DIV PUSH1 0xFF AND SWAP1 DUP1 PUSH1 0x3 ADD SLOAD SWAP1 POP DUP5 JUMP JUMPDEST PUSH0 PUSH1 0x3 DUP3 DUP2 SLOAD DUP2 LT PUSH2 0x5CC JUMPI PUSH2 0x5CB PUSH2 0x9C1 JUMP JUMPDEST JUMPDEST SWAP1 PUSH0 MSTORE PUSH1 0x20 PUSH0 KECCAK256 SWAP1 PUSH1 0x5 MUL ADD SWAP1 POP PUSH1 0x2 SLOAD DUP2 PUSH1 0x3 ADD SLOAD LT ISZERO PUSH2 0x623 JUMPI PUSH1 0x40 MLOAD PUSH32 0x8C379A000000000000000000000000000000000000000000000000000000000 DUP2 MSTORE PUSH1 0x4 ADD PUSH2 0x61A SWAP1 PUSH2 0xB4F JUMP JUMPDEST PUSH1 0x40 MLOAD DUP1 SWAP2 SUB SWAP1 REVERT JUMPDEST DUP1 PUSH1 0x2 ADD PUSH0 SWAP1 SLOAD SWAP1 PUSH2 0x100 EXP SWAP1 DIV PUSH1 0xFF AND ISZERO PUSH2 0x674 JUMPI PUSH1 0x40 MLOAD PUSH32 0x8C379A000000000000000000000000000000000000000000000000000000000 DUP2 MSTORE PUSH1 0x4 ADD PUSH2 0x66B SWAP1 PUSH2 0xAA0 JUMP JUMPDEST PUSH1 0x40 MLOAD DUP1 SWAP2 SUB SWAP1 REVERT JUMPDEST PUSH1 0x1 DUP2 PUSH1 0x2 ADD PUSH0 PUSH2 0x100 EXP DUP2 SLOAD DUP2 PUSH1 0xFF MUL NOT AND SWAP1 DUP4 ISZERO ISZERO MUL OR SWAP1 SSTORE POP DUP1 PUSH0 ADD PUSH0 SWAP1 SLOAD SWAP1 PUSH2 0x100 EXP SWAP1 DIV PUSH20 0xFFFFFFFFFFFFFFFFFFFFFFFFFFFFFFFFFFFFFFFF AND PUSH20 0xFFFFFFFFFFFFFFFFFFFFFFFFFFFFFFFFFFFFFFFF AND PUSH2 0x8FC DUP3 PUSH1 0x1 ADD SLOAD SWAP1 DUP2 ISZERO MUL SWAP1 PUSH1 0x40 MLOAD PUSH0 PUSH1 0x40 MLOAD DUP1 DUP4 SUB DUP2 DUP6 DUP9 DUP9 CALL SWAP4 POP POP POP POP ISZERO DUP1 ISZERO PUSH2 0x6F9 JUMPI RETURNDATASIZE PUSH0 DUP1 RETURNDATACOPY RETURNDATASIZE PUSH0 REVERT JUMPDEST POP POP POP JUMP JUMPDEST PUSH0 DUP1 REVERT JUMPDEST PUSH0 PUSH20 0xFFFFFFFFFFFFFFFFFFFFFFFFFFFFFFFFFFFFFFFF DUP3 AND SWAP1 POP SWAP2 SWAP1 POP JUMP JUMPDEST PUSH0 PUSH2 0x72B DUP3 PUSH2 0x702 JUMP JUMPDEST SWAP1 POP SWAP2 SWAP1 POP JUMP JUMPDEST PUSH2 0x73B DUP2 PUSH2 0x721 JUMP JUMPDEST DUP2 EQ PUSH2 0x745 JUMPI PUSH0 DUP1 REVERT JUMPDEST POP JUMP JUMPDEST PUSH0 DUP2 CALLDATALOAD SWAP1 POP PUSH2 0x756 DUP2 PUSH2 0x732 JUMP JUMPDEST SWAP3 SWAP2 POP POP JUMP JUMPDEST PUSH0 DUP2 SWAP1 POP SWAP2 SWAP1 POP JUMP JUMPDEST PUSH2 0x76E DUP2 PUSH2 0x75C JUMP JUMPDEST DUP2 EQ PUSH2 0x778 JUMPI PUSH0 DUP1 REVERT JUMPDEST POP JUMP JUMPDEST PUSH0 DUP2 CALLDATALOAD SWAP1 POP PUSH2 0x789 DUP2 PUSH2 0x765 JUMP JUMPDEST SWAP3 SWAP2 POP POP JUMP JUMPDEST PUSH0 DUP1 PUSH1 0x40 DUP4 DUP6 SUB SLT ISZERO PUSH2 0x7A5 JUMPI PUSH2 0x7A4 PUSH2 0x6FE JUMP JUMPDEST JUMPDEST PUSH0 PUSH2 0x7B2 DUP6 DUP3 DUP7 ADD PUSH2 0x748 JUMP JUMPDEST SWAP3 POP POP PUSH1 0x20 PUSH2 0x7C3 DUP6 DUP3 DUP7 ADD PUSH2 0x77B JUMP JUMPDEST SWAP2 POP POP SWAP3 POP SWAP3 SWAP1 POP JUMP JUMPDEST PUSH0 PUSH1 0x20 DUP3 DUP5 SUB SLT ISZERO PUSH2 0x7E2 JUMPI PUSH2 0x7E1 PUSH2 0x6FE JUMP JUMPDEST JUMPDEST PUSH0 PUSH2 0x7EF DUP5 DUP3 DUP6 ADD PUSH2 0x77B JUMP JUMPDEST SWAP2 POP POP SWAP3 SWAP2 POP POP JUMP JUMPDEST PUSH2 0x801 DUP2 PUSH2 0x721 JUMP JUMPDEST DUP3 MSTORE POP POP JUMP JUMPDEST PUSH0 PUSH1 0x20 DUP3 ADD SWAP1 POP PUSH2 0x81A PUSH0 DUP4 ADD DUP5 PUSH2 0x7F8 JUMP JUMPDEST SWAP3 SWAP2 POP POP JUMP JUMPDEST PUSH0 PUSH1 0x20 DUP3 DUP5 SUB SLT ISZERO PUSH2 0x835 JUMPI PUSH2 0x834 PUSH2 0x6FE JUMP JUMPDEST JUMPDEST PUSH0 PUSH2 0x842 DUP5 DUP3 DUP6 ADD PUSH2 0x748 JUMP JUMPDEST SWAP2 POP POP SWAP3 SWAP2 POP POP JUMP JUMPDEST PUSH0 DUP2 ISZERO ISZERO SWAP1 POP SWAP2 SWAP1 POP JUMP JUMPDEST PUSH2 0x85F DUP2 PUSH2 0x84B JUMP JUMPDEST DUP3 MSTORE POP POP JUMP JUMPDEST PUSH0 PUSH1 0x20 DUP3 ADD SWAP1 POP PUSH2 0x878 PUSH0 DUP4 ADD DUP5 PUSH2 0x856 JUMP JUMPDEST SWAP3 SWAP2 POP POP JUMP JUMPDEST PUSH2 0x887 DUP2 PUSH2 0x75C JUMP JUMPDEST DUP3 MSTORE POP POP JUMP JUMPDEST PUSH0 PUSH1 0x20 DUP3 ADD SWAP1 POP PUSH2 0x8A0 PUSH0 DUP4 ADD DUP5 PUSH2 0x87E JUMP JUMPDEST SWAP3 SWAP2 POP POP JUMP JUMPDEST PUSH0 PUSH1 0x80 DUP3 ADD SWAP1 POP PUSH2 0x8B9 PUSH0 DUP4 ADD DUP8 PUSH2 0x7F8 JUMP JUMPDEST PUSH2 0x8C6 PUSH1 0x20 DUP4 ADD DUP7 PUSH2 0x87E JUMP JUMPDEST PUSH2 0x8D3 PUSH1 0x40 DUP4 ADD DUP6 PUSH2 0x856 JUMP JUMPDEST PUSH2 0x8E0 PUSH1 0x60 DUP4 ADD DUP5 PUSH2 0x87E JUMP JUMPDEST SWAP6 SWAP5 POP POP POP POP POP JUMP JUMPDEST PUSH0 DUP3 DUP3 MSTORE PUSH1 0x20 DUP3 ADD SWAP1 POP SWAP3 SWAP2 POP POP JUMP JUMPDEST PUSH32 0x4E6F742061207369676E65720000000000000000000000000000000000000000 PUSH0 DUP3 ADD MSTORE POP JUMP JUMPDEST PUSH0 PUSH2 0x92D PUSH1 0xC DUP4 PUSH2 0x8E9 JUMP JUMPDEST SWAP2 POP PUSH2 0x938 DUP3 PUSH2 0x8F9 JUMP JUMPDEST PUSH1 0x20 DUP3 ADD SWAP1 POP SWAP2 SWAP1 POP JUMP JUMPDEST PUSH0 PUSH1 0x20 DUP3 ADD SWAP1 POP DUP2 DUP2 SUB PUSH0 DUP4 ADD MSTORE PUSH2 0x95A DUP2 PUSH2 0x921 JUMP JUMPDEST SWAP1 POP SWAP2 SWAP1 POP JUMP JUMPDEST PUSH32 0x4E487B7100000000000000000000000000000000000000000000000000000000 PUSH0 MSTORE PUSH1 0x11 PUSH1 0x4 MSTORE PUSH1 0x24 PUSH0 REVERT JUMPDEST PUSH0 PUSH2 0x998 DUP3 PUSH2 0x75C JUMP JUMPDEST SWAP2 POP PUSH2 0x9A3 DUP4 PUSH2 0x75C JUMP JUMPDEST SWAP3 POP DUP3 DUP3 SUB SWAP1 POP DUP2 DUP2 GT ISZERO PUSH2 0x9BB JUMPI PUSH2 0x9BA PUSH2 0x961 JUMP JUMPDEST JUMPDEST SWAP3 SWAP2 POP POP JUMP JUMPDEST PUSH32 0x4E487B7100000000000000000000000000000000000000000000000000000000 PUSH0 MSTORE PUSH1 0x32 PUSH1 0x4 MSTORE PUSH1 0x24 PUSH0 REVERT JUMPDEST PUSH32 0x5472616E73616374696F6E20616C726561647920617070726F76656400000000 PUSH0 DUP3 ADD MSTORE POP JUMP JUMPDEST PUSH0 PUSH2 0xA22 PUSH1 0x1C DUP4 PUSH2 0x8E9 JUMP JUMPDEST SWAP2 POP PUSH2 0xA2D DUP3 PUSH2 0x9EE JUMP JUMPDEST PUSH1 0x20 DUP3 ADD SWAP1 POP SWAP2 SWAP1 POP JUMP JUMPDEST PUSH0 PUSH1 0x20 DUP3 ADD SWAP1 POP DUP2 DUP2 SUB PUSH0 DUP4 ADD MSTORE PUSH2 0xA4F DUP2 PUSH2 0xA16 JUMP JUMPDEST SWAP1 POP SWAP2 SWAP1 POP JUMP JUMPDEST PUSH32 0x5472616E73616374696F6E20616C726561647920657865637574656400000000 PUSH0 DUP3 ADD MSTORE POP JUMP JUMPDEST PUSH0 PUSH2 0xA8A PUSH1 0x1C DUP4 PUSH2 0x8E9 JUMP JUMPDEST SWAP2 POP PUSH2 0xA95 DUP3 PUSH2 0xA56 JUMP JUMPDEST PUSH1 0x20 DUP3 ADD SWAP1 POP SWAP2 SWAP1 POP JUMP JUMPDEST PUSH0 PUSH1 0x20 DUP3 ADD SWAP1 POP DUP2 DUP2 SUB PUSH0 DUP4 ADD MSTORE PUSH2 0xAB7 DUP2 PUSH2 0xA7E JUMP JUMPDEST SWAP1 POP SWAP2 SWAP1 POP JUMP JUMPDEST PUSH0 PUSH2 0xAC8 DUP3 PUSH2 0x75C JUMP JUMPDEST SWAP2 POP PUSH32 0xFFFFFFFFFFFFFFFFFFFFFFFFFFFFFFFFFFFFFFFFFFFFFFFFFFFFFFFFFFFFFFFF DUP3 SUB PUSH2 0xAFA JUMPI PUSH2 0xAF9 PUSH2 0x961 JUMP JUMPDEST JUMPDEST PUSH1 0x1 DUP3 ADD SWAP1 POP SWAP2 SWAP1 POP JUMP JUMPDEST PUSH32 0x4E6F7420656E6F75676820617070726F76616C73000000000000000000000000 PUSH0 DUP3 ADD MSTORE POP JUMP JUMPDEST PUSH0 PUSH2 0xB39 PUSH1 0x14 DUP4 PUSH2 0x8E9 JUMP JUMPDEST SWAP2 POP PUSH2 0xB44 DUP3 PUSH2 0xB05 JUMP JUMPDEST PUSH1 0x20 DUP3 ADD SWAP1 POP SWAP2 SWAP1 POP JUMP JUMPDEST PUSH0 PUSH1 0x20 DUP3 ADD SWAP1 POP DUP2 DUP2 SUB PUSH0 DUP4 ADD MSTORE PUSH2 0xB66 DUP2 PUSH2 0xB2D JUMP JUMPDEST SWAP1 POP SWAP2 SWAP1 POP JUMP INVALID LOG2 PUSH5 0x6970667358 0x22 SLT KECCAK256 PC DUP16 RETURN DUP15 MSIZE 0x2B CALLDATALOAD PUSH15 0x332404F3F2F9EE7EEC44605E8724BE SWAP12 0xF SHR 0xE0 BLOBBASEFEE EXTCODECOPY SHR 0xC2 STATICCALL PUSH5 0x736F6C6343 STOP ADDMOD BYTE STOP CALLER LOG2 PUSH5 0x6970667358 0x22 SLT KECCAK256 PUSH32 0x959082F0FB67CA42938B09698C5F480FCD9D362AFCE35AC916C870616F8CA764 PUSH20 0x6F6C634300081A00330000000000000000000000 "
		},
		"gasEstimates": {
			"creation": {
				"codeDepositCost": "2829600",
				"executionCost": "infinite",
				"totalCost": "infinite"
			},
			"external": {
				"campaignCount()": "2425",
				"campaignExists(uint256)": "2830",
				"campaigns(uint256)": "infinite",
				"createCampaign(string,string,uint256,address[],uint256)": "infinite",
				"donate(uint256)": "infinite",
				"donations(uint256,address)": "infinite",
				"getCampaign(uint256)": "infinite",
				"getDonators(uint256)": "infinite",
				"postFundUtilization(uint256,string)": "infinite",
				"profileManager()": "infinite",
				"withdrawFunds(uint256,address,uint256)": "infinite"
			}
		},
		"methodIdentifiers": {
			"campaignCount()": "7274e30d",
			"campaignExists(uint256)": "3b594a68",
			"campaigns(uint256)": "141961bc",
			"createCampaign(string,string,uint256,address[],uint256)": "e2c341a2",
			"donate(uint256)": "f14faf6f",
			"donations(uint256,address)": "ee1554a3",
			"getCampaign(uint256)": "5598f8cc",
			"getDonators(uint256)": "0fa91fa9",
			"postFundUtilization(uint256,string)": "4a7de20a",
			"profileManager()": "f3f5142e",
			"withdrawFunds(uint256,address,uint256)": "f8f34cde"
		}
	},
	"abi": [
		{
			"inputs": [
				{
					"internalType": "address",
					"name": "_profileManagerAddress",
					"type": "address"
				}
			],
			"stateMutability": "nonpayable",
			"type": "constructor"
		},
		{
			"inputs": [],
			"name": "campaignCount",
			"outputs": [
				{
					"internalType": "uint256",
					"name": "",
					"type": "uint256"
				}
			],
			"stateMutability": "view",
			"type": "function"
		},
		{
			"inputs": [
				{
					"internalType": "uint256",
					"name": "",
					"type": "uint256"
				}
			],
			"name": "campaignExists",
			"outputs": [
				{
					"internalType": "bool",
					"name": "",
					"type": "bool"
				}
			],
			"stateMutability": "view",
			"type": "function"
		},
		{
			"inputs": [
				{
					"internalType": "uint256",
					"name": "",
					"type": "uint256"
				}
			],
			"name": "campaigns",
			"outputs": [
				{
					"internalType": "address",
					"name": "owner",
					"type": "address"
				},
				{
					"internalType": "string",
					"name": "title",
					"type": "string"
				},
				{
					"internalType": "string",
					"name": "description",
					"type": "string"
				},
				{
					"internalType": "uint256",
					"name": "target",
					"type": "uint256"
				},
				{
					"internalType": "uint256",
					"name": "amountCollected",
					"type": "uint256"
				},
				{
					"internalType": "uint256",
					"name": "totalWithdrawn",
					"type": "uint256"
				},
				{
					"internalType": "contract MultiSigWallet",
					"name": "multiSigWallet",
					"type": "address"
				}
			],
			"stateMutability": "view",
			"type": "function"
		},
		{
			"inputs": [
				{
					"internalType": "string",
					"name": "_title",
					"type": "string"
				},
				{
					"internalType": "string",
					"name": "_description",
					"type": "string"
				},
				{
					"internalType": "uint256",
					"name": "_target",
					"type": "uint256"
				},
				{
					"internalType": "address[]",
					"name": "_signers",
					"type": "address[]"
				},
				{
					"internalType": "uint256",
					"name": "_requiredApprovals",
					"type": "uint256"
				}
			],
			"name": "createCampaign",
			"outputs": [],
			"stateMutability": "nonpayable",
			"type": "function"
		},
		{
			"inputs": [
				{
					"internalType": "uint256",
					"name": "_campaignId",
					"type": "uint256"
				}
			],
			"name": "donate",
			"outputs": [],
			"stateMutability": "payable",
			"type": "function"
		},
		{
			"inputs": [
				{
					"internalType": "uint256",
					"name": "",
					"type": "uint256"
				},
				{
					"internalType": "address",
					"name": "",
					"type": "address"
				}
			],
			"name": "donations",
			"outputs": [
				{
					"internalType": "uint256",
					"name": "",
					"type": "uint256"
				}
			],
			"stateMutability": "view",
			"type": "function"
		},
		{
			"inputs": [
				{
					"internalType": "uint256",
					"name": "_campaignId",
					"type": "uint256"
				}
			],
			"name": "getCampaign",
			"outputs": [
				{
					"components": [
						{
							"internalType": "address",
							"name": "owner",
							"type": "address"
						},
						{
							"internalType": "string",
							"name": "title",
							"type": "string"
						},
						{
							"internalType": "string",
							"name": "description",
							"type": "string"
						},
						{
							"internalType": "uint256",
							"name": "target",
							"type": "uint256"
						},
						{
							"internalType": "uint256",
							"name": "amountCollected",
							"type": "uint256"
						},
						{
							"internalType": "uint256",
							"name": "totalWithdrawn",
							"type": "uint256"
						},
						{
							"internalType": "string[]",
							"name": "fundUtilization",
							"type": "string[]"
						},
						{
							"internalType": "address[]",
							"name": "donators",
							"type": "address[]"
						},
						{
							"internalType": "contract MultiSigWallet",
							"name": "multiSigWallet",
							"type": "address"
						}
					],
					"internalType": "struct Donation.Campaign",
					"name": "",
					"type": "tuple"
				}
			],
			"stateMutability": "view",
			"type": "function"
		},
		{
			"inputs": [
				{
					"internalType": "uint256",
					"name": "_campaignId",
					"type": "uint256"
				}
			],
			"name": "getDonators",
			"outputs": [
				{
					"internalType": "address[]",
					"name": "",
					"type": "address[]"
				}
			],
			"stateMutability": "view",
			"type": "function"
		},
		{
			"inputs": [
				{
					"internalType": "uint256",
					"name": "_campaignId",
					"type": "uint256"
				},
				{
					"internalType": "string",
					"name": "_utilizationDescription",
					"type": "string"
				}
			],
			"name": "postFundUtilization",
			"outputs": [],
			"stateMutability": "nonpayable",
			"type": "function"
		},
		{
			"inputs": [],
			"name": "profileManager",
			"outputs": [
				{
					"internalType": "contract ProfileManager",
					"name": "",
					"type": "address"
				}
			],
			"stateMutability": "view",
			"type": "function"
		},
		{
			"inputs": [
				{
					"internalType": "uint256",
					"name": "_campaignId",
					"type": "uint256"
				},
				{
					"internalType": "address",
					"name": "_to",
					"type": "address"
				},
				{
					"internalType": "uint256",
					"name": "_amount",
					"type": "uint256"
				}
			],
			"name": "withdrawFunds",
			"outputs": [],
			"stateMutability": "nonpayable",
			"type": "function"
		},
		{
			"stateMutability": "payable",
			"type": "receive"
		}
	]
}