{
	"contracts/Donations.sol": {
		"Donation": {
			"abi": [
				{
					"inputs": [],
					"name": "campaignCount",
					"outputs": [
						{
							"internalType": "uint256",
							"name": "",
							"type": "uint256"
						}
					],
					"stateMutability": "view",
					"type": "function"
				},
				{
					"inputs": [
						{
							"internalType": "uint256",
							"name": "",
							"type": "uint256"
						}
					],
					"name": "campaignExists",
					"outputs": [
						{
							"internalType": "bool",
							"name": "",
							"type": "bool"
						}
					],
					"stateMutability": "view",
					"type": "function"
				},
				{
					"inputs": [
						{
							"internalType": "uint256",
							"name": "",
							"type": "uint256"
						}
					],
					"name": "campaigns",
					"outputs": [
						{
							"internalType": "address",
							"name": "owner",
							"type": "address"
						},
						{
							"internalType": "string",
							"name": "title",
							"type": "string"
						},
						{
							"internalType": "string",
							"name": "description",
							"type": "string"
						},
						{
							"internalType": "uint256",
							"name": "target",
							"type": "uint256"
						},
						{
							"internalType": "uint256",
							"name": "amountCollected",
							"type": "uint256"
						}
					],
					"stateMutability": "view",
					"type": "function"
				},
				{
					"inputs": [
						{
							"internalType": "string",
							"name": "_title",
							"type": "string"
						},
						{
							"internalType": "string",
							"name": "_description",
							"type": "string"
						},
						{
							"internalType": "uint256",
							"name": "_target",
							"type": "uint256"
						}
					],
					"name": "createCampaign",
					"outputs": [],
					"stateMutability": "nonpayable",
					"type": "function"
				},
				{
					"inputs": [
						{
							"internalType": "uint256",
							"name": "_campaignId",
							"type": "uint256"
						}
					],
					"name": "donate",
					"outputs": [],
					"stateMutability": "payable",
					"type": "function"
				},
				{
					"inputs": [
						{
							"internalType": "uint256",
							"name": "",
							"type": "uint256"
						},
						{
							"internalType": "address",
							"name": "",
							"type": "address"
						}
					],
					"name": "donations",
					"outputs": [
						{
							"internalType": "uint256",
							"name": "",
							"type": "uint256"
						}
					],
					"stateMutability": "view",
					"type": "function"
				},
				{
					"inputs": [
						{
							"internalType": "uint256",
							"name": "_campaignId",
							"type": "uint256"
						}
					],
					"name": "getCampaign",
					"outputs": [
						{
							"internalType": "address",
							"name": "owner",
							"type": "address"
						},
						{
							"internalType": "string",
							"name": "title",
							"type": "string"
						},
						{
							"internalType": "string",
							"name": "description",
							"type": "string"
						},
						{
							"internalType": "uint256",
							"name": "target",
							"type": "uint256"
						},
						{
							"internalType": "uint256",
							"name": "amountCollected",
							"type": "uint256"
						},
						{
							"internalType": "address[]",
							"name": "donators",
							"type": "address[]"
						}
					],
					"stateMutability": "view",
					"type": "function"
				},
				{
					"inputs": [
						{
							"internalType": "uint256",
							"name": "_campaignId",
							"type": "uint256"
						},
						{
							"internalType": "address",
							"name": "_donator",
							"type": "address"
						}
					],
					"name": "getDonationAmount",
					"outputs": [
						{
							"internalType": "uint256",
							"name": "",
							"type": "uint256"
						}
					],
					"stateMutability": "view",
					"type": "function"
				},
				{
					"inputs": [
						{
							"internalType": "uint256",
							"name": "_campaignId",
							"type": "uint256"
						}
					],
					"name": "getDonators",
					"outputs": [
						{
							"internalType": "address[]",
							"name": "",
							"type": "address[]"
						}
					],
					"stateMutability": "view",
					"type": "function"
				},
				{
					"stateMutability": "payable",
					"type": "receive"
				}
			],
			"devdoc": {
				"kind": "dev",
				"methods": {},
				"version": 1
			},
			"evm": {
				"assembly": "    /* \"contracts/Donations.sol\":60:2833  contract Donation {... */\n  mstore(0x40, 0x80)\n    /* \"contracts/Donations.sol\":534:535  0 */\n  0x00\n    /* \"contracts/Donations.sol\":503:535  uint256 public campaignCount = 0 */\n  0x03\n  sstore\n    /* \"contracts/Donations.sol\":60:2833  contract Donation {... */\n  callvalue\n  dup1\n  iszero\n  tag_1\n  jumpi\n  0x00\n  dup1\n  revert\ntag_1:\n  pop\n  dataSize(sub_0)\n  dup1\n  dataOffset(sub_0)\n  0x00\n  codecopy\n  0x00\n  return\nstop\n\nsub_0: assembly {\n        /* \"contracts/Donations.sol\":60:2833  contract Donation {... */\n      mstore(0x40, 0x80)\n      jumpi(tag_1, lt(calldatasize, 0x04))\n      shr(0xe0, calldataload(0x00))\n      dup1\n      0x7274e30d\n      gt\n      tag_12\n      jumpi\n      dup1\n      0x7274e30d\n      eq\n      tag_7\n      jumpi\n      dup1\n      0xe43826d8\n      eq\n      tag_8\n      jumpi\n      dup1\n      0xee1554a3\n      eq\n      tag_9\n      jumpi\n      dup1\n      0xf14faf6f\n      eq\n      tag_10\n      jumpi\n      dup1\n      0xffa56a57\n      eq\n      tag_11\n      jumpi\n      jump(tag_2)\n    tag_12:\n      dup1\n      0x0fa91fa9\n      eq\n      tag_3\n      jumpi\n      dup1\n      0x141961bc\n      eq\n      tag_4\n      jumpi\n      dup1\n      0x3b594a68\n      eq\n      tag_5\n      jumpi\n      dup1\n      0x5598f8cc\n      eq\n      tag_6\n      jumpi\n      jump(tag_2)\n    tag_1:\n      jumpi(tag_2, calldatasize)\n      stop\n    tag_2:\n      0x00\n      dup1\n      revert\n        /* \"contracts/Donations.sol\":2517:2734  function getDonators(uint256 _campaignId)... */\n    tag_3:\n      callvalue\n      dup1\n      iszero\n      tag_15\n      jumpi\n      0x00\n      dup1\n      revert\n    tag_15:\n      pop\n      tag_16\n      0x04\n      dup1\n      calldatasize\n      sub\n      dup2\n      add\n      swap1\n      tag_17\n      swap2\n      swap1\n      tag_18\n      jump\t// in\n    tag_17:\n      tag_19\n      jump\t// in\n    tag_16:\n      mload(0x40)\n      tag_20\n      swap2\n      swap1\n      tag_21\n      jump\t// in\n    tag_20:\n      mload(0x40)\n      dup1\n      swap2\n      sub\n      swap1\n      return\n        /* \"contracts/Donations.sol\":281:326  mapping(uint256 => Campaign) public campaigns */\n    tag_4:\n      callvalue\n      dup1\n      iszero\n      tag_22\n      jumpi\n      0x00\n      dup1\n      revert\n    tag_22:\n      pop\n      tag_23\n      0x04\n      dup1\n      calldatasize\n      sub\n      dup2\n      add\n      swap1\n      tag_24\n      swap2\n      swap1\n      tag_18\n      jump\t// in\n    tag_24:\n      tag_25\n      jump\t// in\n    tag_23:\n      mload(0x40)\n      tag_26\n      swap6\n      swap5\n      swap4\n      swap3\n      swap2\n      swap1\n      tag_27\n      jump\t// in\n    tag_26:\n      mload(0x40)\n      dup1\n      swap2\n      sub\n      swap1\n      return\n        /* \"contracts/Donations.sol\":448:494  mapping(uint256 => bool) public campaignExists */\n    tag_5:\n      callvalue\n      dup1\n      iszero\n      tag_28\n      jumpi\n      0x00\n      dup1\n      revert\n    tag_28:\n      pop\n      tag_29\n      0x04\n      dup1\n      calldatasize\n      sub\n      dup2\n      add\n      swap1\n      tag_30\n      swap2\n      swap1\n      tag_18\n      jump\t// in\n    tag_30:\n      tag_31\n      jump\t// in\n    tag_29:\n      mload(0x40)\n      tag_32\n      swap2\n      swap1\n      tag_33\n      jump\t// in\n    tag_32:\n      mload(0x40)\n      dup1\n      swap2\n      sub\n      swap1\n      return\n        /* \"contracts/Donations.sol\":1546:2237  function getCampaign(uint256 _campaignId)... */\n    tag_6:\n      callvalue\n      dup1\n      iszero\n      tag_34\n      jumpi\n      0x00\n      dup1\n      revert\n    tag_34:\n      pop\n      tag_35\n      0x04\n      dup1\n      calldatasize\n      sub\n      dup2\n      add\n      swap1\n      tag_36\n      swap2\n      swap1\n      tag_18\n      jump\t// in\n    tag_36:\n      tag_37\n      jump\t// in\n    tag_35:\n      mload(0x40)\n      tag_38\n      swap7\n      swap6\n      swap5\n      swap4\n      swap3\n      swap2\n      swap1\n      tag_39\n      jump\t// in\n    tag_38:\n      mload(0x40)\n      dup1\n      swap2\n      sub\n      swap1\n      return\n        /* \"contracts/Donations.sol\":503:535  uint256 public campaignCount = 0 */\n    tag_7:\n      callvalue\n      dup1\n      iszero\n      tag_40\n      jumpi\n      0x00\n      dup1\n      revert\n    tag_40:\n      pop\n      tag_41\n      tag_42\n      jump\t// in\n    tag_41:\n      mload(0x40)\n      tag_43\n      swap2\n      swap1\n      tag_44\n      jump\t// in\n    tag_43:\n      mload(0x40)\n      dup1\n      swap2\n      sub\n      swap1\n      return\n        /* \"contracts/Donations.sol\":2323:2509  function getDonationAmount(uint256 _campaignId, address _donator)... */\n    tag_8:\n      callvalue\n      dup1\n      iszero\n      tag_45\n      jumpi\n      0x00\n      dup1\n      revert\n    tag_45:\n      pop\n      tag_46\n      0x04\n      dup1\n      calldatasize\n      sub\n      dup2\n      add\n      swap1\n      tag_47\n      swap2\n      swap1\n      tag_48\n      jump\t// in\n    tag_47:\n      tag_49\n      jump\t// in\n    tag_46:\n      mload(0x40)\n      tag_50\n      swap2\n      swap1\n      tag_44\n      jump\t// in\n    tag_50:\n      mload(0x40)\n      dup1\n      swap2\n      sub\n      swap1\n      return\n        /* \"contracts/Donations.sol\":333:397  mapping(uint256 => mapping(address => uint256)) public donations */\n    tag_9:\n      callvalue\n      dup1\n      iszero\n      tag_51\n      jumpi\n      0x00\n      dup1\n      revert\n    tag_51:\n      pop\n      tag_52\n      0x04\n      dup1\n      calldatasize\n      sub\n      dup2\n      add\n      swap1\n      tag_53\n      swap2\n      swap1\n      tag_48\n      jump\t// in\n    tag_53:\n      tag_54\n      jump\t// in\n    tag_52:\n      mload(0x40)\n      tag_55\n      swap2\n      swap1\n      tag_44\n      jump\t// in\n    tag_55:\n      mload(0x40)\n      dup1\n      swap2\n      sub\n      swap1\n      return\n        /* \"contracts/Donations.sol\":1108:1491  function donate(uint256 _campaignId) public payable {... */\n    tag_10:\n      tag_56\n      0x04\n      dup1\n      calldatasize\n      sub\n      dup2\n      add\n      swap1\n      tag_57\n      swap2\n      swap1\n      tag_18\n      jump\t// in\n    tag_57:\n      tag_58\n      jump\t// in\n    tag_56:\n      stop\n        /* \"contracts/Donations.sol\":586:1059  function createCampaign(... */\n    tag_11:\n      callvalue\n      dup1\n      iszero\n      tag_59\n      jumpi\n      0x00\n      dup1\n      revert\n    tag_59:\n      pop\n      tag_60\n      0x04\n      dup1\n      calldatasize\n      sub\n      dup2\n      add\n      swap1\n      tag_61\n      swap2\n      swap1\n      tag_62\n      jump\t// in\n    tag_61:\n      tag_63\n      jump\t// in\n    tag_60:\n      stop\n        /* \"contracts/Donations.sol\":2517:2734  function getDonators(uint256 _campaignId)... */\n    tag_19:\n        /* \"contracts/Donations.sol\":2607:2623  address[] memory */\n      0x60\n        /* \"contracts/Donations.sol\":2641:2666  Campaign storage campaign */\n      0x00\n        /* \"contracts/Donations.sol\":2669:2678  campaigns */\n      dup1\n        /* \"contracts/Donations.sol\":2669:2691  campaigns[_campaignId] */\n      0x00\n        /* \"contracts/Donations.sol\":2679:2690  _campaignId */\n      dup5\n        /* \"contracts/Donations.sol\":2669:2691  campaigns[_campaignId] */\n      dup2\n      mstore\n      0x20\n      add\n      swap1\n      dup2\n      mstore\n      0x20\n      add\n      0x00\n      keccak256\n        /* \"contracts/Donations.sol\":2641:2691  Campaign storage campaign = campaigns[_campaignId] */\n      swap1\n      pop\n        /* \"contracts/Donations.sol\":2709:2717  campaign */\n      dup1\n        /* \"contracts/Donations.sol\":2709:2726  campaign.donators */\n      0x05\n      add\n        /* \"contracts/Donations.sol\":2702:2726  return campaign.donators */\n      dup1\n      sload\n      dup1\n      0x20\n      mul\n      0x20\n      add\n      mload(0x40)\n      swap1\n      dup2\n      add\n      0x40\n      mstore\n      dup1\n      swap3\n      swap2\n      swap1\n      dup2\n      dup2\n      mstore\n      0x20\n      add\n      dup3\n      dup1\n      sload\n      dup1\n      iszero\n      tag_65\n      jumpi\n      0x20\n      mul\n      dup3\n      add\n      swap2\n      swap1\n      0x00\n      mstore\n      keccak256(0x00, 0x20)\n      swap1\n    tag_66:\n      dup2\n      0x00\n      swap1\n      sload\n      swap1\n      0x0100\n      exp\n      swap1\n      div\n      0xffffffffffffffffffffffffffffffffffffffff\n      and\n      0xffffffffffffffffffffffffffffffffffffffff\n      and\n      dup2\n      mstore\n      0x20\n      add\n      swap1\n      0x01\n      add\n      swap1\n      dup1\n      dup4\n      gt\n      tag_66\n      jumpi\n    tag_65:\n      pop\n      pop\n      pop\n      pop\n      pop\n      swap2\n      pop\n      pop\n        /* \"contracts/Donations.sol\":2517:2734  function getDonators(uint256 _campaignId)... */\n      swap2\n      swap1\n      pop\n      jump\t// out\n        /* \"contracts/Donations.sol\":281:326  mapping(uint256 => Campaign) public campaigns */\n    tag_25:\n      mstore(0x20, 0x00)\n      dup1\n      0x00\n      mstore\n      keccak256(0x00, 0x40)\n      0x00\n      swap2\n      pop\n      swap1\n      pop\n      dup1\n      0x00\n      add\n      0x00\n      swap1\n      sload\n      swap1\n      0x0100\n      exp\n      swap1\n      div\n      0xffffffffffffffffffffffffffffffffffffffff\n      and\n      swap1\n      dup1\n      0x01\n      add\n      dup1\n      sload\n      tag_67\n      swap1\n      tag_68\n      jump\t// in\n    tag_67:\n      dup1\n      0x1f\n      add\n      0x20\n      dup1\n      swap2\n      div\n      mul\n      0x20\n      add\n      mload(0x40)\n      swap1\n      dup2\n      add\n      0x40\n      mstore\n      dup1\n      swap3\n      swap2\n      swap1\n      dup2\n      dup2\n      mstore\n      0x20\n      add\n      dup3\n      dup1\n      sload\n      tag_69\n      swap1\n      tag_68\n      jump\t// in\n    tag_69:\n      dup1\n      iszero\n      tag_70\n      jumpi\n      dup1\n      0x1f\n      lt\n      tag_71\n      jumpi\n      0x0100\n      dup1\n      dup4\n      sload\n      div\n      mul\n      dup4\n      mstore\n      swap2\n      0x20\n      add\n      swap2\n      jump(tag_70)\n    tag_71:\n      dup3\n      add\n      swap2\n      swap1\n      0x00\n      mstore\n      keccak256(0x00, 0x20)\n      swap1\n    tag_72:\n      dup2\n      sload\n      dup2\n      mstore\n      swap1\n      0x01\n      add\n      swap1\n      0x20\n      add\n      dup1\n      dup4\n      gt\n      tag_72\n      jumpi\n      dup3\n      swap1\n      sub\n      0x1f\n      and\n      dup3\n      add\n      swap2\n    tag_70:\n      pop\n      pop\n      pop\n      pop\n      pop\n      swap1\n      dup1\n      0x02\n      add\n      dup1\n      sload\n      tag_73\n      swap1\n      tag_68\n      jump\t// in\n    tag_73:\n      dup1\n      0x1f\n      add\n      0x20\n      dup1\n      swap2\n      div\n      mul\n      0x20\n      add\n      mload(0x40)\n      swap1\n      dup2\n      add\n      0x40\n      mstore\n      dup1\n      swap3\n      swap2\n      swap1\n      dup2\n      dup2\n      mstore\n      0x20\n      add\n      dup3\n      dup1\n      sload\n      tag_74\n      swap1\n      tag_68\n      jump\t// in\n    tag_74:\n      dup1\n      iszero\n      tag_75\n      jumpi\n      dup1\n      0x1f\n      lt\n      tag_76\n      jumpi\n      0x0100\n      dup1\n      dup4\n      sload\n      div\n      mul\n      dup4\n      mstore\n      swap2\n      0x20\n      add\n      swap2\n      jump(tag_75)\n    tag_76:\n      dup3\n      add\n      swap2\n      swap1\n      0x00\n      mstore\n      keccak256(0x00, 0x20)\n      swap1\n    tag_77:\n      dup2\n      sload\n      dup2\n      mstore\n      swap1\n      0x01\n      add\n      swap1\n      0x20\n      add\n      dup1\n      dup4\n      gt\n      tag_77\n      jumpi\n      dup3\n      swap1\n      sub\n      0x1f\n      and\n      dup3\n      add\n      swap2\n    tag_75:\n      pop\n      pop\n      pop\n      pop\n      pop\n      swap1\n      dup1\n      0x03\n      add\n      sload\n      swap1\n      dup1\n      0x04\n      add\n      sload\n      swap1\n      pop\n      dup6\n      jump\t// out\n        /* \"contracts/Donations.sol\":448:494  mapping(uint256 => bool) public campaignExists */\n    tag_31:\n      mstore(0x20, 0x02)\n      dup1\n      0x00\n      mstore\n      keccak256(0x00, 0x40)\n      0x00\n      swap2\n      pop\n      sload\n      swap1\n      0x0100\n      exp\n      swap1\n      div\n      0xff\n      and\n      dup2\n      jump\t// out\n        /* \"contracts/Donations.sol\":1546:2237  function getCampaign(uint256 _campaignId)... */\n    tag_37:\n        /* \"contracts/Donations.sol\":1650:1663  address owner */\n      0x00\n        /* \"contracts/Donations.sol\":1678:1697  string memory title */\n      0x60\n        /* \"contracts/Donations.sol\":1712:1737  string memory description */\n      dup1\n        /* \"contracts/Donations.sol\":1752:1766  uint256 target */\n      0x00\n        /* \"contracts/Donations.sol\":1781:1804  uint256 amountCollected */\n      dup1\n        /* \"contracts/Donations.sol\":1819:1844  address[] memory donators */\n      0x60\n        /* \"contracts/Donations.sol\":1880:1894  campaignExists */\n      0x02\n        /* \"contracts/Donations.sol\":1880:1907  campaignExists[_campaignId] */\n      0x00\n        /* \"contracts/Donations.sol\":1895:1906  _campaignId */\n      dup9\n        /* \"contracts/Donations.sol\":1880:1907  campaignExists[_campaignId] */\n      dup2\n      mstore\n      0x20\n      add\n      swap1\n      dup2\n      mstore\n      0x20\n      add\n      0x00\n      keccak256\n      0x00\n      swap1\n      sload\n      swap1\n      0x0100\n      exp\n      swap1\n      div\n      0xff\n      and\n        /* \"contracts/Donations.sol\":1872:1935  require(campaignExists[_campaignId], \"Campaign does not exist\") */\n      tag_79\n      jumpi\n      mload(0x40)\n      0x08c379a000000000000000000000000000000000000000000000000000000000\n      dup2\n      mstore\n      0x04\n      add\n      tag_80\n      swap1\n      tag_81\n      jump\t// in\n    tag_80:\n      mload(0x40)\n      dup1\n      swap2\n      sub\n      swap1\n      revert\n    tag_79:\n        /* \"contracts/Donations.sol\":1946:1971  Campaign storage campaign */\n      0x00\n        /* \"contracts/Donations.sol\":1974:1983  campaigns */\n      dup1\n        /* \"contracts/Donations.sol\":1974:1996  campaigns[_campaignId] */\n      0x00\n        /* \"contracts/Donations.sol\":1984:1995  _campaignId */\n      dup10\n        /* \"contracts/Donations.sol\":1974:1996  campaigns[_campaignId] */\n      dup2\n      mstore\n      0x20\n      add\n      swap1\n      dup2\n      mstore\n      0x20\n      add\n      0x00\n      keccak256\n        /* \"contracts/Donations.sol\":1946:1996  Campaign storage campaign = campaigns[_campaignId] */\n      swap1\n      pop\n        /* \"contracts/Donations.sol\":2039:2047  campaign */\n      dup1\n        /* \"contracts/Donations.sol\":2039:2053  campaign.owner */\n      0x00\n      add\n      0x00\n      swap1\n      sload\n      swap1\n      0x0100\n      exp\n      swap1\n      div\n      0xffffffffffffffffffffffffffffffffffffffff\n      and\n        /* \"contracts/Donations.sol\":2068:2076  campaign */\n      dup2\n        /* \"contracts/Donations.sol\":2068:2082  campaign.title */\n      0x01\n      add\n        /* \"contracts/Donations.sol\":2097:2105  campaign */\n      dup3\n        /* \"contracts/Donations.sol\":2097:2117  campaign.description */\n      0x02\n      add\n        /* \"contracts/Donations.sol\":2132:2140  campaign */\n      dup4\n        /* \"contracts/Donations.sol\":2132:2147  campaign.target */\n      0x03\n      add\n      sload\n        /* \"contracts/Donations.sol\":2162:2170  campaign */\n      dup5\n        /* \"contracts/Donations.sol\":2162:2186  campaign.amountCollected */\n      0x04\n      add\n      sload\n        /* \"contracts/Donations.sol\":2201:2209  campaign */\n      dup6\n        /* \"contracts/Donations.sol\":2201:2218  campaign.donators */\n      0x05\n      add\n        /* \"contracts/Donations.sol\":2017:2229  return (... */\n      dup5\n      dup1\n      sload\n      tag_82\n      swap1\n      tag_68\n      jump\t// in\n    tag_82:\n      dup1\n      0x1f\n      add\n      0x20\n      dup1\n      swap2\n      div\n      mul\n      0x20\n      add\n      mload(0x40)\n      swap1\n      dup2\n      add\n      0x40\n      mstore\n      dup1\n      swap3\n      swap2\n      swap1\n      dup2\n      dup2\n      mstore\n      0x20\n      add\n      dup3\n      dup1\n      sload\n      tag_83\n      swap1\n      tag_68\n      jump\t// in\n    tag_83:\n      dup1\n      iszero\n      tag_84\n      jumpi\n      dup1\n      0x1f\n      lt\n      tag_85\n      jumpi\n      0x0100\n      dup1\n      dup4\n      sload\n      div\n      mul\n      dup4\n      mstore\n      swap2\n      0x20\n      add\n      swap2\n      jump(tag_84)\n    tag_85:\n      dup3\n      add\n      swap2\n      swap1\n      0x00\n      mstore\n      keccak256(0x00, 0x20)\n      swap1\n    tag_86:\n      dup2\n      sload\n      dup2\n      mstore\n      swap1\n      0x01\n      add\n      swap1\n      0x20\n      add\n      dup1\n      dup4\n      gt\n      tag_86\n      jumpi\n      dup3\n      swap1\n      sub\n      0x1f\n      and\n      dup3\n      add\n      swap2\n    tag_84:\n      pop\n      pop\n      pop\n      pop\n      pop\n      swap5\n      pop\n      dup4\n      dup1\n      sload\n      tag_87\n      swap1\n      tag_68\n      jump\t// in\n    tag_87:\n      dup1\n      0x1f\n      add\n      0x20\n      dup1\n      swap2\n      div\n      mul\n      0x20\n      add\n      mload(0x40)\n      swap1\n      dup2\n      add\n      0x40\n      mstore\n      dup1\n      swap3\n      swap2\n      swap1\n      dup2\n      dup2\n      mstore\n      0x20\n      add\n      dup3\n      dup1\n      sload\n      tag_88\n      swap1\n      tag_68\n      jump\t// in\n    tag_88:\n      dup1\n      iszero\n      tag_89\n      jumpi\n      dup1\n      0x1f\n      lt\n      tag_90\n      jumpi\n      0x0100\n      dup1\n      dup4\n      sload\n      div\n      mul\n      dup4\n      mstore\n      swap2\n      0x20\n      add\n      swap2\n      jump(tag_89)\n    tag_90:\n      dup3\n      add\n      swap2\n      swap1\n      0x00\n      mstore\n      keccak256(0x00, 0x20)\n      swap1\n    tag_91:\n      dup2\n      sload\n      dup2\n      mstore\n      swap1\n      0x01\n      add\n      swap1\n      0x20\n      add\n      dup1\n      dup4\n      gt\n      tag_91\n      jumpi\n      dup3\n      swap1\n      sub\n      0x1f\n      and\n      dup3\n      add\n      swap2\n    tag_89:\n      pop\n      pop\n      pop\n      pop\n      pop\n      swap4\n      pop\n      dup1\n      dup1\n      sload\n      dup1\n      0x20\n      mul\n      0x20\n      add\n      mload(0x40)\n      swap1\n      dup2\n      add\n      0x40\n      mstore\n      dup1\n      swap3\n      swap2\n      swap1\n      dup2\n      dup2\n      mstore\n      0x20\n      add\n      dup3\n      dup1\n      sload\n      dup1\n      iszero\n      tag_92\n      jumpi\n      0x20\n      mul\n      dup3\n      add\n      swap2\n      swap1\n      0x00\n      mstore\n      keccak256(0x00, 0x20)\n      swap1\n    tag_93:\n      dup2\n      0x00\n      swap1\n      sload\n      swap1\n      0x0100\n      exp\n      swap1\n      div\n      0xffffffffffffffffffffffffffffffffffffffff\n      and\n      0xffffffffffffffffffffffffffffffffffffffff\n      and\n      dup2\n      mstore\n      0x20\n      add\n      swap1\n      0x01\n      add\n      swap1\n      dup1\n      dup4\n      gt\n      tag_93\n      jumpi\n    tag_92:\n      pop\n      pop\n      pop\n      pop\n      pop\n      swap1\n      pop\n      swap7\n      pop\n      swap7\n      pop\n      swap7\n      pop\n      swap7\n      pop\n      swap7\n      pop\n      swap7\n      pop\n      pop\n        /* \"contracts/Donations.sol\":1546:2237  function getCampaign(uint256 _campaignId)... */\n      swap2\n      swap4\n      swap6\n      pop\n      swap2\n      swap4\n      swap6\n      jump\t// out\n        /* \"contracts/Donations.sol\":503:535  uint256 public campaignCount = 0 */\n    tag_42:\n      sload(0x03)\n      dup2\n      jump\t// out\n        /* \"contracts/Donations.sol\":2323:2509  function getDonationAmount(uint256 _campaignId, address _donator)... */\n    tag_49:\n        /* \"contracts/Donations.sol\":2437:2444  uint256 */\n      0x00\n        /* \"contracts/Donations.sol\":2469:2478  donations */\n      0x01\n        /* \"contracts/Donations.sol\":2469:2491  donations[_campaignId] */\n      0x00\n        /* \"contracts/Donations.sol\":2479:2490  _campaignId */\n      dup5\n        /* \"contracts/Donations.sol\":2469:2491  donations[_campaignId] */\n      dup2\n      mstore\n      0x20\n      add\n      swap1\n      dup2\n      mstore\n      0x20\n      add\n      0x00\n      keccak256\n        /* \"contracts/Donations.sol\":2469:2501  donations[_campaignId][_donator] */\n      0x00\n        /* \"contracts/Donations.sol\":2492:2500  _donator */\n      dup4\n        /* \"contracts/Donations.sol\":2469:2501  donations[_campaignId][_donator] */\n      0xffffffffffffffffffffffffffffffffffffffff\n      and\n      0xffffffffffffffffffffffffffffffffffffffff\n      and\n      dup2\n      mstore\n      0x20\n      add\n      swap1\n      dup2\n      mstore\n      0x20\n      add\n      0x00\n      keccak256\n      sload\n        /* \"contracts/Donations.sol\":2462:2501  return donations[_campaignId][_donator] */\n      swap1\n      pop\n        /* \"contracts/Donations.sol\":2323:2509  function getDonationAmount(uint256 _campaignId, address _donator)... */\n      swap3\n      swap2\n      pop\n      pop\n      jump\t// out\n        /* \"contracts/Donations.sol\":333:397  mapping(uint256 => mapping(address => uint256)) public donations */\n    tag_54:\n      mstore(0x20, 0x01)\n      dup2\n      0x00\n      mstore\n      mstore(0x20, keccak256(0x00, 0x40))\n      dup1\n      0x00\n      mstore\n      keccak256(0x00, 0x40)\n      0x00\n      swap2\n      pop\n      swap2\n      pop\n      pop\n      sload\n      dup2\n      jump\t// out\n        /* \"contracts/Donations.sol\":1108:1491  function donate(uint256 _campaignId) public payable {... */\n    tag_58:\n        /* \"contracts/Donations.sol\":1179:1193  campaignExists */\n      0x02\n        /* \"contracts/Donations.sol\":1179:1206  campaignExists[_campaignId] */\n      0x00\n        /* \"contracts/Donations.sol\":1194:1205  _campaignId */\n      dup3\n        /* \"contracts/Donations.sol\":1179:1206  campaignExists[_campaignId] */\n      dup2\n      mstore\n      0x20\n      add\n      swap1\n      dup2\n      mstore\n      0x20\n      add\n      0x00\n      keccak256\n      0x00\n      swap1\n      sload\n      swap1\n      0x0100\n      exp\n      swap1\n      div\n      0xff\n      and\n        /* \"contracts/Donations.sol\":1171:1234  require(campaignExists[_campaignId], \"Campaign does not exist\") */\n      tag_96\n      jumpi\n      mload(0x40)\n      0x08c379a000000000000000000000000000000000000000000000000000000000\n      dup2\n      mstore\n      0x04\n      add\n      tag_97\n      swap1\n      tag_81\n      jump\t// in\n    tag_97:\n      mload(0x40)\n      dup1\n      swap2\n      sub\n      swap1\n      revert\n    tag_96:\n        /* \"contracts/Donations.sol\":1265:1266  0 */\n      0x00\n        /* \"contracts/Donations.sol\":1253:1262  msg.value */\n      callvalue\n        /* \"contracts/Donations.sol\":1253:1266  msg.value > 0 */\n      gt\n        /* \"contracts/Donations.sol\":1245:1302  require(msg.value > 0, \"Donation must be greater than 0\") */\n      tag_98\n      jumpi\n      mload(0x40)\n      0x08c379a000000000000000000000000000000000000000000000000000000000\n      dup2\n      mstore\n      0x04\n      add\n      tag_99\n      swap1\n      tag_100\n      jump\t// in\n    tag_99:\n      mload(0x40)\n      dup1\n      swap2\n      sub\n      swap1\n      revert\n    tag_98:\n        /* \"contracts/Donations.sol\":1353:1362  msg.value */\n      callvalue\n        /* \"contracts/Donations.sol\":1315:1324  donations */\n      0x01\n        /* \"contracts/Donations.sol\":1315:1337  donations[_campaignId] */\n      0x00\n        /* \"contracts/Donations.sol\":1325:1336  _campaignId */\n      dup4\n        /* \"contracts/Donations.sol\":1315:1337  donations[_campaignId] */\n      dup2\n      mstore\n      0x20\n      add\n      swap1\n      dup2\n      mstore\n      0x20\n      add\n      0x00\n      keccak256\n        /* \"contracts/Donations.sol\":1315:1349  donations[_campaignId][msg.sender] */\n      0x00\n        /* \"contracts/Donations.sol\":1338:1348  msg.sender */\n      caller\n        /* \"contracts/Donations.sol\":1315:1349  donations[_campaignId][msg.sender] */\n      0xffffffffffffffffffffffffffffffffffffffff\n      and\n      0xffffffffffffffffffffffffffffffffffffffff\n      and\n      dup2\n      mstore\n      0x20\n      add\n      swap1\n      dup2\n      mstore\n      0x20\n      add\n      0x00\n      keccak256\n      0x00\n        /* \"contracts/Donations.sol\":1315:1362  donations[_campaignId][msg.sender] += msg.value */\n      dup3\n      dup3\n      sload\n      tag_101\n      swap2\n      swap1\n      tag_102\n      jump\t// in\n    tag_101:\n      swap3\n      pop\n      pop\n      dup2\n      swap1\n      sstore\n      pop\n        /* \"contracts/Donations.sol\":1415:1424  msg.value */\n      callvalue\n        /* \"contracts/Donations.sol\":1373:1382  campaigns */\n      0x00\n        /* \"contracts/Donations.sol\":1373:1395  campaigns[_campaignId] */\n      dup1\n        /* \"contracts/Donations.sol\":1383:1394  _campaignId */\n      dup4\n        /* \"contracts/Donations.sol\":1373:1395  campaigns[_campaignId] */\n      dup2\n      mstore\n      0x20\n      add\n      swap1\n      dup2\n      mstore\n      0x20\n      add\n      0x00\n      keccak256\n        /* \"contracts/Donations.sol\":1373:1411  campaigns[_campaignId].amountCollected */\n      0x04\n      add\n      0x00\n        /* \"contracts/Donations.sol\":1373:1424  campaigns[_campaignId].amountCollected += msg.value */\n      dup3\n      dup3\n      sload\n      tag_103\n      swap2\n      swap1\n      tag_102\n      jump\t// in\n    tag_103:\n      swap3\n      pop\n      pop\n      dup2\n      swap1\n      sstore\n      pop\n        /* \"contracts/Donations.sol\":1435:1444  campaigns */\n      0x00\n        /* \"contracts/Donations.sol\":1435:1457  campaigns[_campaignId] */\n      dup1\n        /* \"contracts/Donations.sol\":1445:1456  _campaignId */\n      dup3\n        /* \"contracts/Donations.sol\":1435:1457  campaigns[_campaignId] */\n      dup2\n      mstore\n      0x20\n      add\n      swap1\n      dup2\n      mstore\n      0x20\n      add\n      0x00\n      keccak256\n        /* \"contracts/Donations.sol\":1435:1466  campaigns[_campaignId].donators */\n      0x05\n      add\n        /* \"contracts/Donations.sol\":1472:1482  msg.sender */\n      caller\n        /* \"contracts/Donations.sol\":1435:1483  campaigns[_campaignId].donators.push(msg.sender) */\n      swap1\n      dup1\n      0x01\n      dup2\n      sload\n      add\n      dup1\n      dup3\n      sstore\n      dup1\n      swap2\n      pop\n      pop\n      0x01\n      swap1\n      sub\n      swap1\n      0x00\n      mstore\n      keccak256(0x00, 0x20)\n      add\n      0x00\n      swap1\n      swap2\n      swap1\n      swap2\n      swap1\n      swap2\n      0x0100\n      exp\n      dup2\n      sload\n      dup2\n      0xffffffffffffffffffffffffffffffffffffffff\n      mul\n      not\n      and\n      swap1\n      dup4\n      0xffffffffffffffffffffffffffffffffffffffff\n      and\n      mul\n      or\n      swap1\n      sstore\n      pop\n        /* \"contracts/Donations.sol\":1108:1491  function donate(uint256 _campaignId) public payable {... */\n      pop\n      jump\t// out\n        /* \"contracts/Donations.sol\":586:1059  function createCampaign(... */\n    tag_63:\n        /* \"contracts/Donations.sol\":729:742  campaignCount */\n      0x03\n      0x00\n        /* \"contracts/Donations.sol\":729:744  campaignCount++ */\n      dup2\n      sload\n      dup1\n      swap3\n      swap2\n      swap1\n      tag_106\n      swap1\n      tag_107\n      jump\t// in\n    tag_106:\n      swap2\n      swap1\n      pop\n      sstore\n      pop\n        /* \"contracts/Donations.sol\":755:780  Campaign storage campaign */\n      0x00\n        /* \"contracts/Donations.sol\":783:792  campaigns */\n      dup1\n        /* \"contracts/Donations.sol\":783:807  campaigns[campaignCount] */\n      0x00\n        /* \"contracts/Donations.sol\":793:806  campaignCount */\n      sload(0x03)\n        /* \"contracts/Donations.sol\":783:807  campaigns[campaignCount] */\n      dup2\n      mstore\n      0x20\n      add\n      swap1\n      dup2\n      mstore\n      0x20\n      add\n      0x00\n      keccak256\n        /* \"contracts/Donations.sol\":755:807  Campaign storage campaign = campaigns[campaignCount] */\n      swap1\n      pop\n        /* \"contracts/Donations.sol\":837:843  _title */\n      dup4\n        /* \"contracts/Donations.sol\":820:828  campaign */\n      dup2\n        /* \"contracts/Donations.sol\":820:834  campaign.title */\n      0x01\n      add\n        /* \"contracts/Donations.sol\":820:843  campaign.title = _title */\n      swap1\n      dup2\n      tag_108\n      swap2\n      swap1\n      tag_109\n      jump\t// in\n    tag_108:\n      pop\n        /* \"contracts/Donations.sol\":877:889  _description */\n      dup3\n        /* \"contracts/Donations.sol\":854:862  campaign */\n      dup2\n        /* \"contracts/Donations.sol\":854:874  campaign.description */\n      0x02\n      add\n        /* \"contracts/Donations.sol\":854:889  campaign.description = _description */\n      swap1\n      dup2\n      tag_110\n      swap2\n      swap1\n      tag_109\n      jump\t// in\n    tag_110:\n      pop\n        /* \"contracts/Donations.sol\":918:925  _target */\n      dup2\n        /* \"contracts/Donations.sol\":900:908  campaign */\n      dup2\n        /* \"contracts/Donations.sol\":900:915  campaign.target */\n      0x03\n      add\n        /* \"contracts/Donations.sol\":900:925  campaign.target = _target */\n      dup2\n      swap1\n      sstore\n      pop\n        /* \"contracts/Donations.sol\":963:964  0 */\n      0x00\n        /* \"contracts/Donations.sol\":936:944  campaign */\n      dup2\n        /* \"contracts/Donations.sol\":936:960  campaign.amountCollected */\n      0x04\n      add\n        /* \"contracts/Donations.sol\":936:964  campaign.amountCollected = 0 */\n      dup2\n      swap1\n      sstore\n      pop\n        /* \"contracts/Donations.sol\":992:1002  msg.sender */\n      caller\n        /* \"contracts/Donations.sol\":975:983  campaign */\n      dup2\n        /* \"contracts/Donations.sol\":975:989  campaign.owner */\n      0x00\n      add\n      0x00\n        /* \"contracts/Donations.sol\":975:1002  campaign.owner = msg.sender */\n      0x0100\n      exp\n      dup2\n      sload\n      dup2\n      0xffffffffffffffffffffffffffffffffffffffff\n      mul\n      not\n      and\n      swap1\n      dup4\n      0xffffffffffffffffffffffffffffffffffffffff\n      and\n      mul\n      or\n      swap1\n      sstore\n      pop\n        /* \"contracts/Donations.sol\":1047:1051  true */\n      0x01\n        /* \"contracts/Donations.sol\":1015:1029  campaignExists */\n      0x02\n        /* \"contracts/Donations.sol\":1015:1044  campaignExists[campaignCount] */\n      0x00\n        /* \"contracts/Donations.sol\":1030:1043  campaignCount */\n      sload(0x03)\n        /* \"contracts/Donations.sol\":1015:1044  campaignExists[campaignCount] */\n      dup2\n      mstore\n      0x20\n      add\n      swap1\n      dup2\n      mstore\n      0x20\n      add\n      0x00\n      keccak256\n      0x00\n        /* \"contracts/Donations.sol\":1015:1051  campaignExists[campaignCount] = true */\n      0x0100\n      exp\n      dup2\n      sload\n      dup2\n      0xff\n      mul\n      not\n      and\n      swap1\n      dup4\n      iszero\n      iszero\n      mul\n      or\n      swap1\n      sstore\n      pop\n        /* \"contracts/Donations.sol\":718:1059  {... */\n      pop\n        /* \"contracts/Donations.sol\":586:1059  function createCampaign(... */\n      pop\n      pop\n      pop\n      jump\t// out\n        /* \"#utility.yul\":7:82   */\n    tag_111:\n        /* \"#utility.yul\":40:46   */\n      0x00\n        /* \"#utility.yul\":73:75   */\n      0x40\n        /* \"#utility.yul\":67:76   */\n      mload\n        /* \"#utility.yul\":57:76   */\n      swap1\n      pop\n        /* \"#utility.yul\":7:82   */\n      swap1\n      jump\t// out\n        /* \"#utility.yul\":88:205   */\n    tag_112:\n        /* \"#utility.yul\":197:198   */\n      0x00\n        /* \"#utility.yul\":194:195   */\n      dup1\n        /* \"#utility.yul\":187:199   */\n      revert\n        /* \"#utility.yul\":211:328   */\n    tag_113:\n        /* \"#utility.yul\":320:321   */\n      0x00\n        /* \"#utility.yul\":317:318   */\n      dup1\n        /* \"#utility.yul\":310:322   */\n      revert\n        /* \"#utility.yul\":334:411   */\n    tag_114:\n        /* \"#utility.yul\":371:378   */\n      0x00\n        /* \"#utility.yul\":400:405   */\n      dup2\n        /* \"#utility.yul\":389:405   */\n      swap1\n      pop\n        /* \"#utility.yul\":334:411   */\n      swap2\n      swap1\n      pop\n      jump\t// out\n        /* \"#utility.yul\":417:539   */\n    tag_115:\n        /* \"#utility.yul\":490:514   */\n      tag_173\n        /* \"#utility.yul\":508:513   */\n      dup2\n        /* \"#utility.yul\":490:514   */\n      tag_114\n      jump\t// in\n    tag_173:\n        /* \"#utility.yul\":483:488   */\n      dup2\n        /* \"#utility.yul\":480:515   */\n      eq\n        /* \"#utility.yul\":470:533   */\n      tag_174\n      jumpi\n        /* \"#utility.yul\":529:530   */\n      0x00\n        /* \"#utility.yul\":526:527   */\n      dup1\n        /* \"#utility.yul\":519:531   */\n      revert\n        /* \"#utility.yul\":470:533   */\n    tag_174:\n        /* \"#utility.yul\":417:539   */\n      pop\n      jump\t// out\n        /* \"#utility.yul\":545:684   */\n    tag_116:\n        /* \"#utility.yul\":591:596   */\n      0x00\n        /* \"#utility.yul\":629:635   */\n      dup2\n        /* \"#utility.yul\":616:636   */\n      calldataload\n        /* \"#utility.yul\":607:636   */\n      swap1\n      pop\n        /* \"#utility.yul\":645:678   */\n      tag_176\n        /* \"#utility.yul\":672:677   */\n      dup2\n        /* \"#utility.yul\":645:678   */\n      tag_115\n      jump\t// in\n    tag_176:\n        /* \"#utility.yul\":545:684   */\n      swap3\n      swap2\n      pop\n      pop\n      jump\t// out\n        /* \"#utility.yul\":690:1019   */\n    tag_18:\n        /* \"#utility.yul\":749:755   */\n      0x00\n        /* \"#utility.yul\":798:800   */\n      0x20\n        /* \"#utility.yul\":786:795   */\n      dup3\n        /* \"#utility.yul\":777:784   */\n      dup5\n        /* \"#utility.yul\":773:796   */\n      sub\n        /* \"#utility.yul\":769:801   */\n      slt\n        /* \"#utility.yul\":766:885   */\n      iszero\n      tag_178\n      jumpi\n        /* \"#utility.yul\":804:883   */\n      tag_179\n      tag_112\n      jump\t// in\n    tag_179:\n        /* \"#utility.yul\":766:885   */\n    tag_178:\n        /* \"#utility.yul\":924:925   */\n      0x00\n        /* \"#utility.yul\":949:1002   */\n      tag_180\n        /* \"#utility.yul\":994:1001   */\n      dup5\n        /* \"#utility.yul\":985:991   */\n      dup3\n        /* \"#utility.yul\":974:983   */\n      dup6\n        /* \"#utility.yul\":970:992   */\n      add\n        /* \"#utility.yul\":949:1002   */\n      tag_116\n      jump\t// in\n    tag_180:\n        /* \"#utility.yul\":939:1002   */\n      swap2\n      pop\n        /* \"#utility.yul\":895:1012   */\n      pop\n        /* \"#utility.yul\":690:1019   */\n      swap3\n      swap2\n      pop\n      pop\n      jump\t// out\n        /* \"#utility.yul\":1025:1139   */\n    tag_117:\n        /* \"#utility.yul\":1092:1098   */\n      0x00\n        /* \"#utility.yul\":1126:1131   */\n      dup2\n        /* \"#utility.yul\":1120:1132   */\n      mload\n        /* \"#utility.yul\":1110:1132   */\n      swap1\n      pop\n        /* \"#utility.yul\":1025:1139   */\n      swap2\n      swap1\n      pop\n      jump\t// out\n        /* \"#utility.yul\":1145:1329   */\n    tag_118:\n        /* \"#utility.yul\":1244:1255   */\n      0x00\n        /* \"#utility.yul\":1278:1284   */\n      dup3\n        /* \"#utility.yul\":1273:1276   */\n      dup3\n        /* \"#utility.yul\":1266:1285   */\n      mstore\n        /* \"#utility.yul\":1318:1322   */\n      0x20\n        /* \"#utility.yul\":1313:1316   */\n      dup3\n        /* \"#utility.yul\":1309:1323   */\n      add\n        /* \"#utility.yul\":1294:1323   */\n      swap1\n      pop\n        /* \"#utility.yul\":1145:1329   */\n      swap3\n      swap2\n      pop\n      pop\n      jump\t// out\n        /* \"#utility.yul\":1335:1467   */\n    tag_119:\n        /* \"#utility.yul\":1402:1406   */\n      0x00\n        /* \"#utility.yul\":1425:1428   */\n      dup2\n        /* \"#utility.yul\":1417:1428   */\n      swap1\n      pop\n        /* \"#utility.yul\":1455:1459   */\n      0x20\n        /* \"#utility.yul\":1450:1453   */\n      dup3\n        /* \"#utility.yul\":1446:1460   */\n      add\n        /* \"#utility.yul\":1438:1460   */\n      swap1\n      pop\n        /* \"#utility.yul\":1335:1467   */\n      swap2\n      swap1\n      pop\n      jump\t// out\n        /* \"#utility.yul\":1473:1599   */\n    tag_120:\n        /* \"#utility.yul\":1510:1517   */\n      0x00\n        /* \"#utility.yul\":1550:1592   */\n      0xffffffffffffffffffffffffffffffffffffffff\n        /* \"#utility.yul\":1543:1548   */\n      dup3\n        /* \"#utility.yul\":1539:1593   */\n      and\n        /* \"#utility.yul\":1528:1593   */\n      swap1\n      pop\n        /* \"#utility.yul\":1473:1599   */\n      swap2\n      swap1\n      pop\n      jump\t// out\n        /* \"#utility.yul\":1605:1701   */\n    tag_121:\n        /* \"#utility.yul\":1642:1649   */\n      0x00\n        /* \"#utility.yul\":1671:1695   */\n      tag_186\n        /* \"#utility.yul\":1689:1694   */\n      dup3\n        /* \"#utility.yul\":1671:1695   */\n      tag_120\n      jump\t// in\n    tag_186:\n        /* \"#utility.yul\":1660:1695   */\n      swap1\n      pop\n        /* \"#utility.yul\":1605:1701   */\n      swap2\n      swap1\n      pop\n      jump\t// out\n        /* \"#utility.yul\":1707:1815   */\n    tag_122:\n        /* \"#utility.yul\":1784:1808   */\n      tag_188\n        /* \"#utility.yul\":1802:1807   */\n      dup2\n        /* \"#utility.yul\":1784:1808   */\n      tag_121\n      jump\t// in\n    tag_188:\n        /* \"#utility.yul\":1779:1782   */\n      dup3\n        /* \"#utility.yul\":1772:1809   */\n      mstore\n        /* \"#utility.yul\":1707:1815   */\n      pop\n      pop\n      jump\t// out\n        /* \"#utility.yul\":1821:2000   */\n    tag_123:\n        /* \"#utility.yul\":1890:1900   */\n      0x00\n        /* \"#utility.yul\":1911:1957   */\n      tag_190\n        /* \"#utility.yul\":1953:1956   */\n      dup4\n        /* \"#utility.yul\":1945:1951   */\n      dup4\n        /* \"#utility.yul\":1911:1957   */\n      tag_122\n      jump\t// in\n    tag_190:\n        /* \"#utility.yul\":1989:1993   */\n      0x20\n        /* \"#utility.yul\":1984:1987   */\n      dup4\n        /* \"#utility.yul\":1980:1994   */\n      add\n        /* \"#utility.yul\":1966:1994   */\n      swap1\n      pop\n        /* \"#utility.yul\":1821:2000   */\n      swap3\n      swap2\n      pop\n      pop\n      jump\t// out\n        /* \"#utility.yul\":2006:2119   */\n    tag_124:\n        /* \"#utility.yul\":2076:2080   */\n      0x00\n        /* \"#utility.yul\":2108:2112   */\n      0x20\n        /* \"#utility.yul\":2103:2106   */\n      dup3\n        /* \"#utility.yul\":2099:2113   */\n      add\n        /* \"#utility.yul\":2091:2113   */\n      swap1\n      pop\n        /* \"#utility.yul\":2006:2119   */\n      swap2\n      swap1\n      pop\n      jump\t// out\n        /* \"#utility.yul\":2155:2887   */\n    tag_125:\n        /* \"#utility.yul\":2274:2277   */\n      0x00\n        /* \"#utility.yul\":2303:2357   */\n      tag_193\n        /* \"#utility.yul\":2351:2356   */\n      dup3\n        /* \"#utility.yul\":2303:2357   */\n      tag_117\n      jump\t// in\n    tag_193:\n        /* \"#utility.yul\":2373:2459   */\n      tag_194\n        /* \"#utility.yul\":2452:2458   */\n      dup2\n        /* \"#utility.yul\":2447:2450   */\n      dup6\n        /* \"#utility.yul\":2373:2459   */\n      tag_118\n      jump\t// in\n    tag_194:\n        /* \"#utility.yul\":2366:2459   */\n      swap4\n      pop\n        /* \"#utility.yul\":2483:2539   */\n      tag_195\n        /* \"#utility.yul\":2533:2538   */\n      dup4\n        /* \"#utility.yul\":2483:2539   */\n      tag_119\n      jump\t// in\n    tag_195:\n        /* \"#utility.yul\":2562:2569   */\n      dup1\n        /* \"#utility.yul\":2593:2594   */\n      0x00\n        /* \"#utility.yul\":2578:2862   */\n    tag_196:\n        /* \"#utility.yul\":2603:2609   */\n      dup4\n        /* \"#utility.yul\":2600:2601   */\n      dup2\n        /* \"#utility.yul\":2597:2610   */\n      lt\n        /* \"#utility.yul\":2578:2862   */\n      iszero\n      tag_198\n      jumpi\n        /* \"#utility.yul\":2679:2685   */\n      dup2\n        /* \"#utility.yul\":2673:2686   */\n      mload\n        /* \"#utility.yul\":2706:2769   */\n      tag_199\n        /* \"#utility.yul\":2765:2768   */\n      dup9\n        /* \"#utility.yul\":2750:2763   */\n      dup3\n        /* \"#utility.yul\":2706:2769   */\n      tag_123\n      jump\t// in\n    tag_199:\n        /* \"#utility.yul\":2699:2769   */\n      swap8\n      pop\n        /* \"#utility.yul\":2792:2852   */\n      tag_200\n        /* \"#utility.yul\":2845:2851   */\n      dup4\n        /* \"#utility.yul\":2792:2852   */\n      tag_124\n      jump\t// in\n    tag_200:\n        /* \"#utility.yul\":2782:2852   */\n      swap3\n      pop\n        /* \"#utility.yul\":2638:2862   */\n      pop\n        /* \"#utility.yul\":2625:2626   */\n      0x01\n        /* \"#utility.yul\":2622:2623   */\n      dup2\n        /* \"#utility.yul\":2618:2627   */\n      add\n        /* \"#utility.yul\":2613:2627   */\n      swap1\n      pop\n        /* \"#utility.yul\":2578:2862   */\n      jump(tag_196)\n    tag_198:\n        /* \"#utility.yul\":2582:2596   */\n      pop\n        /* \"#utility.yul\":2878:2881   */\n      dup6\n        /* \"#utility.yul\":2871:2881   */\n      swap4\n      pop\n        /* \"#utility.yul\":2279:2887   */\n      pop\n      pop\n      pop\n        /* \"#utility.yul\":2155:2887   */\n      swap3\n      swap2\n      pop\n      pop\n      jump\t// out\n        /* \"#utility.yul\":2893:3266   */\n    tag_21:\n        /* \"#utility.yul\":3036:3040   */\n      0x00\n        /* \"#utility.yul\":3074:3076   */\n      0x20\n        /* \"#utility.yul\":3063:3072   */\n      dup3\n        /* \"#utility.yul\":3059:3077   */\n      add\n        /* \"#utility.yul\":3051:3077   */\n      swap1\n      pop\n        /* \"#utility.yul\":3123:3132   */\n      dup2\n        /* \"#utility.yul\":3117:3121   */\n      dup2\n        /* \"#utility.yul\":3113:3133   */\n      sub\n        /* \"#utility.yul\":3109:3110   */\n      0x00\n        /* \"#utility.yul\":3098:3107   */\n      dup4\n        /* \"#utility.yul\":3094:3111   */\n      add\n        /* \"#utility.yul\":3087:3134   */\n      mstore\n        /* \"#utility.yul\":3151:3259   */\n      tag_202\n        /* \"#utility.yul\":3254:3258   */\n      dup2\n        /* \"#utility.yul\":3245:3251   */\n      dup5\n        /* \"#utility.yul\":3151:3259   */\n      tag_125\n      jump\t// in\n    tag_202:\n        /* \"#utility.yul\":3143:3259   */\n      swap1\n      pop\n        /* \"#utility.yul\":2893:3266   */\n      swap3\n      swap2\n      pop\n      pop\n      jump\t// out\n        /* \"#utility.yul\":3272:3390   */\n    tag_126:\n        /* \"#utility.yul\":3359:3383   */\n      tag_204\n        /* \"#utility.yul\":3377:3382   */\n      dup2\n        /* \"#utility.yul\":3359:3383   */\n      tag_121\n      jump\t// in\n    tag_204:\n        /* \"#utility.yul\":3354:3357   */\n      dup3\n        /* \"#utility.yul\":3347:3384   */\n      mstore\n        /* \"#utility.yul\":3272:3390   */\n      pop\n      pop\n      jump\t// out\n        /* \"#utility.yul\":3396:3495   */\n    tag_127:\n        /* \"#utility.yul\":3448:3454   */\n      0x00\n        /* \"#utility.yul\":3482:3487   */\n      dup2\n        /* \"#utility.yul\":3476:3488   */\n      mload\n        /* \"#utility.yul\":3466:3488   */\n      swap1\n      pop\n        /* \"#utility.yul\":3396:3495   */\n      swap2\n      swap1\n      pop\n      jump\t// out\n        /* \"#utility.yul\":3501:3670   */\n    tag_128:\n        /* \"#utility.yul\":3585:3596   */\n      0x00\n        /* \"#utility.yul\":3619:3625   */\n      dup3\n        /* \"#utility.yul\":3614:3617   */\n      dup3\n        /* \"#utility.yul\":3607:3626   */\n      mstore\n        /* \"#utility.yul\":3659:3663   */\n      0x20\n        /* \"#utility.yul\":3654:3657   */\n      dup3\n        /* \"#utility.yul\":3650:3664   */\n      add\n        /* \"#utility.yul\":3635:3664   */\n      swap1\n      pop\n        /* \"#utility.yul\":3501:3670   */\n      swap3\n      swap2\n      pop\n      pop\n      jump\t// out\n        /* \"#utility.yul\":3676:3815   */\n    tag_129:\n        /* \"#utility.yul\":3765:3771   */\n      dup3\n        /* \"#utility.yul\":3760:3763   */\n      dup2\n        /* \"#utility.yul\":3755:3758   */\n      dup4\n        /* \"#utility.yul\":3749:3772   */\n      mcopy\n        /* \"#utility.yul\":3806:3807   */\n      0x00\n        /* \"#utility.yul\":3797:3803   */\n      dup4\n        /* \"#utility.yul\":3792:3795   */\n      dup4\n        /* \"#utility.yul\":3788:3804   */\n      add\n        /* \"#utility.yul\":3781:3808   */\n      mstore\n        /* \"#utility.yul\":3676:3815   */\n      pop\n      pop\n      pop\n      jump\t// out\n        /* \"#utility.yul\":3821:3923   */\n    tag_130:\n        /* \"#utility.yul\":3862:3868   */\n      0x00\n        /* \"#utility.yul\":3913:3915   */\n      0x1f\n        /* \"#utility.yul\":3909:3916   */\n      not\n        /* \"#utility.yul\":3904:3906   */\n      0x1f\n        /* \"#utility.yul\":3897:3902   */\n      dup4\n        /* \"#utility.yul\":3893:3907   */\n      add\n        /* \"#utility.yul\":3889:3917   */\n      and\n        /* \"#utility.yul\":3879:3917   */\n      swap1\n      pop\n        /* \"#utility.yul\":3821:3923   */\n      swap2\n      swap1\n      pop\n      jump\t// out\n        /* \"#utility.yul\":3929:4306   */\n    tag_131:\n        /* \"#utility.yul\":4017:4020   */\n      0x00\n        /* \"#utility.yul\":4045:4084   */\n      tag_210\n        /* \"#utility.yul\":4078:4083   */\n      dup3\n        /* \"#utility.yul\":4045:4084   */\n      tag_127\n      jump\t// in\n    tag_210:\n        /* \"#utility.yul\":4100:4171   */\n      tag_211\n        /* \"#utility.yul\":4164:4170   */\n      dup2\n        /* \"#utility.yul\":4159:4162   */\n      dup6\n        /* \"#utility.yul\":4100:4171   */\n      tag_128\n      jump\t// in\n    tag_211:\n        /* \"#utility.yul\":4093:4171   */\n      swap4\n      pop\n        /* \"#utility.yul\":4180:4245   */\n      tag_212\n        /* \"#utility.yul\":4238:4244   */\n      dup2\n        /* \"#utility.yul\":4233:4236   */\n      dup6\n        /* \"#utility.yul\":4226:4230   */\n      0x20\n        /* \"#utility.yul\":4219:4224   */\n      dup7\n        /* \"#utility.yul\":4215:4231   */\n      add\n        /* \"#utility.yul\":4180:4245   */\n      tag_129\n      jump\t// in\n    tag_212:\n        /* \"#utility.yul\":4270:4299   */\n      tag_213\n        /* \"#utility.yul\":4292:4298   */\n      dup2\n        /* \"#utility.yul\":4270:4299   */\n      tag_130\n      jump\t// in\n    tag_213:\n        /* \"#utility.yul\":4265:4268   */\n      dup5\n        /* \"#utility.yul\":4261:4300   */\n      add\n        /* \"#utility.yul\":4254:4300   */\n      swap2\n      pop\n        /* \"#utility.yul\":4021:4306   */\n      pop\n        /* \"#utility.yul\":3929:4306   */\n      swap3\n      swap2\n      pop\n      pop\n      jump\t// out\n        /* \"#utility.yul\":4312:4430   */\n    tag_132:\n        /* \"#utility.yul\":4399:4423   */\n      tag_215\n        /* \"#utility.yul\":4417:4422   */\n      dup2\n        /* \"#utility.yul\":4399:4423   */\n      tag_114\n      jump\t// in\n    tag_215:\n        /* \"#utility.yul\":4394:4397   */\n      dup3\n        /* \"#utility.yul\":4387:4424   */\n      mstore\n        /* \"#utility.yul\":4312:4430   */\n      pop\n      pop\n      jump\t// out\n        /* \"#utility.yul\":4436:5282   */\n    tag_27:\n        /* \"#utility.yul\":4681:4685   */\n      0x00\n        /* \"#utility.yul\":4719:4722   */\n      0xa0\n        /* \"#utility.yul\":4708:4717   */\n      dup3\n        /* \"#utility.yul\":4704:4723   */\n      add\n        /* \"#utility.yul\":4696:4723   */\n      swap1\n      pop\n        /* \"#utility.yul\":4733:4804   */\n      tag_217\n        /* \"#utility.yul\":4801:4802   */\n      0x00\n        /* \"#utility.yul\":4790:4799   */\n      dup4\n        /* \"#utility.yul\":4786:4803   */\n      add\n        /* \"#utility.yul\":4777:4783   */\n      dup9\n        /* \"#utility.yul\":4733:4804   */\n      tag_126\n      jump\t// in\n    tag_217:\n        /* \"#utility.yul\":4851:4860   */\n      dup2\n        /* \"#utility.yul\":4845:4849   */\n      dup2\n        /* \"#utility.yul\":4841:4861   */\n      sub\n        /* \"#utility.yul\":4836:4838   */\n      0x20\n        /* \"#utility.yul\":4825:4834   */\n      dup4\n        /* \"#utility.yul\":4821:4839   */\n      add\n        /* \"#utility.yul\":4814:4862   */\n      mstore\n        /* \"#utility.yul\":4879:4957   */\n      tag_218\n        /* \"#utility.yul\":4952:4956   */\n      dup2\n        /* \"#utility.yul\":4943:4949   */\n      dup8\n        /* \"#utility.yul\":4879:4957   */\n      tag_131\n      jump\t// in\n    tag_218:\n        /* \"#utility.yul\":4871:4957   */\n      swap1\n      pop\n        /* \"#utility.yul\":5004:5013   */\n      dup2\n        /* \"#utility.yul\":4998:5002   */\n      dup2\n        /* \"#utility.yul\":4994:5014   */\n      sub\n        /* \"#utility.yul\":4989:4991   */\n      0x40\n        /* \"#utility.yul\":4978:4987   */\n      dup4\n        /* \"#utility.yul\":4974:4992   */\n      add\n        /* \"#utility.yul\":4967:5015   */\n      mstore\n        /* \"#utility.yul\":5032:5110   */\n      tag_219\n        /* \"#utility.yul\":5105:5109   */\n      dup2\n        /* \"#utility.yul\":5096:5102   */\n      dup7\n        /* \"#utility.yul\":5032:5110   */\n      tag_131\n      jump\t// in\n    tag_219:\n        /* \"#utility.yul\":5024:5110   */\n      swap1\n      pop\n        /* \"#utility.yul\":5120:5192   */\n      tag_220\n        /* \"#utility.yul\":5188:5190   */\n      0x60\n        /* \"#utility.yul\":5177:5186   */\n      dup4\n        /* \"#utility.yul\":5173:5191   */\n      add\n        /* \"#utility.yul\":5164:5170   */\n      dup6\n        /* \"#utility.yul\":5120:5192   */\n      tag_132\n      jump\t// in\n    tag_220:\n        /* \"#utility.yul\":5202:5275   */\n      tag_221\n        /* \"#utility.yul\":5270:5273   */\n      0x80\n        /* \"#utility.yul\":5259:5268   */\n      dup4\n        /* \"#utility.yul\":5255:5274   */\n      add\n        /* \"#utility.yul\":5246:5252   */\n      dup5\n        /* \"#utility.yul\":5202:5275   */\n      tag_132\n      jump\t// in\n    tag_221:\n        /* \"#utility.yul\":4436:5282   */\n      swap7\n      swap6\n      pop\n      pop\n      pop\n      pop\n      pop\n      pop\n      jump\t// out\n        /* \"#utility.yul\":5288:5378   */\n    tag_133:\n        /* \"#utility.yul\":5322:5329   */\n      0x00\n        /* \"#utility.yul\":5365:5370   */\n      dup2\n        /* \"#utility.yul\":5358:5371   */\n      iszero\n        /* \"#utility.yul\":5351:5372   */\n      iszero\n        /* \"#utility.yul\":5340:5372   */\n      swap1\n      pop\n        /* \"#utility.yul\":5288:5378   */\n      swap2\n      swap1\n      pop\n      jump\t// out\n        /* \"#utility.yul\":5384:5493   */\n    tag_134:\n        /* \"#utility.yul\":5465:5486   */\n      tag_224\n        /* \"#utility.yul\":5480:5485   */\n      dup2\n        /* \"#utility.yul\":5465:5486   */\n      tag_133\n      jump\t// in\n    tag_224:\n        /* \"#utility.yul\":5460:5463   */\n      dup3\n        /* \"#utility.yul\":5453:5487   */\n      mstore\n        /* \"#utility.yul\":5384:5493   */\n      pop\n      pop\n      jump\t// out\n        /* \"#utility.yul\":5499:5709   */\n    tag_33:\n        /* \"#utility.yul\":5586:5590   */\n      0x00\n        /* \"#utility.yul\":5624:5626   */\n      0x20\n        /* \"#utility.yul\":5613:5622   */\n      dup3\n        /* \"#utility.yul\":5609:5627   */\n      add\n        /* \"#utility.yul\":5601:5627   */\n      swap1\n      pop\n        /* \"#utility.yul\":5637:5702   */\n      tag_226\n        /* \"#utility.yul\":5699:5700   */\n      0x00\n        /* \"#utility.yul\":5688:5697   */\n      dup4\n        /* \"#utility.yul\":5684:5701   */\n      add\n        /* \"#utility.yul\":5675:5681   */\n      dup5\n        /* \"#utility.yul\":5637:5702   */\n      tag_134\n      jump\t// in\n    tag_226:\n        /* \"#utility.yul\":5499:5709   */\n      swap3\n      swap2\n      pop\n      pop\n      jump\t// out\n        /* \"#utility.yul\":5715:6823   */\n    tag_39:\n        /* \"#utility.yul\":6038:6042   */\n      0x00\n        /* \"#utility.yul\":6076:6079   */\n      0xc0\n        /* \"#utility.yul\":6065:6074   */\n      dup3\n        /* \"#utility.yul\":6061:6080   */\n      add\n        /* \"#utility.yul\":6053:6080   */\n      swap1\n      pop\n        /* \"#utility.yul\":6090:6161   */\n      tag_228\n        /* \"#utility.yul\":6158:6159   */\n      0x00\n        /* \"#utility.yul\":6147:6156   */\n      dup4\n        /* \"#utility.yul\":6143:6160   */\n      add\n        /* \"#utility.yul\":6134:6140   */\n      dup10\n        /* \"#utility.yul\":6090:6161   */\n      tag_126\n      jump\t// in\n    tag_228:\n        /* \"#utility.yul\":6208:6217   */\n      dup2\n        /* \"#utility.yul\":6202:6206   */\n      dup2\n        /* \"#utility.yul\":6198:6218   */\n      sub\n        /* \"#utility.yul\":6193:6195   */\n      0x20\n        /* \"#utility.yul\":6182:6191   */\n      dup4\n        /* \"#utility.yul\":6178:6196   */\n      add\n        /* \"#utility.yul\":6171:6219   */\n      mstore\n        /* \"#utility.yul\":6236:6314   */\n      tag_229\n        /* \"#utility.yul\":6309:6313   */\n      dup2\n        /* \"#utility.yul\":6300:6306   */\n      dup9\n        /* \"#utility.yul\":6236:6314   */\n      tag_131\n      jump\t// in\n    tag_229:\n        /* \"#utility.yul\":6228:6314   */\n      swap1\n      pop\n        /* \"#utility.yul\":6361:6370   */\n      dup2\n        /* \"#utility.yul\":6355:6359   */\n      dup2\n        /* \"#utility.yul\":6351:6371   */\n      sub\n        /* \"#utility.yul\":6346:6348   */\n      0x40\n        /* \"#utility.yul\":6335:6344   */\n      dup4\n        /* \"#utility.yul\":6331:6349   */\n      add\n        /* \"#utility.yul\":6324:6372   */\n      mstore\n        /* \"#utility.yul\":6389:6467   */\n      tag_230\n        /* \"#utility.yul\":6462:6466   */\n      dup2\n        /* \"#utility.yul\":6453:6459   */\n      dup8\n        /* \"#utility.yul\":6389:6467   */\n      tag_131\n      jump\t// in\n    tag_230:\n        /* \"#utility.yul\":6381:6467   */\n      swap1\n      pop\n        /* \"#utility.yul\":6477:6549   */\n      tag_231\n        /* \"#utility.yul\":6545:6547   */\n      0x60\n        /* \"#utility.yul\":6534:6543   */\n      dup4\n        /* \"#utility.yul\":6530:6548   */\n      add\n        /* \"#utility.yul\":6521:6527   */\n      dup7\n        /* \"#utility.yul\":6477:6549   */\n      tag_132\n      jump\t// in\n    tag_231:\n        /* \"#utility.yul\":6559:6632   */\n      tag_232\n        /* \"#utility.yul\":6627:6630   */\n      0x80\n        /* \"#utility.yul\":6616:6625   */\n      dup4\n        /* \"#utility.yul\":6612:6631   */\n      add\n        /* \"#utility.yul\":6603:6609   */\n      dup6\n        /* \"#utility.yul\":6559:6632   */\n      tag_132\n      jump\t// in\n    tag_232:\n        /* \"#utility.yul\":6680:6689   */\n      dup2\n        /* \"#utility.yul\":6674:6678   */\n      dup2\n        /* \"#utility.yul\":6670:6690   */\n      sub\n        /* \"#utility.yul\":6664:6667   */\n      0xa0\n        /* \"#utility.yul\":6653:6662   */\n      dup4\n        /* \"#utility.yul\":6649:6668   */\n      add\n        /* \"#utility.yul\":6642:6691   */\n      mstore\n        /* \"#utility.yul\":6708:6816   */\n      tag_233\n        /* \"#utility.yul\":6811:6815   */\n      dup2\n        /* \"#utility.yul\":6802:6808   */\n      dup5\n        /* \"#utility.yul\":6708:6816   */\n      tag_125\n      jump\t// in\n    tag_233:\n        /* \"#utility.yul\":6700:6816   */\n      swap1\n      pop\n        /* \"#utility.yul\":5715:6823   */\n      swap8\n      swap7\n      pop\n      pop\n      pop\n      pop\n      pop\n      pop\n      pop\n      jump\t// out\n        /* \"#utility.yul\":6829:7051   */\n    tag_44:\n        /* \"#utility.yul\":6922:6926   */\n      0x00\n        /* \"#utility.yul\":6960:6962   */\n      0x20\n        /* \"#utility.yul\":6949:6958   */\n      dup3\n        /* \"#utility.yul\":6945:6963   */\n      add\n        /* \"#utility.yul\":6937:6963   */\n      swap1\n      pop\n        /* \"#utility.yul\":6973:7044   */\n      tag_235\n        /* \"#utility.yul\":7041:7042   */\n      0x00\n        /* \"#utility.yul\":7030:7039   */\n      dup4\n        /* \"#utility.yul\":7026:7043   */\n      add\n        /* \"#utility.yul\":7017:7023   */\n      dup5\n        /* \"#utility.yul\":6973:7044   */\n      tag_132\n      jump\t// in\n    tag_235:\n        /* \"#utility.yul\":6829:7051   */\n      swap3\n      swap2\n      pop\n      pop\n      jump\t// out\n        /* \"#utility.yul\":7057:7179   */\n    tag_135:\n        /* \"#utility.yul\":7130:7154   */\n      tag_237\n        /* \"#utility.yul\":7148:7153   */\n      dup2\n        /* \"#utility.yul\":7130:7154   */\n      tag_121\n      jump\t// in\n    tag_237:\n        /* \"#utility.yul\":7123:7128   */\n      dup2\n        /* \"#utility.yul\":7120:7155   */\n      eq\n        /* \"#utility.yul\":7110:7173   */\n      tag_238\n      jumpi\n        /* \"#utility.yul\":7169:7170   */\n      0x00\n        /* \"#utility.yul\":7166:7167   */\n      dup1\n        /* \"#utility.yul\":7159:7171   */\n      revert\n        /* \"#utility.yul\":7110:7173   */\n    tag_238:\n        /* \"#utility.yul\":7057:7179   */\n      pop\n      jump\t// out\n        /* \"#utility.yul\":7185:7324   */\n    tag_136:\n        /* \"#utility.yul\":7231:7236   */\n      0x00\n        /* \"#utility.yul\":7269:7275   */\n      dup2\n        /* \"#utility.yul\":7256:7276   */\n      calldataload\n        /* \"#utility.yul\":7247:7276   */\n      swap1\n      pop\n        /* \"#utility.yul\":7285:7318   */\n      tag_240\n        /* \"#utility.yul\":7312:7317   */\n      dup2\n        /* \"#utility.yul\":7285:7318   */\n      tag_135\n      jump\t// in\n    tag_240:\n        /* \"#utility.yul\":7185:7324   */\n      swap3\n      swap2\n      pop\n      pop\n      jump\t// out\n        /* \"#utility.yul\":7330:7804   */\n    tag_48:\n        /* \"#utility.yul\":7398:7404   */\n      0x00\n        /* \"#utility.yul\":7406:7412   */\n      dup1\n        /* \"#utility.yul\":7455:7457   */\n      0x40\n        /* \"#utility.yul\":7443:7452   */\n      dup4\n        /* \"#utility.yul\":7434:7441   */\n      dup6\n        /* \"#utility.yul\":7430:7453   */\n      sub\n        /* \"#utility.yul\":7426:7458   */\n      slt\n        /* \"#utility.yul\":7423:7542   */\n      iszero\n      tag_242\n      jumpi\n        /* \"#utility.yul\":7461:7540   */\n      tag_243\n      tag_112\n      jump\t// in\n    tag_243:\n        /* \"#utility.yul\":7423:7542   */\n    tag_242:\n        /* \"#utility.yul\":7581:7582   */\n      0x00\n        /* \"#utility.yul\":7606:7659   */\n      tag_244\n        /* \"#utility.yul\":7651:7658   */\n      dup6\n        /* \"#utility.yul\":7642:7648   */\n      dup3\n        /* \"#utility.yul\":7631:7640   */\n      dup7\n        /* \"#utility.yul\":7627:7649   */\n      add\n        /* \"#utility.yul\":7606:7659   */\n      tag_116\n      jump\t// in\n    tag_244:\n        /* \"#utility.yul\":7596:7659   */\n      swap3\n      pop\n        /* \"#utility.yul\":7552:7669   */\n      pop\n        /* \"#utility.yul\":7708:7710   */\n      0x20\n        /* \"#utility.yul\":7734:7787   */\n      tag_245\n        /* \"#utility.yul\":7779:7786   */\n      dup6\n        /* \"#utility.yul\":7770:7776   */\n      dup3\n        /* \"#utility.yul\":7759:7768   */\n      dup7\n        /* \"#utility.yul\":7755:7777   */\n      add\n        /* \"#utility.yul\":7734:7787   */\n      tag_136\n      jump\t// in\n    tag_245:\n        /* \"#utility.yul\":7724:7787   */\n      swap2\n      pop\n        /* \"#utility.yul\":7679:7797   */\n      pop\n        /* \"#utility.yul\":7330:7804   */\n      swap3\n      pop\n      swap3\n      swap1\n      pop\n      jump\t// out\n        /* \"#utility.yul\":7810:7927   */\n    tag_137:\n        /* \"#utility.yul\":7919:7920   */\n      0x00\n        /* \"#utility.yul\":7916:7917   */\n      dup1\n        /* \"#utility.yul\":7909:7921   */\n      revert\n        /* \"#utility.yul\":7933:8050   */\n    tag_138:\n        /* \"#utility.yul\":8042:8043   */\n      0x00\n        /* \"#utility.yul\":8039:8040   */\n      dup1\n        /* \"#utility.yul\":8032:8044   */\n      revert\n        /* \"#utility.yul\":8056:8236   */\n    tag_139:\n        /* \"#utility.yul\":8104:8181   */\n      0x4e487b7100000000000000000000000000000000000000000000000000000000\n        /* \"#utility.yul\":8101:8102   */\n      0x00\n        /* \"#utility.yul\":8094:8182   */\n      mstore\n        /* \"#utility.yul\":8201:8205   */\n      0x41\n        /* \"#utility.yul\":8198:8199   */\n      0x04\n        /* \"#utility.yul\":8191:8206   */\n      mstore\n        /* \"#utility.yul\":8225:8229   */\n      0x24\n        /* \"#utility.yul\":8222:8223   */\n      0x00\n        /* \"#utility.yul\":8215:8230   */\n      revert\n        /* \"#utility.yul\":8242:8523   */\n    tag_140:\n        /* \"#utility.yul\":8325:8352   */\n      tag_250\n        /* \"#utility.yul\":8347:8351   */\n      dup3\n        /* \"#utility.yul\":8325:8352   */\n      tag_130\n      jump\t// in\n    tag_250:\n        /* \"#utility.yul\":8317:8323   */\n      dup2\n        /* \"#utility.yul\":8313:8353   */\n      add\n        /* \"#utility.yul\":8455:8461   */\n      dup2\n        /* \"#utility.yul\":8443:8453   */\n      dup2\n        /* \"#utility.yul\":8440:8462   */\n      lt\n        /* \"#utility.yul\":8419:8437   */\n      0xffffffffffffffff\n        /* \"#utility.yul\":8407:8417   */\n      dup3\n        /* \"#utility.yul\":8404:8438   */\n      gt\n        /* \"#utility.yul\":8401:8463   */\n      or\n        /* \"#utility.yul\":8398:8486   */\n      iszero\n      tag_251\n      jumpi\n        /* \"#utility.yul\":8466:8484   */\n      tag_252\n      tag_139\n      jump\t// in\n    tag_252:\n        /* \"#utility.yul\":8398:8486   */\n    tag_251:\n        /* \"#utility.yul\":8506:8516   */\n      dup1\n        /* \"#utility.yul\":8502:8504   */\n      0x40\n        /* \"#utility.yul\":8495:8517   */\n      mstore\n        /* \"#utility.yul\":8285:8523   */\n      pop\n        /* \"#utility.yul\":8242:8523   */\n      pop\n      pop\n      jump\t// out\n        /* \"#utility.yul\":8529:8658   */\n    tag_141:\n        /* \"#utility.yul\":8563:8569   */\n      0x00\n        /* \"#utility.yul\":8590:8610   */\n      tag_254\n      tag_111\n      jump\t// in\n    tag_254:\n        /* \"#utility.yul\":8580:8610   */\n      swap1\n      pop\n        /* \"#utility.yul\":8619:8652   */\n      tag_255\n        /* \"#utility.yul\":8647:8651   */\n      dup3\n        /* \"#utility.yul\":8639:8645   */\n      dup3\n        /* \"#utility.yul\":8619:8652   */\n      tag_140\n      jump\t// in\n    tag_255:\n        /* \"#utility.yul\":8529:8658   */\n      swap2\n      swap1\n      pop\n      jump\t// out\n        /* \"#utility.yul\":8664:8972   */\n    tag_142:\n        /* \"#utility.yul\":8726:8730   */\n      0x00\n        /* \"#utility.yul\":8816:8834   */\n      0xffffffffffffffff\n        /* \"#utility.yul\":8808:8814   */\n      dup3\n        /* \"#utility.yul\":8805:8835   */\n      gt\n        /* \"#utility.yul\":8802:8858   */\n      iszero\n      tag_257\n      jumpi\n        /* \"#utility.yul\":8838:8856   */\n      tag_258\n      tag_139\n      jump\t// in\n    tag_258:\n        /* \"#utility.yul\":8802:8858   */\n    tag_257:\n        /* \"#utility.yul\":8876:8905   */\n      tag_259\n        /* \"#utility.yul\":8898:8904   */\n      dup3\n        /* \"#utility.yul\":8876:8905   */\n      tag_130\n      jump\t// in\n    tag_259:\n        /* \"#utility.yul\":8868:8905   */\n      swap1\n      pop\n        /* \"#utility.yul\":8960:8964   */\n      0x20\n        /* \"#utility.yul\":8954:8958   */\n      dup2\n        /* \"#utility.yul\":8950:8965   */\n      add\n        /* \"#utility.yul\":8942:8965   */\n      swap1\n      pop\n        /* \"#utility.yul\":8664:8972   */\n      swap2\n      swap1\n      pop\n      jump\t// out\n        /* \"#utility.yul\":8978:9126   */\n    tag_143:\n        /* \"#utility.yul\":9076:9082   */\n      dup3\n        /* \"#utility.yul\":9071:9074   */\n      dup2\n        /* \"#utility.yul\":9066:9069   */\n      dup4\n        /* \"#utility.yul\":9053:9083   */\n      calldatacopy\n        /* \"#utility.yul\":9117:9118   */\n      0x00\n        /* \"#utility.yul\":9108:9114   */\n      dup4\n        /* \"#utility.yul\":9103:9106   */\n      dup4\n        /* \"#utility.yul\":9099:9115   */\n      add\n        /* \"#utility.yul\":9092:9119   */\n      mstore\n        /* \"#utility.yul\":8978:9126   */\n      pop\n      pop\n      pop\n      jump\t// out\n        /* \"#utility.yul\":9132:9557   */\n    tag_144:\n        /* \"#utility.yul\":9210:9215   */\n      0x00\n        /* \"#utility.yul\":9235:9301   */\n      tag_262\n        /* \"#utility.yul\":9251:9300   */\n      tag_263\n        /* \"#utility.yul\":9293:9299   */\n      dup5\n        /* \"#utility.yul\":9251:9300   */\n      tag_142\n      jump\t// in\n    tag_263:\n        /* \"#utility.yul\":9235:9301   */\n      tag_141\n      jump\t// in\n    tag_262:\n        /* \"#utility.yul\":9226:9301   */\n      swap1\n      pop\n        /* \"#utility.yul\":9324:9330   */\n      dup3\n        /* \"#utility.yul\":9317:9322   */\n      dup2\n        /* \"#utility.yul\":9310:9331   */\n      mstore\n        /* \"#utility.yul\":9362:9366   */\n      0x20\n        /* \"#utility.yul\":9355:9360   */\n      dup2\n        /* \"#utility.yul\":9351:9367   */\n      add\n        /* \"#utility.yul\":9400:9403   */\n      dup5\n        /* \"#utility.yul\":9391:9397   */\n      dup5\n        /* \"#utility.yul\":9386:9389   */\n      dup5\n        /* \"#utility.yul\":9382:9398   */\n      add\n        /* \"#utility.yul\":9379:9404   */\n      gt\n        /* \"#utility.yul\":9376:9488   */\n      iszero\n      tag_264\n      jumpi\n        /* \"#utility.yul\":9407:9486   */\n      tag_265\n      tag_138\n      jump\t// in\n    tag_265:\n        /* \"#utility.yul\":9376:9488   */\n    tag_264:\n        /* \"#utility.yul\":9497:9551   */\n      tag_266\n        /* \"#utility.yul\":9544:9550   */\n      dup5\n        /* \"#utility.yul\":9539:9542   */\n      dup3\n        /* \"#utility.yul\":9534:9537   */\n      dup6\n        /* \"#utility.yul\":9497:9551   */\n      tag_143\n      jump\t// in\n    tag_266:\n        /* \"#utility.yul\":9216:9557   */\n      pop\n        /* \"#utility.yul\":9132:9557   */\n      swap4\n      swap3\n      pop\n      pop\n      pop\n      jump\t// out\n        /* \"#utility.yul\":9577:9917   */\n    tag_145:\n        /* \"#utility.yul\":9633:9638   */\n      0x00\n        /* \"#utility.yul\":9682:9685   */\n      dup3\n        /* \"#utility.yul\":9675:9679   */\n      0x1f\n        /* \"#utility.yul\":9667:9673   */\n      dup4\n        /* \"#utility.yul\":9663:9680   */\n      add\n        /* \"#utility.yul\":9659:9686   */\n      slt\n        /* \"#utility.yul\":9649:9771   */\n      tag_268\n      jumpi\n        /* \"#utility.yul\":9690:9769   */\n      tag_269\n      tag_137\n      jump\t// in\n    tag_269:\n        /* \"#utility.yul\":9649:9771   */\n    tag_268:\n        /* \"#utility.yul\":9807:9813   */\n      dup2\n        /* \"#utility.yul\":9794:9814   */\n      calldataload\n        /* \"#utility.yul\":9832:9911   */\n      tag_270\n        /* \"#utility.yul\":9907:9910   */\n      dup5\n        /* \"#utility.yul\":9899:9905   */\n      dup3\n        /* \"#utility.yul\":9892:9896   */\n      0x20\n        /* \"#utility.yul\":9884:9890   */\n      dup7\n        /* \"#utility.yul\":9880:9897   */\n      add\n        /* \"#utility.yul\":9832:9911   */\n      tag_144\n      jump\t// in\n    tag_270:\n        /* \"#utility.yul\":9823:9911   */\n      swap2\n      pop\n        /* \"#utility.yul\":9639:9917   */\n      pop\n        /* \"#utility.yul\":9577:9917   */\n      swap3\n      swap2\n      pop\n      pop\n      jump\t// out\n        /* \"#utility.yul\":9923:10902   */\n    tag_62:\n        /* \"#utility.yul\":10020:10026   */\n      0x00\n        /* \"#utility.yul\":10028:10034   */\n      dup1\n        /* \"#utility.yul\":10036:10042   */\n      0x00\n        /* \"#utility.yul\":10085:10087   */\n      0x60\n        /* \"#utility.yul\":10073:10082   */\n      dup5\n        /* \"#utility.yul\":10064:10071   */\n      dup7\n        /* \"#utility.yul\":10060:10083   */\n      sub\n        /* \"#utility.yul\":10056:10088   */\n      slt\n        /* \"#utility.yul\":10053:10172   */\n      iszero\n      tag_272\n      jumpi\n        /* \"#utility.yul\":10091:10170   */\n      tag_273\n      tag_112\n      jump\t// in\n    tag_273:\n        /* \"#utility.yul\":10053:10172   */\n    tag_272:\n        /* \"#utility.yul\":10239:10240   */\n      0x00\n        /* \"#utility.yul\":10228:10237   */\n      dup5\n        /* \"#utility.yul\":10224:10241   */\n      add\n        /* \"#utility.yul\":10211:10242   */\n      calldataload\n        /* \"#utility.yul\":10269:10287   */\n      0xffffffffffffffff\n        /* \"#utility.yul\":10261:10267   */\n      dup2\n        /* \"#utility.yul\":10258:10288   */\n      gt\n        /* \"#utility.yul\":10255:10372   */\n      iszero\n      tag_274\n      jumpi\n        /* \"#utility.yul\":10291:10370   */\n      tag_275\n      tag_113\n      jump\t// in\n    tag_275:\n        /* \"#utility.yul\":10255:10372   */\n    tag_274:\n        /* \"#utility.yul\":10396:10459   */\n      tag_276\n        /* \"#utility.yul\":10451:10458   */\n      dup7\n        /* \"#utility.yul\":10442:10448   */\n      dup3\n        /* \"#utility.yul\":10431:10440   */\n      dup8\n        /* \"#utility.yul\":10427:10449   */\n      add\n        /* \"#utility.yul\":10396:10459   */\n      tag_145\n      jump\t// in\n    tag_276:\n        /* \"#utility.yul\":10386:10459   */\n      swap4\n      pop\n        /* \"#utility.yul\":10182:10469   */\n      pop\n        /* \"#utility.yul\":10536:10538   */\n      0x20\n        /* \"#utility.yul\":10525:10534   */\n      dup5\n        /* \"#utility.yul\":10521:10539   */\n      add\n        /* \"#utility.yul\":10508:10540   */\n      calldataload\n        /* \"#utility.yul\":10567:10585   */\n      0xffffffffffffffff\n        /* \"#utility.yul\":10559:10565   */\n      dup2\n        /* \"#utility.yul\":10556:10586   */\n      gt\n        /* \"#utility.yul\":10553:10670   */\n      iszero\n      tag_277\n      jumpi\n        /* \"#utility.yul\":10589:10668   */\n      tag_278\n      tag_113\n      jump\t// in\n    tag_278:\n        /* \"#utility.yul\":10553:10670   */\n    tag_277:\n        /* \"#utility.yul\":10694:10757   */\n      tag_279\n        /* \"#utility.yul\":10749:10756   */\n      dup7\n        /* \"#utility.yul\":10740:10746   */\n      dup3\n        /* \"#utility.yul\":10729:10738   */\n      dup8\n        /* \"#utility.yul\":10725:10747   */\n      add\n        /* \"#utility.yul\":10694:10757   */\n      tag_145\n      jump\t// in\n    tag_279:\n        /* \"#utility.yul\":10684:10757   */\n      swap3\n      pop\n        /* \"#utility.yul\":10479:10767   */\n      pop\n        /* \"#utility.yul\":10806:10808   */\n      0x40\n        /* \"#utility.yul\":10832:10885   */\n      tag_280\n        /* \"#utility.yul\":10877:10884   */\n      dup7\n        /* \"#utility.yul\":10868:10874   */\n      dup3\n        /* \"#utility.yul\":10857:10866   */\n      dup8\n        /* \"#utility.yul\":10853:10875   */\n      add\n        /* \"#utility.yul\":10832:10885   */\n      tag_116\n      jump\t// in\n    tag_280:\n        /* \"#utility.yul\":10822:10885   */\n      swap2\n      pop\n        /* \"#utility.yul\":10777:10895   */\n      pop\n        /* \"#utility.yul\":9923:10902   */\n      swap3\n      pop\n      swap3\n      pop\n      swap3\n      jump\t// out\n        /* \"#utility.yul\":10908:11088   */\n    tag_146:\n        /* \"#utility.yul\":10956:11033   */\n      0x4e487b7100000000000000000000000000000000000000000000000000000000\n        /* \"#utility.yul\":10953:10954   */\n      0x00\n        /* \"#utility.yul\":10946:11034   */\n      mstore\n        /* \"#utility.yul\":11053:11057   */\n      0x22\n        /* \"#utility.yul\":11050:11051   */\n      0x04\n        /* \"#utility.yul\":11043:11058   */\n      mstore\n        /* \"#utility.yul\":11077:11081   */\n      0x24\n        /* \"#utility.yul\":11074:11075   */\n      0x00\n        /* \"#utility.yul\":11067:11082   */\n      revert\n        /* \"#utility.yul\":11094:11414   */\n    tag_68:\n        /* \"#utility.yul\":11138:11144   */\n      0x00\n        /* \"#utility.yul\":11175:11176   */\n      0x02\n        /* \"#utility.yul\":11169:11173   */\n      dup3\n        /* \"#utility.yul\":11165:11177   */\n      div\n        /* \"#utility.yul\":11155:11177   */\n      swap1\n      pop\n        /* \"#utility.yul\":11222:11223   */\n      0x01\n        /* \"#utility.yul\":11216:11220   */\n      dup3\n        /* \"#utility.yul\":11212:11224   */\n      and\n        /* \"#utility.yul\":11243:11261   */\n      dup1\n        /* \"#utility.yul\":11233:11314   */\n      tag_283\n      jumpi\n        /* \"#utility.yul\":11299:11303   */\n      0x7f\n        /* \"#utility.yul\":11291:11297   */\n      dup3\n        /* \"#utility.yul\":11287:11304   */\n      and\n        /* \"#utility.yul\":11277:11304   */\n      swap2\n      pop\n        /* \"#utility.yul\":11233:11314   */\n    tag_283:\n        /* \"#utility.yul\":11361:11363   */\n      0x20\n        /* \"#utility.yul\":11353:11359   */\n      dup3\n        /* \"#utility.yul\":11350:11364   */\n      lt\n        /* \"#utility.yul\":11330:11348   */\n      dup2\n        /* \"#utility.yul\":11327:11365   */\n      sub\n        /* \"#utility.yul\":11324:11408   */\n      tag_284\n      jumpi\n        /* \"#utility.yul\":11380:11398   */\n      tag_285\n      tag_146\n      jump\t// in\n    tag_285:\n        /* \"#utility.yul\":11324:11408   */\n    tag_284:\n        /* \"#utility.yul\":11145:11414   */\n      pop\n        /* \"#utility.yul\":11094:11414   */\n      swap2\n      swap1\n      pop\n      jump\t// out\n        /* \"#utility.yul\":11420:11593   */\n    tag_147:\n        /* \"#utility.yul\":11560:11585   */\n      0x43616d706169676e20646f6573206e6f74206578697374000000000000000000\n        /* \"#utility.yul\":11556:11557   */\n      0x00\n        /* \"#utility.yul\":11548:11554   */\n      dup3\n        /* \"#utility.yul\":11544:11558   */\n      add\n        /* \"#utility.yul\":11537:11586   */\n      mstore\n        /* \"#utility.yul\":11420:11593   */\n      pop\n      jump\t// out\n        /* \"#utility.yul\":11599:11965   */\n    tag_148:\n        /* \"#utility.yul\":11741:11744   */\n      0x00\n        /* \"#utility.yul\":11762:11829   */\n      tag_288\n        /* \"#utility.yul\":11826:11828   */\n      0x17\n        /* \"#utility.yul\":11821:11824   */\n      dup4\n        /* \"#utility.yul\":11762:11829   */\n      tag_128\n      jump\t// in\n    tag_288:\n        /* \"#utility.yul\":11755:11829   */\n      swap2\n      pop\n        /* \"#utility.yul\":11838:11931   */\n      tag_289\n        /* \"#utility.yul\":11927:11930   */\n      dup3\n        /* \"#utility.yul\":11838:11931   */\n      tag_147\n      jump\t// in\n    tag_289:\n        /* \"#utility.yul\":11956:11958   */\n      0x20\n        /* \"#utility.yul\":11951:11954   */\n      dup3\n        /* \"#utility.yul\":11947:11959   */\n      add\n        /* \"#utility.yul\":11940:11959   */\n      swap1\n      pop\n        /* \"#utility.yul\":11599:11965   */\n      swap2\n      swap1\n      pop\n      jump\t// out\n        /* \"#utility.yul\":11971:12390   */\n    tag_81:\n        /* \"#utility.yul\":12137:12141   */\n      0x00\n        /* \"#utility.yul\":12175:12177   */\n      0x20\n        /* \"#utility.yul\":12164:12173   */\n      dup3\n        /* \"#utility.yul\":12160:12178   */\n      add\n        /* \"#utility.yul\":12152:12178   */\n      swap1\n      pop\n        /* \"#utility.yul\":12224:12233   */\n      dup2\n        /* \"#utility.yul\":12218:12222   */\n      dup2\n        /* \"#utility.yul\":12214:12234   */\n      sub\n        /* \"#utility.yul\":12210:12211   */\n      0x00\n        /* \"#utility.yul\":12199:12208   */\n      dup4\n        /* \"#utility.yul\":12195:12212   */\n      add\n        /* \"#utility.yul\":12188:12235   */\n      mstore\n        /* \"#utility.yul\":12252:12383   */\n      tag_291\n        /* \"#utility.yul\":12378:12382   */\n      dup2\n        /* \"#utility.yul\":12252:12383   */\n      tag_148\n      jump\t// in\n    tag_291:\n        /* \"#utility.yul\":12244:12383   */\n      swap1\n      pop\n        /* \"#utility.yul\":11971:12390   */\n      swap2\n      swap1\n      pop\n      jump\t// out\n        /* \"#utility.yul\":12396:12577   */\n    tag_149:\n        /* \"#utility.yul\":12536:12569   */\n      0x446f6e6174696f6e206d7573742062652067726561746572207468616e203000\n        /* \"#utility.yul\":12532:12533   */\n      0x00\n        /* \"#utility.yul\":12524:12530   */\n      dup3\n        /* \"#utility.yul\":12520:12534   */\n      add\n        /* \"#utility.yul\":12513:12570   */\n      mstore\n        /* \"#utility.yul\":12396:12577   */\n      pop\n      jump\t// out\n        /* \"#utility.yul\":12583:12949   */\n    tag_150:\n        /* \"#utility.yul\":12725:12728   */\n      0x00\n        /* \"#utility.yul\":12746:12813   */\n      tag_294\n        /* \"#utility.yul\":12810:12812   */\n      0x1f\n        /* \"#utility.yul\":12805:12808   */\n      dup4\n        /* \"#utility.yul\":12746:12813   */\n      tag_128\n      jump\t// in\n    tag_294:\n        /* \"#utility.yul\":12739:12813   */\n      swap2\n      pop\n        /* \"#utility.yul\":12822:12915   */\n      tag_295\n        /* \"#utility.yul\":12911:12914   */\n      dup3\n        /* \"#utility.yul\":12822:12915   */\n      tag_149\n      jump\t// in\n    tag_295:\n        /* \"#utility.yul\":12940:12942   */\n      0x20\n        /* \"#utility.yul\":12935:12938   */\n      dup3\n        /* \"#utility.yul\":12931:12943   */\n      add\n        /* \"#utility.yul\":12924:12943   */\n      swap1\n      pop\n        /* \"#utility.yul\":12583:12949   */\n      swap2\n      swap1\n      pop\n      jump\t// out\n        /* \"#utility.yul\":12955:13374   */\n    tag_100:\n        /* \"#utility.yul\":13121:13125   */\n      0x00\n        /* \"#utility.yul\":13159:13161   */\n      0x20\n        /* \"#utility.yul\":13148:13157   */\n      dup3\n        /* \"#utility.yul\":13144:13162   */\n      add\n        /* \"#utility.yul\":13136:13162   */\n      swap1\n      pop\n        /* \"#utility.yul\":13208:13217   */\n      dup2\n        /* \"#utility.yul\":13202:13206   */\n      dup2\n        /* \"#utility.yul\":13198:13218   */\n      sub\n        /* \"#utility.yul\":13194:13195   */\n      0x00\n        /* \"#utility.yul\":13183:13192   */\n      dup4\n        /* \"#utility.yul\":13179:13196   */\n      add\n        /* \"#utility.yul\":13172:13219   */\n      mstore\n        /* \"#utility.yul\":13236:13367   */\n      tag_297\n        /* \"#utility.yul\":13362:13366   */\n      dup2\n        /* \"#utility.yul\":13236:13367   */\n      tag_150\n      jump\t// in\n    tag_297:\n        /* \"#utility.yul\":13228:13367   */\n      swap1\n      pop\n        /* \"#utility.yul\":12955:13374   */\n      swap2\n      swap1\n      pop\n      jump\t// out\n        /* \"#utility.yul\":13380:13560   */\n    tag_151:\n        /* \"#utility.yul\":13428:13505   */\n      0x4e487b7100000000000000000000000000000000000000000000000000000000\n        /* \"#utility.yul\":13425:13426   */\n      0x00\n        /* \"#utility.yul\":13418:13506   */\n      mstore\n        /* \"#utility.yul\":13525:13529   */\n      0x11\n        /* \"#utility.yul\":13522:13523   */\n      0x04\n        /* \"#utility.yul\":13515:13530   */\n      mstore\n        /* \"#utility.yul\":13549:13553   */\n      0x24\n        /* \"#utility.yul\":13546:13547   */\n      0x00\n        /* \"#utility.yul\":13539:13554   */\n      revert\n        /* \"#utility.yul\":13566:13757   */\n    tag_102:\n        /* \"#utility.yul\":13606:13609   */\n      0x00\n        /* \"#utility.yul\":13625:13645   */\n      tag_300\n        /* \"#utility.yul\":13643:13644   */\n      dup3\n        /* \"#utility.yul\":13625:13645   */\n      tag_114\n      jump\t// in\n    tag_300:\n        /* \"#utility.yul\":13620:13645   */\n      swap2\n      pop\n        /* \"#utility.yul\":13659:13679   */\n      tag_301\n        /* \"#utility.yul\":13677:13678   */\n      dup4\n        /* \"#utility.yul\":13659:13679   */\n      tag_114\n      jump\t// in\n    tag_301:\n        /* \"#utility.yul\":13654:13679   */\n      swap3\n      pop\n        /* \"#utility.yul\":13702:13703   */\n      dup3\n        /* \"#utility.yul\":13699:13700   */\n      dup3\n        /* \"#utility.yul\":13695:13704   */\n      add\n        /* \"#utility.yul\":13688:13704   */\n      swap1\n      pop\n        /* \"#utility.yul\":13723:13726   */\n      dup1\n        /* \"#utility.yul\":13720:13721   */\n      dup3\n        /* \"#utility.yul\":13717:13727   */\n      gt\n        /* \"#utility.yul\":13714:13750   */\n      iszero\n      tag_302\n      jumpi\n        /* \"#utility.yul\":13730:13748   */\n      tag_303\n      tag_151\n      jump\t// in\n    tag_303:\n        /* \"#utility.yul\":13714:13750   */\n    tag_302:\n        /* \"#utility.yul\":13566:13757   */\n      swap3\n      swap2\n      pop\n      pop\n      jump\t// out\n        /* \"#utility.yul\":13763:13996   */\n    tag_107:\n        /* \"#utility.yul\":13802:13805   */\n      0x00\n        /* \"#utility.yul\":13825:13849   */\n      tag_305\n        /* \"#utility.yul\":13843:13848   */\n      dup3\n        /* \"#utility.yul\":13825:13849   */\n      tag_114\n      jump\t// in\n    tag_305:\n        /* \"#utility.yul\":13816:13849   */\n      swap2\n      pop\n        /* \"#utility.yul\":13871:13937   */\n      0xffffffffffffffffffffffffffffffffffffffffffffffffffffffffffffffff\n        /* \"#utility.yul\":13864:13869   */\n      dup3\n        /* \"#utility.yul\":13861:13938   */\n      sub\n        /* \"#utility.yul\":13858:13961   */\n      tag_306\n      jumpi\n        /* \"#utility.yul\":13941:13959   */\n      tag_307\n      tag_151\n      jump\t// in\n    tag_307:\n        /* \"#utility.yul\":13858:13961   */\n    tag_306:\n        /* \"#utility.yul\":13988:13989   */\n      0x01\n        /* \"#utility.yul\":13981:13986   */\n      dup3\n        /* \"#utility.yul\":13977:13990   */\n      add\n        /* \"#utility.yul\":13970:13990   */\n      swap1\n      pop\n        /* \"#utility.yul\":13763:13996   */\n      swap2\n      swap1\n      pop\n      jump\t// out\n        /* \"#utility.yul\":14002:14143   */\n    tag_152:\n        /* \"#utility.yul\":14051:14055   */\n      0x00\n        /* \"#utility.yul\":14074:14077   */\n      dup2\n        /* \"#utility.yul\":14066:14077   */\n      swap1\n      pop\n        /* \"#utility.yul\":14097:14100   */\n      dup2\n        /* \"#utility.yul\":14094:14095   */\n      0x00\n        /* \"#utility.yul\":14087:14101   */\n      mstore\n        /* \"#utility.yul\":14131:14135   */\n      0x20\n        /* \"#utility.yul\":14128:14129   */\n      0x00\n        /* \"#utility.yul\":14118:14136   */\n      keccak256\n        /* \"#utility.yul\":14110:14136   */\n      swap1\n      pop\n        /* \"#utility.yul\":14002:14143   */\n      swap2\n      swap1\n      pop\n      jump\t// out\n        /* \"#utility.yul\":14149:14242   */\n    tag_153:\n        /* \"#utility.yul\":14186:14192   */\n      0x00\n        /* \"#utility.yul\":14233:14235   */\n      0x20\n        /* \"#utility.yul\":14228:14230   */\n      0x1f\n        /* \"#utility.yul\":14221:14226   */\n      dup4\n        /* \"#utility.yul\":14217:14231   */\n      add\n        /* \"#utility.yul\":14213:14236   */\n      div\n        /* \"#utility.yul\":14203:14236   */\n      swap1\n      pop\n        /* \"#utility.yul\":14149:14242   */\n      swap2\n      swap1\n      pop\n      jump\t// out\n        /* \"#utility.yul\":14248:14355   */\n    tag_154:\n        /* \"#utility.yul\":14292:14300   */\n      0x00\n        /* \"#utility.yul\":14342:14347   */\n      dup3\n        /* \"#utility.yul\":14336:14340   */\n      dup3\n        /* \"#utility.yul\":14332:14348   */\n      shl\n        /* \"#utility.yul\":14311:14348   */\n      swap1\n      pop\n        /* \"#utility.yul\":14248:14355   */\n      swap3\n      swap2\n      pop\n      pop\n      jump\t// out\n        /* \"#utility.yul\":14361:14754   */\n    tag_155:\n        /* \"#utility.yul\":14430:14436   */\n      0x00\n        /* \"#utility.yul\":14480:14481   */\n      0x08\n        /* \"#utility.yul\":14468:14478   */\n      dup4\n        /* \"#utility.yul\":14464:14482   */\n      mul\n        /* \"#utility.yul\":14503:14600   */\n      tag_312\n        /* \"#utility.yul\":14533:14599   */\n      0xffffffffffffffffffffffffffffffffffffffffffffffffffffffffffffffff\n        /* \"#utility.yul\":14522:14531   */\n      dup3\n        /* \"#utility.yul\":14503:14600   */\n      tag_154\n      jump\t// in\n    tag_312:\n        /* \"#utility.yul\":14621:14660   */\n      tag_313\n        /* \"#utility.yul\":14651:14659   */\n      dup7\n        /* \"#utility.yul\":14640:14649   */\n      dup4\n        /* \"#utility.yul\":14621:14660   */\n      tag_154\n      jump\t// in\n    tag_313:\n        /* \"#utility.yul\":14609:14660   */\n      swap6\n      pop\n        /* \"#utility.yul\":14693:14697   */\n      dup1\n        /* \"#utility.yul\":14689:14698   */\n      not\n        /* \"#utility.yul\":14682:14687   */\n      dup5\n        /* \"#utility.yul\":14678:14699   */\n      and\n        /* \"#utility.yul\":14669:14699   */\n      swap4\n      pop\n        /* \"#utility.yul\":14742:14746   */\n      dup1\n        /* \"#utility.yul\":14732:14740   */\n      dup7\n        /* \"#utility.yul\":14728:14747   */\n      and\n        /* \"#utility.yul\":14721:14726   */\n      dup5\n        /* \"#utility.yul\":14718:14748   */\n      or\n        /* \"#utility.yul\":14708:14748   */\n      swap3\n      pop\n        /* \"#utility.yul\":14437:14754   */\n      pop\n      pop\n        /* \"#utility.yul\":14361:14754   */\n      swap4\n      swap3\n      pop\n      pop\n      pop\n      jump\t// out\n        /* \"#utility.yul\":14760:14820   */\n    tag_156:\n        /* \"#utility.yul\":14788:14791   */\n      0x00\n        /* \"#utility.yul\":14809:14814   */\n      dup2\n        /* \"#utility.yul\":14802:14814   */\n      swap1\n      pop\n        /* \"#utility.yul\":14760:14820   */\n      swap2\n      swap1\n      pop\n      jump\t// out\n        /* \"#utility.yul\":14826:14968   */\n    tag_157:\n        /* \"#utility.yul\":14876:14885   */\n      0x00\n        /* \"#utility.yul\":14909:14962   */\n      tag_316\n        /* \"#utility.yul\":14927:14961   */\n      tag_317\n        /* \"#utility.yul\":14936:14960   */\n      tag_318\n        /* \"#utility.yul\":14954:14959   */\n      dup5\n        /* \"#utility.yul\":14936:14960   */\n      tag_114\n      jump\t// in\n    tag_318:\n        /* \"#utility.yul\":14927:14961   */\n      tag_156\n      jump\t// in\n    tag_317:\n        /* \"#utility.yul\":14909:14962   */\n      tag_114\n      jump\t// in\n    tag_316:\n        /* \"#utility.yul\":14896:14962   */\n      swap1\n      pop\n        /* \"#utility.yul\":14826:14968   */\n      swap2\n      swap1\n      pop\n      jump\t// out\n        /* \"#utility.yul\":14974:15049   */\n    tag_158:\n        /* \"#utility.yul\":15017:15020   */\n      0x00\n        /* \"#utility.yul\":15038:15043   */\n      dup2\n        /* \"#utility.yul\":15031:15043   */\n      swap1\n      pop\n        /* \"#utility.yul\":14974:15049   */\n      swap2\n      swap1\n      pop\n      jump\t// out\n        /* \"#utility.yul\":15055:15324   */\n    tag_159:\n        /* \"#utility.yul\":15165:15204   */\n      tag_321\n        /* \"#utility.yul\":15196:15203   */\n      dup4\n        /* \"#utility.yul\":15165:15204   */\n      tag_157\n      jump\t// in\n    tag_321:\n        /* \"#utility.yul\":15226:15317   */\n      tag_322\n        /* \"#utility.yul\":15275:15316   */\n      tag_323\n        /* \"#utility.yul\":15299:15315   */\n      dup3\n        /* \"#utility.yul\":15275:15316   */\n      tag_158\n      jump\t// in\n    tag_323:\n        /* \"#utility.yul\":15267:15273   */\n      dup5\n        /* \"#utility.yul\":15260:15264   */\n      dup5\n        /* \"#utility.yul\":15254:15265   */\n      sload\n        /* \"#utility.yul\":15226:15317   */\n      tag_155\n      jump\t// in\n    tag_322:\n        /* \"#utility.yul\":15220:15224   */\n      dup3\n        /* \"#utility.yul\":15213:15318   */\n      sstore\n        /* \"#utility.yul\":15131:15324   */\n      pop\n        /* \"#utility.yul\":15055:15324   */\n      pop\n      pop\n      pop\n      jump\t// out\n        /* \"#utility.yul\":15330:15403   */\n    tag_160:\n        /* \"#utility.yul\":15375:15378   */\n      0x00\n        /* \"#utility.yul\":15330:15403   */\n      swap1\n      jump\t// out\n        /* \"#utility.yul\":15409:15598   */\n    tag_161:\n        /* \"#utility.yul\":15486:15518   */\n      tag_326\n      tag_160\n      jump\t// in\n    tag_326:\n        /* \"#utility.yul\":15527:15592   */\n      tag_327\n        /* \"#utility.yul\":15585:15591   */\n      dup2\n        /* \"#utility.yul\":15577:15583   */\n      dup5\n        /* \"#utility.yul\":15571:15575   */\n      dup5\n        /* \"#utility.yul\":15527:15592   */\n      tag_159\n      jump\t// in\n    tag_327:\n        /* \"#utility.yul\":15462:15598   */\n      pop\n        /* \"#utility.yul\":15409:15598   */\n      pop\n      pop\n      jump\t// out\n        /* \"#utility.yul\":15604:15790   */\n    tag_162:\n        /* \"#utility.yul\":15664:15784   */\n    tag_329:\n        /* \"#utility.yul\":15681:15684   */\n      dup2\n        /* \"#utility.yul\":15674:15679   */\n      dup2\n        /* \"#utility.yul\":15671:15685   */\n      lt\n        /* \"#utility.yul\":15664:15784   */\n      iszero\n      tag_331\n      jumpi\n        /* \"#utility.yul\":15735:15774   */\n      tag_332\n        /* \"#utility.yul\":15772:15773   */\n      0x00\n        /* \"#utility.yul\":15765:15770   */\n      dup3\n        /* \"#utility.yul\":15735:15774   */\n      tag_161\n      jump\t// in\n    tag_332:\n        /* \"#utility.yul\":15708:15709   */\n      0x01\n        /* \"#utility.yul\":15701:15706   */\n      dup2\n        /* \"#utility.yul\":15697:15710   */\n      add\n        /* \"#utility.yul\":15688:15710   */\n      swap1\n      pop\n        /* \"#utility.yul\":15664:15784   */\n      jump(tag_329)\n    tag_331:\n        /* \"#utility.yul\":15604:15790   */\n      pop\n      pop\n      jump\t// out\n        /* \"#utility.yul\":15796:16339   */\n    tag_163:\n        /* \"#utility.yul\":15897:15899   */\n      0x1f\n        /* \"#utility.yul\":15892:15895   */\n      dup3\n        /* \"#utility.yul\":15889:15900   */\n      gt\n        /* \"#utility.yul\":15886:16332   */\n      iszero\n      tag_334\n      jumpi\n        /* \"#utility.yul\":15931:15969   */\n      tag_335\n        /* \"#utility.yul\":15963:15968   */\n      dup2\n        /* \"#utility.yul\":15931:15969   */\n      tag_152\n      jump\t// in\n    tag_335:\n        /* \"#utility.yul\":16015:16044   */\n      tag_336\n        /* \"#utility.yul\":16033:16043   */\n      dup5\n        /* \"#utility.yul\":16015:16044   */\n      tag_153\n      jump\t// in\n    tag_336:\n        /* \"#utility.yul\":16005:16013   */\n      dup2\n        /* \"#utility.yul\":16001:16045   */\n      add\n        /* \"#utility.yul\":16198:16200   */\n      0x20\n        /* \"#utility.yul\":16186:16196   */\n      dup6\n        /* \"#utility.yul\":16183:16201   */\n      lt\n        /* \"#utility.yul\":16180:16229   */\n      iszero\n      tag_337\n      jumpi\n        /* \"#utility.yul\":16219:16227   */\n      dup2\n        /* \"#utility.yul\":16204:16227   */\n      swap1\n      pop\n        /* \"#utility.yul\":16180:16229   */\n    tag_337:\n        /* \"#utility.yul\":16242:16322   */\n      tag_338\n        /* \"#utility.yul\":16298:16320   */\n      tag_339\n        /* \"#utility.yul\":16316:16319   */\n      dup6\n        /* \"#utility.yul\":16298:16320   */\n      tag_153\n      jump\t// in\n    tag_339:\n        /* \"#utility.yul\":16288:16296   */\n      dup4\n        /* \"#utility.yul\":16284:16321   */\n      add\n        /* \"#utility.yul\":16271:16282   */\n      dup3\n        /* \"#utility.yul\":16242:16322   */\n      tag_162\n      jump\t// in\n    tag_338:\n        /* \"#utility.yul\":15901:16332   */\n      pop\n      pop\n        /* \"#utility.yul\":15886:16332   */\n    tag_334:\n        /* \"#utility.yul\":15796:16339   */\n      pop\n      pop\n      pop\n      jump\t// out\n        /* \"#utility.yul\":16345:16462   */\n    tag_164:\n        /* \"#utility.yul\":16399:16407   */\n      0x00\n        /* \"#utility.yul\":16449:16454   */\n      dup3\n        /* \"#utility.yul\":16443:16447   */\n      dup3\n        /* \"#utility.yul\":16439:16455   */\n      shr\n        /* \"#utility.yul\":16418:16455   */\n      swap1\n      pop\n        /* \"#utility.yul\":16345:16462   */\n      swap3\n      swap2\n      pop\n      pop\n      jump\t// out\n        /* \"#utility.yul\":16468:16637   */\n    tag_165:\n        /* \"#utility.yul\":16512:16518   */\n      0x00\n        /* \"#utility.yul\":16545:16596   */\n      tag_342\n        /* \"#utility.yul\":16593:16594   */\n      0x00\n        /* \"#utility.yul\":16589:16595   */\n      not\n        /* \"#utility.yul\":16581:16586   */\n      dup5\n        /* \"#utility.yul\":16578:16579   */\n      0x08\n        /* \"#utility.yul\":16574:16587   */\n      mul\n        /* \"#utility.yul\":16545:16596   */\n      tag_164\n      jump\t// in\n    tag_342:\n        /* \"#utility.yul\":16541:16597   */\n      not\n        /* \"#utility.yul\":16626:16630   */\n      dup1\n        /* \"#utility.yul\":16620:16624   */\n      dup4\n        /* \"#utility.yul\":16616:16631   */\n      and\n        /* \"#utility.yul\":16606:16631   */\n      swap2\n      pop\n        /* \"#utility.yul\":16519:16637   */\n      pop\n        /* \"#utility.yul\":16468:16637   */\n      swap3\n      swap2\n      pop\n      pop\n      jump\t// out\n        /* \"#utility.yul\":16642:16937   */\n    tag_166:\n        /* \"#utility.yul\":16718:16722   */\n      0x00\n        /* \"#utility.yul\":16864:16893   */\n      tag_344\n        /* \"#utility.yul\":16889:16892   */\n      dup4\n        /* \"#utility.yul\":16883:16887   */\n      dup4\n        /* \"#utility.yul\":16864:16893   */\n      tag_165\n      jump\t// in\n    tag_344:\n        /* \"#utility.yul\":16856:16893   */\n      swap2\n      pop\n        /* \"#utility.yul\":16926:16929   */\n      dup3\n        /* \"#utility.yul\":16923:16924   */\n      0x02\n        /* \"#utility.yul\":16919:16930   */\n      mul\n        /* \"#utility.yul\":16913:16917   */\n      dup3\n        /* \"#utility.yul\":16910:16931   */\n      or\n        /* \"#utility.yul\":16902:16931   */\n      swap1\n      pop\n        /* \"#utility.yul\":16642:16937   */\n      swap3\n      swap2\n      pop\n      pop\n      jump\t// out\n        /* \"#utility.yul\":16942:18337   */\n    tag_109:\n        /* \"#utility.yul\":17059:17096   */\n      tag_346\n        /* \"#utility.yul\":17092:17095   */\n      dup3\n        /* \"#utility.yul\":17059:17096   */\n      tag_127\n      jump\t// in\n    tag_346:\n        /* \"#utility.yul\":17161:17179   */\n      0xffffffffffffffff\n        /* \"#utility.yul\":17153:17159   */\n      dup2\n        /* \"#utility.yul\":17150:17180   */\n      gt\n        /* \"#utility.yul\":17147:17203   */\n      iszero\n      tag_347\n      jumpi\n        /* \"#utility.yul\":17183:17201   */\n      tag_348\n      tag_139\n      jump\t// in\n    tag_348:\n        /* \"#utility.yul\":17147:17203   */\n    tag_347:\n        /* \"#utility.yul\":17227:17265   */\n      tag_349\n        /* \"#utility.yul\":17259:17263   */\n      dup3\n        /* \"#utility.yul\":17253:17264   */\n      sload\n        /* \"#utility.yul\":17227:17265   */\n      tag_68\n      jump\t// in\n    tag_349:\n        /* \"#utility.yul\":17312:17379   */\n      tag_350\n        /* \"#utility.yul\":17372:17378   */\n      dup3\n        /* \"#utility.yul\":17364:17370   */\n      dup3\n        /* \"#utility.yul\":17358:17362   */\n      dup6\n        /* \"#utility.yul\":17312:17379   */\n      tag_163\n      jump\t// in\n    tag_350:\n        /* \"#utility.yul\":17406:17407   */\n      0x00\n        /* \"#utility.yul\":17430:17434   */\n      0x20\n        /* \"#utility.yul\":17417:17434   */\n      swap1\n      pop\n        /* \"#utility.yul\":17462:17464   */\n      0x1f\n        /* \"#utility.yul\":17454:17460   */\n      dup4\n        /* \"#utility.yul\":17451:17465   */\n      gt\n        /* \"#utility.yul\":17479:17480   */\n      0x01\n        /* \"#utility.yul\":17474:18092   */\n      dup2\n      eq\n      tag_352\n      jumpi\n        /* \"#utility.yul\":18136:18137   */\n      0x00\n        /* \"#utility.yul\":18153:18159   */\n      dup5\n        /* \"#utility.yul\":18150:18227   */\n      iszero\n      tag_353\n      jumpi\n        /* \"#utility.yul\":18202:18211   */\n      dup3\n        /* \"#utility.yul\":18197:18200   */\n      dup8\n        /* \"#utility.yul\":18193:18212   */\n      add\n        /* \"#utility.yul\":18187:18213   */\n      mload\n        /* \"#utility.yul\":18178:18213   */\n      swap1\n      pop\n        /* \"#utility.yul\":18150:18227   */\n    tag_353:\n        /* \"#utility.yul\":18253:18320   */\n      tag_354\n        /* \"#utility.yul\":18313:18319   */\n      dup6\n        /* \"#utility.yul\":18306:18311   */\n      dup3\n        /* \"#utility.yul\":18253:18320   */\n      tag_166\n      jump\t// in\n    tag_354:\n        /* \"#utility.yul\":18247:18251   */\n      dup7\n        /* \"#utility.yul\":18240:18321   */\n      sstore\n        /* \"#utility.yul\":18109:18331   */\n      pop\n        /* \"#utility.yul\":17444:18331   */\n      jump(tag_351)\n        /* \"#utility.yul\":17474:18092   */\n    tag_352:\n        /* \"#utility.yul\":17526:17530   */\n      0x1f\n        /* \"#utility.yul\":17522:17531   */\n      not\n        /* \"#utility.yul\":17514:17520   */\n      dup5\n        /* \"#utility.yul\":17510:17532   */\n      and\n        /* \"#utility.yul\":17560:17597   */\n      tag_355\n        /* \"#utility.yul\":17592:17596   */\n      dup7\n        /* \"#utility.yul\":17560:17597   */\n      tag_152\n      jump\t// in\n    tag_355:\n        /* \"#utility.yul\":17619:17620   */\n      0x00\n        /* \"#utility.yul\":17633:17841   */\n    tag_356:\n        /* \"#utility.yul\":17647:17654   */\n      dup3\n        /* \"#utility.yul\":17644:17645   */\n      dup2\n        /* \"#utility.yul\":17641:17655   */\n      lt\n        /* \"#utility.yul\":17633:17841   */\n      iszero\n      tag_358\n      jumpi\n        /* \"#utility.yul\":17726:17735   */\n      dup5\n        /* \"#utility.yul\":17721:17724   */\n      dup10\n        /* \"#utility.yul\":17717:17736   */\n      add\n        /* \"#utility.yul\":17711:17737   */\n      mload\n        /* \"#utility.yul\":17703:17709   */\n      dup3\n        /* \"#utility.yul\":17696:17738   */\n      sstore\n        /* \"#utility.yul\":17777:17778   */\n      0x01\n        /* \"#utility.yul\":17769:17775   */\n      dup3\n        /* \"#utility.yul\":17765:17779   */\n      add\n        /* \"#utility.yul\":17755:17779   */\n      swap2\n      pop\n        /* \"#utility.yul\":17824:17826   */\n      0x20\n        /* \"#utility.yul\":17813:17822   */\n      dup6\n        /* \"#utility.yul\":17809:17827   */\n      add\n        /* \"#utility.yul\":17796:17827   */\n      swap5\n      pop\n        /* \"#utility.yul\":17670:17674   */\n      0x20\n        /* \"#utility.yul\":17667:17668   */\n      dup2\n        /* \"#utility.yul\":17663:17675   */\n      add\n        /* \"#utility.yul\":17658:17675   */\n      swap1\n      pop\n        /* \"#utility.yul\":17633:17841   */\n      jump(tag_356)\n    tag_358:\n        /* \"#utility.yul\":17869:17875   */\n      dup7\n        /* \"#utility.yul\":17860:17867   */\n      dup4\n        /* \"#utility.yul\":17857:17876   */\n      lt\n        /* \"#utility.yul\":17854:18033   */\n      iszero\n      tag_359\n      jumpi\n        /* \"#utility.yul\":17927:17936   */\n      dup5\n        /* \"#utility.yul\":17922:17925   */\n      dup10\n        /* \"#utility.yul\":17918:17937   */\n      add\n        /* \"#utility.yul\":17912:17938   */\n      mload\n        /* \"#utility.yul\":17970:18018   */\n      tag_360\n        /* \"#utility.yul\":18012:18016   */\n      0x1f\n        /* \"#utility.yul\":18004:18010   */\n      dup10\n        /* \"#utility.yul\":18000:18017   */\n      and\n        /* \"#utility.yul\":17989:17998   */\n      dup3\n        /* \"#utility.yul\":17970:18018   */\n      tag_165\n      jump\t// in\n    tag_360:\n        /* \"#utility.yul\":17962:17968   */\n      dup4\n        /* \"#utility.yul\":17955:18019   */\n      sstore\n        /* \"#utility.yul\":17877:18033   */\n      pop\n        /* \"#utility.yul\":17854:18033   */\n    tag_359:\n        /* \"#utility.yul\":18079:18080   */\n      0x01\n        /* \"#utility.yul\":18075:18076   */\n      0x02\n        /* \"#utility.yul\":18067:18073   */\n      dup9\n        /* \"#utility.yul\":18063:18077   */\n      mul\n        /* \"#utility.yul\":18059:18081   */\n      add\n        /* \"#utility.yul\":18053:18057   */\n      dup9\n        /* \"#utility.yul\":18046:18082   */\n      sstore\n        /* \"#utility.yul\":17481:18092   */\n      pop\n      pop\n      pop\n        /* \"#utility.yul\":17444:18331   */\n    tag_351:\n      pop\n        /* \"#utility.yul\":17034:18337   */\n      pop\n      pop\n      pop\n        /* \"#utility.yul\":16942:18337   */\n      pop\n      pop\n      jump\t// out\n\n    auxdata: 0xa264697066735822122023619ef36c3834c02dcbd15b59b812fbb6fd435fa19bb3edf2a0130255f462bc64736f6c634300081a0033\n}\n",
				"bytecode": {
					"linkReferences": {},
					"object": "60806040525f6003553480156012575f80fd5b50611392806100205f395ff3fe608060405260043610610089575f3560e01c80637274e30d116100585780637274e30d1461018d578063e43826d8146101b7578063ee1554a3146101f3578063f14faf6f1461022f578063ffa56a571461024b57610090565b80630fa91fa914610094578063141961bc146100d05780633b594a68146101105780635598f8cc1461014c57610090565b3661009057005b5f80fd5b34801561009f575f80fd5b506100ba60048036038101906100b59190610a21565b610273565b6040516100c79190610b33565b60405180910390f35b3480156100db575f80fd5b506100f660048036038101906100f19190610a21565b610316565b604051610107959493929190610be1565b60405180910390f35b34801561011b575f80fd5b5061013660048036038101906101319190610a21565b610472565b6040516101439190610c5a565b60405180910390f35b348015610157575f80fd5b50610172600480360381019061016d9190610a21565b61048f565b60405161018496959493929190610c73565b60405180910390f35b348015610198575f80fd5b506101a16106ef565b6040516101ae9190610ce7565b60405180910390f35b3480156101c2575f80fd5b506101dd60048036038101906101d89190610d2a565b6106f5565b6040516101ea9190610ce7565b60405180910390f35b3480156101fe575f80fd5b5061021960048036038101906102149190610d2a565b61074b565b6040516102269190610ce7565b60405180910390f35b61024960048036038101906102449190610a21565b61076b565b005b348015610256575f80fd5b50610271600480360381019061026c9190610e94565b610909565b005b60605f805f8481526020019081526020015f2090508060050180548060200260200160405190810160405280929190818152602001828054801561030957602002820191905f5260205f20905b815f9054906101000a900473ffffffffffffffffffffffffffffffffffffffff1673ffffffffffffffffffffffffffffffffffffffff16815260200190600101908083116102c0575b5050505050915050919050565b5f602052805f5260405f205f91509050805f015f9054906101000a900473ffffffffffffffffffffffffffffffffffffffff169080600101805461035990610f49565b80601f016020809104026020016040519081016040528092919081815260200182805461038590610f49565b80156103d05780601f106103a7576101008083540402835291602001916103d0565b820191905f5260205f20905b8154815290600101906020018083116103b357829003601f168201915b5050505050908060020180546103e590610f49565b80601f016020809104026020016040519081016040528092919081815260200182805461041190610f49565b801561045c5780601f106104335761010080835404028352916020019161045c565b820191905f5260205f20905b81548152906001019060200180831161043f57829003601f168201915b5050505050908060030154908060040154905085565b6002602052805f5260405f205f915054906101000a900460ff1681565b5f6060805f80606060025f8881526020019081526020015f205f9054906101000a900460ff166104f4576040517f08c379a00000000000000000000000000000000000000000000000000000000081526004016104eb90610fc3565b60405180910390fd5b5f805f8981526020019081526020015f209050805f015f9054906101000a900473ffffffffffffffffffffffffffffffffffffffff168160010182600201836003015484600401548560050184805461054c90610f49565b80601f016020809104026020016040519081016040528092919081815260200182805461057890610f49565b80156105c35780601f1061059a576101008083540402835291602001916105c3565b820191905f5260205f20905b8154815290600101906020018083116105a657829003601f168201915b505050505094508380546105d690610f49565b80601f016020809104026020016040519081016040528092919081815260200182805461060290610f49565b801561064d5780601f106106245761010080835404028352916020019161064d565b820191905f5260205f20905b81548152906001019060200180831161063057829003601f168201915b50505050509350808054806020026020016040519081016040528092919081815260200182805480156106d257602002820191905f5260205f20905b815f9054906101000a900473ffffffffffffffffffffffffffffffffffffffff1673ffffffffffffffffffffffffffffffffffffffff1681526020019060010190808311610689575b505050505090509650965096509650965096505091939550919395565b60035481565b5f60015f8481526020019081526020015f205f8373ffffffffffffffffffffffffffffffffffffffff1673ffffffffffffffffffffffffffffffffffffffff1681526020019081526020015f2054905092915050565b6001602052815f5260405f20602052805f5260405f205f91509150505481565b60025f8281526020019081526020015f205f9054906101000a900460ff166107c8576040517f08c379a00000000000000000000000000000000000000000000000000000000081526004016107bf90610fc3565b60405180910390fd5b5f341161080a576040517f08c379a00000000000000000000000000000000000000000000000000000000081526004016108019061102b565b60405180910390fd5b3460015f8381526020019081526020015f205f3373ffffffffffffffffffffffffffffffffffffffff1673ffffffffffffffffffffffffffffffffffffffff1681526020019081526020015f205f8282546108659190611076565b92505081905550345f808381526020019081526020015f206004015f82825461088e9190611076565b925050819055505f808281526020019081526020015f2060050133908060018154018082558091505060019003905f5260205f20015f9091909190916101000a81548173ffffffffffffffffffffffffffffffffffffffff021916908373ffffffffffffffffffffffffffffffffffffffff16021790555050565b60035f81548092919061091b906110a9565b91905055505f805f60035481526020019081526020015f20905083816001019081610946919061128d565b5082816002019081610958919061128d565b508181600301819055505f816004018190555033815f015f6101000a81548173ffffffffffffffffffffffffffffffffffffffff021916908373ffffffffffffffffffffffffffffffffffffffff160217905550600160025f60035481526020019081526020015f205f6101000a81548160ff02191690831515021790555050505050565b5f604051905090565b5f80fd5b5f80fd5b5f819050919050565b610a00816109ee565b8114610a0a575f80fd5b50565b5f81359050610a1b816109f7565b92915050565b5f60208284031215610a3657610a356109e6565b5b5f610a4384828501610a0d565b91505092915050565b5f81519050919050565b5f82825260208201905092915050565b5f819050602082019050919050565b5f73ffffffffffffffffffffffffffffffffffffffff82169050919050565b5f610a9e82610a75565b9050919050565b610aae81610a94565b82525050565b5f610abf8383610aa5565b60208301905092915050565b5f602082019050919050565b5f610ae182610a4c565b610aeb8185610a56565b9350610af683610a66565b805f5b83811015610b26578151610b0d8882610ab4565b9750610b1883610acb565b925050600181019050610af9565b5085935050505092915050565b5f6020820190508181035f830152610b4b8184610ad7565b905092915050565b610b5c81610a94565b82525050565b5f81519050919050565b5f82825260208201905092915050565b8281835e5f83830152505050565b5f601f19601f8301169050919050565b5f610ba482610b62565b610bae8185610b6c565b9350610bbe818560208601610b7c565b610bc781610b8a565b840191505092915050565b610bdb816109ee565b82525050565b5f60a082019050610bf45f830188610b53565b8181036020830152610c068187610b9a565b90508181036040830152610c1a8186610b9a565b9050610c296060830185610bd2565b610c366080830184610bd2565b9695505050505050565b5f8115159050919050565b610c5481610c40565b82525050565b5f602082019050610c6d5f830184610c4b565b92915050565b5f60c082019050610c865f830189610b53565b8181036020830152610c988188610b9a565b90508181036040830152610cac8187610b9a565b9050610cbb6060830186610bd2565b610cc86080830185610bd2565b81810360a0830152610cda8184610ad7565b9050979650505050505050565b5f602082019050610cfa5f830184610bd2565b92915050565b610d0981610a94565b8114610d13575f80fd5b50565b5f81359050610d2481610d00565b92915050565b5f8060408385031215610d4057610d3f6109e6565b5b5f610d4d85828601610a0d565b9250506020610d5e85828601610d16565b9150509250929050565b5f80fd5b5f80fd5b7f4e487b71000000000000000000000000000000000000000000000000000000005f52604160045260245ffd5b610da682610b8a565b810181811067ffffffffffffffff82111715610dc557610dc4610d70565b5b80604052505050565b5f610dd76109dd565b9050610de38282610d9d565b919050565b5f67ffffffffffffffff821115610e0257610e01610d70565b5b610e0b82610b8a565b9050602081019050919050565b828183375f83830152505050565b5f610e38610e3384610de8565b610dce565b905082815260208101848484011115610e5457610e53610d6c565b5b610e5f848285610e18565b509392505050565b5f82601f830112610e7b57610e7a610d68565b5b8135610e8b848260208601610e26565b91505092915050565b5f805f60608486031215610eab57610eaa6109e6565b5b5f84013567ffffffffffffffff811115610ec857610ec76109ea565b5b610ed486828701610e67565b935050602084013567ffffffffffffffff811115610ef557610ef46109ea565b5b610f0186828701610e67565b9250506040610f1286828701610a0d565b9150509250925092565b7f4e487b71000000000000000000000000000000000000000000000000000000005f52602260045260245ffd5b5f6002820490506001821680610f6057607f821691505b602082108103610f7357610f72610f1c565b5b50919050565b7f43616d706169676e20646f6573206e6f742065786973740000000000000000005f82015250565b5f610fad601783610b6c565b9150610fb882610f79565b602082019050919050565b5f6020820190508181035f830152610fda81610fa1565b9050919050565b7f446f6e6174696f6e206d7573742062652067726561746572207468616e2030005f82015250565b5f611015601f83610b6c565b915061102082610fe1565b602082019050919050565b5f6020820190508181035f83015261104281611009565b9050919050565b7f4e487b71000000000000000000000000000000000000000000000000000000005f52601160045260245ffd5b5f611080826109ee565b915061108b836109ee565b92508282019050808211156110a3576110a2611049565b5b92915050565b5f6110b3826109ee565b91507fffffffffffffffffffffffffffffffffffffffffffffffffffffffffffffffff82036110e5576110e4611049565b5b600182019050919050565b5f819050815f5260205f209050919050565b5f6020601f8301049050919050565b5f82821b905092915050565b5f6008830261114c7fffffffffffffffffffffffffffffffffffffffffffffffffffffffffffffffff82611111565b6111568683611111565b95508019841693508086168417925050509392505050565b5f819050919050565b5f61119161118c611187846109ee565b61116e565b6109ee565b9050919050565b5f819050919050565b6111aa83611177565b6111be6111b682611198565b84845461111d565b825550505050565b5f90565b6111d26111c6565b6111dd8184846111a1565b505050565b5b81811015611200576111f55f826111ca565b6001810190506111e3565b5050565b601f82111561124557611216816110f0565b61121f84611102565b8101602085101561122e578190505b61124261123a85611102565b8301826111e2565b50505b505050565b5f82821c905092915050565b5f6112655f198460080261124a565b1980831691505092915050565b5f61127d8383611256565b9150826002028217905092915050565b61129682610b62565b67ffffffffffffffff8111156112af576112ae610d70565b5b6112b98254610f49565b6112c4828285611204565b5f60209050601f8311600181146112f5575f84156112e3578287015190505b6112ed8582611272565b865550611354565b601f198416611303866110f0565b5f5b8281101561132a57848901518255600182019150602085019450602081019050611305565b868310156113475784890151611343601f891682611256565b8355505b6001600288020188555050505b50505050505056fea264697066735822122023619ef36c3834c02dcbd15b59b812fbb6fd435fa19bb3edf2a0130255f462bc64736f6c634300081a0033",
					"opcodes": "PUSH1 0x80 PUSH1 0x40 MSTORE PUSH0 PUSH1 0x3 SSTORE CALLVALUE DUP1 ISZERO PUSH1 0x12 JUMPI PUSH0 DUP1 REVERT JUMPDEST POP PUSH2 0x1392 DUP1 PUSH2 0x20 PUSH0 CODECOPY PUSH0 RETURN INVALID PUSH1 0x80 PUSH1 0x40 MSTORE PUSH1 0x4 CALLDATASIZE LT PUSH2 0x89 JUMPI PUSH0 CALLDATALOAD PUSH1 0xE0 SHR DUP1 PUSH4 0x7274E30D GT PUSH2 0x58 JUMPI DUP1 PUSH4 0x7274E30D EQ PUSH2 0x18D JUMPI DUP1 PUSH4 0xE43826D8 EQ PUSH2 0x1B7 JUMPI DUP1 PUSH4 0xEE1554A3 EQ PUSH2 0x1F3 JUMPI DUP1 PUSH4 0xF14FAF6F EQ PUSH2 0x22F JUMPI DUP1 PUSH4 0xFFA56A57 EQ PUSH2 0x24B JUMPI PUSH2 0x90 JUMP JUMPDEST DUP1 PUSH4 0xFA91FA9 EQ PUSH2 0x94 JUMPI DUP1 PUSH4 0x141961BC EQ PUSH2 0xD0 JUMPI DUP1 PUSH4 0x3B594A68 EQ PUSH2 0x110 JUMPI DUP1 PUSH4 0x5598F8CC EQ PUSH2 0x14C JUMPI PUSH2 0x90 JUMP JUMPDEST CALLDATASIZE PUSH2 0x90 JUMPI STOP JUMPDEST PUSH0 DUP1 REVERT JUMPDEST CALLVALUE DUP1 ISZERO PUSH2 0x9F JUMPI PUSH0 DUP1 REVERT JUMPDEST POP PUSH2 0xBA PUSH1 0x4 DUP1 CALLDATASIZE SUB DUP2 ADD SWAP1 PUSH2 0xB5 SWAP2 SWAP1 PUSH2 0xA21 JUMP JUMPDEST PUSH2 0x273 JUMP JUMPDEST PUSH1 0x40 MLOAD PUSH2 0xC7 SWAP2 SWAP1 PUSH2 0xB33 JUMP JUMPDEST PUSH1 0x40 MLOAD DUP1 SWAP2 SUB SWAP1 RETURN JUMPDEST CALLVALUE DUP1 ISZERO PUSH2 0xDB JUMPI PUSH0 DUP1 REVERT JUMPDEST POP PUSH2 0xF6 PUSH1 0x4 DUP1 CALLDATASIZE SUB DUP2 ADD SWAP1 PUSH2 0xF1 SWAP2 SWAP1 PUSH2 0xA21 JUMP JUMPDEST PUSH2 0x316 JUMP JUMPDEST PUSH1 0x40 MLOAD PUSH2 0x107 SWAP6 SWAP5 SWAP4 SWAP3 SWAP2 SWAP1 PUSH2 0xBE1 JUMP JUMPDEST PUSH1 0x40 MLOAD DUP1 SWAP2 SUB SWAP1 RETURN JUMPDEST CALLVALUE DUP1 ISZERO PUSH2 0x11B JUMPI PUSH0 DUP1 REVERT JUMPDEST POP PUSH2 0x136 PUSH1 0x4 DUP1 CALLDATASIZE SUB DUP2 ADD SWAP1 PUSH2 0x131 SWAP2 SWAP1 PUSH2 0xA21 JUMP JUMPDEST PUSH2 0x472 JUMP JUMPDEST PUSH1 0x40 MLOAD PUSH2 0x143 SWAP2 SWAP1 PUSH2 0xC5A JUMP JUMPDEST PUSH1 0x40 MLOAD DUP1 SWAP2 SUB SWAP1 RETURN JUMPDEST CALLVALUE DUP1 ISZERO PUSH2 0x157 JUMPI PUSH0 DUP1 REVERT JUMPDEST POP PUSH2 0x172 PUSH1 0x4 DUP1 CALLDATASIZE SUB DUP2 ADD SWAP1 PUSH2 0x16D SWAP2 SWAP1 PUSH2 0xA21 JUMP JUMPDEST PUSH2 0x48F JUMP JUMPDEST PUSH1 0x40 MLOAD PUSH2 0x184 SWAP7 SWAP6 SWAP5 SWAP4 SWAP3 SWAP2 SWAP1 PUSH2 0xC73 JUMP JUMPDEST PUSH1 0x40 MLOAD DUP1 SWAP2 SUB SWAP1 RETURN JUMPDEST CALLVALUE DUP1 ISZERO PUSH2 0x198 JUMPI PUSH0 DUP1 REVERT JUMPDEST POP PUSH2 0x1A1 PUSH2 0x6EF JUMP JUMPDEST PUSH1 0x40 MLOAD PUSH2 0x1AE SWAP2 SWAP1 PUSH2 0xCE7 JUMP JUMPDEST PUSH1 0x40 MLOAD DUP1 SWAP2 SUB SWAP1 RETURN JUMPDEST CALLVALUE DUP1 ISZERO PUSH2 0x1C2 JUMPI PUSH0 DUP1 REVERT JUMPDEST POP PUSH2 0x1DD PUSH1 0x4 DUP1 CALLDATASIZE SUB DUP2 ADD SWAP1 PUSH2 0x1D8 SWAP2 SWAP1 PUSH2 0xD2A JUMP JUMPDEST PUSH2 0x6F5 JUMP JUMPDEST PUSH1 0x40 MLOAD PUSH2 0x1EA SWAP2 SWAP1 PUSH2 0xCE7 JUMP JUMPDEST PUSH1 0x40 MLOAD DUP1 SWAP2 SUB SWAP1 RETURN JUMPDEST CALLVALUE DUP1 ISZERO PUSH2 0x1FE JUMPI PUSH0 DUP1 REVERT JUMPDEST POP PUSH2 0x219 PUSH1 0x4 DUP1 CALLDATASIZE SUB DUP2 ADD SWAP1 PUSH2 0x214 SWAP2 SWAP1 PUSH2 0xD2A JUMP JUMPDEST PUSH2 0x74B JUMP JUMPDEST PUSH1 0x40 MLOAD PUSH2 0x226 SWAP2 SWAP1 PUSH2 0xCE7 JUMP JUMPDEST PUSH1 0x40 MLOAD DUP1 SWAP2 SUB SWAP1 RETURN JUMPDEST PUSH2 0x249 PUSH1 0x4 DUP1 CALLDATASIZE SUB DUP2 ADD SWAP1 PUSH2 0x244 SWAP2 SWAP1 PUSH2 0xA21 JUMP JUMPDEST PUSH2 0x76B JUMP JUMPDEST STOP JUMPDEST CALLVALUE DUP1 ISZERO PUSH2 0x256 JUMPI PUSH0 DUP1 REVERT JUMPDEST POP PUSH2 0x271 PUSH1 0x4 DUP1 CALLDATASIZE SUB DUP2 ADD SWAP1 PUSH2 0x26C SWAP2 SWAP1 PUSH2 0xE94 JUMP JUMPDEST PUSH2 0x909 JUMP JUMPDEST STOP JUMPDEST PUSH1 0x60 PUSH0 DUP1 PUSH0 DUP5 DUP2 MSTORE PUSH1 0x20 ADD SWAP1 DUP2 MSTORE PUSH1 0x20 ADD PUSH0 KECCAK256 SWAP1 POP DUP1 PUSH1 0x5 ADD DUP1 SLOAD DUP1 PUSH1 0x20 MUL PUSH1 0x20 ADD PUSH1 0x40 MLOAD SWAP1 DUP2 ADD PUSH1 0x40 MSTORE DUP1 SWAP3 SWAP2 SWAP1 DUP2 DUP2 MSTORE PUSH1 0x20 ADD DUP3 DUP1 SLOAD DUP1 ISZERO PUSH2 0x309 JUMPI PUSH1 0x20 MUL DUP3 ADD SWAP2 SWAP1 PUSH0 MSTORE PUSH1 0x20 PUSH0 KECCAK256 SWAP1 JUMPDEST DUP2 PUSH0 SWAP1 SLOAD SWAP1 PUSH2 0x100 EXP SWAP1 DIV PUSH20 0xFFFFFFFFFFFFFFFFFFFFFFFFFFFFFFFFFFFFFFFF AND PUSH20 0xFFFFFFFFFFFFFFFFFFFFFFFFFFFFFFFFFFFFFFFF AND DUP2 MSTORE PUSH1 0x20 ADD SWAP1 PUSH1 0x1 ADD SWAP1 DUP1 DUP4 GT PUSH2 0x2C0 JUMPI JUMPDEST POP POP POP POP POP SWAP2 POP POP SWAP2 SWAP1 POP JUMP JUMPDEST PUSH0 PUSH1 0x20 MSTORE DUP1 PUSH0 MSTORE PUSH1 0x40 PUSH0 KECCAK256 PUSH0 SWAP2 POP SWAP1 POP DUP1 PUSH0 ADD PUSH0 SWAP1 SLOAD SWAP1 PUSH2 0x100 EXP SWAP1 DIV PUSH20 0xFFFFFFFFFFFFFFFFFFFFFFFFFFFFFFFFFFFFFFFF AND SWAP1 DUP1 PUSH1 0x1 ADD DUP1 SLOAD PUSH2 0x359 SWAP1 PUSH2 0xF49 JUMP JUMPDEST DUP1 PUSH1 0x1F ADD PUSH1 0x20 DUP1 SWAP2 DIV MUL PUSH1 0x20 ADD PUSH1 0x40 MLOAD SWAP1 DUP2 ADD PUSH1 0x40 MSTORE DUP1 SWAP3 SWAP2 SWAP1 DUP2 DUP2 MSTORE PUSH1 0x20 ADD DUP3 DUP1 SLOAD PUSH2 0x385 SWAP1 PUSH2 0xF49 JUMP JUMPDEST DUP1 ISZERO PUSH2 0x3D0 JUMPI DUP1 PUSH1 0x1F LT PUSH2 0x3A7 JUMPI PUSH2 0x100 DUP1 DUP4 SLOAD DIV MUL DUP4 MSTORE SWAP2 PUSH1 0x20 ADD SWAP2 PUSH2 0x3D0 JUMP JUMPDEST DUP3 ADD SWAP2 SWAP1 PUSH0 MSTORE PUSH1 0x20 PUSH0 KECCAK256 SWAP1 JUMPDEST DUP2 SLOAD DUP2 MSTORE SWAP1 PUSH1 0x1 ADD SWAP1 PUSH1 0x20 ADD DUP1 DUP4 GT PUSH2 0x3B3 JUMPI DUP3 SWAP1 SUB PUSH1 0x1F AND DUP3 ADD SWAP2 JUMPDEST POP POP POP POP POP SWAP1 DUP1 PUSH1 0x2 ADD DUP1 SLOAD PUSH2 0x3E5 SWAP1 PUSH2 0xF49 JUMP JUMPDEST DUP1 PUSH1 0x1F ADD PUSH1 0x20 DUP1 SWAP2 DIV MUL PUSH1 0x20 ADD PUSH1 0x40 MLOAD SWAP1 DUP2 ADD PUSH1 0x40 MSTORE DUP1 SWAP3 SWAP2 SWAP1 DUP2 DUP2 MSTORE PUSH1 0x20 ADD DUP3 DUP1 SLOAD PUSH2 0x411 SWAP1 PUSH2 0xF49 JUMP JUMPDEST DUP1 ISZERO PUSH2 0x45C JUMPI DUP1 PUSH1 0x1F LT PUSH2 0x433 JUMPI PUSH2 0x100 DUP1 DUP4 SLOAD DIV MUL DUP4 MSTORE SWAP2 PUSH1 0x20 ADD SWAP2 PUSH2 0x45C JUMP JUMPDEST DUP3 ADD SWAP2 SWAP1 PUSH0 MSTORE PUSH1 0x20 PUSH0 KECCAK256 SWAP1 JUMPDEST DUP2 SLOAD DUP2 MSTORE SWAP1 PUSH1 0x1 ADD SWAP1 PUSH1 0x20 ADD DUP1 DUP4 GT PUSH2 0x43F JUMPI DUP3 SWAP1 SUB PUSH1 0x1F AND DUP3 ADD SWAP2 JUMPDEST POP POP POP POP POP SWAP1 DUP1 PUSH1 0x3 ADD SLOAD SWAP1 DUP1 PUSH1 0x4 ADD SLOAD SWAP1 POP DUP6 JUMP JUMPDEST PUSH1 0x2 PUSH1 0x20 MSTORE DUP1 PUSH0 MSTORE PUSH1 0x40 PUSH0 KECCAK256 PUSH0 SWAP2 POP SLOAD SWAP1 PUSH2 0x100 EXP SWAP1 DIV PUSH1 0xFF AND DUP2 JUMP JUMPDEST PUSH0 PUSH1 0x60 DUP1 PUSH0 DUP1 PUSH1 0x60 PUSH1 0x2 PUSH0 DUP9 DUP2 MSTORE PUSH1 0x20 ADD SWAP1 DUP2 MSTORE PUSH1 0x20 ADD PUSH0 KECCAK256 PUSH0 SWAP1 SLOAD SWAP1 PUSH2 0x100 EXP SWAP1 DIV PUSH1 0xFF AND PUSH2 0x4F4 JUMPI PUSH1 0x40 MLOAD PUSH32 0x8C379A000000000000000000000000000000000000000000000000000000000 DUP2 MSTORE PUSH1 0x4 ADD PUSH2 0x4EB SWAP1 PUSH2 0xFC3 JUMP JUMPDEST PUSH1 0x40 MLOAD DUP1 SWAP2 SUB SWAP1 REVERT JUMPDEST PUSH0 DUP1 PUSH0 DUP10 DUP2 MSTORE PUSH1 0x20 ADD SWAP1 DUP2 MSTORE PUSH1 0x20 ADD PUSH0 KECCAK256 SWAP1 POP DUP1 PUSH0 ADD PUSH0 SWAP1 SLOAD SWAP1 PUSH2 0x100 EXP SWAP1 DIV PUSH20 0xFFFFFFFFFFFFFFFFFFFFFFFFFFFFFFFFFFFFFFFF AND DUP2 PUSH1 0x1 ADD DUP3 PUSH1 0x2 ADD DUP4 PUSH1 0x3 ADD SLOAD DUP5 PUSH1 0x4 ADD SLOAD DUP6 PUSH1 0x5 ADD DUP5 DUP1 SLOAD PUSH2 0x54C SWAP1 PUSH2 0xF49 JUMP JUMPDEST DUP1 PUSH1 0x1F ADD PUSH1 0x20 DUP1 SWAP2 DIV MUL PUSH1 0x20 ADD PUSH1 0x40 MLOAD SWAP1 DUP2 ADD PUSH1 0x40 MSTORE DUP1 SWAP3 SWAP2 SWAP1 DUP2 DUP2 MSTORE PUSH1 0x20 ADD DUP3 DUP1 SLOAD PUSH2 0x578 SWAP1 PUSH2 0xF49 JUMP JUMPDEST DUP1 ISZERO PUSH2 0x5C3 JUMPI DUP1 PUSH1 0x1F LT PUSH2 0x59A JUMPI PUSH2 0x100 DUP1 DUP4 SLOAD DIV MUL DUP4 MSTORE SWAP2 PUSH1 0x20 ADD SWAP2 PUSH2 0x5C3 JUMP JUMPDEST DUP3 ADD SWAP2 SWAP1 PUSH0 MSTORE PUSH1 0x20 PUSH0 KECCAK256 SWAP1 JUMPDEST DUP2 SLOAD DUP2 MSTORE SWAP1 PUSH1 0x1 ADD SWAP1 PUSH1 0x20 ADD DUP1 DUP4 GT PUSH2 0x5A6 JUMPI DUP3 SWAP1 SUB PUSH1 0x1F AND DUP3 ADD SWAP2 JUMPDEST POP POP POP POP POP SWAP5 POP DUP4 DUP1 SLOAD PUSH2 0x5D6 SWAP1 PUSH2 0xF49 JUMP JUMPDEST DUP1 PUSH1 0x1F ADD PUSH1 0x20 DUP1 SWAP2 DIV MUL PUSH1 0x20 ADD PUSH1 0x40 MLOAD SWAP1 DUP2 ADD PUSH1 0x40 MSTORE DUP1 SWAP3 SWAP2 SWAP1 DUP2 DUP2 MSTORE PUSH1 0x20 ADD DUP3 DUP1 SLOAD PUSH2 0x602 SWAP1 PUSH2 0xF49 JUMP JUMPDEST DUP1 ISZERO PUSH2 0x64D JUMPI DUP1 PUSH1 0x1F LT PUSH2 0x624 JUMPI PUSH2 0x100 DUP1 DUP4 SLOAD DIV MUL DUP4 MSTORE SWAP2 PUSH1 0x20 ADD SWAP2 PUSH2 0x64D JUMP JUMPDEST DUP3 ADD SWAP2 SWAP1 PUSH0 MSTORE PUSH1 0x20 PUSH0 KECCAK256 SWAP1 JUMPDEST DUP2 SLOAD DUP2 MSTORE SWAP1 PUSH1 0x1 ADD SWAP1 PUSH1 0x20 ADD DUP1 DUP4 GT PUSH2 0x630 JUMPI DUP3 SWAP1 SUB PUSH1 0x1F AND DUP3 ADD SWAP2 JUMPDEST POP POP POP POP POP SWAP4 POP DUP1 DUP1 SLOAD DUP1 PUSH1 0x20 MUL PUSH1 0x20 ADD PUSH1 0x40 MLOAD SWAP1 DUP2 ADD PUSH1 0x40 MSTORE DUP1 SWAP3 SWAP2 SWAP1 DUP2 DUP2 MSTORE PUSH1 0x20 ADD DUP3 DUP1 SLOAD DUP1 ISZERO PUSH2 0x6D2 JUMPI PUSH1 0x20 MUL DUP3 ADD SWAP2 SWAP1 PUSH0 MSTORE PUSH1 0x20 PUSH0 KECCAK256 SWAP1 JUMPDEST DUP2 PUSH0 SWAP1 SLOAD SWAP1 PUSH2 0x100 EXP SWAP1 DIV PUSH20 0xFFFFFFFFFFFFFFFFFFFFFFFFFFFFFFFFFFFFFFFF AND PUSH20 0xFFFFFFFFFFFFFFFFFFFFFFFFFFFFFFFFFFFFFFFF AND DUP2 MSTORE PUSH1 0x20 ADD SWAP1 PUSH1 0x1 ADD SWAP1 DUP1 DUP4 GT PUSH2 0x689 JUMPI JUMPDEST POP POP POP POP POP SWAP1 POP SWAP7 POP SWAP7 POP SWAP7 POP SWAP7 POP SWAP7 POP SWAP7 POP POP SWAP2 SWAP4 SWAP6 POP SWAP2 SWAP4 SWAP6 JUMP JUMPDEST PUSH1 0x3 SLOAD DUP2 JUMP JUMPDEST PUSH0 PUSH1 0x1 PUSH0 DUP5 DUP2 MSTORE PUSH1 0x20 ADD SWAP1 DUP2 MSTORE PUSH1 0x20 ADD PUSH0 KECCAK256 PUSH0 DUP4 PUSH20 0xFFFFFFFFFFFFFFFFFFFFFFFFFFFFFFFFFFFFFFFF AND PUSH20 0xFFFFFFFFFFFFFFFFFFFFFFFFFFFFFFFFFFFFFFFF AND DUP2 MSTORE PUSH1 0x20 ADD SWAP1 DUP2 MSTORE PUSH1 0x20 ADD PUSH0 KECCAK256 SLOAD SWAP1 POP SWAP3 SWAP2 POP POP JUMP JUMPDEST PUSH1 0x1 PUSH1 0x20 MSTORE DUP2 PUSH0 MSTORE PUSH1 0x40 PUSH0 KECCAK256 PUSH1 0x20 MSTORE DUP1 PUSH0 MSTORE PUSH1 0x40 PUSH0 KECCAK256 PUSH0 SWAP2 POP SWAP2 POP POP SLOAD DUP2 JUMP JUMPDEST PUSH1 0x2 PUSH0 DUP3 DUP2 MSTORE PUSH1 0x20 ADD SWAP1 DUP2 MSTORE PUSH1 0x20 ADD PUSH0 KECCAK256 PUSH0 SWAP1 SLOAD SWAP1 PUSH2 0x100 EXP SWAP1 DIV PUSH1 0xFF AND PUSH2 0x7C8 JUMPI PUSH1 0x40 MLOAD PUSH32 0x8C379A000000000000000000000000000000000000000000000000000000000 DUP2 MSTORE PUSH1 0x4 ADD PUSH2 0x7BF SWAP1 PUSH2 0xFC3 JUMP JUMPDEST PUSH1 0x40 MLOAD DUP1 SWAP2 SUB SWAP1 REVERT JUMPDEST PUSH0 CALLVALUE GT PUSH2 0x80A JUMPI PUSH1 0x40 MLOAD PUSH32 0x8C379A000000000000000000000000000000000000000000000000000000000 DUP2 MSTORE PUSH1 0x4 ADD PUSH2 0x801 SWAP1 PUSH2 0x102B JUMP JUMPDEST PUSH1 0x40 MLOAD DUP1 SWAP2 SUB SWAP1 REVERT JUMPDEST CALLVALUE PUSH1 0x1 PUSH0 DUP4 DUP2 MSTORE PUSH1 0x20 ADD SWAP1 DUP2 MSTORE PUSH1 0x20 ADD PUSH0 KECCAK256 PUSH0 CALLER PUSH20 0xFFFFFFFFFFFFFFFFFFFFFFFFFFFFFFFFFFFFFFFF AND PUSH20 0xFFFFFFFFFFFFFFFFFFFFFFFFFFFFFFFFFFFFFFFF AND DUP2 MSTORE PUSH1 0x20 ADD SWAP1 DUP2 MSTORE PUSH1 0x20 ADD PUSH0 KECCAK256 PUSH0 DUP3 DUP3 SLOAD PUSH2 0x865 SWAP2 SWAP1 PUSH2 0x1076 JUMP JUMPDEST SWAP3 POP POP DUP2 SWAP1 SSTORE POP CALLVALUE PUSH0 DUP1 DUP4 DUP2 MSTORE PUSH1 0x20 ADD SWAP1 DUP2 MSTORE PUSH1 0x20 ADD PUSH0 KECCAK256 PUSH1 0x4 ADD PUSH0 DUP3 DUP3 SLOAD PUSH2 0x88E SWAP2 SWAP1 PUSH2 0x1076 JUMP JUMPDEST SWAP3 POP POP DUP2 SWAP1 SSTORE POP PUSH0 DUP1 DUP3 DUP2 MSTORE PUSH1 0x20 ADD SWAP1 DUP2 MSTORE PUSH1 0x20 ADD PUSH0 KECCAK256 PUSH1 0x5 ADD CALLER SWAP1 DUP1 PUSH1 0x1 DUP2 SLOAD ADD DUP1 DUP3 SSTORE DUP1 SWAP2 POP POP PUSH1 0x1 SWAP1 SUB SWAP1 PUSH0 MSTORE PUSH1 0x20 PUSH0 KECCAK256 ADD PUSH0 SWAP1 SWAP2 SWAP1 SWAP2 SWAP1 SWAP2 PUSH2 0x100 EXP DUP2 SLOAD DUP2 PUSH20 0xFFFFFFFFFFFFFFFFFFFFFFFFFFFFFFFFFFFFFFFF MUL NOT AND SWAP1 DUP4 PUSH20 0xFFFFFFFFFFFFFFFFFFFFFFFFFFFFFFFFFFFFFFFF AND MUL OR SWAP1 SSTORE POP POP JUMP JUMPDEST PUSH1 0x3 PUSH0 DUP2 SLOAD DUP1 SWAP3 SWAP2 SWAP1 PUSH2 0x91B SWAP1 PUSH2 0x10A9 JUMP JUMPDEST SWAP2 SWAP1 POP SSTORE POP PUSH0 DUP1 PUSH0 PUSH1 0x3 SLOAD DUP2 MSTORE PUSH1 0x20 ADD SWAP1 DUP2 MSTORE PUSH1 0x20 ADD PUSH0 KECCAK256 SWAP1 POP DUP4 DUP2 PUSH1 0x1 ADD SWAP1 DUP2 PUSH2 0x946 SWAP2 SWAP1 PUSH2 0x128D JUMP JUMPDEST POP DUP3 DUP2 PUSH1 0x2 ADD SWAP1 DUP2 PUSH2 0x958 SWAP2 SWAP1 PUSH2 0x128D JUMP JUMPDEST POP DUP2 DUP2 PUSH1 0x3 ADD DUP2 SWAP1 SSTORE POP PUSH0 DUP2 PUSH1 0x4 ADD DUP2 SWAP1 SSTORE POP CALLER DUP2 PUSH0 ADD PUSH0 PUSH2 0x100 EXP DUP2 SLOAD DUP2 PUSH20 0xFFFFFFFFFFFFFFFFFFFFFFFFFFFFFFFFFFFFFFFF MUL NOT AND SWAP1 DUP4 PUSH20 0xFFFFFFFFFFFFFFFFFFFFFFFFFFFFFFFFFFFFFFFF AND MUL OR SWAP1 SSTORE POP PUSH1 0x1 PUSH1 0x2 PUSH0 PUSH1 0x3 SLOAD DUP2 MSTORE PUSH1 0x20 ADD SWAP1 DUP2 MSTORE PUSH1 0x20 ADD PUSH0 KECCAK256 PUSH0 PUSH2 0x100 EXP DUP2 SLOAD DUP2 PUSH1 0xFF MUL NOT AND SWAP1 DUP4 ISZERO ISZERO MUL OR SWAP1 SSTORE POP POP POP POP POP JUMP JUMPDEST PUSH0 PUSH1 0x40 MLOAD SWAP1 POP SWAP1 JUMP JUMPDEST PUSH0 DUP1 REVERT JUMPDEST PUSH0 DUP1 REVERT JUMPDEST PUSH0 DUP2 SWAP1 POP SWAP2 SWAP1 POP JUMP JUMPDEST PUSH2 0xA00 DUP2 PUSH2 0x9EE JUMP JUMPDEST DUP2 EQ PUSH2 0xA0A JUMPI PUSH0 DUP1 REVERT JUMPDEST POP JUMP JUMPDEST PUSH0 DUP2 CALLDATALOAD SWAP1 POP PUSH2 0xA1B DUP2 PUSH2 0x9F7 JUMP JUMPDEST SWAP3 SWAP2 POP POP JUMP JUMPDEST PUSH0 PUSH1 0x20 DUP3 DUP5 SUB SLT ISZERO PUSH2 0xA36 JUMPI PUSH2 0xA35 PUSH2 0x9E6 JUMP JUMPDEST JUMPDEST PUSH0 PUSH2 0xA43 DUP5 DUP3 DUP6 ADD PUSH2 0xA0D JUMP JUMPDEST SWAP2 POP POP SWAP3 SWAP2 POP POP JUMP JUMPDEST PUSH0 DUP2 MLOAD SWAP1 POP SWAP2 SWAP1 POP JUMP JUMPDEST PUSH0 DUP3 DUP3 MSTORE PUSH1 0x20 DUP3 ADD SWAP1 POP SWAP3 SWAP2 POP POP JUMP JUMPDEST PUSH0 DUP2 SWAP1 POP PUSH1 0x20 DUP3 ADD SWAP1 POP SWAP2 SWAP1 POP JUMP JUMPDEST PUSH0 PUSH20 0xFFFFFFFFFFFFFFFFFFFFFFFFFFFFFFFFFFFFFFFF DUP3 AND SWAP1 POP SWAP2 SWAP1 POP JUMP JUMPDEST PUSH0 PUSH2 0xA9E DUP3 PUSH2 0xA75 JUMP JUMPDEST SWAP1 POP SWAP2 SWAP1 POP JUMP JUMPDEST PUSH2 0xAAE DUP2 PUSH2 0xA94 JUMP JUMPDEST DUP3 MSTORE POP POP JUMP JUMPDEST PUSH0 PUSH2 0xABF DUP4 DUP4 PUSH2 0xAA5 JUMP JUMPDEST PUSH1 0x20 DUP4 ADD SWAP1 POP SWAP3 SWAP2 POP POP JUMP JUMPDEST PUSH0 PUSH1 0x20 DUP3 ADD SWAP1 POP SWAP2 SWAP1 POP JUMP JUMPDEST PUSH0 PUSH2 0xAE1 DUP3 PUSH2 0xA4C JUMP JUMPDEST PUSH2 0xAEB DUP2 DUP6 PUSH2 0xA56 JUMP JUMPDEST SWAP4 POP PUSH2 0xAF6 DUP4 PUSH2 0xA66 JUMP JUMPDEST DUP1 PUSH0 JUMPDEST DUP4 DUP2 LT ISZERO PUSH2 0xB26 JUMPI DUP2 MLOAD PUSH2 0xB0D DUP9 DUP3 PUSH2 0xAB4 JUMP JUMPDEST SWAP8 POP PUSH2 0xB18 DUP4 PUSH2 0xACB JUMP JUMPDEST SWAP3 POP POP PUSH1 0x1 DUP2 ADD SWAP1 POP PUSH2 0xAF9 JUMP JUMPDEST POP DUP6 SWAP4 POP POP POP POP SWAP3 SWAP2 POP POP JUMP JUMPDEST PUSH0 PUSH1 0x20 DUP3 ADD SWAP1 POP DUP2 DUP2 SUB PUSH0 DUP4 ADD MSTORE PUSH2 0xB4B DUP2 DUP5 PUSH2 0xAD7 JUMP JUMPDEST SWAP1 POP SWAP3 SWAP2 POP POP JUMP JUMPDEST PUSH2 0xB5C DUP2 PUSH2 0xA94 JUMP JUMPDEST DUP3 MSTORE POP POP JUMP JUMPDEST PUSH0 DUP2 MLOAD SWAP1 POP SWAP2 SWAP1 POP JUMP JUMPDEST PUSH0 DUP3 DUP3 MSTORE PUSH1 0x20 DUP3 ADD SWAP1 POP SWAP3 SWAP2 POP POP JUMP JUMPDEST DUP3 DUP2 DUP4 MCOPY PUSH0 DUP4 DUP4 ADD MSTORE POP POP POP JUMP JUMPDEST PUSH0 PUSH1 0x1F NOT PUSH1 0x1F DUP4 ADD AND SWAP1 POP SWAP2 SWAP1 POP JUMP JUMPDEST PUSH0 PUSH2 0xBA4 DUP3 PUSH2 0xB62 JUMP JUMPDEST PUSH2 0xBAE DUP2 DUP6 PUSH2 0xB6C JUMP JUMPDEST SWAP4 POP PUSH2 0xBBE DUP2 DUP6 PUSH1 0x20 DUP7 ADD PUSH2 0xB7C JUMP JUMPDEST PUSH2 0xBC7 DUP2 PUSH2 0xB8A JUMP JUMPDEST DUP5 ADD SWAP2 POP POP SWAP3 SWAP2 POP POP JUMP JUMPDEST PUSH2 0xBDB DUP2 PUSH2 0x9EE JUMP JUMPDEST DUP3 MSTORE POP POP JUMP JUMPDEST PUSH0 PUSH1 0xA0 DUP3 ADD SWAP1 POP PUSH2 0xBF4 PUSH0 DUP4 ADD DUP9 PUSH2 0xB53 JUMP JUMPDEST DUP2 DUP2 SUB PUSH1 0x20 DUP4 ADD MSTORE PUSH2 0xC06 DUP2 DUP8 PUSH2 0xB9A JUMP JUMPDEST SWAP1 POP DUP2 DUP2 SUB PUSH1 0x40 DUP4 ADD MSTORE PUSH2 0xC1A DUP2 DUP7 PUSH2 0xB9A JUMP JUMPDEST SWAP1 POP PUSH2 0xC29 PUSH1 0x60 DUP4 ADD DUP6 PUSH2 0xBD2 JUMP JUMPDEST PUSH2 0xC36 PUSH1 0x80 DUP4 ADD DUP5 PUSH2 0xBD2 JUMP JUMPDEST SWAP7 SWAP6 POP POP POP POP POP POP JUMP JUMPDEST PUSH0 DUP2 ISZERO ISZERO SWAP1 POP SWAP2 SWAP1 POP JUMP JUMPDEST PUSH2 0xC54 DUP2 PUSH2 0xC40 JUMP JUMPDEST DUP3 MSTORE POP POP JUMP JUMPDEST PUSH0 PUSH1 0x20 DUP3 ADD SWAP1 POP PUSH2 0xC6D PUSH0 DUP4 ADD DUP5 PUSH2 0xC4B JUMP JUMPDEST SWAP3 SWAP2 POP POP JUMP JUMPDEST PUSH0 PUSH1 0xC0 DUP3 ADD SWAP1 POP PUSH2 0xC86 PUSH0 DUP4 ADD DUP10 PUSH2 0xB53 JUMP JUMPDEST DUP2 DUP2 SUB PUSH1 0x20 DUP4 ADD MSTORE PUSH2 0xC98 DUP2 DUP9 PUSH2 0xB9A JUMP JUMPDEST SWAP1 POP DUP2 DUP2 SUB PUSH1 0x40 DUP4 ADD MSTORE PUSH2 0xCAC DUP2 DUP8 PUSH2 0xB9A JUMP JUMPDEST SWAP1 POP PUSH2 0xCBB PUSH1 0x60 DUP4 ADD DUP7 PUSH2 0xBD2 JUMP JUMPDEST PUSH2 0xCC8 PUSH1 0x80 DUP4 ADD DUP6 PUSH2 0xBD2 JUMP JUMPDEST DUP2 DUP2 SUB PUSH1 0xA0 DUP4 ADD MSTORE PUSH2 0xCDA DUP2 DUP5 PUSH2 0xAD7 JUMP JUMPDEST SWAP1 POP SWAP8 SWAP7 POP POP POP POP POP POP POP JUMP JUMPDEST PUSH0 PUSH1 0x20 DUP3 ADD SWAP1 POP PUSH2 0xCFA PUSH0 DUP4 ADD DUP5 PUSH2 0xBD2 JUMP JUMPDEST SWAP3 SWAP2 POP POP JUMP JUMPDEST PUSH2 0xD09 DUP2 PUSH2 0xA94 JUMP JUMPDEST DUP2 EQ PUSH2 0xD13 JUMPI PUSH0 DUP1 REVERT JUMPDEST POP JUMP JUMPDEST PUSH0 DUP2 CALLDATALOAD SWAP1 POP PUSH2 0xD24 DUP2 PUSH2 0xD00 JUMP JUMPDEST SWAP3 SWAP2 POP POP JUMP JUMPDEST PUSH0 DUP1 PUSH1 0x40 DUP4 DUP6 SUB SLT ISZERO PUSH2 0xD40 JUMPI PUSH2 0xD3F PUSH2 0x9E6 JUMP JUMPDEST JUMPDEST PUSH0 PUSH2 0xD4D DUP6 DUP3 DUP7 ADD PUSH2 0xA0D JUMP JUMPDEST SWAP3 POP POP PUSH1 0x20 PUSH2 0xD5E DUP6 DUP3 DUP7 ADD PUSH2 0xD16 JUMP JUMPDEST SWAP2 POP POP SWAP3 POP SWAP3 SWAP1 POP JUMP JUMPDEST PUSH0 DUP1 REVERT JUMPDEST PUSH0 DUP1 REVERT JUMPDEST PUSH32 0x4E487B7100000000000000000000000000000000000000000000000000000000 PUSH0 MSTORE PUSH1 0x41 PUSH1 0x4 MSTORE PUSH1 0x24 PUSH0 REVERT JUMPDEST PUSH2 0xDA6 DUP3 PUSH2 0xB8A JUMP JUMPDEST DUP2 ADD DUP2 DUP2 LT PUSH8 0xFFFFFFFFFFFFFFFF DUP3 GT OR ISZERO PUSH2 0xDC5 JUMPI PUSH2 0xDC4 PUSH2 0xD70 JUMP JUMPDEST JUMPDEST DUP1 PUSH1 0x40 MSTORE POP POP POP JUMP JUMPDEST PUSH0 PUSH2 0xDD7 PUSH2 0x9DD JUMP JUMPDEST SWAP1 POP PUSH2 0xDE3 DUP3 DUP3 PUSH2 0xD9D JUMP JUMPDEST SWAP2 SWAP1 POP JUMP JUMPDEST PUSH0 PUSH8 0xFFFFFFFFFFFFFFFF DUP3 GT ISZERO PUSH2 0xE02 JUMPI PUSH2 0xE01 PUSH2 0xD70 JUMP JUMPDEST JUMPDEST PUSH2 0xE0B DUP3 PUSH2 0xB8A JUMP JUMPDEST SWAP1 POP PUSH1 0x20 DUP2 ADD SWAP1 POP SWAP2 SWAP1 POP JUMP JUMPDEST DUP3 DUP2 DUP4 CALLDATACOPY PUSH0 DUP4 DUP4 ADD MSTORE POP POP POP JUMP JUMPDEST PUSH0 PUSH2 0xE38 PUSH2 0xE33 DUP5 PUSH2 0xDE8 JUMP JUMPDEST PUSH2 0xDCE JUMP JUMPDEST SWAP1 POP DUP3 DUP2 MSTORE PUSH1 0x20 DUP2 ADD DUP5 DUP5 DUP5 ADD GT ISZERO PUSH2 0xE54 JUMPI PUSH2 0xE53 PUSH2 0xD6C JUMP JUMPDEST JUMPDEST PUSH2 0xE5F DUP5 DUP3 DUP6 PUSH2 0xE18 JUMP JUMPDEST POP SWAP4 SWAP3 POP POP POP JUMP JUMPDEST PUSH0 DUP3 PUSH1 0x1F DUP4 ADD SLT PUSH2 0xE7B JUMPI PUSH2 0xE7A PUSH2 0xD68 JUMP JUMPDEST JUMPDEST DUP2 CALLDATALOAD PUSH2 0xE8B DUP5 DUP3 PUSH1 0x20 DUP7 ADD PUSH2 0xE26 JUMP JUMPDEST SWAP2 POP POP SWAP3 SWAP2 POP POP JUMP JUMPDEST PUSH0 DUP1 PUSH0 PUSH1 0x60 DUP5 DUP7 SUB SLT ISZERO PUSH2 0xEAB JUMPI PUSH2 0xEAA PUSH2 0x9E6 JUMP JUMPDEST JUMPDEST PUSH0 DUP5 ADD CALLDATALOAD PUSH8 0xFFFFFFFFFFFFFFFF DUP2 GT ISZERO PUSH2 0xEC8 JUMPI PUSH2 0xEC7 PUSH2 0x9EA JUMP JUMPDEST JUMPDEST PUSH2 0xED4 DUP7 DUP3 DUP8 ADD PUSH2 0xE67 JUMP JUMPDEST SWAP4 POP POP PUSH1 0x20 DUP5 ADD CALLDATALOAD PUSH8 0xFFFFFFFFFFFFFFFF DUP2 GT ISZERO PUSH2 0xEF5 JUMPI PUSH2 0xEF4 PUSH2 0x9EA JUMP JUMPDEST JUMPDEST PUSH2 0xF01 DUP7 DUP3 DUP8 ADD PUSH2 0xE67 JUMP JUMPDEST SWAP3 POP POP PUSH1 0x40 PUSH2 0xF12 DUP7 DUP3 DUP8 ADD PUSH2 0xA0D JUMP JUMPDEST SWAP2 POP POP SWAP3 POP SWAP3 POP SWAP3 JUMP JUMPDEST PUSH32 0x4E487B7100000000000000000000000000000000000000000000000000000000 PUSH0 MSTORE PUSH1 0x22 PUSH1 0x4 MSTORE PUSH1 0x24 PUSH0 REVERT JUMPDEST PUSH0 PUSH1 0x2 DUP3 DIV SWAP1 POP PUSH1 0x1 DUP3 AND DUP1 PUSH2 0xF60 JUMPI PUSH1 0x7F DUP3 AND SWAP2 POP JUMPDEST PUSH1 0x20 DUP3 LT DUP2 SUB PUSH2 0xF73 JUMPI PUSH2 0xF72 PUSH2 0xF1C JUMP JUMPDEST JUMPDEST POP SWAP2 SWAP1 POP JUMP JUMPDEST PUSH32 0x43616D706169676E20646F6573206E6F74206578697374000000000000000000 PUSH0 DUP3 ADD MSTORE POP JUMP JUMPDEST PUSH0 PUSH2 0xFAD PUSH1 0x17 DUP4 PUSH2 0xB6C JUMP JUMPDEST SWAP2 POP PUSH2 0xFB8 DUP3 PUSH2 0xF79 JUMP JUMPDEST PUSH1 0x20 DUP3 ADD SWAP1 POP SWAP2 SWAP1 POP JUMP JUMPDEST PUSH0 PUSH1 0x20 DUP3 ADD SWAP1 POP DUP2 DUP2 SUB PUSH0 DUP4 ADD MSTORE PUSH2 0xFDA DUP2 PUSH2 0xFA1 JUMP JUMPDEST SWAP1 POP SWAP2 SWAP1 POP JUMP JUMPDEST PUSH32 0x446F6E6174696F6E206D7573742062652067726561746572207468616E203000 PUSH0 DUP3 ADD MSTORE POP JUMP JUMPDEST PUSH0 PUSH2 0x1015 PUSH1 0x1F DUP4 PUSH2 0xB6C JUMP JUMPDEST SWAP2 POP PUSH2 0x1020 DUP3 PUSH2 0xFE1 JUMP JUMPDEST PUSH1 0x20 DUP3 ADD SWAP1 POP SWAP2 SWAP1 POP JUMP JUMPDEST PUSH0 PUSH1 0x20 DUP3 ADD SWAP1 POP DUP2 DUP2 SUB PUSH0 DUP4 ADD MSTORE PUSH2 0x1042 DUP2 PUSH2 0x1009 JUMP JUMPDEST SWAP1 POP SWAP2 SWAP1 POP JUMP JUMPDEST PUSH32 0x4E487B7100000000000000000000000000000000000000000000000000000000 PUSH0 MSTORE PUSH1 0x11 PUSH1 0x4 MSTORE PUSH1 0x24 PUSH0 REVERT JUMPDEST PUSH0 PUSH2 0x1080 DUP3 PUSH2 0x9EE JUMP JUMPDEST SWAP2 POP PUSH2 0x108B DUP4 PUSH2 0x9EE JUMP JUMPDEST SWAP3 POP DUP3 DUP3 ADD SWAP1 POP DUP1 DUP3 GT ISZERO PUSH2 0x10A3 JUMPI PUSH2 0x10A2 PUSH2 0x1049 JUMP JUMPDEST JUMPDEST SWAP3 SWAP2 POP POP JUMP JUMPDEST PUSH0 PUSH2 0x10B3 DUP3 PUSH2 0x9EE JUMP JUMPDEST SWAP2 POP PUSH32 0xFFFFFFFFFFFFFFFFFFFFFFFFFFFFFFFFFFFFFFFFFFFFFFFFFFFFFFFFFFFFFFFF DUP3 SUB PUSH2 0x10E5 JUMPI PUSH2 0x10E4 PUSH2 0x1049 JUMP JUMPDEST JUMPDEST PUSH1 0x1 DUP3 ADD SWAP1 POP SWAP2 SWAP1 POP JUMP JUMPDEST PUSH0 DUP2 SWAP1 POP DUP2 PUSH0 MSTORE PUSH1 0x20 PUSH0 KECCAK256 SWAP1 POP SWAP2 SWAP1 POP JUMP JUMPDEST PUSH0 PUSH1 0x20 PUSH1 0x1F DUP4 ADD DIV SWAP1 POP SWAP2 SWAP1 POP JUMP JUMPDEST PUSH0 DUP3 DUP3 SHL SWAP1 POP SWAP3 SWAP2 POP POP JUMP JUMPDEST PUSH0 PUSH1 0x8 DUP4 MUL PUSH2 0x114C PUSH32 0xFFFFFFFFFFFFFFFFFFFFFFFFFFFFFFFFFFFFFFFFFFFFFFFFFFFFFFFFFFFFFFFF DUP3 PUSH2 0x1111 JUMP JUMPDEST PUSH2 0x1156 DUP7 DUP4 PUSH2 0x1111 JUMP JUMPDEST SWAP6 POP DUP1 NOT DUP5 AND SWAP4 POP DUP1 DUP7 AND DUP5 OR SWAP3 POP POP POP SWAP4 SWAP3 POP POP POP JUMP JUMPDEST PUSH0 DUP2 SWAP1 POP SWAP2 SWAP1 POP JUMP JUMPDEST PUSH0 PUSH2 0x1191 PUSH2 0x118C PUSH2 0x1187 DUP5 PUSH2 0x9EE JUMP JUMPDEST PUSH2 0x116E JUMP JUMPDEST PUSH2 0x9EE JUMP JUMPDEST SWAP1 POP SWAP2 SWAP1 POP JUMP JUMPDEST PUSH0 DUP2 SWAP1 POP SWAP2 SWAP1 POP JUMP JUMPDEST PUSH2 0x11AA DUP4 PUSH2 0x1177 JUMP JUMPDEST PUSH2 0x11BE PUSH2 0x11B6 DUP3 PUSH2 0x1198 JUMP JUMPDEST DUP5 DUP5 SLOAD PUSH2 0x111D JUMP JUMPDEST DUP3 SSTORE POP POP POP POP JUMP JUMPDEST PUSH0 SWAP1 JUMP JUMPDEST PUSH2 0x11D2 PUSH2 0x11C6 JUMP JUMPDEST PUSH2 0x11DD DUP2 DUP5 DUP5 PUSH2 0x11A1 JUMP JUMPDEST POP POP POP JUMP JUMPDEST JUMPDEST DUP2 DUP2 LT ISZERO PUSH2 0x1200 JUMPI PUSH2 0x11F5 PUSH0 DUP3 PUSH2 0x11CA JUMP JUMPDEST PUSH1 0x1 DUP2 ADD SWAP1 POP PUSH2 0x11E3 JUMP JUMPDEST POP POP JUMP JUMPDEST PUSH1 0x1F DUP3 GT ISZERO PUSH2 0x1245 JUMPI PUSH2 0x1216 DUP2 PUSH2 0x10F0 JUMP JUMPDEST PUSH2 0x121F DUP5 PUSH2 0x1102 JUMP JUMPDEST DUP2 ADD PUSH1 0x20 DUP6 LT ISZERO PUSH2 0x122E JUMPI DUP2 SWAP1 POP JUMPDEST PUSH2 0x1242 PUSH2 0x123A DUP6 PUSH2 0x1102 JUMP JUMPDEST DUP4 ADD DUP3 PUSH2 0x11E2 JUMP JUMPDEST POP POP JUMPDEST POP POP POP JUMP JUMPDEST PUSH0 DUP3 DUP3 SHR SWAP1 POP SWAP3 SWAP2 POP POP JUMP JUMPDEST PUSH0 PUSH2 0x1265 PUSH0 NOT DUP5 PUSH1 0x8 MUL PUSH2 0x124A JUMP JUMPDEST NOT DUP1 DUP4 AND SWAP2 POP POP SWAP3 SWAP2 POP POP JUMP JUMPDEST PUSH0 PUSH2 0x127D DUP4 DUP4 PUSH2 0x1256 JUMP JUMPDEST SWAP2 POP DUP3 PUSH1 0x2 MUL DUP3 OR SWAP1 POP SWAP3 SWAP2 POP POP JUMP JUMPDEST PUSH2 0x1296 DUP3 PUSH2 0xB62 JUMP JUMPDEST PUSH8 0xFFFFFFFFFFFFFFFF DUP2 GT ISZERO PUSH2 0x12AF JUMPI PUSH2 0x12AE PUSH2 0xD70 JUMP JUMPDEST JUMPDEST PUSH2 0x12B9 DUP3 SLOAD PUSH2 0xF49 JUMP JUMPDEST PUSH2 0x12C4 DUP3 DUP3 DUP6 PUSH2 0x1204 JUMP JUMPDEST PUSH0 PUSH1 0x20 SWAP1 POP PUSH1 0x1F DUP4 GT PUSH1 0x1 DUP2 EQ PUSH2 0x12F5 JUMPI PUSH0 DUP5 ISZERO PUSH2 0x12E3 JUMPI DUP3 DUP8 ADD MLOAD SWAP1 POP JUMPDEST PUSH2 0x12ED DUP6 DUP3 PUSH2 0x1272 JUMP JUMPDEST DUP7 SSTORE POP PUSH2 0x1354 JUMP JUMPDEST PUSH1 0x1F NOT DUP5 AND PUSH2 0x1303 DUP7 PUSH2 0x10F0 JUMP JUMPDEST PUSH0 JUMPDEST DUP3 DUP2 LT ISZERO PUSH2 0x132A JUMPI DUP5 DUP10 ADD MLOAD DUP3 SSTORE PUSH1 0x1 DUP3 ADD SWAP2 POP PUSH1 0x20 DUP6 ADD SWAP5 POP PUSH1 0x20 DUP2 ADD SWAP1 POP PUSH2 0x1305 JUMP JUMPDEST DUP7 DUP4 LT ISZERO PUSH2 0x1347 JUMPI DUP5 DUP10 ADD MLOAD PUSH2 0x1343 PUSH1 0x1F DUP10 AND DUP3 PUSH2 0x1256 JUMP JUMPDEST DUP4 SSTORE POP JUMPDEST PUSH1 0x1 PUSH1 0x2 DUP9 MUL ADD DUP9 SSTORE POP POP POP JUMPDEST POP POP POP POP POP POP JUMP INVALID LOG2 PUSH5 0x6970667358 0x22 SLT KECCAK256 0x23 PUSH2 0x9EF3 PUSH13 0x3834C02DCBD15B59B812FBB6FD NUMBER PUSH0 LOG1 SWAP12 0xB3 0xED CALLCODE LOG0 SGT MUL SSTORE DELEGATECALL PUSH3 0xBC6473 PUSH16 0x6C634300081A00330000000000000000 "
				},
				"gasEstimates": {
					"creation": {
						"codeDepositCost": "1002000",
						"executionCost": "6044",
						"totalCost": "1008044"
					},
					"external": {
						"campaignCount()": "2425",
						"campaignExists(uint256)": "2830",
						"campaigns(uint256)": "infinite",
						"createCampaign(string,string,uint256)": "infinite",
						"donate(uint256)": "infinite",
						"donations(uint256,address)": "infinite",
						"getCampaign(uint256)": "infinite",
						"getDonationAmount(uint256,address)": "infinite",
						"getDonators(uint256)": "infinite"
					}
				},
				"methodIdentifiers": {
					"campaignCount()": "7274e30d",
					"campaignExists(uint256)": "3b594a68",
					"campaigns(uint256)": "141961bc",
					"createCampaign(string,string,uint256)": "ffa56a57",
					"donate(uint256)": "f14faf6f",
					"donations(uint256,address)": "ee1554a3",
					"getCampaign(uint256)": "5598f8cc",
					"getDonationAmount(uint256,address)": "e43826d8",
					"getDonators(uint256)": "0fa91fa9"
				}
			},
			"storageLayout": {
				"storage": [
					{
						"astId": 20,
						"contract": "contracts/Donations.sol:Donation",
						"label": "campaigns",
						"offset": 0,
						"slot": "0",
						"type": "t_mapping(t_uint256,t_struct(Campaign)15_storage)"
					},
					{
						"astId": 26,
						"contract": "contracts/Donations.sol:Donation",
						"label": "donations",
						"offset": 0,
						"slot": "1",
						"type": "t_mapping(t_uint256,t_mapping(t_address,t_uint256))"
					},
					{
						"astId": 30,
						"contract": "contracts/Donations.sol:Donation",
						"label": "campaignExists",
						"offset": 0,
						"slot": "2",
						"type": "t_mapping(t_uint256,t_bool)"
					},
					{
						"astId": 33,
						"contract": "contracts/Donations.sol:Donation",
						"label": "campaignCount",
						"offset": 0,
						"slot": "3",
						"type": "t_uint256"
					}
				],
				"types": {
					"t_address": {
						"encoding": "inplace",
						"label": "address",
						"numberOfBytes": "20"
					},
					"t_array(t_address)dyn_storage": {
						"base": "t_address",
						"encoding": "dynamic_array",
						"label": "address[]",
						"numberOfBytes": "32"
					},
					"t_bool": {
						"encoding": "inplace",
						"label": "bool",
						"numberOfBytes": "1"
					},
					"t_mapping(t_address,t_uint256)": {
						"encoding": "mapping",
						"key": "t_address",
						"label": "mapping(address => uint256)",
						"numberOfBytes": "32",
						"value": "t_uint256"
					},
					"t_mapping(t_uint256,t_bool)": {
						"encoding": "mapping",
						"key": "t_uint256",
						"label": "mapping(uint256 => bool)",
						"numberOfBytes": "32",
						"value": "t_bool"
					},
					"t_mapping(t_uint256,t_mapping(t_address,t_uint256))": {
						"encoding": "mapping",
						"key": "t_uint256",
						"label": "mapping(uint256 => mapping(address => uint256))",
						"numberOfBytes": "32",
						"value": "t_mapping(t_address,t_uint256)"
					},
					"t_mapping(t_uint256,t_struct(Campaign)15_storage)": {
						"encoding": "mapping",
						"key": "t_uint256",
						"label": "mapping(uint256 => struct Donation.Campaign)",
						"numberOfBytes": "32",
						"value": "t_struct(Campaign)15_storage"
					},
					"t_string_storage": {
						"encoding": "bytes",
						"label": "string",
						"numberOfBytes": "32"
					},
					"t_struct(Campaign)15_storage": {
						"encoding": "inplace",
						"label": "struct Donation.Campaign",
						"members": [
							{
								"astId": 3,
								"contract": "contracts/Donations.sol:Donation",
								"label": "owner",
								"offset": 0,
								"slot": "0",
								"type": "t_address"
							},
							{
								"astId": 5,
								"contract": "contracts/Donations.sol:Donation",
								"label": "title",
								"offset": 0,
								"slot": "1",
								"type": "t_string_storage"
							},
							{
								"astId": 7,
								"contract": "contracts/Donations.sol:Donation",
								"label": "description",
								"offset": 0,
								"slot": "2",
								"type": "t_string_storage"
							},
							{
								"astId": 9,
								"contract": "contracts/Donations.sol:Donation",
								"label": "target",
								"offset": 0,
								"slot": "3",
								"type": "t_uint256"
							},
							{
								"astId": 11,
								"contract": "contracts/Donations.sol:Donation",
								"label": "amountCollected",
								"offset": 0,
								"slot": "4",
								"type": "t_uint256"
							},
							{
								"astId": 14,
								"contract": "contracts/Donations.sol:Donation",
								"label": "donators",
								"offset": 0,
								"slot": "5",
								"type": "t_array(t_address)dyn_storage"
							}
						],
						"numberOfBytes": "192"
					},
					"t_uint256": {
						"encoding": "inplace",
						"label": "uint256",
						"numberOfBytes": "32"
					}
				}
			},
			"userdoc": {
				"kind": "user",
				"methods": {},
				"version": 1
			}
		}
	}
}